{
	"03_kipu-bank-v2/contracts/KipuBankV2.sol": {
		"KipuBankV2": {
			"abi": [
				{
					"inputs": [
						{
							"internalType": "uint256",
							"name": "_bankCapUSD",
							"type": "uint256"
						},
						{
							"internalType": "uint256",
							"name": "_umbralRetiroUSD",
							"type": "uint256"
						},
						{
							"internalType": "address",
							"name": "_ethUsdFeed",
							"type": "address"
						},
						{
							"internalType": "address",
							"name": "_usdc",
							"type": "address"
						},
						{
							"internalType": "address",
							"name": "_owner",
							"type": "address"
						}
					],
					"stateMutability": "nonpayable",
					"type": "constructor"
				},
				{
					"inputs": [
						{
							"internalType": "uint256",
							"name": "totalActualUSD",
							"type": "uint256"
						},
						{
							"internalType": "uint256",
							"name": "intentoDepositoUSD",
							"type": "uint256"
						},
						{
							"internalType": "uint256",
							"name": "limiteUSD",
							"type": "uint256"
						}
					],
					"name": "KipuBankV2_LimiteGlobalExcedidoUSD",
					"type": "error"
				},
				{
					"inputs": [],
					"name": "KipuBankV2_MontoDebeSerMayorACero",
					"type": "error"
				},
				{
					"inputs": [],
					"name": "KipuBankV2_OracleCompromised",
					"type": "error"
				},
				{
					"inputs": [
						{
							"internalType": "uint256",
							"name": "montoSolicitadoUSD",
							"type": "uint256"
						},
						{
							"internalType": "uint256",
							"name": "umbralMaximoUSD",
							"type": "uint256"
						}
					],
					"name": "KipuBankV2_RetiroExcedeUmbral",
					"type": "error"
				},
				{
					"inputs": [
						{
							"internalType": "uint256",
							"name": "balanceDisponible",
							"type": "uint256"
						},
						{
							"internalType": "uint256",
							"name": "montoSolicitado",
							"type": "uint256"
						}
					],
					"name": "KipuBankV2_SaldoInsuficiente",
					"type": "error"
				},
				{
					"inputs": [
						{
							"internalType": "uint256",
							"name": "tiempoTranscurrido",
							"type": "uint256"
						},
						{
							"internalType": "uint256",
							"name": "heartbeat",
							"type": "uint256"
						}
					],
					"name": "KipuBankV2_StalePrice",
					"type": "error"
				},
				{
					"inputs": [
						{
							"internalType": "address",
							"name": "token",
							"type": "address"
						}
					],
					"name": "KipuBankV2_TokenNoSoportado",
					"type": "error"
				},
				{
					"inputs": [
						{
							"internalType": "address",
							"name": "destinatario",
							"type": "address"
						}
					],
					"name": "KipuBankV2_TransferenciaFallida",
					"type": "error"
				},
				{
					"inputs": [
						{
							"internalType": "address",
							"name": "owner",
							"type": "address"
						}
					],
					"name": "OwnableInvalidOwner",
					"type": "error"
				},
				{
					"inputs": [
						{
							"internalType": "address",
							"name": "account",
							"type": "address"
						}
					],
					"name": "OwnableUnauthorizedAccount",
					"type": "error"
				},
				{
					"inputs": [],
					"name": "ReentrancyGuardReentrantCall",
					"type": "error"
				},
				{
					"inputs": [
						{
							"internalType": "address",
							"name": "token",
							"type": "address"
						}
					],
					"name": "SafeERC20FailedOperation",
					"type": "error"
				},
				{
					"anonymous": false,
					"inputs": [
						{
							"indexed": true,
							"internalType": "address",
							"name": "usuario",
							"type": "address"
						},
						{
							"indexed": true,
							"internalType": "address",
							"name": "token",
							"type": "address"
						},
						{
							"indexed": false,
							"internalType": "uint256",
							"name": "amount",
							"type": "uint256"
						},
						{
							"indexed": false,
							"internalType": "uint256",
							"name": "amountUSD",
							"type": "uint256"
						}
					],
					"name": "KipuBankV2_DepositoRealizado",
					"type": "event"
				},
				{
					"anonymous": false,
					"inputs": [
						{
							"indexed": true,
							"internalType": "address",
							"name": "newFeed",
							"type": "address"
						}
					],
					"name": "KipuBankV2_FeedActualizado",
					"type": "event"
				},
				{
					"anonymous": false,
					"inputs": [
						{
							"indexed": true,
							"internalType": "address",
							"name": "usuario",
							"type": "address"
						},
						{
							"indexed": true,
							"internalType": "address",
							"name": "token",
							"type": "address"
						},
						{
							"indexed": false,
							"internalType": "uint256",
							"name": "amount",
							"type": "uint256"
						},
						{
							"indexed": false,
							"internalType": "uint256",
							"name": "amountUSD",
							"type": "uint256"
						}
					],
					"name": "KipuBankV2_RetiroRealizado",
					"type": "event"
				},
				{
					"anonymous": false,
					"inputs": [
						{
							"indexed": true,
							"internalType": "address",
							"name": "previousOwner",
							"type": "address"
						},
						{
							"indexed": true,
							"internalType": "address",
							"name": "newOwner",
							"type": "address"
						}
					],
					"name": "OwnershipTransferred",
					"type": "event"
				},
				{
					"inputs": [],
					"name": "NATIVE_TOKEN",
					"outputs": [
						{
							"internalType": "address",
							"name": "",
							"type": "address"
						}
					],
					"stateMutability": "view",
					"type": "function"
				},
				{
					"inputs": [
						{
							"internalType": "address",
							"name": "_newFeed",
							"type": "address"
						}
					],
					"name": "actualizarFeed",
					"outputs": [],
					"stateMutability": "nonpayable",
					"type": "function"
				},
				{
					"inputs": [
						{
							"internalType": "address",
							"name": "_usuario",
							"type": "address"
						},
						{
							"internalType": "address",
							"name": "_token",
							"type": "address"
						}
					],
					"name": "consultarBalance",
					"outputs": [
						{
							"internalType": "uint256",
							"name": "balance_",
							"type": "uint256"
						}
					],
					"stateMutability": "view",
					"type": "function"
				},
				{
					"inputs": [
						{
							"internalType": "address",
							"name": "_usuario",
							"type": "address"
						}
					],
					"name": "consultarBalanceTotalUSD",
					"outputs": [
						{
							"internalType": "uint256",
							"name": "balanceTotalUSD_",
							"type": "uint256"
						}
					],
					"stateMutability": "view",
					"type": "function"
				},
				{
					"inputs": [],
					"name": "consultarEstadoBanco",
					"outputs": [
						{
							"internalType": "uint256",
							"name": "totalDepositadoUSD_",
							"type": "uint256"
						},
						{
							"internalType": "uint256",
							"name": "totalETH_",
							"type": "uint256"
						},
						{
							"internalType": "uint256",
							"name": "totalUSDC_",
							"type": "uint256"
						},
						{
							"internalType": "uint256",
							"name": "contadorDepositos_",
							"type": "uint256"
						},
						{
							"internalType": "uint256",
							"name": "contadorRetiros_",
							"type": "uint256"
						},
						{
							"internalType": "uint256",
							"name": "bankCapUSD_",
							"type": "uint256"
						},
						{
							"internalType": "uint256",
							"name": "umbralRetiroUSD_",
							"type": "uint256"
						}
					],
					"stateMutability": "view",
					"type": "function"
				},
				{
					"inputs": [],
					"name": "consultarPrecioETH",
					"outputs": [
						{
							"internalType": "uint256",
							"name": "precioETH_",
							"type": "uint256"
						},
						{
							"internalType": "uint256",
							"name": "ultimaActualizacion_",
							"type": "uint256"
						}
					],
					"stateMutability": "view",
					"type": "function"
				},
				{
					"inputs": [],
					"name": "depositarETH",
					"outputs": [],
					"stateMutability": "payable",
					"type": "function"
				},
				{
					"inputs": [
						{
							"internalType": "uint256",
							"name": "_amount",
							"type": "uint256"
						}
					],
					"name": "depositarUSDC",
					"outputs": [],
					"stateMutability": "nonpayable",
					"type": "function"
				},
				{
					"inputs": [],
					"name": "getUmbralRetiro",
					"outputs": [
						{
							"internalType": "uint256",
							"name": "",
							"type": "uint256"
						}
					],
					"stateMutability": "view",
					"type": "function"
				},
				{
					"inputs": [],
					"name": "i_bankCapUSD",
					"outputs": [
						{
							"internalType": "uint256",
							"name": "",
							"type": "uint256"
						}
					],
					"stateMutability": "view",
					"type": "function"
				},
				{
					"inputs": [],
					"name": "i_umbralRetiroUSD",
					"outputs": [
						{
							"internalType": "uint256",
							"name": "",
							"type": "uint256"
						}
					],
					"stateMutability": "view",
					"type": "function"
				},
				{
					"inputs": [],
					"name": "i_usdc",
					"outputs": [
						{
							"internalType": "contract IERC20",
							"name": "",
							"type": "address"
						}
					],
					"stateMutability": "view",
					"type": "function"
				},
				{
					"inputs": [],
					"name": "owner",
					"outputs": [
						{
							"internalType": "address",
							"name": "",
							"type": "address"
						}
					],
					"stateMutability": "view",
					"type": "function"
				},
				{
					"inputs": [],
					"name": "renounceOwnership",
					"outputs": [],
					"stateMutability": "nonpayable",
					"type": "function"
				},
				{
					"inputs": [
						{
							"internalType": "uint256",
							"name": "_amountETH",
							"type": "uint256"
						}
					],
					"name": "retirarETH",
					"outputs": [],
					"stateMutability": "nonpayable",
					"type": "function"
				},
				{
					"inputs": [
						{
							"internalType": "uint256",
							"name": "_amount",
							"type": "uint256"
						}
					],
					"name": "retirarUSDC",
					"outputs": [],
					"stateMutability": "nonpayable",
					"type": "function"
				},
				{
					"inputs": [
						{
							"internalType": "address",
							"name": "user",
							"type": "address"
						},
						{
							"internalType": "address",
							"name": "token",
							"type": "address"
						}
					],
					"name": "s_balances",
					"outputs": [
						{
							"internalType": "uint256",
							"name": "balanceUSD",
							"type": "uint256"
						}
					],
					"stateMutability": "view",
					"type": "function"
				},
				{
					"inputs": [],
					"name": "s_contadorDepositos",
					"outputs": [
						{
							"internalType": "uint256",
							"name": "",
							"type": "uint256"
						}
					],
					"stateMutability": "view",
					"type": "function"
				},
				{
					"inputs": [],
					"name": "s_contadorRetiros",
					"outputs": [
						{
							"internalType": "uint256",
							"name": "",
							"type": "uint256"
						}
					],
					"stateMutability": "view",
					"type": "function"
				},
				{
					"inputs": [],
					"name": "s_ethUsdFeed",
					"outputs": [
						{
							"internalType": "contract AggregatorV3Interface",
							"name": "",
							"type": "address"
						}
					],
					"stateMutability": "view",
					"type": "function"
				},
				{
					"inputs": [
						{
							"internalType": "address",
							"name": "token",
							"type": "address"
						}
					],
					"name": "s_totalDepositadoPorToken",
					"outputs": [
						{
							"internalType": "uint256",
							"name": "totalUSD",
							"type": "uint256"
						}
					],
					"stateMutability": "view",
					"type": "function"
				},
				{
					"inputs": [],
					"name": "s_totalDepositadoUSD",
					"outputs": [
						{
							"internalType": "uint256",
							"name": "",
							"type": "uint256"
						}
					],
					"stateMutability": "view",
					"type": "function"
				},
				{
					"inputs": [
						{
							"internalType": "address",
							"name": "newOwner",
							"type": "address"
						}
					],
					"name": "transferOwnership",
					"outputs": [],
					"stateMutability": "nonpayable",
					"type": "function"
				}
			],
			"devdoc": {
				"author": "guidobursz Memoria: bankCap USD: 1000 (1000000000) umbralRetiro USD: 100 (100000000) oraculo: 0x694AA1769357215DE4FAC081bf1f309aDC325306 usdc: 0x1c7D4B196Cb0C7B01d743Fbc6116a902379C7238 owner: 0x652405FdecC7fCcA771752b83D5F6DB8be46a296 CONTRATO: 0x12b3DAadBFb0d0d6EdaC704bCeD03a9AefA71F83*",
				"errors": {
					"KipuBankV2_LimiteGlobalExcedidoUSD(uint256,uint256,uint256)": [
						{
							"params": {
								"intentoDepositoUSD": "Monto que se intenta depositar",
								"limiteUSD": "Límite máximo permitido (bankCap)",
								"totalActualUSD": "Total actualmente depositado en el banco"
							}
						}
					],
					"KipuBankV2_RetiroExcedeUmbral(uint256,uint256)": [
						{
							"params": {
								"montoSolicitadoUSD": "Monto que intenta retirar en USD",
								"umbralMaximoUSD": "Límite máximo por retiro en USD"
							}
						}
					],
					"KipuBankV2_SaldoInsuficiente(uint256,uint256)": [
						{
							"params": {
								"balanceDisponible": "Balance actual del usuario en USD",
								"montoSolicitado": "Monto que intenta retirar en USD"
							}
						}
					],
					"KipuBankV2_StalePrice(uint256,uint256)": [
						{
							"params": {
								"heartbeat": "Tiempo máximo permitido",
								"tiempoTranscurrido": "Tiempo desde la última actualización"
							}
						}
					],
					"KipuBankV2_TokenNoSoportado(address)": [
						{
							"params": {
								"token": "Dirección del token no soportado"
							}
						}
					],
					"KipuBankV2_TransferenciaFallida(address)": [
						{
							"params": {
								"destinatario": "Dirección a la que se intentó enviar"
							}
						}
					],
					"OwnableInvalidOwner(address)": [
						{
							"details": "The owner is not a valid owner account. (eg. `address(0)`)"
						}
					],
					"OwnableUnauthorizedAccount(address)": [
						{
							"details": "The caller account is not authorized to perform an operation."
						}
					],
					"ReentrancyGuardReentrantCall()": [
						{
							"details": "Unauthorized reentrant call."
						}
					],
					"SafeERC20FailedOperation(address)": [
						{
							"details": "An operation with an ERC-20 token failed."
						}
					]
				},
				"events": {
					"KipuBankV2_DepositoRealizado(address,address,uint256,uint256)": {
						"params": {
							"amount": "Cantidad depositada en unidades del token",
							"amountUSD": "Valor del depósito en USD",
							"token": "Dirección del token depositado (address(0) para ETH)",
							"usuario": "Dirección del usuario que depositó"
						}
					},
					"KipuBankV2_FeedActualizado(address)": {
						"params": {
							"newFeed": "Nueva dirección del feed ETH/USD"
						}
					},
					"KipuBankV2_RetiroRealizado(address,address,uint256,uint256)": {
						"params": {
							"amount": "Cantidad retirada en unidades del token",
							"amountUSD": "Valor del retiro en USD (6 decimales)",
							"token": "Dirección del token retirado (address(0) para ETH)",
							"usuario": "Dirección del usuario que retiró"
						}
					}
				},
				"kind": "dev",
				"methods": {
					"actualizarFeed(address)": {
						"details": "Solo el propietario puede llamar esta función",
						"params": {
							"_newFeed": "Nueva dirección del feed ETH/USD"
						}
					},
					"constructor": {
						"details": "Los valores immutable se establecen aquí y no pueden cambiar después del deployment",
						"params": {
							"_bankCapUSD": "Límite máximo total de depósitos en USD (6 decimales)",
							"_ethUsdFeed": "Dirección del Chainlink Price Feed ETH/USD",
							"_owner": "Dirección del propietario del contrato",
							"_umbralRetiroUSD": "Monto máximo por retiro en USD (6 decimales)",
							"_usdc": "Dirección del token USDC"
						}
					},
					"consultarBalance(address,address)": {
						"params": {
							"_token": "Dirección del token (address(0) para ETH)",
							"_usuario": "Dirección del usuario a consultar"
						},
						"returns": {
							"balance_": "Balance del usuario en USD (6 decimales)"
						}
					},
					"consultarBalanceTotalUSD(address)": {
						"params": {
							"_usuario": "Dirección del usuario a consultar"
						},
						"returns": {
							"balanceTotalUSD_": "Balance total en USD (6 decimales)"
						}
					},
					"consultarEstadoBanco()": {
						"returns": {
							"bankCapUSD_": "Límite máximo del banco en USD",
							"contadorDepositos_": "Número total de depósitos realizados",
							"contadorRetiros_": "Número total de retiros realizados",
							"totalDepositadoUSD_": "Total depositado en el banco en USD",
							"totalETH_": "Total de ETH depositado en USD",
							"totalUSDC_": "Total de USDC depositado en USD",
							"umbralRetiroUSD_": "Límite máximo por retiro en USD"
						}
					},
					"consultarPrecioETH()": {
						"returns": {
							"precioETH_": "Precio actual de ETH en USD (8 decimales)",
							"ultimaActualizacion_": "Timestamp de la última actualización"
						}
					},
					"depositarETH()": {
						"details": "Convierte el ETH a USD usando Chainlink y valida el límite globalEl balance se almacena en USD"
					},
					"depositarUSDC(uint256)": {
						"details": "Valida el límite globalIncrementa el balance del usuario y el total depositadoEmite el evento KipuBankV2_DepositoRealizado"
					},
					"owner()": {
						"details": "Returns the address of the current owner."
					},
					"renounceOwnership()": {
						"details": "Leaves the contract without owner. It will not be possible to call `onlyOwner` functions. Can only be called by the current owner. NOTE: Renouncing ownership will leave the contract without an owner, thereby disabling any functionality that is only available to the owner."
					},
					"retirarETH(uint256)": {
						"details": "Valida saldo suficiente y umbral de retiro en USD",
						"params": {
							"_amountETH": "Cantidad de ETH a retirar en wei"
						}
					},
					"retirarUSDC(uint256)": {
						"details": "Valida saldo suficiente y umbral de retiro en USD",
						"params": {
							"_amount": "Cantidad de USDC a retirar"
						}
					},
					"transferOwnership(address)": {
						"details": "Transfers ownership of the contract to a new account (`newOwner`). Can only be called by the current owner."
					}
				},
				"title": "KipuBankV2",
				"version": 1
			},
			"evm": {
				"assembly": "    /* \"03_kipu-bank-v2/contracts/KipuBankV2.sol\":1253:19559  contract KipuBankV2 is Ownable, ReentrancyGuard {... */\n  mstore(0x40, 0xe0)\n    /* \"03_kipu-bank-v2/contracts/KipuBankV2.sol\":6959:7690  constructor(... */\n  callvalue\n  dup1\n  iszero\n  tag_1\n  jumpi\n  0x00\n  dup1\n  revert\ntag_1:\n  pop\n  mload(0x40)\n  sub(codesize, bytecodeSize)\n  dup1\n  bytecodeSize\n  dup4\n  codecopy\n  dup2\n  dup2\n  add\n  0x40\n  mstore\n  dup2\n  add\n  swap1\n  tag_2\n  swap2\n  swap1\n  tag_3\n  jump\t// in\ntag_2:\n    /* \"03_kipu-bank-v2/contracts/KipuBankV2.sol\":7156:7162  _owner */\n  dup1\n    /* \"@openzeppelin/contracts/access/Ownable.sol\":1297:1298  0 */\n  0x00\n    /* \"@openzeppelin/contracts/access/Ownable.sol\":1273:1299  initialOwner == address(0) */\n  0xffffffffffffffffffffffffffffffffffffffff\n  and\n    /* \"@openzeppelin/contracts/access/Ownable.sol\":1273:1285  initialOwner */\n  dup2\n    /* \"@openzeppelin/contracts/access/Ownable.sol\":1273:1299  initialOwner == address(0) */\n  0xffffffffffffffffffffffffffffffffffffffff\n  and\n  sub\n    /* \"@openzeppelin/contracts/access/Ownable.sol\":1269:1364  if (initialOwner == address(0)) {... */\n  tag_8\n  jumpi\n    /* \"@openzeppelin/contracts/access/Ownable.sol\":1350:1351  0 */\n  0x00\n    /* \"@openzeppelin/contracts/access/Ownable.sol\":1322:1353  OwnableInvalidOwner(address(0)) */\n  mload(0x40)\n  0x1e4fbdf700000000000000000000000000000000000000000000000000000000\n  dup2\n  mstore\n  0x04\n  add\n  tag_9\n  swap2\n  swap1\n  tag_10\n  jump\t// in\ntag_9:\n  mload(0x40)\n  dup1\n  swap2\n  sub\n  swap1\n  revert\n    /* \"@openzeppelin/contracts/access/Ownable.sol\":1269:1364  if (initialOwner == address(0)) {... */\ntag_8:\n    /* \"@openzeppelin/contracts/access/Ownable.sol\":1373:1405  _transferOwnership(initialOwner) */\n  tag_11\n    /* \"@openzeppelin/contracts/access/Ownable.sol\":1392:1404  initialOwner */\n  dup2\n    /* \"@openzeppelin/contracts/access/Ownable.sol\":1373:1391  _transferOwnership */\n  shl(0x20, tag_12)\n    /* \"@openzeppelin/contracts/access/Ownable.sol\":1373:1405  _transferOwnership(initialOwner) */\n  0x20\n  shr\n  jump\t// in\ntag_11:\n    /* \"@openzeppelin/contracts/access/Ownable.sol\":1225:1412  constructor(address initialOwner) {... */\n  pop\n    /* \"@openzeppelin/contracts/utils/ReentrancyGuard.sol\":1857:1858  1 */\n  0x01\n    /* \"@openzeppelin/contracts/utils/ReentrancyGuard.sol\":2061:2068  _status */\n  dup1\n    /* \"@openzeppelin/contracts/utils/ReentrancyGuard.sol\":2061:2082  _status = NOT_ENTERED */\n  dup2\n  swap1\n  sstore\n  pop\n    /* \"03_kipu-bank-v2/contracts/KipuBankV2.sol\":7535:7546  _bankCapUSD */\n  dup5\n    /* \"03_kipu-bank-v2/contracts/KipuBankV2.sol\":7520:7546  i_bankCapUSD = _bankCapUSD */\n  0x80\n  dup2\n  dup2\n  mstore\n  pop\n  pop\n    /* \"03_kipu-bank-v2/contracts/KipuBankV2.sol\":7576:7592  _umbralRetiroUSD */\n  dup4\n    /* \"03_kipu-bank-v2/contracts/KipuBankV2.sol\":7556:7592  i_umbralRetiroUSD = _umbralRetiroUSD */\n  0xa0\n  dup2\n  dup2\n  mstore\n  pop\n  pop\n    /* \"03_kipu-bank-v2/contracts/KipuBankV2.sol\":7639:7650  _ethUsdFeed */\n  dup3\n    /* \"03_kipu-bank-v2/contracts/KipuBankV2.sol\":7602:7614  s_ethUsdFeed */\n  0x02\n  0x00\n    /* \"03_kipu-bank-v2/contracts/KipuBankV2.sol\":7602:7651  s_ethUsdFeed = AggregatorV3Interface(_ethUsdFeed) */\n  0x0100\n  exp\n  dup2\n  sload\n  dup2\n  0xffffffffffffffffffffffffffffffffffffffff\n  mul\n  not\n  and\n  swap1\n  dup4\n  0xffffffffffffffffffffffffffffffffffffffff\n  and\n  mul\n  or\n  swap1\n  sstore\n  pop\n    /* \"03_kipu-bank-v2/contracts/KipuBankV2.sol\":7677:7682  _usdc */\n  dup2\n    /* \"03_kipu-bank-v2/contracts/KipuBankV2.sol\":7661:7683  i_usdc = IERC20(_usdc) */\n  0xffffffffffffffffffffffffffffffffffffffff\n  and\n  0xc0\n  dup2\n  0xffffffffffffffffffffffffffffffffffffffff\n  and\n  dup2\n  mstore\n  pop\n  pop\n    /* \"03_kipu-bank-v2/contracts/KipuBankV2.sol\":6959:7690  constructor(... */\n  pop\n  pop\n  pop\n  pop\n  pop\n    /* \"03_kipu-bank-v2/contracts/KipuBankV2.sol\":1253:19559  contract KipuBankV2 is Ownable, ReentrancyGuard {... */\n  jump(tag_15)\n    /* \"@openzeppelin/contracts/access/Ownable.sol\":2912:3099  function _transferOwnership(address newOwner) internal virtual {... */\ntag_12:\n    /* \"@openzeppelin/contracts/access/Ownable.sol\":2985:3001  address oldOwner */\n  0x00\n    /* \"@openzeppelin/contracts/access/Ownable.sol\":3004:3010  _owner */\n  dup1\n  0x00\n  swap1\n  sload\n  swap1\n  0x0100\n  exp\n  swap1\n  div\n  0xffffffffffffffffffffffffffffffffffffffff\n  and\n    /* \"@openzeppelin/contracts/access/Ownable.sol\":2985:3010  address oldOwner = _owner */\n  swap1\n  pop\n    /* \"@openzeppelin/contracts/access/Ownable.sol\":3029:3037  newOwner */\n  dup2\n    /* \"@openzeppelin/contracts/access/Ownable.sol\":3020:3026  _owner */\n  0x00\n  dup1\n    /* \"@openzeppelin/contracts/access/Ownable.sol\":3020:3037  _owner = newOwner */\n  0x0100\n  exp\n  dup2\n  sload\n  dup2\n  0xffffffffffffffffffffffffffffffffffffffff\n  mul\n  not\n  and\n  swap1\n  dup4\n  0xffffffffffffffffffffffffffffffffffffffff\n  and\n  mul\n  or\n  swap1\n  sstore\n  pop\n    /* \"@openzeppelin/contracts/access/Ownable.sol\":3083:3091  newOwner */\n  dup2\n    /* \"@openzeppelin/contracts/access/Ownable.sol\":3052:3092  OwnershipTransferred(oldOwner, newOwner) */\n  0xffffffffffffffffffffffffffffffffffffffff\n  and\n    /* \"@openzeppelin/contracts/access/Ownable.sol\":3073:3081  oldOwner */\n  dup2\n    /* \"@openzeppelin/contracts/access/Ownable.sol\":3052:3092  OwnershipTransferred(oldOwner, newOwner) */\n  0xffffffffffffffffffffffffffffffffffffffff\n  and\n  0x8be0079c531659141344cd1fd0a4f28419497f9722a3daafe3b4186f6b6457e0\n  mload(0x40)\n  mload(0x40)\n  dup1\n  swap2\n  sub\n  swap1\n  log3\n    /* \"@openzeppelin/contracts/access/Ownable.sol\":2975:3099  {... */\n  pop\n    /* \"@openzeppelin/contracts/access/Ownable.sol\":2912:3099  function _transferOwnership(address newOwner) internal virtual {... */\n  pop\n  jump\t// out\n    /* \"#utility.yul\":88:205   */\ntag_18:\n    /* \"#utility.yul\":197:198   */\n  0x00\n    /* \"#utility.yul\":194:195   */\n  dup1\n    /* \"#utility.yul\":187:199   */\n  revert\n    /* \"#utility.yul\":334:411   */\ntag_20:\n    /* \"#utility.yul\":371:378   */\n  0x00\n    /* \"#utility.yul\":400:405   */\n  dup2\n    /* \"#utility.yul\":389:405   */\n  swap1\n  pop\n    /* \"#utility.yul\":334:411   */\n  swap2\n  swap1\n  pop\n  jump\t// out\n    /* \"#utility.yul\":417:539   */\ntag_21:\n    /* \"#utility.yul\":490:514   */\n  tag_34\n    /* \"#utility.yul\":508:513   */\n  dup2\n    /* \"#utility.yul\":490:514   */\n  tag_20\n  jump\t// in\ntag_34:\n    /* \"#utility.yul\":483:488   */\n  dup2\n    /* \"#utility.yul\":480:515   */\n  eq\n    /* \"#utility.yul\":470:533   */\n  tag_35\n  jumpi\n    /* \"#utility.yul\":529:530   */\n  0x00\n    /* \"#utility.yul\":526:527   */\n  dup1\n    /* \"#utility.yul\":519:531   */\n  revert\n    /* \"#utility.yul\":470:533   */\ntag_35:\n    /* \"#utility.yul\":417:539   */\n  pop\n  jump\t// out\n    /* \"#utility.yul\":545:688   */\ntag_22:\n    /* \"#utility.yul\":602:607   */\n  0x00\n    /* \"#utility.yul\":633:639   */\n  dup2\n    /* \"#utility.yul\":627:640   */\n  mload\n    /* \"#utility.yul\":618:640   */\n  swap1\n  pop\n    /* \"#utility.yul\":649:682   */\n  tag_37\n    /* \"#utility.yul\":676:681   */\n  dup2\n    /* \"#utility.yul\":649:682   */\n  tag_21\n  jump\t// in\ntag_37:\n    /* \"#utility.yul\":545:688   */\n  swap3\n  swap2\n  pop\n  pop\n  jump\t// out\n    /* \"#utility.yul\":694:820   */\ntag_23:\n    /* \"#utility.yul\":731:738   */\n  0x00\n    /* \"#utility.yul\":771:813   */\n  0xffffffffffffffffffffffffffffffffffffffff\n    /* \"#utility.yul\":764:769   */\n  dup3\n    /* \"#utility.yul\":760:814   */\n  and\n    /* \"#utility.yul\":749:814   */\n  swap1\n  pop\n    /* \"#utility.yul\":694:820   */\n  swap2\n  swap1\n  pop\n  jump\t// out\n    /* \"#utility.yul\":826:922   */\ntag_24:\n    /* \"#utility.yul\":863:870   */\n  0x00\n    /* \"#utility.yul\":892:916   */\n  tag_40\n    /* \"#utility.yul\":910:915   */\n  dup3\n    /* \"#utility.yul\":892:916   */\n  tag_23\n  jump\t// in\ntag_40:\n    /* \"#utility.yul\":881:916   */\n  swap1\n  pop\n    /* \"#utility.yul\":826:922   */\n  swap2\n  swap1\n  pop\n  jump\t// out\n    /* \"#utility.yul\":928:1050   */\ntag_25:\n    /* \"#utility.yul\":1001:1025   */\n  tag_42\n    /* \"#utility.yul\":1019:1024   */\n  dup2\n    /* \"#utility.yul\":1001:1025   */\n  tag_24\n  jump\t// in\ntag_42:\n    /* \"#utility.yul\":994:999   */\n  dup2\n    /* \"#utility.yul\":991:1026   */\n  eq\n    /* \"#utility.yul\":981:1044   */\n  tag_43\n  jumpi\n    /* \"#utility.yul\":1040:1041   */\n  0x00\n    /* \"#utility.yul\":1037:1038   */\n  dup1\n    /* \"#utility.yul\":1030:1042   */\n  revert\n    /* \"#utility.yul\":981:1044   */\ntag_43:\n    /* \"#utility.yul\":928:1050   */\n  pop\n  jump\t// out\n    /* \"#utility.yul\":1056:1199   */\ntag_26:\n    /* \"#utility.yul\":1113:1118   */\n  0x00\n    /* \"#utility.yul\":1144:1150   */\n  dup2\n    /* \"#utility.yul\":1138:1151   */\n  mload\n    /* \"#utility.yul\":1129:1151   */\n  swap1\n  pop\n    /* \"#utility.yul\":1160:1193   */\n  tag_45\n    /* \"#utility.yul\":1187:1192   */\n  dup2\n    /* \"#utility.yul\":1160:1193   */\n  tag_25\n  jump\t// in\ntag_45:\n    /* \"#utility.yul\":1056:1199   */\n  swap3\n  swap2\n  pop\n  pop\n  jump\t// out\n    /* \"#utility.yul\":1205:2182   */\ntag_3:\n    /* \"#utility.yul\":1311:1317   */\n  0x00\n    /* \"#utility.yul\":1319:1325   */\n  dup1\n    /* \"#utility.yul\":1327:1333   */\n  0x00\n    /* \"#utility.yul\":1335:1341   */\n  dup1\n    /* \"#utility.yul\":1343:1349   */\n  0x00\n    /* \"#utility.yul\":1392:1395   */\n  0xa0\n    /* \"#utility.yul\":1380:1389   */\n  dup7\n    /* \"#utility.yul\":1371:1378   */\n  dup9\n    /* \"#utility.yul\":1367:1390   */\n  sub\n    /* \"#utility.yul\":1363:1396   */\n  slt\n    /* \"#utility.yul\":1360:1480   */\n  iszero\n  tag_47\n  jumpi\n    /* \"#utility.yul\":1399:1478   */\n  tag_48\n  tag_18\n  jump\t// in\ntag_48:\n    /* \"#utility.yul\":1360:1480   */\ntag_47:\n    /* \"#utility.yul\":1519:1520   */\n  0x00\n    /* \"#utility.yul\":1544:1608   */\n  tag_49\n    /* \"#utility.yul\":1600:1607   */\n  dup9\n    /* \"#utility.yul\":1591:1597   */\n  dup3\n    /* \"#utility.yul\":1580:1589   */\n  dup10\n    /* \"#utility.yul\":1576:1598   */\n  add\n    /* \"#utility.yul\":1544:1608   */\n  tag_22\n  jump\t// in\ntag_49:\n    /* \"#utility.yul\":1534:1608   */\n  swap6\n  pop\n    /* \"#utility.yul\":1490:1618   */\n  pop\n    /* \"#utility.yul\":1657:1659   */\n  0x20\n    /* \"#utility.yul\":1683:1747   */\n  tag_50\n    /* \"#utility.yul\":1739:1746   */\n  dup9\n    /* \"#utility.yul\":1730:1736   */\n  dup3\n    /* \"#utility.yul\":1719:1728   */\n  dup10\n    /* \"#utility.yul\":1715:1737   */\n  add\n    /* \"#utility.yul\":1683:1747   */\n  tag_22\n  jump\t// in\ntag_50:\n    /* \"#utility.yul\":1673:1747   */\n  swap5\n  pop\n    /* \"#utility.yul\":1628:1757   */\n  pop\n    /* \"#utility.yul\":1796:1798   */\n  0x40\n    /* \"#utility.yul\":1822:1886   */\n  tag_51\n    /* \"#utility.yul\":1878:1885   */\n  dup9\n    /* \"#utility.yul\":1869:1875   */\n  dup3\n    /* \"#utility.yul\":1858:1867   */\n  dup10\n    /* \"#utility.yul\":1854:1876   */\n  add\n    /* \"#utility.yul\":1822:1886   */\n  tag_26\n  jump\t// in\ntag_51:\n    /* \"#utility.yul\":1812:1886   */\n  swap4\n  pop\n    /* \"#utility.yul\":1767:1896   */\n  pop\n    /* \"#utility.yul\":1935:1937   */\n  0x60\n    /* \"#utility.yul\":1961:2025   */\n  tag_52\n    /* \"#utility.yul\":2017:2024   */\n  dup9\n    /* \"#utility.yul\":2008:2014   */\n  dup3\n    /* \"#utility.yul\":1997:2006   */\n  dup10\n    /* \"#utility.yul\":1993:2015   */\n  add\n    /* \"#utility.yul\":1961:2025   */\n  tag_26\n  jump\t// in\ntag_52:\n    /* \"#utility.yul\":1951:2025   */\n  swap3\n  pop\n    /* \"#utility.yul\":1906:2035   */\n  pop\n    /* \"#utility.yul\":2074:2077   */\n  0x80\n    /* \"#utility.yul\":2101:2165   */\n  tag_53\n    /* \"#utility.yul\":2157:2164   */\n  dup9\n    /* \"#utility.yul\":2148:2154   */\n  dup3\n    /* \"#utility.yul\":2137:2146   */\n  dup10\n    /* \"#utility.yul\":2133:2155   */\n  add\n    /* \"#utility.yul\":2101:2165   */\n  tag_26\n  jump\t// in\ntag_53:\n    /* \"#utility.yul\":2091:2165   */\n  swap2\n  pop\n    /* \"#utility.yul\":2045:2175   */\n  pop\n    /* \"#utility.yul\":1205:2182   */\n  swap3\n  swap6\n  pop\n  swap3\n  swap6\n  swap1\n  swap4\n  pop\n  jump\t// out\n    /* \"#utility.yul\":2188:2306   */\ntag_27:\n    /* \"#utility.yul\":2275:2299   */\n  tag_55\n    /* \"#utility.yul\":2293:2298   */\n  dup2\n    /* \"#utility.yul\":2275:2299   */\n  tag_24\n  jump\t// in\ntag_55:\n    /* \"#utility.yul\":2270:2273   */\n  dup3\n    /* \"#utility.yul\":2263:2300   */\n  mstore\n    /* \"#utility.yul\":2188:2306   */\n  pop\n  pop\n  jump\t// out\n    /* \"#utility.yul\":2312:2534   */\ntag_10:\n    /* \"#utility.yul\":2405:2409   */\n  0x00\n    /* \"#utility.yul\":2443:2445   */\n  0x20\n    /* \"#utility.yul\":2432:2441   */\n  dup3\n    /* \"#utility.yul\":2428:2446   */\n  add\n    /* \"#utility.yul\":2420:2446   */\n  swap1\n  pop\n    /* \"#utility.yul\":2456:2527   */\n  tag_57\n    /* \"#utility.yul\":2524:2525   */\n  0x00\n    /* \"#utility.yul\":2513:2522   */\n  dup4\n    /* \"#utility.yul\":2509:2526   */\n  add\n    /* \"#utility.yul\":2500:2506   */\n  dup5\n    /* \"#utility.yul\":2456:2527   */\n  tag_27\n  jump\t// in\ntag_57:\n    /* \"#utility.yul\":2312:2534   */\n  swap3\n  swap2\n  pop\n  pop\n  jump\t// out\n    /* \"03_kipu-bank-v2/contracts/KipuBankV2.sol\":1253:19559  contract KipuBankV2 is Ownable, ReentrancyGuard {... */\ntag_15:\n  mload(0x80)\n  mload(0xa0)\n  mload(0xc0)\n  codecopy(0x00, dataOffset(sub_0), dataSize(sub_0))\n  0x00\n  assignImmutable(\"0x6304e47846f882085b0f4b1a184252ae95ffe5e2a02daf39c014f492dcb1441c\")\n  0x00\n  assignImmutable(\"0x2e9b7c94e032d8b3b8b30bd825717a5ac74958b53e7c37a892a4fd7dc56e4975\")\n  0x00\n  assignImmutable(\"0x6bcaf047ba4c8ac400fca43393035242dd1aabda2d6068a0c51242b97224de8d\")\n  return(0x00, dataSize(sub_0))\nstop\n\nsub_0: assembly {\n        /* \"03_kipu-bank-v2/contracts/KipuBankV2.sol\":1253:19559  contract KipuBankV2 is Ownable, ReentrancyGuard {... */\n      mstore(0x40, 0x80)\n      jumpi(tag_1, lt(calldatasize, 0x04))\n      shr(0xe0, calldataload(0x00))\n      dup1\n      0x8da5cb5b\n      gt\n      tag_25\n      jumpi\n      dup1\n      0xd4289d89\n      gt\n      tag_26\n      jumpi\n      dup1\n      0xd4289d89\n      eq\n      tag_19\n      jumpi\n      dup1\n      0xd4b0d3ce\n      eq\n      tag_20\n      jumpi\n      dup1\n      0xdccd58e3\n      eq\n      tag_21\n      jumpi\n      dup1\n      0xe98c6601\n      eq\n      tag_22\n      jumpi\n      dup1\n      0xf2fde38b\n      eq\n      tag_23\n      jumpi\n      dup1\n      0xff40e1d0\n      eq\n      tag_24\n      jumpi\n      jump(tag_1)\n    tag_26:\n      dup1\n      0x8da5cb5b\n      eq\n      tag_13\n      jumpi\n      dup1\n      0x931fb90e\n      eq\n      tag_14\n      jumpi\n      dup1\n      0xabc9cd6d\n      eq\n      tag_15\n      jumpi\n      dup1\n      0xb9eb1c9a\n      eq\n      tag_16\n      jumpi\n      dup1\n      0xc3b5bc22\n      eq\n      tag_17\n      jumpi\n      dup1\n      0xd30451e7\n      eq\n      tag_18\n      jumpi\n      jump(tag_1)\n    tag_25:\n      dup1\n      0x31f7d964\n      gt\n      tag_27\n      jumpi\n      dup1\n      0x31f7d964\n      eq\n      tag_7\n      jumpi\n      dup1\n      0x3eaa00fb\n      eq\n      tag_8\n      jumpi\n      dup1\n      0x501cb72d\n      eq\n      tag_9\n      jumpi\n      dup1\n      0x698b7241\n      eq\n      tag_10\n      jumpi\n      dup1\n      0x715018a6\n      eq\n      tag_11\n      jumpi\n      dup1\n      0x82fe54b5\n      eq\n      tag_12\n      jumpi\n      jump(tag_1)\n    tag_27:\n      dup1\n      0x0ccee433\n      eq\n      tag_2\n      jumpi\n      dup1\n      0x16a1930f\n      eq\n      tag_3\n      jumpi\n      dup1\n      0x2230c272\n      eq\n      tag_4\n      jumpi\n      dup1\n      0x2b513163\n      eq\n      tag_5\n      jumpi\n      dup1\n      0x2fda583e\n      eq\n      tag_6\n      jumpi\n    tag_1:\n      0x00\n      dup1\n      revert\n        /* \"03_kipu-bank-v2/contracts/KipuBankV2.sol\":2025:2062  uint256 public immutable i_bankCapUSD */\n    tag_2:\n      callvalue\n      dup1\n      iszero\n      tag_28\n      jumpi\n      0x00\n      dup1\n      revert\n    tag_28:\n      pop\n      tag_29\n      tag_30\n      jump\t// in\n    tag_29:\n      mload(0x40)\n      tag_31\n      swap2\n      swap1\n      tag_32\n      jump\t// in\n    tag_31:\n      mload(0x40)\n      dup1\n      swap2\n      sub\n      swap1\n      return\n        /* \"03_kipu-bank-v2/contracts/KipuBankV2.sol\":8732:9764  function depositarETH() external payable nonReentrant {... */\n    tag_3:\n      tag_33\n      tag_34\n      jump\t// in\n    tag_33:\n      stop\n        /* \"03_kipu-bank-v2/contracts/KipuBankV2.sol\":2964:2998  uint256 public s_contadorDepositos */\n    tag_4:\n      callvalue\n      dup1\n      iszero\n      tag_35\n      jumpi\n      0x00\n      dup1\n      revert\n    tag_35:\n      pop\n      tag_36\n      tag_37\n      jump\t// in\n    tag_36:\n      mload(0x40)\n      tag_38\n      swap2\n      swap1\n      tag_32\n      jump\t// in\n    tag_38:\n      mload(0x40)\n      dup1\n      swap2\n      sub\n      swap1\n      return\n        /* \"03_kipu-bank-v2/contracts/KipuBankV2.sol\":18770:18870  function getUmbralRetiro() external view returns (uint256) {... */\n    tag_5:\n      callvalue\n      dup1\n      iszero\n      tag_39\n      jumpi\n      0x00\n      dup1\n      revert\n    tag_39:\n      pop\n      tag_40\n      tag_41\n      jump\t// in\n    tag_40:\n      mload(0x40)\n      tag_42\n      swap2\n      swap1\n      tag_32\n      jump\t// in\n    tag_42:\n      mload(0x40)\n      dup1\n      swap2\n      sub\n      swap1\n      return\n        /* \"03_kipu-bank-v2/contracts/KipuBankV2.sol\":2701:2776  mapping(address token => uint256 totalUSD) public s_totalDepositadoPorToken */\n    tag_6:\n      callvalue\n      dup1\n      iszero\n      tag_43\n      jumpi\n      0x00\n      dup1\n      revert\n    tag_43:\n      pop\n      tag_44\n      0x04\n      dup1\n      calldatasize\n      sub\n      dup2\n      add\n      swap1\n      tag_45\n      swap2\n      swap1\n      tag_46\n      jump\t// in\n    tag_45:\n      tag_47\n      jump\t// in\n    tag_44:\n      mload(0x40)\n      tag_48\n      swap2\n      swap1\n      tag_32\n      jump\t// in\n    tag_48:\n      mload(0x40)\n      dup1\n      swap2\n      sub\n      swap1\n      return\n        /* \"03_kipu-bank-v2/contracts/KipuBankV2.sol\":1565:1614  address public constant NATIVE_TOKEN = address(0) */\n    tag_7:\n      callvalue\n      dup1\n      iszero\n      tag_49\n      jumpi\n      0x00\n      dup1\n      revert\n    tag_49:\n      pop\n      tag_50\n      tag_51\n      jump\t// in\n    tag_50:\n      mload(0x40)\n      tag_52\n      swap2\n      swap1\n      tag_53\n      jump\t// in\n    tag_52:\n      mload(0x40)\n      dup1\n      swap2\n      sub\n      swap1\n      return\n        /* \"03_kipu-bank-v2/contracts/KipuBankV2.sol\":2138:2180  uint256 public immutable i_umbralRetiroUSD */\n    tag_8:\n      callvalue\n      dup1\n      iszero\n      tag_54\n      jumpi\n      0x00\n      dup1\n      revert\n    tag_54:\n      pop\n      tag_55\n      tag_56\n      jump\t// in\n    tag_55:\n      mload(0x40)\n      tag_57\n      swap2\n      swap1\n      tag_32\n      jump\t// in\n    tag_57:\n      mload(0x40)\n      dup1\n      swap2\n      sub\n      swap1\n      return\n        /* \"03_kipu-bank-v2/contracts/KipuBankV2.sol\":17175:17471  function consultarBalanceTotalUSD(address _usuario) ... */\n    tag_9:\n      callvalue\n      dup1\n      iszero\n      tag_58\n      jumpi\n      0x00\n      dup1\n      revert\n    tag_58:\n      pop\n      tag_59\n      0x04\n      dup1\n      calldatasize\n      sub\n      dup2\n      add\n      swap1\n      tag_60\n      swap2\n      swap1\n      tag_46\n      jump\t// in\n    tag_60:\n      tag_61\n      jump\t// in\n    tag_59:\n      mload(0x40)\n      tag_62\n      swap2\n      swap1\n      tag_32\n      jump\t// in\n    tag_62:\n      mload(0x40)\n      dup1\n      swap2\n      sub\n      swap1\n      return\n        /* \"03_kipu-bank-v2/contracts/KipuBankV2.sol\":9987:10937  function depositarUSDC(uint256 _amount) ... */\n    tag_10:\n      callvalue\n      dup1\n      iszero\n      tag_63\n      jumpi\n      0x00\n      dup1\n      revert\n    tag_63:\n      pop\n      tag_64\n      0x04\n      dup1\n      calldatasize\n      sub\n      dup2\n      add\n      swap1\n      tag_65\n      swap2\n      swap1\n      tag_66\n      jump\t// in\n    tag_65:\n      tag_67\n      jump\t// in\n    tag_64:\n      stop\n        /* \"@openzeppelin/contracts/access/Ownable.sol\":2293:2394  function renounceOwnership() public virtual onlyOwner {... */\n    tag_11:\n      callvalue\n      dup1\n      iszero\n      tag_68\n      jumpi\n      0x00\n      dup1\n      revert\n    tag_68:\n      pop\n      tag_69\n      tag_70\n      jump\t// in\n    tag_69:\n      stop\n        /* \"03_kipu-bank-v2/contracts/KipuBankV2.sol\":11144:12335  function retirarETH(uint256 _amountETH) ... */\n    tag_12:\n      callvalue\n      dup1\n      iszero\n      tag_71\n      jumpi\n      0x00\n      dup1\n      revert\n    tag_71:\n      pop\n      tag_72\n      0x04\n      dup1\n      calldatasize\n      sub\n      dup2\n      add\n      swap1\n      tag_73\n      swap2\n      swap1\n      tag_66\n      jump\t// in\n    tag_73:\n      tag_74\n      jump\t// in\n    tag_72:\n      stop\n        /* \"@openzeppelin/contracts/access/Ownable.sol\":1638:1723  function owner() public view virtual returns (address) {... */\n    tag_13:\n      callvalue\n      dup1\n      iszero\n      tag_75\n      jumpi\n      0x00\n      dup1\n      revert\n    tag_75:\n      pop\n      tag_76\n      tag_77\n      jump\t// in\n    tag_76:\n      mload(0x40)\n      tag_78\n      swap2\n      swap1\n      tag_53\n      jump\t// in\n    tag_78:\n      mload(0x40)\n      dup1\n      swap2\n      sub\n      swap1\n      return\n        /* \"03_kipu-bank-v2/contracts/KipuBankV2.sol\":12527:13610  function retirarUSDC(uint256 _amount) ... */\n    tag_14:\n      callvalue\n      dup1\n      iszero\n      tag_79\n      jumpi\n      0x00\n      dup1\n      revert\n    tag_79:\n      pop\n      tag_80\n      0x04\n      dup1\n      calldatasize\n      sub\n      dup2\n      add\n      swap1\n      tag_81\n      swap2\n      swap1\n      tag_66\n      jump\t// in\n    tag_81:\n      tag_82\n      jump\t// in\n    tag_80:\n      stop\n        /* \"03_kipu-bank-v2/contracts/KipuBankV2.sol\":18002:18715  function consultarEstadoBanco() ... */\n    tag_15:\n      callvalue\n      dup1\n      iszero\n      tag_83\n      jumpi\n      0x00\n      dup1\n      revert\n    tag_83:\n      pop\n      tag_84\n      tag_85\n      jump\t// in\n    tag_84:\n      mload(0x40)\n      tag_86\n      swap8\n      swap7\n      swap6\n      swap5\n      swap4\n      swap3\n      swap2\n      swap1\n      tag_87\n      jump\t// in\n    tag_86:\n      mload(0x40)\n      dup1\n      swap2\n      sub\n      swap1\n      return\n        /* \"03_kipu-bank-v2/contracts/KipuBankV2.sol\":2433:2474  AggregatorV3Interface public s_ethUsdFeed */\n    tag_16:\n      callvalue\n      dup1\n      iszero\n      tag_88\n      jumpi\n      0x00\n      dup1\n      revert\n    tag_88:\n      pop\n      tag_89\n      tag_90\n      jump\t// in\n    tag_89:\n      mload(0x40)\n      tag_91\n      swap2\n      swap1\n      tag_92\n      jump\t// in\n    tag_91:\n      mload(0x40)\n      dup1\n      swap2\n      sub\n      swap1\n      return\n        /* \"03_kipu-bank-v2/contracts/KipuBankV2.sol\":16762:16951  function consultarBalance(address _usuario, address _token) ... */\n    tag_17:\n      callvalue\n      dup1\n      iszero\n      tag_93\n      jumpi\n      0x00\n      dup1\n      revert\n    tag_93:\n      pop\n      tag_94\n      0x04\n      dup1\n      calldatasize\n      sub\n      dup2\n      add\n      swap1\n      tag_95\n      swap2\n      swap1\n      tag_96\n      jump\t// in\n    tag_95:\n      tag_97\n      jump\t// in\n    tag_94:\n      mload(0x40)\n      tag_98\n      swap2\n      swap1\n      tag_32\n      jump\t// in\n    tag_98:\n      mload(0x40)\n      dup1\n      swap2\n      sub\n      swap1\n      return\n        /* \"03_kipu-bank-v2/contracts/KipuBankV2.sol\":13949:14124  function actualizarFeed(address _newFeed) external onlyOwner {... */\n    tag_18:\n      callvalue\n      dup1\n      iszero\n      tag_99\n      jumpi\n      0x00\n      dup1\n      revert\n    tag_99:\n      pop\n      tag_100\n      0x04\n      dup1\n      calldatasize\n      sub\n      dup2\n      add\n      swap1\n      tag_101\n      swap2\n      swap1\n      tag_46\n      jump\t// in\n    tag_101:\n      tag_102\n      jump\t// in\n    tag_100:\n      stop\n        /* \"03_kipu-bank-v2/contracts/KipuBankV2.sol\":19102:19557  function consultarPrecioETH() ... */\n    tag_19:\n      callvalue\n      dup1\n      iszero\n      tag_103\n      jumpi\n      0x00\n      dup1\n      revert\n    tag_103:\n      pop\n      tag_104\n      tag_105\n      jump\t// in\n    tag_104:\n      mload(0x40)\n      tag_106\n      swap3\n      swap2\n      swap1\n      tag_107\n      jump\t// in\n    tag_106:\n      mload(0x40)\n      dup1\n      swap2\n      sub\n      swap1\n      return\n        /* \"03_kipu-bank-v2/contracts/KipuBankV2.sol\":3063:3095  uint256 public s_contadorRetiros */\n    tag_20:\n      callvalue\n      dup1\n      iszero\n      tag_108\n      jumpi\n      0x00\n      dup1\n      revert\n    tag_108:\n      pop\n      tag_109\n      tag_110\n      jump\t// in\n    tag_109:\n      mload(0x40)\n      tag_111\n      swap2\n      swap1\n      tag_32\n      jump\t// in\n    tag_111:\n      mload(0x40)\n      dup1\n      swap2\n      sub\n      swap1\n      return\n        /* \"03_kipu-bank-v2/contracts/KipuBankV2.sol\":2553:2640  mapping(address user => mapping(address token => uint256 balanceUSD)) public s_balances */\n    tag_21:\n      callvalue\n      dup1\n      iszero\n      tag_112\n      jumpi\n      0x00\n      dup1\n      revert\n    tag_112:\n      pop\n      tag_113\n      0x04\n      dup1\n      calldatasize\n      sub\n      dup2\n      add\n      swap1\n      tag_114\n      swap2\n      swap1\n      tag_96\n      jump\t// in\n    tag_114:\n      tag_115\n      jump\t// in\n    tag_113:\n      mload(0x40)\n      tag_116\n      swap2\n      swap1\n      tag_32\n      jump\t// in\n    tag_116:\n      mload(0x40)\n      dup1\n      swap2\n      sub\n      swap1\n      return\n        /* \"03_kipu-bank-v2/contracts/KipuBankV2.sol\":2861:2896  uint256 public s_totalDepositadoUSD */\n    tag_22:\n      callvalue\n      dup1\n      iszero\n      tag_117\n      jumpi\n      0x00\n      dup1\n      revert\n    tag_117:\n      pop\n      tag_118\n      tag_119\n      jump\t// in\n    tag_118:\n      mload(0x40)\n      tag_120\n      swap2\n      swap1\n      tag_32\n      jump\t// in\n    tag_120:\n      mload(0x40)\n      dup1\n      swap2\n      sub\n      swap1\n      return\n        /* \"@openzeppelin/contracts/access/Ownable.sol\":2543:2758  function transferOwnership(address newOwner) public virtual onlyOwner {... */\n    tag_23:\n      callvalue\n      dup1\n      iszero\n      tag_121\n      jumpi\n      0x00\n      dup1\n      revert\n    tag_121:\n      pop\n      tag_122\n      0x04\n      dup1\n      calldatasize\n      sub\n      dup2\n      add\n      swap1\n      tag_123\n      swap2\n      swap1\n      tag_46\n      jump\t// in\n    tag_123:\n      tag_124\n      jump\t// in\n    tag_122:\n      stop\n        /* \"03_kipu-bank-v2/contracts/KipuBankV2.sol\":2233:2263  IERC20 public immutable i_usdc */\n    tag_24:\n      callvalue\n      dup1\n      iszero\n      tag_125\n      jumpi\n      0x00\n      dup1\n      revert\n    tag_125:\n      pop\n      tag_126\n      tag_127\n      jump\t// in\n    tag_126:\n      mload(0x40)\n      tag_128\n      swap2\n      swap1\n      tag_129\n      jump\t// in\n    tag_128:\n      mload(0x40)\n      dup1\n      swap2\n      sub\n      swap1\n      return\n        /* \"03_kipu-bank-v2/contracts/KipuBankV2.sol\":2025:2062  uint256 public immutable i_bankCapUSD */\n    tag_30:\n      immutable(\"0x6bcaf047ba4c8ac400fca43393035242dd1aabda2d6068a0c51242b97224de8d\")\n      dup2\n      jump\t// out\n        /* \"03_kipu-bank-v2/contracts/KipuBankV2.sol\":8732:9764  function depositarETH() external payable nonReentrant {... */\n    tag_34:\n        /* \"@openzeppelin/contracts/utils/ReentrancyGuard.sol\":2500:2521  _nonReentrantBefore() */\n      tag_131\n        /* \"@openzeppelin/contracts/utils/ReentrancyGuard.sol\":2500:2519  _nonReentrantBefore */\n      tag_132\n        /* \"@openzeppelin/contracts/utils/ReentrancyGuard.sol\":2500:2521  _nonReentrantBefore() */\n      jump\t// in\n    tag_131:\n        /* \"03_kipu-bank-v2/contracts/KipuBankV2.sol\":8858:8859  0 */\n      0x00\n        /* \"03_kipu-bank-v2/contracts/KipuBankV2.sol\":8845:8854  msg.value */\n      callvalue\n        /* \"03_kipu-bank-v2/contracts/KipuBankV2.sol\":8845:8859  msg.value == 0 */\n      sub\n        /* \"03_kipu-bank-v2/contracts/KipuBankV2.sol\":8841:8903  if (msg.value == 0) revert KipuBankV2_MontoDebeSerMayorACero() */\n      tag_134\n      jumpi\n        /* \"03_kipu-bank-v2/contracts/KipuBankV2.sol\":8868:8903  KipuBankV2_MontoDebeSerMayorACero() */\n      mload(0x40)\n      0xe729dc6400000000000000000000000000000000000000000000000000000000\n      dup2\n      mstore\n      0x04\n      add\n      mload(0x40)\n      dup1\n      swap2\n      sub\n      swap1\n      revert\n        /* \"03_kipu-bank-v2/contracts/KipuBankV2.sol\":8841:8903  if (msg.value == 0) revert KipuBankV2_MontoDebeSerMayorACero() */\n    tag_134:\n        /* \"03_kipu-bank-v2/contracts/KipuBankV2.sol\":8958:8974  uint256 valorUSD */\n      0x00\n        /* \"03_kipu-bank-v2/contracts/KipuBankV2.sol\":8977:9005  _convertirEthAUsd(msg.value) */\n      tag_135\n        /* \"03_kipu-bank-v2/contracts/KipuBankV2.sol\":8995:9004  msg.value */\n      callvalue\n        /* \"03_kipu-bank-v2/contracts/KipuBankV2.sol\":8977:8994  _convertirEthAUsd */\n      tag_136\n        /* \"03_kipu-bank-v2/contracts/KipuBankV2.sol\":8977:9005  _convertirEthAUsd(msg.value) */\n      jump\t// in\n    tag_135:\n        /* \"03_kipu-bank-v2/contracts/KipuBankV2.sol\":8958:9005  uint256 valorUSD = _convertirEthAUsd(msg.value) */\n      swap1\n      pop\n        /* \"03_kipu-bank-v2/contracts/KipuBankV2.sol\":9095:9107  i_bankCapUSD */\n      immutable(\"0x6bcaf047ba4c8ac400fca43393035242dd1aabda2d6068a0c51242b97224de8d\")\n        /* \"03_kipu-bank-v2/contracts/KipuBankV2.sol\":9084:9092  valorUSD */\n      dup2\n        /* \"03_kipu-bank-v2/contracts/KipuBankV2.sol\":9061:9081  s_totalDepositadoUSD */\n      sload(0x05)\n        /* \"03_kipu-bank-v2/contracts/KipuBankV2.sol\":9061:9092  s_totalDepositadoUSD + valorUSD */\n      tag_137\n      swap2\n      swap1\n      tag_138\n      jump\t// in\n    tag_137:\n        /* \"03_kipu-bank-v2/contracts/KipuBankV2.sol\":9061:9107  s_totalDepositadoUSD + valorUSD > i_bankCapUSD */\n      gt\n        /* \"03_kipu-bank-v2/contracts/KipuBankV2.sol\":9057:9283  if (s_totalDepositadoUSD + valorUSD > i_bankCapUSD) {... */\n      iszero\n      tag_139\n      jumpi\n        /* \"03_kipu-bank-v2/contracts/KipuBankV2.sol\":9182:9202  s_totalDepositadoUSD */\n      sload(0x05)\n        /* \"03_kipu-bank-v2/contracts/KipuBankV2.sol\":9220:9228  valorUSD */\n      dup2\n        /* \"03_kipu-bank-v2/contracts/KipuBankV2.sol\":9246:9258  i_bankCapUSD */\n      immutable(\"0x6bcaf047ba4c8ac400fca43393035242dd1aabda2d6068a0c51242b97224de8d\")\n        /* \"03_kipu-bank-v2/contracts/KipuBankV2.sol\":9130:9272  KipuBankV2_LimiteGlobalExcedidoUSD(... */\n      mload(0x40)\n      0xc9fe79b800000000000000000000000000000000000000000000000000000000\n      dup2\n      mstore\n      0x04\n      add\n      tag_140\n      swap4\n      swap3\n      swap2\n      swap1\n      tag_141\n      jump\t// in\n    tag_140:\n      mload(0x40)\n      dup1\n      swap2\n      sub\n      swap1\n      revert\n        /* \"03_kipu-bank-v2/contracts/KipuBankV2.sol\":9057:9283  if (s_totalDepositadoUSD + valorUSD > i_bankCapUSD) {... */\n    tag_139:\n        /* \"03_kipu-bank-v2/contracts/KipuBankV2.sol\":9379:9387  valorUSD */\n      dup1\n        /* \"03_kipu-bank-v2/contracts/KipuBankV2.sol\":9339:9349  s_balances */\n      0x03\n        /* \"03_kipu-bank-v2/contracts/KipuBankV2.sol\":9339:9361  s_balances[msg.sender] */\n      0x00\n        /* \"03_kipu-bank-v2/contracts/KipuBankV2.sol\":9350:9360  msg.sender */\n      caller\n        /* \"03_kipu-bank-v2/contracts/KipuBankV2.sol\":9339:9361  s_balances[msg.sender] */\n      0xffffffffffffffffffffffffffffffffffffffff\n      and\n      0xffffffffffffffffffffffffffffffffffffffff\n      and\n      dup2\n      mstore\n      0x20\n      add\n      swap1\n      dup2\n      mstore\n      0x20\n      add\n      0x00\n      keccak256\n        /* \"03_kipu-bank-v2/contracts/KipuBankV2.sol\":9339:9375  s_balances[msg.sender][NATIVE_TOKEN] */\n      0x00\n        /* \"03_kipu-bank-v2/contracts/KipuBankV2.sol\":1612:1613  0 */\n      dup1\n        /* \"03_kipu-bank-v2/contracts/KipuBankV2.sol\":9339:9375  s_balances[msg.sender][NATIVE_TOKEN] */\n      0xffffffffffffffffffffffffffffffffffffffff\n      and\n      0xffffffffffffffffffffffffffffffffffffffff\n      and\n      dup2\n      mstore\n      0x20\n      add\n      swap1\n      dup2\n      mstore\n      0x20\n      add\n      0x00\n      keccak256\n      0x00\n        /* \"03_kipu-bank-v2/contracts/KipuBankV2.sol\":9339:9387  s_balances[msg.sender][NATIVE_TOKEN] += valorUSD */\n      dup3\n      dup3\n      sload\n      tag_142\n      swap2\n      swap1\n      tag_138\n      jump\t// in\n    tag_142:\n      swap3\n      pop\n      pop\n      dup2\n      swap1\n      sstore\n      pop\n        /* \"03_kipu-bank-v2/contracts/KipuBankV2.sol\":9440:9448  valorUSD */\n      dup1\n        /* \"03_kipu-bank-v2/contracts/KipuBankV2.sol\":9397:9422  s_totalDepositadoPorToken */\n      0x04\n        /* \"03_kipu-bank-v2/contracts/KipuBankV2.sol\":9397:9436  s_totalDepositadoPorToken[NATIVE_TOKEN] */\n      0x00\n        /* \"03_kipu-bank-v2/contracts/KipuBankV2.sol\":1612:1613  0 */\n      dup1\n        /* \"03_kipu-bank-v2/contracts/KipuBankV2.sol\":9397:9436  s_totalDepositadoPorToken[NATIVE_TOKEN] */\n      0xffffffffffffffffffffffffffffffffffffffff\n      and\n      0xffffffffffffffffffffffffffffffffffffffff\n      and\n      dup2\n      mstore\n      0x20\n      add\n      swap1\n      dup2\n      mstore\n      0x20\n      add\n      0x00\n      keccak256\n      0x00\n        /* \"03_kipu-bank-v2/contracts/KipuBankV2.sol\":9397:9448  s_totalDepositadoPorToken[NATIVE_TOKEN] += valorUSD */\n      dup3\n      dup3\n      sload\n      tag_143\n      swap2\n      swap1\n      tag_138\n      jump\t// in\n    tag_143:\n      swap3\n      pop\n      pop\n      dup2\n      swap1\n      sstore\n      pop\n        /* \"03_kipu-bank-v2/contracts/KipuBankV2.sol\":9482:9490  valorUSD */\n      dup1\n        /* \"03_kipu-bank-v2/contracts/KipuBankV2.sol\":9458:9478  s_totalDepositadoUSD */\n      0x05\n      0x00\n        /* \"03_kipu-bank-v2/contracts/KipuBankV2.sol\":9458:9490  s_totalDepositadoUSD += valorUSD */\n      dup3\n      dup3\n      sload\n      tag_144\n      swap2\n      swap1\n      tag_138\n      jump\t// in\n    tag_144:\n      swap3\n      pop\n      pop\n      dup2\n      swap1\n      sstore\n      pop\n        /* \"03_kipu-bank-v2/contracts/KipuBankV2.sol\":9500:9519  s_contadorDepositos */\n      0x06\n      0x00\n        /* \"03_kipu-bank-v2/contracts/KipuBankV2.sol\":9500:9521  s_contadorDepositos++ */\n      dup2\n      sload\n      dup1\n      swap3\n      swap2\n      swap1\n      tag_145\n      swap1\n      tag_146\n      jump\t// in\n    tag_145:\n      swap2\n      swap1\n      pop\n      sstore\n      pop\n        /* \"03_kipu-bank-v2/contracts/KipuBankV2.sol\":1612:1613  0 */\n      0x00\n        /* \"03_kipu-bank-v2/contracts/KipuBankV2.sol\":9584:9757  KipuBankV2_DepositoRealizado(... */\n      0xffffffffffffffffffffffffffffffffffffffff\n      and\n        /* \"03_kipu-bank-v2/contracts/KipuBankV2.sol\":9626:9636  msg.sender */\n      caller\n        /* \"03_kipu-bank-v2/contracts/KipuBankV2.sol\":9584:9757  KipuBankV2_DepositoRealizado(... */\n      0xffffffffffffffffffffffffffffffffffffffff\n      and\n      0x751f8b54c0e32ef5b9fafdbdac0c93c1994cc8848fa17ed7798bd90aae8bfe9b\n        /* \"03_kipu-bank-v2/contracts/KipuBankV2.sol\":9676:9685  msg.value */\n      callvalue\n        /* \"03_kipu-bank-v2/contracts/KipuBankV2.sol\":9718:9726  valorUSD */\n      dup5\n        /* \"03_kipu-bank-v2/contracts/KipuBankV2.sol\":9584:9757  KipuBankV2_DepositoRealizado(... */\n      mload(0x40)\n      tag_147\n      swap3\n      swap2\n      swap1\n      tag_107\n      jump\t// in\n    tag_147:\n      mload(0x40)\n      dup1\n      swap2\n      sub\n      swap1\n      log3\n        /* \"03_kipu-bank-v2/contracts/KipuBankV2.sol\":8786:9764  {... */\n      pop\n        /* \"@openzeppelin/contracts/utils/ReentrancyGuard.sol\":2542:2562  _nonReentrantAfter() */\n      tag_148\n        /* \"@openzeppelin/contracts/utils/ReentrancyGuard.sol\":2542:2560  _nonReentrantAfter */\n      tag_149\n        /* \"@openzeppelin/contracts/utils/ReentrancyGuard.sol\":2542:2562  _nonReentrantAfter() */\n      jump\t// in\n    tag_148:\n        /* \"03_kipu-bank-v2/contracts/KipuBankV2.sol\":8732:9764  function depositarETH() external payable nonReentrant {... */\n      jump\t// out\n        /* \"03_kipu-bank-v2/contracts/KipuBankV2.sol\":2964:2998  uint256 public s_contadorDepositos */\n    tag_37:\n      sload(0x06)\n      dup2\n      jump\t// out\n        /* \"03_kipu-bank-v2/contracts/KipuBankV2.sol\":18770:18870  function getUmbralRetiro() external view returns (uint256) {... */\n    tag_41:\n        /* \"03_kipu-bank-v2/contracts/KipuBankV2.sol\":18820:18827  uint256 */\n      0x00\n        /* \"03_kipu-bank-v2/contracts/KipuBankV2.sol\":18846:18863  i_umbralRetiroUSD */\n      immutable(\"0x2e9b7c94e032d8b3b8b30bd825717a5ac74958b53e7c37a892a4fd7dc56e4975\")\n        /* \"03_kipu-bank-v2/contracts/KipuBankV2.sol\":18839:18863  return i_umbralRetiroUSD */\n      swap1\n      pop\n        /* \"03_kipu-bank-v2/contracts/KipuBankV2.sol\":18770:18870  function getUmbralRetiro() external view returns (uint256) {... */\n      swap1\n      jump\t// out\n        /* \"03_kipu-bank-v2/contracts/KipuBankV2.sol\":2701:2776  mapping(address token => uint256 totalUSD) public s_totalDepositadoPorToken */\n    tag_47:\n      mstore(0x20, 0x04)\n      dup1\n      0x00\n      mstore\n      keccak256(0x00, 0x40)\n      0x00\n      swap2\n      pop\n      swap1\n      pop\n      sload\n      dup2\n      jump\t// out\n        /* \"03_kipu-bank-v2/contracts/KipuBankV2.sol\":1565:1614  address public constant NATIVE_TOKEN = address(0) */\n    tag_51:\n        /* \"03_kipu-bank-v2/contracts/KipuBankV2.sol\":1612:1613  0 */\n      0x00\n        /* \"03_kipu-bank-v2/contracts/KipuBankV2.sol\":1565:1614  address public constant NATIVE_TOKEN = address(0) */\n      dup2\n      jump\t// out\n        /* \"03_kipu-bank-v2/contracts/KipuBankV2.sol\":2138:2180  uint256 public immutable i_umbralRetiroUSD */\n    tag_56:\n      immutable(\"0x2e9b7c94e032d8b3b8b30bd825717a5ac74958b53e7c37a892a4fd7dc56e4975\")\n      dup2\n      jump\t// out\n        /* \"03_kipu-bank-v2/contracts/KipuBankV2.sol\":17175:17471  function consultarBalanceTotalUSD(address _usuario) ... */\n    tag_61:\n        /* \"03_kipu-bank-v2/contracts/KipuBankV2.sol\":17277:17301  uint256 balanceTotalUSD_ */\n      0x00\n        /* \"03_kipu-bank-v2/contracts/KipuBankV2.sol\":17427:17437  s_balances */\n      0x03\n        /* \"03_kipu-bank-v2/contracts/KipuBankV2.sol\":17427:17447  s_balances[_usuario] */\n      0x00\n        /* \"03_kipu-bank-v2/contracts/KipuBankV2.sol\":17438:17446  _usuario */\n      dup4\n        /* \"03_kipu-bank-v2/contracts/KipuBankV2.sol\":17427:17447  s_balances[_usuario] */\n      0xffffffffffffffffffffffffffffffffffffffff\n      and\n      0xffffffffffffffffffffffffffffffffffffffff\n      and\n      dup2\n      mstore\n      0x20\n      add\n      swap1\n      dup2\n      mstore\n      0x20\n      add\n      0x00\n      keccak256\n        /* \"03_kipu-bank-v2/contracts/KipuBankV2.sol\":17427:17464  s_balances[_usuario][address(i_usdc)] */\n      0x00\n        /* \"03_kipu-bank-v2/contracts/KipuBankV2.sol\":17456:17462  i_usdc */\n      immutable(\"0x6304e47846f882085b0f4b1a184252ae95ffe5e2a02daf39c014f492dcb1441c\")\n        /* \"03_kipu-bank-v2/contracts/KipuBankV2.sol\":17427:17464  s_balances[_usuario][address(i_usdc)] */\n      0xffffffffffffffffffffffffffffffffffffffff\n      and\n      0xffffffffffffffffffffffffffffffffffffffff\n      and\n      dup2\n      mstore\n      0x20\n      add\n      swap1\n      dup2\n      mstore\n      0x20\n      add\n      0x00\n      keccak256\n      sload\n        /* \"03_kipu-bank-v2/contracts/KipuBankV2.sol\":17365:17375  s_balances */\n      0x03\n        /* \"03_kipu-bank-v2/contracts/KipuBankV2.sol\":17365:17385  s_balances[_usuario] */\n      0x00\n        /* \"03_kipu-bank-v2/contracts/KipuBankV2.sol\":17376:17384  _usuario */\n      dup5\n        /* \"03_kipu-bank-v2/contracts/KipuBankV2.sol\":17365:17385  s_balances[_usuario] */\n      0xffffffffffffffffffffffffffffffffffffffff\n      and\n      0xffffffffffffffffffffffffffffffffffffffff\n      and\n      dup2\n      mstore\n      0x20\n      add\n      swap1\n      dup2\n      mstore\n      0x20\n      add\n      0x00\n      keccak256\n        /* \"03_kipu-bank-v2/contracts/KipuBankV2.sol\":17365:17399  s_balances[_usuario][NATIVE_TOKEN] */\n      0x00\n        /* \"03_kipu-bank-v2/contracts/KipuBankV2.sol\":1612:1613  0 */\n      dup1\n        /* \"03_kipu-bank-v2/contracts/KipuBankV2.sol\":17365:17399  s_balances[_usuario][NATIVE_TOKEN] */\n      0xffffffffffffffffffffffffffffffffffffffff\n      and\n      0xffffffffffffffffffffffffffffffffffffffff\n      and\n      dup2\n      mstore\n      0x20\n      add\n      swap1\n      dup2\n      mstore\n      0x20\n      add\n      0x00\n      keccak256\n      sload\n        /* \"03_kipu-bank-v2/contracts/KipuBankV2.sol\":17365:17464  s_balances[_usuario][NATIVE_TOKEN] + ... */\n      tag_152\n      swap2\n      swap1\n      tag_138\n      jump\t// in\n    tag_152:\n        /* \"03_kipu-bank-v2/contracts/KipuBankV2.sol\":17346:17464  balanceTotalUSD_ = s_balances[_usuario][NATIVE_TOKEN] + ... */\n      swap1\n      pop\n        /* \"03_kipu-bank-v2/contracts/KipuBankV2.sol\":17175:17471  function consultarBalanceTotalUSD(address _usuario) ... */\n      swap2\n      swap1\n      pop\n      jump\t// out\n        /* \"03_kipu-bank-v2/contracts/KipuBankV2.sol\":9987:10937  function depositarUSDC(uint256 _amount) ... */\n    tag_67:\n        /* \"@openzeppelin/contracts/utils/ReentrancyGuard.sol\":2500:2521  _nonReentrantBefore() */\n      tag_154\n        /* \"@openzeppelin/contracts/utils/ReentrancyGuard.sol\":2500:2519  _nonReentrantBefore */\n      tag_132\n        /* \"@openzeppelin/contracts/utils/ReentrancyGuard.sol\":2500:2521  _nonReentrantBefore() */\n      jump\t// in\n    tag_154:\n        /* \"03_kipu-bank-v2/contracts/KipuBankV2.sol\":10090:10097  _amount */\n      dup1\n        /* \"03_kipu-bank-v2/contracts/KipuBankV2.sol\":7975:7976  0 */\n      0x00\n        /* \"03_kipu-bank-v2/contracts/KipuBankV2.sol\":7965:7971  _monto */\n      dup2\n        /* \"03_kipu-bank-v2/contracts/KipuBankV2.sol\":7965:7976  _monto == 0 */\n      sub\n        /* \"03_kipu-bank-v2/contracts/KipuBankV2.sol\":7961:8020  if (_monto == 0) revert KipuBankV2_MontoDebeSerMayorACero() */\n      tag_156\n      jumpi\n        /* \"03_kipu-bank-v2/contracts/KipuBankV2.sol\":7985:8020  KipuBankV2_MontoDebeSerMayorACero() */\n      mload(0x40)\n      0xe729dc6400000000000000000000000000000000000000000000000000000000\n      dup2\n      mstore\n      0x04\n      add\n      mload(0x40)\n      dup1\n      swap2\n      sub\n      swap1\n      revert\n        /* \"03_kipu-bank-v2/contracts/KipuBankV2.sol\":7961:8020  if (_monto == 0) revert KipuBankV2_MontoDebeSerMayorACero() */\n    tag_156:\n        /* \"03_kipu-bank-v2/contracts/KipuBankV2.sol\":10192:10204  i_bankCapUSD */\n      immutable(\"0x6bcaf047ba4c8ac400fca43393035242dd1aabda2d6068a0c51242b97224de8d\")\n        /* \"03_kipu-bank-v2/contracts/KipuBankV2.sol\":10182:10189  _amount */\n      dup3\n        /* \"03_kipu-bank-v2/contracts/KipuBankV2.sol\":10159:10179  s_totalDepositadoUSD */\n      sload(0x05)\n        /* \"03_kipu-bank-v2/contracts/KipuBankV2.sol\":10159:10189  s_totalDepositadoUSD + _amount */\n      tag_158\n      swap2\n      swap1\n      tag_138\n      jump\t// in\n    tag_158:\n        /* \"03_kipu-bank-v2/contracts/KipuBankV2.sol\":10159:10204  s_totalDepositadoUSD + _amount > i_bankCapUSD */\n      gt\n        /* \"03_kipu-bank-v2/contracts/KipuBankV2.sol\":10155:10379  if (s_totalDepositadoUSD + _amount > i_bankCapUSD) {... */\n      iszero\n      tag_159\n      jumpi\n        /* \"03_kipu-bank-v2/contracts/KipuBankV2.sol\":10279:10299  s_totalDepositadoUSD */\n      sload(0x05)\n        /* \"03_kipu-bank-v2/contracts/KipuBankV2.sol\":10317:10324  _amount */\n      dup3\n        /* \"03_kipu-bank-v2/contracts/KipuBankV2.sol\":10342:10354  i_bankCapUSD */\n      immutable(\"0x6bcaf047ba4c8ac400fca43393035242dd1aabda2d6068a0c51242b97224de8d\")\n        /* \"03_kipu-bank-v2/contracts/KipuBankV2.sol\":10227:10368  KipuBankV2_LimiteGlobalExcedidoUSD(... */\n      mload(0x40)\n      0xc9fe79b800000000000000000000000000000000000000000000000000000000\n      dup2\n      mstore\n      0x04\n      add\n      tag_160\n      swap4\n      swap3\n      swap2\n      swap1\n      tag_141\n      jump\t// in\n    tag_160:\n      mload(0x40)\n      dup1\n      swap2\n      sub\n      swap1\n      revert\n        /* \"03_kipu-bank-v2/contracts/KipuBankV2.sol\":10155:10379  if (s_totalDepositadoUSD + _amount > i_bankCapUSD) {... */\n    tag_159:\n        /* \"03_kipu-bank-v2/contracts/KipuBankV2.sol\":10478:10485  _amount */\n      dup2\n        /* \"03_kipu-bank-v2/contracts/KipuBankV2.sol\":10435:10445  s_balances */\n      0x03\n        /* \"03_kipu-bank-v2/contracts/KipuBankV2.sol\":10435:10457  s_balances[msg.sender] */\n      0x00\n        /* \"03_kipu-bank-v2/contracts/KipuBankV2.sol\":10446:10456  msg.sender */\n      caller\n        /* \"03_kipu-bank-v2/contracts/KipuBankV2.sol\":10435:10457  s_balances[msg.sender] */\n      0xffffffffffffffffffffffffffffffffffffffff\n      and\n      0xffffffffffffffffffffffffffffffffffffffff\n      and\n      dup2\n      mstore\n      0x20\n      add\n      swap1\n      dup2\n      mstore\n      0x20\n      add\n      0x00\n      keccak256\n        /* \"03_kipu-bank-v2/contracts/KipuBankV2.sol\":10435:10474  s_balances[msg.sender][address(i_usdc)] */\n      0x00\n        /* \"03_kipu-bank-v2/contracts/KipuBankV2.sol\":10466:10472  i_usdc */\n      immutable(\"0x6304e47846f882085b0f4b1a184252ae95ffe5e2a02daf39c014f492dcb1441c\")\n        /* \"03_kipu-bank-v2/contracts/KipuBankV2.sol\":10435:10474  s_balances[msg.sender][address(i_usdc)] */\n      0xffffffffffffffffffffffffffffffffffffffff\n      and\n      0xffffffffffffffffffffffffffffffffffffffff\n      and\n      dup2\n      mstore\n      0x20\n      add\n      swap1\n      dup2\n      mstore\n      0x20\n      add\n      0x00\n      keccak256\n      0x00\n        /* \"03_kipu-bank-v2/contracts/KipuBankV2.sol\":10435:10485  s_balances[msg.sender][address(i_usdc)] += _amount */\n      dup3\n      dup3\n      sload\n      tag_161\n      swap2\n      swap1\n      tag_138\n      jump\t// in\n    tag_161:\n      swap3\n      pop\n      pop\n      dup2\n      swap1\n      sstore\n      pop\n        /* \"03_kipu-bank-v2/contracts/KipuBankV2.sol\":10541:10548  _amount */\n      dup2\n        /* \"03_kipu-bank-v2/contracts/KipuBankV2.sol\":10495:10520  s_totalDepositadoPorToken */\n      0x04\n        /* \"03_kipu-bank-v2/contracts/KipuBankV2.sol\":10495:10537  s_totalDepositadoPorToken[address(i_usdc)] */\n      0x00\n        /* \"03_kipu-bank-v2/contracts/KipuBankV2.sol\":10529:10535  i_usdc */\n      immutable(\"0x6304e47846f882085b0f4b1a184252ae95ffe5e2a02daf39c014f492dcb1441c\")\n        /* \"03_kipu-bank-v2/contracts/KipuBankV2.sol\":10495:10537  s_totalDepositadoPorToken[address(i_usdc)] */\n      0xffffffffffffffffffffffffffffffffffffffff\n      and\n      0xffffffffffffffffffffffffffffffffffffffff\n      and\n      dup2\n      mstore\n      0x20\n      add\n      swap1\n      dup2\n      mstore\n      0x20\n      add\n      0x00\n      keccak256\n      0x00\n        /* \"03_kipu-bank-v2/contracts/KipuBankV2.sol\":10495:10548  s_totalDepositadoPorToken[address(i_usdc)] += _amount */\n      dup3\n      dup3\n      sload\n      tag_162\n      swap2\n      swap1\n      tag_138\n      jump\t// in\n    tag_162:\n      swap3\n      pop\n      pop\n      dup2\n      swap1\n      sstore\n      pop\n        /* \"03_kipu-bank-v2/contracts/KipuBankV2.sol\":10582:10589  _amount */\n      dup2\n        /* \"03_kipu-bank-v2/contracts/KipuBankV2.sol\":10558:10578  s_totalDepositadoUSD */\n      0x05\n      0x00\n        /* \"03_kipu-bank-v2/contracts/KipuBankV2.sol\":10558:10589  s_totalDepositadoUSD += _amount */\n      dup3\n      dup3\n      sload\n      tag_163\n      swap2\n      swap1\n      tag_138\n      jump\t// in\n    tag_163:\n      swap3\n      pop\n      pop\n      dup2\n      swap1\n      sstore\n      pop\n        /* \"03_kipu-bank-v2/contracts/KipuBankV2.sol\":10599:10618  s_contadorDepositos */\n      0x06\n      0x00\n        /* \"03_kipu-bank-v2/contracts/KipuBankV2.sol\":10599:10620  s_contadorDepositos++ */\n      dup2\n      sload\n      dup1\n      swap3\n      swap2\n      swap1\n      tag_164\n      swap1\n      tag_146\n      jump\t// in\n    tag_164:\n      swap2\n      swap1\n      pop\n      sstore\n      pop\n        /* \"03_kipu-bank-v2/contracts/KipuBankV2.sol\":10776:10782  i_usdc */\n      immutable(\"0x6304e47846f882085b0f4b1a184252ae95ffe5e2a02daf39c014f492dcb1441c\")\n        /* \"03_kipu-bank-v2/contracts/KipuBankV2.sol\":10702:10835  KipuBankV2_DepositoRealizado(... */\n      0xffffffffffffffffffffffffffffffffffffffff\n      and\n        /* \"03_kipu-bank-v2/contracts/KipuBankV2.sol\":10744:10754  msg.sender */\n      caller\n        /* \"03_kipu-bank-v2/contracts/KipuBankV2.sol\":10702:10835  KipuBankV2_DepositoRealizado(... */\n      0xffffffffffffffffffffffffffffffffffffffff\n      and\n      0x751f8b54c0e32ef5b9fafdbdac0c93c1994cc8848fa17ed7798bd90aae8bfe9b\n        /* \"03_kipu-bank-v2/contracts/KipuBankV2.sol\":10797:10804  _amount */\n      dup5\n        /* \"03_kipu-bank-v2/contracts/KipuBankV2.sol\":10818:10825  _amount */\n      dup6\n        /* \"03_kipu-bank-v2/contracts/KipuBankV2.sol\":10702:10835  KipuBankV2_DepositoRealizado(... */\n      mload(0x40)\n      tag_165\n      swap3\n      swap2\n      swap1\n      tag_107\n      jump\t// in\n    tag_165:\n      mload(0x40)\n      dup1\n      swap2\n      sub\n      swap1\n      log3\n        /* \"03_kipu-bank-v2/contracts/KipuBankV2.sol\":10854:10930  IERC20(address(i_usdc)).safeTransferFrom(msg.sender, address(this), _amount) */\n      tag_166\n        /* \"03_kipu-bank-v2/contracts/KipuBankV2.sol\":10895:10905  msg.sender */\n      caller\n        /* \"03_kipu-bank-v2/contracts/KipuBankV2.sol\":10915:10919  this */\n      address\n        /* \"03_kipu-bank-v2/contracts/KipuBankV2.sol\":10922:10929  _amount */\n      dup5\n        /* \"03_kipu-bank-v2/contracts/KipuBankV2.sol\":10869:10875  i_usdc */\n      immutable(\"0x6304e47846f882085b0f4b1a184252ae95ffe5e2a02daf39c014f492dcb1441c\")\n        /* \"03_kipu-bank-v2/contracts/KipuBankV2.sol\":10854:10894  IERC20(address(i_usdc)).safeTransferFrom */\n      0xffffffffffffffffffffffffffffffffffffffff\n      and\n      tag_167\n      swap1\n        /* \"03_kipu-bank-v2/contracts/KipuBankV2.sol\":10854:10930  IERC20(address(i_usdc)).safeTransferFrom(msg.sender, address(this), _amount) */\n      swap4\n      swap3\n      swap2\n      swap1\n      0xffffffff\n      and\n      jump\t// in\n    tag_166:\n        /* \"@openzeppelin/contracts/utils/ReentrancyGuard.sol\":2531:2532  _ */\n      pop\n        /* \"@openzeppelin/contracts/utils/ReentrancyGuard.sol\":2542:2562  _nonReentrantAfter() */\n      tag_168\n        /* \"@openzeppelin/contracts/utils/ReentrancyGuard.sol\":2542:2560  _nonReentrantAfter */\n      tag_149\n        /* \"@openzeppelin/contracts/utils/ReentrancyGuard.sol\":2542:2562  _nonReentrantAfter() */\n      jump\t// in\n    tag_168:\n        /* \"03_kipu-bank-v2/contracts/KipuBankV2.sol\":9987:10937  function depositarUSDC(uint256 _amount) ... */\n      pop\n      jump\t// out\n        /* \"@openzeppelin/contracts/access/Ownable.sol\":2293:2394  function renounceOwnership() public virtual onlyOwner {... */\n    tag_70:\n        /* \"@openzeppelin/contracts/access/Ownable.sol\":1531:1544  _checkOwner() */\n      tag_170\n        /* \"@openzeppelin/contracts/access/Ownable.sol\":1531:1542  _checkOwner */\n      tag_171\n        /* \"@openzeppelin/contracts/access/Ownable.sol\":1531:1544  _checkOwner() */\n      jump\t// in\n    tag_170:\n        /* \"@openzeppelin/contracts/access/Ownable.sol\":2357:2387  _transferOwnership(address(0)) */\n      tag_173\n        /* \"@openzeppelin/contracts/access/Ownable.sol\":2384:2385  0 */\n      0x00\n        /* \"@openzeppelin/contracts/access/Ownable.sol\":2357:2375  _transferOwnership */\n      tag_174\n        /* \"@openzeppelin/contracts/access/Ownable.sol\":2357:2387  _transferOwnership(address(0)) */\n      jump\t// in\n    tag_173:\n        /* \"@openzeppelin/contracts/access/Ownable.sol\":2293:2394  function renounceOwnership() public virtual onlyOwner {... */\n      jump\t// out\n        /* \"03_kipu-bank-v2/contracts/KipuBankV2.sol\":11144:12335  function retirarETH(uint256 _amountETH) ... */\n    tag_74:\n        /* \"@openzeppelin/contracts/utils/ReentrancyGuard.sol\":2500:2521  _nonReentrantBefore() */\n      tag_176\n        /* \"@openzeppelin/contracts/utils/ReentrancyGuard.sol\":2500:2519  _nonReentrantBefore */\n      tag_132\n        /* \"@openzeppelin/contracts/utils/ReentrancyGuard.sol\":2500:2521  _nonReentrantBefore() */\n      jump\t// in\n    tag_176:\n        /* \"03_kipu-bank-v2/contracts/KipuBankV2.sol\":11249:11259  _amountETH */\n      dup1\n        /* \"03_kipu-bank-v2/contracts/KipuBankV2.sol\":7975:7976  0 */\n      0x00\n        /* \"03_kipu-bank-v2/contracts/KipuBankV2.sol\":7965:7971  _monto */\n      dup2\n        /* \"03_kipu-bank-v2/contracts/KipuBankV2.sol\":7965:7976  _monto == 0 */\n      sub\n        /* \"03_kipu-bank-v2/contracts/KipuBankV2.sol\":7961:8020  if (_monto == 0) revert KipuBankV2_MontoDebeSerMayorACero() */\n      tag_178\n      jumpi\n        /* \"03_kipu-bank-v2/contracts/KipuBankV2.sol\":7985:8020  KipuBankV2_MontoDebeSerMayorACero() */\n      mload(0x40)\n      0xe729dc6400000000000000000000000000000000000000000000000000000000\n      dup2\n      mstore\n      0x04\n      add\n      mload(0x40)\n      dup1\n      swap2\n      sub\n      swap1\n      revert\n        /* \"03_kipu-bank-v2/contracts/KipuBankV2.sol\":7961:8020  if (_monto == 0) revert KipuBankV2_MontoDebeSerMayorACero() */\n    tag_178:\n        /* \"03_kipu-bank-v2/contracts/KipuBankV2.sol\":11319:11335  uint256 valorUSD */\n      0x00\n        /* \"03_kipu-bank-v2/contracts/KipuBankV2.sol\":11338:11367  _convertirEthAUsd(_amountETH) */\n      tag_180\n        /* \"03_kipu-bank-v2/contracts/KipuBankV2.sol\":11356:11366  _amountETH */\n      dup4\n        /* \"03_kipu-bank-v2/contracts/KipuBankV2.sol\":11338:11355  _convertirEthAUsd */\n      tag_136\n        /* \"03_kipu-bank-v2/contracts/KipuBankV2.sol\":11338:11367  _convertirEthAUsd(_amountETH) */\n      jump\t// in\n    tag_180:\n        /* \"03_kipu-bank-v2/contracts/KipuBankV2.sol\":11319:11367  uint256 valorUSD = _convertirEthAUsd(_amountETH) */\n      swap1\n      pop\n        /* \"03_kipu-bank-v2/contracts/KipuBankV2.sol\":11473:11481  valorUSD */\n      dup1\n        /* \"03_kipu-bank-v2/contracts/KipuBankV2.sol\":11434:11444  s_balances */\n      0x03\n        /* \"03_kipu-bank-v2/contracts/KipuBankV2.sol\":11434:11456  s_balances[msg.sender] */\n      0x00\n        /* \"03_kipu-bank-v2/contracts/KipuBankV2.sol\":11445:11455  msg.sender */\n      caller\n        /* \"03_kipu-bank-v2/contracts/KipuBankV2.sol\":11434:11456  s_balances[msg.sender] */\n      0xffffffffffffffffffffffffffffffffffffffff\n      and\n      0xffffffffffffffffffffffffffffffffffffffff\n      and\n      dup2\n      mstore\n      0x20\n      add\n      swap1\n      dup2\n      mstore\n      0x20\n      add\n      0x00\n      keccak256\n        /* \"03_kipu-bank-v2/contracts/KipuBankV2.sol\":11434:11470  s_balances[msg.sender][NATIVE_TOKEN] */\n      0x00\n        /* \"03_kipu-bank-v2/contracts/KipuBankV2.sol\":1612:1613  0 */\n      dup1\n        /* \"03_kipu-bank-v2/contracts/KipuBankV2.sol\":11434:11470  s_balances[msg.sender][NATIVE_TOKEN] */\n      0xffffffffffffffffffffffffffffffffffffffff\n      and\n      0xffffffffffffffffffffffffffffffffffffffff\n      and\n      dup2\n      mstore\n      0x20\n      add\n      swap1\n      dup2\n      mstore\n      0x20\n      add\n      0x00\n      keccak256\n      sload\n        /* \"03_kipu-bank-v2/contracts/KipuBankV2.sol\":11434:11481  s_balances[msg.sender][NATIVE_TOKEN] < valorUSD */\n      lt\n        /* \"03_kipu-bank-v2/contracts/KipuBankV2.sol\":11430:11637  if (s_balances[msg.sender][NATIVE_TOKEN] < valorUSD) {... */\n      iszero\n      tag_181\n      jumpi\n        /* \"03_kipu-bank-v2/contracts/KipuBankV2.sol\":11550:11560  s_balances */\n      0x03\n        /* \"03_kipu-bank-v2/contracts/KipuBankV2.sol\":11550:11572  s_balances[msg.sender] */\n      0x00\n        /* \"03_kipu-bank-v2/contracts/KipuBankV2.sol\":11561:11571  msg.sender */\n      caller\n        /* \"03_kipu-bank-v2/contracts/KipuBankV2.sol\":11550:11572  s_balances[msg.sender] */\n      0xffffffffffffffffffffffffffffffffffffffff\n      and\n      0xffffffffffffffffffffffffffffffffffffffff\n      and\n      dup2\n      mstore\n      0x20\n      add\n      swap1\n      dup2\n      mstore\n      0x20\n      add\n      0x00\n      keccak256\n        /* \"03_kipu-bank-v2/contracts/KipuBankV2.sol\":11550:11586  s_balances[msg.sender][NATIVE_TOKEN] */\n      0x00\n        /* \"03_kipu-bank-v2/contracts/KipuBankV2.sol\":1612:1613  0 */\n      dup1\n        /* \"03_kipu-bank-v2/contracts/KipuBankV2.sol\":11550:11586  s_balances[msg.sender][NATIVE_TOKEN] */\n      0xffffffffffffffffffffffffffffffffffffffff\n      and\n      0xffffffffffffffffffffffffffffffffffffffff\n      and\n      dup2\n      mstore\n      0x20\n      add\n      swap1\n      dup2\n      mstore\n      0x20\n      add\n      0x00\n      keccak256\n      sload\n        /* \"03_kipu-bank-v2/contracts/KipuBankV2.sol\":11604:11612  valorUSD */\n      dup2\n        /* \"03_kipu-bank-v2/contracts/KipuBankV2.sol\":11504:11626  KipuBankV2_SaldoInsuficiente(... */\n      mload(0x40)\n      0x3b28636500000000000000000000000000000000000000000000000000000000\n      dup2\n      mstore\n      0x04\n      add\n      tag_182\n      swap3\n      swap2\n      swap1\n      tag_107\n      jump\t// in\n    tag_182:\n      mload(0x40)\n      dup1\n      swap2\n      sub\n      swap1\n      revert\n        /* \"03_kipu-bank-v2/contracts/KipuBankV2.sol\":11430:11637  if (s_balances[msg.sender][NATIVE_TOKEN] < valorUSD) {... */\n    tag_181:\n        /* \"03_kipu-bank-v2/contracts/KipuBankV2.sol\":11714:11731  i_umbralRetiroUSD */\n      immutable(\"0x2e9b7c94e032d8b3b8b30bd825717a5ac74958b53e7c37a892a4fd7dc56e4975\")\n        /* \"03_kipu-bank-v2/contracts/KipuBankV2.sol\":11703:11711  valorUSD */\n      dup2\n        /* \"03_kipu-bank-v2/contracts/KipuBankV2.sol\":11703:11731  valorUSD > i_umbralRetiroUSD */\n      gt\n        /* \"03_kipu-bank-v2/contracts/KipuBankV2.sol\":11699:11823  if (valorUSD > i_umbralRetiroUSD) {... */\n      iszero\n      tag_183\n      jumpi\n        /* \"03_kipu-bank-v2/contracts/KipuBankV2.sol\":11784:11792  valorUSD */\n      dup1\n        /* \"03_kipu-bank-v2/contracts/KipuBankV2.sol\":11794:11811  i_umbralRetiroUSD */\n      immutable(\"0x2e9b7c94e032d8b3b8b30bd825717a5ac74958b53e7c37a892a4fd7dc56e4975\")\n        /* \"03_kipu-bank-v2/contracts/KipuBankV2.sol\":11754:11812  KipuBankV2_RetiroExcedeUmbral(valorUSD, i_umbralRetiroUSD) */\n      mload(0x40)\n      0xd1ecfb7300000000000000000000000000000000000000000000000000000000\n      dup2\n      mstore\n      0x04\n      add\n      tag_184\n      swap3\n      swap2\n      swap1\n      tag_107\n      jump\t// in\n    tag_184:\n      mload(0x40)\n      dup1\n      swap2\n      sub\n      swap1\n      revert\n        /* \"03_kipu-bank-v2/contracts/KipuBankV2.sol\":11699:11823  if (valorUSD > i_umbralRetiroUSD) {... */\n    tag_183:\n        /* \"03_kipu-bank-v2/contracts/KipuBankV2.sol\":11919:11927  valorUSD */\n      dup1\n        /* \"03_kipu-bank-v2/contracts/KipuBankV2.sol\":11879:11889  s_balances */\n      0x03\n        /* \"03_kipu-bank-v2/contracts/KipuBankV2.sol\":11879:11901  s_balances[msg.sender] */\n      0x00\n        /* \"03_kipu-bank-v2/contracts/KipuBankV2.sol\":11890:11900  msg.sender */\n      caller\n        /* \"03_kipu-bank-v2/contracts/KipuBankV2.sol\":11879:11901  s_balances[msg.sender] */\n      0xffffffffffffffffffffffffffffffffffffffff\n      and\n      0xffffffffffffffffffffffffffffffffffffffff\n      and\n      dup2\n      mstore\n      0x20\n      add\n      swap1\n      dup2\n      mstore\n      0x20\n      add\n      0x00\n      keccak256\n        /* \"03_kipu-bank-v2/contracts/KipuBankV2.sol\":11879:11915  s_balances[msg.sender][NATIVE_TOKEN] */\n      0x00\n        /* \"03_kipu-bank-v2/contracts/KipuBankV2.sol\":1612:1613  0 */\n      dup1\n        /* \"03_kipu-bank-v2/contracts/KipuBankV2.sol\":11879:11915  s_balances[msg.sender][NATIVE_TOKEN] */\n      0xffffffffffffffffffffffffffffffffffffffff\n      and\n      0xffffffffffffffffffffffffffffffffffffffff\n      and\n      dup2\n      mstore\n      0x20\n      add\n      swap1\n      dup2\n      mstore\n      0x20\n      add\n      0x00\n      keccak256\n      0x00\n        /* \"03_kipu-bank-v2/contracts/KipuBankV2.sol\":11879:11927  s_balances[msg.sender][NATIVE_TOKEN] -= valorUSD */\n      dup3\n      dup3\n      sload\n      tag_185\n      swap2\n      swap1\n      tag_186\n      jump\t// in\n    tag_185:\n      swap3\n      pop\n      pop\n      dup2\n      swap1\n      sstore\n      pop\n        /* \"03_kipu-bank-v2/contracts/KipuBankV2.sol\":11980:11988  valorUSD */\n      dup1\n        /* \"03_kipu-bank-v2/contracts/KipuBankV2.sol\":11937:11962  s_totalDepositadoPorToken */\n      0x04\n        /* \"03_kipu-bank-v2/contracts/KipuBankV2.sol\":11937:11976  s_totalDepositadoPorToken[NATIVE_TOKEN] */\n      0x00\n        /* \"03_kipu-bank-v2/contracts/KipuBankV2.sol\":1612:1613  0 */\n      dup1\n        /* \"03_kipu-bank-v2/contracts/KipuBankV2.sol\":11937:11976  s_totalDepositadoPorToken[NATIVE_TOKEN] */\n      0xffffffffffffffffffffffffffffffffffffffff\n      and\n      0xffffffffffffffffffffffffffffffffffffffff\n      and\n      dup2\n      mstore\n      0x20\n      add\n      swap1\n      dup2\n      mstore\n      0x20\n      add\n      0x00\n      keccak256\n      0x00\n        /* \"03_kipu-bank-v2/contracts/KipuBankV2.sol\":11937:11988  s_totalDepositadoPorToken[NATIVE_TOKEN] -= valorUSD */\n      dup3\n      dup3\n      sload\n      tag_187\n      swap2\n      swap1\n      tag_186\n      jump\t// in\n    tag_187:\n      swap3\n      pop\n      pop\n      dup2\n      swap1\n      sstore\n      pop\n        /* \"03_kipu-bank-v2/contracts/KipuBankV2.sol\":12022:12030  valorUSD */\n      dup1\n        /* \"03_kipu-bank-v2/contracts/KipuBankV2.sol\":11998:12018  s_totalDepositadoUSD */\n      0x05\n      0x00\n        /* \"03_kipu-bank-v2/contracts/KipuBankV2.sol\":11998:12030  s_totalDepositadoUSD -= valorUSD */\n      dup3\n      dup3\n      sload\n      tag_188\n      swap2\n      swap1\n      tag_186\n      jump\t// in\n    tag_188:\n      swap3\n      pop\n      pop\n      dup2\n      swap1\n      sstore\n      pop\n        /* \"03_kipu-bank-v2/contracts/KipuBankV2.sol\":12040:12057  s_contadorRetiros */\n      0x07\n      0x00\n        /* \"03_kipu-bank-v2/contracts/KipuBankV2.sol\":12040:12059  s_contadorRetiros++ */\n      dup2\n      sload\n      dup1\n      swap3\n      swap2\n      swap1\n      tag_189\n      swap1\n      tag_146\n      jump\t// in\n    tag_189:\n      swap2\n      swap1\n      pop\n      sstore\n      pop\n        /* \"03_kipu-bank-v2/contracts/KipuBankV2.sol\":1612:1613  0 */\n      0x00\n        /* \"03_kipu-bank-v2/contracts/KipuBankV2.sol\":12139:12271  KipuBankV2_RetiroRealizado(... */\n      0xffffffffffffffffffffffffffffffffffffffff\n      and\n        /* \"03_kipu-bank-v2/contracts/KipuBankV2.sol\":12179:12189  msg.sender */\n      caller\n        /* \"03_kipu-bank-v2/contracts/KipuBankV2.sol\":12139:12271  KipuBankV2_RetiroRealizado(... */\n      0xffffffffffffffffffffffffffffffffffffffff\n      and\n      0xc6acb54bdd58af37c8d1b8bf2f1a561163c5191551bbd6e74cce66ff7b670c77\n        /* \"03_kipu-bank-v2/contracts/KipuBankV2.sol\":12229:12239  _amountETH */\n      dup6\n        /* \"03_kipu-bank-v2/contracts/KipuBankV2.sol\":12253:12261  valorUSD */\n      dup5\n        /* \"03_kipu-bank-v2/contracts/KipuBankV2.sol\":12139:12271  KipuBankV2_RetiroRealizado(... */\n      mload(0x40)\n      tag_190\n      swap3\n      swap2\n      swap1\n      tag_107\n      jump\t// in\n    tag_190:\n      mload(0x40)\n      dup1\n      swap2\n      sub\n      swap1\n      log3\n        /* \"03_kipu-bank-v2/contracts/KipuBankV2.sol\":12290:12328  _transferirEth(msg.sender, _amountETH) */\n      tag_191\n        /* \"03_kipu-bank-v2/contracts/KipuBankV2.sol\":12305:12315  msg.sender */\n      caller\n        /* \"03_kipu-bank-v2/contracts/KipuBankV2.sol\":12317:12327  _amountETH */\n      dup5\n        /* \"03_kipu-bank-v2/contracts/KipuBankV2.sol\":12290:12304  _transferirEth */\n      tag_192\n        /* \"03_kipu-bank-v2/contracts/KipuBankV2.sol\":12290:12328  _transferirEth(msg.sender, _amountETH) */\n      jump\t// in\n    tag_191:\n        /* \"03_kipu-bank-v2/contracts/KipuBankV2.sol\":11266:12335  {... */\n      pop\n        /* \"@openzeppelin/contracts/utils/ReentrancyGuard.sol\":2531:2532  _ */\n      pop\n        /* \"@openzeppelin/contracts/utils/ReentrancyGuard.sol\":2542:2562  _nonReentrantAfter() */\n      tag_193\n        /* \"@openzeppelin/contracts/utils/ReentrancyGuard.sol\":2542:2560  _nonReentrantAfter */\n      tag_149\n        /* \"@openzeppelin/contracts/utils/ReentrancyGuard.sol\":2542:2562  _nonReentrantAfter() */\n      jump\t// in\n    tag_193:\n        /* \"03_kipu-bank-v2/contracts/KipuBankV2.sol\":11144:12335  function retirarETH(uint256 _amountETH) ... */\n      pop\n      jump\t// out\n        /* \"@openzeppelin/contracts/access/Ownable.sol\":1638:1723  function owner() public view virtual returns (address) {... */\n    tag_77:\n        /* \"@openzeppelin/contracts/access/Ownable.sol\":1684:1691  address */\n      0x00\n        /* \"@openzeppelin/contracts/access/Ownable.sol\":1710:1716  _owner */\n      dup1\n      0x00\n      swap1\n      sload\n      swap1\n      0x0100\n      exp\n      swap1\n      div\n      0xffffffffffffffffffffffffffffffffffffffff\n      and\n        /* \"@openzeppelin/contracts/access/Ownable.sol\":1703:1716  return _owner */\n      swap1\n      pop\n        /* \"@openzeppelin/contracts/access/Ownable.sol\":1638:1723  function owner() public view virtual returns (address) {... */\n      swap1\n      jump\t// out\n        /* \"03_kipu-bank-v2/contracts/KipuBankV2.sol\":12527:13610  function retirarUSDC(uint256 _amount) ... */\n    tag_82:\n        /* \"@openzeppelin/contracts/utils/ReentrancyGuard.sol\":2500:2521  _nonReentrantBefore() */\n      tag_196\n        /* \"@openzeppelin/contracts/utils/ReentrancyGuard.sol\":2500:2519  _nonReentrantBefore */\n      tag_132\n        /* \"@openzeppelin/contracts/utils/ReentrancyGuard.sol\":2500:2521  _nonReentrantBefore() */\n      jump\t// in\n    tag_196:\n        /* \"03_kipu-bank-v2/contracts/KipuBankV2.sol\":12630:12637  _amount */\n      dup1\n        /* \"03_kipu-bank-v2/contracts/KipuBankV2.sol\":7975:7976  0 */\n      0x00\n        /* \"03_kipu-bank-v2/contracts/KipuBankV2.sol\":7965:7971  _monto */\n      dup2\n        /* \"03_kipu-bank-v2/contracts/KipuBankV2.sol\":7965:7976  _monto == 0 */\n      sub\n        /* \"03_kipu-bank-v2/contracts/KipuBankV2.sol\":7961:8020  if (_monto == 0) revert KipuBankV2_MontoDebeSerMayorACero() */\n      tag_198\n      jumpi\n        /* \"03_kipu-bank-v2/contracts/KipuBankV2.sol\":7985:8020  KipuBankV2_MontoDebeSerMayorACero() */\n      mload(0x40)\n      0xe729dc6400000000000000000000000000000000000000000000000000000000\n      dup2\n      mstore\n      0x04\n      add\n      mload(0x40)\n      dup1\n      swap2\n      sub\n      swap1\n      revert\n        /* \"03_kipu-bank-v2/contracts/KipuBankV2.sol\":7961:8020  if (_monto == 0) revert KipuBankV2_MontoDebeSerMayorACero() */\n    tag_198:\n        /* \"03_kipu-bank-v2/contracts/KipuBankV2.sol\":12711:12728  i_umbralRetiroUSD */\n      immutable(\"0x2e9b7c94e032d8b3b8b30bd825717a5ac74958b53e7c37a892a4fd7dc56e4975\")\n        /* \"03_kipu-bank-v2/contracts/KipuBankV2.sol\":12701:12708  _amount */\n      dup3\n        /* \"03_kipu-bank-v2/contracts/KipuBankV2.sol\":12701:12728  _amount > i_umbralRetiroUSD */\n      gt\n        /* \"03_kipu-bank-v2/contracts/KipuBankV2.sol\":12697:12819  if (_amount > i_umbralRetiroUSD) {... */\n      iszero\n      tag_200\n      jumpi\n        /* \"03_kipu-bank-v2/contracts/KipuBankV2.sol\":12781:12788  _amount */\n      dup2\n        /* \"03_kipu-bank-v2/contracts/KipuBankV2.sol\":12790:12807  i_umbralRetiroUSD */\n      immutable(\"0x2e9b7c94e032d8b3b8b30bd825717a5ac74958b53e7c37a892a4fd7dc56e4975\")\n        /* \"03_kipu-bank-v2/contracts/KipuBankV2.sol\":12751:12808  KipuBankV2_RetiroExcedeUmbral(_amount, i_umbralRetiroUSD) */\n      mload(0x40)\n      0xd1ecfb7300000000000000000000000000000000000000000000000000000000\n      dup2\n      mstore\n      0x04\n      add\n      tag_201\n      swap3\n      swap2\n      swap1\n      tag_107\n      jump\t// in\n    tag_201:\n      mload(0x40)\n      dup1\n      swap2\n      sub\n      swap1\n      revert\n        /* \"03_kipu-bank-v2/contracts/KipuBankV2.sol\":12697:12819  if (_amount > i_umbralRetiroUSD) {... */\n    tag_200:\n        /* \"03_kipu-bank-v2/contracts/KipuBankV2.sol\":12919:12926  _amount */\n      dup2\n        /* \"03_kipu-bank-v2/contracts/KipuBankV2.sol\":12877:12887  s_balances */\n      0x03\n        /* \"03_kipu-bank-v2/contracts/KipuBankV2.sol\":12877:12899  s_balances[msg.sender] */\n      0x00\n        /* \"03_kipu-bank-v2/contracts/KipuBankV2.sol\":12888:12898  msg.sender */\n      caller\n        /* \"03_kipu-bank-v2/contracts/KipuBankV2.sol\":12877:12899  s_balances[msg.sender] */\n      0xffffffffffffffffffffffffffffffffffffffff\n      and\n      0xffffffffffffffffffffffffffffffffffffffff\n      and\n      dup2\n      mstore\n      0x20\n      add\n      swap1\n      dup2\n      mstore\n      0x20\n      add\n      0x00\n      keccak256\n        /* \"03_kipu-bank-v2/contracts/KipuBankV2.sol\":12877:12916  s_balances[msg.sender][address(i_usdc)] */\n      0x00\n        /* \"03_kipu-bank-v2/contracts/KipuBankV2.sol\":12908:12914  i_usdc */\n      immutable(\"0x6304e47846f882085b0f4b1a184252ae95ffe5e2a02daf39c014f492dcb1441c\")\n        /* \"03_kipu-bank-v2/contracts/KipuBankV2.sol\":12877:12916  s_balances[msg.sender][address(i_usdc)] */\n      0xffffffffffffffffffffffffffffffffffffffff\n      and\n      0xffffffffffffffffffffffffffffffffffffffff\n      and\n      dup2\n      mstore\n      0x20\n      add\n      swap1\n      dup2\n      mstore\n      0x20\n      add\n      0x00\n      keccak256\n      sload\n        /* \"03_kipu-bank-v2/contracts/KipuBankV2.sol\":12877:12926  s_balances[msg.sender][address(i_usdc)] < _amount */\n      lt\n        /* \"03_kipu-bank-v2/contracts/KipuBankV2.sol\":12873:13084  if (s_balances[msg.sender][address(i_usdc)] < _amount) {... */\n      iszero\n      tag_202\n      jumpi\n        /* \"03_kipu-bank-v2/contracts/KipuBankV2.sol\":12995:13005  s_balances */\n      0x03\n        /* \"03_kipu-bank-v2/contracts/KipuBankV2.sol\":12995:13017  s_balances[msg.sender] */\n      0x00\n        /* \"03_kipu-bank-v2/contracts/KipuBankV2.sol\":13006:13016  msg.sender */\n      caller\n        /* \"03_kipu-bank-v2/contracts/KipuBankV2.sol\":12995:13017  s_balances[msg.sender] */\n      0xffffffffffffffffffffffffffffffffffffffff\n      and\n      0xffffffffffffffffffffffffffffffffffffffff\n      and\n      dup2\n      mstore\n      0x20\n      add\n      swap1\n      dup2\n      mstore\n      0x20\n      add\n      0x00\n      keccak256\n        /* \"03_kipu-bank-v2/contracts/KipuBankV2.sol\":12995:13034  s_balances[msg.sender][address(i_usdc)] */\n      0x00\n        /* \"03_kipu-bank-v2/contracts/KipuBankV2.sol\":13026:13032  i_usdc */\n      immutable(\"0x6304e47846f882085b0f4b1a184252ae95ffe5e2a02daf39c014f492dcb1441c\")\n        /* \"03_kipu-bank-v2/contracts/KipuBankV2.sol\":12995:13034  s_balances[msg.sender][address(i_usdc)] */\n      0xffffffffffffffffffffffffffffffffffffffff\n      and\n      0xffffffffffffffffffffffffffffffffffffffff\n      and\n      dup2\n      mstore\n      0x20\n      add\n      swap1\n      dup2\n      mstore\n      0x20\n      add\n      0x00\n      keccak256\n      sload\n        /* \"03_kipu-bank-v2/contracts/KipuBankV2.sol\":13052:13059  _amount */\n      dup3\n        /* \"03_kipu-bank-v2/contracts/KipuBankV2.sol\":12949:13073  KipuBankV2_SaldoInsuficiente(... */\n      mload(0x40)\n      0x3b28636500000000000000000000000000000000000000000000000000000000\n      dup2\n      mstore\n      0x04\n      add\n      tag_203\n      swap3\n      swap2\n      swap1\n      tag_107\n      jump\t// in\n    tag_203:\n      mload(0x40)\n      dup1\n      swap2\n      sub\n      swap1\n      revert\n        /* \"03_kipu-bank-v2/contracts/KipuBankV2.sol\":12873:13084  if (s_balances[msg.sender][address(i_usdc)] < _amount) {... */\n    tag_202:\n        /* \"03_kipu-bank-v2/contracts/KipuBankV2.sol\":13183:13190  _amount */\n      dup2\n        /* \"03_kipu-bank-v2/contracts/KipuBankV2.sol\":13140:13150  s_balances */\n      0x03\n        /* \"03_kipu-bank-v2/contracts/KipuBankV2.sol\":13140:13162  s_balances[msg.sender] */\n      0x00\n        /* \"03_kipu-bank-v2/contracts/KipuBankV2.sol\":13151:13161  msg.sender */\n      caller\n        /* \"03_kipu-bank-v2/contracts/KipuBankV2.sol\":13140:13162  s_balances[msg.sender] */\n      0xffffffffffffffffffffffffffffffffffffffff\n      and\n      0xffffffffffffffffffffffffffffffffffffffff\n      and\n      dup2\n      mstore\n      0x20\n      add\n      swap1\n      dup2\n      mstore\n      0x20\n      add\n      0x00\n      keccak256\n        /* \"03_kipu-bank-v2/contracts/KipuBankV2.sol\":13140:13179  s_balances[msg.sender][address(i_usdc)] */\n      0x00\n        /* \"03_kipu-bank-v2/contracts/KipuBankV2.sol\":13171:13177  i_usdc */\n      immutable(\"0x6304e47846f882085b0f4b1a184252ae95ffe5e2a02daf39c014f492dcb1441c\")\n        /* \"03_kipu-bank-v2/contracts/KipuBankV2.sol\":13140:13179  s_balances[msg.sender][address(i_usdc)] */\n      0xffffffffffffffffffffffffffffffffffffffff\n      and\n      0xffffffffffffffffffffffffffffffffffffffff\n      and\n      dup2\n      mstore\n      0x20\n      add\n      swap1\n      dup2\n      mstore\n      0x20\n      add\n      0x00\n      keccak256\n      0x00\n        /* \"03_kipu-bank-v2/contracts/KipuBankV2.sol\":13140:13190  s_balances[msg.sender][address(i_usdc)] -= _amount */\n      dup3\n      dup3\n      sload\n      tag_204\n      swap2\n      swap1\n      tag_186\n      jump\t// in\n    tag_204:\n      swap3\n      pop\n      pop\n      dup2\n      swap1\n      sstore\n      pop\n        /* \"03_kipu-bank-v2/contracts/KipuBankV2.sol\":13246:13253  _amount */\n      dup2\n        /* \"03_kipu-bank-v2/contracts/KipuBankV2.sol\":13200:13225  s_totalDepositadoPorToken */\n      0x04\n        /* \"03_kipu-bank-v2/contracts/KipuBankV2.sol\":13200:13242  s_totalDepositadoPorToken[address(i_usdc)] */\n      0x00\n        /* \"03_kipu-bank-v2/contracts/KipuBankV2.sol\":13234:13240  i_usdc */\n      immutable(\"0x6304e47846f882085b0f4b1a184252ae95ffe5e2a02daf39c014f492dcb1441c\")\n        /* \"03_kipu-bank-v2/contracts/KipuBankV2.sol\":13200:13242  s_totalDepositadoPorToken[address(i_usdc)] */\n      0xffffffffffffffffffffffffffffffffffffffff\n      and\n      0xffffffffffffffffffffffffffffffffffffffff\n      and\n      dup2\n      mstore\n      0x20\n      add\n      swap1\n      dup2\n      mstore\n      0x20\n      add\n      0x00\n      keccak256\n      0x00\n        /* \"03_kipu-bank-v2/contracts/KipuBankV2.sol\":13200:13253  s_totalDepositadoPorToken[address(i_usdc)] -= _amount */\n      dup3\n      dup3\n      sload\n      tag_205\n      swap2\n      swap1\n      tag_186\n      jump\t// in\n    tag_205:\n      swap3\n      pop\n      pop\n      dup2\n      swap1\n      sstore\n      pop\n        /* \"03_kipu-bank-v2/contracts/KipuBankV2.sol\":13287:13294  _amount */\n      dup2\n        /* \"03_kipu-bank-v2/contracts/KipuBankV2.sol\":13263:13283  s_totalDepositadoUSD */\n      0x05\n      0x00\n        /* \"03_kipu-bank-v2/contracts/KipuBankV2.sol\":13263:13294  s_totalDepositadoUSD -= _amount */\n      dup3\n      dup3\n      sload\n      tag_206\n      swap2\n      swap1\n      tag_186\n      jump\t// in\n    tag_206:\n      swap3\n      pop\n      pop\n      dup2\n      swap1\n      sstore\n      pop\n        /* \"03_kipu-bank-v2/contracts/KipuBankV2.sol\":13304:13321  s_contadorRetiros */\n      0x07\n      0x00\n        /* \"03_kipu-bank-v2/contracts/KipuBankV2.sol\":13304:13323  s_contadorRetiros++ */\n      dup2\n      sload\n      dup1\n      swap3\n      swap2\n      swap1\n      tag_207\n      swap1\n      tag_146\n      jump\t// in\n    tag_207:\n      swap2\n      swap1\n      pop\n      sstore\n      pop\n        /* \"03_kipu-bank-v2/contracts/KipuBankV2.sol\":13476:13482  i_usdc */\n      immutable(\"0x6304e47846f882085b0f4b1a184252ae95ffe5e2a02daf39c014f492dcb1441c\")\n        /* \"03_kipu-bank-v2/contracts/KipuBankV2.sol\":13404:13535  KipuBankV2_RetiroRealizado(... */\n      0xffffffffffffffffffffffffffffffffffffffff\n      and\n        /* \"03_kipu-bank-v2/contracts/KipuBankV2.sol\":13444:13454  msg.sender */\n      caller\n        /* \"03_kipu-bank-v2/contracts/KipuBankV2.sol\":13404:13535  KipuBankV2_RetiroRealizado(... */\n      0xffffffffffffffffffffffffffffffffffffffff\n      and\n      0xc6acb54bdd58af37c8d1b8bf2f1a561163c5191551bbd6e74cce66ff7b670c77\n        /* \"03_kipu-bank-v2/contracts/KipuBankV2.sol\":13497:13504  _amount */\n      dup5\n        /* \"03_kipu-bank-v2/contracts/KipuBankV2.sol\":13518:13525  _amount */\n      dup6\n        /* \"03_kipu-bank-v2/contracts/KipuBankV2.sol\":13404:13535  KipuBankV2_RetiroRealizado(... */\n      mload(0x40)\n      tag_208\n      swap3\n      swap2\n      swap1\n      tag_107\n      jump\t// in\n    tag_208:\n      mload(0x40)\n      dup1\n      swap2\n      sub\n      swap1\n      log3\n        /* \"03_kipu-bank-v2/contracts/KipuBankV2.sol\":13546:13603  IERC20(address(i_usdc)).safeTransfer(msg.sender, _amount) */\n      tag_209\n        /* \"03_kipu-bank-v2/contracts/KipuBankV2.sol\":13583:13593  msg.sender */\n      caller\n        /* \"03_kipu-bank-v2/contracts/KipuBankV2.sol\":13595:13602  _amount */\n      dup4\n        /* \"03_kipu-bank-v2/contracts/KipuBankV2.sol\":13561:13567  i_usdc */\n      immutable(\"0x6304e47846f882085b0f4b1a184252ae95ffe5e2a02daf39c014f492dcb1441c\")\n        /* \"03_kipu-bank-v2/contracts/KipuBankV2.sol\":13546:13582  IERC20(address(i_usdc)).safeTransfer */\n      0xffffffffffffffffffffffffffffffffffffffff\n      and\n      tag_210\n      swap1\n        /* \"03_kipu-bank-v2/contracts/KipuBankV2.sol\":13546:13603  IERC20(address(i_usdc)).safeTransfer(msg.sender, _amount) */\n      swap3\n      swap2\n      swap1\n      0xffffffff\n      and\n      jump\t// in\n    tag_209:\n        /* \"@openzeppelin/contracts/utils/ReentrancyGuard.sol\":2531:2532  _ */\n      pop\n        /* \"@openzeppelin/contracts/utils/ReentrancyGuard.sol\":2542:2562  _nonReentrantAfter() */\n      tag_211\n        /* \"@openzeppelin/contracts/utils/ReentrancyGuard.sol\":2542:2560  _nonReentrantAfter */\n      tag_149\n        /* \"@openzeppelin/contracts/utils/ReentrancyGuard.sol\":2542:2562  _nonReentrantAfter() */\n      jump\t// in\n    tag_211:\n        /* \"03_kipu-bank-v2/contracts/KipuBankV2.sol\":12527:13610  function retirarUSDC(uint256 _amount) ... */\n      pop\n      jump\t// out\n        /* \"03_kipu-bank-v2/contracts/KipuBankV2.sol\":18002:18715  function consultarEstadoBanco() ... */\n    tag_85:\n        /* \"03_kipu-bank-v2/contracts/KipuBankV2.sol\":18097:18124  uint256 totalDepositadoUSD_ */\n      0x00\n        /* \"03_kipu-bank-v2/contracts/KipuBankV2.sol\":18138:18155  uint256 totalETH_ */\n      dup1\n        /* \"03_kipu-bank-v2/contracts/KipuBankV2.sol\":18169:18187  uint256 totalUSDC_ */\n      0x00\n        /* \"03_kipu-bank-v2/contracts/KipuBankV2.sol\":18201:18227  uint256 contadorDepositos_ */\n      dup1\n        /* \"03_kipu-bank-v2/contracts/KipuBankV2.sol\":18241:18265  uint256 contadorRetiros_ */\n      0x00\n        /* \"03_kipu-bank-v2/contracts/KipuBankV2.sol\":18279:18298  uint256 bankCapUSD_ */\n      dup1\n        /* \"03_kipu-bank-v2/contracts/KipuBankV2.sol\":18312:18336  uint256 umbralRetiroUSD_ */\n      0x00\n        /* \"03_kipu-bank-v2/contracts/KipuBankV2.sol\":18384:18404  s_totalDepositadoUSD */\n      sload(0x05)\n        /* \"03_kipu-bank-v2/contracts/KipuBankV2.sol\":18362:18404  totalDepositadoUSD_ = s_totalDepositadoUSD */\n      swap7\n      pop\n        /* \"03_kipu-bank-v2/contracts/KipuBankV2.sol\":18426:18451  s_totalDepositadoPorToken */\n      0x04\n        /* \"03_kipu-bank-v2/contracts/KipuBankV2.sol\":18426:18465  s_totalDepositadoPorToken[NATIVE_TOKEN] */\n      0x00\n        /* \"03_kipu-bank-v2/contracts/KipuBankV2.sol\":1612:1613  0 */\n      dup1\n        /* \"03_kipu-bank-v2/contracts/KipuBankV2.sol\":18426:18465  s_totalDepositadoPorToken[NATIVE_TOKEN] */\n      0xffffffffffffffffffffffffffffffffffffffff\n      and\n      0xffffffffffffffffffffffffffffffffffffffff\n      and\n      dup2\n      mstore\n      0x20\n      add\n      swap1\n      dup2\n      mstore\n      0x20\n      add\n      0x00\n      keccak256\n      sload\n        /* \"03_kipu-bank-v2/contracts/KipuBankV2.sol\":18414:18465  totalETH_ = s_totalDepositadoPorToken[NATIVE_TOKEN] */\n      swap6\n      pop\n        /* \"03_kipu-bank-v2/contracts/KipuBankV2.sol\":18488:18513  s_totalDepositadoPorToken */\n      0x04\n        /* \"03_kipu-bank-v2/contracts/KipuBankV2.sol\":18488:18530  s_totalDepositadoPorToken[address(i_usdc)] */\n      0x00\n        /* \"03_kipu-bank-v2/contracts/KipuBankV2.sol\":18522:18528  i_usdc */\n      immutable(\"0x6304e47846f882085b0f4b1a184252ae95ffe5e2a02daf39c014f492dcb1441c\")\n        /* \"03_kipu-bank-v2/contracts/KipuBankV2.sol\":18488:18530  s_totalDepositadoPorToken[address(i_usdc)] */\n      0xffffffffffffffffffffffffffffffffffffffff\n      and\n      0xffffffffffffffffffffffffffffffffffffffff\n      and\n      dup2\n      mstore\n      0x20\n      add\n      swap1\n      dup2\n      mstore\n      0x20\n      add\n      0x00\n      keccak256\n      sload\n        /* \"03_kipu-bank-v2/contracts/KipuBankV2.sol\":18475:18530  totalUSDC_ = s_totalDepositadoPorToken[address(i_usdc)] */\n      swap5\n      pop\n        /* \"03_kipu-bank-v2/contracts/KipuBankV2.sol\":18561:18580  s_contadorDepositos */\n      sload(0x06)\n        /* \"03_kipu-bank-v2/contracts/KipuBankV2.sol\":18540:18580  contadorDepositos_ = s_contadorDepositos */\n      swap4\n      pop\n        /* \"03_kipu-bank-v2/contracts/KipuBankV2.sol\":18609:18626  s_contadorRetiros */\n      sload(0x07)\n        /* \"03_kipu-bank-v2/contracts/KipuBankV2.sol\":18590:18626  contadorRetiros_ = s_contadorRetiros */\n      swap3\n      pop\n        /* \"03_kipu-bank-v2/contracts/KipuBankV2.sol\":18650:18662  i_bankCapUSD */\n      immutable(\"0x6bcaf047ba4c8ac400fca43393035242dd1aabda2d6068a0c51242b97224de8d\")\n        /* \"03_kipu-bank-v2/contracts/KipuBankV2.sol\":18636:18662  bankCapUSD_ = i_bankCapUSD */\n      swap2\n      pop\n        /* \"03_kipu-bank-v2/contracts/KipuBankV2.sol\":18691:18708  i_umbralRetiroUSD */\n      immutable(\"0x2e9b7c94e032d8b3b8b30bd825717a5ac74958b53e7c37a892a4fd7dc56e4975\")\n        /* \"03_kipu-bank-v2/contracts/KipuBankV2.sol\":18672:18708  umbralRetiroUSD_ = i_umbralRetiroUSD */\n      swap1\n      pop\n        /* \"03_kipu-bank-v2/contracts/KipuBankV2.sol\":18002:18715  function consultarEstadoBanco() ... */\n      swap1\n      swap2\n      swap3\n      swap4\n      swap5\n      swap6\n      swap7\n      jump\t// out\n        /* \"03_kipu-bank-v2/contracts/KipuBankV2.sol\":2433:2474  AggregatorV3Interface public s_ethUsdFeed */\n    tag_90:\n      0x02\n      0x00\n      swap1\n      sload\n      swap1\n      0x0100\n      exp\n      swap1\n      div\n      0xffffffffffffffffffffffffffffffffffffffff\n      and\n      dup2\n      jump\t// out\n        /* \"03_kipu-bank-v2/contracts/KipuBankV2.sol\":16762:16951  function consultarBalance(address _usuario, address _token) ... */\n    tag_97:\n        /* \"03_kipu-bank-v2/contracts/KipuBankV2.sol\":16872:16888  uint256 balance_ */\n      0x00\n        /* \"03_kipu-bank-v2/contracts/KipuBankV2.sol\":16916:16926  s_balances */\n      0x03\n        /* \"03_kipu-bank-v2/contracts/KipuBankV2.sol\":16916:16936  s_balances[_usuario] */\n      0x00\n        /* \"03_kipu-bank-v2/contracts/KipuBankV2.sol\":16927:16935  _usuario */\n      dup5\n        /* \"03_kipu-bank-v2/contracts/KipuBankV2.sol\":16916:16936  s_balances[_usuario] */\n      0xffffffffffffffffffffffffffffffffffffffff\n      and\n      0xffffffffffffffffffffffffffffffffffffffff\n      and\n      dup2\n      mstore\n      0x20\n      add\n      swap1\n      dup2\n      mstore\n      0x20\n      add\n      0x00\n      keccak256\n        /* \"03_kipu-bank-v2/contracts/KipuBankV2.sol\":16916:16944  s_balances[_usuario][_token] */\n      0x00\n        /* \"03_kipu-bank-v2/contracts/KipuBankV2.sol\":16937:16943  _token */\n      dup4\n        /* \"03_kipu-bank-v2/contracts/KipuBankV2.sol\":16916:16944  s_balances[_usuario][_token] */\n      0xffffffffffffffffffffffffffffffffffffffff\n      and\n      0xffffffffffffffffffffffffffffffffffffffff\n      and\n      dup2\n      mstore\n      0x20\n      add\n      swap1\n      dup2\n      mstore\n      0x20\n      add\n      0x00\n      keccak256\n      sload\n        /* \"03_kipu-bank-v2/contracts/KipuBankV2.sol\":16905:16944  balance_ = s_balances[_usuario][_token] */\n      swap1\n      pop\n        /* \"03_kipu-bank-v2/contracts/KipuBankV2.sol\":16762:16951  function consultarBalance(address _usuario, address _token) ... */\n      swap3\n      swap2\n      pop\n      pop\n      jump\t// out\n        /* \"03_kipu-bank-v2/contracts/KipuBankV2.sol\":13949:14124  function actualizarFeed(address _newFeed) external onlyOwner {... */\n    tag_102:\n        /* \"@openzeppelin/contracts/access/Ownable.sol\":1531:1544  _checkOwner() */\n      tag_215\n        /* \"@openzeppelin/contracts/access/Ownable.sol\":1531:1542  _checkOwner */\n      tag_171\n        /* \"@openzeppelin/contracts/access/Ownable.sol\":1531:1544  _checkOwner() */\n      jump\t// in\n    tag_215:\n        /* \"03_kipu-bank-v2/contracts/KipuBankV2.sol\":14057:14065  _newFeed */\n      dup1\n        /* \"03_kipu-bank-v2/contracts/KipuBankV2.sol\":14020:14032  s_ethUsdFeed */\n      0x02\n      0x00\n        /* \"03_kipu-bank-v2/contracts/KipuBankV2.sol\":14020:14066  s_ethUsdFeed = AggregatorV3Interface(_newFeed) */\n      0x0100\n      exp\n      dup2\n      sload\n      dup2\n      0xffffffffffffffffffffffffffffffffffffffff\n      mul\n      not\n      and\n      swap1\n      dup4\n      0xffffffffffffffffffffffffffffffffffffffff\n      and\n      mul\n      or\n      swap1\n      sstore\n      pop\n        /* \"03_kipu-bank-v2/contracts/KipuBankV2.sol\":14108:14116  _newFeed */\n      dup1\n        /* \"03_kipu-bank-v2/contracts/KipuBankV2.sol\":14081:14117  KipuBankV2_FeedActualizado(_newFeed) */\n      0xffffffffffffffffffffffffffffffffffffffff\n      and\n      0x2b87a7a05493a7865dadc5afbb6cedfda3c32f20196d8f45314afa7b32b94012\n      mload(0x40)\n      mload(0x40)\n      dup1\n      swap2\n      sub\n      swap1\n      log2\n        /* \"03_kipu-bank-v2/contracts/KipuBankV2.sol\":13949:14124  function actualizarFeed(address _newFeed) external onlyOwner {... */\n      pop\n      jump\t// out\n        /* \"03_kipu-bank-v2/contracts/KipuBankV2.sol\":19102:19557  function consultarPrecioETH() ... */\n    tag_105:\n        /* \"03_kipu-bank-v2/contracts/KipuBankV2.sol\":19182:19200  uint256 precioETH_ */\n      0x00\n        /* \"03_kipu-bank-v2/contracts/KipuBankV2.sol\":19202:19230  uint256 ultimaActualizacion_ */\n      dup1\n        /* \"03_kipu-bank-v2/contracts/KipuBankV2.sol\":19295:19308  int256 answer */\n      0x00\n        /* \"03_kipu-bank-v2/contracts/KipuBankV2.sol\":19359:19376  uint256 updatedAt */\n      dup1\n        /* \"03_kipu-bank-v2/contracts/KipuBankV2.sol\":19431:19443  s_ethUsdFeed */\n      0x02\n      0x00\n      swap1\n      sload\n      swap1\n      0x0100\n      exp\n      swap1\n      div\n      0xffffffffffffffffffffffffffffffffffffffff\n      and\n        /* \"03_kipu-bank-v2/contracts/KipuBankV2.sol\":19431:19459  s_ethUsdFeed.latestRoundData */\n      0xffffffffffffffffffffffffffffffffffffffff\n      and\n      0xfeaf968c\n        /* \"03_kipu-bank-v2/contracts/KipuBankV2.sol\":19431:19461  s_ethUsdFeed.latestRoundData() */\n      mload(0x40)\n      dup2\n      0xffffffff\n      and\n      0xe0\n      shl\n      dup2\n      mstore\n      0x04\n      add\n      0xa0\n      mload(0x40)\n      dup1\n      dup4\n      sub\n      dup2\n      dup7\n      gas\n      staticcall\n      iszero\n      dup1\n      iszero\n      tag_219\n      jumpi\n      returndatasize\n      0x00\n      dup1\n      returndatacopy\n      revert(0x00, returndatasize)\n    tag_219:\n      pop\n      pop\n      pop\n      pop\n      mload(0x40)\n      returndatasize\n      not(0x1f)\n      0x1f\n      dup3\n      add\n      and\n      dup3\n      add\n      dup1\n      0x40\n      mstore\n      pop\n      dup2\n      add\n      swap1\n      tag_220\n      swap2\n      swap1\n      tag_221\n      jump\t// in\n    tag_220:\n        /* \"03_kipu-bank-v2/contracts/KipuBankV2.sol\":19247:19461  (... */\n      pop\n      swap4\n      pop\n      pop\n      swap3\n      pop\n      pop\n        /* \"03_kipu-bank-v2/contracts/KipuBankV2.sol\":19501:19507  answer */\n      dup2\n        /* \"03_kipu-bank-v2/contracts/KipuBankV2.sol\":19480:19508  precioETH_ = uint256(answer) */\n      swap4\n      pop\n        /* \"03_kipu-bank-v2/contracts/KipuBankV2.sol\":19541:19550  updatedAt */\n      dup1\n        /* \"03_kipu-bank-v2/contracts/KipuBankV2.sol\":19518:19550  ultimaActualizacion_ = updatedAt */\n      swap3\n      pop\n        /* \"03_kipu-bank-v2/contracts/KipuBankV2.sol\":19237:19557  {... */\n      pop\n      pop\n        /* \"03_kipu-bank-v2/contracts/KipuBankV2.sol\":19102:19557  function consultarPrecioETH() ... */\n      swap1\n      swap2\n      jump\t// out\n        /* \"03_kipu-bank-v2/contracts/KipuBankV2.sol\":3063:3095  uint256 public s_contadorRetiros */\n    tag_110:\n      sload(0x07)\n      dup2\n      jump\t// out\n        /* \"03_kipu-bank-v2/contracts/KipuBankV2.sol\":2553:2640  mapping(address user => mapping(address token => uint256 balanceUSD)) public s_balances */\n    tag_115:\n      mstore(0x20, 0x03)\n      dup2\n      0x00\n      mstore\n      mstore(0x20, keccak256(0x00, 0x40))\n      dup1\n      0x00\n      mstore\n      keccak256(0x00, 0x40)\n      0x00\n      swap2\n      pop\n      swap2\n      pop\n      pop\n      sload\n      dup2\n      jump\t// out\n        /* \"03_kipu-bank-v2/contracts/KipuBankV2.sol\":2861:2896  uint256 public s_totalDepositadoUSD */\n    tag_119:\n      sload(0x05)\n      dup2\n      jump\t// out\n        /* \"@openzeppelin/contracts/access/Ownable.sol\":2543:2758  function transferOwnership(address newOwner) public virtual onlyOwner {... */\n    tag_124:\n        /* \"@openzeppelin/contracts/access/Ownable.sol\":1531:1544  _checkOwner() */\n      tag_223\n        /* \"@openzeppelin/contracts/access/Ownable.sol\":1531:1542  _checkOwner */\n      tag_171\n        /* \"@openzeppelin/contracts/access/Ownable.sol\":1531:1544  _checkOwner() */\n      jump\t// in\n    tag_223:\n        /* \"@openzeppelin/contracts/access/Ownable.sol\":2647:2648  0 */\n      0x00\n        /* \"@openzeppelin/contracts/access/Ownable.sol\":2627:2649  newOwner == address(0) */\n      0xffffffffffffffffffffffffffffffffffffffff\n      and\n        /* \"@openzeppelin/contracts/access/Ownable.sol\":2627:2635  newOwner */\n      dup2\n        /* \"@openzeppelin/contracts/access/Ownable.sol\":2627:2649  newOwner == address(0) */\n      0xffffffffffffffffffffffffffffffffffffffff\n      and\n      sub\n        /* \"@openzeppelin/contracts/access/Ownable.sol\":2623:2714  if (newOwner == address(0)) {... */\n      tag_225\n      jumpi\n        /* \"@openzeppelin/contracts/access/Ownable.sol\":2700:2701  0 */\n      0x00\n        /* \"@openzeppelin/contracts/access/Ownable.sol\":2672:2703  OwnableInvalidOwner(address(0)) */\n      mload(0x40)\n      0x1e4fbdf700000000000000000000000000000000000000000000000000000000\n      dup2\n      mstore\n      0x04\n      add\n      tag_226\n      swap2\n      swap1\n      tag_53\n      jump\t// in\n    tag_226:\n      mload(0x40)\n      dup1\n      swap2\n      sub\n      swap1\n      revert\n        /* \"@openzeppelin/contracts/access/Ownable.sol\":2623:2714  if (newOwner == address(0)) {... */\n    tag_225:\n        /* \"@openzeppelin/contracts/access/Ownable.sol\":2723:2751  _transferOwnership(newOwner) */\n      tag_227\n        /* \"@openzeppelin/contracts/access/Ownable.sol\":2742:2750  newOwner */\n      dup2\n        /* \"@openzeppelin/contracts/access/Ownable.sol\":2723:2741  _transferOwnership */\n      tag_174\n        /* \"@openzeppelin/contracts/access/Ownable.sol\":2723:2751  _transferOwnership(newOwner) */\n      jump\t// in\n    tag_227:\n        /* \"@openzeppelin/contracts/access/Ownable.sol\":2543:2758  function transferOwnership(address newOwner) public virtual onlyOwner {... */\n      pop\n      jump\t// out\n        /* \"03_kipu-bank-v2/contracts/KipuBankV2.sol\":2233:2263  IERC20 public immutable i_usdc */\n    tag_127:\n      immutable(\"0x6304e47846f882085b0f4b1a184252ae95ffe5e2a02daf39c014f492dcb1441c\")\n      dup2\n      jump\t// out\n        /* \"@openzeppelin/contracts/utils/ReentrancyGuard.sol\":2575:2882  function _nonReentrantBefore() private {... */\n    tag_132:\n        /* \"@openzeppelin/contracts/utils/ReentrancyGuard.sol\":1899:1900  2 */\n      0x02\n        /* \"@openzeppelin/contracts/utils/ReentrancyGuard.sol\":2702:2709  _status */\n      sload(0x01)\n        /* \"@openzeppelin/contracts/utils/ReentrancyGuard.sol\":2702:2720  _status == ENTERED */\n      sub\n        /* \"@openzeppelin/contracts/utils/ReentrancyGuard.sol\":2698:2784  if (_status == ENTERED) {... */\n      tag_229\n      jumpi\n        /* \"@openzeppelin/contracts/utils/ReentrancyGuard.sol\":2743:2773  ReentrancyGuardReentrantCall() */\n      mload(0x40)\n      0x3ee5aeb500000000000000000000000000000000000000000000000000000000\n      dup2\n      mstore\n      0x04\n      add\n      mload(0x40)\n      dup1\n      swap2\n      sub\n      swap1\n      revert\n        /* \"@openzeppelin/contracts/utils/ReentrancyGuard.sol\":2698:2784  if (_status == ENTERED) {... */\n    tag_229:\n        /* \"@openzeppelin/contracts/utils/ReentrancyGuard.sol\":1899:1900  2 */\n      0x02\n        /* \"@openzeppelin/contracts/utils/ReentrancyGuard.sol\":2858:2865  _status */\n      0x01\n        /* \"@openzeppelin/contracts/utils/ReentrancyGuard.sol\":2858:2875  _status = ENTERED */\n      dup2\n      swap1\n      sstore\n      pop\n        /* \"@openzeppelin/contracts/utils/ReentrancyGuard.sol\":2575:2882  function _nonReentrantBefore() private {... */\n      jump\t// out\n        /* \"03_kipu-bank-v2/contracts/KipuBankV2.sol\":14470:14713  function _convertirEthAUsd(uint256 _ethAmount) internal view returns (uint256 valorUSD_) {... */\n    tag_136:\n        /* \"03_kipu-bank-v2/contracts/KipuBankV2.sol\":14540:14557  uint256 valorUSD_ */\n      0x00\n        /* \"03_kipu-bank-v2/contracts/KipuBankV2.sol\":14569:14586  uint256 precioEth */\n      dup1\n        /* \"03_kipu-bank-v2/contracts/KipuBankV2.sol\":14589:14608  _obtenerPrecioEth() */\n      tag_231\n        /* \"03_kipu-bank-v2/contracts/KipuBankV2.sol\":14589:14606  _obtenerPrecioEth */\n      tag_232\n        /* \"03_kipu-bank-v2/contracts/KipuBankV2.sol\":14589:14608  _obtenerPrecioEth() */\n      jump\t// in\n    tag_231:\n        /* \"03_kipu-bank-v2/contracts/KipuBankV2.sol\":14569:14608  uint256 precioEth = _obtenerPrecioEth() */\n      swap1\n      pop\n        /* \"03_kipu-bank-v2/contracts/KipuBankV2.sol\":14702:14706  1e20 */\n      0x056bc75e2d63100000\n        /* \"03_kipu-bank-v2/contracts/KipuBankV2.sol\":14689:14698  precioEth */\n      dup2\n        /* \"03_kipu-bank-v2/contracts/KipuBankV2.sol\":14676:14686  _ethAmount */\n      dup5\n        /* \"03_kipu-bank-v2/contracts/KipuBankV2.sol\":14676:14698  _ethAmount * precioEth */\n      tag_233\n      swap2\n      swap1\n      tag_234\n      jump\t// in\n    tag_233:\n        /* \"03_kipu-bank-v2/contracts/KipuBankV2.sol\":14675:14706  (_ethAmount * precioEth) / 1e20 */\n      tag_235\n      swap2\n      swap1\n      tag_236\n      jump\t// in\n    tag_235:\n        /* \"03_kipu-bank-v2/contracts/KipuBankV2.sol\":14663:14706  valorUSD_ = (_ethAmount * precioEth) / 1e20 */\n      swap2\n      pop\n        /* \"03_kipu-bank-v2/contracts/KipuBankV2.sol\":14559:14713  {... */\n      pop\n        /* \"03_kipu-bank-v2/contracts/KipuBankV2.sol\":14470:14713  function _convertirEthAUsd(uint256 _ethAmount) internal view returns (uint256 valorUSD_) {... */\n      swap2\n      swap1\n      pop\n      jump\t// out\n        /* \"@openzeppelin/contracts/utils/ReentrancyGuard.sol\":2888:3096  function _nonReentrantAfter() private {... */\n    tag_149:\n        /* \"@openzeppelin/contracts/utils/ReentrancyGuard.sol\":1857:1858  1 */\n      0x01\n        /* \"@openzeppelin/contracts/utils/ReentrancyGuard.sol\":3068:3075  _status */\n      dup1\n        /* \"@openzeppelin/contracts/utils/ReentrancyGuard.sol\":3068:3089  _status = NOT_ENTERED */\n      dup2\n      swap1\n      sstore\n      pop\n        /* \"@openzeppelin/contracts/utils/ReentrancyGuard.sol\":2888:3096  function _nonReentrantAfter() private {... */\n      jump\t// out\n        /* \"@openzeppelin/contracts/token/ERC20/utils/SafeERC20.sol\":1618:1806  function safeTransferFrom(IERC20 token, address from, address to, uint256 value) internal {... */\n    tag_167:\n        /* \"@openzeppelin/contracts/token/ERC20/utils/SafeERC20.sol\":1718:1799  _callOptionalReturn(token, abi.encodeCall(token.transferFrom, (from, to, value))) */\n      tag_239\n        /* \"@openzeppelin/contracts/token/ERC20/utils/SafeERC20.sol\":1738:1743  token */\n      dup5\n        /* \"@openzeppelin/contracts/token/ERC20/utils/SafeERC20.sol\":1760:1765  token */\n      dup6\n        /* \"@openzeppelin/contracts/token/ERC20/utils/SafeERC20.sol\":1760:1778  token.transferFrom */\n      0xffffffffffffffffffffffffffffffffffffffff\n      and\n      0x23b872dd\n        /* \"@openzeppelin/contracts/token/ERC20/utils/SafeERC20.sol\":1781:1785  from */\n      dup7\n        /* \"@openzeppelin/contracts/token/ERC20/utils/SafeERC20.sol\":1787:1789  to */\n      dup7\n        /* \"@openzeppelin/contracts/token/ERC20/utils/SafeERC20.sol\":1791:1796  value */\n      dup7\n        /* \"@openzeppelin/contracts/token/ERC20/utils/SafeERC20.sol\":1745:1798  abi.encodeCall(token.transferFrom, (from, to, value)) */\n      add(0x24, mload(0x40))\n      tag_240\n      swap4\n      swap3\n      swap2\n      swap1\n      tag_241\n      jump\t// in\n    tag_240:\n      mload(0x40)\n      0x20\n      dup2\n      dup4\n      sub\n      sub\n      dup2\n      mstore\n      swap1\n      0x40\n      mstore\n      swap2\n      pop\n      0xe0\n      shl\n      0x20\n      dup3\n      add\n      dup1\n      mload\n      0xffffffffffffffffffffffffffffffffffffffffffffffffffffffff\n      dup4\n      dup2\n      dup4\n      and\n      or\n      dup4\n      mstore\n      pop\n      pop\n      pop\n      pop\n        /* \"@openzeppelin/contracts/token/ERC20/utils/SafeERC20.sol\":1718:1737  _callOptionalReturn */\n      tag_242\n        /* \"@openzeppelin/contracts/token/ERC20/utils/SafeERC20.sol\":1718:1799  _callOptionalReturn(token, abi.encodeCall(token.transferFrom, (from, to, value))) */\n      jump\t// in\n    tag_239:\n        /* \"@openzeppelin/contracts/token/ERC20/utils/SafeERC20.sol\":1618:1806  function safeTransferFrom(IERC20 token, address from, address to, uint256 value) internal {... */\n      pop\n      pop\n      pop\n      pop\n      jump\t// out\n        /* \"@openzeppelin/contracts/access/Ownable.sol\":1796:1958  function _checkOwner() internal view virtual {... */\n    tag_171:\n        /* \"@openzeppelin/contracts/access/Ownable.sol\":1866:1878  _msgSender() */\n      tag_244\n        /* \"@openzeppelin/contracts/access/Ownable.sol\":1866:1876  _msgSender */\n      tag_245\n        /* \"@openzeppelin/contracts/access/Ownable.sol\":1866:1878  _msgSender() */\n      jump\t// in\n    tag_244:\n        /* \"@openzeppelin/contracts/access/Ownable.sol\":1855:1878  owner() != _msgSender() */\n      0xffffffffffffffffffffffffffffffffffffffff\n      and\n        /* \"@openzeppelin/contracts/access/Ownable.sol\":1855:1862  owner() */\n      tag_246\n        /* \"@openzeppelin/contracts/access/Ownable.sol\":1855:1860  owner */\n      tag_77\n        /* \"@openzeppelin/contracts/access/Ownable.sol\":1855:1862  owner() */\n      jump\t// in\n    tag_246:\n        /* \"@openzeppelin/contracts/access/Ownable.sol\":1855:1878  owner() != _msgSender() */\n      0xffffffffffffffffffffffffffffffffffffffff\n      and\n      eq\n        /* \"@openzeppelin/contracts/access/Ownable.sol\":1851:1952  if (owner() != _msgSender()) {... */\n      tag_247\n      jumpi\n        /* \"@openzeppelin/contracts/access/Ownable.sol\":1928:1940  _msgSender() */\n      tag_248\n        /* \"@openzeppelin/contracts/access/Ownable.sol\":1928:1938  _msgSender */\n      tag_245\n        /* \"@openzeppelin/contracts/access/Ownable.sol\":1928:1940  _msgSender() */\n      jump\t// in\n    tag_248:\n        /* \"@openzeppelin/contracts/access/Ownable.sol\":1901:1941  OwnableUnauthorizedAccount(_msgSender()) */\n      mload(0x40)\n      0x118cdaa700000000000000000000000000000000000000000000000000000000\n      dup2\n      mstore\n      0x04\n      add\n      tag_249\n      swap2\n      swap1\n      tag_53\n      jump\t// in\n    tag_249:\n      mload(0x40)\n      dup1\n      swap2\n      sub\n      swap1\n      revert\n        /* \"@openzeppelin/contracts/access/Ownable.sol\":1851:1952  if (owner() != _msgSender()) {... */\n    tag_247:\n        /* \"@openzeppelin/contracts/access/Ownable.sol\":1796:1958  function _checkOwner() internal view virtual {... */\n      jump\t// out\n        /* \"@openzeppelin/contracts/access/Ownable.sol\":2912:3099  function _transferOwnership(address newOwner) internal virtual {... */\n    tag_174:\n        /* \"@openzeppelin/contracts/access/Ownable.sol\":2985:3001  address oldOwner */\n      0x00\n        /* \"@openzeppelin/contracts/access/Ownable.sol\":3004:3010  _owner */\n      dup1\n      0x00\n      swap1\n      sload\n      swap1\n      0x0100\n      exp\n      swap1\n      div\n      0xffffffffffffffffffffffffffffffffffffffff\n      and\n        /* \"@openzeppelin/contracts/access/Ownable.sol\":2985:3010  address oldOwner = _owner */\n      swap1\n      pop\n        /* \"@openzeppelin/contracts/access/Ownable.sol\":3029:3037  newOwner */\n      dup2\n        /* \"@openzeppelin/contracts/access/Ownable.sol\":3020:3026  _owner */\n      0x00\n      dup1\n        /* \"@openzeppelin/contracts/access/Ownable.sol\":3020:3037  _owner = newOwner */\n      0x0100\n      exp\n      dup2\n      sload\n      dup2\n      0xffffffffffffffffffffffffffffffffffffffff\n      mul\n      not\n      and\n      swap1\n      dup4\n      0xffffffffffffffffffffffffffffffffffffffff\n      and\n      mul\n      or\n      swap1\n      sstore\n      pop\n        /* \"@openzeppelin/contracts/access/Ownable.sol\":3083:3091  newOwner */\n      dup2\n        /* \"@openzeppelin/contracts/access/Ownable.sol\":3052:3092  OwnershipTransferred(oldOwner, newOwner) */\n      0xffffffffffffffffffffffffffffffffffffffff\n      and\n        /* \"@openzeppelin/contracts/access/Ownable.sol\":3073:3081  oldOwner */\n      dup2\n        /* \"@openzeppelin/contracts/access/Ownable.sol\":3052:3092  OwnershipTransferred(oldOwner, newOwner) */\n      0xffffffffffffffffffffffffffffffffffffffff\n      and\n      0x8be0079c531659141344cd1fd0a4f28419497f9722a3daafe3b4186f6b6457e0\n      mload(0x40)\n      mload(0x40)\n      dup1\n      swap2\n      sub\n      swap1\n      log3\n        /* \"@openzeppelin/contracts/access/Ownable.sol\":2975:3099  {... */\n      pop\n        /* \"@openzeppelin/contracts/access/Ownable.sol\":2912:3099  function _transferOwnership(address newOwner) internal virtual {... */\n      pop\n      jump\t// out\n        /* \"03_kipu-bank-v2/contracts/KipuBankV2.sol\":16169:16390  function _transferirEth(address _destinatario, uint256 _monto) private {... */\n    tag_192:\n        /* \"03_kipu-bank-v2/contracts/KipuBankV2.sol\":16251:16263  bool success */\n      0x00\n        /* \"03_kipu-bank-v2/contracts/KipuBankV2.sol\":16269:16282  _destinatario */\n      dup3\n        /* \"03_kipu-bank-v2/contracts/KipuBankV2.sol\":16269:16287  _destinatario.call */\n      0xffffffffffffffffffffffffffffffffffffffff\n      and\n        /* \"03_kipu-bank-v2/contracts/KipuBankV2.sol\":16295:16301  _monto */\n      dup3\n        /* \"03_kipu-bank-v2/contracts/KipuBankV2.sol\":16269:16306  _destinatario.call{value: _monto}(\"\") */\n      mload(0x40)\n      tag_252\n      swap1\n      tag_253\n      jump\t// in\n    tag_252:\n      0x00\n      mload(0x40)\n      dup1\n      dup4\n      sub\n      dup2\n      dup6\n      dup8\n      gas\n      call\n      swap3\n      pop\n      pop\n      pop\n      returndatasize\n      dup1\n      0x00\n      dup2\n      eq\n      tag_256\n      jumpi\n      mload(0x40)\n      swap2\n      pop\n      and(add(returndatasize, 0x3f), not(0x1f))\n      dup3\n      add\n      0x40\n      mstore\n      returndatasize\n      dup3\n      mstore\n      returndatasize\n      0x00\n      0x20\n      dup5\n      add\n      returndatacopy\n      jump(tag_255)\n    tag_256:\n      0x60\n      swap2\n      pop\n    tag_255:\n      pop\n        /* \"03_kipu-bank-v2/contracts/KipuBankV2.sol\":16250:16306  (bool success, ) = _destinatario.call{value: _monto}(\"\") */\n      pop\n      swap1\n      pop\n        /* \"03_kipu-bank-v2/contracts/KipuBankV2.sol\":16321:16328  success */\n      dup1\n        /* \"03_kipu-bank-v2/contracts/KipuBankV2.sol\":16316:16383  if (!success) revert KipuBankV2_TransferenciaFallida(_destinatario) */\n      tag_257\n      jumpi\n        /* \"03_kipu-bank-v2/contracts/KipuBankV2.sol\":16369:16382  _destinatario */\n      dup3\n        /* \"03_kipu-bank-v2/contracts/KipuBankV2.sol\":16337:16383  KipuBankV2_TransferenciaFallida(_destinatario) */\n      mload(0x40)\n      0x71404a4200000000000000000000000000000000000000000000000000000000\n      dup2\n      mstore\n      0x04\n      add\n      tag_258\n      swap2\n      swap1\n      tag_53\n      jump\t// in\n    tag_258:\n      mload(0x40)\n      dup1\n      swap2\n      sub\n      swap1\n      revert\n        /* \"03_kipu-bank-v2/contracts/KipuBankV2.sol\":16316:16383  if (!success) revert KipuBankV2_TransferenciaFallida(_destinatario) */\n    tag_257:\n        /* \"03_kipu-bank-v2/contracts/KipuBankV2.sol\":16240:16390  {... */\n      pop\n        /* \"03_kipu-bank-v2/contracts/KipuBankV2.sol\":16169:16390  function _transferirEth(address _destinatario, uint256 _monto) private {... */\n      pop\n      pop\n      jump\t// out\n        /* \"@openzeppelin/contracts/token/ERC20/utils/SafeERC20.sol\":1219:1379  function safeTransfer(IERC20 token, address to, uint256 value) internal {... */\n    tag_210:\n        /* \"@openzeppelin/contracts/token/ERC20/utils/SafeERC20.sol\":1301:1372  _callOptionalReturn(token, abi.encodeCall(token.transfer, (to, value))) */\n      tag_260\n        /* \"@openzeppelin/contracts/token/ERC20/utils/SafeERC20.sol\":1321:1326  token */\n      dup4\n        /* \"@openzeppelin/contracts/token/ERC20/utils/SafeERC20.sol\":1343:1348  token */\n      dup5\n        /* \"@openzeppelin/contracts/token/ERC20/utils/SafeERC20.sol\":1343:1357  token.transfer */\n      0xffffffffffffffffffffffffffffffffffffffff\n      and\n      0xa9059cbb\n        /* \"@openzeppelin/contracts/token/ERC20/utils/SafeERC20.sol\":1360:1362  to */\n      dup6\n        /* \"@openzeppelin/contracts/token/ERC20/utils/SafeERC20.sol\":1364:1369  value */\n      dup6\n        /* \"@openzeppelin/contracts/token/ERC20/utils/SafeERC20.sol\":1328:1371  abi.encodeCall(token.transfer, (to, value)) */\n      add(0x24, mload(0x40))\n      tag_261\n      swap3\n      swap2\n      swap1\n      tag_262\n      jump\t// in\n    tag_261:\n      mload(0x40)\n      0x20\n      dup2\n      dup4\n      sub\n      sub\n      dup2\n      mstore\n      swap1\n      0x40\n      mstore\n      swap2\n      pop\n      0xe0\n      shl\n      0x20\n      dup3\n      add\n      dup1\n      mload\n      0xffffffffffffffffffffffffffffffffffffffffffffffffffffffff\n      dup4\n      dup2\n      dup4\n      and\n      or\n      dup4\n      mstore\n      pop\n      pop\n      pop\n      pop\n        /* \"@openzeppelin/contracts/token/ERC20/utils/SafeERC20.sol\":1301:1320  _callOptionalReturn */\n      tag_242\n        /* \"@openzeppelin/contracts/token/ERC20/utils/SafeERC20.sol\":1301:1372  _callOptionalReturn(token, abi.encodeCall(token.transfer, (to, value))) */\n      jump\t// in\n    tag_260:\n        /* \"@openzeppelin/contracts/token/ERC20/utils/SafeERC20.sol\":1219:1379  function safeTransfer(IERC20 token, address to, uint256 value) internal {... */\n      pop\n      pop\n      pop\n      jump\t// out\n        /* \"03_kipu-bank-v2/contracts/KipuBankV2.sol\":14920:15719  function _obtenerPrecioEth() internal view returns (uint256 precioEth_) {... */\n    tag_232:\n        /* \"03_kipu-bank-v2/contracts/KipuBankV2.sol\":14972:14990  uint256 precioEth_ */\n      0x00\n        /* \"03_kipu-bank-v2/contracts/KipuBankV2.sol\":15050:15063  int256 answer */\n      dup1\n        /* \"03_kipu-bank-v2/contracts/KipuBankV2.sol\":15114:15131  uint256 updatedAt */\n      0x00\n        /* \"03_kipu-bank-v2/contracts/KipuBankV2.sol\":15186:15198  s_ethUsdFeed */\n      0x02\n      0x00\n      swap1\n      sload\n      swap1\n      0x0100\n      exp\n      swap1\n      div\n      0xffffffffffffffffffffffffffffffffffffffff\n      and\n        /* \"03_kipu-bank-v2/contracts/KipuBankV2.sol\":15186:15214  s_ethUsdFeed.latestRoundData */\n      0xffffffffffffffffffffffffffffffffffffffff\n      and\n      0xfeaf968c\n        /* \"03_kipu-bank-v2/contracts/KipuBankV2.sol\":15186:15216  s_ethUsdFeed.latestRoundData() */\n      mload(0x40)\n      dup2\n      0xffffffff\n      and\n      0xe0\n      shl\n      dup2\n      mstore\n      0x04\n      add\n      0xa0\n      mload(0x40)\n      dup1\n      dup4\n      sub\n      dup2\n      dup7\n      gas\n      staticcall\n      iszero\n      dup1\n      iszero\n      tag_265\n      jumpi\n      returndatasize\n      0x00\n      dup1\n      returndatacopy\n      revert(0x00, returndatasize)\n    tag_265:\n      pop\n      pop\n      pop\n      pop\n      mload(0x40)\n      returndatasize\n      not(0x1f)\n      0x1f\n      dup3\n      add\n      and\n      dup3\n      add\n      dup1\n      0x40\n      mstore\n      pop\n      dup2\n      add\n      swap1\n      tag_266\n      swap2\n      swap1\n      tag_221\n      jump\t// in\n    tag_266:\n        /* \"03_kipu-bank-v2/contracts/KipuBankV2.sol\":15002:15216  (... */\n      pop\n      swap4\n      pop\n      pop\n      swap3\n      pop\n      pop\n        /* \"03_kipu-bank-v2/contracts/KipuBankV2.sol\":15304:15305  0 */\n      0x00\n        /* \"03_kipu-bank-v2/contracts/KipuBankV2.sol\":15294:15300  answer */\n      dup3\n        /* \"03_kipu-bank-v2/contracts/KipuBankV2.sol\":15294:15305  answer <= 0 */\n      sgt\n        /* \"03_kipu-bank-v2/contracts/KipuBankV2.sol\":15290:15344  if (answer <= 0) revert KipuBankV2_OracleCompromised() */\n      tag_267\n      jumpi\n        /* \"03_kipu-bank-v2/contracts/KipuBankV2.sol\":15314:15344  KipuBankV2_OracleCompromised() */\n      mload(0x40)\n      0x63f585c200000000000000000000000000000000000000000000000000000000\n      dup2\n      mstore\n      0x04\n      add\n      mload(0x40)\n      dup1\n      swap2\n      sub\n      swap1\n      revert\n        /* \"03_kipu-bank-v2/contracts/KipuBankV2.sol\":15290:15344  if (answer <= 0) revert KipuBankV2_OracleCompromised() */\n    tag_267:\n        /* \"03_kipu-bank-v2/contracts/KipuBankV2.sol\":15428:15454  uint256 tiempoTranscurrido */\n      0x00\n        /* \"03_kipu-bank-v2/contracts/KipuBankV2.sol\":15475:15484  updatedAt */\n      dup2\n        /* \"03_kipu-bank-v2/contracts/KipuBankV2.sol\":15457:15472  block.timestamp */\n      timestamp\n        /* \"03_kipu-bank-v2/contracts/KipuBankV2.sol\":15457:15484  block.timestamp - updatedAt */\n      tag_268\n      swap2\n      swap1\n      tag_186\n      jump\t// in\n    tag_268:\n        /* \"03_kipu-bank-v2/contracts/KipuBankV2.sol\":15428:15484  uint256 tiempoTranscurrido = block.timestamp - updatedAt */\n      swap1\n      pop\n        /* \"03_kipu-bank-v2/contracts/KipuBankV2.sol\":1869:1873  3600 */\n      0x0e10\n        /* \"03_kipu-bank-v2/contracts/KipuBankV2.sol\":15498:15516  tiempoTranscurrido */\n      dup2\n        /* \"03_kipu-bank-v2/contracts/KipuBankV2.sol\":15498:15535  tiempoTranscurrido > ORACLE_HEARTBEAT */\n      gt\n        /* \"03_kipu-bank-v2/contracts/KipuBankV2.sol\":15494:15628  if (tiempoTranscurrido > ORACLE_HEARTBEAT) {... */\n      iszero\n      tag_269\n      jumpi\n        /* \"03_kipu-bank-v2/contracts/KipuBankV2.sol\":15580:15598  tiempoTranscurrido */\n      dup1\n        /* \"03_kipu-bank-v2/contracts/KipuBankV2.sol\":1869:1873  3600 */\n      0x0e10\n        /* \"03_kipu-bank-v2/contracts/KipuBankV2.sol\":15558:15617  KipuBankV2_StalePrice(tiempoTranscurrido, ORACLE_HEARTBEAT) */\n      mload(0x40)\n      0x74937df300000000000000000000000000000000000000000000000000000000\n      dup2\n      mstore\n      0x04\n      add\n      tag_270\n      swap3\n      swap2\n      swap1\n      tag_107\n      jump\t// in\n    tag_270:\n      mload(0x40)\n      dup1\n      swap2\n      sub\n      swap1\n      revert\n        /* \"03_kipu-bank-v2/contracts/KipuBankV2.sol\":15494:15628  if (tiempoTranscurrido > ORACLE_HEARTBEAT) {... */\n    tag_269:\n        /* \"03_kipu-bank-v2/contracts/KipuBankV2.sol\":15705:15711  answer */\n      dup3\n        /* \"03_kipu-bank-v2/contracts/KipuBankV2.sol\":15684:15712  precioEth_ = uint256(answer) */\n      swap4\n      pop\n        /* \"03_kipu-bank-v2/contracts/KipuBankV2.sol\":14992:15719  {... */\n      pop\n      pop\n      pop\n        /* \"03_kipu-bank-v2/contracts/KipuBankV2.sol\":14920:15719  function _obtenerPrecioEth() internal view returns (uint256 precioEth_) {... */\n      swap1\n      jump\t// out\n        /* \"@openzeppelin/contracts/token/ERC20/utils/SafeERC20.sol\":8370:9090  function _callOptionalReturn(IERC20 token, bytes memory data) private {... */\n    tag_242:\n        /* \"@openzeppelin/contracts/token/ERC20/utils/SafeERC20.sol\":8450:8468  uint256 returnSize */\n      0x00\n        /* \"@openzeppelin/contracts/token/ERC20/utils/SafeERC20.sol\":8478:8497  uint256 returnValue */\n      dup1\n        /* \"@openzeppelin/contracts/token/ERC20/utils/SafeERC20.sol\":8616:8620  0x20 */\n      0x20\n        /* \"@openzeppelin/contracts/token/ERC20/utils/SafeERC20.sol\":8613:8614  0 */\n      0x00\n        /* \"@openzeppelin/contracts/token/ERC20/utils/SafeERC20.sol\":8606:8610  data */\n      dup5\n        /* \"@openzeppelin/contracts/token/ERC20/utils/SafeERC20.sol\":8600:8611  mload(data) */\n      mload\n        /* \"@openzeppelin/contracts/token/ERC20/utils/SafeERC20.sol\":8593:8597  0x20 */\n      0x20\n        /* \"@openzeppelin/contracts/token/ERC20/utils/SafeERC20.sol\":8587:8591  data */\n      dup7\n        /* \"@openzeppelin/contracts/token/ERC20/utils/SafeERC20.sol\":8583:8598  add(data, 0x20) */\n      add\n        /* \"@openzeppelin/contracts/token/ERC20/utils/SafeERC20.sol\":8580:8581  0 */\n      0x00\n        /* \"@openzeppelin/contracts/token/ERC20/utils/SafeERC20.sol\":8573:8578  token */\n      dup9\n        /* \"@openzeppelin/contracts/token/ERC20/utils/SafeERC20.sol\":8566:8571  gas() */\n      gas\n        /* \"@openzeppelin/contracts/token/ERC20/utils/SafeERC20.sol\":8561:8621  call(gas(), token, 0, add(data, 0x20), mload(data), 0, 0x20) */\n      call\n        /* \"@openzeppelin/contracts/token/ERC20/utils/SafeERC20.sol\":8673:8680  success */\n      dup1\n        /* \"@openzeppelin/contracts/token/ERC20/utils/SafeERC20.sol\":8663:8839  if iszero(success) {... */\n      tag_272\n      jumpi\n        /* \"@openzeppelin/contracts/token/ERC20/utils/SafeERC20.sol\":8717:8721  0x40 */\n      0x40\n        /* \"@openzeppelin/contracts/token/ERC20/utils/SafeERC20.sol\":8711:8722  mload(0x40) */\n      mload\n        /* \"@openzeppelin/contracts/token/ERC20/utils/SafeERC20.sol\":8762:8778  returndatasize() */\n      returndatasize\n        /* \"@openzeppelin/contracts/token/ERC20/utils/SafeERC20.sol\":8759:8760  0 */\n      0x00\n        /* \"@openzeppelin/contracts/token/ERC20/utils/SafeERC20.sol\":8754:8757  ptr */\n      dup3\n        /* \"@openzeppelin/contracts/token/ERC20/utils/SafeERC20.sol\":8739:8779  returndatacopy(ptr, 0, returndatasize()) */\n      returndatacopy\n        /* \"@openzeppelin/contracts/token/ERC20/utils/SafeERC20.sol\":8808:8824  returndatasize() */\n      returndatasize\n        /* \"@openzeppelin/contracts/token/ERC20/utils/SafeERC20.sol\":8803:8806  ptr */\n      dup2\n        /* \"@openzeppelin/contracts/token/ERC20/utils/SafeERC20.sol\":8796:8825  revert(ptr, returndatasize()) */\n      revert\n        /* \"@openzeppelin/contracts/token/ERC20/utils/SafeERC20.sol\":8663:8839  if iszero(success) {... */\n    tag_272:\n        /* \"@openzeppelin/contracts/token/ERC20/utils/SafeERC20.sol\":8866:8882  returndatasize() */\n      returndatasize\n        /* \"@openzeppelin/contracts/token/ERC20/utils/SafeERC20.sol\":8852:8882  returnSize := returndatasize() */\n      swap3\n      pop\n        /* \"@openzeppelin/contracts/token/ERC20/utils/SafeERC20.sol\":8916:8917  0 */\n      0x00\n        /* \"@openzeppelin/contracts/token/ERC20/utils/SafeERC20.sol\":8910:8918  mload(0) */\n      mload\n        /* \"@openzeppelin/contracts/token/ERC20/utils/SafeERC20.sol\":8895:8918  returnValue := mload(0) */\n      swap2\n      pop\n        /* \"@openzeppelin/contracts/token/ERC20/utils/SafeERC20.sol\":8532:8928  {... */\n      pop\n        /* \"@openzeppelin/contracts/token/ERC20/utils/SafeERC20.sol\":8956:8957  0 */\n      0x00\n        /* \"@openzeppelin/contracts/token/ERC20/utils/SafeERC20.sol\":8942:8952  returnSize */\n      dup3\n        /* \"@openzeppelin/contracts/token/ERC20/utils/SafeERC20.sol\":8942:8957  returnSize == 0 */\n      eq\n        /* \"@openzeppelin/contracts/token/ERC20/utils/SafeERC20.sol\":8942:9010  returnSize == 0 ? address(token).code.length == 0 : returnValue != 1 */\n      tag_273\n      jumpi\n        /* \"@openzeppelin/contracts/token/ERC20/utils/SafeERC20.sol\":9009:9010  1 */\n      0x01\n        /* \"@openzeppelin/contracts/token/ERC20/utils/SafeERC20.sol\":8994:9005  returnValue */\n      dup2\n        /* \"@openzeppelin/contracts/token/ERC20/utils/SafeERC20.sol\":8994:9010  returnValue != 1 */\n      eq\n      iszero\n        /* \"@openzeppelin/contracts/token/ERC20/utils/SafeERC20.sol\":8942:9010  returnSize == 0 ? address(token).code.length == 0 : returnValue != 1 */\n      jump(tag_274)\n    tag_273:\n        /* \"@openzeppelin/contracts/token/ERC20/utils/SafeERC20.sol\":8990:8991  0 */\n      0x00\n        /* \"@openzeppelin/contracts/token/ERC20/utils/SafeERC20.sol\":8968:8973  token */\n      dup5\n        /* \"@openzeppelin/contracts/token/ERC20/utils/SafeERC20.sol\":8960:8986  address(token).code.length */\n      0xffffffffffffffffffffffffffffffffffffffff\n      and\n      extcodesize\n        /* \"@openzeppelin/contracts/token/ERC20/utils/SafeERC20.sol\":8960:8991  address(token).code.length == 0 */\n      eq\n        /* \"@openzeppelin/contracts/token/ERC20/utils/SafeERC20.sol\":8942:9010  returnSize == 0 ? address(token).code.length == 0 : returnValue != 1 */\n    tag_274:\n        /* \"@openzeppelin/contracts/token/ERC20/utils/SafeERC20.sol\":8938:9084  if (returnSize == 0 ? address(token).code.length == 0 : returnValue != 1) {... */\n      iszero\n      tag_275\n      jumpi\n        /* \"@openzeppelin/contracts/token/ERC20/utils/SafeERC20.sol\":9066:9071  token */\n      dup4\n        /* \"@openzeppelin/contracts/token/ERC20/utils/SafeERC20.sol\":9033:9073  SafeERC20FailedOperation(address(token)) */\n      mload(0x40)\n      0x5274afe700000000000000000000000000000000000000000000000000000000\n      dup2\n      mstore\n      0x04\n      add\n      tag_276\n      swap2\n      swap1\n      tag_53\n      jump\t// in\n    tag_276:\n      mload(0x40)\n      dup1\n      swap2\n      sub\n      swap1\n      revert\n        /* \"@openzeppelin/contracts/token/ERC20/utils/SafeERC20.sol\":8938:9084  if (returnSize == 0 ? address(token).code.length == 0 : returnValue != 1) {... */\n    tag_275:\n        /* \"@openzeppelin/contracts/token/ERC20/utils/SafeERC20.sol\":8440:9090  {... */\n      pop\n      pop\n        /* \"@openzeppelin/contracts/token/ERC20/utils/SafeERC20.sol\":8370:9090  function _callOptionalReturn(IERC20 token, bytes memory data) private {... */\n      pop\n      pop\n      jump\t// out\n        /* \"@openzeppelin/contracts/utils/Context.sol\":656:752  function _msgSender() internal view virtual returns (address) {... */\n    tag_245:\n        /* \"@openzeppelin/contracts/utils/Context.sol\":709:716  address */\n      0x00\n        /* \"@openzeppelin/contracts/utils/Context.sol\":735:745  msg.sender */\n      caller\n        /* \"@openzeppelin/contracts/utils/Context.sol\":728:745  return msg.sender */\n      swap1\n      pop\n        /* \"@openzeppelin/contracts/utils/Context.sol\":656:752  function _msgSender() internal view virtual returns (address) {... */\n      swap1\n      jump\t// out\n        /* \"#utility.yul\":7:84   */\n    tag_278:\n        /* \"#utility.yul\":44:51   */\n      0x00\n        /* \"#utility.yul\":73:78   */\n      dup2\n        /* \"#utility.yul\":62:78   */\n      swap1\n      pop\n        /* \"#utility.yul\":7:84   */\n      swap2\n      swap1\n      pop\n      jump\t// out\n        /* \"#utility.yul\":90:208   */\n    tag_279:\n        /* \"#utility.yul\":177:201   */\n      tag_312\n        /* \"#utility.yul\":195:200   */\n      dup2\n        /* \"#utility.yul\":177:201   */\n      tag_278\n      jump\t// in\n    tag_312:\n        /* \"#utility.yul\":172:175   */\n      dup3\n        /* \"#utility.yul\":165:202   */\n      mstore\n        /* \"#utility.yul\":90:208   */\n      pop\n      pop\n      jump\t// out\n        /* \"#utility.yul\":214:436   */\n    tag_32:\n        /* \"#utility.yul\":307:311   */\n      0x00\n        /* \"#utility.yul\":345:347   */\n      0x20\n        /* \"#utility.yul\":334:343   */\n      dup3\n        /* \"#utility.yul\":330:348   */\n      add\n        /* \"#utility.yul\":322:348   */\n      swap1\n      pop\n        /* \"#utility.yul\":358:429   */\n      tag_314\n        /* \"#utility.yul\":426:427   */\n      0x00\n        /* \"#utility.yul\":415:424   */\n      dup4\n        /* \"#utility.yul\":411:428   */\n      add\n        /* \"#utility.yul\":402:408   */\n      dup5\n        /* \"#utility.yul\":358:429   */\n      tag_279\n      jump\t// in\n    tag_314:\n        /* \"#utility.yul\":214:436   */\n      swap3\n      swap2\n      pop\n      pop\n      jump\t// out\n        /* \"#utility.yul\":523:640   */\n    tag_281:\n        /* \"#utility.yul\":632:633   */\n      0x00\n        /* \"#utility.yul\":629:630   */\n      dup1\n        /* \"#utility.yul\":622:634   */\n      revert\n        /* \"#utility.yul\":769:895   */\n    tag_283:\n        /* \"#utility.yul\":806:813   */\n      0x00\n        /* \"#utility.yul\":846:888   */\n      0xffffffffffffffffffffffffffffffffffffffff\n        /* \"#utility.yul\":839:844   */\n      dup3\n        /* \"#utility.yul\":835:889   */\n      and\n        /* \"#utility.yul\":824:889   */\n      swap1\n      pop\n        /* \"#utility.yul\":769:895   */\n      swap2\n      swap1\n      pop\n      jump\t// out\n        /* \"#utility.yul\":901:997   */\n    tag_284:\n        /* \"#utility.yul\":938:945   */\n      0x00\n        /* \"#utility.yul\":967:991   */\n      tag_320\n        /* \"#utility.yul\":985:990   */\n      dup3\n        /* \"#utility.yul\":967:991   */\n      tag_283\n      jump\t// in\n    tag_320:\n        /* \"#utility.yul\":956:991   */\n      swap1\n      pop\n        /* \"#utility.yul\":901:997   */\n      swap2\n      swap1\n      pop\n      jump\t// out\n        /* \"#utility.yul\":1003:1125   */\n    tag_285:\n        /* \"#utility.yul\":1076:1100   */\n      tag_322\n        /* \"#utility.yul\":1094:1099   */\n      dup2\n        /* \"#utility.yul\":1076:1100   */\n      tag_284\n      jump\t// in\n    tag_322:\n        /* \"#utility.yul\":1069:1074   */\n      dup2\n        /* \"#utility.yul\":1066:1101   */\n      eq\n        /* \"#utility.yul\":1056:1119   */\n      tag_323\n      jumpi\n        /* \"#utility.yul\":1115:1116   */\n      0x00\n        /* \"#utility.yul\":1112:1113   */\n      dup1\n        /* \"#utility.yul\":1105:1117   */\n      revert\n        /* \"#utility.yul\":1056:1119   */\n    tag_323:\n        /* \"#utility.yul\":1003:1125   */\n      pop\n      jump\t// out\n        /* \"#utility.yul\":1131:1270   */\n    tag_286:\n        /* \"#utility.yul\":1177:1182   */\n      0x00\n        /* \"#utility.yul\":1215:1221   */\n      dup2\n        /* \"#utility.yul\":1202:1222   */\n      calldataload\n        /* \"#utility.yul\":1193:1222   */\n      swap1\n      pop\n        /* \"#utility.yul\":1231:1264   */\n      tag_325\n        /* \"#utility.yul\":1258:1263   */\n      dup2\n        /* \"#utility.yul\":1231:1264   */\n      tag_285\n      jump\t// in\n    tag_325:\n        /* \"#utility.yul\":1131:1270   */\n      swap3\n      swap2\n      pop\n      pop\n      jump\t// out\n        /* \"#utility.yul\":1276:1605   */\n    tag_46:\n        /* \"#utility.yul\":1335:1341   */\n      0x00\n        /* \"#utility.yul\":1384:1386   */\n      0x20\n        /* \"#utility.yul\":1372:1381   */\n      dup3\n        /* \"#utility.yul\":1363:1370   */\n      dup5\n        /* \"#utility.yul\":1359:1382   */\n      sub\n        /* \"#utility.yul\":1355:1387   */\n      slt\n        /* \"#utility.yul\":1352:1471   */\n      iszero\n      tag_327\n      jumpi\n        /* \"#utility.yul\":1390:1469   */\n      tag_328\n      tag_281\n      jump\t// in\n    tag_328:\n        /* \"#utility.yul\":1352:1471   */\n    tag_327:\n        /* \"#utility.yul\":1510:1511   */\n      0x00\n        /* \"#utility.yul\":1535:1588   */\n      tag_329\n        /* \"#utility.yul\":1580:1587   */\n      dup5\n        /* \"#utility.yul\":1571:1577   */\n      dup3\n        /* \"#utility.yul\":1560:1569   */\n      dup6\n        /* \"#utility.yul\":1556:1578   */\n      add\n        /* \"#utility.yul\":1535:1588   */\n      tag_286\n      jump\t// in\n    tag_329:\n        /* \"#utility.yul\":1525:1588   */\n      swap2\n      pop\n        /* \"#utility.yul\":1481:1598   */\n      pop\n        /* \"#utility.yul\":1276:1605   */\n      swap3\n      swap2\n      pop\n      pop\n      jump\t// out\n        /* \"#utility.yul\":1611:1729   */\n    tag_287:\n        /* \"#utility.yul\":1698:1722   */\n      tag_331\n        /* \"#utility.yul\":1716:1721   */\n      dup2\n        /* \"#utility.yul\":1698:1722   */\n      tag_284\n      jump\t// in\n    tag_331:\n        /* \"#utility.yul\":1693:1696   */\n      dup3\n        /* \"#utility.yul\":1686:1723   */\n      mstore\n        /* \"#utility.yul\":1611:1729   */\n      pop\n      pop\n      jump\t// out\n        /* \"#utility.yul\":1735:1957   */\n    tag_53:\n        /* \"#utility.yul\":1828:1832   */\n      0x00\n        /* \"#utility.yul\":1866:1868   */\n      0x20\n        /* \"#utility.yul\":1855:1864   */\n      dup3\n        /* \"#utility.yul\":1851:1869   */\n      add\n        /* \"#utility.yul\":1843:1869   */\n      swap1\n      pop\n        /* \"#utility.yul\":1879:1950   */\n      tag_333\n        /* \"#utility.yul\":1947:1948   */\n      0x00\n        /* \"#utility.yul\":1936:1945   */\n      dup4\n        /* \"#utility.yul\":1932:1949   */\n      add\n        /* \"#utility.yul\":1923:1929   */\n      dup5\n        /* \"#utility.yul\":1879:1950   */\n      tag_287\n      jump\t// in\n    tag_333:\n        /* \"#utility.yul\":1735:1957   */\n      swap3\n      swap2\n      pop\n      pop\n      jump\t// out\n        /* \"#utility.yul\":1963:2085   */\n    tag_288:\n        /* \"#utility.yul\":2036:2060   */\n      tag_335\n        /* \"#utility.yul\":2054:2059   */\n      dup2\n        /* \"#utility.yul\":2036:2060   */\n      tag_278\n      jump\t// in\n    tag_335:\n        /* \"#utility.yul\":2029:2034   */\n      dup2\n        /* \"#utility.yul\":2026:2061   */\n      eq\n        /* \"#utility.yul\":2016:2079   */\n      tag_336\n      jumpi\n        /* \"#utility.yul\":2075:2076   */\n      0x00\n        /* \"#utility.yul\":2072:2073   */\n      dup1\n        /* \"#utility.yul\":2065:2077   */\n      revert\n        /* \"#utility.yul\":2016:2079   */\n    tag_336:\n        /* \"#utility.yul\":1963:2085   */\n      pop\n      jump\t// out\n        /* \"#utility.yul\":2091:2230   */\n    tag_289:\n        /* \"#utility.yul\":2137:2142   */\n      0x00\n        /* \"#utility.yul\":2175:2181   */\n      dup2\n        /* \"#utility.yul\":2162:2182   */\n      calldataload\n        /* \"#utility.yul\":2153:2182   */\n      swap1\n      pop\n        /* \"#utility.yul\":2191:2224   */\n      tag_338\n        /* \"#utility.yul\":2218:2223   */\n      dup2\n        /* \"#utility.yul\":2191:2224   */\n      tag_288\n      jump\t// in\n    tag_338:\n        /* \"#utility.yul\":2091:2230   */\n      swap3\n      swap2\n      pop\n      pop\n      jump\t// out\n        /* \"#utility.yul\":2236:2565   */\n    tag_66:\n        /* \"#utility.yul\":2295:2301   */\n      0x00\n        /* \"#utility.yul\":2344:2346   */\n      0x20\n        /* \"#utility.yul\":2332:2341   */\n      dup3\n        /* \"#utility.yul\":2323:2330   */\n      dup5\n        /* \"#utility.yul\":2319:2342   */\n      sub\n        /* \"#utility.yul\":2315:2347   */\n      slt\n        /* \"#utility.yul\":2312:2431   */\n      iszero\n      tag_340\n      jumpi\n        /* \"#utility.yul\":2350:2429   */\n      tag_341\n      tag_281\n      jump\t// in\n    tag_341:\n        /* \"#utility.yul\":2312:2431   */\n    tag_340:\n        /* \"#utility.yul\":2470:2471   */\n      0x00\n        /* \"#utility.yul\":2495:2548   */\n      tag_342\n        /* \"#utility.yul\":2540:2547   */\n      dup5\n        /* \"#utility.yul\":2531:2537   */\n      dup3\n        /* \"#utility.yul\":2520:2529   */\n      dup6\n        /* \"#utility.yul\":2516:2538   */\n      add\n        /* \"#utility.yul\":2495:2548   */\n      tag_289\n      jump\t// in\n    tag_342:\n        /* \"#utility.yul\":2485:2548   */\n      swap2\n      pop\n        /* \"#utility.yul\":2441:2558   */\n      pop\n        /* \"#utility.yul\":2236:2565   */\n      swap3\n      swap2\n      pop\n      pop\n      jump\t// out\n        /* \"#utility.yul\":2571:3457   */\n    tag_87:\n        /* \"#utility.yul\":2832:2836   */\n      0x00\n        /* \"#utility.yul\":2870:2873   */\n      0xe0\n        /* \"#utility.yul\":2859:2868   */\n      dup3\n        /* \"#utility.yul\":2855:2874   */\n      add\n        /* \"#utility.yul\":2847:2874   */\n      swap1\n      pop\n        /* \"#utility.yul\":2884:2955   */\n      tag_344\n        /* \"#utility.yul\":2952:2953   */\n      0x00\n        /* \"#utility.yul\":2941:2950   */\n      dup4\n        /* \"#utility.yul\":2937:2954   */\n      add\n        /* \"#utility.yul\":2928:2934   */\n      dup11\n        /* \"#utility.yul\":2884:2955   */\n      tag_279\n      jump\t// in\n    tag_344:\n        /* \"#utility.yul\":2965:3037   */\n      tag_345\n        /* \"#utility.yul\":3033:3035   */\n      0x20\n        /* \"#utility.yul\":3022:3031   */\n      dup4\n        /* \"#utility.yul\":3018:3036   */\n      add\n        /* \"#utility.yul\":3009:3015   */\n      dup10\n        /* \"#utility.yul\":2965:3037   */\n      tag_279\n      jump\t// in\n    tag_345:\n        /* \"#utility.yul\":3047:3119   */\n      tag_346\n        /* \"#utility.yul\":3115:3117   */\n      0x40\n        /* \"#utility.yul\":3104:3113   */\n      dup4\n        /* \"#utility.yul\":3100:3118   */\n      add\n        /* \"#utility.yul\":3091:3097   */\n      dup9\n        /* \"#utility.yul\":3047:3119   */\n      tag_279\n      jump\t// in\n    tag_346:\n        /* \"#utility.yul\":3129:3201   */\n      tag_347\n        /* \"#utility.yul\":3197:3199   */\n      0x60\n        /* \"#utility.yul\":3186:3195   */\n      dup4\n        /* \"#utility.yul\":3182:3200   */\n      add\n        /* \"#utility.yul\":3173:3179   */\n      dup8\n        /* \"#utility.yul\":3129:3201   */\n      tag_279\n      jump\t// in\n    tag_347:\n        /* \"#utility.yul\":3211:3284   */\n      tag_348\n        /* \"#utility.yul\":3279:3282   */\n      0x80\n        /* \"#utility.yul\":3268:3277   */\n      dup4\n        /* \"#utility.yul\":3264:3283   */\n      add\n        /* \"#utility.yul\":3255:3261   */\n      dup7\n        /* \"#utility.yul\":3211:3284   */\n      tag_279\n      jump\t// in\n    tag_348:\n        /* \"#utility.yul\":3294:3367   */\n      tag_349\n        /* \"#utility.yul\":3362:3365   */\n      0xa0\n        /* \"#utility.yul\":3351:3360   */\n      dup4\n        /* \"#utility.yul\":3347:3366   */\n      add\n        /* \"#utility.yul\":3338:3344   */\n      dup6\n        /* \"#utility.yul\":3294:3367   */\n      tag_279\n      jump\t// in\n    tag_349:\n        /* \"#utility.yul\":3377:3450   */\n      tag_350\n        /* \"#utility.yul\":3445:3448   */\n      0xc0\n        /* \"#utility.yul\":3434:3443   */\n      dup4\n        /* \"#utility.yul\":3430:3449   */\n      add\n        /* \"#utility.yul\":3421:3427   */\n      dup5\n        /* \"#utility.yul\":3377:3450   */\n      tag_279\n      jump\t// in\n    tag_350:\n        /* \"#utility.yul\":2571:3457   */\n      swap9\n      swap8\n      pop\n      pop\n      pop\n      pop\n      pop\n      pop\n      pop\n      pop\n      jump\t// out\n        /* \"#utility.yul\":3463:3523   */\n    tag_290:\n        /* \"#utility.yul\":3491:3494   */\n      0x00\n        /* \"#utility.yul\":3512:3517   */\n      dup2\n        /* \"#utility.yul\":3505:3517   */\n      swap1\n      pop\n        /* \"#utility.yul\":3463:3523   */\n      swap2\n      swap1\n      pop\n      jump\t// out\n        /* \"#utility.yul\":3529:3671   */\n    tag_291:\n        /* \"#utility.yul\":3579:3588   */\n      0x00\n        /* \"#utility.yul\":3612:3665   */\n      tag_353\n        /* \"#utility.yul\":3630:3664   */\n      tag_354\n        /* \"#utility.yul\":3639:3663   */\n      tag_355\n        /* \"#utility.yul\":3657:3662   */\n      dup5\n        /* \"#utility.yul\":3639:3663   */\n      tag_283\n      jump\t// in\n    tag_355:\n        /* \"#utility.yul\":3630:3664   */\n      tag_290\n      jump\t// in\n    tag_354:\n        /* \"#utility.yul\":3612:3665   */\n      tag_283\n      jump\t// in\n    tag_353:\n        /* \"#utility.yul\":3599:3665   */\n      swap1\n      pop\n        /* \"#utility.yul\":3529:3671   */\n      swap2\n      swap1\n      pop\n      jump\t// out\n        /* \"#utility.yul\":3677:3803   */\n    tag_292:\n        /* \"#utility.yul\":3727:3736   */\n      0x00\n        /* \"#utility.yul\":3760:3797   */\n      tag_357\n        /* \"#utility.yul\":3791:3796   */\n      dup3\n        /* \"#utility.yul\":3760:3797   */\n      tag_291\n      jump\t// in\n    tag_357:\n        /* \"#utility.yul\":3747:3797   */\n      swap1\n      pop\n        /* \"#utility.yul\":3677:3803   */\n      swap2\n      swap1\n      pop\n      jump\t// out\n        /* \"#utility.yul\":3809:3964   */\n    tag_293:\n        /* \"#utility.yul\":3888:3897   */\n      0x00\n        /* \"#utility.yul\":3921:3958   */\n      tag_359\n        /* \"#utility.yul\":3952:3957   */\n      dup3\n        /* \"#utility.yul\":3921:3958   */\n      tag_292\n      jump\t// in\n    tag_359:\n        /* \"#utility.yul\":3908:3958   */\n      swap1\n      pop\n        /* \"#utility.yul\":3809:3964   */\n      swap2\n      swap1\n      pop\n      jump\t// out\n        /* \"#utility.yul\":3970:4159   */\n    tag_294:\n        /* \"#utility.yul\":4086:4152   */\n      tag_361\n        /* \"#utility.yul\":4146:4151   */\n      dup2\n        /* \"#utility.yul\":4086:4152   */\n      tag_293\n      jump\t// in\n    tag_361:\n        /* \"#utility.yul\":4081:4084   */\n      dup3\n        /* \"#utility.yul\":4074:4153   */\n      mstore\n        /* \"#utility.yul\":3970:4159   */\n      pop\n      pop\n      jump\t// out\n        /* \"#utility.yul\":4165:4445   */\n    tag_92:\n        /* \"#utility.yul\":4287:4291   */\n      0x00\n        /* \"#utility.yul\":4325:4327   */\n      0x20\n        /* \"#utility.yul\":4314:4323   */\n      dup3\n        /* \"#utility.yul\":4310:4328   */\n      add\n        /* \"#utility.yul\":4302:4328   */\n      swap1\n      pop\n        /* \"#utility.yul\":4338:4438   */\n      tag_363\n        /* \"#utility.yul\":4435:4436   */\n      0x00\n        /* \"#utility.yul\":4424:4433   */\n      dup4\n        /* \"#utility.yul\":4420:4437   */\n      add\n        /* \"#utility.yul\":4411:4417   */\n      dup5\n        /* \"#utility.yul\":4338:4438   */\n      tag_294\n      jump\t// in\n    tag_363:\n        /* \"#utility.yul\":4165:4445   */\n      swap3\n      swap2\n      pop\n      pop\n      jump\t// out\n        /* \"#utility.yul\":4451:4925   */\n    tag_96:\n        /* \"#utility.yul\":4519:4525   */\n      0x00\n        /* \"#utility.yul\":4527:4533   */\n      dup1\n        /* \"#utility.yul\":4576:4578   */\n      0x40\n        /* \"#utility.yul\":4564:4573   */\n      dup4\n        /* \"#utility.yul\":4555:4562   */\n      dup6\n        /* \"#utility.yul\":4551:4574   */\n      sub\n        /* \"#utility.yul\":4547:4579   */\n      slt\n        /* \"#utility.yul\":4544:4663   */\n      iszero\n      tag_365\n      jumpi\n        /* \"#utility.yul\":4582:4661   */\n      tag_366\n      tag_281\n      jump\t// in\n    tag_366:\n        /* \"#utility.yul\":4544:4663   */\n    tag_365:\n        /* \"#utility.yul\":4702:4703   */\n      0x00\n        /* \"#utility.yul\":4727:4780   */\n      tag_367\n        /* \"#utility.yul\":4772:4779   */\n      dup6\n        /* \"#utility.yul\":4763:4769   */\n      dup3\n        /* \"#utility.yul\":4752:4761   */\n      dup7\n        /* \"#utility.yul\":4748:4770   */\n      add\n        /* \"#utility.yul\":4727:4780   */\n      tag_286\n      jump\t// in\n    tag_367:\n        /* \"#utility.yul\":4717:4780   */\n      swap3\n      pop\n        /* \"#utility.yul\":4673:4790   */\n      pop\n        /* \"#utility.yul\":4829:4831   */\n      0x20\n        /* \"#utility.yul\":4855:4908   */\n      tag_368\n        /* \"#utility.yul\":4900:4907   */\n      dup6\n        /* \"#utility.yul\":4891:4897   */\n      dup3\n        /* \"#utility.yul\":4880:4889   */\n      dup7\n        /* \"#utility.yul\":4876:4898   */\n      add\n        /* \"#utility.yul\":4855:4908   */\n      tag_286\n      jump\t// in\n    tag_368:\n        /* \"#utility.yul\":4845:4908   */\n      swap2\n      pop\n        /* \"#utility.yul\":4800:4918   */\n      pop\n        /* \"#utility.yul\":4451:4925   */\n      swap3\n      pop\n      swap3\n      swap1\n      pop\n      jump\t// out\n        /* \"#utility.yul\":4931:5263   */\n    tag_107:\n        /* \"#utility.yul\":5052:5056   */\n      0x00\n        /* \"#utility.yul\":5090:5092   */\n      0x40\n        /* \"#utility.yul\":5079:5088   */\n      dup3\n        /* \"#utility.yul\":5075:5093   */\n      add\n        /* \"#utility.yul\":5067:5093   */\n      swap1\n      pop\n        /* \"#utility.yul\":5103:5174   */\n      tag_370\n        /* \"#utility.yul\":5171:5172   */\n      0x00\n        /* \"#utility.yul\":5160:5169   */\n      dup4\n        /* \"#utility.yul\":5156:5173   */\n      add\n        /* \"#utility.yul\":5147:5153   */\n      dup6\n        /* \"#utility.yul\":5103:5174   */\n      tag_279\n      jump\t// in\n    tag_370:\n        /* \"#utility.yul\":5184:5256   */\n      tag_371\n        /* \"#utility.yul\":5252:5254   */\n      0x20\n        /* \"#utility.yul\":5241:5250   */\n      dup4\n        /* \"#utility.yul\":5237:5255   */\n      add\n        /* \"#utility.yul\":5228:5234   */\n      dup5\n        /* \"#utility.yul\":5184:5256   */\n      tag_279\n      jump\t// in\n    tag_371:\n        /* \"#utility.yul\":4931:5263   */\n      swap4\n      swap3\n      pop\n      pop\n      pop\n      jump\t// out\n        /* \"#utility.yul\":5269:5410   */\n    tag_295:\n        /* \"#utility.yul\":5334:5343   */\n      0x00\n        /* \"#utility.yul\":5367:5404   */\n      tag_373\n        /* \"#utility.yul\":5398:5403   */\n      dup3\n        /* \"#utility.yul\":5367:5404   */\n      tag_292\n      jump\t// in\n    tag_373:\n        /* \"#utility.yul\":5354:5404   */\n      swap1\n      pop\n        /* \"#utility.yul\":5269:5410   */\n      swap2\n      swap1\n      pop\n      jump\t// out\n        /* \"#utility.yul\":5416:5577   */\n    tag_296:\n        /* \"#utility.yul\":5518:5570   */\n      tag_375\n        /* \"#utility.yul\":5564:5569   */\n      dup2\n        /* \"#utility.yul\":5518:5570   */\n      tag_295\n      jump\t// in\n    tag_375:\n        /* \"#utility.yul\":5513:5516   */\n      dup3\n        /* \"#utility.yul\":5506:5571   */\n      mstore\n        /* \"#utility.yul\":5416:5577   */\n      pop\n      pop\n      jump\t// out\n        /* \"#utility.yul\":5583:5835   */\n    tag_129:\n        /* \"#utility.yul\":5691:5695   */\n      0x00\n        /* \"#utility.yul\":5729:5731   */\n      0x20\n        /* \"#utility.yul\":5718:5727   */\n      dup3\n        /* \"#utility.yul\":5714:5732   */\n      add\n        /* \"#utility.yul\":5706:5732   */\n      swap1\n      pop\n        /* \"#utility.yul\":5742:5828   */\n      tag_377\n        /* \"#utility.yul\":5825:5826   */\n      0x00\n        /* \"#utility.yul\":5814:5823   */\n      dup4\n        /* \"#utility.yul\":5810:5827   */\n      add\n        /* \"#utility.yul\":5801:5807   */\n      dup5\n        /* \"#utility.yul\":5742:5828   */\n      tag_296\n      jump\t// in\n    tag_377:\n        /* \"#utility.yul\":5583:5835   */\n      swap3\n      swap2\n      pop\n      pop\n      jump\t// out\n        /* \"#utility.yul\":5841:6021   */\n    tag_297:\n        /* \"#utility.yul\":5889:5966   */\n      0x4e487b7100000000000000000000000000000000000000000000000000000000\n        /* \"#utility.yul\":5886:5887   */\n      0x00\n        /* \"#utility.yul\":5879:5967   */\n      mstore\n        /* \"#utility.yul\":5986:5990   */\n      0x11\n        /* \"#utility.yul\":5983:5984   */\n      0x04\n        /* \"#utility.yul\":5976:5991   */\n      mstore\n        /* \"#utility.yul\":6010:6014   */\n      0x24\n        /* \"#utility.yul\":6007:6008   */\n      0x00\n        /* \"#utility.yul\":6000:6015   */\n      revert\n        /* \"#utility.yul\":6027:6218   */\n    tag_138:\n        /* \"#utility.yul\":6067:6070   */\n      0x00\n        /* \"#utility.yul\":6086:6106   */\n      tag_380\n        /* \"#utility.yul\":6104:6105   */\n      dup3\n        /* \"#utility.yul\":6086:6106   */\n      tag_278\n      jump\t// in\n    tag_380:\n        /* \"#utility.yul\":6081:6106   */\n      swap2\n      pop\n        /* \"#utility.yul\":6120:6140   */\n      tag_381\n        /* \"#utility.yul\":6138:6139   */\n      dup4\n        /* \"#utility.yul\":6120:6140   */\n      tag_278\n      jump\t// in\n    tag_381:\n        /* \"#utility.yul\":6115:6140   */\n      swap3\n      pop\n        /* \"#utility.yul\":6163:6164   */\n      dup3\n        /* \"#utility.yul\":6160:6161   */\n      dup3\n        /* \"#utility.yul\":6156:6165   */\n      add\n        /* \"#utility.yul\":6149:6165   */\n      swap1\n      pop\n        /* \"#utility.yul\":6184:6187   */\n      dup1\n        /* \"#utility.yul\":6181:6182   */\n      dup3\n        /* \"#utility.yul\":6178:6188   */\n      gt\n        /* \"#utility.yul\":6175:6211   */\n      iszero\n      tag_382\n      jumpi\n        /* \"#utility.yul\":6191:6209   */\n      tag_383\n      tag_297\n      jump\t// in\n    tag_383:\n        /* \"#utility.yul\":6175:6211   */\n    tag_382:\n        /* \"#utility.yul\":6027:6218   */\n      swap3\n      swap2\n      pop\n      pop\n      jump\t// out\n        /* \"#utility.yul\":6224:6666   */\n    tag_141:\n        /* \"#utility.yul\":6373:6377   */\n      0x00\n        /* \"#utility.yul\":6411:6413   */\n      0x60\n        /* \"#utility.yul\":6400:6409   */\n      dup3\n        /* \"#utility.yul\":6396:6414   */\n      add\n        /* \"#utility.yul\":6388:6414   */\n      swap1\n      pop\n        /* \"#utility.yul\":6424:6495   */\n      tag_385\n        /* \"#utility.yul\":6492:6493   */\n      0x00\n        /* \"#utility.yul\":6481:6490   */\n      dup4\n        /* \"#utility.yul\":6477:6494   */\n      add\n        /* \"#utility.yul\":6468:6474   */\n      dup7\n        /* \"#utility.yul\":6424:6495   */\n      tag_279\n      jump\t// in\n    tag_385:\n        /* \"#utility.yul\":6505:6577   */\n      tag_386\n        /* \"#utility.yul\":6573:6575   */\n      0x20\n        /* \"#utility.yul\":6562:6571   */\n      dup4\n        /* \"#utility.yul\":6558:6576   */\n      add\n        /* \"#utility.yul\":6549:6555   */\n      dup6\n        /* \"#utility.yul\":6505:6577   */\n      tag_279\n      jump\t// in\n    tag_386:\n        /* \"#utility.yul\":6587:6659   */\n      tag_387\n        /* \"#utility.yul\":6655:6657   */\n      0x40\n        /* \"#utility.yul\":6644:6653   */\n      dup4\n        /* \"#utility.yul\":6640:6658   */\n      add\n        /* \"#utility.yul\":6631:6637   */\n      dup5\n        /* \"#utility.yul\":6587:6659   */\n      tag_279\n      jump\t// in\n    tag_387:\n        /* \"#utility.yul\":6224:6666   */\n      swap5\n      swap4\n      pop\n      pop\n      pop\n      pop\n      jump\t// out\n        /* \"#utility.yul\":6672:6905   */\n    tag_146:\n        /* \"#utility.yul\":6711:6714   */\n      0x00\n        /* \"#utility.yul\":6734:6758   */\n      tag_389\n        /* \"#utility.yul\":6752:6757   */\n      dup3\n        /* \"#utility.yul\":6734:6758   */\n      tag_278\n      jump\t// in\n    tag_389:\n        /* \"#utility.yul\":6725:6758   */\n      swap2\n      pop\n        /* \"#utility.yul\":6780:6846   */\n      0xffffffffffffffffffffffffffffffffffffffffffffffffffffffffffffffff\n        /* \"#utility.yul\":6773:6778   */\n      dup3\n        /* \"#utility.yul\":6770:6847   */\n      sub\n        /* \"#utility.yul\":6767:6870   */\n      tag_390\n      jumpi\n        /* \"#utility.yul\":6850:6868   */\n      tag_391\n      tag_297\n      jump\t// in\n    tag_391:\n        /* \"#utility.yul\":6767:6870   */\n    tag_390:\n        /* \"#utility.yul\":6897:6898   */\n      0x01\n        /* \"#utility.yul\":6890:6895   */\n      dup3\n        /* \"#utility.yul\":6886:6899   */\n      add\n        /* \"#utility.yul\":6879:6899   */\n      swap1\n      pop\n        /* \"#utility.yul\":6672:6905   */\n      swap2\n      swap1\n      pop\n      jump\t// out\n        /* \"#utility.yul\":6911:7105   */\n    tag_186:\n        /* \"#utility.yul\":6951:6955   */\n      0x00\n        /* \"#utility.yul\":6971:6991   */\n      tag_393\n        /* \"#utility.yul\":6989:6990   */\n      dup3\n        /* \"#utility.yul\":6971:6991   */\n      tag_278\n      jump\t// in\n    tag_393:\n        /* \"#utility.yul\":6966:6991   */\n      swap2\n      pop\n        /* \"#utility.yul\":7005:7025   */\n      tag_394\n        /* \"#utility.yul\":7023:7024   */\n      dup4\n        /* \"#utility.yul\":7005:7025   */\n      tag_278\n      jump\t// in\n    tag_394:\n        /* \"#utility.yul\":7000:7025   */\n      swap3\n      pop\n        /* \"#utility.yul\":7049:7050   */\n      dup3\n        /* \"#utility.yul\":7046:7047   */\n      dup3\n        /* \"#utility.yul\":7042:7051   */\n      sub\n        /* \"#utility.yul\":7034:7051   */\n      swap1\n      pop\n        /* \"#utility.yul\":7073:7074   */\n      dup2\n        /* \"#utility.yul\":7067:7071   */\n      dup2\n        /* \"#utility.yul\":7064:7075   */\n      gt\n        /* \"#utility.yul\":7061:7098   */\n      iszero\n      tag_395\n      jumpi\n        /* \"#utility.yul\":7078:7096   */\n      tag_396\n      tag_297\n      jump\t// in\n    tag_396:\n        /* \"#utility.yul\":7061:7098   */\n    tag_395:\n        /* \"#utility.yul\":6911:7105   */\n      swap3\n      swap2\n      pop\n      pop\n      jump\t// out\n        /* \"#utility.yul\":7111:7216   */\n    tag_298:\n        /* \"#utility.yul\":7147:7154   */\n      0x00\n        /* \"#utility.yul\":7187:7209   */\n      0xffffffffffffffffffff\n        /* \"#utility.yul\":7180:7185   */\n      dup3\n        /* \"#utility.yul\":7176:7210   */\n      and\n        /* \"#utility.yul\":7165:7210   */\n      swap1\n      pop\n        /* \"#utility.yul\":7111:7216   */\n      swap2\n      swap1\n      pop\n      jump\t// out\n        /* \"#utility.yul\":7222:7342   */\n    tag_299:\n        /* \"#utility.yul\":7294:7317   */\n      tag_399\n        /* \"#utility.yul\":7311:7316   */\n      dup2\n        /* \"#utility.yul\":7294:7317   */\n      tag_298\n      jump\t// in\n    tag_399:\n        /* \"#utility.yul\":7287:7292   */\n      dup2\n        /* \"#utility.yul\":7284:7318   */\n      eq\n        /* \"#utility.yul\":7274:7336   */\n      tag_400\n      jumpi\n        /* \"#utility.yul\":7332:7333   */\n      0x00\n        /* \"#utility.yul\":7329:7330   */\n      dup1\n        /* \"#utility.yul\":7322:7334   */\n      revert\n        /* \"#utility.yul\":7274:7336   */\n    tag_400:\n        /* \"#utility.yul\":7222:7342   */\n      pop\n      jump\t// out\n        /* \"#utility.yul\":7348:7489   */\n    tag_300:\n        /* \"#utility.yul\":7404:7409   */\n      0x00\n        /* \"#utility.yul\":7435:7441   */\n      dup2\n        /* \"#utility.yul\":7429:7442   */\n      mload\n        /* \"#utility.yul\":7420:7442   */\n      swap1\n      pop\n        /* \"#utility.yul\":7451:7483   */\n      tag_402\n        /* \"#utility.yul\":7477:7482   */\n      dup2\n        /* \"#utility.yul\":7451:7483   */\n      tag_299\n      jump\t// in\n    tag_402:\n        /* \"#utility.yul\":7348:7489   */\n      swap3\n      swap2\n      pop\n      pop\n      jump\t// out\n        /* \"#utility.yul\":7495:7571   */\n    tag_301:\n        /* \"#utility.yul\":7531:7538   */\n      0x00\n        /* \"#utility.yul\":7560:7565   */\n      dup2\n        /* \"#utility.yul\":7549:7565   */\n      swap1\n      pop\n        /* \"#utility.yul\":7495:7571   */\n      swap2\n      swap1\n      pop\n      jump\t// out\n        /* \"#utility.yul\":7577:7697   */\n    tag_302:\n        /* \"#utility.yul\":7649:7672   */\n      tag_405\n        /* \"#utility.yul\":7666:7671   */\n      dup2\n        /* \"#utility.yul\":7649:7672   */\n      tag_301\n      jump\t// in\n    tag_405:\n        /* \"#utility.yul\":7642:7647   */\n      dup2\n        /* \"#utility.yul\":7639:7673   */\n      eq\n        /* \"#utility.yul\":7629:7691   */\n      tag_406\n      jumpi\n        /* \"#utility.yul\":7687:7688   */\n      0x00\n        /* \"#utility.yul\":7684:7685   */\n      dup1\n        /* \"#utility.yul\":7677:7689   */\n      revert\n        /* \"#utility.yul\":7629:7691   */\n    tag_406:\n        /* \"#utility.yul\":7577:7697   */\n      pop\n      jump\t// out\n        /* \"#utility.yul\":7703:7844   */\n    tag_303:\n        /* \"#utility.yul\":7759:7764   */\n      0x00\n        /* \"#utility.yul\":7790:7796   */\n      dup2\n        /* \"#utility.yul\":7784:7797   */\n      mload\n        /* \"#utility.yul\":7775:7797   */\n      swap1\n      pop\n        /* \"#utility.yul\":7806:7838   */\n      tag_408\n        /* \"#utility.yul\":7832:7837   */\n      dup2\n        /* \"#utility.yul\":7806:7838   */\n      tag_302\n      jump\t// in\n    tag_408:\n        /* \"#utility.yul\":7703:7844   */\n      swap3\n      swap2\n      pop\n      pop\n      jump\t// out\n        /* \"#utility.yul\":7850:7993   */\n    tag_304:\n        /* \"#utility.yul\":7907:7912   */\n      0x00\n        /* \"#utility.yul\":7938:7944   */\n      dup2\n        /* \"#utility.yul\":7932:7945   */\n      mload\n        /* \"#utility.yul\":7923:7945   */\n      swap1\n      pop\n        /* \"#utility.yul\":7954:7987   */\n      tag_410\n        /* \"#utility.yul\":7981:7986   */\n      dup2\n        /* \"#utility.yul\":7954:7987   */\n      tag_288\n      jump\t// in\n    tag_410:\n        /* \"#utility.yul\":7850:7993   */\n      swap3\n      swap2\n      pop\n      pop\n      jump\t// out\n        /* \"#utility.yul\":7999:8970   */\n    tag_221:\n        /* \"#utility.yul\":8102:8108   */\n      0x00\n        /* \"#utility.yul\":8110:8116   */\n      dup1\n        /* \"#utility.yul\":8118:8124   */\n      0x00\n        /* \"#utility.yul\":8126:8132   */\n      dup1\n        /* \"#utility.yul\":8134:8140   */\n      0x00\n        /* \"#utility.yul\":8183:8186   */\n      0xa0\n        /* \"#utility.yul\":8171:8180   */\n      dup7\n        /* \"#utility.yul\":8162:8169   */\n      dup9\n        /* \"#utility.yul\":8158:8181   */\n      sub\n        /* \"#utility.yul\":8154:8187   */\n      slt\n        /* \"#utility.yul\":8151:8271   */\n      iszero\n      tag_412\n      jumpi\n        /* \"#utility.yul\":8190:8269   */\n      tag_413\n      tag_281\n      jump\t// in\n    tag_413:\n        /* \"#utility.yul\":8151:8271   */\n    tag_412:\n        /* \"#utility.yul\":8310:8311   */\n      0x00\n        /* \"#utility.yul\":8335:8398   */\n      tag_414\n        /* \"#utility.yul\":8390:8397   */\n      dup9\n        /* \"#utility.yul\":8381:8387   */\n      dup3\n        /* \"#utility.yul\":8370:8379   */\n      dup10\n        /* \"#utility.yul\":8366:8388   */\n      add\n        /* \"#utility.yul\":8335:8398   */\n      tag_300\n      jump\t// in\n    tag_414:\n        /* \"#utility.yul\":8325:8398   */\n      swap6\n      pop\n        /* \"#utility.yul\":8281:8408   */\n      pop\n        /* \"#utility.yul\":8447:8449   */\n      0x20\n        /* \"#utility.yul\":8473:8536   */\n      tag_415\n        /* \"#utility.yul\":8528:8535   */\n      dup9\n        /* \"#utility.yul\":8519:8525   */\n      dup3\n        /* \"#utility.yul\":8508:8517   */\n      dup10\n        /* \"#utility.yul\":8504:8526   */\n      add\n        /* \"#utility.yul\":8473:8536   */\n      tag_303\n      jump\t// in\n    tag_415:\n        /* \"#utility.yul\":8463:8536   */\n      swap5\n      pop\n        /* \"#utility.yul\":8418:8546   */\n      pop\n        /* \"#utility.yul\":8585:8587   */\n      0x40\n        /* \"#utility.yul\":8611:8675   */\n      tag_416\n        /* \"#utility.yul\":8667:8674   */\n      dup9\n        /* \"#utility.yul\":8658:8664   */\n      dup3\n        /* \"#utility.yul\":8647:8656   */\n      dup10\n        /* \"#utility.yul\":8643:8665   */\n      add\n        /* \"#utility.yul\":8611:8675   */\n      tag_304\n      jump\t// in\n    tag_416:\n        /* \"#utility.yul\":8601:8675   */\n      swap4\n      pop\n        /* \"#utility.yul\":8556:8685   */\n      pop\n        /* \"#utility.yul\":8724:8726   */\n      0x60\n        /* \"#utility.yul\":8750:8814   */\n      tag_417\n        /* \"#utility.yul\":8806:8813   */\n      dup9\n        /* \"#utility.yul\":8797:8803   */\n      dup3\n        /* \"#utility.yul\":8786:8795   */\n      dup10\n        /* \"#utility.yul\":8782:8804   */\n      add\n        /* \"#utility.yul\":8750:8814   */\n      tag_304\n      jump\t// in\n    tag_417:\n        /* \"#utility.yul\":8740:8814   */\n      swap3\n      pop\n        /* \"#utility.yul\":8695:8824   */\n      pop\n        /* \"#utility.yul\":8863:8866   */\n      0x80\n        /* \"#utility.yul\":8890:8953   */\n      tag_418\n        /* \"#utility.yul\":8945:8952   */\n      dup9\n        /* \"#utility.yul\":8936:8942   */\n      dup3\n        /* \"#utility.yul\":8925:8934   */\n      dup10\n        /* \"#utility.yul\":8921:8943   */\n      add\n        /* \"#utility.yul\":8890:8953   */\n      tag_300\n      jump\t// in\n    tag_418:\n        /* \"#utility.yul\":8880:8953   */\n      swap2\n      pop\n        /* \"#utility.yul\":8834:8963   */\n      pop\n        /* \"#utility.yul\":7999:8970   */\n      swap3\n      swap6\n      pop\n      swap3\n      swap6\n      swap1\n      swap4\n      pop\n      jump\t// out\n        /* \"#utility.yul\":8976:9386   */\n    tag_234:\n        /* \"#utility.yul\":9016:9023   */\n      0x00\n        /* \"#utility.yul\":9039:9059   */\n      tag_420\n        /* \"#utility.yul\":9057:9058   */\n      dup3\n        /* \"#utility.yul\":9039:9059   */\n      tag_278\n      jump\t// in\n    tag_420:\n        /* \"#utility.yul\":9034:9059   */\n      swap2\n      pop\n        /* \"#utility.yul\":9073:9093   */\n      tag_421\n        /* \"#utility.yul\":9091:9092   */\n      dup4\n        /* \"#utility.yul\":9073:9093   */\n      tag_278\n      jump\t// in\n    tag_421:\n        /* \"#utility.yul\":9068:9093   */\n      swap3\n      pop\n        /* \"#utility.yul\":9128:9129   */\n      dup3\n        /* \"#utility.yul\":9125:9126   */\n      dup3\n        /* \"#utility.yul\":9121:9130   */\n      mul\n        /* \"#utility.yul\":9150:9180   */\n      tag_422\n        /* \"#utility.yul\":9168:9179   */\n      dup2\n        /* \"#utility.yul\":9150:9180   */\n      tag_278\n      jump\t// in\n    tag_422:\n        /* \"#utility.yul\":9139:9180   */\n      swap2\n      pop\n        /* \"#utility.yul\":9329:9330   */\n      dup3\n        /* \"#utility.yul\":9320:9327   */\n      dup3\n        /* \"#utility.yul\":9316:9331   */\n      div\n        /* \"#utility.yul\":9313:9314   */\n      dup5\n        /* \"#utility.yul\":9310:9332   */\n      eq\n        /* \"#utility.yul\":9290:9291   */\n      dup4\n        /* \"#utility.yul\":9283:9292   */\n      iszero\n        /* \"#utility.yul\":9263:9346   */\n      or\n        /* \"#utility.yul\":9240:9379   */\n      tag_423\n      jumpi\n        /* \"#utility.yul\":9359:9377   */\n      tag_424\n      tag_297\n      jump\t// in\n    tag_424:\n        /* \"#utility.yul\":9240:9379   */\n    tag_423:\n        /* \"#utility.yul\":9024:9386   */\n      pop\n        /* \"#utility.yul\":8976:9386   */\n      swap3\n      swap2\n      pop\n      pop\n      jump\t// out\n        /* \"#utility.yul\":9392:9572   */\n    tag_305:\n        /* \"#utility.yul\":9440:9517   */\n      0x4e487b7100000000000000000000000000000000000000000000000000000000\n        /* \"#utility.yul\":9437:9438   */\n      0x00\n        /* \"#utility.yul\":9430:9518   */\n      mstore\n        /* \"#utility.yul\":9537:9541   */\n      0x12\n        /* \"#utility.yul\":9534:9535   */\n      0x04\n        /* \"#utility.yul\":9527:9542   */\n      mstore\n        /* \"#utility.yul\":9561:9565   */\n      0x24\n        /* \"#utility.yul\":9558:9559   */\n      0x00\n        /* \"#utility.yul\":9551:9566   */\n      revert\n        /* \"#utility.yul\":9578:9763   */\n    tag_236:\n        /* \"#utility.yul\":9618:9619   */\n      0x00\n        /* \"#utility.yul\":9635:9655   */\n      tag_427\n        /* \"#utility.yul\":9653:9654   */\n      dup3\n        /* \"#utility.yul\":9635:9655   */\n      tag_278\n      jump\t// in\n    tag_427:\n        /* \"#utility.yul\":9630:9655   */\n      swap2\n      pop\n        /* \"#utility.yul\":9669:9689   */\n      tag_428\n        /* \"#utility.yul\":9687:9688   */\n      dup4\n        /* \"#utility.yul\":9669:9689   */\n      tag_278\n      jump\t// in\n    tag_428:\n        /* \"#utility.yul\":9664:9689   */\n      swap3\n      pop\n        /* \"#utility.yul\":9708:9709   */\n      dup3\n        /* \"#utility.yul\":9698:9733   */\n      tag_429\n      jumpi\n        /* \"#utility.yul\":9713:9731   */\n      tag_430\n      tag_305\n      jump\t// in\n    tag_430:\n        /* \"#utility.yul\":9698:9733   */\n    tag_429:\n        /* \"#utility.yul\":9755:9756   */\n      dup3\n        /* \"#utility.yul\":9752:9753   */\n      dup3\n        /* \"#utility.yul\":9748:9757   */\n      div\n        /* \"#utility.yul\":9743:9757   */\n      swap1\n      pop\n        /* \"#utility.yul\":9578:9763   */\n      swap3\n      swap2\n      pop\n      pop\n      jump\t// out\n        /* \"#utility.yul\":9769:10211   */\n    tag_241:\n        /* \"#utility.yul\":9918:9922   */\n      0x00\n        /* \"#utility.yul\":9956:9958   */\n      0x60\n        /* \"#utility.yul\":9945:9954   */\n      dup3\n        /* \"#utility.yul\":9941:9959   */\n      add\n        /* \"#utility.yul\":9933:9959   */\n      swap1\n      pop\n        /* \"#utility.yul\":9969:10040   */\n      tag_432\n        /* \"#utility.yul\":10037:10038   */\n      0x00\n        /* \"#utility.yul\":10026:10035   */\n      dup4\n        /* \"#utility.yul\":10022:10039   */\n      add\n        /* \"#utility.yul\":10013:10019   */\n      dup7\n        /* \"#utility.yul\":9969:10040   */\n      tag_287\n      jump\t// in\n    tag_432:\n        /* \"#utility.yul\":10050:10122   */\n      tag_433\n        /* \"#utility.yul\":10118:10120   */\n      0x20\n        /* \"#utility.yul\":10107:10116   */\n      dup4\n        /* \"#utility.yul\":10103:10121   */\n      add\n        /* \"#utility.yul\":10094:10100   */\n      dup6\n        /* \"#utility.yul\":10050:10122   */\n      tag_287\n      jump\t// in\n    tag_433:\n        /* \"#utility.yul\":10132:10204   */\n      tag_434\n        /* \"#utility.yul\":10200:10202   */\n      0x40\n        /* \"#utility.yul\":10189:10198   */\n      dup4\n        /* \"#utility.yul\":10185:10203   */\n      add\n        /* \"#utility.yul\":10176:10182   */\n      dup5\n        /* \"#utility.yul\":10132:10204   */\n      tag_279\n      jump\t// in\n    tag_434:\n        /* \"#utility.yul\":9769:10211   */\n      swap5\n      swap4\n      pop\n      pop\n      pop\n      pop\n      jump\t// out\n        /* \"#utility.yul\":10217:10364   */\n    tag_306:\n        /* \"#utility.yul\":10318:10329   */\n      0x00\n        /* \"#utility.yul\":10355:10358   */\n      dup2\n        /* \"#utility.yul\":10340:10358   */\n      swap1\n      pop\n        /* \"#utility.yul\":10217:10364   */\n      swap3\n      swap2\n      pop\n      pop\n      jump\t// out\n        /* \"#utility.yul\":10370:10484   */\n    tag_307:\n      pop\n      jump\t// out\n        /* \"#utility.yul\":10490:10888   */\n    tag_308:\n        /* \"#utility.yul\":10649:10652   */\n      0x00\n        /* \"#utility.yul\":10670:10753   */\n      tag_438\n        /* \"#utility.yul\":10751:10752   */\n      0x00\n        /* \"#utility.yul\":10746:10749   */\n      dup4\n        /* \"#utility.yul\":10670:10753   */\n      tag_306\n      jump\t// in\n    tag_438:\n        /* \"#utility.yul\":10663:10753   */\n      swap2\n      pop\n        /* \"#utility.yul\":10762:10855   */\n      tag_439\n        /* \"#utility.yul\":10851:10854   */\n      dup3\n        /* \"#utility.yul\":10762:10855   */\n      tag_307\n      jump\t// in\n    tag_439:\n        /* \"#utility.yul\":10880:10881   */\n      0x00\n        /* \"#utility.yul\":10875:10878   */\n      dup3\n        /* \"#utility.yul\":10871:10882   */\n      add\n        /* \"#utility.yul\":10864:10882   */\n      swap1\n      pop\n        /* \"#utility.yul\":10490:10888   */\n      swap2\n      swap1\n      pop\n      jump\t// out\n        /* \"#utility.yul\":10894:11273   */\n    tag_253:\n        /* \"#utility.yul\":11078:11081   */\n      0x00\n        /* \"#utility.yul\":11100:11247   */\n      tag_441\n        /* \"#utility.yul\":11243:11246   */\n      dup3\n        /* \"#utility.yul\":11100:11247   */\n      tag_308\n      jump\t// in\n    tag_441:\n        /* \"#utility.yul\":11093:11247   */\n      swap2\n      pop\n        /* \"#utility.yul\":11264:11267   */\n      dup2\n        /* \"#utility.yul\":11257:11267   */\n      swap1\n      pop\n        /* \"#utility.yul\":10894:11273   */\n      swap2\n      swap1\n      pop\n      jump\t// out\n        /* \"#utility.yul\":11279:11611   */\n    tag_262:\n        /* \"#utility.yul\":11400:11404   */\n      0x00\n        /* \"#utility.yul\":11438:11440   */\n      0x40\n        /* \"#utility.yul\":11427:11436   */\n      dup3\n        /* \"#utility.yul\":11423:11441   */\n      add\n        /* \"#utility.yul\":11415:11441   */\n      swap1\n      pop\n        /* \"#utility.yul\":11451:11522   */\n      tag_443\n        /* \"#utility.yul\":11519:11520   */\n      0x00\n        /* \"#utility.yul\":11508:11517   */\n      dup4\n        /* \"#utility.yul\":11504:11521   */\n      add\n        /* \"#utility.yul\":11495:11501   */\n      dup6\n        /* \"#utility.yul\":11451:11522   */\n      tag_287\n      jump\t// in\n    tag_443:\n        /* \"#utility.yul\":11532:11604   */\n      tag_444\n        /* \"#utility.yul\":11600:11602   */\n      0x20\n        /* \"#utility.yul\":11589:11598   */\n      dup4\n        /* \"#utility.yul\":11585:11603   */\n      add\n        /* \"#utility.yul\":11576:11582   */\n      dup5\n        /* \"#utility.yul\":11532:11604   */\n      tag_279\n      jump\t// in\n    tag_444:\n        /* \"#utility.yul\":11279:11611   */\n      swap4\n      swap3\n      pop\n      pop\n      pop\n      jump\t// out\n\n    auxdata: 0xa264697066735822122046d6b86dba11917d3e4d836731b227f4cd01a4027b40bddab145bf3b9287ec5364736f6c634300081a0033\n}\n",
				"bytecode": {
					"linkReferences": {},
					"object": "60e060405234801561000f575f80fd5b506040516127b93803806127b983398181016040528101906100319190610299565b805f73ffffffffffffffffffffffffffffffffffffffff168173ffffffffffffffffffffffffffffffffffffffff16036100a2575f6040517f1e4fbdf7000000000000000000000000000000000000000000000000000000008152600401610099919061031f565b60405180910390fd5b6100b18161014760201b60201c565b506001808190555084608081815250508360a081815250508260025f6101000a81548173ffffffffffffffffffffffffffffffffffffffff021916908373ffffffffffffffffffffffffffffffffffffffff1602179055508173ffffffffffffffffffffffffffffffffffffffff1660c08173ffffffffffffffffffffffffffffffffffffffff16815250505050505050610338565b5f805f9054906101000a900473ffffffffffffffffffffffffffffffffffffffff169050815f806101000a81548173ffffffffffffffffffffffffffffffffffffffff021916908373ffffffffffffffffffffffffffffffffffffffff1602179055508173ffffffffffffffffffffffffffffffffffffffff168173ffffffffffffffffffffffffffffffffffffffff167f8be0079c531659141344cd1fd0a4f28419497f9722a3daafe3b4186f6b6457e060405160405180910390a35050565b5f80fd5b5f819050919050565b61021e8161020c565b8114610228575f80fd5b50565b5f8151905061023981610215565b92915050565b5f73ffffffffffffffffffffffffffffffffffffffff82169050919050565b5f6102688261023f565b9050919050565b6102788161025e565b8114610282575f80fd5b50565b5f815190506102938161026f565b92915050565b5f805f805f60a086880312156102b2576102b1610208565b5b5f6102bf8882890161022b565b95505060206102d08882890161022b565b94505060406102e188828901610285565b93505060606102f288828901610285565b925050608061030388828901610285565b9150509295509295909350565b6103198161025e565b82525050565b5f6020820190506103325f830184610310565b92915050565b60805160a05160c0516123b66104035f395f818161085001528181610a4e01528181610ac101528181610b5f01528181610bec0152818161111b015281816111ba0152818161129201528181611305015281816113a30152818161142f015281816114d0015261181001525f81816107ae015281816107ed01528181610dd701528181610e00015281816110550152818161107e015261155a01525f818161051c0152818161058d015281816105c601528181610977015281816109b0015261153701526123b65ff3fe60806040526004361061013f575f3560e01c80638da5cb5b116100b5578063d4289d891161006e578063d4289d891461040d578063d4b0d3ce14610438578063dccd58e314610462578063e98c66011461049e578063f2fde38b146104c8578063ff40e1d0146104f05761013f565b80638da5cb5b146102fd578063931fb90e14610327578063abc9cd6d1461034f578063b9eb1c9a1461037f578063c3b5bc22146103a9578063d30451e7146103e55761013f565b806331f7d9641161010757806331f7d964146102075780633eaa00fb14610231578063501cb72d1461025b578063698b724114610297578063715018a6146102bf57806382fe54b5146102d55761013f565b80630ccee4331461014357806316a1930f1461016d5780632230c272146101775780632b513163146101a15780632fda583e146101cb575b5f80fd5b34801561014e575f80fd5b5061015761051a565b6040516101649190611d9b565b60405180910390f35b61017561053e565b005b348015610182575f80fd5b5061018b6107a5565b6040516101989190611d9b565b60405180910390f35b3480156101ac575f80fd5b506101b56107ab565b6040516101c29190611d9b565b60405180910390f35b3480156101d6575f80fd5b506101f160048036038101906101ec9190611e12565b6107d2565b6040516101fe9190611d9b565b60405180910390f35b348015610212575f80fd5b5061021b6107e7565b6040516102289190611e4c565b60405180910390f35b34801561023c575f80fd5b506102456107eb565b6040516102529190611d9b565b60405180910390f35b348015610266575f80fd5b50610281600480360381019061027c9190611e12565b61080f565b60405161028e9190611d9b565b60405180910390f35b3480156102a2575f80fd5b506102bd60048036038101906102b89190611e8f565b610933565b005b3480156102ca575f80fd5b506102d3610c3d565b005b3480156102e0575f80fd5b506102fb60048036038101906102f69190611e8f565b610c50565b005b348015610308575f80fd5b50610311610fea565b60405161031e9190611e4c565b60405180910390f35b348015610332575f80fd5b5061034d60048036038101906103489190611e8f565b611011565b005b34801561035a575f80fd5b5061036361147f565b6040516103769796959493929190611eba565b60405180910390f35b34801561038a575f80fd5b50610393611584565b6040516103a09190611f82565b60405180910390f35b3480156103b4575f80fd5b506103cf60048036038101906103ca9190611f9b565b6115a9565b6040516103dc9190611d9b565b60405180910390f35b3480156103f0575f80fd5b5061040b60048036038101906104069190611e12565b61162b565b005b348015610418575f80fd5b506104216116b9565b60405161042f929190611fd9565b60405180910390f35b348015610443575f80fd5b5061044c61175e565b6040516104599190611d9b565b60405180910390f35b34801561046d575f80fd5b5061048860048036038101906104839190611f9b565b611764565b6040516104959190611d9b565b60405180910390f35b3480156104a9575f80fd5b506104b2611784565b6040516104bf9190611d9b565b60405180910390f35b3480156104d3575f80fd5b506104ee60048036038101906104e99190611e12565b61178a565b005b3480156104fb575f80fd5b5061050461180e565b6040516105119190612020565b60405180910390f35b7f000000000000000000000000000000000000000000000000000000000000000081565b610546611832565b5f340361057f576040517fe729dc6400000000000000000000000000000000000000000000000000000000815260040160405180910390fd5b5f61058934611878565b90507f0000000000000000000000000000000000000000000000000000000000000000816005546105ba9190612066565b111561062357600554817f00000000000000000000000000000000000000000000000000000000000000006040517fc9fe79b800000000000000000000000000000000000000000000000000000000815260040161061a93929190612099565b60405180910390fd5b8060035f3373ffffffffffffffffffffffffffffffffffffffff1673ffffffffffffffffffffffffffffffffffffffff1681526020019081526020015f205f8073ffffffffffffffffffffffffffffffffffffffff1673ffffffffffffffffffffffffffffffffffffffff1681526020019081526020015f205f8282546106aa9190612066565b925050819055508060045f8073ffffffffffffffffffffffffffffffffffffffff1673ffffffffffffffffffffffffffffffffffffffff1681526020019081526020015f205f8282546106fd9190612066565b925050819055508060055f8282546107159190612066565b9250508190555060065f81548092919061072e906120ce565b91905055505f73ffffffffffffffffffffffffffffffffffffffff163373ffffffffffffffffffffffffffffffffffffffff167f751f8b54c0e32ef5b9fafdbdac0c93c1994cc8848fa17ed7798bd90aae8bfe9b3484604051610792929190611fd9565b60405180910390a3506107a36118ac565b565b60065481565b5f7f0000000000000000000000000000000000000000000000000000000000000000905090565b6004602052805f5260405f205f915090505481565b5f81565b7f000000000000000000000000000000000000000000000000000000000000000081565b5f60035f8373ffffffffffffffffffffffffffffffffffffffff1673ffffffffffffffffffffffffffffffffffffffff1681526020019081526020015f205f7f000000000000000000000000000000000000000000000000000000000000000073ffffffffffffffffffffffffffffffffffffffff1673ffffffffffffffffffffffffffffffffffffffff1681526020019081526020015f205460035f8473ffffffffffffffffffffffffffffffffffffffff1673ffffffffffffffffffffffffffffffffffffffff1681526020019081526020015f205f8073ffffffffffffffffffffffffffffffffffffffff1673ffffffffffffffffffffffffffffffffffffffff1681526020019081526020015f205461092c9190612066565b9050919050565b61093b611832565b805f8103610975576040517fe729dc6400000000000000000000000000000000000000000000000000000000815260040160405180910390fd5b7f0000000000000000000000000000000000000000000000000000000000000000826005546109a49190612066565b1115610a0d57600554827f00000000000000000000000000000000000000000000000000000000000000006040517fc9fe79b8000000000000000000000000000000000000000000000000000000008152600401610a0493929190612099565b60405180910390fd5b8160035f3373ffffffffffffffffffffffffffffffffffffffff1673ffffffffffffffffffffffffffffffffffffffff1681526020019081526020015f205f7f000000000000000000000000000000000000000000000000000000000000000073ffffffffffffffffffffffffffffffffffffffff1673ffffffffffffffffffffffffffffffffffffffff1681526020019081526020015f205f828254610ab49190612066565b925050819055508160045f7f000000000000000000000000000000000000000000000000000000000000000073ffffffffffffffffffffffffffffffffffffffff1673ffffffffffffffffffffffffffffffffffffffff1681526020019081526020015f205f828254610b279190612066565b925050819055508160055f828254610b3f9190612066565b9250508190555060065f815480929190610b58906120ce565b91905055507f000000000000000000000000000000000000000000000000000000000000000073ffffffffffffffffffffffffffffffffffffffff163373ffffffffffffffffffffffffffffffffffffffff167f751f8b54c0e32ef5b9fafdbdac0c93c1994cc8848fa17ed7798bd90aae8bfe9b8485604051610bdc929190611fd9565b60405180910390a3610c313330847f000000000000000000000000000000000000000000000000000000000000000073ffffffffffffffffffffffffffffffffffffffff166118b5909392919063ffffffff16565b50610c3a6118ac565b50565b610c45611937565b610c4e5f6119be565b565b610c58611832565b805f8103610c92576040517fe729dc6400000000000000000000000000000000000000000000000000000000815260040160405180910390fd5b5f610c9c83611878565b90508060035f3373ffffffffffffffffffffffffffffffffffffffff1673ffffffffffffffffffffffffffffffffffffffff1681526020019081526020015f205f8073ffffffffffffffffffffffffffffffffffffffff1673ffffffffffffffffffffffffffffffffffffffff1681526020019081526020015f20541015610dd55760035f3373ffffffffffffffffffffffffffffffffffffffff1673ffffffffffffffffffffffffffffffffffffffff1681526020019081526020015f205f8073ffffffffffffffffffffffffffffffffffffffff1673ffffffffffffffffffffffffffffffffffffffff1681526020019081526020015f2054816040517f3b286365000000000000000000000000000000000000000000000000000000008152600401610dcc929190611fd9565b60405180910390fd5b7f0000000000000000000000000000000000000000000000000000000000000000811115610e5c57807f00000000000000000000000000000000000000000000000000000000000000006040517fd1ecfb73000000000000000000000000000000000000000000000000000000008152600401610e53929190611fd9565b60405180910390fd5b8060035f3373ffffffffffffffffffffffffffffffffffffffff1673ffffffffffffffffffffffffffffffffffffffff1681526020019081526020015f205f8073ffffffffffffffffffffffffffffffffffffffff1673ffffffffffffffffffffffffffffffffffffffff1681526020019081526020015f205f828254610ee39190612115565b925050819055508060045f8073ffffffffffffffffffffffffffffffffffffffff1673ffffffffffffffffffffffffffffffffffffffff1681526020019081526020015f205f828254610f369190612115565b925050819055508060055f828254610f4e9190612115565b9250508190555060075f815480929190610f67906120ce565b91905055505f73ffffffffffffffffffffffffffffffffffffffff163373ffffffffffffffffffffffffffffffffffffffff167fc6acb54bdd58af37c8d1b8bf2f1a561163c5191551bbd6e74cce66ff7b670c778584604051610fcb929190611fd9565b60405180910390a3610fdd3384611a7f565b5050610fe76118ac565b50565b5f805f9054906101000a900473ffffffffffffffffffffffffffffffffffffffff16905090565b611019611832565b805f8103611053576040517fe729dc6400000000000000000000000000000000000000000000000000000000815260040160405180910390fd5b7f00000000000000000000000000000000000000000000000000000000000000008211156110da57817f00000000000000000000000000000000000000000000000000000000000000006040517fd1ecfb730000000000000000000000000000000000000000000000000000000081526004016110d1929190611fd9565b60405180910390fd5b8160035f3373ffffffffffffffffffffffffffffffffffffffff1673ffffffffffffffffffffffffffffffffffffffff1681526020019081526020015f205f7f000000000000000000000000000000000000000000000000000000000000000073ffffffffffffffffffffffffffffffffffffffff1673ffffffffffffffffffffffffffffffffffffffff1681526020019081526020015f205410156112515760035f3373ffffffffffffffffffffffffffffffffffffffff1673ffffffffffffffffffffffffffffffffffffffff1681526020019081526020015f205f7f000000000000000000000000000000000000000000000000000000000000000073ffffffffffffffffffffffffffffffffffffffff1673ffffffffffffffffffffffffffffffffffffffff1681526020019081526020015f2054826040517f3b286365000000000000000000000000000000000000000000000000000000008152600401611248929190611fd9565b60405180910390fd5b8160035f3373ffffffffffffffffffffffffffffffffffffffff1673ffffffffffffffffffffffffffffffffffffffff1681526020019081526020015f205f7f000000000000000000000000000000000000000000000000000000000000000073ffffffffffffffffffffffffffffffffffffffff1673ffffffffffffffffffffffffffffffffffffffff1681526020019081526020015f205f8282546112f89190612115565b925050819055508160045f7f000000000000000000000000000000000000000000000000000000000000000073ffffffffffffffffffffffffffffffffffffffff1673ffffffffffffffffffffffffffffffffffffffff1681526020019081526020015f205f82825461136b9190612115565b925050819055508160055f8282546113839190612115565b9250508190555060075f81548092919061139c906120ce565b91905055507f000000000000000000000000000000000000000000000000000000000000000073ffffffffffffffffffffffffffffffffffffffff163373ffffffffffffffffffffffffffffffffffffffff167fc6acb54bdd58af37c8d1b8bf2f1a561163c5191551bbd6e74cce66ff7b670c778485604051611420929190611fd9565b60405180910390a361147333837f000000000000000000000000000000000000000000000000000000000000000073ffffffffffffffffffffffffffffffffffffffff16611b2e9092919063ffffffff16565b5061147c6118ac565b50565b5f805f805f805f600554965060045f8073ffffffffffffffffffffffffffffffffffffffff1673ffffffffffffffffffffffffffffffffffffffff1681526020019081526020015f2054955060045f7f000000000000000000000000000000000000000000000000000000000000000073ffffffffffffffffffffffffffffffffffffffff1673ffffffffffffffffffffffffffffffffffffffff1681526020019081526020015f20549450600654935060075492507f000000000000000000000000000000000000000000000000000000000000000091507f0000000000000000000000000000000000000000000000000000000000000000905090919293949596565b60025f9054906101000a900473ffffffffffffffffffffffffffffffffffffffff1681565b5f60035f8473ffffffffffffffffffffffffffffffffffffffff1673ffffffffffffffffffffffffffffffffffffffff1681526020019081526020015f205f8373ffffffffffffffffffffffffffffffffffffffff1673ffffffffffffffffffffffffffffffffffffffff1681526020019081526020015f2054905092915050565b611633611937565b8060025f6101000a81548173ffffffffffffffffffffffffffffffffffffffff021916908373ffffffffffffffffffffffffffffffffffffffff1602179055508073ffffffffffffffffffffffffffffffffffffffff167f2b87a7a05493a7865dadc5afbb6cedfda3c32f20196d8f45314afa7b32b9401260405160405180910390a250565b5f805f8060025f9054906101000a900473ffffffffffffffffffffffffffffffffffffffff1673ffffffffffffffffffffffffffffffffffffffff1663feaf968c6040518163ffffffff1660e01b815260040160a060405180830381865afa158015611727573d5f803e3d5ffd5b505050506040513d601f19601f8201168201806040525081019061174b91906121ce565b5093505092505081935080925050509091565b60075481565b6003602052815f5260405f20602052805f5260405f205f91509150505481565b60055481565b611792611937565b5f73ffffffffffffffffffffffffffffffffffffffff168173ffffffffffffffffffffffffffffffffffffffff1603611802575f6040517f1e4fbdf70000000000000000000000000000000000000000000000000000000081526004016117f99190611e4c565b60405180910390fd5b61180b816119be565b50565b7f000000000000000000000000000000000000000000000000000000000000000081565b60026001540361186e576040517f3ee5aeb500000000000000000000000000000000000000000000000000000000815260040160405180910390fd5b6002600181905550565b5f80611882611bad565b905068056bc75e2d63100000818461189a9190612245565b6118a491906122b3565b915050919050565b60018081905550565b611931848573ffffffffffffffffffffffffffffffffffffffff166323b872dd8686866040516024016118ea939291906122e3565b604051602081830303815290604052915060e01b6020820180517bffffffffffffffffffffffffffffffffffffffffffffffffffffffff8381831617835250505050611ce1565b50505050565b61193f611d7c565b73ffffffffffffffffffffffffffffffffffffffff1661195d610fea565b73ffffffffffffffffffffffffffffffffffffffff16146119bc57611980611d7c565b6040517f118cdaa70000000000000000000000000000000000000000000000000000000081526004016119b39190611e4c565b60405180910390fd5b565b5f805f9054906101000a900473ffffffffffffffffffffffffffffffffffffffff169050815f806101000a81548173ffffffffffffffffffffffffffffffffffffffff021916908373ffffffffffffffffffffffffffffffffffffffff1602179055508173ffffffffffffffffffffffffffffffffffffffff168173ffffffffffffffffffffffffffffffffffffffff167f8be0079c531659141344cd1fd0a4f28419497f9722a3daafe3b4186f6b6457e060405160405180910390a35050565b5f8273ffffffffffffffffffffffffffffffffffffffff1682604051611aa490612345565b5f6040518083038185875af1925050503d805f8114611ade576040519150601f19603f3d011682016040523d82523d5f602084013e611ae3565b606091505b5050905080611b2957826040517f71404a42000000000000000000000000000000000000000000000000000000008152600401611b209190611e4c565b60405180910390fd5b505050565b611ba8838473ffffffffffffffffffffffffffffffffffffffff1663a9059cbb8585604051602401611b61929190612359565b604051602081830303815290604052915060e01b6020820180517bffffffffffffffffffffffffffffffffffffffffffffffffffffffff8381831617835250505050611ce1565b505050565b5f805f60025f9054906101000a900473ffffffffffffffffffffffffffffffffffffffff1673ffffffffffffffffffffffffffffffffffffffff1663feaf968c6040518163ffffffff1660e01b815260040160a060405180830381865afa158015611c1a573d5f803e3d5ffd5b505050506040513d601f19601f82011682018060405250810190611c3e91906121ce565b509350509250505f8213611c7e576040517f63f585c200000000000000000000000000000000000000000000000000000000815260040160405180910390fd5b5f8142611c8b9190612115565b9050610e10811115611cd85780610e106040517f74937df3000000000000000000000000000000000000000000000000000000008152600401611ccf929190611fd9565b60405180910390fd5b82935050505090565b5f8060205f8451602086015f885af180611d00576040513d5f823e3d81fd5b3d92505f519150505f8214611d19576001811415611d34565b5f8473ffffffffffffffffffffffffffffffffffffffff163b145b15611d7657836040517f5274afe7000000000000000000000000000000000000000000000000000000008152600401611d6d9190611e4c565b60405180910390fd5b50505050565b5f33905090565b5f819050919050565b611d9581611d83565b82525050565b5f602082019050611dae5f830184611d8c565b92915050565b5f80fd5b5f73ffffffffffffffffffffffffffffffffffffffff82169050919050565b5f611de182611db8565b9050919050565b611df181611dd7565b8114611dfb575f80fd5b50565b5f81359050611e0c81611de8565b92915050565b5f60208284031215611e2757611e26611db4565b5b5f611e3484828501611dfe565b91505092915050565b611e4681611dd7565b82525050565b5f602082019050611e5f5f830184611e3d565b92915050565b611e6e81611d83565b8114611e78575f80fd5b50565b5f81359050611e8981611e65565b92915050565b5f60208284031215611ea457611ea3611db4565b5b5f611eb184828501611e7b565b91505092915050565b5f60e082019050611ecd5f83018a611d8c565b611eda6020830189611d8c565b611ee76040830188611d8c565b611ef46060830187611d8c565b611f016080830186611d8c565b611f0e60a0830185611d8c565b611f1b60c0830184611d8c565b98975050505050505050565b5f819050919050565b5f611f4a611f45611f4084611db8565b611f27565b611db8565b9050919050565b5f611f5b82611f30565b9050919050565b5f611f6c82611f51565b9050919050565b611f7c81611f62565b82525050565b5f602082019050611f955f830184611f73565b92915050565b5f8060408385031215611fb157611fb0611db4565b5b5f611fbe85828601611dfe565b9250506020611fcf85828601611dfe565b9150509250929050565b5f604082019050611fec5f830185611d8c565b611ff96020830184611d8c565b9392505050565b5f61200a82611f51565b9050919050565b61201a81612000565b82525050565b5f6020820190506120335f830184612011565b92915050565b7f4e487b71000000000000000000000000000000000000000000000000000000005f52601160045260245ffd5b5f61207082611d83565b915061207b83611d83565b925082820190508082111561209357612092612039565b5b92915050565b5f6060820190506120ac5f830186611d8c565b6120b96020830185611d8c565b6120c66040830184611d8c565b949350505050565b5f6120d882611d83565b91507fffffffffffffffffffffffffffffffffffffffffffffffffffffffffffffffff820361210a57612109612039565b5b600182019050919050565b5f61211f82611d83565b915061212a83611d83565b925082820390508181111561214257612141612039565b5b92915050565b5f69ffffffffffffffffffff82169050919050565b61216681612148565b8114612170575f80fd5b50565b5f815190506121818161215d565b92915050565b5f819050919050565b61219981612187565b81146121a3575f80fd5b50565b5f815190506121b481612190565b92915050565b5f815190506121c881611e65565b92915050565b5f805f805f60a086880312156121e7576121e6611db4565b5b5f6121f488828901612173565b9550506020612205888289016121a6565b9450506040612216888289016121ba565b9350506060612227888289016121ba565b925050608061223888828901612173565b9150509295509295909350565b5f61224f82611d83565b915061225a83611d83565b925082820261226881611d83565b9150828204841483151761227f5761227e612039565b5b5092915050565b7f4e487b71000000000000000000000000000000000000000000000000000000005f52601260045260245ffd5b5f6122bd82611d83565b91506122c883611d83565b9250826122d8576122d7612286565b5b828204905092915050565b5f6060820190506122f65f830186611e3d565b6123036020830185611e3d565b6123106040830184611d8c565b949350505050565b5f81905092915050565b50565b5f6123305f83612318565b915061233b82612322565b5f82019050919050565b5f61234f82612325565b9150819050919050565b5f60408201905061236c5f830185611e3d565b6123796020830184611d8c565b939250505056fea264697066735822122046d6b86dba11917d3e4d836731b227f4cd01a4027b40bddab145bf3b9287ec5364736f6c634300081a0033",
					"opcodes": "PUSH1 0xE0 PUSH1 0x40 MSTORE CALLVALUE DUP1 ISZERO PUSH2 0xF JUMPI PUSH0 DUP1 REVERT JUMPDEST POP PUSH1 0x40 MLOAD PUSH2 0x27B9 CODESIZE SUB DUP1 PUSH2 0x27B9 DUP4 CODECOPY DUP2 DUP2 ADD PUSH1 0x40 MSTORE DUP2 ADD SWAP1 PUSH2 0x31 SWAP2 SWAP1 PUSH2 0x299 JUMP JUMPDEST DUP1 PUSH0 PUSH20 0xFFFFFFFFFFFFFFFFFFFFFFFFFFFFFFFFFFFFFFFF AND DUP2 PUSH20 0xFFFFFFFFFFFFFFFFFFFFFFFFFFFFFFFFFFFFFFFF AND SUB PUSH2 0xA2 JUMPI PUSH0 PUSH1 0x40 MLOAD PUSH32 0x1E4FBDF700000000000000000000000000000000000000000000000000000000 DUP2 MSTORE PUSH1 0x4 ADD PUSH2 0x99 SWAP2 SWAP1 PUSH2 0x31F JUMP JUMPDEST PUSH1 0x40 MLOAD DUP1 SWAP2 SUB SWAP1 REVERT JUMPDEST PUSH2 0xB1 DUP2 PUSH2 0x147 PUSH1 0x20 SHL PUSH1 0x20 SHR JUMP JUMPDEST POP PUSH1 0x1 DUP1 DUP2 SWAP1 SSTORE POP DUP5 PUSH1 0x80 DUP2 DUP2 MSTORE POP POP DUP4 PUSH1 0xA0 DUP2 DUP2 MSTORE POP POP DUP3 PUSH1 0x2 PUSH0 PUSH2 0x100 EXP DUP2 SLOAD DUP2 PUSH20 0xFFFFFFFFFFFFFFFFFFFFFFFFFFFFFFFFFFFFFFFF MUL NOT AND SWAP1 DUP4 PUSH20 0xFFFFFFFFFFFFFFFFFFFFFFFFFFFFFFFFFFFFFFFF AND MUL OR SWAP1 SSTORE POP DUP2 PUSH20 0xFFFFFFFFFFFFFFFFFFFFFFFFFFFFFFFFFFFFFFFF AND PUSH1 0xC0 DUP2 PUSH20 0xFFFFFFFFFFFFFFFFFFFFFFFFFFFFFFFFFFFFFFFF AND DUP2 MSTORE POP POP POP POP POP POP POP PUSH2 0x338 JUMP JUMPDEST PUSH0 DUP1 PUSH0 SWAP1 SLOAD SWAP1 PUSH2 0x100 EXP SWAP1 DIV PUSH20 0xFFFFFFFFFFFFFFFFFFFFFFFFFFFFFFFFFFFFFFFF AND SWAP1 POP DUP2 PUSH0 DUP1 PUSH2 0x100 EXP DUP2 SLOAD DUP2 PUSH20 0xFFFFFFFFFFFFFFFFFFFFFFFFFFFFFFFFFFFFFFFF MUL NOT AND SWAP1 DUP4 PUSH20 0xFFFFFFFFFFFFFFFFFFFFFFFFFFFFFFFFFFFFFFFF AND MUL OR SWAP1 SSTORE POP DUP2 PUSH20 0xFFFFFFFFFFFFFFFFFFFFFFFFFFFFFFFFFFFFFFFF AND DUP2 PUSH20 0xFFFFFFFFFFFFFFFFFFFFFFFFFFFFFFFFFFFFFFFF AND PUSH32 0x8BE0079C531659141344CD1FD0A4F28419497F9722A3DAAFE3B4186F6B6457E0 PUSH1 0x40 MLOAD PUSH1 0x40 MLOAD DUP1 SWAP2 SUB SWAP1 LOG3 POP POP JUMP JUMPDEST PUSH0 DUP1 REVERT JUMPDEST PUSH0 DUP2 SWAP1 POP SWAP2 SWAP1 POP JUMP JUMPDEST PUSH2 0x21E DUP2 PUSH2 0x20C JUMP JUMPDEST DUP2 EQ PUSH2 0x228 JUMPI PUSH0 DUP1 REVERT JUMPDEST POP JUMP JUMPDEST PUSH0 DUP2 MLOAD SWAP1 POP PUSH2 0x239 DUP2 PUSH2 0x215 JUMP JUMPDEST SWAP3 SWAP2 POP POP JUMP JUMPDEST PUSH0 PUSH20 0xFFFFFFFFFFFFFFFFFFFFFFFFFFFFFFFFFFFFFFFF DUP3 AND SWAP1 POP SWAP2 SWAP1 POP JUMP JUMPDEST PUSH0 PUSH2 0x268 DUP3 PUSH2 0x23F JUMP JUMPDEST SWAP1 POP SWAP2 SWAP1 POP JUMP JUMPDEST PUSH2 0x278 DUP2 PUSH2 0x25E JUMP JUMPDEST DUP2 EQ PUSH2 0x282 JUMPI PUSH0 DUP1 REVERT JUMPDEST POP JUMP JUMPDEST PUSH0 DUP2 MLOAD SWAP1 POP PUSH2 0x293 DUP2 PUSH2 0x26F JUMP JUMPDEST SWAP3 SWAP2 POP POP JUMP JUMPDEST PUSH0 DUP1 PUSH0 DUP1 PUSH0 PUSH1 0xA0 DUP7 DUP9 SUB SLT ISZERO PUSH2 0x2B2 JUMPI PUSH2 0x2B1 PUSH2 0x208 JUMP JUMPDEST JUMPDEST PUSH0 PUSH2 0x2BF DUP9 DUP3 DUP10 ADD PUSH2 0x22B JUMP JUMPDEST SWAP6 POP POP PUSH1 0x20 PUSH2 0x2D0 DUP9 DUP3 DUP10 ADD PUSH2 0x22B JUMP JUMPDEST SWAP5 POP POP PUSH1 0x40 PUSH2 0x2E1 DUP9 DUP3 DUP10 ADD PUSH2 0x285 JUMP JUMPDEST SWAP4 POP POP PUSH1 0x60 PUSH2 0x2F2 DUP9 DUP3 DUP10 ADD PUSH2 0x285 JUMP JUMPDEST SWAP3 POP POP PUSH1 0x80 PUSH2 0x303 DUP9 DUP3 DUP10 ADD PUSH2 0x285 JUMP JUMPDEST SWAP2 POP POP SWAP3 SWAP6 POP SWAP3 SWAP6 SWAP1 SWAP4 POP JUMP JUMPDEST PUSH2 0x319 DUP2 PUSH2 0x25E JUMP JUMPDEST DUP3 MSTORE POP POP JUMP JUMPDEST PUSH0 PUSH1 0x20 DUP3 ADD SWAP1 POP PUSH2 0x332 PUSH0 DUP4 ADD DUP5 PUSH2 0x310 JUMP JUMPDEST SWAP3 SWAP2 POP POP JUMP JUMPDEST PUSH1 0x80 MLOAD PUSH1 0xA0 MLOAD PUSH1 0xC0 MLOAD PUSH2 0x23B6 PUSH2 0x403 PUSH0 CODECOPY PUSH0 DUP2 DUP2 PUSH2 0x850 ADD MSTORE DUP2 DUP2 PUSH2 0xA4E ADD MSTORE DUP2 DUP2 PUSH2 0xAC1 ADD MSTORE DUP2 DUP2 PUSH2 0xB5F ADD MSTORE DUP2 DUP2 PUSH2 0xBEC ADD MSTORE DUP2 DUP2 PUSH2 0x111B ADD MSTORE DUP2 DUP2 PUSH2 0x11BA ADD MSTORE DUP2 DUP2 PUSH2 0x1292 ADD MSTORE DUP2 DUP2 PUSH2 0x1305 ADD MSTORE DUP2 DUP2 PUSH2 0x13A3 ADD MSTORE DUP2 DUP2 PUSH2 0x142F ADD MSTORE DUP2 DUP2 PUSH2 0x14D0 ADD MSTORE PUSH2 0x1810 ADD MSTORE PUSH0 DUP2 DUP2 PUSH2 0x7AE ADD MSTORE DUP2 DUP2 PUSH2 0x7ED ADD MSTORE DUP2 DUP2 PUSH2 0xDD7 ADD MSTORE DUP2 DUP2 PUSH2 0xE00 ADD MSTORE DUP2 DUP2 PUSH2 0x1055 ADD MSTORE DUP2 DUP2 PUSH2 0x107E ADD MSTORE PUSH2 0x155A ADD MSTORE PUSH0 DUP2 DUP2 PUSH2 0x51C ADD MSTORE DUP2 DUP2 PUSH2 0x58D ADD MSTORE DUP2 DUP2 PUSH2 0x5C6 ADD MSTORE DUP2 DUP2 PUSH2 0x977 ADD MSTORE DUP2 DUP2 PUSH2 0x9B0 ADD MSTORE PUSH2 0x1537 ADD MSTORE PUSH2 0x23B6 PUSH0 RETURN INVALID PUSH1 0x80 PUSH1 0x40 MSTORE PUSH1 0x4 CALLDATASIZE LT PUSH2 0x13F JUMPI PUSH0 CALLDATALOAD PUSH1 0xE0 SHR DUP1 PUSH4 0x8DA5CB5B GT PUSH2 0xB5 JUMPI DUP1 PUSH4 0xD4289D89 GT PUSH2 0x6E JUMPI DUP1 PUSH4 0xD4289D89 EQ PUSH2 0x40D JUMPI DUP1 PUSH4 0xD4B0D3CE EQ PUSH2 0x438 JUMPI DUP1 PUSH4 0xDCCD58E3 EQ PUSH2 0x462 JUMPI DUP1 PUSH4 0xE98C6601 EQ PUSH2 0x49E JUMPI DUP1 PUSH4 0xF2FDE38B EQ PUSH2 0x4C8 JUMPI DUP1 PUSH4 0xFF40E1D0 EQ PUSH2 0x4F0 JUMPI PUSH2 0x13F JUMP JUMPDEST DUP1 PUSH4 0x8DA5CB5B EQ PUSH2 0x2FD JUMPI DUP1 PUSH4 0x931FB90E EQ PUSH2 0x327 JUMPI DUP1 PUSH4 0xABC9CD6D EQ PUSH2 0x34F JUMPI DUP1 PUSH4 0xB9EB1C9A EQ PUSH2 0x37F JUMPI DUP1 PUSH4 0xC3B5BC22 EQ PUSH2 0x3A9 JUMPI DUP1 PUSH4 0xD30451E7 EQ PUSH2 0x3E5 JUMPI PUSH2 0x13F JUMP JUMPDEST DUP1 PUSH4 0x31F7D964 GT PUSH2 0x107 JUMPI DUP1 PUSH4 0x31F7D964 EQ PUSH2 0x207 JUMPI DUP1 PUSH4 0x3EAA00FB EQ PUSH2 0x231 JUMPI DUP1 PUSH4 0x501CB72D EQ PUSH2 0x25B JUMPI DUP1 PUSH4 0x698B7241 EQ PUSH2 0x297 JUMPI DUP1 PUSH4 0x715018A6 EQ PUSH2 0x2BF JUMPI DUP1 PUSH4 0x82FE54B5 EQ PUSH2 0x2D5 JUMPI PUSH2 0x13F JUMP JUMPDEST DUP1 PUSH4 0xCCEE433 EQ PUSH2 0x143 JUMPI DUP1 PUSH4 0x16A1930F EQ PUSH2 0x16D JUMPI DUP1 PUSH4 0x2230C272 EQ PUSH2 0x177 JUMPI DUP1 PUSH4 0x2B513163 EQ PUSH2 0x1A1 JUMPI DUP1 PUSH4 0x2FDA583E EQ PUSH2 0x1CB JUMPI JUMPDEST PUSH0 DUP1 REVERT JUMPDEST CALLVALUE DUP1 ISZERO PUSH2 0x14E JUMPI PUSH0 DUP1 REVERT JUMPDEST POP PUSH2 0x157 PUSH2 0x51A JUMP JUMPDEST PUSH1 0x40 MLOAD PUSH2 0x164 SWAP2 SWAP1 PUSH2 0x1D9B JUMP JUMPDEST PUSH1 0x40 MLOAD DUP1 SWAP2 SUB SWAP1 RETURN JUMPDEST PUSH2 0x175 PUSH2 0x53E JUMP JUMPDEST STOP JUMPDEST CALLVALUE DUP1 ISZERO PUSH2 0x182 JUMPI PUSH0 DUP1 REVERT JUMPDEST POP PUSH2 0x18B PUSH2 0x7A5 JUMP JUMPDEST PUSH1 0x40 MLOAD PUSH2 0x198 SWAP2 SWAP1 PUSH2 0x1D9B JUMP JUMPDEST PUSH1 0x40 MLOAD DUP1 SWAP2 SUB SWAP1 RETURN JUMPDEST CALLVALUE DUP1 ISZERO PUSH2 0x1AC JUMPI PUSH0 DUP1 REVERT JUMPDEST POP PUSH2 0x1B5 PUSH2 0x7AB JUMP JUMPDEST PUSH1 0x40 MLOAD PUSH2 0x1C2 SWAP2 SWAP1 PUSH2 0x1D9B JUMP JUMPDEST PUSH1 0x40 MLOAD DUP1 SWAP2 SUB SWAP1 RETURN JUMPDEST CALLVALUE DUP1 ISZERO PUSH2 0x1D6 JUMPI PUSH0 DUP1 REVERT JUMPDEST POP PUSH2 0x1F1 PUSH1 0x4 DUP1 CALLDATASIZE SUB DUP2 ADD SWAP1 PUSH2 0x1EC SWAP2 SWAP1 PUSH2 0x1E12 JUMP JUMPDEST PUSH2 0x7D2 JUMP JUMPDEST PUSH1 0x40 MLOAD PUSH2 0x1FE SWAP2 SWAP1 PUSH2 0x1D9B JUMP JUMPDEST PUSH1 0x40 MLOAD DUP1 SWAP2 SUB SWAP1 RETURN JUMPDEST CALLVALUE DUP1 ISZERO PUSH2 0x212 JUMPI PUSH0 DUP1 REVERT JUMPDEST POP PUSH2 0x21B PUSH2 0x7E7 JUMP JUMPDEST PUSH1 0x40 MLOAD PUSH2 0x228 SWAP2 SWAP1 PUSH2 0x1E4C JUMP JUMPDEST PUSH1 0x40 MLOAD DUP1 SWAP2 SUB SWAP1 RETURN JUMPDEST CALLVALUE DUP1 ISZERO PUSH2 0x23C JUMPI PUSH0 DUP1 REVERT JUMPDEST POP PUSH2 0x245 PUSH2 0x7EB JUMP JUMPDEST PUSH1 0x40 MLOAD PUSH2 0x252 SWAP2 SWAP1 PUSH2 0x1D9B JUMP JUMPDEST PUSH1 0x40 MLOAD DUP1 SWAP2 SUB SWAP1 RETURN JUMPDEST CALLVALUE DUP1 ISZERO PUSH2 0x266 JUMPI PUSH0 DUP1 REVERT JUMPDEST POP PUSH2 0x281 PUSH1 0x4 DUP1 CALLDATASIZE SUB DUP2 ADD SWAP1 PUSH2 0x27C SWAP2 SWAP1 PUSH2 0x1E12 JUMP JUMPDEST PUSH2 0x80F JUMP JUMPDEST PUSH1 0x40 MLOAD PUSH2 0x28E SWAP2 SWAP1 PUSH2 0x1D9B JUMP JUMPDEST PUSH1 0x40 MLOAD DUP1 SWAP2 SUB SWAP1 RETURN JUMPDEST CALLVALUE DUP1 ISZERO PUSH2 0x2A2 JUMPI PUSH0 DUP1 REVERT JUMPDEST POP PUSH2 0x2BD PUSH1 0x4 DUP1 CALLDATASIZE SUB DUP2 ADD SWAP1 PUSH2 0x2B8 SWAP2 SWAP1 PUSH2 0x1E8F JUMP JUMPDEST PUSH2 0x933 JUMP JUMPDEST STOP JUMPDEST CALLVALUE DUP1 ISZERO PUSH2 0x2CA JUMPI PUSH0 DUP1 REVERT JUMPDEST POP PUSH2 0x2D3 PUSH2 0xC3D JUMP JUMPDEST STOP JUMPDEST CALLVALUE DUP1 ISZERO PUSH2 0x2E0 JUMPI PUSH0 DUP1 REVERT JUMPDEST POP PUSH2 0x2FB PUSH1 0x4 DUP1 CALLDATASIZE SUB DUP2 ADD SWAP1 PUSH2 0x2F6 SWAP2 SWAP1 PUSH2 0x1E8F JUMP JUMPDEST PUSH2 0xC50 JUMP JUMPDEST STOP JUMPDEST CALLVALUE DUP1 ISZERO PUSH2 0x308 JUMPI PUSH0 DUP1 REVERT JUMPDEST POP PUSH2 0x311 PUSH2 0xFEA JUMP JUMPDEST PUSH1 0x40 MLOAD PUSH2 0x31E SWAP2 SWAP1 PUSH2 0x1E4C JUMP JUMPDEST PUSH1 0x40 MLOAD DUP1 SWAP2 SUB SWAP1 RETURN JUMPDEST CALLVALUE DUP1 ISZERO PUSH2 0x332 JUMPI PUSH0 DUP1 REVERT JUMPDEST POP PUSH2 0x34D PUSH1 0x4 DUP1 CALLDATASIZE SUB DUP2 ADD SWAP1 PUSH2 0x348 SWAP2 SWAP1 PUSH2 0x1E8F JUMP JUMPDEST PUSH2 0x1011 JUMP JUMPDEST STOP JUMPDEST CALLVALUE DUP1 ISZERO PUSH2 0x35A JUMPI PUSH0 DUP1 REVERT JUMPDEST POP PUSH2 0x363 PUSH2 0x147F JUMP JUMPDEST PUSH1 0x40 MLOAD PUSH2 0x376 SWAP8 SWAP7 SWAP6 SWAP5 SWAP4 SWAP3 SWAP2 SWAP1 PUSH2 0x1EBA JUMP JUMPDEST PUSH1 0x40 MLOAD DUP1 SWAP2 SUB SWAP1 RETURN JUMPDEST CALLVALUE DUP1 ISZERO PUSH2 0x38A JUMPI PUSH0 DUP1 REVERT JUMPDEST POP PUSH2 0x393 PUSH2 0x1584 JUMP JUMPDEST PUSH1 0x40 MLOAD PUSH2 0x3A0 SWAP2 SWAP1 PUSH2 0x1F82 JUMP JUMPDEST PUSH1 0x40 MLOAD DUP1 SWAP2 SUB SWAP1 RETURN JUMPDEST CALLVALUE DUP1 ISZERO PUSH2 0x3B4 JUMPI PUSH0 DUP1 REVERT JUMPDEST POP PUSH2 0x3CF PUSH1 0x4 DUP1 CALLDATASIZE SUB DUP2 ADD SWAP1 PUSH2 0x3CA SWAP2 SWAP1 PUSH2 0x1F9B JUMP JUMPDEST PUSH2 0x15A9 JUMP JUMPDEST PUSH1 0x40 MLOAD PUSH2 0x3DC SWAP2 SWAP1 PUSH2 0x1D9B JUMP JUMPDEST PUSH1 0x40 MLOAD DUP1 SWAP2 SUB SWAP1 RETURN JUMPDEST CALLVALUE DUP1 ISZERO PUSH2 0x3F0 JUMPI PUSH0 DUP1 REVERT JUMPDEST POP PUSH2 0x40B PUSH1 0x4 DUP1 CALLDATASIZE SUB DUP2 ADD SWAP1 PUSH2 0x406 SWAP2 SWAP1 PUSH2 0x1E12 JUMP JUMPDEST PUSH2 0x162B JUMP JUMPDEST STOP JUMPDEST CALLVALUE DUP1 ISZERO PUSH2 0x418 JUMPI PUSH0 DUP1 REVERT JUMPDEST POP PUSH2 0x421 PUSH2 0x16B9 JUMP JUMPDEST PUSH1 0x40 MLOAD PUSH2 0x42F SWAP3 SWAP2 SWAP1 PUSH2 0x1FD9 JUMP JUMPDEST PUSH1 0x40 MLOAD DUP1 SWAP2 SUB SWAP1 RETURN JUMPDEST CALLVALUE DUP1 ISZERO PUSH2 0x443 JUMPI PUSH0 DUP1 REVERT JUMPDEST POP PUSH2 0x44C PUSH2 0x175E JUMP JUMPDEST PUSH1 0x40 MLOAD PUSH2 0x459 SWAP2 SWAP1 PUSH2 0x1D9B JUMP JUMPDEST PUSH1 0x40 MLOAD DUP1 SWAP2 SUB SWAP1 RETURN JUMPDEST CALLVALUE DUP1 ISZERO PUSH2 0x46D JUMPI PUSH0 DUP1 REVERT JUMPDEST POP PUSH2 0x488 PUSH1 0x4 DUP1 CALLDATASIZE SUB DUP2 ADD SWAP1 PUSH2 0x483 SWAP2 SWAP1 PUSH2 0x1F9B JUMP JUMPDEST PUSH2 0x1764 JUMP JUMPDEST PUSH1 0x40 MLOAD PUSH2 0x495 SWAP2 SWAP1 PUSH2 0x1D9B JUMP JUMPDEST PUSH1 0x40 MLOAD DUP1 SWAP2 SUB SWAP1 RETURN JUMPDEST CALLVALUE DUP1 ISZERO PUSH2 0x4A9 JUMPI PUSH0 DUP1 REVERT JUMPDEST POP PUSH2 0x4B2 PUSH2 0x1784 JUMP JUMPDEST PUSH1 0x40 MLOAD PUSH2 0x4BF SWAP2 SWAP1 PUSH2 0x1D9B JUMP JUMPDEST PUSH1 0x40 MLOAD DUP1 SWAP2 SUB SWAP1 RETURN JUMPDEST CALLVALUE DUP1 ISZERO PUSH2 0x4D3 JUMPI PUSH0 DUP1 REVERT JUMPDEST POP PUSH2 0x4EE PUSH1 0x4 DUP1 CALLDATASIZE SUB DUP2 ADD SWAP1 PUSH2 0x4E9 SWAP2 SWAP1 PUSH2 0x1E12 JUMP JUMPDEST PUSH2 0x178A JUMP JUMPDEST STOP JUMPDEST CALLVALUE DUP1 ISZERO PUSH2 0x4FB JUMPI PUSH0 DUP1 REVERT JUMPDEST POP PUSH2 0x504 PUSH2 0x180E JUMP JUMPDEST PUSH1 0x40 MLOAD PUSH2 0x511 SWAP2 SWAP1 PUSH2 0x2020 JUMP JUMPDEST PUSH1 0x40 MLOAD DUP1 SWAP2 SUB SWAP1 RETURN JUMPDEST PUSH32 0x0 DUP2 JUMP JUMPDEST PUSH2 0x546 PUSH2 0x1832 JUMP JUMPDEST PUSH0 CALLVALUE SUB PUSH2 0x57F JUMPI PUSH1 0x40 MLOAD PUSH32 0xE729DC6400000000000000000000000000000000000000000000000000000000 DUP2 MSTORE PUSH1 0x4 ADD PUSH1 0x40 MLOAD DUP1 SWAP2 SUB SWAP1 REVERT JUMPDEST PUSH0 PUSH2 0x589 CALLVALUE PUSH2 0x1878 JUMP JUMPDEST SWAP1 POP PUSH32 0x0 DUP2 PUSH1 0x5 SLOAD PUSH2 0x5BA SWAP2 SWAP1 PUSH2 0x2066 JUMP JUMPDEST GT ISZERO PUSH2 0x623 JUMPI PUSH1 0x5 SLOAD DUP2 PUSH32 0x0 PUSH1 0x40 MLOAD PUSH32 0xC9FE79B800000000000000000000000000000000000000000000000000000000 DUP2 MSTORE PUSH1 0x4 ADD PUSH2 0x61A SWAP4 SWAP3 SWAP2 SWAP1 PUSH2 0x2099 JUMP JUMPDEST PUSH1 0x40 MLOAD DUP1 SWAP2 SUB SWAP1 REVERT JUMPDEST DUP1 PUSH1 0x3 PUSH0 CALLER PUSH20 0xFFFFFFFFFFFFFFFFFFFFFFFFFFFFFFFFFFFFFFFF AND PUSH20 0xFFFFFFFFFFFFFFFFFFFFFFFFFFFFFFFFFFFFFFFF AND DUP2 MSTORE PUSH1 0x20 ADD SWAP1 DUP2 MSTORE PUSH1 0x20 ADD PUSH0 KECCAK256 PUSH0 DUP1 PUSH20 0xFFFFFFFFFFFFFFFFFFFFFFFFFFFFFFFFFFFFFFFF AND PUSH20 0xFFFFFFFFFFFFFFFFFFFFFFFFFFFFFFFFFFFFFFFF AND DUP2 MSTORE PUSH1 0x20 ADD SWAP1 DUP2 MSTORE PUSH1 0x20 ADD PUSH0 KECCAK256 PUSH0 DUP3 DUP3 SLOAD PUSH2 0x6AA SWAP2 SWAP1 PUSH2 0x2066 JUMP JUMPDEST SWAP3 POP POP DUP2 SWAP1 SSTORE POP DUP1 PUSH1 0x4 PUSH0 DUP1 PUSH20 0xFFFFFFFFFFFFFFFFFFFFFFFFFFFFFFFFFFFFFFFF AND PUSH20 0xFFFFFFFFFFFFFFFFFFFFFFFFFFFFFFFFFFFFFFFF AND DUP2 MSTORE PUSH1 0x20 ADD SWAP1 DUP2 MSTORE PUSH1 0x20 ADD PUSH0 KECCAK256 PUSH0 DUP3 DUP3 SLOAD PUSH2 0x6FD SWAP2 SWAP1 PUSH2 0x2066 JUMP JUMPDEST SWAP3 POP POP DUP2 SWAP1 SSTORE POP DUP1 PUSH1 0x5 PUSH0 DUP3 DUP3 SLOAD PUSH2 0x715 SWAP2 SWAP1 PUSH2 0x2066 JUMP JUMPDEST SWAP3 POP POP DUP2 SWAP1 SSTORE POP PUSH1 0x6 PUSH0 DUP2 SLOAD DUP1 SWAP3 SWAP2 SWAP1 PUSH2 0x72E SWAP1 PUSH2 0x20CE JUMP JUMPDEST SWAP2 SWAP1 POP SSTORE POP PUSH0 PUSH20 0xFFFFFFFFFFFFFFFFFFFFFFFFFFFFFFFFFFFFFFFF AND CALLER PUSH20 0xFFFFFFFFFFFFFFFFFFFFFFFFFFFFFFFFFFFFFFFF AND PUSH32 0x751F8B54C0E32EF5B9FAFDBDAC0C93C1994CC8848FA17ED7798BD90AAE8BFE9B CALLVALUE DUP5 PUSH1 0x40 MLOAD PUSH2 0x792 SWAP3 SWAP2 SWAP1 PUSH2 0x1FD9 JUMP JUMPDEST PUSH1 0x40 MLOAD DUP1 SWAP2 SUB SWAP1 LOG3 POP PUSH2 0x7A3 PUSH2 0x18AC JUMP JUMPDEST JUMP JUMPDEST PUSH1 0x6 SLOAD DUP2 JUMP JUMPDEST PUSH0 PUSH32 0x0 SWAP1 POP SWAP1 JUMP JUMPDEST PUSH1 0x4 PUSH1 0x20 MSTORE DUP1 PUSH0 MSTORE PUSH1 0x40 PUSH0 KECCAK256 PUSH0 SWAP2 POP SWAP1 POP SLOAD DUP2 JUMP JUMPDEST PUSH0 DUP2 JUMP JUMPDEST PUSH32 0x0 DUP2 JUMP JUMPDEST PUSH0 PUSH1 0x3 PUSH0 DUP4 PUSH20 0xFFFFFFFFFFFFFFFFFFFFFFFFFFFFFFFFFFFFFFFF AND PUSH20 0xFFFFFFFFFFFFFFFFFFFFFFFFFFFFFFFFFFFFFFFF AND DUP2 MSTORE PUSH1 0x20 ADD SWAP1 DUP2 MSTORE PUSH1 0x20 ADD PUSH0 KECCAK256 PUSH0 PUSH32 0x0 PUSH20 0xFFFFFFFFFFFFFFFFFFFFFFFFFFFFFFFFFFFFFFFF AND PUSH20 0xFFFFFFFFFFFFFFFFFFFFFFFFFFFFFFFFFFFFFFFF AND DUP2 MSTORE PUSH1 0x20 ADD SWAP1 DUP2 MSTORE PUSH1 0x20 ADD PUSH0 KECCAK256 SLOAD PUSH1 0x3 PUSH0 DUP5 PUSH20 0xFFFFFFFFFFFFFFFFFFFFFFFFFFFFFFFFFFFFFFFF AND PUSH20 0xFFFFFFFFFFFFFFFFFFFFFFFFFFFFFFFFFFFFFFFF AND DUP2 MSTORE PUSH1 0x20 ADD SWAP1 DUP2 MSTORE PUSH1 0x20 ADD PUSH0 KECCAK256 PUSH0 DUP1 PUSH20 0xFFFFFFFFFFFFFFFFFFFFFFFFFFFFFFFFFFFFFFFF AND PUSH20 0xFFFFFFFFFFFFFFFFFFFFFFFFFFFFFFFFFFFFFFFF AND DUP2 MSTORE PUSH1 0x20 ADD SWAP1 DUP2 MSTORE PUSH1 0x20 ADD PUSH0 KECCAK256 SLOAD PUSH2 0x92C SWAP2 SWAP1 PUSH2 0x2066 JUMP JUMPDEST SWAP1 POP SWAP2 SWAP1 POP JUMP JUMPDEST PUSH2 0x93B PUSH2 0x1832 JUMP JUMPDEST DUP1 PUSH0 DUP2 SUB PUSH2 0x975 JUMPI PUSH1 0x40 MLOAD PUSH32 0xE729DC6400000000000000000000000000000000000000000000000000000000 DUP2 MSTORE PUSH1 0x4 ADD PUSH1 0x40 MLOAD DUP1 SWAP2 SUB SWAP1 REVERT JUMPDEST PUSH32 0x0 DUP3 PUSH1 0x5 SLOAD PUSH2 0x9A4 SWAP2 SWAP1 PUSH2 0x2066 JUMP JUMPDEST GT ISZERO PUSH2 0xA0D JUMPI PUSH1 0x5 SLOAD DUP3 PUSH32 0x0 PUSH1 0x40 MLOAD PUSH32 0xC9FE79B800000000000000000000000000000000000000000000000000000000 DUP2 MSTORE PUSH1 0x4 ADD PUSH2 0xA04 SWAP4 SWAP3 SWAP2 SWAP1 PUSH2 0x2099 JUMP JUMPDEST PUSH1 0x40 MLOAD DUP1 SWAP2 SUB SWAP1 REVERT JUMPDEST DUP2 PUSH1 0x3 PUSH0 CALLER PUSH20 0xFFFFFFFFFFFFFFFFFFFFFFFFFFFFFFFFFFFFFFFF AND PUSH20 0xFFFFFFFFFFFFFFFFFFFFFFFFFFFFFFFFFFFFFFFF AND DUP2 MSTORE PUSH1 0x20 ADD SWAP1 DUP2 MSTORE PUSH1 0x20 ADD PUSH0 KECCAK256 PUSH0 PUSH32 0x0 PUSH20 0xFFFFFFFFFFFFFFFFFFFFFFFFFFFFFFFFFFFFFFFF AND PUSH20 0xFFFFFFFFFFFFFFFFFFFFFFFFFFFFFFFFFFFFFFFF AND DUP2 MSTORE PUSH1 0x20 ADD SWAP1 DUP2 MSTORE PUSH1 0x20 ADD PUSH0 KECCAK256 PUSH0 DUP3 DUP3 SLOAD PUSH2 0xAB4 SWAP2 SWAP1 PUSH2 0x2066 JUMP JUMPDEST SWAP3 POP POP DUP2 SWAP1 SSTORE POP DUP2 PUSH1 0x4 PUSH0 PUSH32 0x0 PUSH20 0xFFFFFFFFFFFFFFFFFFFFFFFFFFFFFFFFFFFFFFFF AND PUSH20 0xFFFFFFFFFFFFFFFFFFFFFFFFFFFFFFFFFFFFFFFF AND DUP2 MSTORE PUSH1 0x20 ADD SWAP1 DUP2 MSTORE PUSH1 0x20 ADD PUSH0 KECCAK256 PUSH0 DUP3 DUP3 SLOAD PUSH2 0xB27 SWAP2 SWAP1 PUSH2 0x2066 JUMP JUMPDEST SWAP3 POP POP DUP2 SWAP1 SSTORE POP DUP2 PUSH1 0x5 PUSH0 DUP3 DUP3 SLOAD PUSH2 0xB3F SWAP2 SWAP1 PUSH2 0x2066 JUMP JUMPDEST SWAP3 POP POP DUP2 SWAP1 SSTORE POP PUSH1 0x6 PUSH0 DUP2 SLOAD DUP1 SWAP3 SWAP2 SWAP1 PUSH2 0xB58 SWAP1 PUSH2 0x20CE JUMP JUMPDEST SWAP2 SWAP1 POP SSTORE POP PUSH32 0x0 PUSH20 0xFFFFFFFFFFFFFFFFFFFFFFFFFFFFFFFFFFFFFFFF AND CALLER PUSH20 0xFFFFFFFFFFFFFFFFFFFFFFFFFFFFFFFFFFFFFFFF AND PUSH32 0x751F8B54C0E32EF5B9FAFDBDAC0C93C1994CC8848FA17ED7798BD90AAE8BFE9B DUP5 DUP6 PUSH1 0x40 MLOAD PUSH2 0xBDC SWAP3 SWAP2 SWAP1 PUSH2 0x1FD9 JUMP JUMPDEST PUSH1 0x40 MLOAD DUP1 SWAP2 SUB SWAP1 LOG3 PUSH2 0xC31 CALLER ADDRESS DUP5 PUSH32 0x0 PUSH20 0xFFFFFFFFFFFFFFFFFFFFFFFFFFFFFFFFFFFFFFFF AND PUSH2 0x18B5 SWAP1 SWAP4 SWAP3 SWAP2 SWAP1 PUSH4 0xFFFFFFFF AND JUMP JUMPDEST POP PUSH2 0xC3A PUSH2 0x18AC JUMP JUMPDEST POP JUMP JUMPDEST PUSH2 0xC45 PUSH2 0x1937 JUMP JUMPDEST PUSH2 0xC4E PUSH0 PUSH2 0x19BE JUMP JUMPDEST JUMP JUMPDEST PUSH2 0xC58 PUSH2 0x1832 JUMP JUMPDEST DUP1 PUSH0 DUP2 SUB PUSH2 0xC92 JUMPI PUSH1 0x40 MLOAD PUSH32 0xE729DC6400000000000000000000000000000000000000000000000000000000 DUP2 MSTORE PUSH1 0x4 ADD PUSH1 0x40 MLOAD DUP1 SWAP2 SUB SWAP1 REVERT JUMPDEST PUSH0 PUSH2 0xC9C DUP4 PUSH2 0x1878 JUMP JUMPDEST SWAP1 POP DUP1 PUSH1 0x3 PUSH0 CALLER PUSH20 0xFFFFFFFFFFFFFFFFFFFFFFFFFFFFFFFFFFFFFFFF AND PUSH20 0xFFFFFFFFFFFFFFFFFFFFFFFFFFFFFFFFFFFFFFFF AND DUP2 MSTORE PUSH1 0x20 ADD SWAP1 DUP2 MSTORE PUSH1 0x20 ADD PUSH0 KECCAK256 PUSH0 DUP1 PUSH20 0xFFFFFFFFFFFFFFFFFFFFFFFFFFFFFFFFFFFFFFFF AND PUSH20 0xFFFFFFFFFFFFFFFFFFFFFFFFFFFFFFFFFFFFFFFF AND DUP2 MSTORE PUSH1 0x20 ADD SWAP1 DUP2 MSTORE PUSH1 0x20 ADD PUSH0 KECCAK256 SLOAD LT ISZERO PUSH2 0xDD5 JUMPI PUSH1 0x3 PUSH0 CALLER PUSH20 0xFFFFFFFFFFFFFFFFFFFFFFFFFFFFFFFFFFFFFFFF AND PUSH20 0xFFFFFFFFFFFFFFFFFFFFFFFFFFFFFFFFFFFFFFFF AND DUP2 MSTORE PUSH1 0x20 ADD SWAP1 DUP2 MSTORE PUSH1 0x20 ADD PUSH0 KECCAK256 PUSH0 DUP1 PUSH20 0xFFFFFFFFFFFFFFFFFFFFFFFFFFFFFFFFFFFFFFFF AND PUSH20 0xFFFFFFFFFFFFFFFFFFFFFFFFFFFFFFFFFFFFFFFF AND DUP2 MSTORE PUSH1 0x20 ADD SWAP1 DUP2 MSTORE PUSH1 0x20 ADD PUSH0 KECCAK256 SLOAD DUP2 PUSH1 0x40 MLOAD PUSH32 0x3B28636500000000000000000000000000000000000000000000000000000000 DUP2 MSTORE PUSH1 0x4 ADD PUSH2 0xDCC SWAP3 SWAP2 SWAP1 PUSH2 0x1FD9 JUMP JUMPDEST PUSH1 0x40 MLOAD DUP1 SWAP2 SUB SWAP1 REVERT JUMPDEST PUSH32 0x0 DUP2 GT ISZERO PUSH2 0xE5C JUMPI DUP1 PUSH32 0x0 PUSH1 0x40 MLOAD PUSH32 0xD1ECFB7300000000000000000000000000000000000000000000000000000000 DUP2 MSTORE PUSH1 0x4 ADD PUSH2 0xE53 SWAP3 SWAP2 SWAP1 PUSH2 0x1FD9 JUMP JUMPDEST PUSH1 0x40 MLOAD DUP1 SWAP2 SUB SWAP1 REVERT JUMPDEST DUP1 PUSH1 0x3 PUSH0 CALLER PUSH20 0xFFFFFFFFFFFFFFFFFFFFFFFFFFFFFFFFFFFFFFFF AND PUSH20 0xFFFFFFFFFFFFFFFFFFFFFFFFFFFFFFFFFFFFFFFF AND DUP2 MSTORE PUSH1 0x20 ADD SWAP1 DUP2 MSTORE PUSH1 0x20 ADD PUSH0 KECCAK256 PUSH0 DUP1 PUSH20 0xFFFFFFFFFFFFFFFFFFFFFFFFFFFFFFFFFFFFFFFF AND PUSH20 0xFFFFFFFFFFFFFFFFFFFFFFFFFFFFFFFFFFFFFFFF AND DUP2 MSTORE PUSH1 0x20 ADD SWAP1 DUP2 MSTORE PUSH1 0x20 ADD PUSH0 KECCAK256 PUSH0 DUP3 DUP3 SLOAD PUSH2 0xEE3 SWAP2 SWAP1 PUSH2 0x2115 JUMP JUMPDEST SWAP3 POP POP DUP2 SWAP1 SSTORE POP DUP1 PUSH1 0x4 PUSH0 DUP1 PUSH20 0xFFFFFFFFFFFFFFFFFFFFFFFFFFFFFFFFFFFFFFFF AND PUSH20 0xFFFFFFFFFFFFFFFFFFFFFFFFFFFFFFFFFFFFFFFF AND DUP2 MSTORE PUSH1 0x20 ADD SWAP1 DUP2 MSTORE PUSH1 0x20 ADD PUSH0 KECCAK256 PUSH0 DUP3 DUP3 SLOAD PUSH2 0xF36 SWAP2 SWAP1 PUSH2 0x2115 JUMP JUMPDEST SWAP3 POP POP DUP2 SWAP1 SSTORE POP DUP1 PUSH1 0x5 PUSH0 DUP3 DUP3 SLOAD PUSH2 0xF4E SWAP2 SWAP1 PUSH2 0x2115 JUMP JUMPDEST SWAP3 POP POP DUP2 SWAP1 SSTORE POP PUSH1 0x7 PUSH0 DUP2 SLOAD DUP1 SWAP3 SWAP2 SWAP1 PUSH2 0xF67 SWAP1 PUSH2 0x20CE JUMP JUMPDEST SWAP2 SWAP1 POP SSTORE POP PUSH0 PUSH20 0xFFFFFFFFFFFFFFFFFFFFFFFFFFFFFFFFFFFFFFFF AND CALLER PUSH20 0xFFFFFFFFFFFFFFFFFFFFFFFFFFFFFFFFFFFFFFFF AND PUSH32 0xC6ACB54BDD58AF37C8D1B8BF2F1A561163C5191551BBD6E74CCE66FF7B670C77 DUP6 DUP5 PUSH1 0x40 MLOAD PUSH2 0xFCB SWAP3 SWAP2 SWAP1 PUSH2 0x1FD9 JUMP JUMPDEST PUSH1 0x40 MLOAD DUP1 SWAP2 SUB SWAP1 LOG3 PUSH2 0xFDD CALLER DUP5 PUSH2 0x1A7F JUMP JUMPDEST POP POP PUSH2 0xFE7 PUSH2 0x18AC JUMP JUMPDEST POP JUMP JUMPDEST PUSH0 DUP1 PUSH0 SWAP1 SLOAD SWAP1 PUSH2 0x100 EXP SWAP1 DIV PUSH20 0xFFFFFFFFFFFFFFFFFFFFFFFFFFFFFFFFFFFFFFFF AND SWAP1 POP SWAP1 JUMP JUMPDEST PUSH2 0x1019 PUSH2 0x1832 JUMP JUMPDEST DUP1 PUSH0 DUP2 SUB PUSH2 0x1053 JUMPI PUSH1 0x40 MLOAD PUSH32 0xE729DC6400000000000000000000000000000000000000000000000000000000 DUP2 MSTORE PUSH1 0x4 ADD PUSH1 0x40 MLOAD DUP1 SWAP2 SUB SWAP1 REVERT JUMPDEST PUSH32 0x0 DUP3 GT ISZERO PUSH2 0x10DA JUMPI DUP2 PUSH32 0x0 PUSH1 0x40 MLOAD PUSH32 0xD1ECFB7300000000000000000000000000000000000000000000000000000000 DUP2 MSTORE PUSH1 0x4 ADD PUSH2 0x10D1 SWAP3 SWAP2 SWAP1 PUSH2 0x1FD9 JUMP JUMPDEST PUSH1 0x40 MLOAD DUP1 SWAP2 SUB SWAP1 REVERT JUMPDEST DUP2 PUSH1 0x3 PUSH0 CALLER PUSH20 0xFFFFFFFFFFFFFFFFFFFFFFFFFFFFFFFFFFFFFFFF AND PUSH20 0xFFFFFFFFFFFFFFFFFFFFFFFFFFFFFFFFFFFFFFFF AND DUP2 MSTORE PUSH1 0x20 ADD SWAP1 DUP2 MSTORE PUSH1 0x20 ADD PUSH0 KECCAK256 PUSH0 PUSH32 0x0 PUSH20 0xFFFFFFFFFFFFFFFFFFFFFFFFFFFFFFFFFFFFFFFF AND PUSH20 0xFFFFFFFFFFFFFFFFFFFFFFFFFFFFFFFFFFFFFFFF AND DUP2 MSTORE PUSH1 0x20 ADD SWAP1 DUP2 MSTORE PUSH1 0x20 ADD PUSH0 KECCAK256 SLOAD LT ISZERO PUSH2 0x1251 JUMPI PUSH1 0x3 PUSH0 CALLER PUSH20 0xFFFFFFFFFFFFFFFFFFFFFFFFFFFFFFFFFFFFFFFF AND PUSH20 0xFFFFFFFFFFFFFFFFFFFFFFFFFFFFFFFFFFFFFFFF AND DUP2 MSTORE PUSH1 0x20 ADD SWAP1 DUP2 MSTORE PUSH1 0x20 ADD PUSH0 KECCAK256 PUSH0 PUSH32 0x0 PUSH20 0xFFFFFFFFFFFFFFFFFFFFFFFFFFFFFFFFFFFFFFFF AND PUSH20 0xFFFFFFFFFFFFFFFFFFFFFFFFFFFFFFFFFFFFFFFF AND DUP2 MSTORE PUSH1 0x20 ADD SWAP1 DUP2 MSTORE PUSH1 0x20 ADD PUSH0 KECCAK256 SLOAD DUP3 PUSH1 0x40 MLOAD PUSH32 0x3B28636500000000000000000000000000000000000000000000000000000000 DUP2 MSTORE PUSH1 0x4 ADD PUSH2 0x1248 SWAP3 SWAP2 SWAP1 PUSH2 0x1FD9 JUMP JUMPDEST PUSH1 0x40 MLOAD DUP1 SWAP2 SUB SWAP1 REVERT JUMPDEST DUP2 PUSH1 0x3 PUSH0 CALLER PUSH20 0xFFFFFFFFFFFFFFFFFFFFFFFFFFFFFFFFFFFFFFFF AND PUSH20 0xFFFFFFFFFFFFFFFFFFFFFFFFFFFFFFFFFFFFFFFF AND DUP2 MSTORE PUSH1 0x20 ADD SWAP1 DUP2 MSTORE PUSH1 0x20 ADD PUSH0 KECCAK256 PUSH0 PUSH32 0x0 PUSH20 0xFFFFFFFFFFFFFFFFFFFFFFFFFFFFFFFFFFFFFFFF AND PUSH20 0xFFFFFFFFFFFFFFFFFFFFFFFFFFFFFFFFFFFFFFFF AND DUP2 MSTORE PUSH1 0x20 ADD SWAP1 DUP2 MSTORE PUSH1 0x20 ADD PUSH0 KECCAK256 PUSH0 DUP3 DUP3 SLOAD PUSH2 0x12F8 SWAP2 SWAP1 PUSH2 0x2115 JUMP JUMPDEST SWAP3 POP POP DUP2 SWAP1 SSTORE POP DUP2 PUSH1 0x4 PUSH0 PUSH32 0x0 PUSH20 0xFFFFFFFFFFFFFFFFFFFFFFFFFFFFFFFFFFFFFFFF AND PUSH20 0xFFFFFFFFFFFFFFFFFFFFFFFFFFFFFFFFFFFFFFFF AND DUP2 MSTORE PUSH1 0x20 ADD SWAP1 DUP2 MSTORE PUSH1 0x20 ADD PUSH0 KECCAK256 PUSH0 DUP3 DUP3 SLOAD PUSH2 0x136B SWAP2 SWAP1 PUSH2 0x2115 JUMP JUMPDEST SWAP3 POP POP DUP2 SWAP1 SSTORE POP DUP2 PUSH1 0x5 PUSH0 DUP3 DUP3 SLOAD PUSH2 0x1383 SWAP2 SWAP1 PUSH2 0x2115 JUMP JUMPDEST SWAP3 POP POP DUP2 SWAP1 SSTORE POP PUSH1 0x7 PUSH0 DUP2 SLOAD DUP1 SWAP3 SWAP2 SWAP1 PUSH2 0x139C SWAP1 PUSH2 0x20CE JUMP JUMPDEST SWAP2 SWAP1 POP SSTORE POP PUSH32 0x0 PUSH20 0xFFFFFFFFFFFFFFFFFFFFFFFFFFFFFFFFFFFFFFFF AND CALLER PUSH20 0xFFFFFFFFFFFFFFFFFFFFFFFFFFFFFFFFFFFFFFFF AND PUSH32 0xC6ACB54BDD58AF37C8D1B8BF2F1A561163C5191551BBD6E74CCE66FF7B670C77 DUP5 DUP6 PUSH1 0x40 MLOAD PUSH2 0x1420 SWAP3 SWAP2 SWAP1 PUSH2 0x1FD9 JUMP JUMPDEST PUSH1 0x40 MLOAD DUP1 SWAP2 SUB SWAP1 LOG3 PUSH2 0x1473 CALLER DUP4 PUSH32 0x0 PUSH20 0xFFFFFFFFFFFFFFFFFFFFFFFFFFFFFFFFFFFFFFFF AND PUSH2 0x1B2E SWAP1 SWAP3 SWAP2 SWAP1 PUSH4 0xFFFFFFFF AND JUMP JUMPDEST POP PUSH2 0x147C PUSH2 0x18AC JUMP JUMPDEST POP JUMP JUMPDEST PUSH0 DUP1 PUSH0 DUP1 PUSH0 DUP1 PUSH0 PUSH1 0x5 SLOAD SWAP7 POP PUSH1 0x4 PUSH0 DUP1 PUSH20 0xFFFFFFFFFFFFFFFFFFFFFFFFFFFFFFFFFFFFFFFF AND PUSH20 0xFFFFFFFFFFFFFFFFFFFFFFFFFFFFFFFFFFFFFFFF AND DUP2 MSTORE PUSH1 0x20 ADD SWAP1 DUP2 MSTORE PUSH1 0x20 ADD PUSH0 KECCAK256 SLOAD SWAP6 POP PUSH1 0x4 PUSH0 PUSH32 0x0 PUSH20 0xFFFFFFFFFFFFFFFFFFFFFFFFFFFFFFFFFFFFFFFF AND PUSH20 0xFFFFFFFFFFFFFFFFFFFFFFFFFFFFFFFFFFFFFFFF AND DUP2 MSTORE PUSH1 0x20 ADD SWAP1 DUP2 MSTORE PUSH1 0x20 ADD PUSH0 KECCAK256 SLOAD SWAP5 POP PUSH1 0x6 SLOAD SWAP4 POP PUSH1 0x7 SLOAD SWAP3 POP PUSH32 0x0 SWAP2 POP PUSH32 0x0 SWAP1 POP SWAP1 SWAP2 SWAP3 SWAP4 SWAP5 SWAP6 SWAP7 JUMP JUMPDEST PUSH1 0x2 PUSH0 SWAP1 SLOAD SWAP1 PUSH2 0x100 EXP SWAP1 DIV PUSH20 0xFFFFFFFFFFFFFFFFFFFFFFFFFFFFFFFFFFFFFFFF AND DUP2 JUMP JUMPDEST PUSH0 PUSH1 0x3 PUSH0 DUP5 PUSH20 0xFFFFFFFFFFFFFFFFFFFFFFFFFFFFFFFFFFFFFFFF AND PUSH20 0xFFFFFFFFFFFFFFFFFFFFFFFFFFFFFFFFFFFFFFFF AND DUP2 MSTORE PUSH1 0x20 ADD SWAP1 DUP2 MSTORE PUSH1 0x20 ADD PUSH0 KECCAK256 PUSH0 DUP4 PUSH20 0xFFFFFFFFFFFFFFFFFFFFFFFFFFFFFFFFFFFFFFFF AND PUSH20 0xFFFFFFFFFFFFFFFFFFFFFFFFFFFFFFFFFFFFFFFF AND DUP2 MSTORE PUSH1 0x20 ADD SWAP1 DUP2 MSTORE PUSH1 0x20 ADD PUSH0 KECCAK256 SLOAD SWAP1 POP SWAP3 SWAP2 POP POP JUMP JUMPDEST PUSH2 0x1633 PUSH2 0x1937 JUMP JUMPDEST DUP1 PUSH1 0x2 PUSH0 PUSH2 0x100 EXP DUP2 SLOAD DUP2 PUSH20 0xFFFFFFFFFFFFFFFFFFFFFFFFFFFFFFFFFFFFFFFF MUL NOT AND SWAP1 DUP4 PUSH20 0xFFFFFFFFFFFFFFFFFFFFFFFFFFFFFFFFFFFFFFFF AND MUL OR SWAP1 SSTORE POP DUP1 PUSH20 0xFFFFFFFFFFFFFFFFFFFFFFFFFFFFFFFFFFFFFFFF AND PUSH32 0x2B87A7A05493A7865DADC5AFBB6CEDFDA3C32F20196D8F45314AFA7B32B94012 PUSH1 0x40 MLOAD PUSH1 0x40 MLOAD DUP1 SWAP2 SUB SWAP1 LOG2 POP JUMP JUMPDEST PUSH0 DUP1 PUSH0 DUP1 PUSH1 0x2 PUSH0 SWAP1 SLOAD SWAP1 PUSH2 0x100 EXP SWAP1 DIV PUSH20 0xFFFFFFFFFFFFFFFFFFFFFFFFFFFFFFFFFFFFFFFF AND PUSH20 0xFFFFFFFFFFFFFFFFFFFFFFFFFFFFFFFFFFFFFFFF AND PUSH4 0xFEAF968C PUSH1 0x40 MLOAD DUP2 PUSH4 0xFFFFFFFF AND PUSH1 0xE0 SHL DUP2 MSTORE PUSH1 0x4 ADD PUSH1 0xA0 PUSH1 0x40 MLOAD DUP1 DUP4 SUB DUP2 DUP7 GAS STATICCALL ISZERO DUP1 ISZERO PUSH2 0x1727 JUMPI RETURNDATASIZE PUSH0 DUP1 RETURNDATACOPY RETURNDATASIZE PUSH0 REVERT JUMPDEST POP POP POP POP PUSH1 0x40 MLOAD RETURNDATASIZE PUSH1 0x1F NOT PUSH1 0x1F DUP3 ADD AND DUP3 ADD DUP1 PUSH1 0x40 MSTORE POP DUP2 ADD SWAP1 PUSH2 0x174B SWAP2 SWAP1 PUSH2 0x21CE JUMP JUMPDEST POP SWAP4 POP POP SWAP3 POP POP DUP2 SWAP4 POP DUP1 SWAP3 POP POP POP SWAP1 SWAP2 JUMP JUMPDEST PUSH1 0x7 SLOAD DUP2 JUMP JUMPDEST PUSH1 0x3 PUSH1 0x20 MSTORE DUP2 PUSH0 MSTORE PUSH1 0x40 PUSH0 KECCAK256 PUSH1 0x20 MSTORE DUP1 PUSH0 MSTORE PUSH1 0x40 PUSH0 KECCAK256 PUSH0 SWAP2 POP SWAP2 POP POP SLOAD DUP2 JUMP JUMPDEST PUSH1 0x5 SLOAD DUP2 JUMP JUMPDEST PUSH2 0x1792 PUSH2 0x1937 JUMP JUMPDEST PUSH0 PUSH20 0xFFFFFFFFFFFFFFFFFFFFFFFFFFFFFFFFFFFFFFFF AND DUP2 PUSH20 0xFFFFFFFFFFFFFFFFFFFFFFFFFFFFFFFFFFFFFFFF AND SUB PUSH2 0x1802 JUMPI PUSH0 PUSH1 0x40 MLOAD PUSH32 0x1E4FBDF700000000000000000000000000000000000000000000000000000000 DUP2 MSTORE PUSH1 0x4 ADD PUSH2 0x17F9 SWAP2 SWAP1 PUSH2 0x1E4C JUMP JUMPDEST PUSH1 0x40 MLOAD DUP1 SWAP2 SUB SWAP1 REVERT JUMPDEST PUSH2 0x180B DUP2 PUSH2 0x19BE JUMP JUMPDEST POP JUMP JUMPDEST PUSH32 0x0 DUP2 JUMP JUMPDEST PUSH1 0x2 PUSH1 0x1 SLOAD SUB PUSH2 0x186E JUMPI PUSH1 0x40 MLOAD PUSH32 0x3EE5AEB500000000000000000000000000000000000000000000000000000000 DUP2 MSTORE PUSH1 0x4 ADD PUSH1 0x40 MLOAD DUP1 SWAP2 SUB SWAP1 REVERT JUMPDEST PUSH1 0x2 PUSH1 0x1 DUP2 SWAP1 SSTORE POP JUMP JUMPDEST PUSH0 DUP1 PUSH2 0x1882 PUSH2 0x1BAD JUMP JUMPDEST SWAP1 POP PUSH9 0x56BC75E2D63100000 DUP2 DUP5 PUSH2 0x189A SWAP2 SWAP1 PUSH2 0x2245 JUMP JUMPDEST PUSH2 0x18A4 SWAP2 SWAP1 PUSH2 0x22B3 JUMP JUMPDEST SWAP2 POP POP SWAP2 SWAP1 POP JUMP JUMPDEST PUSH1 0x1 DUP1 DUP2 SWAP1 SSTORE POP JUMP JUMPDEST PUSH2 0x1931 DUP5 DUP6 PUSH20 0xFFFFFFFFFFFFFFFFFFFFFFFFFFFFFFFFFFFFFFFF AND PUSH4 0x23B872DD DUP7 DUP7 DUP7 PUSH1 0x40 MLOAD PUSH1 0x24 ADD PUSH2 0x18EA SWAP4 SWAP3 SWAP2 SWAP1 PUSH2 0x22E3 JUMP JUMPDEST PUSH1 0x40 MLOAD PUSH1 0x20 DUP2 DUP4 SUB SUB DUP2 MSTORE SWAP1 PUSH1 0x40 MSTORE SWAP2 POP PUSH1 0xE0 SHL PUSH1 0x20 DUP3 ADD DUP1 MLOAD PUSH28 0xFFFFFFFFFFFFFFFFFFFFFFFFFFFFFFFFFFFFFFFFFFFFFFFFFFFFFFFF DUP4 DUP2 DUP4 AND OR DUP4 MSTORE POP POP POP POP PUSH2 0x1CE1 JUMP JUMPDEST POP POP POP POP JUMP JUMPDEST PUSH2 0x193F PUSH2 0x1D7C JUMP JUMPDEST PUSH20 0xFFFFFFFFFFFFFFFFFFFFFFFFFFFFFFFFFFFFFFFF AND PUSH2 0x195D PUSH2 0xFEA JUMP JUMPDEST PUSH20 0xFFFFFFFFFFFFFFFFFFFFFFFFFFFFFFFFFFFFFFFF AND EQ PUSH2 0x19BC JUMPI PUSH2 0x1980 PUSH2 0x1D7C JUMP JUMPDEST PUSH1 0x40 MLOAD PUSH32 0x118CDAA700000000000000000000000000000000000000000000000000000000 DUP2 MSTORE PUSH1 0x4 ADD PUSH2 0x19B3 SWAP2 SWAP1 PUSH2 0x1E4C JUMP JUMPDEST PUSH1 0x40 MLOAD DUP1 SWAP2 SUB SWAP1 REVERT JUMPDEST JUMP JUMPDEST PUSH0 DUP1 PUSH0 SWAP1 SLOAD SWAP1 PUSH2 0x100 EXP SWAP1 DIV PUSH20 0xFFFFFFFFFFFFFFFFFFFFFFFFFFFFFFFFFFFFFFFF AND SWAP1 POP DUP2 PUSH0 DUP1 PUSH2 0x100 EXP DUP2 SLOAD DUP2 PUSH20 0xFFFFFFFFFFFFFFFFFFFFFFFFFFFFFFFFFFFFFFFF MUL NOT AND SWAP1 DUP4 PUSH20 0xFFFFFFFFFFFFFFFFFFFFFFFFFFFFFFFFFFFFFFFF AND MUL OR SWAP1 SSTORE POP DUP2 PUSH20 0xFFFFFFFFFFFFFFFFFFFFFFFFFFFFFFFFFFFFFFFF AND DUP2 PUSH20 0xFFFFFFFFFFFFFFFFFFFFFFFFFFFFFFFFFFFFFFFF AND PUSH32 0x8BE0079C531659141344CD1FD0A4F28419497F9722A3DAAFE3B4186F6B6457E0 PUSH1 0x40 MLOAD PUSH1 0x40 MLOAD DUP1 SWAP2 SUB SWAP1 LOG3 POP POP JUMP JUMPDEST PUSH0 DUP3 PUSH20 0xFFFFFFFFFFFFFFFFFFFFFFFFFFFFFFFFFFFFFFFF AND DUP3 PUSH1 0x40 MLOAD PUSH2 0x1AA4 SWAP1 PUSH2 0x2345 JUMP JUMPDEST PUSH0 PUSH1 0x40 MLOAD DUP1 DUP4 SUB DUP2 DUP6 DUP8 GAS CALL SWAP3 POP POP POP RETURNDATASIZE DUP1 PUSH0 DUP2 EQ PUSH2 0x1ADE JUMPI PUSH1 0x40 MLOAD SWAP2 POP PUSH1 0x1F NOT PUSH1 0x3F RETURNDATASIZE ADD AND DUP3 ADD PUSH1 0x40 MSTORE RETURNDATASIZE DUP3 MSTORE RETURNDATASIZE PUSH0 PUSH1 0x20 DUP5 ADD RETURNDATACOPY PUSH2 0x1AE3 JUMP JUMPDEST PUSH1 0x60 SWAP2 POP JUMPDEST POP POP SWAP1 POP DUP1 PUSH2 0x1B29 JUMPI DUP3 PUSH1 0x40 MLOAD PUSH32 0x71404A4200000000000000000000000000000000000000000000000000000000 DUP2 MSTORE PUSH1 0x4 ADD PUSH2 0x1B20 SWAP2 SWAP1 PUSH2 0x1E4C JUMP JUMPDEST PUSH1 0x40 MLOAD DUP1 SWAP2 SUB SWAP1 REVERT JUMPDEST POP POP POP JUMP JUMPDEST PUSH2 0x1BA8 DUP4 DUP5 PUSH20 0xFFFFFFFFFFFFFFFFFFFFFFFFFFFFFFFFFFFFFFFF AND PUSH4 0xA9059CBB DUP6 DUP6 PUSH1 0x40 MLOAD PUSH1 0x24 ADD PUSH2 0x1B61 SWAP3 SWAP2 SWAP1 PUSH2 0x2359 JUMP JUMPDEST PUSH1 0x40 MLOAD PUSH1 0x20 DUP2 DUP4 SUB SUB DUP2 MSTORE SWAP1 PUSH1 0x40 MSTORE SWAP2 POP PUSH1 0xE0 SHL PUSH1 0x20 DUP3 ADD DUP1 MLOAD PUSH28 0xFFFFFFFFFFFFFFFFFFFFFFFFFFFFFFFFFFFFFFFFFFFFFFFFFFFFFFFF DUP4 DUP2 DUP4 AND OR DUP4 MSTORE POP POP POP POP PUSH2 0x1CE1 JUMP JUMPDEST POP POP POP JUMP JUMPDEST PUSH0 DUP1 PUSH0 PUSH1 0x2 PUSH0 SWAP1 SLOAD SWAP1 PUSH2 0x100 EXP SWAP1 DIV PUSH20 0xFFFFFFFFFFFFFFFFFFFFFFFFFFFFFFFFFFFFFFFF AND PUSH20 0xFFFFFFFFFFFFFFFFFFFFFFFFFFFFFFFFFFFFFFFF AND PUSH4 0xFEAF968C PUSH1 0x40 MLOAD DUP2 PUSH4 0xFFFFFFFF AND PUSH1 0xE0 SHL DUP2 MSTORE PUSH1 0x4 ADD PUSH1 0xA0 PUSH1 0x40 MLOAD DUP1 DUP4 SUB DUP2 DUP7 GAS STATICCALL ISZERO DUP1 ISZERO PUSH2 0x1C1A JUMPI RETURNDATASIZE PUSH0 DUP1 RETURNDATACOPY RETURNDATASIZE PUSH0 REVERT JUMPDEST POP POP POP POP PUSH1 0x40 MLOAD RETURNDATASIZE PUSH1 0x1F NOT PUSH1 0x1F DUP3 ADD AND DUP3 ADD DUP1 PUSH1 0x40 MSTORE POP DUP2 ADD SWAP1 PUSH2 0x1C3E SWAP2 SWAP1 PUSH2 0x21CE JUMP JUMPDEST POP SWAP4 POP POP SWAP3 POP POP PUSH0 DUP3 SGT PUSH2 0x1C7E JUMPI PUSH1 0x40 MLOAD PUSH32 0x63F585C200000000000000000000000000000000000000000000000000000000 DUP2 MSTORE PUSH1 0x4 ADD PUSH1 0x40 MLOAD DUP1 SWAP2 SUB SWAP1 REVERT JUMPDEST PUSH0 DUP2 TIMESTAMP PUSH2 0x1C8B SWAP2 SWAP1 PUSH2 0x2115 JUMP JUMPDEST SWAP1 POP PUSH2 0xE10 DUP2 GT ISZERO PUSH2 0x1CD8 JUMPI DUP1 PUSH2 0xE10 PUSH1 0x40 MLOAD PUSH32 0x74937DF300000000000000000000000000000000000000000000000000000000 DUP2 MSTORE PUSH1 0x4 ADD PUSH2 0x1CCF SWAP3 SWAP2 SWAP1 PUSH2 0x1FD9 JUMP JUMPDEST PUSH1 0x40 MLOAD DUP1 SWAP2 SUB SWAP1 REVERT JUMPDEST DUP3 SWAP4 POP POP POP POP SWAP1 JUMP JUMPDEST PUSH0 DUP1 PUSH1 0x20 PUSH0 DUP5 MLOAD PUSH1 0x20 DUP7 ADD PUSH0 DUP9 GAS CALL DUP1 PUSH2 0x1D00 JUMPI PUSH1 0x40 MLOAD RETURNDATASIZE PUSH0 DUP3 RETURNDATACOPY RETURNDATASIZE DUP2 REVERT JUMPDEST RETURNDATASIZE SWAP3 POP PUSH0 MLOAD SWAP2 POP POP PUSH0 DUP3 EQ PUSH2 0x1D19 JUMPI PUSH1 0x1 DUP2 EQ ISZERO PUSH2 0x1D34 JUMP JUMPDEST PUSH0 DUP5 PUSH20 0xFFFFFFFFFFFFFFFFFFFFFFFFFFFFFFFFFFFFFFFF AND EXTCODESIZE EQ JUMPDEST ISZERO PUSH2 0x1D76 JUMPI DUP4 PUSH1 0x40 MLOAD PUSH32 0x5274AFE700000000000000000000000000000000000000000000000000000000 DUP2 MSTORE PUSH1 0x4 ADD PUSH2 0x1D6D SWAP2 SWAP1 PUSH2 0x1E4C JUMP JUMPDEST PUSH1 0x40 MLOAD DUP1 SWAP2 SUB SWAP1 REVERT JUMPDEST POP POP POP POP JUMP JUMPDEST PUSH0 CALLER SWAP1 POP SWAP1 JUMP JUMPDEST PUSH0 DUP2 SWAP1 POP SWAP2 SWAP1 POP JUMP JUMPDEST PUSH2 0x1D95 DUP2 PUSH2 0x1D83 JUMP JUMPDEST DUP3 MSTORE POP POP JUMP JUMPDEST PUSH0 PUSH1 0x20 DUP3 ADD SWAP1 POP PUSH2 0x1DAE PUSH0 DUP4 ADD DUP5 PUSH2 0x1D8C JUMP JUMPDEST SWAP3 SWAP2 POP POP JUMP JUMPDEST PUSH0 DUP1 REVERT JUMPDEST PUSH0 PUSH20 0xFFFFFFFFFFFFFFFFFFFFFFFFFFFFFFFFFFFFFFFF DUP3 AND SWAP1 POP SWAP2 SWAP1 POP JUMP JUMPDEST PUSH0 PUSH2 0x1DE1 DUP3 PUSH2 0x1DB8 JUMP JUMPDEST SWAP1 POP SWAP2 SWAP1 POP JUMP JUMPDEST PUSH2 0x1DF1 DUP2 PUSH2 0x1DD7 JUMP JUMPDEST DUP2 EQ PUSH2 0x1DFB JUMPI PUSH0 DUP1 REVERT JUMPDEST POP JUMP JUMPDEST PUSH0 DUP2 CALLDATALOAD SWAP1 POP PUSH2 0x1E0C DUP2 PUSH2 0x1DE8 JUMP JUMPDEST SWAP3 SWAP2 POP POP JUMP JUMPDEST PUSH0 PUSH1 0x20 DUP3 DUP5 SUB SLT ISZERO PUSH2 0x1E27 JUMPI PUSH2 0x1E26 PUSH2 0x1DB4 JUMP JUMPDEST JUMPDEST PUSH0 PUSH2 0x1E34 DUP5 DUP3 DUP6 ADD PUSH2 0x1DFE JUMP JUMPDEST SWAP2 POP POP SWAP3 SWAP2 POP POP JUMP JUMPDEST PUSH2 0x1E46 DUP2 PUSH2 0x1DD7 JUMP JUMPDEST DUP3 MSTORE POP POP JUMP JUMPDEST PUSH0 PUSH1 0x20 DUP3 ADD SWAP1 POP PUSH2 0x1E5F PUSH0 DUP4 ADD DUP5 PUSH2 0x1E3D JUMP JUMPDEST SWAP3 SWAP2 POP POP JUMP JUMPDEST PUSH2 0x1E6E DUP2 PUSH2 0x1D83 JUMP JUMPDEST DUP2 EQ PUSH2 0x1E78 JUMPI PUSH0 DUP1 REVERT JUMPDEST POP JUMP JUMPDEST PUSH0 DUP2 CALLDATALOAD SWAP1 POP PUSH2 0x1E89 DUP2 PUSH2 0x1E65 JUMP JUMPDEST SWAP3 SWAP2 POP POP JUMP JUMPDEST PUSH0 PUSH1 0x20 DUP3 DUP5 SUB SLT ISZERO PUSH2 0x1EA4 JUMPI PUSH2 0x1EA3 PUSH2 0x1DB4 JUMP JUMPDEST JUMPDEST PUSH0 PUSH2 0x1EB1 DUP5 DUP3 DUP6 ADD PUSH2 0x1E7B JUMP JUMPDEST SWAP2 POP POP SWAP3 SWAP2 POP POP JUMP JUMPDEST PUSH0 PUSH1 0xE0 DUP3 ADD SWAP1 POP PUSH2 0x1ECD PUSH0 DUP4 ADD DUP11 PUSH2 0x1D8C JUMP JUMPDEST PUSH2 0x1EDA PUSH1 0x20 DUP4 ADD DUP10 PUSH2 0x1D8C JUMP JUMPDEST PUSH2 0x1EE7 PUSH1 0x40 DUP4 ADD DUP9 PUSH2 0x1D8C JUMP JUMPDEST PUSH2 0x1EF4 PUSH1 0x60 DUP4 ADD DUP8 PUSH2 0x1D8C JUMP JUMPDEST PUSH2 0x1F01 PUSH1 0x80 DUP4 ADD DUP7 PUSH2 0x1D8C JUMP JUMPDEST PUSH2 0x1F0E PUSH1 0xA0 DUP4 ADD DUP6 PUSH2 0x1D8C JUMP JUMPDEST PUSH2 0x1F1B PUSH1 0xC0 DUP4 ADD DUP5 PUSH2 0x1D8C JUMP JUMPDEST SWAP9 SWAP8 POP POP POP POP POP POP POP POP JUMP JUMPDEST PUSH0 DUP2 SWAP1 POP SWAP2 SWAP1 POP JUMP JUMPDEST PUSH0 PUSH2 0x1F4A PUSH2 0x1F45 PUSH2 0x1F40 DUP5 PUSH2 0x1DB8 JUMP JUMPDEST PUSH2 0x1F27 JUMP JUMPDEST PUSH2 0x1DB8 JUMP JUMPDEST SWAP1 POP SWAP2 SWAP1 POP JUMP JUMPDEST PUSH0 PUSH2 0x1F5B DUP3 PUSH2 0x1F30 JUMP JUMPDEST SWAP1 POP SWAP2 SWAP1 POP JUMP JUMPDEST PUSH0 PUSH2 0x1F6C DUP3 PUSH2 0x1F51 JUMP JUMPDEST SWAP1 POP SWAP2 SWAP1 POP JUMP JUMPDEST PUSH2 0x1F7C DUP2 PUSH2 0x1F62 JUMP JUMPDEST DUP3 MSTORE POP POP JUMP JUMPDEST PUSH0 PUSH1 0x20 DUP3 ADD SWAP1 POP PUSH2 0x1F95 PUSH0 DUP4 ADD DUP5 PUSH2 0x1F73 JUMP JUMPDEST SWAP3 SWAP2 POP POP JUMP JUMPDEST PUSH0 DUP1 PUSH1 0x40 DUP4 DUP6 SUB SLT ISZERO PUSH2 0x1FB1 JUMPI PUSH2 0x1FB0 PUSH2 0x1DB4 JUMP JUMPDEST JUMPDEST PUSH0 PUSH2 0x1FBE DUP6 DUP3 DUP7 ADD PUSH2 0x1DFE JUMP JUMPDEST SWAP3 POP POP PUSH1 0x20 PUSH2 0x1FCF DUP6 DUP3 DUP7 ADD PUSH2 0x1DFE JUMP JUMPDEST SWAP2 POP POP SWAP3 POP SWAP3 SWAP1 POP JUMP JUMPDEST PUSH0 PUSH1 0x40 DUP3 ADD SWAP1 POP PUSH2 0x1FEC PUSH0 DUP4 ADD DUP6 PUSH2 0x1D8C JUMP JUMPDEST PUSH2 0x1FF9 PUSH1 0x20 DUP4 ADD DUP5 PUSH2 0x1D8C JUMP JUMPDEST SWAP4 SWAP3 POP POP POP JUMP JUMPDEST PUSH0 PUSH2 0x200A DUP3 PUSH2 0x1F51 JUMP JUMPDEST SWAP1 POP SWAP2 SWAP1 POP JUMP JUMPDEST PUSH2 0x201A DUP2 PUSH2 0x2000 JUMP JUMPDEST DUP3 MSTORE POP POP JUMP JUMPDEST PUSH0 PUSH1 0x20 DUP3 ADD SWAP1 POP PUSH2 0x2033 PUSH0 DUP4 ADD DUP5 PUSH2 0x2011 JUMP JUMPDEST SWAP3 SWAP2 POP POP JUMP JUMPDEST PUSH32 0x4E487B7100000000000000000000000000000000000000000000000000000000 PUSH0 MSTORE PUSH1 0x11 PUSH1 0x4 MSTORE PUSH1 0x24 PUSH0 REVERT JUMPDEST PUSH0 PUSH2 0x2070 DUP3 PUSH2 0x1D83 JUMP JUMPDEST SWAP2 POP PUSH2 0x207B DUP4 PUSH2 0x1D83 JUMP JUMPDEST SWAP3 POP DUP3 DUP3 ADD SWAP1 POP DUP1 DUP3 GT ISZERO PUSH2 0x2093 JUMPI PUSH2 0x2092 PUSH2 0x2039 JUMP JUMPDEST JUMPDEST SWAP3 SWAP2 POP POP JUMP JUMPDEST PUSH0 PUSH1 0x60 DUP3 ADD SWAP1 POP PUSH2 0x20AC PUSH0 DUP4 ADD DUP7 PUSH2 0x1D8C JUMP JUMPDEST PUSH2 0x20B9 PUSH1 0x20 DUP4 ADD DUP6 PUSH2 0x1D8C JUMP JUMPDEST PUSH2 0x20C6 PUSH1 0x40 DUP4 ADD DUP5 PUSH2 0x1D8C JUMP JUMPDEST SWAP5 SWAP4 POP POP POP POP JUMP JUMPDEST PUSH0 PUSH2 0x20D8 DUP3 PUSH2 0x1D83 JUMP JUMPDEST SWAP2 POP PUSH32 0xFFFFFFFFFFFFFFFFFFFFFFFFFFFFFFFFFFFFFFFFFFFFFFFFFFFFFFFFFFFFFFFF DUP3 SUB PUSH2 0x210A JUMPI PUSH2 0x2109 PUSH2 0x2039 JUMP JUMPDEST JUMPDEST PUSH1 0x1 DUP3 ADD SWAP1 POP SWAP2 SWAP1 POP JUMP JUMPDEST PUSH0 PUSH2 0x211F DUP3 PUSH2 0x1D83 JUMP JUMPDEST SWAP2 POP PUSH2 0x212A DUP4 PUSH2 0x1D83 JUMP JUMPDEST SWAP3 POP DUP3 DUP3 SUB SWAP1 POP DUP2 DUP2 GT ISZERO PUSH2 0x2142 JUMPI PUSH2 0x2141 PUSH2 0x2039 JUMP JUMPDEST JUMPDEST SWAP3 SWAP2 POP POP JUMP JUMPDEST PUSH0 PUSH10 0xFFFFFFFFFFFFFFFFFFFF DUP3 AND SWAP1 POP SWAP2 SWAP1 POP JUMP JUMPDEST PUSH2 0x2166 DUP2 PUSH2 0x2148 JUMP JUMPDEST DUP2 EQ PUSH2 0x2170 JUMPI PUSH0 DUP1 REVERT JUMPDEST POP JUMP JUMPDEST PUSH0 DUP2 MLOAD SWAP1 POP PUSH2 0x2181 DUP2 PUSH2 0x215D JUMP JUMPDEST SWAP3 SWAP2 POP POP JUMP JUMPDEST PUSH0 DUP2 SWAP1 POP SWAP2 SWAP1 POP JUMP JUMPDEST PUSH2 0x2199 DUP2 PUSH2 0x2187 JUMP JUMPDEST DUP2 EQ PUSH2 0x21A3 JUMPI PUSH0 DUP1 REVERT JUMPDEST POP JUMP JUMPDEST PUSH0 DUP2 MLOAD SWAP1 POP PUSH2 0x21B4 DUP2 PUSH2 0x2190 JUMP JUMPDEST SWAP3 SWAP2 POP POP JUMP JUMPDEST PUSH0 DUP2 MLOAD SWAP1 POP PUSH2 0x21C8 DUP2 PUSH2 0x1E65 JUMP JUMPDEST SWAP3 SWAP2 POP POP JUMP JUMPDEST PUSH0 DUP1 PUSH0 DUP1 PUSH0 PUSH1 0xA0 DUP7 DUP9 SUB SLT ISZERO PUSH2 0x21E7 JUMPI PUSH2 0x21E6 PUSH2 0x1DB4 JUMP JUMPDEST JUMPDEST PUSH0 PUSH2 0x21F4 DUP9 DUP3 DUP10 ADD PUSH2 0x2173 JUMP JUMPDEST SWAP6 POP POP PUSH1 0x20 PUSH2 0x2205 DUP9 DUP3 DUP10 ADD PUSH2 0x21A6 JUMP JUMPDEST SWAP5 POP POP PUSH1 0x40 PUSH2 0x2216 DUP9 DUP3 DUP10 ADD PUSH2 0x21BA JUMP JUMPDEST SWAP4 POP POP PUSH1 0x60 PUSH2 0x2227 DUP9 DUP3 DUP10 ADD PUSH2 0x21BA JUMP JUMPDEST SWAP3 POP POP PUSH1 0x80 PUSH2 0x2238 DUP9 DUP3 DUP10 ADD PUSH2 0x2173 JUMP JUMPDEST SWAP2 POP POP SWAP3 SWAP6 POP SWAP3 SWAP6 SWAP1 SWAP4 POP JUMP JUMPDEST PUSH0 PUSH2 0x224F DUP3 PUSH2 0x1D83 JUMP JUMPDEST SWAP2 POP PUSH2 0x225A DUP4 PUSH2 0x1D83 JUMP JUMPDEST SWAP3 POP DUP3 DUP3 MUL PUSH2 0x2268 DUP2 PUSH2 0x1D83 JUMP JUMPDEST SWAP2 POP DUP3 DUP3 DIV DUP5 EQ DUP4 ISZERO OR PUSH2 0x227F JUMPI PUSH2 0x227E PUSH2 0x2039 JUMP JUMPDEST JUMPDEST POP SWAP3 SWAP2 POP POP JUMP JUMPDEST PUSH32 0x4E487B7100000000000000000000000000000000000000000000000000000000 PUSH0 MSTORE PUSH1 0x12 PUSH1 0x4 MSTORE PUSH1 0x24 PUSH0 REVERT JUMPDEST PUSH0 PUSH2 0x22BD DUP3 PUSH2 0x1D83 JUMP JUMPDEST SWAP2 POP PUSH2 0x22C8 DUP4 PUSH2 0x1D83 JUMP JUMPDEST SWAP3 POP DUP3 PUSH2 0x22D8 JUMPI PUSH2 0x22D7 PUSH2 0x2286 JUMP JUMPDEST JUMPDEST DUP3 DUP3 DIV SWAP1 POP SWAP3 SWAP2 POP POP JUMP JUMPDEST PUSH0 PUSH1 0x60 DUP3 ADD SWAP1 POP PUSH2 0x22F6 PUSH0 DUP4 ADD DUP7 PUSH2 0x1E3D JUMP JUMPDEST PUSH2 0x2303 PUSH1 0x20 DUP4 ADD DUP6 PUSH2 0x1E3D JUMP JUMPDEST PUSH2 0x2310 PUSH1 0x40 DUP4 ADD DUP5 PUSH2 0x1D8C JUMP JUMPDEST SWAP5 SWAP4 POP POP POP POP JUMP JUMPDEST PUSH0 DUP2 SWAP1 POP SWAP3 SWAP2 POP POP JUMP JUMPDEST POP JUMP JUMPDEST PUSH0 PUSH2 0x2330 PUSH0 DUP4 PUSH2 0x2318 JUMP JUMPDEST SWAP2 POP PUSH2 0x233B DUP3 PUSH2 0x2322 JUMP JUMPDEST PUSH0 DUP3 ADD SWAP1 POP SWAP2 SWAP1 POP JUMP JUMPDEST PUSH0 PUSH2 0x234F DUP3 PUSH2 0x2325 JUMP JUMPDEST SWAP2 POP DUP2 SWAP1 POP SWAP2 SWAP1 POP JUMP JUMPDEST PUSH0 PUSH1 0x40 DUP3 ADD SWAP1 POP PUSH2 0x236C PUSH0 DUP4 ADD DUP6 PUSH2 0x1E3D JUMP JUMPDEST PUSH2 0x2379 PUSH1 0x20 DUP4 ADD DUP5 PUSH2 0x1D8C JUMP JUMPDEST SWAP4 SWAP3 POP POP POP JUMP INVALID LOG2 PUSH5 0x6970667358 0x22 SLT KECCAK256 CHAINID 0xD6 0xB8 PUSH14 0xBA11917D3E4D836731B227F4CD01 LOG4 MUL PUSH28 0x40BDDAB145BF3B9287EC5364736F6C634300081A0033000000000000 "
				},
				"gasEstimates": {
					"creation": {
						"codeDepositCost": "1828400",
						"executionCost": "infinite",
						"totalCost": "infinite"
					},
					"external": {
						"NATIVE_TOKEN()": "395",
						"actualizarFeed(address)": "infinite",
						"consultarBalance(address,address)": "infinite",
						"consultarBalanceTotalUSD(address)": "infinite",
						"consultarEstadoBanco()": "infinite",
						"consultarPrecioETH()": "infinite",
						"depositarETH()": "infinite",
						"depositarUSDC(uint256)": "infinite",
						"getUmbralRetiro()": "infinite",
						"i_bankCapUSD()": "infinite",
						"i_umbralRetiroUSD()": "infinite",
						"i_usdc()": "infinite",
						"owner()": "2538",
						"renounceOwnership()": "infinite",
						"retirarETH(uint256)": "infinite",
						"retirarUSDC(uint256)": "infinite",
						"s_balances(address,address)": "infinite",
						"s_contadorDepositos()": "2493",
						"s_contadorRetiros()": "2469",
						"s_ethUsdFeed()": "infinite",
						"s_totalDepositadoPorToken(address)": "2914",
						"s_totalDepositadoUSD()": "2513",
						"transferOwnership(address)": "infinite"
					},
					"internal": {
						"_convertirEthAUsd(uint256)": "infinite",
						"_obtenerPrecioEth()": "infinite",
						"_transferirEth(address,uint256)": "infinite"
					}
				},
				"methodIdentifiers": {
					"NATIVE_TOKEN()": "31f7d964",
					"actualizarFeed(address)": "d30451e7",
					"consultarBalance(address,address)": "c3b5bc22",
					"consultarBalanceTotalUSD(address)": "501cb72d",
					"consultarEstadoBanco()": "abc9cd6d",
					"consultarPrecioETH()": "d4289d89",
					"depositarETH()": "16a1930f",
					"depositarUSDC(uint256)": "698b7241",
					"getUmbralRetiro()": "2b513163",
					"i_bankCapUSD()": "0ccee433",
					"i_umbralRetiroUSD()": "3eaa00fb",
					"i_usdc()": "ff40e1d0",
					"owner()": "8da5cb5b",
					"renounceOwnership()": "715018a6",
					"retirarETH(uint256)": "82fe54b5",
					"retirarUSDC(uint256)": "931fb90e",
					"s_balances(address,address)": "dccd58e3",
					"s_contadorDepositos()": "2230c272",
					"s_contadorRetiros()": "d4b0d3ce",
					"s_ethUsdFeed()": "b9eb1c9a",
					"s_totalDepositadoPorToken(address)": "2fda583e",
					"s_totalDepositadoUSD()": "e98c6601",
					"transferOwnership(address)": "f2fde38b"
				}
			},
			"storageLayout": {
				"storage": [
					{
						"astId": 854,
						"contract": "03_kipu-bank-v2/contracts/KipuBankV2.sol:KipuBankV2",
						"label": "_owner",
						"offset": 0,
						"slot": "0",
						"type": "t_address"
					},
					{
						"astId": 1666,
						"contract": "03_kipu-bank-v2/contracts/KipuBankV2.sol:KipuBankV2",
						"label": "_status",
						"offset": 0,
						"slot": "1",
						"type": "t_uint256"
					},
					{
						"astId": 52,
						"contract": "03_kipu-bank-v2/contracts/KipuBankV2.sol:KipuBankV2",
						"label": "s_ethUsdFeed",
						"offset": 0,
						"slot": "2",
						"type": "t_contract(AggregatorV3Interface)845"
					},
					{
						"astId": 59,
						"contract": "03_kipu-bank-v2/contracts/KipuBankV2.sol:KipuBankV2",
						"label": "s_balances",
						"offset": 0,
						"slot": "3",
						"type": "t_mapping(t_address,t_mapping(t_address,t_uint256))"
					},
					{
						"astId": 64,
						"contract": "03_kipu-bank-v2/contracts/KipuBankV2.sol:KipuBankV2",
						"label": "s_totalDepositadoPorToken",
						"offset": 0,
						"slot": "4",
						"type": "t_mapping(t_address,t_uint256)"
					},
					{
						"astId": 67,
						"contract": "03_kipu-bank-v2/contracts/KipuBankV2.sol:KipuBankV2",
						"label": "s_totalDepositadoUSD",
						"offset": 0,
						"slot": "5",
						"type": "t_uint256"
					},
					{
						"astId": 70,
						"contract": "03_kipu-bank-v2/contracts/KipuBankV2.sol:KipuBankV2",
						"label": "s_contadorDepositos",
						"offset": 0,
						"slot": "6",
						"type": "t_uint256"
					},
					{
						"astId": 73,
						"contract": "03_kipu-bank-v2/contracts/KipuBankV2.sol:KipuBankV2",
						"label": "s_contadorRetiros",
						"offset": 0,
						"slot": "7",
						"type": "t_uint256"
					}
				],
				"types": {
					"t_address": {
						"encoding": "inplace",
						"label": "address",
						"numberOfBytes": "20"
					},
					"t_contract(AggregatorV3Interface)845": {
						"encoding": "inplace",
						"label": "contract AggregatorV3Interface",
						"numberOfBytes": "20"
					},
					"t_mapping(t_address,t_mapping(t_address,t_uint256))": {
						"encoding": "mapping",
						"key": "t_address",
						"label": "mapping(address => mapping(address => uint256))",
						"numberOfBytes": "32",
						"value": "t_mapping(t_address,t_uint256)"
					},
					"t_mapping(t_address,t_uint256)": {
						"encoding": "mapping",
						"key": "t_address",
						"label": "mapping(address => uint256)",
						"numberOfBytes": "32",
						"value": "t_uint256"
					},
					"t_uint256": {
						"encoding": "inplace",
						"label": "uint256",
						"numberOfBytes": "32"
					}
				}
			},
			"userdoc": {
				"errors": {
					"KipuBankV2_LimiteGlobalExcedidoUSD(uint256,uint256,uint256)": [
						{
							"notice": "Error emitido cuando el depósito excede el límite global en USD"
						}
					],
					"KipuBankV2_MontoDebeSerMayorACero()": [
						{
							"notice": "Error emitido cuando el monto es cero"
						}
					],
					"KipuBankV2_OracleCompromised()": [
						{
							"notice": "Error emitido cuando el oráculo retorna un precio inválido"
						}
					],
					"KipuBankV2_RetiroExcedeUmbral(uint256,uint256)": [
						{
							"notice": "Error emitido cuando el retiro excede el umbral permitido por transacción"
						}
					],
					"KipuBankV2_SaldoInsuficiente(uint256,uint256)": [
						{
							"notice": "Error emitido cuando el usuario intenta retirar más de lo que tiene"
						}
					],
					"KipuBankV2_StalePrice(uint256,uint256)": [
						{
							"notice": "Error emitido cuando el precio del oráculo está desactualizado"
						}
					],
					"KipuBankV2_TokenNoSoportado(address)": [
						{
							"notice": "Error emitido cuando el token no es soportado"
						}
					],
					"KipuBankV2_TransferenciaFallida(address)": [
						{
							"notice": "Error emitido cuando falla la transferencia de ETH"
						}
					]
				},
				"events": {
					"KipuBankV2_DepositoRealizado(address,address,uint256,uint256)": {
						"notice": "Evento emitido cuando un usuario realiza un depósito exitoso"
					},
					"KipuBankV2_FeedActualizado(address)": {
						"notice": "Evento emitido cuando el owner actualiza el feed de Chainlink"
					},
					"KipuBankV2_RetiroRealizado(address,address,uint256,uint256)": {
						"notice": "Evento emitido cuando un usuario realiza un retiro exitoso"
					}
				},
				"kind": "user",
				"methods": {
					"NATIVE_TOKEN()": {
						"notice": "declaro eth nativo"
					},
					"actualizarFeed(address)": {
						"notice": "Permite al dueno del contrato actualizar la dirección del Chainlink Price Feed"
					},
					"consultarBalance(address,address)": {
						"notice": "Consulta el balance de un usuario para un token específico"
					},
					"consultarBalanceTotalUSD(address)": {
						"notice": "Consulta el balance total de un usuario en USD (todos los tokens)"
					},
					"consultarEstadoBanco()": {
						"notice": "Consulta información general del estado del banco"
					},
					"consultarPrecioETH()": {
						"notice": "Consulta el precio actual de ETH en USD desde Chainlink"
					},
					"depositarETH()": {
						"notice": "Permite depositar ETH nativo en la bóveda del usuario"
					},
					"depositarUSDC(uint256)": {
						"notice": "Depositar directamente USDC"
					},
					"i_bankCapUSD()": {
						"notice": "Límite global del banco en USD"
					},
					"i_umbralRetiroUSD()": {
						"notice": "Umbral máximo de retiro por transacción en USD"
					},
					"i_usdc()": {
						"notice": "Dirección del token USDC"
					},
					"retirarETH(uint256)": {
						"notice": "Permite retirar ETH nativo de la bóveda del usuario"
					},
					"retirarUSDC(uint256)": {
						"notice": "Permite retirar USDC de la bóveda del usuario"
					},
					"s_balances(address,address)": {
						"notice": "Mapping anidado: usuario => token => balance en USD"
					},
					"s_contadorDepositos()": {
						"notice": "Contador global de depósitos realizados"
					},
					"s_contadorRetiros()": {
						"notice": "Contador global de retiros realizados"
					},
					"s_ethUsdFeed()": {
						"notice": "Oracle de Chainlink para obtener precio ETH/USD"
					},
					"s_totalDepositadoPorToken(address)": {
						"notice": "Total depositado por token en USD"
					},
					"s_totalDepositadoUSD()": {
						"notice": "Total depositado global en USD (suma de todos los tokens)"
					}
				},
				"version": 1
			}
		}
	}
}