{
	"02_kipu-bank/contracts/KipuBank.sol": {
		"KipuBank": {
			"abi": [
				{
					"inputs": [
						{
							"internalType": "uint256",
							"name": "_bankCap",
							"type": "uint256"
						},
						{
							"internalType": "uint256",
							"name": "_umbralRetiro",
							"type": "uint256"
						}
					],
					"stateMutability": "nonpayable",
					"type": "constructor"
				},
				{
					"inputs": [
						{
							"internalType": "uint256",
							"name": "depositoActual",
							"type": "uint256"
						},
						{
							"internalType": "uint256",
							"name": "intentoDeposito",
							"type": "uint256"
						},
						{
							"internalType": "uint256",
							"name": "limiteMaximo",
							"type": "uint256"
						}
					],
					"name": "KipuBank_LimiteGlobalExcedido",
					"type": "error"
				},
				{
					"inputs": [],
					"name": "KipuBank_MontoDebeSerMayorACero",
					"type": "error"
				},
				{
					"inputs": [
						{
							"internalType": "uint256",
							"name": "montoSolicitado",
							"type": "uint256"
						},
						{
							"internalType": "uint256",
							"name": "umbralMaximo",
							"type": "uint256"
						}
					],
					"name": "KipuBank_RetiroExcedeUmbral",
					"type": "error"
				},
				{
					"inputs": [
						{
							"internalType": "uint256",
							"name": "balanceDisponible",
							"type": "uint256"
						},
						{
							"internalType": "uint256",
							"name": "montoSolicitado",
							"type": "uint256"
						}
					],
					"name": "KipuBank_SaldoInsuficiente",
					"type": "error"
				},
				{
					"inputs": [
						{
							"internalType": "address",
							"name": "destinatario",
							"type": "address"
						}
					],
					"name": "KipuBank_TransferenciaFallida",
					"type": "error"
				},
				{
					"anonymous": false,
					"inputs": [
						{
							"indexed": true,
							"internalType": "address",
							"name": "usuario",
							"type": "address"
						},
						{
							"indexed": false,
							"internalType": "uint256",
							"name": "monto",
							"type": "uint256"
						}
					],
					"name": "KipuBank_DepositoRealizado",
					"type": "event"
				},
				{
					"anonymous": false,
					"inputs": [
						{
							"indexed": true,
							"internalType": "address",
							"name": "usuario",
							"type": "address"
						},
						{
							"indexed": false,
							"internalType": "uint256",
							"name": "monto",
							"type": "uint256"
						}
					],
					"name": "KipuBank_RetiroRealizado",
					"type": "event"
				},
				{
					"inputs": [
						{
							"internalType": "address",
							"name": "_usuario",
							"type": "address"
						}
					],
					"name": "consultarBalance",
					"outputs": [
						{
							"internalType": "uint256",
							"name": "balance_",
							"type": "uint256"
						}
					],
					"stateMutability": "view",
					"type": "function"
				},
				{
					"inputs": [],
					"name": "consultarEstadoBanco",
					"outputs": [
						{
							"internalType": "uint256",
							"name": "totalDepositado_",
							"type": "uint256"
						},
						{
							"internalType": "uint256",
							"name": "contadorDepositos_",
							"type": "uint256"
						},
						{
							"internalType": "uint256",
							"name": "contadorRetiros_",
							"type": "uint256"
						},
						{
							"internalType": "uint256",
							"name": "bankCap_",
							"type": "uint256"
						},
						{
							"internalType": "uint256",
							"name": "umbralRetiro_",
							"type": "uint256"
						}
					],
					"stateMutability": "view",
					"type": "function"
				},
				{
					"inputs": [],
					"name": "depositar",
					"outputs": [],
					"stateMutability": "payable",
					"type": "function"
				},
				{
					"inputs": [],
					"name": "i_bankCap",
					"outputs": [
						{
							"internalType": "uint256",
							"name": "",
							"type": "uint256"
						}
					],
					"stateMutability": "view",
					"type": "function"
				},
				{
					"inputs": [],
					"name": "i_umbralRetiro",
					"outputs": [
						{
							"internalType": "uint256",
							"name": "",
							"type": "uint256"
						}
					],
					"stateMutability": "view",
					"type": "function"
				},
				{
					"inputs": [
						{
							"internalType": "uint256",
							"name": "_monto",
							"type": "uint256"
						}
					],
					"name": "retirar",
					"outputs": [],
					"stateMutability": "nonpayable",
					"type": "function"
				},
				{
					"inputs": [
						{
							"internalType": "address",
							"name": "usuario",
							"type": "address"
						}
					],
					"name": "s_boveda",
					"outputs": [
						{
							"internalType": "uint256",
							"name": "balance",
							"type": "uint256"
						}
					],
					"stateMutability": "view",
					"type": "function"
				},
				{
					"inputs": [],
					"name": "s_contadorDepositos",
					"outputs": [
						{
							"internalType": "uint256",
							"name": "",
							"type": "uint256"
						}
					],
					"stateMutability": "view",
					"type": "function"
				},
				{
					"inputs": [],
					"name": "s_contadorRetiros",
					"outputs": [
						{
							"internalType": "uint256",
							"name": "",
							"type": "uint256"
						}
					],
					"stateMutability": "view",
					"type": "function"
				},
				{
					"inputs": [],
					"name": "s_totalDepositado",
					"outputs": [
						{
							"internalType": "uint256",
							"name": "",
							"type": "uint256"
						}
					],
					"stateMutability": "view",
					"type": "function"
				}
			],
			"devdoc": {
				"author": "guidobursz",
				"custom:security": "Este es un contrato educativo - Módulo 2 EDP",
				"details": "Este contrato implementa límites de retiro y cap global de depósitos",
				"errors": {
					"KipuBank_LimiteGlobalExcedido(uint256,uint256,uint256)": [
						{
							"params": {
								"depositoActual": "Total actualmente depositado en el banco",
								"intentoDeposito": "Monto que se intenta depositar",
								"limiteMaximo": "Limite maximo permitido (bankCap)"
							}
						}
					],
					"KipuBank_RetiroExcedeUmbral(uint256,uint256)": [
						{
							"params": {
								"montoSolicitado": "Monto que intenta retirar",
								"umbralMaximo": "Limite maximo por retiro"
							}
						}
					],
					"KipuBank_SaldoInsuficiente(uint256,uint256)": [
						{
							"params": {
								"balanceDisponible": "Balance actual del usuario",
								"montoSolicitado": "Monto que intenta retirar"
							}
						}
					],
					"KipuBank_TransferenciaFallida(address)": [
						{
							"params": {
								"destinatario": "Direccion a la que se intento enviar"
							}
						}
					]
				},
				"events": {
					"KipuBank_DepositoRealizado(address,uint256)": {
						"params": {
							"monto": "Cantidad de ETH depositada",
							"usuario": "Direccion del usuario que deposito"
						}
					},
					"KipuBank_RetiroRealizado(address,uint256)": {
						"params": {
							"monto": "Cantidad de ETH retirada",
							"usuario": "Direccion del usuario que retiro"
						}
					}
				},
				"kind": "dev",
				"methods": {
					"constructor": {
						"details": "Los valores se establecen como immutable y no pueden cambiar despues del deployment",
						"params": {
							"_bankCap": "Limite maximo total de depositos permitidos en el banco",
							"_umbralRetiro": "Monto maximo que se puede retirar por transaccion"
						}
					},
					"consultarBalance(address)": {
						"params": {
							"_usuario": "Direccion del usuario que desea consultar el balance"
						},
						"returns": {
							"balance_": "Balance del usuario"
						}
					},
					"consultarEstadoBanco()": {
						"returns": {
							"bankCap_": "Límite máximo de depósitos del banco",
							"contadorDepositos_": "Número total de depósitos realizados",
							"contadorRetiros_": "Número total de retiros realizados",
							"totalDepositado_": "Total de ETH depositado en el banco",
							"umbralRetiro_": "Límite máximo por retiro"
						}
					},
					"depositar()": {
						"details": "Antes de procesar el deposito valido el monto y el limite globalincremento el balance del usuario, el total depositado y el contador de depositosEmite el evento KipuBank_DepositoRealizado si hay deposito exitoso"
					},
					"retirar(uint256)": {
						"details": "Valida que el monto sea mayor a cero, que el usuario tenga saldo suficientey que no exceda el umbral de retiro por transacciónSigue el patrón checks-effects-interactions para prevenir reentrancyEmite el evento KipuBank_RetiroRealizado tras un retiro exitoso",
						"params": {
							"_monto": "Cantidad de ETH que el usuario desea retirar"
						}
					}
				},
				"title": "Contrato KipuBank",
				"version": 1
			},
			"evm": {
				"assembly": "    /* \"02_kipu-bank/contracts/KipuBank.sol\":340:8572  contract KipuBank {... */\n  mstore(0x40, 0xc0)\n    /* \"02_kipu-bank/contracts/KipuBank.sol\":3812:3962  constructor(uint256 _bankCap, uint256 _umbralRetiro) {... */\n  callvalue\n  dup1\n  iszero\n  tag_1\n  jumpi\n  0x00\n  dup1\n  revert\ntag_1:\n  pop\n  mload(0x40)\n  sub(codesize, bytecodeSize)\n  dup1\n  bytecodeSize\n  dup4\n  codecopy\n  dup2\n  dup2\n  add\n  0x40\n  mstore\n  dup2\n  add\n  swap1\n  tag_2\n  swap2\n  swap1\n  tag_3\n  jump\t// in\ntag_2:\n    /* \"02_kipu-bank/contracts/KipuBank.sol\":3895:3903  _bankCap */\n  dup2\n    /* \"02_kipu-bank/contracts/KipuBank.sol\":3883:3903  i_bankCap = _bankCap */\n  0xa0\n  dup2\n  dup2\n  mstore\n  pop\n  pop\n    /* \"02_kipu-bank/contracts/KipuBank.sol\":3938:3951  _umbralRetiro */\n  dup1\n    /* \"02_kipu-bank/contracts/KipuBank.sol\":3921:3951  i_umbralRetiro = _umbralRetiro */\n  0x80\n  dup2\n  dup2\n  mstore\n  pop\n  pop\n    /* \"02_kipu-bank/contracts/KipuBank.sol\":3812:3962  constructor(uint256 _bankCap, uint256 _umbralRetiro) {... */\n  pop\n  pop\n    /* \"02_kipu-bank/contracts/KipuBank.sol\":340:8572  contract KipuBank {... */\n  jump(tag_6)\n    /* \"#utility.yul\":88:205   */\ntag_8:\n    /* \"#utility.yul\":197:198   */\n  0x00\n    /* \"#utility.yul\":194:195   */\n  dup1\n    /* \"#utility.yul\":187:199   */\n  revert\n    /* \"#utility.yul\":334:411   */\ntag_10:\n    /* \"#utility.yul\":371:378   */\n  0x00\n    /* \"#utility.yul\":400:405   */\n  dup2\n    /* \"#utility.yul\":389:405   */\n  swap1\n  pop\n    /* \"#utility.yul\":334:411   */\n  swap2\n  swap1\n  pop\n  jump\t// out\n    /* \"#utility.yul\":417:539   */\ntag_11:\n    /* \"#utility.yul\":490:514   */\n  tag_19\n    /* \"#utility.yul\":508:513   */\n  dup2\n    /* \"#utility.yul\":490:514   */\n  tag_10\n  jump\t// in\ntag_19:\n    /* \"#utility.yul\":483:488   */\n  dup2\n    /* \"#utility.yul\":480:515   */\n  eq\n    /* \"#utility.yul\":470:533   */\n  tag_20\n  jumpi\n    /* \"#utility.yul\":529:530   */\n  0x00\n    /* \"#utility.yul\":526:527   */\n  dup1\n    /* \"#utility.yul\":519:531   */\n  revert\n    /* \"#utility.yul\":470:533   */\ntag_20:\n    /* \"#utility.yul\":417:539   */\n  pop\n  jump\t// out\n    /* \"#utility.yul\":545:688   */\ntag_12:\n    /* \"#utility.yul\":602:607   */\n  0x00\n    /* \"#utility.yul\":633:639   */\n  dup2\n    /* \"#utility.yul\":627:640   */\n  mload\n    /* \"#utility.yul\":618:640   */\n  swap1\n  pop\n    /* \"#utility.yul\":649:682   */\n  tag_22\n    /* \"#utility.yul\":676:681   */\n  dup2\n    /* \"#utility.yul\":649:682   */\n  tag_11\n  jump\t// in\ntag_22:\n    /* \"#utility.yul\":545:688   */\n  swap3\n  swap2\n  pop\n  pop\n  jump\t// out\n    /* \"#utility.yul\":694:1201   */\ntag_3:\n    /* \"#utility.yul\":773:779   */\n  0x00\n    /* \"#utility.yul\":781:787   */\n  dup1\n    /* \"#utility.yul\":830:832   */\n  0x40\n    /* \"#utility.yul\":818:827   */\n  dup4\n    /* \"#utility.yul\":809:816   */\n  dup6\n    /* \"#utility.yul\":805:828   */\n  sub\n    /* \"#utility.yul\":801:833   */\n  slt\n    /* \"#utility.yul\":798:917   */\n  iszero\n  tag_24\n  jumpi\n    /* \"#utility.yul\":836:915   */\n  tag_25\n  tag_8\n  jump\t// in\ntag_25:\n    /* \"#utility.yul\":798:917   */\ntag_24:\n    /* \"#utility.yul\":956:957   */\n  0x00\n    /* \"#utility.yul\":981:1045   */\n  tag_26\n    /* \"#utility.yul\":1037:1044   */\n  dup6\n    /* \"#utility.yul\":1028:1034   */\n  dup3\n    /* \"#utility.yul\":1017:1026   */\n  dup7\n    /* \"#utility.yul\":1013:1035   */\n  add\n    /* \"#utility.yul\":981:1045   */\n  tag_12\n  jump\t// in\ntag_26:\n    /* \"#utility.yul\":971:1045   */\n  swap3\n  pop\n    /* \"#utility.yul\":927:1055   */\n  pop\n    /* \"#utility.yul\":1094:1096   */\n  0x20\n    /* \"#utility.yul\":1120:1184   */\n  tag_27\n    /* \"#utility.yul\":1176:1183   */\n  dup6\n    /* \"#utility.yul\":1167:1173   */\n  dup3\n    /* \"#utility.yul\":1156:1165   */\n  dup7\n    /* \"#utility.yul\":1152:1174   */\n  add\n    /* \"#utility.yul\":1120:1184   */\n  tag_12\n  jump\t// in\ntag_27:\n    /* \"#utility.yul\":1110:1184   */\n  swap2\n  pop\n    /* \"#utility.yul\":1065:1194   */\n  pop\n    /* \"#utility.yul\":694:1201   */\n  swap3\n  pop\n  swap3\n  swap1\n  pop\n  jump\t// out\n    /* \"02_kipu-bank/contracts/KipuBank.sol\":340:8572  contract KipuBank {... */\ntag_6:\n  mload(0x80)\n  mload(0xa0)\n  codecopy(0x00, dataOffset(sub_0), dataSize(sub_0))\n  0x00\n  assignImmutable(\"0xe4b1702d9298fee62dfeccc57d322a463ad55ca201256d01f62b45b2e1c21c10\")\n  0x00\n  assignImmutable(\"0xceebf77a833b30520287ddd9478ff51abbdffa30aa90a8d655dba0e8a79ce0c1\")\n  return(0x00, dataSize(sub_0))\nstop\n\nsub_0: assembly {\n        /* \"02_kipu-bank/contracts/KipuBank.sol\":340:8572  contract KipuBank {... */\n      mstore(0x40, 0x80)\n      jumpi(tag_1, lt(calldatasize, 0x04))\n      shr(0xe0, calldataload(0x00))\n      dup1\n      0x6df5c134\n      gt\n      tag_12\n      jumpi\n      dup1\n      0x6df5c134\n      eq\n      tag_7\n      jumpi\n      dup1\n      0xabc9cd6d\n      eq\n      tag_8\n      jumpi\n      dup1\n      0xd4b0d3ce\n      eq\n      tag_9\n      jumpi\n      dup1\n      0xe8b1298f\n      eq\n      tag_10\n      jumpi\n      dup1\n      0xf6687af7\n      eq\n      tag_11\n      jumpi\n      jump(tag_1)\n    tag_12:\n      dup1\n      0x1c6d62a3\n      eq\n      tag_2\n      jumpi\n      dup1\n      0x1d1448f2\n      eq\n      tag_3\n      jumpi\n      dup1\n      0x2230c272\n      eq\n      tag_4\n      jumpi\n      dup1\n      0x3d922f90\n      eq\n      tag_5\n      jumpi\n      dup1\n      0x4149f9ac\n      eq\n      tag_6\n      jumpi\n    tag_1:\n      0x00\n      dup1\n      revert\n        /* \"02_kipu-bank/contracts/KipuBank.sol\":802:834  uint256 public s_totalDepositado */\n    tag_2:\n      callvalue\n      dup1\n      iszero\n      tag_13\n      jumpi\n      0x00\n      dup1\n      revert\n    tag_13:\n      pop\n      tag_14\n      tag_15\n      jump\t// in\n    tag_14:\n      mload(0x40)\n      tag_16\n      swap2\n      swap1\n      tag_17\n      jump\t// in\n    tag_16:\n      mload(0x40)\n      dup1\n      swap2\n      sub\n      swap1\n      return\n        /* \"02_kipu-bank/contracts/KipuBank.sol\":1126:1185  mapping(address usuario => uint256 balance) public s_boveda */\n    tag_3:\n      callvalue\n      dup1\n      iszero\n      tag_18\n      jumpi\n      0x00\n      dup1\n      revert\n    tag_18:\n      pop\n      tag_19\n      0x04\n      dup1\n      calldatasize\n      sub\n      dup2\n      add\n      swap1\n      tag_20\n      swap2\n      swap1\n      tag_21\n      jump\t// in\n    tag_20:\n      tag_22\n      jump\t// in\n    tag_19:\n      mload(0x40)\n      tag_23\n      swap2\n      swap1\n      tag_17\n      jump\t// in\n    tag_23:\n      mload(0x40)\n      dup1\n      swap2\n      sub\n      swap1\n      return\n        /* \"02_kipu-bank/contracts/KipuBank.sol\":900:934  uint256 public s_contadorDepositos */\n    tag_4:\n      callvalue\n      dup1\n      iszero\n      tag_24\n      jumpi\n      0x00\n      dup1\n      revert\n    tag_24:\n      pop\n      tag_25\n      tag_26\n      jump\t// in\n    tag_25:\n      mload(0x40)\n      tag_27\n      swap2\n      swap1\n      tag_17\n      jump\t// in\n    tag_27:\n      mload(0x40)\n      dup1\n      swap2\n      sub\n      swap1\n      return\n        /* \"02_kipu-bank/contracts/KipuBank.sol\":5211:5646  function depositar() external payable montoMayorACero validarLimiteGlobal {... */\n    tag_5:\n      tag_28\n      tag_29\n      jump\t// in\n    tag_28:\n      stop\n        /* \"02_kipu-bank/contracts/KipuBank.sol\":7575:7706  function consultarBalance(address _usuario) external view returns (uint256 balance_) {... */\n    tag_6:\n      callvalue\n      dup1\n      iszero\n      tag_30\n      jumpi\n      0x00\n      dup1\n      revert\n    tag_30:\n      pop\n      tag_31\n      0x04\n      dup1\n      calldatasize\n      sub\n      dup2\n      add\n      swap1\n      tag_32\n      swap2\n      swap1\n      tag_21\n      jump\t// in\n    tag_32:\n      tag_33\n      jump\t// in\n    tag_31:\n      mload(0x40)\n      tag_34\n      swap2\n      swap1\n      tag_17\n      jump\t// in\n    tag_34:\n      mload(0x40)\n      dup1\n      swap2\n      sub\n      swap1\n      return\n        /* \"02_kipu-bank/contracts/KipuBank.sol\":555:594  uint256 public immutable i_umbralRetiro */\n    tag_7:\n      callvalue\n      dup1\n      iszero\n      tag_35\n      jumpi\n      0x00\n      dup1\n      revert\n    tag_35:\n      pop\n      tag_36\n      tag_37\n      jump\t// in\n    tag_36:\n      mload(0x40)\n      tag_38\n      swap2\n      swap1\n      tag_17\n      jump\t// in\n    tag_38:\n      mload(0x40)\n      dup1\n      swap2\n      sub\n      swap1\n      return\n        /* \"02_kipu-bank/contracts/KipuBank.sol\":8129:8570  function consultarEstadoBanco() external view returns (... */\n    tag_8:\n      callvalue\n      dup1\n      iszero\n      tag_39\n      jumpi\n      0x00\n      dup1\n      revert\n    tag_39:\n      pop\n      tag_40\n      tag_41\n      jump\t// in\n    tag_40:\n      mload(0x40)\n      tag_42\n      swap6\n      swap5\n      swap4\n      swap3\n      swap2\n      swap1\n      tag_43\n      jump\t// in\n    tag_42:\n      mload(0x40)\n      dup1\n      swap2\n      sub\n      swap1\n      return\n        /* \"02_kipu-bank/contracts/KipuBank.sol\":998:1030  uint256 public s_contadorRetiros */\n    tag_9:\n      callvalue\n      dup1\n      iszero\n      tag_44\n      jumpi\n      0x00\n      dup1\n      revert\n    tag_44:\n      pop\n      tag_45\n      tag_46\n      jump\t// in\n    tag_45:\n      mload(0x40)\n      tag_47\n      swap2\n      swap1\n      tag_17\n      jump\t// in\n    tag_47:\n      mload(0x40)\n      dup1\n      swap2\n      sub\n      swap1\n      return\n        /* \"02_kipu-bank/contracts/KipuBank.sol\":6140:6927  function retirar(uint256 _monto) external {... */\n    tag_10:\n      callvalue\n      dup1\n      iszero\n      tag_48\n      jumpi\n      0x00\n      dup1\n      revert\n    tag_48:\n      pop\n      tag_49\n      0x04\n      dup1\n      calldatasize\n      sub\n      dup2\n      add\n      swap1\n      tag_50\n      swap2\n      swap1\n      tag_51\n      jump\t// in\n    tag_50:\n      tag_52\n      jump\t// in\n    tag_49:\n      stop\n        /* \"02_kipu-bank/contracts/KipuBank.sol\":660:694  uint256 public immutable i_bankCap */\n    tag_11:\n      callvalue\n      dup1\n      iszero\n      tag_53\n      jumpi\n      0x00\n      dup1\n      revert\n    tag_53:\n      pop\n      tag_54\n      tag_55\n      jump\t// in\n    tag_54:\n      mload(0x40)\n      tag_56\n      swap2\n      swap1\n      tag_17\n      jump\t// in\n    tag_56:\n      mload(0x40)\n      dup1\n      swap2\n      sub\n      swap1\n      return\n        /* \"02_kipu-bank/contracts/KipuBank.sol\":802:834  uint256 public s_totalDepositado */\n    tag_15:\n      sload(0x00)\n      dup2\n      jump\t// out\n        /* \"02_kipu-bank/contracts/KipuBank.sol\":1126:1185  mapping(address usuario => uint256 balance) public s_boveda */\n    tag_22:\n      mstore(0x20, 0x03)\n      dup1\n      0x00\n      mstore\n      keccak256(0x00, 0x40)\n      0x00\n      swap2\n      pop\n      swap1\n      pop\n      sload\n      dup2\n      jump\t// out\n        /* \"02_kipu-bank/contracts/KipuBank.sol\":900:934  uint256 public s_contadorDepositos */\n    tag_26:\n      sload(0x01)\n      dup2\n      jump\t// out\n        /* \"02_kipu-bank/contracts/KipuBank.sol\":5211:5646  function depositar() external payable montoMayorACero validarLimiteGlobal {... */\n    tag_29:\n        /* \"02_kipu-bank/contracts/KipuBank.sol\":4252:4253  0 */\n      0x00\n        /* \"02_kipu-bank/contracts/KipuBank.sol\":4239:4248  msg.value */\n      callvalue\n        /* \"02_kipu-bank/contracts/KipuBank.sol\":4239:4253  msg.value == 0 */\n      sub\n        /* \"02_kipu-bank/contracts/KipuBank.sol\":4235:4295  if (msg.value == 0) revert KipuBank_MontoDebeSerMayorACero() */\n      tag_58\n      jumpi\n        /* \"02_kipu-bank/contracts/KipuBank.sol\":4262:4295  KipuBank_MontoDebeSerMayorACero() */\n      mload(0x40)\n      0x573dd94100000000000000000000000000000000000000000000000000000000\n      dup2\n      mstore\n      0x04\n      add\n      mload(0x40)\n      dup1\n      swap2\n      sub\n      swap1\n      revert\n        /* \"02_kipu-bank/contracts/KipuBank.sol\":4235:4295  if (msg.value == 0) revert KipuBank_MontoDebeSerMayorACero() */\n    tag_58:\n        /* \"02_kipu-bank/contracts/KipuBank.sol\":4579:4588  i_bankCap */\n      immutable(\"0xe4b1702d9298fee62dfeccc57d322a463ad55ca201256d01f62b45b2e1c21c10\")\n        /* \"02_kipu-bank/contracts/KipuBank.sol\":4567:4576  msg.value */\n      callvalue\n        /* \"02_kipu-bank/contracts/KipuBank.sol\":4547:4564  s_totalDepositado */\n      sload(0x00)\n        /* \"02_kipu-bank/contracts/KipuBank.sol\":4547:4576  s_totalDepositado + msg.value */\n      tag_60\n      swap2\n      swap1\n      tag_61\n      jump\t// in\n    tag_60:\n        /* \"02_kipu-bank/contracts/KipuBank.sol\":4547:4588  s_totalDepositado + msg.value > i_bankCap */\n      gt\n        /* \"02_kipu-bank/contracts/KipuBank.sol\":4543:4754  if (s_totalDepositado + msg.value > i_bankCap) {... */\n      iszero\n      tag_62\n      jumpi\n        /* \"02_kipu-bank/contracts/KipuBank.sol\":4658:4675  s_totalDepositado */\n      sload(0x00)\n        /* \"02_kipu-bank/contracts/KipuBank.sol\":4693:4702  msg.value */\n      callvalue\n        /* \"02_kipu-bank/contracts/KipuBank.sol\":4720:4729  i_bankCap */\n      immutable(\"0xe4b1702d9298fee62dfeccc57d322a463ad55ca201256d01f62b45b2e1c21c10\")\n        /* \"02_kipu-bank/contracts/KipuBank.sol\":4611:4743  KipuBank_LimiteGlobalExcedido(... */\n      mload(0x40)\n      0xb6dc76ea00000000000000000000000000000000000000000000000000000000\n      dup2\n      mstore\n      0x04\n      add\n      tag_63\n      swap4\n      swap3\n      swap2\n      swap1\n      tag_64\n      jump\t// in\n    tag_63:\n      mload(0x40)\n      dup1\n      swap2\n      sub\n      swap1\n      revert\n        /* \"02_kipu-bank/contracts/KipuBank.sol\":4543:4754  if (s_totalDepositado + msg.value > i_bankCap) {... */\n    tag_62:\n        /* \"02_kipu-bank/contracts/KipuBank.sol\":5363:5372  msg.value */\n      callvalue\n        /* \"02_kipu-bank/contracts/KipuBank.sol\":5339:5347  s_boveda */\n      0x03\n        /* \"02_kipu-bank/contracts/KipuBank.sol\":5339:5359  s_boveda[msg.sender] */\n      0x00\n        /* \"02_kipu-bank/contracts/KipuBank.sol\":5348:5358  msg.sender */\n      caller\n        /* \"02_kipu-bank/contracts/KipuBank.sol\":5339:5359  s_boveda[msg.sender] */\n      0xffffffffffffffffffffffffffffffffffffffff\n      and\n      0xffffffffffffffffffffffffffffffffffffffff\n      and\n      dup2\n      mstore\n      0x20\n      add\n      swap1\n      dup2\n      mstore\n      0x20\n      add\n      0x00\n      keccak256\n      0x00\n        /* \"02_kipu-bank/contracts/KipuBank.sol\":5339:5372  s_boveda[msg.sender] += msg.value */\n      dup3\n      dup3\n      sload\n      tag_66\n      swap2\n      swap1\n      tag_61\n      jump\t// in\n    tag_66:\n      swap3\n      pop\n      pop\n      dup2\n      swap1\n      sstore\n      pop\n        /* \"02_kipu-bank/contracts/KipuBank.sol\":5444:5453  msg.value */\n      callvalue\n        /* \"02_kipu-bank/contracts/KipuBank.sol\":5423:5440  s_totalDepositado */\n      0x00\n      dup1\n        /* \"02_kipu-bank/contracts/KipuBank.sol\":5423:5453  s_totalDepositado += msg.value */\n      dup3\n      dup3\n      sload\n      tag_67\n      swap2\n      swap1\n      tag_61\n      jump\t// in\n    tag_67:\n      swap3\n      pop\n      pop\n      dup2\n      swap1\n      sstore\n      pop\n        /* \"02_kipu-bank/contracts/KipuBank.sol\":5509:5528  s_contadorDepositos */\n      0x01\n      0x00\n        /* \"02_kipu-bank/contracts/KipuBank.sol\":5509:5530  s_contadorDepositos++ */\n      dup2\n      sload\n      dup1\n      swap3\n      swap2\n      swap1\n      tag_68\n      swap1\n      tag_69\n      jump\t// in\n    tag_68:\n      swap2\n      swap1\n      pop\n      sstore\n      pop\n        /* \"02_kipu-bank/contracts/KipuBank.sol\":5617:5627  msg.sender */\n      caller\n        /* \"02_kipu-bank/contracts/KipuBank.sol\":5590:5639  KipuBank_DepositoRealizado(msg.sender, msg.value) */\n      0xffffffffffffffffffffffffffffffffffffffff\n      and\n      0x9d15693852bf60dc27bd5aa831d0351359b7d01d428ae1baae11f15cbcfebafd\n        /* \"02_kipu-bank/contracts/KipuBank.sol\":5629:5638  msg.value */\n      callvalue\n        /* \"02_kipu-bank/contracts/KipuBank.sol\":5590:5639  KipuBank_DepositoRealizado(msg.sender, msg.value) */\n      mload(0x40)\n      tag_70\n      swap2\n      swap1\n      tag_17\n      jump\t// in\n    tag_70:\n      mload(0x40)\n      dup1\n      swap2\n      sub\n      swap1\n      log2\n        /* \"02_kipu-bank/contracts/KipuBank.sol\":5211:5646  function depositar() external payable montoMayorACero validarLimiteGlobal {... */\n      jump\t// out\n        /* \"02_kipu-bank/contracts/KipuBank.sol\":7575:7706  function consultarBalance(address _usuario) external view returns (uint256 balance_) {... */\n    tag_33:\n        /* \"02_kipu-bank/contracts/KipuBank.sol\":7642:7658  uint256 balance_ */\n      0x00\n        /* \"02_kipu-bank/contracts/KipuBank.sol\":7681:7689  s_boveda */\n      0x03\n        /* \"02_kipu-bank/contracts/KipuBank.sol\":7681:7699  s_boveda[_usuario] */\n      0x00\n        /* \"02_kipu-bank/contracts/KipuBank.sol\":7690:7698  _usuario */\n      dup4\n        /* \"02_kipu-bank/contracts/KipuBank.sol\":7681:7699  s_boveda[_usuario] */\n      0xffffffffffffffffffffffffffffffffffffffff\n      and\n      0xffffffffffffffffffffffffffffffffffffffff\n      and\n      dup2\n      mstore\n      0x20\n      add\n      swap1\n      dup2\n      mstore\n      0x20\n      add\n      0x00\n      keccak256\n      sload\n        /* \"02_kipu-bank/contracts/KipuBank.sol\":7670:7699  balance_ = s_boveda[_usuario] */\n      swap1\n      pop\n        /* \"02_kipu-bank/contracts/KipuBank.sol\":7575:7706  function consultarBalance(address _usuario) external view returns (uint256 balance_) {... */\n      swap2\n      swap1\n      pop\n      jump\t// out\n        /* \"02_kipu-bank/contracts/KipuBank.sol\":555:594  uint256 public immutable i_umbralRetiro */\n    tag_37:\n      immutable(\"0xceebf77a833b30520287ddd9478ff51abbdffa30aa90a8d655dba0e8a79ce0c1\")\n      dup2\n      jump\t// out\n        /* \"02_kipu-bank/contracts/KipuBank.sol\":8129:8570  function consultarEstadoBanco() external view returns (... */\n    tag_41:\n        /* \"02_kipu-bank/contracts/KipuBank.sol\":8193:8217  uint256 totalDepositado_ */\n      0x00\n        /* \"02_kipu-bank/contracts/KipuBank.sol\":8227:8253  uint256 contadorDepositos_ */\n      dup1\n        /* \"02_kipu-bank/contracts/KipuBank.sol\":8263:8287  uint256 contadorRetiros_ */\n      0x00\n        /* \"02_kipu-bank/contracts/KipuBank.sol\":8297:8313  uint256 bankCap_ */\n      dup1\n        /* \"02_kipu-bank/contracts/KipuBank.sol\":8323:8344  uint256 umbralRetiro_ */\n      0x00\n        /* \"02_kipu-bank/contracts/KipuBank.sol\":8380:8397  s_totalDepositado */\n      dup1\n      sload\n        /* \"02_kipu-bank/contracts/KipuBank.sol\":8361:8397  totalDepositado_ = s_totalDepositado */\n      swap5\n      pop\n        /* \"02_kipu-bank/contracts/KipuBank.sol\":8428:8447  s_contadorDepositos */\n      sload(0x01)\n        /* \"02_kipu-bank/contracts/KipuBank.sol\":8407:8447  contadorDepositos_ = s_contadorDepositos */\n      swap4\n      pop\n        /* \"02_kipu-bank/contracts/KipuBank.sol\":8476:8493  s_contadorRetiros */\n      sload(0x02)\n        /* \"02_kipu-bank/contracts/KipuBank.sol\":8457:8493  contadorRetiros_ = s_contadorRetiros */\n      swap3\n      pop\n        /* \"02_kipu-bank/contracts/KipuBank.sol\":8514:8523  i_bankCap */\n      immutable(\"0xe4b1702d9298fee62dfeccc57d322a463ad55ca201256d01f62b45b2e1c21c10\")\n        /* \"02_kipu-bank/contracts/KipuBank.sol\":8503:8523  bankCap_ = i_bankCap */\n      swap2\n      pop\n        /* \"02_kipu-bank/contracts/KipuBank.sol\":8549:8563  i_umbralRetiro */\n      immutable(\"0xceebf77a833b30520287ddd9478ff51abbdffa30aa90a8d655dba0e8a79ce0c1\")\n        /* \"02_kipu-bank/contracts/KipuBank.sol\":8533:8563  umbralRetiro_ = i_umbralRetiro */\n      swap1\n      pop\n        /* \"02_kipu-bank/contracts/KipuBank.sol\":8129:8570  function consultarEstadoBanco() external view returns (... */\n      swap1\n      swap2\n      swap3\n      swap4\n      swap5\n      jump\t// out\n        /* \"02_kipu-bank/contracts/KipuBank.sol\":998:1030  uint256 public s_contadorRetiros */\n    tag_46:\n      sload(0x02)\n      dup2\n      jump\t// out\n        /* \"02_kipu-bank/contracts/KipuBank.sol\":6140:6927  function retirar(uint256 _monto) external {... */\n    tag_52:\n        /* \"02_kipu-bank/contracts/KipuBank.sol\":6224:6225  0 */\n      0x00\n        /* \"02_kipu-bank/contracts/KipuBank.sol\":6214:6220  _monto */\n      dup2\n        /* \"02_kipu-bank/contracts/KipuBank.sol\":6214:6225  _monto == 0 */\n      sub\n        /* \"02_kipu-bank/contracts/KipuBank.sol\":6210:6267  if (_monto == 0) revert KipuBank_MontoDebeSerMayorACero() */\n      tag_74\n      jumpi\n        /* \"02_kipu-bank/contracts/KipuBank.sol\":6234:6267  KipuBank_MontoDebeSerMayorACero() */\n      mload(0x40)\n      0x573dd94100000000000000000000000000000000000000000000000000000000\n      dup2\n      mstore\n      0x04\n      add\n      mload(0x40)\n      dup1\n      swap2\n      sub\n      swap1\n      revert\n        /* \"02_kipu-bank/contracts/KipuBank.sol\":6210:6267  if (_monto == 0) revert KipuBank_MontoDebeSerMayorACero() */\n    tag_74:\n        /* \"02_kipu-bank/contracts/KipuBank.sol\":6313:6319  _monto */\n      dup1\n        /* \"02_kipu-bank/contracts/KipuBank.sol\":6290:6298  s_boveda */\n      0x03\n        /* \"02_kipu-bank/contracts/KipuBank.sol\":6290:6310  s_boveda[msg.sender] */\n      0x00\n        /* \"02_kipu-bank/contracts/KipuBank.sol\":6299:6309  msg.sender */\n      caller\n        /* \"02_kipu-bank/contracts/KipuBank.sol\":6290:6310  s_boveda[msg.sender] */\n      0xffffffffffffffffffffffffffffffffffffffff\n      and\n      0xffffffffffffffffffffffffffffffffffffffff\n      and\n      dup2\n      mstore\n      0x20\n      add\n      swap1\n      dup2\n      mstore\n      0x20\n      add\n      0x00\n      keccak256\n      sload\n        /* \"02_kipu-bank/contracts/KipuBank.sol\":6290:6319  s_boveda[msg.sender] < _monto */\n      lt\n        /* \"02_kipu-bank/contracts/KipuBank.sol\":6286:6409  if (s_boveda[msg.sender] < _monto) {... */\n      iszero\n      tag_75\n      jumpi\n        /* \"02_kipu-bank/contracts/KipuBank.sol\":6369:6377  s_boveda */\n      0x03\n        /* \"02_kipu-bank/contracts/KipuBank.sol\":6369:6389  s_boveda[msg.sender] */\n      0x00\n        /* \"02_kipu-bank/contracts/KipuBank.sol\":6378:6388  msg.sender */\n      caller\n        /* \"02_kipu-bank/contracts/KipuBank.sol\":6369:6389  s_boveda[msg.sender] */\n      0xffffffffffffffffffffffffffffffffffffffff\n      and\n      0xffffffffffffffffffffffffffffffffffffffff\n      and\n      dup2\n      mstore\n      0x20\n      add\n      swap1\n      dup2\n      mstore\n      0x20\n      add\n      0x00\n      keccak256\n      sload\n        /* \"02_kipu-bank/contracts/KipuBank.sol\":6391:6397  _monto */\n      dup2\n        /* \"02_kipu-bank/contracts/KipuBank.sol\":6342:6398  KipuBank_SaldoInsuficiente(s_boveda[msg.sender], _monto) */\n      mload(0x40)\n      0x402fa76800000000000000000000000000000000000000000000000000000000\n      dup2\n      mstore\n      0x04\n      add\n      tag_76\n      swap3\n      swap2\n      swap1\n      tag_77\n      jump\t// in\n    tag_76:\n      mload(0x40)\n      dup1\n      swap2\n      sub\n      swap1\n      revert\n        /* \"02_kipu-bank/contracts/KipuBank.sol\":6286:6409  if (s_boveda[msg.sender] < _monto) {... */\n    tag_75:\n        /* \"02_kipu-bank/contracts/KipuBank.sol\":6440:6454  i_umbralRetiro */\n      immutable(\"0xceebf77a833b30520287ddd9478ff51abbdffa30aa90a8d655dba0e8a79ce0c1\")\n        /* \"02_kipu-bank/contracts/KipuBank.sol\":6431:6437  _monto */\n      dup2\n        /* \"02_kipu-bank/contracts/KipuBank.sol\":6431:6454  _monto > i_umbralRetiro */\n      gt\n        /* \"02_kipu-bank/contracts/KipuBank.sol\":6427:6539  if (_monto > i_umbralRetiro) {... */\n      iszero\n      tag_78\n      jumpi\n        /* \"02_kipu-bank/contracts/KipuBank.sol\":6505:6511  _monto */\n      dup1\n        /* \"02_kipu-bank/contracts/KipuBank.sol\":6513:6527  i_umbralRetiro */\n      immutable(\"0xceebf77a833b30520287ddd9478ff51abbdffa30aa90a8d655dba0e8a79ce0c1\")\n        /* \"02_kipu-bank/contracts/KipuBank.sol\":6477:6528  KipuBank_RetiroExcedeUmbral(_monto, i_umbralRetiro) */\n      mload(0x40)\n      0x9d2a6e2f00000000000000000000000000000000000000000000000000000000\n      dup2\n      mstore\n      0x04\n      add\n      tag_79\n      swap3\n      swap2\n      swap1\n      tag_77\n      jump\t// in\n    tag_79:\n      mload(0x40)\n      dup1\n      swap2\n      sub\n      swap1\n      revert\n        /* \"02_kipu-bank/contracts/KipuBank.sol\":6427:6539  if (_monto > i_umbralRetiro) {... */\n    tag_78:\n        /* \"02_kipu-bank/contracts/KipuBank.sol\":6680:6686  _monto */\n      dup1\n        /* \"02_kipu-bank/contracts/KipuBank.sol\":6656:6664  s_boveda */\n      0x03\n        /* \"02_kipu-bank/contracts/KipuBank.sol\":6656:6676  s_boveda[msg.sender] */\n      0x00\n        /* \"02_kipu-bank/contracts/KipuBank.sol\":6665:6675  msg.sender */\n      caller\n        /* \"02_kipu-bank/contracts/KipuBank.sol\":6656:6676  s_boveda[msg.sender] */\n      0xffffffffffffffffffffffffffffffffffffffff\n      and\n      0xffffffffffffffffffffffffffffffffffffffff\n      and\n      dup2\n      mstore\n      0x20\n      add\n      swap1\n      dup2\n      mstore\n      0x20\n      add\n      0x00\n      keccak256\n      0x00\n        /* \"02_kipu-bank/contracts/KipuBank.sol\":6656:6686  s_boveda[msg.sender] -= _monto */\n      dup3\n      dup3\n      sload\n      tag_80\n      swap2\n      swap1\n      tag_81\n      jump\t// in\n    tag_80:\n      swap3\n      pop\n      pop\n      dup2\n      swap1\n      sstore\n      pop\n        /* \"02_kipu-bank/contracts/KipuBank.sol\":6717:6723  _monto */\n      dup1\n        /* \"02_kipu-bank/contracts/KipuBank.sol\":6696:6713  s_totalDepositado */\n      0x00\n      dup1\n        /* \"02_kipu-bank/contracts/KipuBank.sol\":6696:6723  s_totalDepositado -= _monto */\n      dup3\n      dup3\n      sload\n      tag_82\n      swap2\n      swap1\n      tag_81\n      jump\t// in\n    tag_82:\n      swap3\n      pop\n      pop\n      dup2\n      swap1\n      sstore\n      pop\n        /* \"02_kipu-bank/contracts/KipuBank.sol\":6733:6750  s_contadorRetiros */\n      0x02\n      0x00\n        /* \"02_kipu-bank/contracts/KipuBank.sol\":6733:6752  s_contadorRetiros++ */\n      dup2\n      sload\n      dup1\n      swap3\n      swap2\n      swap1\n      tag_83\n      swap1\n      tag_69\n      jump\t// in\n    tag_83:\n      swap2\n      swap1\n      pop\n      sstore\n      pop\n        /* \"02_kipu-bank/contracts/KipuBank.sol\":6857:6867  msg.sender */\n      caller\n        /* \"02_kipu-bank/contracts/KipuBank.sol\":6832:6876  KipuBank_RetiroRealizado(msg.sender, _monto) */\n      0xffffffffffffffffffffffffffffffffffffffff\n      and\n      0xd10096d866ccfcf2896bfb7bc7b9e44c8137ff9c3655d1b2eea22a4a9c2787fc\n        /* \"02_kipu-bank/contracts/KipuBank.sol\":6869:6875  _monto */\n      dup3\n        /* \"02_kipu-bank/contracts/KipuBank.sol\":6832:6876  KipuBank_RetiroRealizado(msg.sender, _monto) */\n      mload(0x40)\n      tag_84\n      swap2\n      swap1\n      tag_17\n      jump\t// in\n    tag_84:\n      mload(0x40)\n      dup1\n      swap2\n      sub\n      swap1\n      log2\n        /* \"02_kipu-bank/contracts/KipuBank.sol\":6886:6920  _transferirEth(msg.sender, _monto) */\n      tag_85\n        /* \"02_kipu-bank/contracts/KipuBank.sol\":6901:6911  msg.sender */\n      caller\n        /* \"02_kipu-bank/contracts/KipuBank.sol\":6913:6919  _monto */\n      dup3\n        /* \"02_kipu-bank/contracts/KipuBank.sol\":6886:6900  _transferirEth */\n      tag_86\n        /* \"02_kipu-bank/contracts/KipuBank.sol\":6886:6920  _transferirEth(msg.sender, _monto) */\n      jump\t// in\n    tag_85:\n        /* \"02_kipu-bank/contracts/KipuBank.sol\":6140:6927  function retirar(uint256 _monto) external {... */\n      pop\n      jump\t// out\n        /* \"02_kipu-bank/contracts/KipuBank.sol\":660:694  uint256 public immutable i_bankCap */\n    tag_55:\n      immutable(\"0xe4b1702d9298fee62dfeccc57d322a463ad55ca201256d01f62b45b2e1c21c10\")\n      dup2\n      jump\t// out\n        /* \"02_kipu-bank/contracts/KipuBank.sol\":7136:7345  function _transferirEth(address _destinatario, uint256 _monto) private {... */\n    tag_86:\n        /* \"02_kipu-bank/contracts/KipuBank.sol\":7218:7225  bool ok */\n      0x00\n        /* \"02_kipu-bank/contracts/KipuBank.sol\":7231:7244  _destinatario */\n      dup3\n        /* \"02_kipu-bank/contracts/KipuBank.sol\":7231:7249  _destinatario.call */\n      0xffffffffffffffffffffffffffffffffffffffff\n      and\n        /* \"02_kipu-bank/contracts/KipuBank.sol\":7257:7263  _monto */\n      dup3\n        /* \"02_kipu-bank/contracts/KipuBank.sol\":7231:7268  _destinatario.call{value: _monto}(\"\") */\n      mload(0x40)\n      tag_88\n      swap1\n      tag_89\n      jump\t// in\n    tag_88:\n      0x00\n      mload(0x40)\n      dup1\n      dup4\n      sub\n      dup2\n      dup6\n      dup8\n      gas\n      call\n      swap3\n      pop\n      pop\n      pop\n      returndatasize\n      dup1\n      0x00\n      dup2\n      eq\n      tag_92\n      jumpi\n      mload(0x40)\n      swap2\n      pop\n      and(add(returndatasize, 0x3f), not(0x1f))\n      dup3\n      add\n      0x40\n      mstore\n      returndatasize\n      dup3\n      mstore\n      returndatasize\n      0x00\n      0x20\n      dup5\n      add\n      returndatacopy\n      jump(tag_91)\n    tag_92:\n      0x60\n      swap2\n      pop\n    tag_91:\n      pop\n        /* \"02_kipu-bank/contracts/KipuBank.sol\":7217:7268  (bool ok, ) = _destinatario.call{value: _monto}(\"\") */\n      pop\n      swap1\n      pop\n        /* \"02_kipu-bank/contracts/KipuBank.sol\":7283:7285  ok */\n      dup1\n        /* \"02_kipu-bank/contracts/KipuBank.sol\":7278:7338  if (!ok) revert KipuBank_TransferenciaFallida(_destinatario) */\n      tag_93\n      jumpi\n        /* \"02_kipu-bank/contracts/KipuBank.sol\":7324:7337  _destinatario */\n      dup3\n        /* \"02_kipu-bank/contracts/KipuBank.sol\":7294:7338  KipuBank_TransferenciaFallida(_destinatario) */\n      mload(0x40)\n      0xadd7a42800000000000000000000000000000000000000000000000000000000\n      dup2\n      mstore\n      0x04\n      add\n      tag_94\n      swap2\n      swap1\n      tag_95\n      jump\t// in\n    tag_94:\n      mload(0x40)\n      dup1\n      swap2\n      sub\n      swap1\n      revert\n        /* \"02_kipu-bank/contracts/KipuBank.sol\":7278:7338  if (!ok) revert KipuBank_TransferenciaFallida(_destinatario) */\n    tag_93:\n        /* \"02_kipu-bank/contracts/KipuBank.sol\":7207:7345  {... */\n      pop\n        /* \"02_kipu-bank/contracts/KipuBank.sol\":7136:7345  function _transferirEth(address _destinatario, uint256 _monto) private {... */\n      pop\n      pop\n      jump\t// out\n        /* \"#utility.yul\":7:84   */\n    tag_96:\n        /* \"#utility.yul\":44:51   */\n      0x00\n        /* \"#utility.yul\":73:78   */\n      dup2\n        /* \"#utility.yul\":62:78   */\n      swap1\n      pop\n        /* \"#utility.yul\":7:84   */\n      swap2\n      swap1\n      pop\n      jump\t// out\n        /* \"#utility.yul\":90:208   */\n    tag_97:\n        /* \"#utility.yul\":177:201   */\n      tag_115\n        /* \"#utility.yul\":195:200   */\n      dup2\n        /* \"#utility.yul\":177:201   */\n      tag_96\n      jump\t// in\n    tag_115:\n        /* \"#utility.yul\":172:175   */\n      dup3\n        /* \"#utility.yul\":165:202   */\n      mstore\n        /* \"#utility.yul\":90:208   */\n      pop\n      pop\n      jump\t// out\n        /* \"#utility.yul\":214:436   */\n    tag_17:\n        /* \"#utility.yul\":307:311   */\n      0x00\n        /* \"#utility.yul\":345:347   */\n      0x20\n        /* \"#utility.yul\":334:343   */\n      dup3\n        /* \"#utility.yul\":330:348   */\n      add\n        /* \"#utility.yul\":322:348   */\n      swap1\n      pop\n        /* \"#utility.yul\":358:429   */\n      tag_117\n        /* \"#utility.yul\":426:427   */\n      0x00\n        /* \"#utility.yul\":415:424   */\n      dup4\n        /* \"#utility.yul\":411:428   */\n      add\n        /* \"#utility.yul\":402:408   */\n      dup5\n        /* \"#utility.yul\":358:429   */\n      tag_97\n      jump\t// in\n    tag_117:\n        /* \"#utility.yul\":214:436   */\n      swap3\n      swap2\n      pop\n      pop\n      jump\t// out\n        /* \"#utility.yul\":523:640   */\n    tag_99:\n        /* \"#utility.yul\":632:633   */\n      0x00\n        /* \"#utility.yul\":629:630   */\n      dup1\n        /* \"#utility.yul\":622:634   */\n      revert\n        /* \"#utility.yul\":769:895   */\n    tag_101:\n        /* \"#utility.yul\":806:813   */\n      0x00\n        /* \"#utility.yul\":846:888   */\n      0xffffffffffffffffffffffffffffffffffffffff\n        /* \"#utility.yul\":839:844   */\n      dup3\n        /* \"#utility.yul\":835:889   */\n      and\n        /* \"#utility.yul\":824:889   */\n      swap1\n      pop\n        /* \"#utility.yul\":769:895   */\n      swap2\n      swap1\n      pop\n      jump\t// out\n        /* \"#utility.yul\":901:997   */\n    tag_102:\n        /* \"#utility.yul\":938:945   */\n      0x00\n        /* \"#utility.yul\":967:991   */\n      tag_123\n        /* \"#utility.yul\":985:990   */\n      dup3\n        /* \"#utility.yul\":967:991   */\n      tag_101\n      jump\t// in\n    tag_123:\n        /* \"#utility.yul\":956:991   */\n      swap1\n      pop\n        /* \"#utility.yul\":901:997   */\n      swap2\n      swap1\n      pop\n      jump\t// out\n        /* \"#utility.yul\":1003:1125   */\n    tag_103:\n        /* \"#utility.yul\":1076:1100   */\n      tag_125\n        /* \"#utility.yul\":1094:1099   */\n      dup2\n        /* \"#utility.yul\":1076:1100   */\n      tag_102\n      jump\t// in\n    tag_125:\n        /* \"#utility.yul\":1069:1074   */\n      dup2\n        /* \"#utility.yul\":1066:1101   */\n      eq\n        /* \"#utility.yul\":1056:1119   */\n      tag_126\n      jumpi\n        /* \"#utility.yul\":1115:1116   */\n      0x00\n        /* \"#utility.yul\":1112:1113   */\n      dup1\n        /* \"#utility.yul\":1105:1117   */\n      revert\n        /* \"#utility.yul\":1056:1119   */\n    tag_126:\n        /* \"#utility.yul\":1003:1125   */\n      pop\n      jump\t// out\n        /* \"#utility.yul\":1131:1270   */\n    tag_104:\n        /* \"#utility.yul\":1177:1182   */\n      0x00\n        /* \"#utility.yul\":1215:1221   */\n      dup2\n        /* \"#utility.yul\":1202:1222   */\n      calldataload\n        /* \"#utility.yul\":1193:1222   */\n      swap1\n      pop\n        /* \"#utility.yul\":1231:1264   */\n      tag_128\n        /* \"#utility.yul\":1258:1263   */\n      dup2\n        /* \"#utility.yul\":1231:1264   */\n      tag_103\n      jump\t// in\n    tag_128:\n        /* \"#utility.yul\":1131:1270   */\n      swap3\n      swap2\n      pop\n      pop\n      jump\t// out\n        /* \"#utility.yul\":1276:1605   */\n    tag_21:\n        /* \"#utility.yul\":1335:1341   */\n      0x00\n        /* \"#utility.yul\":1384:1386   */\n      0x20\n        /* \"#utility.yul\":1372:1381   */\n      dup3\n        /* \"#utility.yul\":1363:1370   */\n      dup5\n        /* \"#utility.yul\":1359:1382   */\n      sub\n        /* \"#utility.yul\":1355:1387   */\n      slt\n        /* \"#utility.yul\":1352:1471   */\n      iszero\n      tag_130\n      jumpi\n        /* \"#utility.yul\":1390:1469   */\n      tag_131\n      tag_99\n      jump\t// in\n    tag_131:\n        /* \"#utility.yul\":1352:1471   */\n    tag_130:\n        /* \"#utility.yul\":1510:1511   */\n      0x00\n        /* \"#utility.yul\":1535:1588   */\n      tag_132\n        /* \"#utility.yul\":1580:1587   */\n      dup5\n        /* \"#utility.yul\":1571:1577   */\n      dup3\n        /* \"#utility.yul\":1560:1569   */\n      dup6\n        /* \"#utility.yul\":1556:1578   */\n      add\n        /* \"#utility.yul\":1535:1588   */\n      tag_104\n      jump\t// in\n    tag_132:\n        /* \"#utility.yul\":1525:1588   */\n      swap2\n      pop\n        /* \"#utility.yul\":1481:1598   */\n      pop\n        /* \"#utility.yul\":1276:1605   */\n      swap3\n      swap2\n      pop\n      pop\n      jump\t// out\n        /* \"#utility.yul\":1611:2275   */\n    tag_43:\n        /* \"#utility.yul\":1816:1820   */\n      0x00\n        /* \"#utility.yul\":1854:1857   */\n      0xa0\n        /* \"#utility.yul\":1843:1852   */\n      dup3\n        /* \"#utility.yul\":1839:1858   */\n      add\n        /* \"#utility.yul\":1831:1858   */\n      swap1\n      pop\n        /* \"#utility.yul\":1868:1939   */\n      tag_134\n        /* \"#utility.yul\":1936:1937   */\n      0x00\n        /* \"#utility.yul\":1925:1934   */\n      dup4\n        /* \"#utility.yul\":1921:1938   */\n      add\n        /* \"#utility.yul\":1912:1918   */\n      dup9\n        /* \"#utility.yul\":1868:1939   */\n      tag_97\n      jump\t// in\n    tag_134:\n        /* \"#utility.yul\":1949:2021   */\n      tag_135\n        /* \"#utility.yul\":2017:2019   */\n      0x20\n        /* \"#utility.yul\":2006:2015   */\n      dup4\n        /* \"#utility.yul\":2002:2020   */\n      add\n        /* \"#utility.yul\":1993:1999   */\n      dup8\n        /* \"#utility.yul\":1949:2021   */\n      tag_97\n      jump\t// in\n    tag_135:\n        /* \"#utility.yul\":2031:2103   */\n      tag_136\n        /* \"#utility.yul\":2099:2101   */\n      0x40\n        /* \"#utility.yul\":2088:2097   */\n      dup4\n        /* \"#utility.yul\":2084:2102   */\n      add\n        /* \"#utility.yul\":2075:2081   */\n      dup7\n        /* \"#utility.yul\":2031:2103   */\n      tag_97\n      jump\t// in\n    tag_136:\n        /* \"#utility.yul\":2113:2185   */\n      tag_137\n        /* \"#utility.yul\":2181:2183   */\n      0x60\n        /* \"#utility.yul\":2170:2179   */\n      dup4\n        /* \"#utility.yul\":2166:2184   */\n      add\n        /* \"#utility.yul\":2157:2163   */\n      dup6\n        /* \"#utility.yul\":2113:2185   */\n      tag_97\n      jump\t// in\n    tag_137:\n        /* \"#utility.yul\":2195:2268   */\n      tag_138\n        /* \"#utility.yul\":2263:2266   */\n      0x80\n        /* \"#utility.yul\":2252:2261   */\n      dup4\n        /* \"#utility.yul\":2248:2267   */\n      add\n        /* \"#utility.yul\":2239:2245   */\n      dup5\n        /* \"#utility.yul\":2195:2268   */\n      tag_97\n      jump\t// in\n    tag_138:\n        /* \"#utility.yul\":1611:2275   */\n      swap7\n      swap6\n      pop\n      pop\n      pop\n      pop\n      pop\n      pop\n      jump\t// out\n        /* \"#utility.yul\":2281:2403   */\n    tag_105:\n        /* \"#utility.yul\":2354:2378   */\n      tag_140\n        /* \"#utility.yul\":2372:2377   */\n      dup2\n        /* \"#utility.yul\":2354:2378   */\n      tag_96\n      jump\t// in\n    tag_140:\n        /* \"#utility.yul\":2347:2352   */\n      dup2\n        /* \"#utility.yul\":2344:2379   */\n      eq\n        /* \"#utility.yul\":2334:2397   */\n      tag_141\n      jumpi\n        /* \"#utility.yul\":2393:2394   */\n      0x00\n        /* \"#utility.yul\":2390:2391   */\n      dup1\n        /* \"#utility.yul\":2383:2395   */\n      revert\n        /* \"#utility.yul\":2334:2397   */\n    tag_141:\n        /* \"#utility.yul\":2281:2403   */\n      pop\n      jump\t// out\n        /* \"#utility.yul\":2409:2548   */\n    tag_106:\n        /* \"#utility.yul\":2455:2460   */\n      0x00\n        /* \"#utility.yul\":2493:2499   */\n      dup2\n        /* \"#utility.yul\":2480:2500   */\n      calldataload\n        /* \"#utility.yul\":2471:2500   */\n      swap1\n      pop\n        /* \"#utility.yul\":2509:2542   */\n      tag_143\n        /* \"#utility.yul\":2536:2541   */\n      dup2\n        /* \"#utility.yul\":2509:2542   */\n      tag_105\n      jump\t// in\n    tag_143:\n        /* \"#utility.yul\":2409:2548   */\n      swap3\n      swap2\n      pop\n      pop\n      jump\t// out\n        /* \"#utility.yul\":2554:2883   */\n    tag_51:\n        /* \"#utility.yul\":2613:2619   */\n      0x00\n        /* \"#utility.yul\":2662:2664   */\n      0x20\n        /* \"#utility.yul\":2650:2659   */\n      dup3\n        /* \"#utility.yul\":2641:2648   */\n      dup5\n        /* \"#utility.yul\":2637:2660   */\n      sub\n        /* \"#utility.yul\":2633:2665   */\n      slt\n        /* \"#utility.yul\":2630:2749   */\n      iszero\n      tag_145\n      jumpi\n        /* \"#utility.yul\":2668:2747   */\n      tag_146\n      tag_99\n      jump\t// in\n    tag_146:\n        /* \"#utility.yul\":2630:2749   */\n    tag_145:\n        /* \"#utility.yul\":2788:2789   */\n      0x00\n        /* \"#utility.yul\":2813:2866   */\n      tag_147\n        /* \"#utility.yul\":2858:2865   */\n      dup5\n        /* \"#utility.yul\":2849:2855   */\n      dup3\n        /* \"#utility.yul\":2838:2847   */\n      dup6\n        /* \"#utility.yul\":2834:2856   */\n      add\n        /* \"#utility.yul\":2813:2866   */\n      tag_106\n      jump\t// in\n    tag_147:\n        /* \"#utility.yul\":2803:2866   */\n      swap2\n      pop\n        /* \"#utility.yul\":2759:2876   */\n      pop\n        /* \"#utility.yul\":2554:2883   */\n      swap3\n      swap2\n      pop\n      pop\n      jump\t// out\n        /* \"#utility.yul\":2889:3069   */\n    tag_107:\n        /* \"#utility.yul\":2937:3014   */\n      0x4e487b7100000000000000000000000000000000000000000000000000000000\n        /* \"#utility.yul\":2934:2935   */\n      0x00\n        /* \"#utility.yul\":2927:3015   */\n      mstore\n        /* \"#utility.yul\":3034:3038   */\n      0x11\n        /* \"#utility.yul\":3031:3032   */\n      0x04\n        /* \"#utility.yul\":3024:3039   */\n      mstore\n        /* \"#utility.yul\":3058:3062   */\n      0x24\n        /* \"#utility.yul\":3055:3056   */\n      0x00\n        /* \"#utility.yul\":3048:3063   */\n      revert\n        /* \"#utility.yul\":3075:3266   */\n    tag_61:\n        /* \"#utility.yul\":3115:3118   */\n      0x00\n        /* \"#utility.yul\":3134:3154   */\n      tag_150\n        /* \"#utility.yul\":3152:3153   */\n      dup3\n        /* \"#utility.yul\":3134:3154   */\n      tag_96\n      jump\t// in\n    tag_150:\n        /* \"#utility.yul\":3129:3154   */\n      swap2\n      pop\n        /* \"#utility.yul\":3168:3188   */\n      tag_151\n        /* \"#utility.yul\":3186:3187   */\n      dup4\n        /* \"#utility.yul\":3168:3188   */\n      tag_96\n      jump\t// in\n    tag_151:\n        /* \"#utility.yul\":3163:3188   */\n      swap3\n      pop\n        /* \"#utility.yul\":3211:3212   */\n      dup3\n        /* \"#utility.yul\":3208:3209   */\n      dup3\n        /* \"#utility.yul\":3204:3213   */\n      add\n        /* \"#utility.yul\":3197:3213   */\n      swap1\n      pop\n        /* \"#utility.yul\":3232:3235   */\n      dup1\n        /* \"#utility.yul\":3229:3230   */\n      dup3\n        /* \"#utility.yul\":3226:3236   */\n      gt\n        /* \"#utility.yul\":3223:3259   */\n      iszero\n      tag_152\n      jumpi\n        /* \"#utility.yul\":3239:3257   */\n      tag_153\n      tag_107\n      jump\t// in\n    tag_153:\n        /* \"#utility.yul\":3223:3259   */\n    tag_152:\n        /* \"#utility.yul\":3075:3266   */\n      swap3\n      swap2\n      pop\n      pop\n      jump\t// out\n        /* \"#utility.yul\":3272:3714   */\n    tag_64:\n        /* \"#utility.yul\":3421:3425   */\n      0x00\n        /* \"#utility.yul\":3459:3461   */\n      0x60\n        /* \"#utility.yul\":3448:3457   */\n      dup3\n        /* \"#utility.yul\":3444:3462   */\n      add\n        /* \"#utility.yul\":3436:3462   */\n      swap1\n      pop\n        /* \"#utility.yul\":3472:3543   */\n      tag_155\n        /* \"#utility.yul\":3540:3541   */\n      0x00\n        /* \"#utility.yul\":3529:3538   */\n      dup4\n        /* \"#utility.yul\":3525:3542   */\n      add\n        /* \"#utility.yul\":3516:3522   */\n      dup7\n        /* \"#utility.yul\":3472:3543   */\n      tag_97\n      jump\t// in\n    tag_155:\n        /* \"#utility.yul\":3553:3625   */\n      tag_156\n        /* \"#utility.yul\":3621:3623   */\n      0x20\n        /* \"#utility.yul\":3610:3619   */\n      dup4\n        /* \"#utility.yul\":3606:3624   */\n      add\n        /* \"#utility.yul\":3597:3603   */\n      dup6\n        /* \"#utility.yul\":3553:3625   */\n      tag_97\n      jump\t// in\n    tag_156:\n        /* \"#utility.yul\":3635:3707   */\n      tag_157\n        /* \"#utility.yul\":3703:3705   */\n      0x40\n        /* \"#utility.yul\":3692:3701   */\n      dup4\n        /* \"#utility.yul\":3688:3706   */\n      add\n        /* \"#utility.yul\":3679:3685   */\n      dup5\n        /* \"#utility.yul\":3635:3707   */\n      tag_97\n      jump\t// in\n    tag_157:\n        /* \"#utility.yul\":3272:3714   */\n      swap5\n      swap4\n      pop\n      pop\n      pop\n      pop\n      jump\t// out\n        /* \"#utility.yul\":3720:3953   */\n    tag_69:\n        /* \"#utility.yul\":3759:3762   */\n      0x00\n        /* \"#utility.yul\":3782:3806   */\n      tag_159\n        /* \"#utility.yul\":3800:3805   */\n      dup3\n        /* \"#utility.yul\":3782:3806   */\n      tag_96\n      jump\t// in\n    tag_159:\n        /* \"#utility.yul\":3773:3806   */\n      swap2\n      pop\n        /* \"#utility.yul\":3828:3894   */\n      0xffffffffffffffffffffffffffffffffffffffffffffffffffffffffffffffff\n        /* \"#utility.yul\":3821:3826   */\n      dup3\n        /* \"#utility.yul\":3818:3895   */\n      sub\n        /* \"#utility.yul\":3815:3918   */\n      tag_160\n      jumpi\n        /* \"#utility.yul\":3898:3916   */\n      tag_161\n      tag_107\n      jump\t// in\n    tag_161:\n        /* \"#utility.yul\":3815:3918   */\n    tag_160:\n        /* \"#utility.yul\":3945:3946   */\n      0x01\n        /* \"#utility.yul\":3938:3943   */\n      dup3\n        /* \"#utility.yul\":3934:3947   */\n      add\n        /* \"#utility.yul\":3927:3947   */\n      swap1\n      pop\n        /* \"#utility.yul\":3720:3953   */\n      swap2\n      swap1\n      pop\n      jump\t// out\n        /* \"#utility.yul\":3959:4291   */\n    tag_77:\n        /* \"#utility.yul\":4080:4084   */\n      0x00\n        /* \"#utility.yul\":4118:4120   */\n      0x40\n        /* \"#utility.yul\":4107:4116   */\n      dup3\n        /* \"#utility.yul\":4103:4121   */\n      add\n        /* \"#utility.yul\":4095:4121   */\n      swap1\n      pop\n        /* \"#utility.yul\":4131:4202   */\n      tag_163\n        /* \"#utility.yul\":4199:4200   */\n      0x00\n        /* \"#utility.yul\":4188:4197   */\n      dup4\n        /* \"#utility.yul\":4184:4201   */\n      add\n        /* \"#utility.yul\":4175:4181   */\n      dup6\n        /* \"#utility.yul\":4131:4202   */\n      tag_97\n      jump\t// in\n    tag_163:\n        /* \"#utility.yul\":4212:4284   */\n      tag_164\n        /* \"#utility.yul\":4280:4282   */\n      0x20\n        /* \"#utility.yul\":4269:4278   */\n      dup4\n        /* \"#utility.yul\":4265:4283   */\n      add\n        /* \"#utility.yul\":4256:4262   */\n      dup5\n        /* \"#utility.yul\":4212:4284   */\n      tag_97\n      jump\t// in\n    tag_164:\n        /* \"#utility.yul\":3959:4291   */\n      swap4\n      swap3\n      pop\n      pop\n      pop\n      jump\t// out\n        /* \"#utility.yul\":4297:4491   */\n    tag_81:\n        /* \"#utility.yul\":4337:4341   */\n      0x00\n        /* \"#utility.yul\":4357:4377   */\n      tag_166\n        /* \"#utility.yul\":4375:4376   */\n      dup3\n        /* \"#utility.yul\":4357:4377   */\n      tag_96\n      jump\t// in\n    tag_166:\n        /* \"#utility.yul\":4352:4377   */\n      swap2\n      pop\n        /* \"#utility.yul\":4391:4411   */\n      tag_167\n        /* \"#utility.yul\":4409:4410   */\n      dup4\n        /* \"#utility.yul\":4391:4411   */\n      tag_96\n      jump\t// in\n    tag_167:\n        /* \"#utility.yul\":4386:4411   */\n      swap3\n      pop\n        /* \"#utility.yul\":4435:4436   */\n      dup3\n        /* \"#utility.yul\":4432:4433   */\n      dup3\n        /* \"#utility.yul\":4428:4437   */\n      sub\n        /* \"#utility.yul\":4420:4437   */\n      swap1\n      pop\n        /* \"#utility.yul\":4459:4460   */\n      dup2\n        /* \"#utility.yul\":4453:4457   */\n      dup2\n        /* \"#utility.yul\":4450:4461   */\n      gt\n        /* \"#utility.yul\":4447:4484   */\n      iszero\n      tag_168\n      jumpi\n        /* \"#utility.yul\":4464:4482   */\n      tag_169\n      tag_107\n      jump\t// in\n    tag_169:\n        /* \"#utility.yul\":4447:4484   */\n    tag_168:\n        /* \"#utility.yul\":4297:4491   */\n      swap3\n      swap2\n      pop\n      pop\n      jump\t// out\n        /* \"#utility.yul\":4497:4644   */\n    tag_108:\n        /* \"#utility.yul\":4598:4609   */\n      0x00\n        /* \"#utility.yul\":4635:4638   */\n      dup2\n        /* \"#utility.yul\":4620:4638   */\n      swap1\n      pop\n        /* \"#utility.yul\":4497:4644   */\n      swap3\n      swap2\n      pop\n      pop\n      jump\t// out\n        /* \"#utility.yul\":4650:4764   */\n    tag_109:\n      pop\n      jump\t// out\n        /* \"#utility.yul\":4770:5168   */\n    tag_110:\n        /* \"#utility.yul\":4929:4932   */\n      0x00\n        /* \"#utility.yul\":4950:5033   */\n      tag_173\n        /* \"#utility.yul\":5031:5032   */\n      0x00\n        /* \"#utility.yul\":5026:5029   */\n      dup4\n        /* \"#utility.yul\":4950:5033   */\n      tag_108\n      jump\t// in\n    tag_173:\n        /* \"#utility.yul\":4943:5033   */\n      swap2\n      pop\n        /* \"#utility.yul\":5042:5135   */\n      tag_174\n        /* \"#utility.yul\":5131:5134   */\n      dup3\n        /* \"#utility.yul\":5042:5135   */\n      tag_109\n      jump\t// in\n    tag_174:\n        /* \"#utility.yul\":5160:5161   */\n      0x00\n        /* \"#utility.yul\":5155:5158   */\n      dup3\n        /* \"#utility.yul\":5151:5162   */\n      add\n        /* \"#utility.yul\":5144:5162   */\n      swap1\n      pop\n        /* \"#utility.yul\":4770:5168   */\n      swap2\n      swap1\n      pop\n      jump\t// out\n        /* \"#utility.yul\":5174:5553   */\n    tag_89:\n        /* \"#utility.yul\":5358:5361   */\n      0x00\n        /* \"#utility.yul\":5380:5527   */\n      tag_176\n        /* \"#utility.yul\":5523:5526   */\n      dup3\n        /* \"#utility.yul\":5380:5527   */\n      tag_110\n      jump\t// in\n    tag_176:\n        /* \"#utility.yul\":5373:5527   */\n      swap2\n      pop\n        /* \"#utility.yul\":5544:5547   */\n      dup2\n        /* \"#utility.yul\":5537:5547   */\n      swap1\n      pop\n        /* \"#utility.yul\":5174:5553   */\n      swap2\n      swap1\n      pop\n      jump\t// out\n        /* \"#utility.yul\":5559:5677   */\n    tag_111:\n        /* \"#utility.yul\":5646:5670   */\n      tag_178\n        /* \"#utility.yul\":5664:5669   */\n      dup2\n        /* \"#utility.yul\":5646:5670   */\n      tag_102\n      jump\t// in\n    tag_178:\n        /* \"#utility.yul\":5641:5644   */\n      dup3\n        /* \"#utility.yul\":5634:5671   */\n      mstore\n        /* \"#utility.yul\":5559:5677   */\n      pop\n      pop\n      jump\t// out\n        /* \"#utility.yul\":5683:5905   */\n    tag_95:\n        /* \"#utility.yul\":5776:5780   */\n      0x00\n        /* \"#utility.yul\":5814:5816   */\n      0x20\n        /* \"#utility.yul\":5803:5812   */\n      dup3\n        /* \"#utility.yul\":5799:5817   */\n      add\n        /* \"#utility.yul\":5791:5817   */\n      swap1\n      pop\n        /* \"#utility.yul\":5827:5898   */\n      tag_180\n        /* \"#utility.yul\":5895:5896   */\n      0x00\n        /* \"#utility.yul\":5884:5893   */\n      dup4\n        /* \"#utility.yul\":5880:5897   */\n      add\n        /* \"#utility.yul\":5871:5877   */\n      dup5\n        /* \"#utility.yul\":5827:5898   */\n      tag_111\n      jump\t// in\n    tag_180:\n        /* \"#utility.yul\":5683:5905   */\n      swap3\n      swap2\n      pop\n      pop\n      jump\t// out\n\n    auxdata: 0xa2646970667358221220469028b0c7395f5045e10d08b7a001ca16fdd6267f96a13577a7370cdf0cfd0964736f6c634300081a0033\n}\n",
				"bytecode": {
					"linkReferences": {},
					"object": "60c060405234801561000f575f80fd5b50604051610c3b380380610c3b8339818101604052810190610031919061007f565b8160a08181525050806080818152505050506100bd565b5f80fd5b5f819050919050565b61005e8161004c565b8114610068575f80fd5b50565b5f8151905061007981610055565b92915050565b5f806040838503121561009557610094610048565b5b5f6100a28582860161006b565b92505060206100b38582860161006b565b9150509250929050565b60805160a051610b336101085f395f8181610299015281816102d00152818161047d015261072d01525f8181610446015281816104a0015281816105ca01526105f30152610b335ff3fe608060405260043610610090575f3560e01c80636df5c134116100585780636df5c1341461016a578063abc9cd6d14610194578063d4b0d3ce146101c2578063e8b1298f146101ec578063f6687af71461021457610090565b80631c6d62a3146100945780631d1448f2146100be5780632230c272146100fa5780633d922f90146101245780634149f9ac1461012e575b5f80fd5b34801561009f575f80fd5b506100a861023e565b6040516100b59190610816565b60405180910390f35b3480156100c9575f80fd5b506100e460048036038101906100df919061088d565b610243565b6040516100f19190610816565b60405180910390f35b348015610105575f80fd5b5061010e610258565b60405161011b9190610816565b60405180910390f35b61012c61025e565b005b348015610139575f80fd5b50610154600480360381019061014f919061088d565b6103fe565b6040516101619190610816565b60405180910390f35b348015610175575f80fd5b5061017e610444565b60405161018b9190610816565b60405180910390f35b34801561019f575f80fd5b506101a8610468565b6040516101b99594939291906108b8565b60405180910390f35b3480156101cd575f80fd5b506101d66104c8565b6040516101e39190610816565b60405180910390f35b3480156101f7575f80fd5b50610212600480360381019061020d9190610933565b6104ce565b005b34801561021f575f80fd5b5061022861072b565b6040516102359190610816565b60405180910390f35b5f5481565b6003602052805f5260405f205f915090505481565b60015481565b5f3403610297576040517f573dd94100000000000000000000000000000000000000000000000000000000815260040160405180910390fd5b7f0000000000000000000000000000000000000000000000000000000000000000345f546102c5919061098b565b111561032d575f54347f00000000000000000000000000000000000000000000000000000000000000006040517fb6dc76ea000000000000000000000000000000000000000000000000000000008152600401610324939291906109be565b60405180910390fd5b3460035f3373ffffffffffffffffffffffffffffffffffffffff1673ffffffffffffffffffffffffffffffffffffffff1681526020019081526020015f205f828254610379919061098b565b92505081905550345f80828254610390919061098b565b9250508190555060015f8154809291906103a9906109f3565b91905055503373ffffffffffffffffffffffffffffffffffffffff167f9d15693852bf60dc27bd5aa831d0351359b7d01d428ae1baae11f15cbcfebafd346040516103f49190610816565b60405180910390a2565b5f60035f8373ffffffffffffffffffffffffffffffffffffffff1673ffffffffffffffffffffffffffffffffffffffff1681526020019081526020015f20549050919050565b7f000000000000000000000000000000000000000000000000000000000000000081565b5f805f805f80549450600154935060025492507f000000000000000000000000000000000000000000000000000000000000000091507f000000000000000000000000000000000000000000000000000000000000000090509091929394565b60025481565b5f8103610507576040517f573dd94100000000000000000000000000000000000000000000000000000000815260040160405180910390fd5b8060035f3373ffffffffffffffffffffffffffffffffffffffff1673ffffffffffffffffffffffffffffffffffffffff1681526020019081526020015f205410156105c85760035f3373ffffffffffffffffffffffffffffffffffffffff1673ffffffffffffffffffffffffffffffffffffffff1681526020019081526020015f2054816040517f402fa7680000000000000000000000000000000000000000000000000000000081526004016105bf929190610a3a565b60405180910390fd5b7f000000000000000000000000000000000000000000000000000000000000000081111561064f57807f00000000000000000000000000000000000000000000000000000000000000006040517f9d2a6e2f000000000000000000000000000000000000000000000000000000008152600401610646929190610a3a565b60405180910390fd5b8060035f3373ffffffffffffffffffffffffffffffffffffffff1673ffffffffffffffffffffffffffffffffffffffff1681526020019081526020015f205f82825461069b9190610a61565b92505081905550805f808282546106b29190610a61565b9250508190555060025f8154809291906106cb906109f3565b91905055503373ffffffffffffffffffffffffffffffffffffffff167fd10096d866ccfcf2896bfb7bc7b9e44c8137ff9c3655d1b2eea22a4a9c2787fc826040516107169190610816565b60405180910390a2610728338261074f565b50565b7f000000000000000000000000000000000000000000000000000000000000000081565b5f8273ffffffffffffffffffffffffffffffffffffffff168260405161077490610ac1565b5f6040518083038185875af1925050503d805f81146107ae576040519150601f19603f3d011682016040523d82523d5f602084013e6107b3565b606091505b50509050806107f957826040517fadd7a4280000000000000000000000000000000000000000000000000000000081526004016107f09190610ae4565b60405180910390fd5b505050565b5f819050919050565b610810816107fe565b82525050565b5f6020820190506108295f830184610807565b92915050565b5f80fd5b5f73ffffffffffffffffffffffffffffffffffffffff82169050919050565b5f61085c82610833565b9050919050565b61086c81610852565b8114610876575f80fd5b50565b5f8135905061088781610863565b92915050565b5f602082840312156108a2576108a161082f565b5b5f6108af84828501610879565b91505092915050565b5f60a0820190506108cb5f830188610807565b6108d86020830187610807565b6108e56040830186610807565b6108f26060830185610807565b6108ff6080830184610807565b9695505050505050565b610912816107fe565b811461091c575f80fd5b50565b5f8135905061092d81610909565b92915050565b5f602082840312156109485761094761082f565b5b5f6109558482850161091f565b91505092915050565b7f4e487b71000000000000000000000000000000000000000000000000000000005f52601160045260245ffd5b5f610995826107fe565b91506109a0836107fe565b92508282019050808211156109b8576109b761095e565b5b92915050565b5f6060820190506109d15f830186610807565b6109de6020830185610807565b6109eb6040830184610807565b949350505050565b5f6109fd826107fe565b91507fffffffffffffffffffffffffffffffffffffffffffffffffffffffffffffffff8203610a2f57610a2e61095e565b5b600182019050919050565b5f604082019050610a4d5f830185610807565b610a5a6020830184610807565b9392505050565b5f610a6b826107fe565b9150610a76836107fe565b9250828203905081811115610a8e57610a8d61095e565b5b92915050565b5f81905092915050565b50565b5f610aac5f83610a94565b9150610ab782610a9e565b5f82019050919050565b5f610acb82610aa1565b9150819050919050565b610ade81610852565b82525050565b5f602082019050610af75f830184610ad5565b9291505056fea2646970667358221220469028b0c7395f5045e10d08b7a001ca16fdd6267f96a13577a7370cdf0cfd0964736f6c634300081a0033",
					"opcodes": "PUSH1 0xC0 PUSH1 0x40 MSTORE CALLVALUE DUP1 ISZERO PUSH2 0xF JUMPI PUSH0 DUP1 REVERT JUMPDEST POP PUSH1 0x40 MLOAD PUSH2 0xC3B CODESIZE SUB DUP1 PUSH2 0xC3B DUP4 CODECOPY DUP2 DUP2 ADD PUSH1 0x40 MSTORE DUP2 ADD SWAP1 PUSH2 0x31 SWAP2 SWAP1 PUSH2 0x7F JUMP JUMPDEST DUP2 PUSH1 0xA0 DUP2 DUP2 MSTORE POP POP DUP1 PUSH1 0x80 DUP2 DUP2 MSTORE POP POP POP POP PUSH2 0xBD JUMP JUMPDEST PUSH0 DUP1 REVERT JUMPDEST PUSH0 DUP2 SWAP1 POP SWAP2 SWAP1 POP JUMP JUMPDEST PUSH2 0x5E DUP2 PUSH2 0x4C JUMP JUMPDEST DUP2 EQ PUSH2 0x68 JUMPI PUSH0 DUP1 REVERT JUMPDEST POP JUMP JUMPDEST PUSH0 DUP2 MLOAD SWAP1 POP PUSH2 0x79 DUP2 PUSH2 0x55 JUMP JUMPDEST SWAP3 SWAP2 POP POP JUMP JUMPDEST PUSH0 DUP1 PUSH1 0x40 DUP4 DUP6 SUB SLT ISZERO PUSH2 0x95 JUMPI PUSH2 0x94 PUSH2 0x48 JUMP JUMPDEST JUMPDEST PUSH0 PUSH2 0xA2 DUP6 DUP3 DUP7 ADD PUSH2 0x6B JUMP JUMPDEST SWAP3 POP POP PUSH1 0x20 PUSH2 0xB3 DUP6 DUP3 DUP7 ADD PUSH2 0x6B JUMP JUMPDEST SWAP2 POP POP SWAP3 POP SWAP3 SWAP1 POP JUMP JUMPDEST PUSH1 0x80 MLOAD PUSH1 0xA0 MLOAD PUSH2 0xB33 PUSH2 0x108 PUSH0 CODECOPY PUSH0 DUP2 DUP2 PUSH2 0x299 ADD MSTORE DUP2 DUP2 PUSH2 0x2D0 ADD MSTORE DUP2 DUP2 PUSH2 0x47D ADD MSTORE PUSH2 0x72D ADD MSTORE PUSH0 DUP2 DUP2 PUSH2 0x446 ADD MSTORE DUP2 DUP2 PUSH2 0x4A0 ADD MSTORE DUP2 DUP2 PUSH2 0x5CA ADD MSTORE PUSH2 0x5F3 ADD MSTORE PUSH2 0xB33 PUSH0 RETURN INVALID PUSH1 0x80 PUSH1 0x40 MSTORE PUSH1 0x4 CALLDATASIZE LT PUSH2 0x90 JUMPI PUSH0 CALLDATALOAD PUSH1 0xE0 SHR DUP1 PUSH4 0x6DF5C134 GT PUSH2 0x58 JUMPI DUP1 PUSH4 0x6DF5C134 EQ PUSH2 0x16A JUMPI DUP1 PUSH4 0xABC9CD6D EQ PUSH2 0x194 JUMPI DUP1 PUSH4 0xD4B0D3CE EQ PUSH2 0x1C2 JUMPI DUP1 PUSH4 0xE8B1298F EQ PUSH2 0x1EC JUMPI DUP1 PUSH4 0xF6687AF7 EQ PUSH2 0x214 JUMPI PUSH2 0x90 JUMP JUMPDEST DUP1 PUSH4 0x1C6D62A3 EQ PUSH2 0x94 JUMPI DUP1 PUSH4 0x1D1448F2 EQ PUSH2 0xBE JUMPI DUP1 PUSH4 0x2230C272 EQ PUSH2 0xFA JUMPI DUP1 PUSH4 0x3D922F90 EQ PUSH2 0x124 JUMPI DUP1 PUSH4 0x4149F9AC EQ PUSH2 0x12E JUMPI JUMPDEST PUSH0 DUP1 REVERT JUMPDEST CALLVALUE DUP1 ISZERO PUSH2 0x9F JUMPI PUSH0 DUP1 REVERT JUMPDEST POP PUSH2 0xA8 PUSH2 0x23E JUMP JUMPDEST PUSH1 0x40 MLOAD PUSH2 0xB5 SWAP2 SWAP1 PUSH2 0x816 JUMP JUMPDEST PUSH1 0x40 MLOAD DUP1 SWAP2 SUB SWAP1 RETURN JUMPDEST CALLVALUE DUP1 ISZERO PUSH2 0xC9 JUMPI PUSH0 DUP1 REVERT JUMPDEST POP PUSH2 0xE4 PUSH1 0x4 DUP1 CALLDATASIZE SUB DUP2 ADD SWAP1 PUSH2 0xDF SWAP2 SWAP1 PUSH2 0x88D JUMP JUMPDEST PUSH2 0x243 JUMP JUMPDEST PUSH1 0x40 MLOAD PUSH2 0xF1 SWAP2 SWAP1 PUSH2 0x816 JUMP JUMPDEST PUSH1 0x40 MLOAD DUP1 SWAP2 SUB SWAP1 RETURN JUMPDEST CALLVALUE DUP1 ISZERO PUSH2 0x105 JUMPI PUSH0 DUP1 REVERT JUMPDEST POP PUSH2 0x10E PUSH2 0x258 JUMP JUMPDEST PUSH1 0x40 MLOAD PUSH2 0x11B SWAP2 SWAP1 PUSH2 0x816 JUMP JUMPDEST PUSH1 0x40 MLOAD DUP1 SWAP2 SUB SWAP1 RETURN JUMPDEST PUSH2 0x12C PUSH2 0x25E JUMP JUMPDEST STOP JUMPDEST CALLVALUE DUP1 ISZERO PUSH2 0x139 JUMPI PUSH0 DUP1 REVERT JUMPDEST POP PUSH2 0x154 PUSH1 0x4 DUP1 CALLDATASIZE SUB DUP2 ADD SWAP1 PUSH2 0x14F SWAP2 SWAP1 PUSH2 0x88D JUMP JUMPDEST PUSH2 0x3FE JUMP JUMPDEST PUSH1 0x40 MLOAD PUSH2 0x161 SWAP2 SWAP1 PUSH2 0x816 JUMP JUMPDEST PUSH1 0x40 MLOAD DUP1 SWAP2 SUB SWAP1 RETURN JUMPDEST CALLVALUE DUP1 ISZERO PUSH2 0x175 JUMPI PUSH0 DUP1 REVERT JUMPDEST POP PUSH2 0x17E PUSH2 0x444 JUMP JUMPDEST PUSH1 0x40 MLOAD PUSH2 0x18B SWAP2 SWAP1 PUSH2 0x816 JUMP JUMPDEST PUSH1 0x40 MLOAD DUP1 SWAP2 SUB SWAP1 RETURN JUMPDEST CALLVALUE DUP1 ISZERO PUSH2 0x19F JUMPI PUSH0 DUP1 REVERT JUMPDEST POP PUSH2 0x1A8 PUSH2 0x468 JUMP JUMPDEST PUSH1 0x40 MLOAD PUSH2 0x1B9 SWAP6 SWAP5 SWAP4 SWAP3 SWAP2 SWAP1 PUSH2 0x8B8 JUMP JUMPDEST PUSH1 0x40 MLOAD DUP1 SWAP2 SUB SWAP1 RETURN JUMPDEST CALLVALUE DUP1 ISZERO PUSH2 0x1CD JUMPI PUSH0 DUP1 REVERT JUMPDEST POP PUSH2 0x1D6 PUSH2 0x4C8 JUMP JUMPDEST PUSH1 0x40 MLOAD PUSH2 0x1E3 SWAP2 SWAP1 PUSH2 0x816 JUMP JUMPDEST PUSH1 0x40 MLOAD DUP1 SWAP2 SUB SWAP1 RETURN JUMPDEST CALLVALUE DUP1 ISZERO PUSH2 0x1F7 JUMPI PUSH0 DUP1 REVERT JUMPDEST POP PUSH2 0x212 PUSH1 0x4 DUP1 CALLDATASIZE SUB DUP2 ADD SWAP1 PUSH2 0x20D SWAP2 SWAP1 PUSH2 0x933 JUMP JUMPDEST PUSH2 0x4CE JUMP JUMPDEST STOP JUMPDEST CALLVALUE DUP1 ISZERO PUSH2 0x21F JUMPI PUSH0 DUP1 REVERT JUMPDEST POP PUSH2 0x228 PUSH2 0x72B JUMP JUMPDEST PUSH1 0x40 MLOAD PUSH2 0x235 SWAP2 SWAP1 PUSH2 0x816 JUMP JUMPDEST PUSH1 0x40 MLOAD DUP1 SWAP2 SUB SWAP1 RETURN JUMPDEST PUSH0 SLOAD DUP2 JUMP JUMPDEST PUSH1 0x3 PUSH1 0x20 MSTORE DUP1 PUSH0 MSTORE PUSH1 0x40 PUSH0 KECCAK256 PUSH0 SWAP2 POP SWAP1 POP SLOAD DUP2 JUMP JUMPDEST PUSH1 0x1 SLOAD DUP2 JUMP JUMPDEST PUSH0 CALLVALUE SUB PUSH2 0x297 JUMPI PUSH1 0x40 MLOAD PUSH32 0x573DD94100000000000000000000000000000000000000000000000000000000 DUP2 MSTORE PUSH1 0x4 ADD PUSH1 0x40 MLOAD DUP1 SWAP2 SUB SWAP1 REVERT JUMPDEST PUSH32 0x0 CALLVALUE PUSH0 SLOAD PUSH2 0x2C5 SWAP2 SWAP1 PUSH2 0x98B JUMP JUMPDEST GT ISZERO PUSH2 0x32D JUMPI PUSH0 SLOAD CALLVALUE PUSH32 0x0 PUSH1 0x40 MLOAD PUSH32 0xB6DC76EA00000000000000000000000000000000000000000000000000000000 DUP2 MSTORE PUSH1 0x4 ADD PUSH2 0x324 SWAP4 SWAP3 SWAP2 SWAP1 PUSH2 0x9BE JUMP JUMPDEST PUSH1 0x40 MLOAD DUP1 SWAP2 SUB SWAP1 REVERT JUMPDEST CALLVALUE PUSH1 0x3 PUSH0 CALLER PUSH20 0xFFFFFFFFFFFFFFFFFFFFFFFFFFFFFFFFFFFFFFFF AND PUSH20 0xFFFFFFFFFFFFFFFFFFFFFFFFFFFFFFFFFFFFFFFF AND DUP2 MSTORE PUSH1 0x20 ADD SWAP1 DUP2 MSTORE PUSH1 0x20 ADD PUSH0 KECCAK256 PUSH0 DUP3 DUP3 SLOAD PUSH2 0x379 SWAP2 SWAP1 PUSH2 0x98B JUMP JUMPDEST SWAP3 POP POP DUP2 SWAP1 SSTORE POP CALLVALUE PUSH0 DUP1 DUP3 DUP3 SLOAD PUSH2 0x390 SWAP2 SWAP1 PUSH2 0x98B JUMP JUMPDEST SWAP3 POP POP DUP2 SWAP1 SSTORE POP PUSH1 0x1 PUSH0 DUP2 SLOAD DUP1 SWAP3 SWAP2 SWAP1 PUSH2 0x3A9 SWAP1 PUSH2 0x9F3 JUMP JUMPDEST SWAP2 SWAP1 POP SSTORE POP CALLER PUSH20 0xFFFFFFFFFFFFFFFFFFFFFFFFFFFFFFFFFFFFFFFF AND PUSH32 0x9D15693852BF60DC27BD5AA831D0351359B7D01D428AE1BAAE11F15CBCFEBAFD CALLVALUE PUSH1 0x40 MLOAD PUSH2 0x3F4 SWAP2 SWAP1 PUSH2 0x816 JUMP JUMPDEST PUSH1 0x40 MLOAD DUP1 SWAP2 SUB SWAP1 LOG2 JUMP JUMPDEST PUSH0 PUSH1 0x3 PUSH0 DUP4 PUSH20 0xFFFFFFFFFFFFFFFFFFFFFFFFFFFFFFFFFFFFFFFF AND PUSH20 0xFFFFFFFFFFFFFFFFFFFFFFFFFFFFFFFFFFFFFFFF AND DUP2 MSTORE PUSH1 0x20 ADD SWAP1 DUP2 MSTORE PUSH1 0x20 ADD PUSH0 KECCAK256 SLOAD SWAP1 POP SWAP2 SWAP1 POP JUMP JUMPDEST PUSH32 0x0 DUP2 JUMP JUMPDEST PUSH0 DUP1 PUSH0 DUP1 PUSH0 DUP1 SLOAD SWAP5 POP PUSH1 0x1 SLOAD SWAP4 POP PUSH1 0x2 SLOAD SWAP3 POP PUSH32 0x0 SWAP2 POP PUSH32 0x0 SWAP1 POP SWAP1 SWAP2 SWAP3 SWAP4 SWAP5 JUMP JUMPDEST PUSH1 0x2 SLOAD DUP2 JUMP JUMPDEST PUSH0 DUP2 SUB PUSH2 0x507 JUMPI PUSH1 0x40 MLOAD PUSH32 0x573DD94100000000000000000000000000000000000000000000000000000000 DUP2 MSTORE PUSH1 0x4 ADD PUSH1 0x40 MLOAD DUP1 SWAP2 SUB SWAP1 REVERT JUMPDEST DUP1 PUSH1 0x3 PUSH0 CALLER PUSH20 0xFFFFFFFFFFFFFFFFFFFFFFFFFFFFFFFFFFFFFFFF AND PUSH20 0xFFFFFFFFFFFFFFFFFFFFFFFFFFFFFFFFFFFFFFFF AND DUP2 MSTORE PUSH1 0x20 ADD SWAP1 DUP2 MSTORE PUSH1 0x20 ADD PUSH0 KECCAK256 SLOAD LT ISZERO PUSH2 0x5C8 JUMPI PUSH1 0x3 PUSH0 CALLER PUSH20 0xFFFFFFFFFFFFFFFFFFFFFFFFFFFFFFFFFFFFFFFF AND PUSH20 0xFFFFFFFFFFFFFFFFFFFFFFFFFFFFFFFFFFFFFFFF AND DUP2 MSTORE PUSH1 0x20 ADD SWAP1 DUP2 MSTORE PUSH1 0x20 ADD PUSH0 KECCAK256 SLOAD DUP2 PUSH1 0x40 MLOAD PUSH32 0x402FA76800000000000000000000000000000000000000000000000000000000 DUP2 MSTORE PUSH1 0x4 ADD PUSH2 0x5BF SWAP3 SWAP2 SWAP1 PUSH2 0xA3A JUMP JUMPDEST PUSH1 0x40 MLOAD DUP1 SWAP2 SUB SWAP1 REVERT JUMPDEST PUSH32 0x0 DUP2 GT ISZERO PUSH2 0x64F JUMPI DUP1 PUSH32 0x0 PUSH1 0x40 MLOAD PUSH32 0x9D2A6E2F00000000000000000000000000000000000000000000000000000000 DUP2 MSTORE PUSH1 0x4 ADD PUSH2 0x646 SWAP3 SWAP2 SWAP1 PUSH2 0xA3A JUMP JUMPDEST PUSH1 0x40 MLOAD DUP1 SWAP2 SUB SWAP1 REVERT JUMPDEST DUP1 PUSH1 0x3 PUSH0 CALLER PUSH20 0xFFFFFFFFFFFFFFFFFFFFFFFFFFFFFFFFFFFFFFFF AND PUSH20 0xFFFFFFFFFFFFFFFFFFFFFFFFFFFFFFFFFFFFFFFF AND DUP2 MSTORE PUSH1 0x20 ADD SWAP1 DUP2 MSTORE PUSH1 0x20 ADD PUSH0 KECCAK256 PUSH0 DUP3 DUP3 SLOAD PUSH2 0x69B SWAP2 SWAP1 PUSH2 0xA61 JUMP JUMPDEST SWAP3 POP POP DUP2 SWAP1 SSTORE POP DUP1 PUSH0 DUP1 DUP3 DUP3 SLOAD PUSH2 0x6B2 SWAP2 SWAP1 PUSH2 0xA61 JUMP JUMPDEST SWAP3 POP POP DUP2 SWAP1 SSTORE POP PUSH1 0x2 PUSH0 DUP2 SLOAD DUP1 SWAP3 SWAP2 SWAP1 PUSH2 0x6CB SWAP1 PUSH2 0x9F3 JUMP JUMPDEST SWAP2 SWAP1 POP SSTORE POP CALLER PUSH20 0xFFFFFFFFFFFFFFFFFFFFFFFFFFFFFFFFFFFFFFFF AND PUSH32 0xD10096D866CCFCF2896BFB7BC7B9E44C8137FF9C3655D1B2EEA22A4A9C2787FC DUP3 PUSH1 0x40 MLOAD PUSH2 0x716 SWAP2 SWAP1 PUSH2 0x816 JUMP JUMPDEST PUSH1 0x40 MLOAD DUP1 SWAP2 SUB SWAP1 LOG2 PUSH2 0x728 CALLER DUP3 PUSH2 0x74F JUMP JUMPDEST POP JUMP JUMPDEST PUSH32 0x0 DUP2 JUMP JUMPDEST PUSH0 DUP3 PUSH20 0xFFFFFFFFFFFFFFFFFFFFFFFFFFFFFFFFFFFFFFFF AND DUP3 PUSH1 0x40 MLOAD PUSH2 0x774 SWAP1 PUSH2 0xAC1 JUMP JUMPDEST PUSH0 PUSH1 0x40 MLOAD DUP1 DUP4 SUB DUP2 DUP6 DUP8 GAS CALL SWAP3 POP POP POP RETURNDATASIZE DUP1 PUSH0 DUP2 EQ PUSH2 0x7AE JUMPI PUSH1 0x40 MLOAD SWAP2 POP PUSH1 0x1F NOT PUSH1 0x3F RETURNDATASIZE ADD AND DUP3 ADD PUSH1 0x40 MSTORE RETURNDATASIZE DUP3 MSTORE RETURNDATASIZE PUSH0 PUSH1 0x20 DUP5 ADD RETURNDATACOPY PUSH2 0x7B3 JUMP JUMPDEST PUSH1 0x60 SWAP2 POP JUMPDEST POP POP SWAP1 POP DUP1 PUSH2 0x7F9 JUMPI DUP3 PUSH1 0x40 MLOAD PUSH32 0xADD7A42800000000000000000000000000000000000000000000000000000000 DUP2 MSTORE PUSH1 0x4 ADD PUSH2 0x7F0 SWAP2 SWAP1 PUSH2 0xAE4 JUMP JUMPDEST PUSH1 0x40 MLOAD DUP1 SWAP2 SUB SWAP1 REVERT JUMPDEST POP POP POP JUMP JUMPDEST PUSH0 DUP2 SWAP1 POP SWAP2 SWAP1 POP JUMP JUMPDEST PUSH2 0x810 DUP2 PUSH2 0x7FE JUMP JUMPDEST DUP3 MSTORE POP POP JUMP JUMPDEST PUSH0 PUSH1 0x20 DUP3 ADD SWAP1 POP PUSH2 0x829 PUSH0 DUP4 ADD DUP5 PUSH2 0x807 JUMP JUMPDEST SWAP3 SWAP2 POP POP JUMP JUMPDEST PUSH0 DUP1 REVERT JUMPDEST PUSH0 PUSH20 0xFFFFFFFFFFFFFFFFFFFFFFFFFFFFFFFFFFFFFFFF DUP3 AND SWAP1 POP SWAP2 SWAP1 POP JUMP JUMPDEST PUSH0 PUSH2 0x85C DUP3 PUSH2 0x833 JUMP JUMPDEST SWAP1 POP SWAP2 SWAP1 POP JUMP JUMPDEST PUSH2 0x86C DUP2 PUSH2 0x852 JUMP JUMPDEST DUP2 EQ PUSH2 0x876 JUMPI PUSH0 DUP1 REVERT JUMPDEST POP JUMP JUMPDEST PUSH0 DUP2 CALLDATALOAD SWAP1 POP PUSH2 0x887 DUP2 PUSH2 0x863 JUMP JUMPDEST SWAP3 SWAP2 POP POP JUMP JUMPDEST PUSH0 PUSH1 0x20 DUP3 DUP5 SUB SLT ISZERO PUSH2 0x8A2 JUMPI PUSH2 0x8A1 PUSH2 0x82F JUMP JUMPDEST JUMPDEST PUSH0 PUSH2 0x8AF DUP5 DUP3 DUP6 ADD PUSH2 0x879 JUMP JUMPDEST SWAP2 POP POP SWAP3 SWAP2 POP POP JUMP JUMPDEST PUSH0 PUSH1 0xA0 DUP3 ADD SWAP1 POP PUSH2 0x8CB PUSH0 DUP4 ADD DUP9 PUSH2 0x807 JUMP JUMPDEST PUSH2 0x8D8 PUSH1 0x20 DUP4 ADD DUP8 PUSH2 0x807 JUMP JUMPDEST PUSH2 0x8E5 PUSH1 0x40 DUP4 ADD DUP7 PUSH2 0x807 JUMP JUMPDEST PUSH2 0x8F2 PUSH1 0x60 DUP4 ADD DUP6 PUSH2 0x807 JUMP JUMPDEST PUSH2 0x8FF PUSH1 0x80 DUP4 ADD DUP5 PUSH2 0x807 JUMP JUMPDEST SWAP7 SWAP6 POP POP POP POP POP POP JUMP JUMPDEST PUSH2 0x912 DUP2 PUSH2 0x7FE JUMP JUMPDEST DUP2 EQ PUSH2 0x91C JUMPI PUSH0 DUP1 REVERT JUMPDEST POP JUMP JUMPDEST PUSH0 DUP2 CALLDATALOAD SWAP1 POP PUSH2 0x92D DUP2 PUSH2 0x909 JUMP JUMPDEST SWAP3 SWAP2 POP POP JUMP JUMPDEST PUSH0 PUSH1 0x20 DUP3 DUP5 SUB SLT ISZERO PUSH2 0x948 JUMPI PUSH2 0x947 PUSH2 0x82F JUMP JUMPDEST JUMPDEST PUSH0 PUSH2 0x955 DUP5 DUP3 DUP6 ADD PUSH2 0x91F JUMP JUMPDEST SWAP2 POP POP SWAP3 SWAP2 POP POP JUMP JUMPDEST PUSH32 0x4E487B7100000000000000000000000000000000000000000000000000000000 PUSH0 MSTORE PUSH1 0x11 PUSH1 0x4 MSTORE PUSH1 0x24 PUSH0 REVERT JUMPDEST PUSH0 PUSH2 0x995 DUP3 PUSH2 0x7FE JUMP JUMPDEST SWAP2 POP PUSH2 0x9A0 DUP4 PUSH2 0x7FE JUMP JUMPDEST SWAP3 POP DUP3 DUP3 ADD SWAP1 POP DUP1 DUP3 GT ISZERO PUSH2 0x9B8 JUMPI PUSH2 0x9B7 PUSH2 0x95E JUMP JUMPDEST JUMPDEST SWAP3 SWAP2 POP POP JUMP JUMPDEST PUSH0 PUSH1 0x60 DUP3 ADD SWAP1 POP PUSH2 0x9D1 PUSH0 DUP4 ADD DUP7 PUSH2 0x807 JUMP JUMPDEST PUSH2 0x9DE PUSH1 0x20 DUP4 ADD DUP6 PUSH2 0x807 JUMP JUMPDEST PUSH2 0x9EB PUSH1 0x40 DUP4 ADD DUP5 PUSH2 0x807 JUMP JUMPDEST SWAP5 SWAP4 POP POP POP POP JUMP JUMPDEST PUSH0 PUSH2 0x9FD DUP3 PUSH2 0x7FE JUMP JUMPDEST SWAP2 POP PUSH32 0xFFFFFFFFFFFFFFFFFFFFFFFFFFFFFFFFFFFFFFFFFFFFFFFFFFFFFFFFFFFFFFFF DUP3 SUB PUSH2 0xA2F JUMPI PUSH2 0xA2E PUSH2 0x95E JUMP JUMPDEST JUMPDEST PUSH1 0x1 DUP3 ADD SWAP1 POP SWAP2 SWAP1 POP JUMP JUMPDEST PUSH0 PUSH1 0x40 DUP3 ADD SWAP1 POP PUSH2 0xA4D PUSH0 DUP4 ADD DUP6 PUSH2 0x807 JUMP JUMPDEST PUSH2 0xA5A PUSH1 0x20 DUP4 ADD DUP5 PUSH2 0x807 JUMP JUMPDEST SWAP4 SWAP3 POP POP POP JUMP JUMPDEST PUSH0 PUSH2 0xA6B DUP3 PUSH2 0x7FE JUMP JUMPDEST SWAP2 POP PUSH2 0xA76 DUP4 PUSH2 0x7FE JUMP JUMPDEST SWAP3 POP DUP3 DUP3 SUB SWAP1 POP DUP2 DUP2 GT ISZERO PUSH2 0xA8E JUMPI PUSH2 0xA8D PUSH2 0x95E JUMP JUMPDEST JUMPDEST SWAP3 SWAP2 POP POP JUMP JUMPDEST PUSH0 DUP2 SWAP1 POP SWAP3 SWAP2 POP POP JUMP JUMPDEST POP JUMP JUMPDEST PUSH0 PUSH2 0xAAC PUSH0 DUP4 PUSH2 0xA94 JUMP JUMPDEST SWAP2 POP PUSH2 0xAB7 DUP3 PUSH2 0xA9E JUMP JUMPDEST PUSH0 DUP3 ADD SWAP1 POP SWAP2 SWAP1 POP JUMP JUMPDEST PUSH0 PUSH2 0xACB DUP3 PUSH2 0xAA1 JUMP JUMPDEST SWAP2 POP DUP2 SWAP1 POP SWAP2 SWAP1 POP JUMP JUMPDEST PUSH2 0xADE DUP2 PUSH2 0x852 JUMP JUMPDEST DUP3 MSTORE POP POP JUMP JUMPDEST PUSH0 PUSH1 0x20 DUP3 ADD SWAP1 POP PUSH2 0xAF7 PUSH0 DUP4 ADD DUP5 PUSH2 0xAD5 JUMP JUMPDEST SWAP3 SWAP2 POP POP JUMP INVALID LOG2 PUSH5 0x6970667358 0x22 SLT KECCAK256 CHAINID SWAP1 0x28 0xB0 0xC7 CODECOPY PUSH0 POP GASLIMIT 0xE1 0xD ADDMOD 0xB7 LOG0 ADD 0xCA AND REVERT 0xD6 0x26 PUSH32 0x96A13577A7370CDF0CFD0964736F6C634300081A003300000000000000000000 "
				},
				"gasEstimates": {
					"creation": {
						"codeDepositCost": "573400",
						"executionCost": "infinite",
						"totalCost": "infinite"
					},
					"external": {
						"consultarBalance(address)": "2918",
						"consultarEstadoBanco()": "infinite",
						"depositar()": "infinite",
						"i_bankCap()": "infinite",
						"i_umbralRetiro()": "infinite",
						"retirar(uint256)": "infinite",
						"s_boveda(address)": "2825",
						"s_contadorDepositos()": "2470",
						"s_contadorRetiros()": "2469",
						"s_totalDepositado()": "2425"
					},
					"internal": {
						"_transferirEth(address,uint256)": "infinite"
					}
				},
				"methodIdentifiers": {
					"consultarBalance(address)": "4149f9ac",
					"consultarEstadoBanco()": "abc9cd6d",
					"depositar()": "3d922f90",
					"i_bankCap()": "f6687af7",
					"i_umbralRetiro()": "6df5c134",
					"retirar(uint256)": "e8b1298f",
					"s_boveda(address)": "1d1448f2",
					"s_contadorDepositos()": "2230c272",
					"s_contadorRetiros()": "d4b0d3ce",
					"s_totalDepositado()": "1c6d62a3"
				}
			},
			"storageLayout": {
				"storage": [
					{
						"astId": 11,
						"contract": "02_kipu-bank/contracts/KipuBank.sol:KipuBank",
						"label": "s_totalDepositado",
						"offset": 0,
						"slot": "0",
						"type": "t_uint256"
					},
					{
						"astId": 14,
						"contract": "02_kipu-bank/contracts/KipuBank.sol:KipuBank",
						"label": "s_contadorDepositos",
						"offset": 0,
						"slot": "1",
						"type": "t_uint256"
					},
					{
						"astId": 17,
						"contract": "02_kipu-bank/contracts/KipuBank.sol:KipuBank",
						"label": "s_contadorRetiros",
						"offset": 0,
						"slot": "2",
						"type": "t_uint256"
					},
					{
						"astId": 22,
						"contract": "02_kipu-bank/contracts/KipuBank.sol:KipuBank",
						"label": "s_boveda",
						"offset": 0,
						"slot": "3",
						"type": "t_mapping(t_address,t_uint256)"
					}
				],
				"types": {
					"t_address": {
						"encoding": "inplace",
						"label": "address",
						"numberOfBytes": "20"
					},
					"t_mapping(t_address,t_uint256)": {
						"encoding": "mapping",
						"key": "t_address",
						"label": "mapping(address => uint256)",
						"numberOfBytes": "32",
						"value": "t_uint256"
					},
					"t_uint256": {
						"encoding": "inplace",
						"label": "uint256",
						"numberOfBytes": "32"
					}
				}
			},
			"userdoc": {
				"errors": {
					"KipuBank_LimiteGlobalExcedido(uint256,uint256,uint256)": [
						{
							"notice": "Error emitido cuando el deposito excede el límite global del banco"
						}
					],
					"KipuBank_MontoDebeSerMayorACero()": [
						{
							"notice": "Error emitido cuando el monto del deposito es cero"
						}
					],
					"KipuBank_RetiroExcedeUmbral(uint256,uint256)": [
						{
							"notice": "Error emitido cuando el retiro excede el umbral permitido por transaccion"
						}
					],
					"KipuBank_SaldoInsuficiente(uint256,uint256)": [
						{
							"notice": "Error emitido cuando el usuario intenta retirar mas de lo que tiene"
						}
					],
					"KipuBank_TransferenciaFallida(address)": [
						{
							"notice": "Error emitido cuando falla la transferencia de ETH"
						}
					]
				},
				"events": {
					"KipuBank_DepositoRealizado(address,uint256)": {
						"notice": "Evento emitido cuando un usuario realiza un depósito exitoso"
					},
					"KipuBank_RetiroRealizado(address,uint256)": {
						"notice": "Evento emitido cuando un usuario realiza un retiro exitoso"
					}
				},
				"kind": "user",
				"methods": {
					"constructor": {
						"notice": "Inicializa el contrato KipuBank con los parámetros de configuración"
					},
					"consultarBalance(address)": {
						"notice": "Funcion VIEW para consultar el balance de la boveda personal"
					},
					"consultarEstadoBanco()": {
						"notice": "Consulta información general del banco"
					},
					"depositar()": {
						"notice": "Funcion para depositar eth en la boveda personal"
					},
					"i_bankCap()": {
						"notice": "Límite global de depósitos del banco"
					},
					"i_umbralRetiro()": {
						"notice": "Umbral máximo de retiro por transacción (0.1 ETH)"
					},
					"retirar(uint256)": {
						"notice": "Permite a los usuarios retirar ETH de su bóveda personal"
					},
					"s_boveda(address)": {
						"notice": "Mapping que almacena el balance de cada usuario"
					},
					"s_contadorDepositos()": {
						"notice": "Contador global de depositos realizados"
					},
					"s_contadorRetiros()": {
						"notice": "Contador global de retiros realizados"
					},
					"s_totalDepositado()": {
						"notice": "Total de ETH depositado en el banco"
					}
				},
				"notice": "Sistema de bóveda personal para depósitos y retiros de ETH",
				"version": 1
			}
		}
	}
}