{
	"03_kipu-bank-v2/contracts/errKipuBankV2.sol": {
		"KipuBankV2": {
			"abi": [
				{
					"inputs": [
						{
							"internalType": "uint256",
							"name": "_bankCapUSD",
							"type": "uint256"
						},
						{
							"internalType": "uint256",
							"name": "_umbralRetiroUSD",
							"type": "uint256"
						},
						{
							"internalType": "address",
							"name": "_ethUsdFeed",
							"type": "address"
						},
						{
							"internalType": "address",
							"name": "_usdc",
							"type": "address"
						},
						{
							"internalType": "address",
							"name": "_owner",
							"type": "address"
						}
					],
					"stateMutability": "nonpayable",
					"type": "constructor"
				},
				{
					"inputs": [
						{
							"internalType": "uint256",
							"name": "totalActualUSD",
							"type": "uint256"
						},
						{
							"internalType": "uint256",
							"name": "intentoDepositoUSD",
							"type": "uint256"
						},
						{
							"internalType": "uint256",
							"name": "limiteUSD",
							"type": "uint256"
						}
					],
					"name": "KipuBankV2_LimiteGlobalExcedidoUSD",
					"type": "error"
				},
				{
					"inputs": [],
					"name": "KipuBankV2_MontoDebeSerMayorACero",
					"type": "error"
				},
				{
					"inputs": [],
					"name": "KipuBankV2_OracleCompromised",
					"type": "error"
				},
				{
					"inputs": [
						{
							"internalType": "uint256",
							"name": "montoSolicitadoUSD",
							"type": "uint256"
						},
						{
							"internalType": "uint256",
							"name": "umbralMaximoUSD",
							"type": "uint256"
						}
					],
					"name": "KipuBankV2_RetiroExcedeUmbral",
					"type": "error"
				},
				{
					"inputs": [
						{
							"internalType": "uint256",
							"name": "balanceDisponible",
							"type": "uint256"
						},
						{
							"internalType": "uint256",
							"name": "montoSolicitado",
							"type": "uint256"
						}
					],
					"name": "KipuBankV2_SaldoInsuficiente",
					"type": "error"
				},
				{
					"inputs": [
						{
							"internalType": "uint256",
							"name": "tiempoTranscurrido",
							"type": "uint256"
						},
						{
							"internalType": "uint256",
							"name": "heartbeat",
							"type": "uint256"
						}
					],
					"name": "KipuBankV2_StalePrice",
					"type": "error"
				},
				{
					"inputs": [
						{
							"internalType": "address",
							"name": "token",
							"type": "address"
						}
					],
					"name": "KipuBankV2_TokenNoSoportado",
					"type": "error"
				},
				{
					"inputs": [
						{
							"internalType": "address",
							"name": "destinatario",
							"type": "address"
						}
					],
					"name": "KipuBankV2_TransferenciaFallida",
					"type": "error"
				},
				{
					"inputs": [
						{
							"internalType": "address",
							"name": "owner",
							"type": "address"
						}
					],
					"name": "OwnableInvalidOwner",
					"type": "error"
				},
				{
					"inputs": [
						{
							"internalType": "address",
							"name": "account",
							"type": "address"
						}
					],
					"name": "OwnableUnauthorizedAccount",
					"type": "error"
				},
				{
					"inputs": [],
					"name": "ReentrancyGuardReentrantCall",
					"type": "error"
				},
				{
					"inputs": [
						{
							"internalType": "address",
							"name": "token",
							"type": "address"
						}
					],
					"name": "SafeERC20FailedOperation",
					"type": "error"
				},
				{
					"anonymous": false,
					"inputs": [
						{
							"indexed": true,
							"internalType": "address",
							"name": "usuario",
							"type": "address"
						},
						{
							"indexed": true,
							"internalType": "address",
							"name": "token",
							"type": "address"
						},
						{
							"indexed": false,
							"internalType": "uint256",
							"name": "amount",
							"type": "uint256"
						},
						{
							"indexed": false,
							"internalType": "uint256",
							"name": "amountUSD",
							"type": "uint256"
						}
					],
					"name": "KipuBankV2_DepositoRealizado",
					"type": "event"
				},
				{
					"anonymous": false,
					"inputs": [
						{
							"indexed": true,
							"internalType": "address",
							"name": "newFeed",
							"type": "address"
						}
					],
					"name": "KipuBankV2_FeedActualizado",
					"type": "event"
				},
				{
					"anonymous": false,
					"inputs": [
						{
							"indexed": true,
							"internalType": "address",
							"name": "usuario",
							"type": "address"
						},
						{
							"indexed": true,
							"internalType": "address",
							"name": "token",
							"type": "address"
						},
						{
							"indexed": false,
							"internalType": "uint256",
							"name": "amount",
							"type": "uint256"
						},
						{
							"indexed": false,
							"internalType": "uint256",
							"name": "amountUSD",
							"type": "uint256"
						}
					],
					"name": "KipuBankV2_RetiroRealizado",
					"type": "event"
				},
				{
					"anonymous": false,
					"inputs": [
						{
							"indexed": true,
							"internalType": "address",
							"name": "previousOwner",
							"type": "address"
						},
						{
							"indexed": true,
							"internalType": "address",
							"name": "newOwner",
							"type": "address"
						}
					],
					"name": "OwnershipTransferred",
					"type": "event"
				},
				{
					"inputs": [],
					"name": "NATIVE_TOKEN",
					"outputs": [
						{
							"internalType": "address",
							"name": "",
							"type": "address"
						}
					],
					"stateMutability": "view",
					"type": "function"
				},
				{
					"inputs": [
						{
							"internalType": "address",
							"name": "_newFeed",
							"type": "address"
						}
					],
					"name": "actualizarFeed",
					"outputs": [],
					"stateMutability": "nonpayable",
					"type": "function"
				},
				{
					"inputs": [
						{
							"internalType": "address",
							"name": "_usuario",
							"type": "address"
						},
						{
							"internalType": "address",
							"name": "_token",
							"type": "address"
						}
					],
					"name": "consultarBalance",
					"outputs": [
						{
							"internalType": "uint256",
							"name": "balance_",
							"type": "uint256"
						}
					],
					"stateMutability": "view",
					"type": "function"
				},
				{
					"inputs": [
						{
							"internalType": "address",
							"name": "_usuario",
							"type": "address"
						}
					],
					"name": "consultarBalanceTotalUSD",
					"outputs": [
						{
							"internalType": "uint256",
							"name": "balanceTotalUSD_",
							"type": "uint256"
						}
					],
					"stateMutability": "view",
					"type": "function"
				},
				{
					"inputs": [],
					"name": "consultarEstadoBanco",
					"outputs": [
						{
							"internalType": "uint256",
							"name": "totalDepositadoUSD_",
							"type": "uint256"
						},
						{
							"internalType": "uint256",
							"name": "totalETH_",
							"type": "uint256"
						},
						{
							"internalType": "uint256",
							"name": "totalUSDC_",
							"type": "uint256"
						},
						{
							"internalType": "uint256",
							"name": "contadorDepositos_",
							"type": "uint256"
						},
						{
							"internalType": "uint256",
							"name": "contadorRetiros_",
							"type": "uint256"
						},
						{
							"internalType": "uint256",
							"name": "bankCapUSD_",
							"type": "uint256"
						},
						{
							"internalType": "uint256",
							"name": "umbralRetiroUSD_",
							"type": "uint256"
						}
					],
					"stateMutability": "view",
					"type": "function"
				},
				{
					"inputs": [],
					"name": "consultarPrecioETH",
					"outputs": [
						{
							"internalType": "uint256",
							"name": "precioETH_",
							"type": "uint256"
						},
						{
							"internalType": "uint256",
							"name": "ultimaActualizacion_",
							"type": "uint256"
						}
					],
					"stateMutability": "view",
					"type": "function"
				},
				{
					"inputs": [],
					"name": "depositarETH",
					"outputs": [],
					"stateMutability": "payable",
					"type": "function"
				},
				{
					"inputs": [
						{
							"internalType": "address",
							"name": "_token",
							"type": "address"
						},
						{
							"internalType": "uint256",
							"name": "_amount",
							"type": "uint256"
						}
					],
					"name": "depositarToken",
					"outputs": [],
					"stateMutability": "nonpayable",
					"type": "function"
				},
				{
					"inputs": [],
					"name": "getUmbralRetiro",
					"outputs": [
						{
							"internalType": "uint256",
							"name": "",
							"type": "uint256"
						}
					],
					"stateMutability": "view",
					"type": "function"
				},
				{
					"inputs": [],
					"name": "i_bankCapUSD",
					"outputs": [
						{
							"internalType": "uint256",
							"name": "",
							"type": "uint256"
						}
					],
					"stateMutability": "view",
					"type": "function"
				},
				{
					"inputs": [],
					"name": "i_umbralRetiroUSD",
					"outputs": [
						{
							"internalType": "uint256",
							"name": "",
							"type": "uint256"
						}
					],
					"stateMutability": "view",
					"type": "function"
				},
				{
					"inputs": [],
					"name": "i_usdc",
					"outputs": [
						{
							"internalType": "contract IERC20",
							"name": "",
							"type": "address"
						}
					],
					"stateMutability": "view",
					"type": "function"
				},
				{
					"inputs": [],
					"name": "owner",
					"outputs": [
						{
							"internalType": "address",
							"name": "",
							"type": "address"
						}
					],
					"stateMutability": "view",
					"type": "function"
				},
				{
					"inputs": [],
					"name": "renounceOwnership",
					"outputs": [],
					"stateMutability": "nonpayable",
					"type": "function"
				},
				{
					"inputs": [
						{
							"internalType": "uint256",
							"name": "_amountETH",
							"type": "uint256"
						}
					],
					"name": "retirarETH",
					"outputs": [],
					"stateMutability": "nonpayable",
					"type": "function"
				},
				{
					"inputs": [
						{
							"internalType": "address",
							"name": "_token",
							"type": "address"
						},
						{
							"internalType": "uint256",
							"name": "_amount",
							"type": "uint256"
						}
					],
					"name": "retirarToken",
					"outputs": [],
					"stateMutability": "nonpayable",
					"type": "function"
				},
				{
					"inputs": [
						{
							"internalType": "address",
							"name": "user",
							"type": "address"
						},
						{
							"internalType": "address",
							"name": "token",
							"type": "address"
						}
					],
					"name": "s_balances",
					"outputs": [
						{
							"internalType": "uint256",
							"name": "balanceUSD",
							"type": "uint256"
						}
					],
					"stateMutability": "view",
					"type": "function"
				},
				{
					"inputs": [],
					"name": "s_contadorDepositos",
					"outputs": [
						{
							"internalType": "uint256",
							"name": "",
							"type": "uint256"
						}
					],
					"stateMutability": "view",
					"type": "function"
				},
				{
					"inputs": [],
					"name": "s_contadorRetiros",
					"outputs": [
						{
							"internalType": "uint256",
							"name": "",
							"type": "uint256"
						}
					],
					"stateMutability": "view",
					"type": "function"
				},
				{
					"inputs": [],
					"name": "s_ethUsdFeed",
					"outputs": [
						{
							"internalType": "contract AggregatorV3Interface",
							"name": "",
							"type": "address"
						}
					],
					"stateMutability": "view",
					"type": "function"
				},
				{
					"inputs": [
						{
							"internalType": "address",
							"name": "token",
							"type": "address"
						}
					],
					"name": "s_totalDepositadoPorToken",
					"outputs": [
						{
							"internalType": "uint256",
							"name": "totalUSD",
							"type": "uint256"
						}
					],
					"stateMutability": "view",
					"type": "function"
				},
				{
					"inputs": [],
					"name": "s_totalDepositadoUSD",
					"outputs": [
						{
							"internalType": "uint256",
							"name": "",
							"type": "uint256"
						}
					],
					"stateMutability": "view",
					"type": "function"
				},
				{
					"inputs": [
						{
							"internalType": "address",
							"name": "newOwner",
							"type": "address"
						}
					],
					"name": "transferOwnership",
					"outputs": [],
					"stateMutability": "nonpayable",
					"type": "function"
				}
			],
			"devdoc": {
				"author": "guidobursz Memoria: bankCap USD: 1000 (1000000000) umbralRetiro USD: 100 (100000000) oraculo: 0x694AA1769357215DE4FAC081bf1f309aDC325306 usdc: 0x1c7D4B196Cb0C7B01d743Fbc6116a902379C7238 owner: 0x652405FdecC7fCcA771752b83D5F6DB8be46a296 CONTRATO: 0x12b3DAadBFb0d0d6EdaC704bCeD03a9AefA71F83*",
				"errors": {
					"KipuBankV2_LimiteGlobalExcedidoUSD(uint256,uint256,uint256)": [
						{
							"params": {
								"intentoDepositoUSD": "Monto que se intenta depositar",
								"limiteUSD": "Límite máximo permitido (bankCap)",
								"totalActualUSD": "Total actualmente depositado en el banco"
							}
						}
					],
					"KipuBankV2_RetiroExcedeUmbral(uint256,uint256)": [
						{
							"params": {
								"montoSolicitadoUSD": "Monto que intenta retirar en USD",
								"umbralMaximoUSD": "Límite máximo por retiro en USD"
							}
						}
					],
					"KipuBankV2_SaldoInsuficiente(uint256,uint256)": [
						{
							"params": {
								"balanceDisponible": "Balance actual del usuario en USD",
								"montoSolicitado": "Monto que intenta retirar en USD"
							}
						}
					],
					"KipuBankV2_StalePrice(uint256,uint256)": [
						{
							"params": {
								"heartbeat": "Tiempo máximo permitido",
								"tiempoTranscurrido": "Tiempo desde la última actualización"
							}
						}
					],
					"KipuBankV2_TokenNoSoportado(address)": [
						{
							"params": {
								"token": "Dirección del token no soportado"
							}
						}
					],
					"KipuBankV2_TransferenciaFallida(address)": [
						{
							"params": {
								"destinatario": "Dirección a la que se intentó enviar"
							}
						}
					],
					"OwnableInvalidOwner(address)": [
						{
							"details": "The owner is not a valid owner account. (eg. `address(0)`)"
						}
					],
					"OwnableUnauthorizedAccount(address)": [
						{
							"details": "The caller account is not authorized to perform an operation."
						}
					],
					"ReentrancyGuardReentrantCall()": [
						{
							"details": "Unauthorized reentrant call."
						}
					],
					"SafeERC20FailedOperation(address)": [
						{
							"details": "An operation with an ERC-20 token failed."
						}
					]
				},
				"events": {
					"KipuBankV2_DepositoRealizado(address,address,uint256,uint256)": {
						"params": {
							"amount": "Cantidad depositada en unidades del token",
							"amountUSD": "Valor del depósito en USD",
							"token": "Dirección del token depositado (address(0) para ETH)",
							"usuario": "Dirección del usuario que depositó"
						}
					},
					"KipuBankV2_FeedActualizado(address)": {
						"params": {
							"newFeed": "Nueva dirección del feed ETH/USD"
						}
					},
					"KipuBankV2_RetiroRealizado(address,address,uint256,uint256)": {
						"params": {
							"amount": "Cantidad retirada en unidades del token",
							"amountUSD": "Valor del retiro en USD (6 decimales)",
							"token": "Dirección del token retirado (address(0) para ETH)",
							"usuario": "Dirección del usuario que retiró"
						}
					}
				},
				"kind": "dev",
				"methods": {
					"actualizarFeed(address)": {
						"details": "Solo el propietario puede llamar esta función",
						"params": {
							"_newFeed": "Nueva dirección del feed ETH/USD"
						}
					},
					"constructor": {
						"details": "Los valores immutable se establecen aquí y no pueden cambiar después del deployment",
						"params": {
							"_bankCapUSD": "Límite máximo total de depósitos en USD (6 decimales)",
							"_ethUsdFeed": "Dirección del Chainlink Price Feed ETH/USD",
							"_owner": "Dirección del propietario del contrato",
							"_umbralRetiroUSD": "Monto máximo por retiro en USD (6 decimales)",
							"_usdc": "Dirección del token USDC"
						}
					},
					"consultarBalance(address,address)": {
						"params": {
							"_token": "Dirección del token (address(0) para ETH)",
							"_usuario": "Dirección del usuario a consultar"
						},
						"returns": {
							"balance_": "Balance del usuario en USD (6 decimales)"
						}
					},
					"consultarBalanceTotalUSD(address)": {
						"params": {
							"_usuario": "Dirección del usuario a consultar"
						},
						"returns": {
							"balanceTotalUSD_": "Balance total en USD (6 decimales)"
						}
					},
					"consultarEstadoBanco()": {
						"returns": {
							"bankCapUSD_": "Límite máximo del banco en USD",
							"contadorDepositos_": "Número total de depósitos realizados",
							"contadorRetiros_": "Número total de retiros realizados",
							"totalDepositadoUSD_": "Total depositado en el banco en USD",
							"totalETH_": "Total de ETH depositado en USD",
							"totalUSDC_": "Total de USDC depositado en USD",
							"umbralRetiroUSD_": "Límite máximo por retiro en USD"
						}
					},
					"consultarPrecioETH()": {
						"returns": {
							"precioETH_": "Precio actual de ETH en USD (8 decimales)",
							"ultimaActualizacion_": "Timestamp de la última actualización"
						}
					},
					"depositarETH()": {
						"details": "Convierte el ETH a USD usando Chainlink y valida el límite globalEl balance se almacena en USD"
					},
					"depositarToken(address,uint256)": {
						"details": "El usuario debe aprobar previamente el token al contratoSolo soporta USDC actualmente",
						"params": {
							"_amount": "Cantidad a depositar en unidades del token",
							"_token": "Dirección del token a depositar"
						}
					},
					"owner()": {
						"details": "Returns the address of the current owner."
					},
					"renounceOwnership()": {
						"details": "Leaves the contract without owner. It will not be possible to call `onlyOwner` functions. Can only be called by the current owner. NOTE: Renouncing ownership will leave the contract without an owner, thereby disabling any functionality that is only available to the owner."
					},
					"retirarETH(uint256)": {
						"details": "Valida saldo suficiente y umbral de retiro en USD",
						"params": {
							"_amountETH": "Cantidad de ETH a retirar en wei"
						}
					},
					"retirarToken(address,uint256)": {
						"details": "Valida saldo suficiente y umbral de retiro en USD",
						"params": {
							"_amount": "Cantidad a retirar en unidades del token",
							"_token": "Dirección del token a retirar"
						}
					},
					"transferOwnership(address)": {
						"details": "Transfers ownership of the contract to a new account (`newOwner`). Can only be called by the current owner."
					}
				},
				"title": "KipuBankV2",
				"version": 1
			},
			"evm": {
				"assembly": "    /* \"03_kipu-bank-v2/contracts/errKipuBankV2.sol\":1253:20549  contract KipuBankV2 is Ownable, ReentrancyGuard {... */\n  mstore(0x40, 0xe0)\n    /* \"03_kipu-bank-v2/contracts/errKipuBankV2.sol\":6969:7358  constructor(... */\n  callvalue\n  dup1\n  iszero\n  tag_1\n  jumpi\n  0x00\n  dup1\n  revert\ntag_1:\n  pop\n  mload(0x40)\n  sub(codesize, bytecodeSize)\n  dup1\n  bytecodeSize\n  dup4\n  codecopy\n  dup2\n  dup2\n  add\n  0x40\n  mstore\n  dup2\n  add\n  swap1\n  tag_2\n  swap2\n  swap1\n  tag_3\n  jump\t// in\ntag_2:\n    /* \"03_kipu-bank-v2/contracts/errKipuBankV2.sol\":7166:7172  _owner */\n  dup1\n    /* \"@openzeppelin/contracts/access/Ownable.sol\":1297:1298  0 */\n  0x00\n    /* \"@openzeppelin/contracts/access/Ownable.sol\":1273:1299  initialOwner == address(0) */\n  0xffffffffffffffffffffffffffffffffffffffff\n  and\n    /* \"@openzeppelin/contracts/access/Ownable.sol\":1273:1285  initialOwner */\n  dup2\n    /* \"@openzeppelin/contracts/access/Ownable.sol\":1273:1299  initialOwner == address(0) */\n  0xffffffffffffffffffffffffffffffffffffffff\n  and\n  sub\n    /* \"@openzeppelin/contracts/access/Ownable.sol\":1269:1364  if (initialOwner == address(0)) {... */\n  tag_8\n  jumpi\n    /* \"@openzeppelin/contracts/access/Ownable.sol\":1350:1351  0 */\n  0x00\n    /* \"@openzeppelin/contracts/access/Ownable.sol\":1322:1353  OwnableInvalidOwner(address(0)) */\n  mload(0x40)\n  0x1e4fbdf700000000000000000000000000000000000000000000000000000000\n  dup2\n  mstore\n  0x04\n  add\n  tag_9\n  swap2\n  swap1\n  tag_10\n  jump\t// in\ntag_9:\n  mload(0x40)\n  dup1\n  swap2\n  sub\n  swap1\n  revert\n    /* \"@openzeppelin/contracts/access/Ownable.sol\":1269:1364  if (initialOwner == address(0)) {... */\ntag_8:\n    /* \"@openzeppelin/contracts/access/Ownable.sol\":1373:1405  _transferOwnership(initialOwner) */\n  tag_11\n    /* \"@openzeppelin/contracts/access/Ownable.sol\":1392:1404  initialOwner */\n  dup2\n    /* \"@openzeppelin/contracts/access/Ownable.sol\":1373:1391  _transferOwnership */\n  shl(0x20, tag_12)\n    /* \"@openzeppelin/contracts/access/Ownable.sol\":1373:1405  _transferOwnership(initialOwner) */\n  0x20\n  shr\n  jump\t// in\ntag_11:\n    /* \"@openzeppelin/contracts/access/Ownable.sol\":1225:1412  constructor(address initialOwner) {... */\n  pop\n    /* \"@openzeppelin/contracts/utils/ReentrancyGuard.sol\":1857:1858  1 */\n  0x01\n    /* \"@openzeppelin/contracts/utils/ReentrancyGuard.sol\":2061:2068  _status */\n  dup1\n    /* \"@openzeppelin/contracts/utils/ReentrancyGuard.sol\":2061:2082  _status = NOT_ENTERED */\n  dup2\n  swap1\n  sstore\n  pop\n    /* \"03_kipu-bank-v2/contracts/errKipuBankV2.sol\":7203:7214  _bankCapUSD */\n  dup5\n    /* \"03_kipu-bank-v2/contracts/errKipuBankV2.sol\":7188:7214  i_bankCapUSD = _bankCapUSD */\n  0x80\n  dup2\n  dup2\n  mstore\n  pop\n  pop\n    /* \"03_kipu-bank-v2/contracts/errKipuBankV2.sol\":7244:7260  _umbralRetiroUSD */\n  dup4\n    /* \"03_kipu-bank-v2/contracts/errKipuBankV2.sol\":7224:7260  i_umbralRetiroUSD = _umbralRetiroUSD */\n  0xa0\n  dup2\n  dup2\n  mstore\n  pop\n  pop\n    /* \"03_kipu-bank-v2/contracts/errKipuBankV2.sol\":7307:7318  _ethUsdFeed */\n  dup3\n    /* \"03_kipu-bank-v2/contracts/errKipuBankV2.sol\":7270:7282  s_ethUsdFeed */\n  0x02\n  0x00\n    /* \"03_kipu-bank-v2/contracts/errKipuBankV2.sol\":7270:7319  s_ethUsdFeed = AggregatorV3Interface(_ethUsdFeed) */\n  0x0100\n  exp\n  dup2\n  sload\n  dup2\n  0xffffffffffffffffffffffffffffffffffffffff\n  mul\n  not\n  and\n  swap1\n  dup4\n  0xffffffffffffffffffffffffffffffffffffffff\n  and\n  mul\n  or\n  swap1\n  sstore\n  pop\n    /* \"03_kipu-bank-v2/contracts/errKipuBankV2.sol\":7345:7350  _usdc */\n  dup2\n    /* \"03_kipu-bank-v2/contracts/errKipuBankV2.sol\":7329:7351  i_usdc = IERC20(_usdc) */\n  0xffffffffffffffffffffffffffffffffffffffff\n  and\n  0xc0\n  dup2\n  0xffffffffffffffffffffffffffffffffffffffff\n  and\n  dup2\n  mstore\n  pop\n  pop\n    /* \"03_kipu-bank-v2/contracts/errKipuBankV2.sol\":6969:7358  constructor(... */\n  pop\n  pop\n  pop\n  pop\n  pop\n    /* \"03_kipu-bank-v2/contracts/errKipuBankV2.sol\":1253:20549  contract KipuBankV2 is Ownable, ReentrancyGuard {... */\n  jump(tag_15)\n    /* \"@openzeppelin/contracts/access/Ownable.sol\":2912:3099  function _transferOwnership(address newOwner) internal virtual {... */\ntag_12:\n    /* \"@openzeppelin/contracts/access/Ownable.sol\":2985:3001  address oldOwner */\n  0x00\n    /* \"@openzeppelin/contracts/access/Ownable.sol\":3004:3010  _owner */\n  dup1\n  0x00\n  swap1\n  sload\n  swap1\n  0x0100\n  exp\n  swap1\n  div\n  0xffffffffffffffffffffffffffffffffffffffff\n  and\n    /* \"@openzeppelin/contracts/access/Ownable.sol\":2985:3010  address oldOwner = _owner */\n  swap1\n  pop\n    /* \"@openzeppelin/contracts/access/Ownable.sol\":3029:3037  newOwner */\n  dup2\n    /* \"@openzeppelin/contracts/access/Ownable.sol\":3020:3026  _owner */\n  0x00\n  dup1\n    /* \"@openzeppelin/contracts/access/Ownable.sol\":3020:3037  _owner = newOwner */\n  0x0100\n  exp\n  dup2\n  sload\n  dup2\n  0xffffffffffffffffffffffffffffffffffffffff\n  mul\n  not\n  and\n  swap1\n  dup4\n  0xffffffffffffffffffffffffffffffffffffffff\n  and\n  mul\n  or\n  swap1\n  sstore\n  pop\n    /* \"@openzeppelin/contracts/access/Ownable.sol\":3083:3091  newOwner */\n  dup2\n    /* \"@openzeppelin/contracts/access/Ownable.sol\":3052:3092  OwnershipTransferred(oldOwner, newOwner) */\n  0xffffffffffffffffffffffffffffffffffffffff\n  and\n    /* \"@openzeppelin/contracts/access/Ownable.sol\":3073:3081  oldOwner */\n  dup2\n    /* \"@openzeppelin/contracts/access/Ownable.sol\":3052:3092  OwnershipTransferred(oldOwner, newOwner) */\n  0xffffffffffffffffffffffffffffffffffffffff\n  and\n  0x8be0079c531659141344cd1fd0a4f28419497f9722a3daafe3b4186f6b6457e0\n  mload(0x40)\n  mload(0x40)\n  dup1\n  swap2\n  sub\n  swap1\n  log3\n    /* \"@openzeppelin/contracts/access/Ownable.sol\":2975:3099  {... */\n  pop\n    /* \"@openzeppelin/contracts/access/Ownable.sol\":2912:3099  function _transferOwnership(address newOwner) internal virtual {... */\n  pop\n  jump\t// out\n    /* \"#utility.yul\":88:205   */\ntag_18:\n    /* \"#utility.yul\":197:198   */\n  0x00\n    /* \"#utility.yul\":194:195   */\n  dup1\n    /* \"#utility.yul\":187:199   */\n  revert\n    /* \"#utility.yul\":334:411   */\ntag_20:\n    /* \"#utility.yul\":371:378   */\n  0x00\n    /* \"#utility.yul\":400:405   */\n  dup2\n    /* \"#utility.yul\":389:405   */\n  swap1\n  pop\n    /* \"#utility.yul\":334:411   */\n  swap2\n  swap1\n  pop\n  jump\t// out\n    /* \"#utility.yul\":417:539   */\ntag_21:\n    /* \"#utility.yul\":490:514   */\n  tag_34\n    /* \"#utility.yul\":508:513   */\n  dup2\n    /* \"#utility.yul\":490:514   */\n  tag_20\n  jump\t// in\ntag_34:\n    /* \"#utility.yul\":483:488   */\n  dup2\n    /* \"#utility.yul\":480:515   */\n  eq\n    /* \"#utility.yul\":470:533   */\n  tag_35\n  jumpi\n    /* \"#utility.yul\":529:530   */\n  0x00\n    /* \"#utility.yul\":526:527   */\n  dup1\n    /* \"#utility.yul\":519:531   */\n  revert\n    /* \"#utility.yul\":470:533   */\ntag_35:\n    /* \"#utility.yul\":417:539   */\n  pop\n  jump\t// out\n    /* \"#utility.yul\":545:688   */\ntag_22:\n    /* \"#utility.yul\":602:607   */\n  0x00\n    /* \"#utility.yul\":633:639   */\n  dup2\n    /* \"#utility.yul\":627:640   */\n  mload\n    /* \"#utility.yul\":618:640   */\n  swap1\n  pop\n    /* \"#utility.yul\":649:682   */\n  tag_37\n    /* \"#utility.yul\":676:681   */\n  dup2\n    /* \"#utility.yul\":649:682   */\n  tag_21\n  jump\t// in\ntag_37:\n    /* \"#utility.yul\":545:688   */\n  swap3\n  swap2\n  pop\n  pop\n  jump\t// out\n    /* \"#utility.yul\":694:820   */\ntag_23:\n    /* \"#utility.yul\":731:738   */\n  0x00\n    /* \"#utility.yul\":771:813   */\n  0xffffffffffffffffffffffffffffffffffffffff\n    /* \"#utility.yul\":764:769   */\n  dup3\n    /* \"#utility.yul\":760:814   */\n  and\n    /* \"#utility.yul\":749:814   */\n  swap1\n  pop\n    /* \"#utility.yul\":694:820   */\n  swap2\n  swap1\n  pop\n  jump\t// out\n    /* \"#utility.yul\":826:922   */\ntag_24:\n    /* \"#utility.yul\":863:870   */\n  0x00\n    /* \"#utility.yul\":892:916   */\n  tag_40\n    /* \"#utility.yul\":910:915   */\n  dup3\n    /* \"#utility.yul\":892:916   */\n  tag_23\n  jump\t// in\ntag_40:\n    /* \"#utility.yul\":881:916   */\n  swap1\n  pop\n    /* \"#utility.yul\":826:922   */\n  swap2\n  swap1\n  pop\n  jump\t// out\n    /* \"#utility.yul\":928:1050   */\ntag_25:\n    /* \"#utility.yul\":1001:1025   */\n  tag_42\n    /* \"#utility.yul\":1019:1024   */\n  dup2\n    /* \"#utility.yul\":1001:1025   */\n  tag_24\n  jump\t// in\ntag_42:\n    /* \"#utility.yul\":994:999   */\n  dup2\n    /* \"#utility.yul\":991:1026   */\n  eq\n    /* \"#utility.yul\":981:1044   */\n  tag_43\n  jumpi\n    /* \"#utility.yul\":1040:1041   */\n  0x00\n    /* \"#utility.yul\":1037:1038   */\n  dup1\n    /* \"#utility.yul\":1030:1042   */\n  revert\n    /* \"#utility.yul\":981:1044   */\ntag_43:\n    /* \"#utility.yul\":928:1050   */\n  pop\n  jump\t// out\n    /* \"#utility.yul\":1056:1199   */\ntag_26:\n    /* \"#utility.yul\":1113:1118   */\n  0x00\n    /* \"#utility.yul\":1144:1150   */\n  dup2\n    /* \"#utility.yul\":1138:1151   */\n  mload\n    /* \"#utility.yul\":1129:1151   */\n  swap1\n  pop\n    /* \"#utility.yul\":1160:1193   */\n  tag_45\n    /* \"#utility.yul\":1187:1192   */\n  dup2\n    /* \"#utility.yul\":1160:1193   */\n  tag_25\n  jump\t// in\ntag_45:\n    /* \"#utility.yul\":1056:1199   */\n  swap3\n  swap2\n  pop\n  pop\n  jump\t// out\n    /* \"#utility.yul\":1205:2182   */\ntag_3:\n    /* \"#utility.yul\":1311:1317   */\n  0x00\n    /* \"#utility.yul\":1319:1325   */\n  dup1\n    /* \"#utility.yul\":1327:1333   */\n  0x00\n    /* \"#utility.yul\":1335:1341   */\n  dup1\n    /* \"#utility.yul\":1343:1349   */\n  0x00\n    /* \"#utility.yul\":1392:1395   */\n  0xa0\n    /* \"#utility.yul\":1380:1389   */\n  dup7\n    /* \"#utility.yul\":1371:1378   */\n  dup9\n    /* \"#utility.yul\":1367:1390   */\n  sub\n    /* \"#utility.yul\":1363:1396   */\n  slt\n    /* \"#utility.yul\":1360:1480   */\n  iszero\n  tag_47\n  jumpi\n    /* \"#utility.yul\":1399:1478   */\n  tag_48\n  tag_18\n  jump\t// in\ntag_48:\n    /* \"#utility.yul\":1360:1480   */\ntag_47:\n    /* \"#utility.yul\":1519:1520   */\n  0x00\n    /* \"#utility.yul\":1544:1608   */\n  tag_49\n    /* \"#utility.yul\":1600:1607   */\n  dup9\n    /* \"#utility.yul\":1591:1597   */\n  dup3\n    /* \"#utility.yul\":1580:1589   */\n  dup10\n    /* \"#utility.yul\":1576:1598   */\n  add\n    /* \"#utility.yul\":1544:1608   */\n  tag_22\n  jump\t// in\ntag_49:\n    /* \"#utility.yul\":1534:1608   */\n  swap6\n  pop\n    /* \"#utility.yul\":1490:1618   */\n  pop\n    /* \"#utility.yul\":1657:1659   */\n  0x20\n    /* \"#utility.yul\":1683:1747   */\n  tag_50\n    /* \"#utility.yul\":1739:1746   */\n  dup9\n    /* \"#utility.yul\":1730:1736   */\n  dup3\n    /* \"#utility.yul\":1719:1728   */\n  dup10\n    /* \"#utility.yul\":1715:1737   */\n  add\n    /* \"#utility.yul\":1683:1747   */\n  tag_22\n  jump\t// in\ntag_50:\n    /* \"#utility.yul\":1673:1747   */\n  swap5\n  pop\n    /* \"#utility.yul\":1628:1757   */\n  pop\n    /* \"#utility.yul\":1796:1798   */\n  0x40\n    /* \"#utility.yul\":1822:1886   */\n  tag_51\n    /* \"#utility.yul\":1878:1885   */\n  dup9\n    /* \"#utility.yul\":1869:1875   */\n  dup3\n    /* \"#utility.yul\":1858:1867   */\n  dup10\n    /* \"#utility.yul\":1854:1876   */\n  add\n    /* \"#utility.yul\":1822:1886   */\n  tag_26\n  jump\t// in\ntag_51:\n    /* \"#utility.yul\":1812:1886   */\n  swap4\n  pop\n    /* \"#utility.yul\":1767:1896   */\n  pop\n    /* \"#utility.yul\":1935:1937   */\n  0x60\n    /* \"#utility.yul\":1961:2025   */\n  tag_52\n    /* \"#utility.yul\":2017:2024   */\n  dup9\n    /* \"#utility.yul\":2008:2014   */\n  dup3\n    /* \"#utility.yul\":1997:2006   */\n  dup10\n    /* \"#utility.yul\":1993:2015   */\n  add\n    /* \"#utility.yul\":1961:2025   */\n  tag_26\n  jump\t// in\ntag_52:\n    /* \"#utility.yul\":1951:2025   */\n  swap3\n  pop\n    /* \"#utility.yul\":1906:2035   */\n  pop\n    /* \"#utility.yul\":2074:2077   */\n  0x80\n    /* \"#utility.yul\":2101:2165   */\n  tag_53\n    /* \"#utility.yul\":2157:2164   */\n  dup9\n    /* \"#utility.yul\":2148:2154   */\n  dup3\n    /* \"#utility.yul\":2137:2146   */\n  dup10\n    /* \"#utility.yul\":2133:2155   */\n  add\n    /* \"#utility.yul\":2101:2165   */\n  tag_26\n  jump\t// in\ntag_53:\n    /* \"#utility.yul\":2091:2165   */\n  swap2\n  pop\n    /* \"#utility.yul\":2045:2175   */\n  pop\n    /* \"#utility.yul\":1205:2182   */\n  swap3\n  swap6\n  pop\n  swap3\n  swap6\n  swap1\n  swap4\n  pop\n  jump\t// out\n    /* \"#utility.yul\":2188:2306   */\ntag_27:\n    /* \"#utility.yul\":2275:2299   */\n  tag_55\n    /* \"#utility.yul\":2293:2298   */\n  dup2\n    /* \"#utility.yul\":2275:2299   */\n  tag_24\n  jump\t// in\ntag_55:\n    /* \"#utility.yul\":2270:2273   */\n  dup3\n    /* \"#utility.yul\":2263:2300   */\n  mstore\n    /* \"#utility.yul\":2188:2306   */\n  pop\n  pop\n  jump\t// out\n    /* \"#utility.yul\":2312:2534   */\ntag_10:\n    /* \"#utility.yul\":2405:2409   */\n  0x00\n    /* \"#utility.yul\":2443:2445   */\n  0x20\n    /* \"#utility.yul\":2432:2441   */\n  dup3\n    /* \"#utility.yul\":2428:2446   */\n  add\n    /* \"#utility.yul\":2420:2446   */\n  swap1\n  pop\n    /* \"#utility.yul\":2456:2527   */\n  tag_57\n    /* \"#utility.yul\":2524:2525   */\n  0x00\n    /* \"#utility.yul\":2513:2522   */\n  dup4\n    /* \"#utility.yul\":2509:2526   */\n  add\n    /* \"#utility.yul\":2500:2506   */\n  dup5\n    /* \"#utility.yul\":2456:2527   */\n  tag_27\n  jump\t// in\ntag_57:\n    /* \"#utility.yul\":2312:2534   */\n  swap3\n  swap2\n  pop\n  pop\n  jump\t// out\n    /* \"03_kipu-bank-v2/contracts/errKipuBankV2.sol\":1253:20549  contract KipuBankV2 is Ownable, ReentrancyGuard {... */\ntag_15:\n  mload(0x80)\n  mload(0xa0)\n  mload(0xc0)\n  codecopy(0x00, dataOffset(sub_0), dataSize(sub_0))\n  0x00\n  assignImmutable(\"0x6304e47846f882085b0f4b1a184252ae95ffe5e2a02daf39c014f492dcb1441c\")\n  0x00\n  assignImmutable(\"0x2e9b7c94e032d8b3b8b30bd825717a5ac74958b53e7c37a892a4fd7dc56e4975\")\n  0x00\n  assignImmutable(\"0x6bcaf047ba4c8ac400fca43393035242dd1aabda2d6068a0c51242b97224de8d\")\n  return(0x00, dataSize(sub_0))\nstop\n\nsub_0: assembly {\n        /* \"03_kipu-bank-v2/contracts/errKipuBankV2.sol\":1253:20549  contract KipuBankV2 is Ownable, ReentrancyGuard {... */\n      mstore(0x40, 0x80)\n      jumpi(tag_1, lt(calldatasize, 0x04))\n      shr(0xe0, calldataload(0x00))\n      dup1\n      0x8da5cb5b\n      gt\n      tag_25\n      jumpi\n      dup1\n      0xd4289d89\n      gt\n      tag_26\n      jumpi\n      dup1\n      0xd4289d89\n      eq\n      tag_19\n      jumpi\n      dup1\n      0xd4b0d3ce\n      eq\n      tag_20\n      jumpi\n      dup1\n      0xdccd58e3\n      eq\n      tag_21\n      jumpi\n      dup1\n      0xe98c6601\n      eq\n      tag_22\n      jumpi\n      dup1\n      0xf2fde38b\n      eq\n      tag_23\n      jumpi\n      dup1\n      0xff40e1d0\n      eq\n      tag_24\n      jumpi\n      jump(tag_1)\n    tag_26:\n      dup1\n      0x8da5cb5b\n      eq\n      tag_13\n      jumpi\n      dup1\n      0xa86b0bf6\n      eq\n      tag_14\n      jumpi\n      dup1\n      0xabc9cd6d\n      eq\n      tag_15\n      jumpi\n      dup1\n      0xb9eb1c9a\n      eq\n      tag_16\n      jumpi\n      dup1\n      0xc3b5bc22\n      eq\n      tag_17\n      jumpi\n      dup1\n      0xd30451e7\n      eq\n      tag_18\n      jumpi\n      jump(tag_1)\n    tag_25:\n      dup1\n      0x31f7d964\n      gt\n      tag_27\n      jumpi\n      dup1\n      0x31f7d964\n      eq\n      tag_7\n      jumpi\n      dup1\n      0x3eaa00fb\n      eq\n      tag_8\n      jumpi\n      dup1\n      0x501cb72d\n      eq\n      tag_9\n      jumpi\n      dup1\n      0x6a5f2407\n      eq\n      tag_10\n      jumpi\n      dup1\n      0x715018a6\n      eq\n      tag_11\n      jumpi\n      dup1\n      0x82fe54b5\n      eq\n      tag_12\n      jumpi\n      jump(tag_1)\n    tag_27:\n      dup1\n      0x0ccee433\n      eq\n      tag_2\n      jumpi\n      dup1\n      0x16a1930f\n      eq\n      tag_3\n      jumpi\n      dup1\n      0x2230c272\n      eq\n      tag_4\n      jumpi\n      dup1\n      0x2b513163\n      eq\n      tag_5\n      jumpi\n      dup1\n      0x2fda583e\n      eq\n      tag_6\n      jumpi\n    tag_1:\n      0x00\n      dup1\n      revert\n        /* \"03_kipu-bank-v2/contracts/errKipuBankV2.sol\":2030:2067  uint256 public immutable i_bankCapUSD */\n    tag_2:\n      callvalue\n      dup1\n      iszero\n      tag_28\n      jumpi\n      0x00\n      dup1\n      revert\n    tag_28:\n      pop\n      tag_29\n      tag_30\n      jump\t// in\n    tag_29:\n      mload(0x40)\n      tag_31\n      swap2\n      swap1\n      tag_32\n      jump\t// in\n    tag_31:\n      mload(0x40)\n      dup1\n      swap2\n      sub\n      swap1\n      return\n        /* \"03_kipu-bank-v2/contracts/errKipuBankV2.sol\":8399:9431  function depositarETH() external payable nonReentrant {... */\n    tag_3:\n      tag_33\n      tag_34\n      jump\t// in\n    tag_33:\n      stop\n        /* \"03_kipu-bank-v2/contracts/errKipuBankV2.sol\":2969:3003  uint256 public s_contadorDepositos */\n    tag_4:\n      callvalue\n      dup1\n      iszero\n      tag_35\n      jumpi\n      0x00\n      dup1\n      revert\n    tag_35:\n      pop\n      tag_36\n      tag_37\n      jump\t// in\n    tag_36:\n      mload(0x40)\n      tag_38\n      swap2\n      swap1\n      tag_32\n      jump\t// in\n    tag_38:\n      mload(0x40)\n      dup1\n      swap2\n      sub\n      swap1\n      return\n        /* \"03_kipu-bank-v2/contracts/errKipuBankV2.sol\":19760:19860  function getUmbralRetiro() external view returns (uint256) {... */\n    tag_5:\n      callvalue\n      dup1\n      iszero\n      tag_39\n      jumpi\n      0x00\n      dup1\n      revert\n    tag_39:\n      pop\n      tag_40\n      tag_41\n      jump\t// in\n    tag_40:\n      mload(0x40)\n      tag_42\n      swap2\n      swap1\n      tag_32\n      jump\t// in\n    tag_42:\n      mload(0x40)\n      dup1\n      swap2\n      sub\n      swap1\n      return\n        /* \"03_kipu-bank-v2/contracts/errKipuBankV2.sol\":2706:2781  mapping(address token => uint256 totalUSD) public s_totalDepositadoPorToken */\n    tag_6:\n      callvalue\n      dup1\n      iszero\n      tag_43\n      jumpi\n      0x00\n      dup1\n      revert\n    tag_43:\n      pop\n      tag_44\n      0x04\n      dup1\n      calldatasize\n      sub\n      dup2\n      add\n      swap1\n      tag_45\n      swap2\n      swap1\n      tag_46\n      jump\t// in\n    tag_45:\n      tag_47\n      jump\t// in\n    tag_44:\n      mload(0x40)\n      tag_48\n      swap2\n      swap1\n      tag_32\n      jump\t// in\n    tag_48:\n      mload(0x40)\n      dup1\n      swap2\n      sub\n      swap1\n      return\n        /* \"03_kipu-bank-v2/contracts/errKipuBankV2.sol\":1570:1619  address public constant NATIVE_TOKEN = address(0) */\n    tag_7:\n      callvalue\n      dup1\n      iszero\n      tag_49\n      jumpi\n      0x00\n      dup1\n      revert\n    tag_49:\n      pop\n      tag_50\n      tag_51\n      jump\t// in\n    tag_50:\n      mload(0x40)\n      tag_52\n      swap2\n      swap1\n      tag_53\n      jump\t// in\n    tag_52:\n      mload(0x40)\n      dup1\n      swap2\n      sub\n      swap1\n      return\n        /* \"03_kipu-bank-v2/contracts/errKipuBankV2.sol\":2143:2185  uint256 public immutable i_umbralRetiroUSD */\n    tag_8:\n      callvalue\n      dup1\n      iszero\n      tag_54\n      jumpi\n      0x00\n      dup1\n      revert\n    tag_54:\n      pop\n      tag_55\n      tag_56\n      jump\t// in\n    tag_55:\n      mload(0x40)\n      tag_57\n      swap2\n      swap1\n      tag_32\n      jump\t// in\n    tag_57:\n      mload(0x40)\n      dup1\n      swap2\n      sub\n      swap1\n      return\n        /* \"03_kipu-bank-v2/contracts/errKipuBankV2.sol\":18165:18461  function consultarBalanceTotalUSD(address _usuario) ... */\n    tag_9:\n      callvalue\n      dup1\n      iszero\n      tag_58\n      jumpi\n      0x00\n      dup1\n      revert\n    tag_58:\n      pop\n      tag_59\n      0x04\n      dup1\n      calldatasize\n      sub\n      dup2\n      add\n      swap1\n      tag_60\n      swap2\n      swap1\n      tag_46\n      jump\t// in\n    tag_60:\n      tag_61\n      jump\t// in\n    tag_59:\n      mload(0x40)\n      tag_62\n      swap2\n      swap1\n      tag_32\n      jump\t// in\n    tag_62:\n      mload(0x40)\n      dup1\n      swap2\n      sub\n      swap1\n      return\n        /* \"03_kipu-bank-v2/contracts/errKipuBankV2.sol\":12525:13769  function retirarToken(address _token, uint256 _amount) ... */\n    tag_10:\n      callvalue\n      dup1\n      iszero\n      tag_63\n      jumpi\n      0x00\n      dup1\n      revert\n    tag_63:\n      pop\n      tag_64\n      0x04\n      dup1\n      calldatasize\n      sub\n      dup2\n      add\n      swap1\n      tag_65\n      swap2\n      swap1\n      tag_66\n      jump\t// in\n    tag_65:\n      tag_67\n      jump\t// in\n    tag_64:\n      stop\n        /* \"@openzeppelin/contracts/access/Ownable.sol\":2293:2394  function renounceOwnership() public virtual onlyOwner {... */\n    tag_11:\n      callvalue\n      dup1\n      iszero\n      tag_68\n      jumpi\n      0x00\n      dup1\n      revert\n    tag_68:\n      pop\n      tag_69\n      tag_70\n      jump\t// in\n    tag_69:\n      stop\n        /* \"03_kipu-bank-v2/contracts/errKipuBankV2.sol\":11069:12260  function retirarETH(uint256 _amountETH) ... */\n    tag_12:\n      callvalue\n      dup1\n      iszero\n      tag_71\n      jumpi\n      0x00\n      dup1\n      revert\n    tag_71:\n      pop\n      tag_72\n      0x04\n      dup1\n      calldatasize\n      sub\n      dup2\n      add\n      swap1\n      tag_73\n      swap2\n      swap1\n      tag_74\n      jump\t// in\n    tag_73:\n      tag_75\n      jump\t// in\n    tag_72:\n      stop\n        /* \"@openzeppelin/contracts/access/Ownable.sol\":1638:1723  function owner() public view virtual returns (address) {... */\n    tag_13:\n      callvalue\n      dup1\n      iszero\n      tag_76\n      jumpi\n      0x00\n      dup1\n      revert\n    tag_76:\n      pop\n      tag_77\n      tag_78\n      jump\t// in\n    tag_77:\n      mload(0x40)\n      tag_79\n      swap2\n      swap1\n      tag_53\n      jump\t// in\n    tag_79:\n      mload(0x40)\n      dup1\n      swap2\n      sub\n      swap1\n      return\n        /* \"03_kipu-bank-v2/contracts/errKipuBankV2.sol\":9750:10862  function depositarToken(address _token, uint256 _amount) ... */\n    tag_14:\n      callvalue\n      dup1\n      iszero\n      tag_80\n      jumpi\n      0x00\n      dup1\n      revert\n    tag_80:\n      pop\n      tag_81\n      0x04\n      dup1\n      calldatasize\n      sub\n      dup2\n      add\n      swap1\n      tag_82\n      swap2\n      swap1\n      tag_66\n      jump\t// in\n    tag_82:\n      tag_83\n      jump\t// in\n    tag_81:\n      stop\n        /* \"03_kipu-bank-v2/contracts/errKipuBankV2.sol\":18992:19705  function consultarEstadoBanco() ... */\n    tag_15:\n      callvalue\n      dup1\n      iszero\n      tag_84\n      jumpi\n      0x00\n      dup1\n      revert\n    tag_84:\n      pop\n      tag_85\n      tag_86\n      jump\t// in\n    tag_85:\n      mload(0x40)\n      tag_87\n      swap8\n      swap7\n      swap6\n      swap5\n      swap4\n      swap3\n      swap2\n      swap1\n      tag_88\n      jump\t// in\n    tag_87:\n      mload(0x40)\n      dup1\n      swap2\n      sub\n      swap1\n      return\n        /* \"03_kipu-bank-v2/contracts/errKipuBankV2.sol\":2438:2479  AggregatorV3Interface public s_ethUsdFeed */\n    tag_16:\n      callvalue\n      dup1\n      iszero\n      tag_89\n      jumpi\n      0x00\n      dup1\n      revert\n    tag_89:\n      pop\n      tag_90\n      tag_91\n      jump\t// in\n    tag_90:\n      mload(0x40)\n      tag_92\n      swap2\n      swap1\n      tag_93\n      jump\t// in\n    tag_92:\n      mload(0x40)\n      dup1\n      swap2\n      sub\n      swap1\n      return\n        /* \"03_kipu-bank-v2/contracts/errKipuBankV2.sol\":17752:17941  function consultarBalance(address _usuario, address _token) ... */\n    tag_17:\n      callvalue\n      dup1\n      iszero\n      tag_94\n      jumpi\n      0x00\n      dup1\n      revert\n    tag_94:\n      pop\n      tag_95\n      0x04\n      dup1\n      calldatasize\n      sub\n      dup2\n      add\n      swap1\n      tag_96\n      swap2\n      swap1\n      tag_97\n      jump\t// in\n    tag_96:\n      tag_98\n      jump\t// in\n    tag_95:\n      mload(0x40)\n      tag_99\n      swap2\n      swap1\n      tag_32\n      jump\t// in\n    tag_99:\n      mload(0x40)\n      dup1\n      swap2\n      sub\n      swap1\n      return\n        /* \"03_kipu-bank-v2/contracts/errKipuBankV2.sol\":14110:14285  function actualizarFeed(address _newFeed) external onlyOwner {... */\n    tag_18:\n      callvalue\n      dup1\n      iszero\n      tag_100\n      jumpi\n      0x00\n      dup1\n      revert\n    tag_100:\n      pop\n      tag_101\n      0x04\n      dup1\n      calldatasize\n      sub\n      dup2\n      add\n      swap1\n      tag_102\n      swap2\n      swap1\n      tag_46\n      jump\t// in\n    tag_102:\n      tag_103\n      jump\t// in\n    tag_101:\n      stop\n        /* \"03_kipu-bank-v2/contracts/errKipuBankV2.sol\":20092:20547  function consultarPrecioETH() ... */\n    tag_19:\n      callvalue\n      dup1\n      iszero\n      tag_104\n      jumpi\n      0x00\n      dup1\n      revert\n    tag_104:\n      pop\n      tag_105\n      tag_106\n      jump\t// in\n    tag_105:\n      mload(0x40)\n      tag_107\n      swap3\n      swap2\n      swap1\n      tag_108\n      jump\t// in\n    tag_107:\n      mload(0x40)\n      dup1\n      swap2\n      sub\n      swap1\n      return\n        /* \"03_kipu-bank-v2/contracts/errKipuBankV2.sol\":3068:3100  uint256 public s_contadorRetiros */\n    tag_20:\n      callvalue\n      dup1\n      iszero\n      tag_109\n      jumpi\n      0x00\n      dup1\n      revert\n    tag_109:\n      pop\n      tag_110\n      tag_111\n      jump\t// in\n    tag_110:\n      mload(0x40)\n      tag_112\n      swap2\n      swap1\n      tag_32\n      jump\t// in\n    tag_112:\n      mload(0x40)\n      dup1\n      swap2\n      sub\n      swap1\n      return\n        /* \"03_kipu-bank-v2/contracts/errKipuBankV2.sol\":2558:2645  mapping(address user => mapping(address token => uint256 balanceUSD)) public s_balances */\n    tag_21:\n      callvalue\n      dup1\n      iszero\n      tag_113\n      jumpi\n      0x00\n      dup1\n      revert\n    tag_113:\n      pop\n      tag_114\n      0x04\n      dup1\n      calldatasize\n      sub\n      dup2\n      add\n      swap1\n      tag_115\n      swap2\n      swap1\n      tag_97\n      jump\t// in\n    tag_115:\n      tag_116\n      jump\t// in\n    tag_114:\n      mload(0x40)\n      tag_117\n      swap2\n      swap1\n      tag_32\n      jump\t// in\n    tag_117:\n      mload(0x40)\n      dup1\n      swap2\n      sub\n      swap1\n      return\n        /* \"03_kipu-bank-v2/contracts/errKipuBankV2.sol\":2866:2901  uint256 public s_totalDepositadoUSD */\n    tag_22:\n      callvalue\n      dup1\n      iszero\n      tag_118\n      jumpi\n      0x00\n      dup1\n      revert\n    tag_118:\n      pop\n      tag_119\n      tag_120\n      jump\t// in\n    tag_119:\n      mload(0x40)\n      tag_121\n      swap2\n      swap1\n      tag_32\n      jump\t// in\n    tag_121:\n      mload(0x40)\n      dup1\n      swap2\n      sub\n      swap1\n      return\n        /* \"@openzeppelin/contracts/access/Ownable.sol\":2543:2758  function transferOwnership(address newOwner) public virtual onlyOwner {... */\n    tag_23:\n      callvalue\n      dup1\n      iszero\n      tag_122\n      jumpi\n      0x00\n      dup1\n      revert\n    tag_122:\n      pop\n      tag_123\n      0x04\n      dup1\n      calldatasize\n      sub\n      dup2\n      add\n      swap1\n      tag_124\n      swap2\n      swap1\n      tag_46\n      jump\t// in\n    tag_124:\n      tag_125\n      jump\t// in\n    tag_123:\n      stop\n        /* \"03_kipu-bank-v2/contracts/errKipuBankV2.sol\":2238:2268  IERC20 public immutable i_usdc */\n    tag_24:\n      callvalue\n      dup1\n      iszero\n      tag_126\n      jumpi\n      0x00\n      dup1\n      revert\n    tag_126:\n      pop\n      tag_127\n      tag_128\n      jump\t// in\n    tag_127:\n      mload(0x40)\n      tag_129\n      swap2\n      swap1\n      tag_130\n      jump\t// in\n    tag_129:\n      mload(0x40)\n      dup1\n      swap2\n      sub\n      swap1\n      return\n        /* \"03_kipu-bank-v2/contracts/errKipuBankV2.sol\":2030:2067  uint256 public immutable i_bankCapUSD */\n    tag_30:\n      immutable(\"0x6bcaf047ba4c8ac400fca43393035242dd1aabda2d6068a0c51242b97224de8d\")\n      dup2\n      jump\t// out\n        /* \"03_kipu-bank-v2/contracts/errKipuBankV2.sol\":8399:9431  function depositarETH() external payable nonReentrant {... */\n    tag_34:\n        /* \"@openzeppelin/contracts/utils/ReentrancyGuard.sol\":2500:2521  _nonReentrantBefore() */\n      tag_132\n        /* \"@openzeppelin/contracts/utils/ReentrancyGuard.sol\":2500:2519  _nonReentrantBefore */\n      tag_133\n        /* \"@openzeppelin/contracts/utils/ReentrancyGuard.sol\":2500:2521  _nonReentrantBefore() */\n      jump\t// in\n    tag_132:\n        /* \"03_kipu-bank-v2/contracts/errKipuBankV2.sol\":8525:8526  0 */\n      0x00\n        /* \"03_kipu-bank-v2/contracts/errKipuBankV2.sol\":8512:8521  msg.value */\n      callvalue\n        /* \"03_kipu-bank-v2/contracts/errKipuBankV2.sol\":8512:8526  msg.value == 0 */\n      sub\n        /* \"03_kipu-bank-v2/contracts/errKipuBankV2.sol\":8508:8570  if (msg.value == 0) revert KipuBankV2_MontoDebeSerMayorACero() */\n      tag_135\n      jumpi\n        /* \"03_kipu-bank-v2/contracts/errKipuBankV2.sol\":8535:8570  KipuBankV2_MontoDebeSerMayorACero() */\n      mload(0x40)\n      0xe729dc6400000000000000000000000000000000000000000000000000000000\n      dup2\n      mstore\n      0x04\n      add\n      mload(0x40)\n      dup1\n      swap2\n      sub\n      swap1\n      revert\n        /* \"03_kipu-bank-v2/contracts/errKipuBankV2.sol\":8508:8570  if (msg.value == 0) revert KipuBankV2_MontoDebeSerMayorACero() */\n    tag_135:\n        /* \"03_kipu-bank-v2/contracts/errKipuBankV2.sol\":8625:8641  uint256 valorUSD */\n      0x00\n        /* \"03_kipu-bank-v2/contracts/errKipuBankV2.sol\":8644:8672  _convertirEthAUsd(msg.value) */\n      tag_136\n        /* \"03_kipu-bank-v2/contracts/errKipuBankV2.sol\":8662:8671  msg.value */\n      callvalue\n        /* \"03_kipu-bank-v2/contracts/errKipuBankV2.sol\":8644:8661  _convertirEthAUsd */\n      tag_137\n        /* \"03_kipu-bank-v2/contracts/errKipuBankV2.sol\":8644:8672  _convertirEthAUsd(msg.value) */\n      jump\t// in\n    tag_136:\n        /* \"03_kipu-bank-v2/contracts/errKipuBankV2.sol\":8625:8672  uint256 valorUSD = _convertirEthAUsd(msg.value) */\n      swap1\n      pop\n        /* \"03_kipu-bank-v2/contracts/errKipuBankV2.sol\":8762:8774  i_bankCapUSD */\n      immutable(\"0x6bcaf047ba4c8ac400fca43393035242dd1aabda2d6068a0c51242b97224de8d\")\n        /* \"03_kipu-bank-v2/contracts/errKipuBankV2.sol\":8751:8759  valorUSD */\n      dup2\n        /* \"03_kipu-bank-v2/contracts/errKipuBankV2.sol\":8728:8748  s_totalDepositadoUSD */\n      sload(0x05)\n        /* \"03_kipu-bank-v2/contracts/errKipuBankV2.sol\":8728:8759  s_totalDepositadoUSD + valorUSD */\n      tag_138\n      swap2\n      swap1\n      tag_139\n      jump\t// in\n    tag_138:\n        /* \"03_kipu-bank-v2/contracts/errKipuBankV2.sol\":8728:8774  s_totalDepositadoUSD + valorUSD > i_bankCapUSD */\n      gt\n        /* \"03_kipu-bank-v2/contracts/errKipuBankV2.sol\":8724:8950  if (s_totalDepositadoUSD + valorUSD > i_bankCapUSD) {... */\n      iszero\n      tag_140\n      jumpi\n        /* \"03_kipu-bank-v2/contracts/errKipuBankV2.sol\":8849:8869  s_totalDepositadoUSD */\n      sload(0x05)\n        /* \"03_kipu-bank-v2/contracts/errKipuBankV2.sol\":8887:8895  valorUSD */\n      dup2\n        /* \"03_kipu-bank-v2/contracts/errKipuBankV2.sol\":8913:8925  i_bankCapUSD */\n      immutable(\"0x6bcaf047ba4c8ac400fca43393035242dd1aabda2d6068a0c51242b97224de8d\")\n        /* \"03_kipu-bank-v2/contracts/errKipuBankV2.sol\":8797:8939  KipuBankV2_LimiteGlobalExcedidoUSD(... */\n      mload(0x40)\n      0xc9fe79b800000000000000000000000000000000000000000000000000000000\n      dup2\n      mstore\n      0x04\n      add\n      tag_141\n      swap4\n      swap3\n      swap2\n      swap1\n      tag_142\n      jump\t// in\n    tag_141:\n      mload(0x40)\n      dup1\n      swap2\n      sub\n      swap1\n      revert\n        /* \"03_kipu-bank-v2/contracts/errKipuBankV2.sol\":8724:8950  if (s_totalDepositadoUSD + valorUSD > i_bankCapUSD) {... */\n    tag_140:\n        /* \"03_kipu-bank-v2/contracts/errKipuBankV2.sol\":9046:9054  valorUSD */\n      dup1\n        /* \"03_kipu-bank-v2/contracts/errKipuBankV2.sol\":9006:9016  s_balances */\n      0x03\n        /* \"03_kipu-bank-v2/contracts/errKipuBankV2.sol\":9006:9028  s_balances[msg.sender] */\n      0x00\n        /* \"03_kipu-bank-v2/contracts/errKipuBankV2.sol\":9017:9027  msg.sender */\n      caller\n        /* \"03_kipu-bank-v2/contracts/errKipuBankV2.sol\":9006:9028  s_balances[msg.sender] */\n      0xffffffffffffffffffffffffffffffffffffffff\n      and\n      0xffffffffffffffffffffffffffffffffffffffff\n      and\n      dup2\n      mstore\n      0x20\n      add\n      swap1\n      dup2\n      mstore\n      0x20\n      add\n      0x00\n      keccak256\n        /* \"03_kipu-bank-v2/contracts/errKipuBankV2.sol\":9006:9042  s_balances[msg.sender][NATIVE_TOKEN] */\n      0x00\n        /* \"03_kipu-bank-v2/contracts/errKipuBankV2.sol\":1617:1618  0 */\n      dup1\n        /* \"03_kipu-bank-v2/contracts/errKipuBankV2.sol\":9006:9042  s_balances[msg.sender][NATIVE_TOKEN] */\n      0xffffffffffffffffffffffffffffffffffffffff\n      and\n      0xffffffffffffffffffffffffffffffffffffffff\n      and\n      dup2\n      mstore\n      0x20\n      add\n      swap1\n      dup2\n      mstore\n      0x20\n      add\n      0x00\n      keccak256\n      0x00\n        /* \"03_kipu-bank-v2/contracts/errKipuBankV2.sol\":9006:9054  s_balances[msg.sender][NATIVE_TOKEN] += valorUSD */\n      dup3\n      dup3\n      sload\n      tag_143\n      swap2\n      swap1\n      tag_139\n      jump\t// in\n    tag_143:\n      swap3\n      pop\n      pop\n      dup2\n      swap1\n      sstore\n      pop\n        /* \"03_kipu-bank-v2/contracts/errKipuBankV2.sol\":9107:9115  valorUSD */\n      dup1\n        /* \"03_kipu-bank-v2/contracts/errKipuBankV2.sol\":9064:9089  s_totalDepositadoPorToken */\n      0x04\n        /* \"03_kipu-bank-v2/contracts/errKipuBankV2.sol\":9064:9103  s_totalDepositadoPorToken[NATIVE_TOKEN] */\n      0x00\n        /* \"03_kipu-bank-v2/contracts/errKipuBankV2.sol\":1617:1618  0 */\n      dup1\n        /* \"03_kipu-bank-v2/contracts/errKipuBankV2.sol\":9064:9103  s_totalDepositadoPorToken[NATIVE_TOKEN] */\n      0xffffffffffffffffffffffffffffffffffffffff\n      and\n      0xffffffffffffffffffffffffffffffffffffffff\n      and\n      dup2\n      mstore\n      0x20\n      add\n      swap1\n      dup2\n      mstore\n      0x20\n      add\n      0x00\n      keccak256\n      0x00\n        /* \"03_kipu-bank-v2/contracts/errKipuBankV2.sol\":9064:9115  s_totalDepositadoPorToken[NATIVE_TOKEN] += valorUSD */\n      dup3\n      dup3\n      sload\n      tag_144\n      swap2\n      swap1\n      tag_139\n      jump\t// in\n    tag_144:\n      swap3\n      pop\n      pop\n      dup2\n      swap1\n      sstore\n      pop\n        /* \"03_kipu-bank-v2/contracts/errKipuBankV2.sol\":9149:9157  valorUSD */\n      dup1\n        /* \"03_kipu-bank-v2/contracts/errKipuBankV2.sol\":9125:9145  s_totalDepositadoUSD */\n      0x05\n      0x00\n        /* \"03_kipu-bank-v2/contracts/errKipuBankV2.sol\":9125:9157  s_totalDepositadoUSD += valorUSD */\n      dup3\n      dup3\n      sload\n      tag_145\n      swap2\n      swap1\n      tag_139\n      jump\t// in\n    tag_145:\n      swap3\n      pop\n      pop\n      dup2\n      swap1\n      sstore\n      pop\n        /* \"03_kipu-bank-v2/contracts/errKipuBankV2.sol\":9167:9186  s_contadorDepositos */\n      0x06\n      0x00\n        /* \"03_kipu-bank-v2/contracts/errKipuBankV2.sol\":9167:9188  s_contadorDepositos++ */\n      dup2\n      sload\n      dup1\n      swap3\n      swap2\n      swap1\n      tag_146\n      swap1\n      tag_147\n      jump\t// in\n    tag_146:\n      swap2\n      swap1\n      pop\n      sstore\n      pop\n        /* \"03_kipu-bank-v2/contracts/errKipuBankV2.sol\":1617:1618  0 */\n      0x00\n        /* \"03_kipu-bank-v2/contracts/errKipuBankV2.sol\":9251:9424  KipuBankV2_DepositoRealizado(... */\n      0xffffffffffffffffffffffffffffffffffffffff\n      and\n        /* \"03_kipu-bank-v2/contracts/errKipuBankV2.sol\":9293:9303  msg.sender */\n      caller\n        /* \"03_kipu-bank-v2/contracts/errKipuBankV2.sol\":9251:9424  KipuBankV2_DepositoRealizado(... */\n      0xffffffffffffffffffffffffffffffffffffffff\n      and\n      0x751f8b54c0e32ef5b9fafdbdac0c93c1994cc8848fa17ed7798bd90aae8bfe9b\n        /* \"03_kipu-bank-v2/contracts/errKipuBankV2.sol\":9343:9352  msg.value */\n      callvalue\n        /* \"03_kipu-bank-v2/contracts/errKipuBankV2.sol\":9385:9393  valorUSD */\n      dup5\n        /* \"03_kipu-bank-v2/contracts/errKipuBankV2.sol\":9251:9424  KipuBankV2_DepositoRealizado(... */\n      mload(0x40)\n      tag_148\n      swap3\n      swap2\n      swap1\n      tag_108\n      jump\t// in\n    tag_148:\n      mload(0x40)\n      dup1\n      swap2\n      sub\n      swap1\n      log3\n        /* \"03_kipu-bank-v2/contracts/errKipuBankV2.sol\":8453:9431  {... */\n      pop\n        /* \"@openzeppelin/contracts/utils/ReentrancyGuard.sol\":2542:2562  _nonReentrantAfter() */\n      tag_149\n        /* \"@openzeppelin/contracts/utils/ReentrancyGuard.sol\":2542:2560  _nonReentrantAfter */\n      tag_150\n        /* \"@openzeppelin/contracts/utils/ReentrancyGuard.sol\":2542:2562  _nonReentrantAfter() */\n      jump\t// in\n    tag_149:\n        /* \"03_kipu-bank-v2/contracts/errKipuBankV2.sol\":8399:9431  function depositarETH() external payable nonReentrant {... */\n      jump\t// out\n        /* \"03_kipu-bank-v2/contracts/errKipuBankV2.sol\":2969:3003  uint256 public s_contadorDepositos */\n    tag_37:\n      sload(0x06)\n      dup2\n      jump\t// out\n        /* \"03_kipu-bank-v2/contracts/errKipuBankV2.sol\":19760:19860  function getUmbralRetiro() external view returns (uint256) {... */\n    tag_41:\n        /* \"03_kipu-bank-v2/contracts/errKipuBankV2.sol\":19810:19817  uint256 */\n      0x00\n        /* \"03_kipu-bank-v2/contracts/errKipuBankV2.sol\":19836:19853  i_umbralRetiroUSD */\n      immutable(\"0x2e9b7c94e032d8b3b8b30bd825717a5ac74958b53e7c37a892a4fd7dc56e4975\")\n        /* \"03_kipu-bank-v2/contracts/errKipuBankV2.sol\":19829:19853  return i_umbralRetiroUSD */\n      swap1\n      pop\n        /* \"03_kipu-bank-v2/contracts/errKipuBankV2.sol\":19760:19860  function getUmbralRetiro() external view returns (uint256) {... */\n      swap1\n      jump\t// out\n        /* \"03_kipu-bank-v2/contracts/errKipuBankV2.sol\":2706:2781  mapping(address token => uint256 totalUSD) public s_totalDepositadoPorToken */\n    tag_47:\n      mstore(0x20, 0x04)\n      dup1\n      0x00\n      mstore\n      keccak256(0x00, 0x40)\n      0x00\n      swap2\n      pop\n      swap1\n      pop\n      sload\n      dup2\n      jump\t// out\n        /* \"03_kipu-bank-v2/contracts/errKipuBankV2.sol\":1570:1619  address public constant NATIVE_TOKEN = address(0) */\n    tag_51:\n        /* \"03_kipu-bank-v2/contracts/errKipuBankV2.sol\":1617:1618  0 */\n      0x00\n        /* \"03_kipu-bank-v2/contracts/errKipuBankV2.sol\":1570:1619  address public constant NATIVE_TOKEN = address(0) */\n      dup2\n      jump\t// out\n        /* \"03_kipu-bank-v2/contracts/errKipuBankV2.sol\":2143:2185  uint256 public immutable i_umbralRetiroUSD */\n    tag_56:\n      immutable(\"0x2e9b7c94e032d8b3b8b30bd825717a5ac74958b53e7c37a892a4fd7dc56e4975\")\n      dup2\n      jump\t// out\n        /* \"03_kipu-bank-v2/contracts/errKipuBankV2.sol\":18165:18461  function consultarBalanceTotalUSD(address _usuario) ... */\n    tag_61:\n        /* \"03_kipu-bank-v2/contracts/errKipuBankV2.sol\":18267:18291  uint256 balanceTotalUSD_ */\n      0x00\n        /* \"03_kipu-bank-v2/contracts/errKipuBankV2.sol\":18417:18427  s_balances */\n      0x03\n        /* \"03_kipu-bank-v2/contracts/errKipuBankV2.sol\":18417:18437  s_balances[_usuario] */\n      0x00\n        /* \"03_kipu-bank-v2/contracts/errKipuBankV2.sol\":18428:18436  _usuario */\n      dup4\n        /* \"03_kipu-bank-v2/contracts/errKipuBankV2.sol\":18417:18437  s_balances[_usuario] */\n      0xffffffffffffffffffffffffffffffffffffffff\n      and\n      0xffffffffffffffffffffffffffffffffffffffff\n      and\n      dup2\n      mstore\n      0x20\n      add\n      swap1\n      dup2\n      mstore\n      0x20\n      add\n      0x00\n      keccak256\n        /* \"03_kipu-bank-v2/contracts/errKipuBankV2.sol\":18417:18454  s_balances[_usuario][address(i_usdc)] */\n      0x00\n        /* \"03_kipu-bank-v2/contracts/errKipuBankV2.sol\":18446:18452  i_usdc */\n      immutable(\"0x6304e47846f882085b0f4b1a184252ae95ffe5e2a02daf39c014f492dcb1441c\")\n        /* \"03_kipu-bank-v2/contracts/errKipuBankV2.sol\":18417:18454  s_balances[_usuario][address(i_usdc)] */\n      0xffffffffffffffffffffffffffffffffffffffff\n      and\n      0xffffffffffffffffffffffffffffffffffffffff\n      and\n      dup2\n      mstore\n      0x20\n      add\n      swap1\n      dup2\n      mstore\n      0x20\n      add\n      0x00\n      keccak256\n      sload\n        /* \"03_kipu-bank-v2/contracts/errKipuBankV2.sol\":18355:18365  s_balances */\n      0x03\n        /* \"03_kipu-bank-v2/contracts/errKipuBankV2.sol\":18355:18375  s_balances[_usuario] */\n      0x00\n        /* \"03_kipu-bank-v2/contracts/errKipuBankV2.sol\":18366:18374  _usuario */\n      dup5\n        /* \"03_kipu-bank-v2/contracts/errKipuBankV2.sol\":18355:18375  s_balances[_usuario] */\n      0xffffffffffffffffffffffffffffffffffffffff\n      and\n      0xffffffffffffffffffffffffffffffffffffffff\n      and\n      dup2\n      mstore\n      0x20\n      add\n      swap1\n      dup2\n      mstore\n      0x20\n      add\n      0x00\n      keccak256\n        /* \"03_kipu-bank-v2/contracts/errKipuBankV2.sol\":18355:18389  s_balances[_usuario][NATIVE_TOKEN] */\n      0x00\n        /* \"03_kipu-bank-v2/contracts/errKipuBankV2.sol\":1617:1618  0 */\n      dup1\n        /* \"03_kipu-bank-v2/contracts/errKipuBankV2.sol\":18355:18389  s_balances[_usuario][NATIVE_TOKEN] */\n      0xffffffffffffffffffffffffffffffffffffffff\n      and\n      0xffffffffffffffffffffffffffffffffffffffff\n      and\n      dup2\n      mstore\n      0x20\n      add\n      swap1\n      dup2\n      mstore\n      0x20\n      add\n      0x00\n      keccak256\n      sload\n        /* \"03_kipu-bank-v2/contracts/errKipuBankV2.sol\":18355:18454  s_balances[_usuario][NATIVE_TOKEN] + ... */\n      tag_153\n      swap2\n      swap1\n      tag_139\n      jump\t// in\n    tag_153:\n        /* \"03_kipu-bank-v2/contracts/errKipuBankV2.sol\":18336:18454  balanceTotalUSD_ = s_balances[_usuario][NATIVE_TOKEN] + ... */\n      swap1\n      pop\n        /* \"03_kipu-bank-v2/contracts/errKipuBankV2.sol\":18165:18461  function consultarBalanceTotalUSD(address _usuario) ... */\n      swap2\n      swap1\n      pop\n      jump\t// out\n        /* \"03_kipu-bank-v2/contracts/errKipuBankV2.sol\":12525:13769  function retirarToken(address _token, uint256 _amount) ... */\n    tag_67:\n        /* \"@openzeppelin/contracts/utils/ReentrancyGuard.sol\":2500:2521  _nonReentrantBefore() */\n      tag_155\n        /* \"@openzeppelin/contracts/utils/ReentrancyGuard.sol\":2500:2519  _nonReentrantBefore */\n      tag_133\n        /* \"@openzeppelin/contracts/utils/ReentrancyGuard.sol\":2500:2521  _nonReentrantBefore() */\n      jump\t// in\n    tag_155:\n        /* \"03_kipu-bank-v2/contracts/errKipuBankV2.sol\":12644:12650  _token */\n      dup2\n        /* \"03_kipu-bank-v2/contracts/errKipuBankV2.sol\":1617:1618  0 */\n      0x00\n        /* \"03_kipu-bank-v2/contracts/errKipuBankV2.sol\":7957:7979  _token != NATIVE_TOKEN */\n      0xffffffffffffffffffffffffffffffffffffffff\n      and\n        /* \"03_kipu-bank-v2/contracts/errKipuBankV2.sol\":7957:7963  _token */\n      dup2\n        /* \"03_kipu-bank-v2/contracts/errKipuBankV2.sol\":7957:7979  _token != NATIVE_TOKEN */\n      0xffffffffffffffffffffffffffffffffffffffff\n      and\n      eq\n      iszero\n        /* \"03_kipu-bank-v2/contracts/errKipuBankV2.sol\":7957:8008  _token != NATIVE_TOKEN && _token != address(i_usdc) */\n      dup1\n      iszero\n      tag_157\n      jumpi\n      pop\n        /* \"03_kipu-bank-v2/contracts/errKipuBankV2.sol\":8001:8007  i_usdc */\n      immutable(\"0x6304e47846f882085b0f4b1a184252ae95ffe5e2a02daf39c014f492dcb1441c\")\n        /* \"03_kipu-bank-v2/contracts/errKipuBankV2.sol\":7983:8008  _token != address(i_usdc) */\n      0xffffffffffffffffffffffffffffffffffffffff\n      and\n        /* \"03_kipu-bank-v2/contracts/errKipuBankV2.sol\":7983:7989  _token */\n      dup2\n        /* \"03_kipu-bank-v2/contracts/errKipuBankV2.sol\":7983:8008  _token != address(i_usdc) */\n      0xffffffffffffffffffffffffffffffffffffffff\n      and\n      eq\n      iszero\n        /* \"03_kipu-bank-v2/contracts/errKipuBankV2.sol\":7957:8008  _token != NATIVE_TOKEN && _token != address(i_usdc) */\n    tag_157:\n        /* \"03_kipu-bank-v2/contracts/errKipuBankV2.sol\":7953:8077  if (_token != NATIVE_TOKEN && _token != address(i_usdc)) {... */\n      iszero\n      tag_158\n      jumpi\n        /* \"03_kipu-bank-v2/contracts/errKipuBankV2.sol\":8059:8065  _token */\n      dup1\n        /* \"03_kipu-bank-v2/contracts/errKipuBankV2.sol\":8031:8066  KipuBankV2_TokenNoSoportado(_token) */\n      mload(0x40)\n      0x2d5c07b900000000000000000000000000000000000000000000000000000000\n      dup2\n      mstore\n      0x04\n      add\n      tag_159\n      swap2\n      swap1\n      tag_53\n      jump\t// in\n    tag_159:\n      mload(0x40)\n      dup1\n      swap2\n      sub\n      swap1\n      revert\n        /* \"03_kipu-bank-v2/contracts/errKipuBankV2.sol\":7953:8077  if (_token != NATIVE_TOKEN && _token != address(i_usdc)) {... */\n    tag_158:\n        /* \"03_kipu-bank-v2/contracts/errKipuBankV2.sol\":12677:12684  _amount */\n      dup2\n        /* \"03_kipu-bank-v2/contracts/errKipuBankV2.sol\":7642:7643  0 */\n      0x00\n        /* \"03_kipu-bank-v2/contracts/errKipuBankV2.sol\":7632:7638  _monto */\n      dup2\n        /* \"03_kipu-bank-v2/contracts/errKipuBankV2.sol\":7632:7643  _monto == 0 */\n      sub\n        /* \"03_kipu-bank-v2/contracts/errKipuBankV2.sol\":7628:7687  if (_monto == 0) revert KipuBankV2_MontoDebeSerMayorACero() */\n      tag_161\n      jumpi\n        /* \"03_kipu-bank-v2/contracts/errKipuBankV2.sol\":7652:7687  KipuBankV2_MontoDebeSerMayorACero() */\n      mload(0x40)\n      0xe729dc6400000000000000000000000000000000000000000000000000000000\n      dup2\n      mstore\n      0x04\n      add\n      mload(0x40)\n      dup1\n      swap2\n      sub\n      swap1\n      revert\n        /* \"03_kipu-bank-v2/contracts/errKipuBankV2.sol\":7628:7687  if (_monto == 0) revert KipuBankV2_MontoDebeSerMayorACero() */\n    tag_161:\n        /* \"03_kipu-bank-v2/contracts/errKipuBankV2.sol\":12728:12744  uint256 valorUSD */\n      0x00\n        /* \"03_kipu-bank-v2/contracts/errKipuBankV2.sol\":12747:12784  _normalizarDecimales(_token, _amount) */\n      tag_163\n        /* \"03_kipu-bank-v2/contracts/errKipuBankV2.sol\":12768:12774  _token */\n      dup6\n        /* \"03_kipu-bank-v2/contracts/errKipuBankV2.sol\":12776:12783  _amount */\n      dup6\n        /* \"03_kipu-bank-v2/contracts/errKipuBankV2.sol\":12747:12767  _normalizarDecimales */\n      tag_164\n        /* \"03_kipu-bank-v2/contracts/errKipuBankV2.sol\":12747:12784  _normalizarDecimales(_token, _amount) */\n      jump\t// in\n    tag_163:\n        /* \"03_kipu-bank-v2/contracts/errKipuBankV2.sol\":12728:12784  uint256 valorUSD = _normalizarDecimales(_token, _amount) */\n      swap1\n      pop\n        /* \"03_kipu-bank-v2/contracts/errKipuBankV2.sol\":12884:12892  valorUSD */\n      dup1\n        /* \"03_kipu-bank-v2/contracts/errKipuBankV2.sol\":12851:12861  s_balances */\n      0x03\n        /* \"03_kipu-bank-v2/contracts/errKipuBankV2.sol\":12851:12873  s_balances[msg.sender] */\n      0x00\n        /* \"03_kipu-bank-v2/contracts/errKipuBankV2.sol\":12862:12872  msg.sender */\n      caller\n        /* \"03_kipu-bank-v2/contracts/errKipuBankV2.sol\":12851:12873  s_balances[msg.sender] */\n      0xffffffffffffffffffffffffffffffffffffffff\n      and\n      0xffffffffffffffffffffffffffffffffffffffff\n      and\n      dup2\n      mstore\n      0x20\n      add\n      swap1\n      dup2\n      mstore\n      0x20\n      add\n      0x00\n      keccak256\n        /* \"03_kipu-bank-v2/contracts/errKipuBankV2.sol\":12851:12881  s_balances[msg.sender][_token] */\n      0x00\n        /* \"03_kipu-bank-v2/contracts/errKipuBankV2.sol\":12874:12880  _token */\n      dup8\n        /* \"03_kipu-bank-v2/contracts/errKipuBankV2.sol\":12851:12881  s_balances[msg.sender][_token] */\n      0xffffffffffffffffffffffffffffffffffffffff\n      and\n      0xffffffffffffffffffffffffffffffffffffffff\n      and\n      dup2\n      mstore\n      0x20\n      add\n      swap1\n      dup2\n      mstore\n      0x20\n      add\n      0x00\n      keccak256\n      sload\n        /* \"03_kipu-bank-v2/contracts/errKipuBankV2.sol\":12851:12892  s_balances[msg.sender][_token] < valorUSD */\n      lt\n        /* \"03_kipu-bank-v2/contracts/errKipuBankV2.sol\":12847:13042  if (s_balances[msg.sender][_token] < valorUSD) {... */\n      iszero\n      tag_165\n      jumpi\n        /* \"03_kipu-bank-v2/contracts/errKipuBankV2.sol\":12961:12971  s_balances */\n      0x03\n        /* \"03_kipu-bank-v2/contracts/errKipuBankV2.sol\":12961:12983  s_balances[msg.sender] */\n      0x00\n        /* \"03_kipu-bank-v2/contracts/errKipuBankV2.sol\":12972:12982  msg.sender */\n      caller\n        /* \"03_kipu-bank-v2/contracts/errKipuBankV2.sol\":12961:12983  s_balances[msg.sender] */\n      0xffffffffffffffffffffffffffffffffffffffff\n      and\n      0xffffffffffffffffffffffffffffffffffffffff\n      and\n      dup2\n      mstore\n      0x20\n      add\n      swap1\n      dup2\n      mstore\n      0x20\n      add\n      0x00\n      keccak256\n        /* \"03_kipu-bank-v2/contracts/errKipuBankV2.sol\":12961:12991  s_balances[msg.sender][_token] */\n      0x00\n        /* \"03_kipu-bank-v2/contracts/errKipuBankV2.sol\":12984:12990  _token */\n      dup7\n        /* \"03_kipu-bank-v2/contracts/errKipuBankV2.sol\":12961:12991  s_balances[msg.sender][_token] */\n      0xffffffffffffffffffffffffffffffffffffffff\n      and\n      0xffffffffffffffffffffffffffffffffffffffff\n      and\n      dup2\n      mstore\n      0x20\n      add\n      swap1\n      dup2\n      mstore\n      0x20\n      add\n      0x00\n      keccak256\n      sload\n        /* \"03_kipu-bank-v2/contracts/errKipuBankV2.sol\":13009:13017  valorUSD */\n      dup2\n        /* \"03_kipu-bank-v2/contracts/errKipuBankV2.sol\":12915:13031  KipuBankV2_SaldoInsuficiente(... */\n      mload(0x40)\n      0x3b28636500000000000000000000000000000000000000000000000000000000\n      dup2\n      mstore\n      0x04\n      add\n      tag_166\n      swap3\n      swap2\n      swap1\n      tag_108\n      jump\t// in\n    tag_166:\n      mload(0x40)\n      dup1\n      swap2\n      sub\n      swap1\n      revert\n        /* \"03_kipu-bank-v2/contracts/errKipuBankV2.sol\":12847:13042  if (s_balances[msg.sender][_token] < valorUSD) {... */\n    tag_165:\n        /* \"03_kipu-bank-v2/contracts/errKipuBankV2.sol\":13119:13136  i_umbralRetiroUSD */\n      immutable(\"0x2e9b7c94e032d8b3b8b30bd825717a5ac74958b53e7c37a892a4fd7dc56e4975\")\n        /* \"03_kipu-bank-v2/contracts/errKipuBankV2.sol\":13108:13116  valorUSD */\n      dup2\n        /* \"03_kipu-bank-v2/contracts/errKipuBankV2.sol\":13108:13136  valorUSD > i_umbralRetiroUSD */\n      gt\n        /* \"03_kipu-bank-v2/contracts/errKipuBankV2.sol\":13104:13228  if (valorUSD > i_umbralRetiroUSD) {... */\n      iszero\n      tag_167\n      jumpi\n        /* \"03_kipu-bank-v2/contracts/errKipuBankV2.sol\":13189:13197  valorUSD */\n      dup1\n        /* \"03_kipu-bank-v2/contracts/errKipuBankV2.sol\":13199:13216  i_umbralRetiroUSD */\n      immutable(\"0x2e9b7c94e032d8b3b8b30bd825717a5ac74958b53e7c37a892a4fd7dc56e4975\")\n        /* \"03_kipu-bank-v2/contracts/errKipuBankV2.sol\":13159:13217  KipuBankV2_RetiroExcedeUmbral(valorUSD, i_umbralRetiroUSD) */\n      mload(0x40)\n      0xd1ecfb7300000000000000000000000000000000000000000000000000000000\n      dup2\n      mstore\n      0x04\n      add\n      tag_168\n      swap3\n      swap2\n      swap1\n      tag_108\n      jump\t// in\n    tag_168:\n      mload(0x40)\n      dup1\n      swap2\n      sub\n      swap1\n      revert\n        /* \"03_kipu-bank-v2/contracts/errKipuBankV2.sol\":13104:13228  if (valorUSD > i_umbralRetiroUSD) {... */\n    tag_167:\n        /* \"03_kipu-bank-v2/contracts/errKipuBankV2.sol\":13318:13326  valorUSD */\n      dup1\n        /* \"03_kipu-bank-v2/contracts/errKipuBankV2.sol\":13284:13294  s_balances */\n      0x03\n        /* \"03_kipu-bank-v2/contracts/errKipuBankV2.sol\":13284:13306  s_balances[msg.sender] */\n      0x00\n        /* \"03_kipu-bank-v2/contracts/errKipuBankV2.sol\":13295:13305  msg.sender */\n      caller\n        /* \"03_kipu-bank-v2/contracts/errKipuBankV2.sol\":13284:13306  s_balances[msg.sender] */\n      0xffffffffffffffffffffffffffffffffffffffff\n      and\n      0xffffffffffffffffffffffffffffffffffffffff\n      and\n      dup2\n      mstore\n      0x20\n      add\n      swap1\n      dup2\n      mstore\n      0x20\n      add\n      0x00\n      keccak256\n        /* \"03_kipu-bank-v2/contracts/errKipuBankV2.sol\":13284:13314  s_balances[msg.sender][_token] */\n      0x00\n        /* \"03_kipu-bank-v2/contracts/errKipuBankV2.sol\":13307:13313  _token */\n      dup8\n        /* \"03_kipu-bank-v2/contracts/errKipuBankV2.sol\":13284:13314  s_balances[msg.sender][_token] */\n      0xffffffffffffffffffffffffffffffffffffffff\n      and\n      0xffffffffffffffffffffffffffffffffffffffff\n      and\n      dup2\n      mstore\n      0x20\n      add\n      swap1\n      dup2\n      mstore\n      0x20\n      add\n      0x00\n      keccak256\n      0x00\n        /* \"03_kipu-bank-v2/contracts/errKipuBankV2.sol\":13284:13326  s_balances[msg.sender][_token] -= valorUSD */\n      dup3\n      dup3\n      sload\n      tag_169\n      swap2\n      swap1\n      tag_170\n      jump\t// in\n    tag_169:\n      swap3\n      pop\n      pop\n      dup2\n      swap1\n      sstore\n      pop\n        /* \"03_kipu-bank-v2/contracts/errKipuBankV2.sol\":13373:13381  valorUSD */\n      dup1\n        /* \"03_kipu-bank-v2/contracts/errKipuBankV2.sol\":13336:13361  s_totalDepositadoPorToken */\n      0x04\n        /* \"03_kipu-bank-v2/contracts/errKipuBankV2.sol\":13336:13369  s_totalDepositadoPorToken[_token] */\n      0x00\n        /* \"03_kipu-bank-v2/contracts/errKipuBankV2.sol\":13362:13368  _token */\n      dup8\n        /* \"03_kipu-bank-v2/contracts/errKipuBankV2.sol\":13336:13369  s_totalDepositadoPorToken[_token] */\n      0xffffffffffffffffffffffffffffffffffffffff\n      and\n      0xffffffffffffffffffffffffffffffffffffffff\n      and\n      dup2\n      mstore\n      0x20\n      add\n      swap1\n      dup2\n      mstore\n      0x20\n      add\n      0x00\n      keccak256\n      0x00\n        /* \"03_kipu-bank-v2/contracts/errKipuBankV2.sol\":13336:13381  s_totalDepositadoPorToken[_token] -= valorUSD */\n      dup3\n      dup3\n      sload\n      tag_171\n      swap2\n      swap1\n      tag_170\n      jump\t// in\n    tag_171:\n      swap3\n      pop\n      pop\n      dup2\n      swap1\n      sstore\n      pop\n        /* \"03_kipu-bank-v2/contracts/errKipuBankV2.sol\":13415:13423  valorUSD */\n      dup1\n        /* \"03_kipu-bank-v2/contracts/errKipuBankV2.sol\":13391:13411  s_totalDepositadoUSD */\n      0x05\n      0x00\n        /* \"03_kipu-bank-v2/contracts/errKipuBankV2.sol\":13391:13423  s_totalDepositadoUSD -= valorUSD */\n      dup3\n      dup3\n      sload\n      tag_172\n      swap2\n      swap1\n      tag_170\n      jump\t// in\n    tag_172:\n      swap3\n      pop\n      pop\n      dup2\n      swap1\n      sstore\n      pop\n        /* \"03_kipu-bank-v2/contracts/errKipuBankV2.sol\":13433:13450  s_contadorRetiros */\n      0x07\n      0x00\n        /* \"03_kipu-bank-v2/contracts/errKipuBankV2.sol\":13433:13452  s_contadorRetiros++ */\n      dup2\n      sload\n      dup1\n      swap3\n      swap2\n      swap1\n      tag_173\n      swap1\n      tag_147\n      jump\t// in\n    tag_173:\n      swap2\n      swap1\n      pop\n      sstore\n      pop\n        /* \"03_kipu-bank-v2/contracts/errKipuBankV2.sol\":13599:13605  _token */\n      dup5\n        /* \"03_kipu-bank-v2/contracts/errKipuBankV2.sol\":13535:13658  KipuBankV2_RetiroRealizado(... */\n      0xffffffffffffffffffffffffffffffffffffffff\n      and\n        /* \"03_kipu-bank-v2/contracts/errKipuBankV2.sol\":13575:13585  msg.sender */\n      caller\n        /* \"03_kipu-bank-v2/contracts/errKipuBankV2.sol\":13535:13658  KipuBankV2_RetiroRealizado(... */\n      0xffffffffffffffffffffffffffffffffffffffff\n      and\n      0xc6acb54bdd58af37c8d1b8bf2f1a561163c5191551bbd6e74cce66ff7b670c77\n        /* \"03_kipu-bank-v2/contracts/errKipuBankV2.sol\":13619:13626  _amount */\n      dup7\n        /* \"03_kipu-bank-v2/contracts/errKipuBankV2.sol\":13640:13648  valorUSD */\n      dup5\n        /* \"03_kipu-bank-v2/contracts/errKipuBankV2.sol\":13535:13658  KipuBankV2_RetiroRealizado(... */\n      mload(0x40)\n      tag_174\n      swap3\n      swap2\n      swap1\n      tag_108\n      jump\t// in\n    tag_174:\n      mload(0x40)\n      dup1\n      swap2\n      sub\n      swap1\n      log3\n        /* \"03_kipu-bank-v2/contracts/errKipuBankV2.sol\":13714:13762  IERC20(_token).safeTransfer(msg.sender, _amount) */\n      tag_175\n        /* \"03_kipu-bank-v2/contracts/errKipuBankV2.sol\":13742:13752  msg.sender */\n      caller\n        /* \"03_kipu-bank-v2/contracts/errKipuBankV2.sol\":13754:13761  _amount */\n      dup6\n        /* \"03_kipu-bank-v2/contracts/errKipuBankV2.sol\":13721:13727  _token */\n      dup8\n        /* \"03_kipu-bank-v2/contracts/errKipuBankV2.sol\":13714:13741  IERC20(_token).safeTransfer */\n      0xffffffffffffffffffffffffffffffffffffffff\n      and\n      tag_176\n      swap1\n        /* \"03_kipu-bank-v2/contracts/errKipuBankV2.sol\":13714:13762  IERC20(_token).safeTransfer(msg.sender, _amount) */\n      swap3\n      swap2\n      swap1\n      0xffffffff\n      and\n      jump\t// in\n    tag_175:\n        /* \"03_kipu-bank-v2/contracts/errKipuBankV2.sol\":12691:13769  {... */\n      pop\n        /* \"03_kipu-bank-v2/contracts/errKipuBankV2.sol\":8086:8087  _ */\n      pop\n        /* \"@openzeppelin/contracts/utils/ReentrancyGuard.sol\":2531:2532  _ */\n      pop\n        /* \"@openzeppelin/contracts/utils/ReentrancyGuard.sol\":2542:2562  _nonReentrantAfter() */\n      tag_177\n        /* \"@openzeppelin/contracts/utils/ReentrancyGuard.sol\":2542:2560  _nonReentrantAfter */\n      tag_150\n        /* \"@openzeppelin/contracts/utils/ReentrancyGuard.sol\":2542:2562  _nonReentrantAfter() */\n      jump\t// in\n    tag_177:\n        /* \"03_kipu-bank-v2/contracts/errKipuBankV2.sol\":12525:13769  function retirarToken(address _token, uint256 _amount) ... */\n      pop\n      pop\n      jump\t// out\n        /* \"@openzeppelin/contracts/access/Ownable.sol\":2293:2394  function renounceOwnership() public virtual onlyOwner {... */\n    tag_70:\n        /* \"@openzeppelin/contracts/access/Ownable.sol\":1531:1544  _checkOwner() */\n      tag_179\n        /* \"@openzeppelin/contracts/access/Ownable.sol\":1531:1542  _checkOwner */\n      tag_180\n        /* \"@openzeppelin/contracts/access/Ownable.sol\":1531:1544  _checkOwner() */\n      jump\t// in\n    tag_179:\n        /* \"@openzeppelin/contracts/access/Ownable.sol\":2357:2387  _transferOwnership(address(0)) */\n      tag_182\n        /* \"@openzeppelin/contracts/access/Ownable.sol\":2384:2385  0 */\n      0x00\n        /* \"@openzeppelin/contracts/access/Ownable.sol\":2357:2375  _transferOwnership */\n      tag_183\n        /* \"@openzeppelin/contracts/access/Ownable.sol\":2357:2387  _transferOwnership(address(0)) */\n      jump\t// in\n    tag_182:\n        /* \"@openzeppelin/contracts/access/Ownable.sol\":2293:2394  function renounceOwnership() public virtual onlyOwner {... */\n      jump\t// out\n        /* \"03_kipu-bank-v2/contracts/errKipuBankV2.sol\":11069:12260  function retirarETH(uint256 _amountETH) ... */\n    tag_75:\n        /* \"@openzeppelin/contracts/utils/ReentrancyGuard.sol\":2500:2521  _nonReentrantBefore() */\n      tag_185\n        /* \"@openzeppelin/contracts/utils/ReentrancyGuard.sol\":2500:2519  _nonReentrantBefore */\n      tag_133\n        /* \"@openzeppelin/contracts/utils/ReentrancyGuard.sol\":2500:2521  _nonReentrantBefore() */\n      jump\t// in\n    tag_185:\n        /* \"03_kipu-bank-v2/contracts/errKipuBankV2.sol\":11174:11184  _amountETH */\n      dup1\n        /* \"03_kipu-bank-v2/contracts/errKipuBankV2.sol\":7642:7643  0 */\n      0x00\n        /* \"03_kipu-bank-v2/contracts/errKipuBankV2.sol\":7632:7638  _monto */\n      dup2\n        /* \"03_kipu-bank-v2/contracts/errKipuBankV2.sol\":7632:7643  _monto == 0 */\n      sub\n        /* \"03_kipu-bank-v2/contracts/errKipuBankV2.sol\":7628:7687  if (_monto == 0) revert KipuBankV2_MontoDebeSerMayorACero() */\n      tag_187\n      jumpi\n        /* \"03_kipu-bank-v2/contracts/errKipuBankV2.sol\":7652:7687  KipuBankV2_MontoDebeSerMayorACero() */\n      mload(0x40)\n      0xe729dc6400000000000000000000000000000000000000000000000000000000\n      dup2\n      mstore\n      0x04\n      add\n      mload(0x40)\n      dup1\n      swap2\n      sub\n      swap1\n      revert\n        /* \"03_kipu-bank-v2/contracts/errKipuBankV2.sol\":7628:7687  if (_monto == 0) revert KipuBankV2_MontoDebeSerMayorACero() */\n    tag_187:\n        /* \"03_kipu-bank-v2/contracts/errKipuBankV2.sol\":11244:11260  uint256 valorUSD */\n      0x00\n        /* \"03_kipu-bank-v2/contracts/errKipuBankV2.sol\":11263:11292  _convertirEthAUsd(_amountETH) */\n      tag_189\n        /* \"03_kipu-bank-v2/contracts/errKipuBankV2.sol\":11281:11291  _amountETH */\n      dup4\n        /* \"03_kipu-bank-v2/contracts/errKipuBankV2.sol\":11263:11280  _convertirEthAUsd */\n      tag_137\n        /* \"03_kipu-bank-v2/contracts/errKipuBankV2.sol\":11263:11292  _convertirEthAUsd(_amountETH) */\n      jump\t// in\n    tag_189:\n        /* \"03_kipu-bank-v2/contracts/errKipuBankV2.sol\":11244:11292  uint256 valorUSD = _convertirEthAUsd(_amountETH) */\n      swap1\n      pop\n        /* \"03_kipu-bank-v2/contracts/errKipuBankV2.sol\":11398:11406  valorUSD */\n      dup1\n        /* \"03_kipu-bank-v2/contracts/errKipuBankV2.sol\":11359:11369  s_balances */\n      0x03\n        /* \"03_kipu-bank-v2/contracts/errKipuBankV2.sol\":11359:11381  s_balances[msg.sender] */\n      0x00\n        /* \"03_kipu-bank-v2/contracts/errKipuBankV2.sol\":11370:11380  msg.sender */\n      caller\n        /* \"03_kipu-bank-v2/contracts/errKipuBankV2.sol\":11359:11381  s_balances[msg.sender] */\n      0xffffffffffffffffffffffffffffffffffffffff\n      and\n      0xffffffffffffffffffffffffffffffffffffffff\n      and\n      dup2\n      mstore\n      0x20\n      add\n      swap1\n      dup2\n      mstore\n      0x20\n      add\n      0x00\n      keccak256\n        /* \"03_kipu-bank-v2/contracts/errKipuBankV2.sol\":11359:11395  s_balances[msg.sender][NATIVE_TOKEN] */\n      0x00\n        /* \"03_kipu-bank-v2/contracts/errKipuBankV2.sol\":1617:1618  0 */\n      dup1\n        /* \"03_kipu-bank-v2/contracts/errKipuBankV2.sol\":11359:11395  s_balances[msg.sender][NATIVE_TOKEN] */\n      0xffffffffffffffffffffffffffffffffffffffff\n      and\n      0xffffffffffffffffffffffffffffffffffffffff\n      and\n      dup2\n      mstore\n      0x20\n      add\n      swap1\n      dup2\n      mstore\n      0x20\n      add\n      0x00\n      keccak256\n      sload\n        /* \"03_kipu-bank-v2/contracts/errKipuBankV2.sol\":11359:11406  s_balances[msg.sender][NATIVE_TOKEN] < valorUSD */\n      lt\n        /* \"03_kipu-bank-v2/contracts/errKipuBankV2.sol\":11355:11562  if (s_balances[msg.sender][NATIVE_TOKEN] < valorUSD) {... */\n      iszero\n      tag_190\n      jumpi\n        /* \"03_kipu-bank-v2/contracts/errKipuBankV2.sol\":11475:11485  s_balances */\n      0x03\n        /* \"03_kipu-bank-v2/contracts/errKipuBankV2.sol\":11475:11497  s_balances[msg.sender] */\n      0x00\n        /* \"03_kipu-bank-v2/contracts/errKipuBankV2.sol\":11486:11496  msg.sender */\n      caller\n        /* \"03_kipu-bank-v2/contracts/errKipuBankV2.sol\":11475:11497  s_balances[msg.sender] */\n      0xffffffffffffffffffffffffffffffffffffffff\n      and\n      0xffffffffffffffffffffffffffffffffffffffff\n      and\n      dup2\n      mstore\n      0x20\n      add\n      swap1\n      dup2\n      mstore\n      0x20\n      add\n      0x00\n      keccak256\n        /* \"03_kipu-bank-v2/contracts/errKipuBankV2.sol\":11475:11511  s_balances[msg.sender][NATIVE_TOKEN] */\n      0x00\n        /* \"03_kipu-bank-v2/contracts/errKipuBankV2.sol\":1617:1618  0 */\n      dup1\n        /* \"03_kipu-bank-v2/contracts/errKipuBankV2.sol\":11475:11511  s_balances[msg.sender][NATIVE_TOKEN] */\n      0xffffffffffffffffffffffffffffffffffffffff\n      and\n      0xffffffffffffffffffffffffffffffffffffffff\n      and\n      dup2\n      mstore\n      0x20\n      add\n      swap1\n      dup2\n      mstore\n      0x20\n      add\n      0x00\n      keccak256\n      sload\n        /* \"03_kipu-bank-v2/contracts/errKipuBankV2.sol\":11529:11537  valorUSD */\n      dup2\n        /* \"03_kipu-bank-v2/contracts/errKipuBankV2.sol\":11429:11551  KipuBankV2_SaldoInsuficiente(... */\n      mload(0x40)\n      0x3b28636500000000000000000000000000000000000000000000000000000000\n      dup2\n      mstore\n      0x04\n      add\n      tag_191\n      swap3\n      swap2\n      swap1\n      tag_108\n      jump\t// in\n    tag_191:\n      mload(0x40)\n      dup1\n      swap2\n      sub\n      swap1\n      revert\n        /* \"03_kipu-bank-v2/contracts/errKipuBankV2.sol\":11355:11562  if (s_balances[msg.sender][NATIVE_TOKEN] < valorUSD) {... */\n    tag_190:\n        /* \"03_kipu-bank-v2/contracts/errKipuBankV2.sol\":11639:11656  i_umbralRetiroUSD */\n      immutable(\"0x2e9b7c94e032d8b3b8b30bd825717a5ac74958b53e7c37a892a4fd7dc56e4975\")\n        /* \"03_kipu-bank-v2/contracts/errKipuBankV2.sol\":11628:11636  valorUSD */\n      dup2\n        /* \"03_kipu-bank-v2/contracts/errKipuBankV2.sol\":11628:11656  valorUSD > i_umbralRetiroUSD */\n      gt\n        /* \"03_kipu-bank-v2/contracts/errKipuBankV2.sol\":11624:11748  if (valorUSD > i_umbralRetiroUSD) {... */\n      iszero\n      tag_192\n      jumpi\n        /* \"03_kipu-bank-v2/contracts/errKipuBankV2.sol\":11709:11717  valorUSD */\n      dup1\n        /* \"03_kipu-bank-v2/contracts/errKipuBankV2.sol\":11719:11736  i_umbralRetiroUSD */\n      immutable(\"0x2e9b7c94e032d8b3b8b30bd825717a5ac74958b53e7c37a892a4fd7dc56e4975\")\n        /* \"03_kipu-bank-v2/contracts/errKipuBankV2.sol\":11679:11737  KipuBankV2_RetiroExcedeUmbral(valorUSD, i_umbralRetiroUSD) */\n      mload(0x40)\n      0xd1ecfb7300000000000000000000000000000000000000000000000000000000\n      dup2\n      mstore\n      0x04\n      add\n      tag_193\n      swap3\n      swap2\n      swap1\n      tag_108\n      jump\t// in\n    tag_193:\n      mload(0x40)\n      dup1\n      swap2\n      sub\n      swap1\n      revert\n        /* \"03_kipu-bank-v2/contracts/errKipuBankV2.sol\":11624:11748  if (valorUSD > i_umbralRetiroUSD) {... */\n    tag_192:\n        /* \"03_kipu-bank-v2/contracts/errKipuBankV2.sol\":11844:11852  valorUSD */\n      dup1\n        /* \"03_kipu-bank-v2/contracts/errKipuBankV2.sol\":11804:11814  s_balances */\n      0x03\n        /* \"03_kipu-bank-v2/contracts/errKipuBankV2.sol\":11804:11826  s_balances[msg.sender] */\n      0x00\n        /* \"03_kipu-bank-v2/contracts/errKipuBankV2.sol\":11815:11825  msg.sender */\n      caller\n        /* \"03_kipu-bank-v2/contracts/errKipuBankV2.sol\":11804:11826  s_balances[msg.sender] */\n      0xffffffffffffffffffffffffffffffffffffffff\n      and\n      0xffffffffffffffffffffffffffffffffffffffff\n      and\n      dup2\n      mstore\n      0x20\n      add\n      swap1\n      dup2\n      mstore\n      0x20\n      add\n      0x00\n      keccak256\n        /* \"03_kipu-bank-v2/contracts/errKipuBankV2.sol\":11804:11840  s_balances[msg.sender][NATIVE_TOKEN] */\n      0x00\n        /* \"03_kipu-bank-v2/contracts/errKipuBankV2.sol\":1617:1618  0 */\n      dup1\n        /* \"03_kipu-bank-v2/contracts/errKipuBankV2.sol\":11804:11840  s_balances[msg.sender][NATIVE_TOKEN] */\n      0xffffffffffffffffffffffffffffffffffffffff\n      and\n      0xffffffffffffffffffffffffffffffffffffffff\n      and\n      dup2\n      mstore\n      0x20\n      add\n      swap1\n      dup2\n      mstore\n      0x20\n      add\n      0x00\n      keccak256\n      0x00\n        /* \"03_kipu-bank-v2/contracts/errKipuBankV2.sol\":11804:11852  s_balances[msg.sender][NATIVE_TOKEN] -= valorUSD */\n      dup3\n      dup3\n      sload\n      tag_194\n      swap2\n      swap1\n      tag_170\n      jump\t// in\n    tag_194:\n      swap3\n      pop\n      pop\n      dup2\n      swap1\n      sstore\n      pop\n        /* \"03_kipu-bank-v2/contracts/errKipuBankV2.sol\":11905:11913  valorUSD */\n      dup1\n        /* \"03_kipu-bank-v2/contracts/errKipuBankV2.sol\":11862:11887  s_totalDepositadoPorToken */\n      0x04\n        /* \"03_kipu-bank-v2/contracts/errKipuBankV2.sol\":11862:11901  s_totalDepositadoPorToken[NATIVE_TOKEN] */\n      0x00\n        /* \"03_kipu-bank-v2/contracts/errKipuBankV2.sol\":1617:1618  0 */\n      dup1\n        /* \"03_kipu-bank-v2/contracts/errKipuBankV2.sol\":11862:11901  s_totalDepositadoPorToken[NATIVE_TOKEN] */\n      0xffffffffffffffffffffffffffffffffffffffff\n      and\n      0xffffffffffffffffffffffffffffffffffffffff\n      and\n      dup2\n      mstore\n      0x20\n      add\n      swap1\n      dup2\n      mstore\n      0x20\n      add\n      0x00\n      keccak256\n      0x00\n        /* \"03_kipu-bank-v2/contracts/errKipuBankV2.sol\":11862:11913  s_totalDepositadoPorToken[NATIVE_TOKEN] -= valorUSD */\n      dup3\n      dup3\n      sload\n      tag_195\n      swap2\n      swap1\n      tag_170\n      jump\t// in\n    tag_195:\n      swap3\n      pop\n      pop\n      dup2\n      swap1\n      sstore\n      pop\n        /* \"03_kipu-bank-v2/contracts/errKipuBankV2.sol\":11947:11955  valorUSD */\n      dup1\n        /* \"03_kipu-bank-v2/contracts/errKipuBankV2.sol\":11923:11943  s_totalDepositadoUSD */\n      0x05\n      0x00\n        /* \"03_kipu-bank-v2/contracts/errKipuBankV2.sol\":11923:11955  s_totalDepositadoUSD -= valorUSD */\n      dup3\n      dup3\n      sload\n      tag_196\n      swap2\n      swap1\n      tag_170\n      jump\t// in\n    tag_196:\n      swap3\n      pop\n      pop\n      dup2\n      swap1\n      sstore\n      pop\n        /* \"03_kipu-bank-v2/contracts/errKipuBankV2.sol\":11965:11982  s_contadorRetiros */\n      0x07\n      0x00\n        /* \"03_kipu-bank-v2/contracts/errKipuBankV2.sol\":11965:11984  s_contadorRetiros++ */\n      dup2\n      sload\n      dup1\n      swap3\n      swap2\n      swap1\n      tag_197\n      swap1\n      tag_147\n      jump\t// in\n    tag_197:\n      swap2\n      swap1\n      pop\n      sstore\n      pop\n        /* \"03_kipu-bank-v2/contracts/errKipuBankV2.sol\":1617:1618  0 */\n      0x00\n        /* \"03_kipu-bank-v2/contracts/errKipuBankV2.sol\":12064:12196  KipuBankV2_RetiroRealizado(... */\n      0xffffffffffffffffffffffffffffffffffffffff\n      and\n        /* \"03_kipu-bank-v2/contracts/errKipuBankV2.sol\":12104:12114  msg.sender */\n      caller\n        /* \"03_kipu-bank-v2/contracts/errKipuBankV2.sol\":12064:12196  KipuBankV2_RetiroRealizado(... */\n      0xffffffffffffffffffffffffffffffffffffffff\n      and\n      0xc6acb54bdd58af37c8d1b8bf2f1a561163c5191551bbd6e74cce66ff7b670c77\n        /* \"03_kipu-bank-v2/contracts/errKipuBankV2.sol\":12154:12164  _amountETH */\n      dup6\n        /* \"03_kipu-bank-v2/contracts/errKipuBankV2.sol\":12178:12186  valorUSD */\n      dup5\n        /* \"03_kipu-bank-v2/contracts/errKipuBankV2.sol\":12064:12196  KipuBankV2_RetiroRealizado(... */\n      mload(0x40)\n      tag_198\n      swap3\n      swap2\n      swap1\n      tag_108\n      jump\t// in\n    tag_198:\n      mload(0x40)\n      dup1\n      swap2\n      sub\n      swap1\n      log3\n        /* \"03_kipu-bank-v2/contracts/errKipuBankV2.sol\":12215:12253  _transferirEth(msg.sender, _amountETH) */\n      tag_199\n        /* \"03_kipu-bank-v2/contracts/errKipuBankV2.sol\":12230:12240  msg.sender */\n      caller\n        /* \"03_kipu-bank-v2/contracts/errKipuBankV2.sol\":12242:12252  _amountETH */\n      dup5\n        /* \"03_kipu-bank-v2/contracts/errKipuBankV2.sol\":12215:12229  _transferirEth */\n      tag_200\n        /* \"03_kipu-bank-v2/contracts/errKipuBankV2.sol\":12215:12253  _transferirEth(msg.sender, _amountETH) */\n      jump\t// in\n    tag_199:\n        /* \"03_kipu-bank-v2/contracts/errKipuBankV2.sol\":11191:12260  {... */\n      pop\n        /* \"@openzeppelin/contracts/utils/ReentrancyGuard.sol\":2531:2532  _ */\n      pop\n        /* \"@openzeppelin/contracts/utils/ReentrancyGuard.sol\":2542:2562  _nonReentrantAfter() */\n      tag_201\n        /* \"@openzeppelin/contracts/utils/ReentrancyGuard.sol\":2542:2560  _nonReentrantAfter */\n      tag_150\n        /* \"@openzeppelin/contracts/utils/ReentrancyGuard.sol\":2542:2562  _nonReentrantAfter() */\n      jump\t// in\n    tag_201:\n        /* \"03_kipu-bank-v2/contracts/errKipuBankV2.sol\":11069:12260  function retirarETH(uint256 _amountETH) ... */\n      pop\n      jump\t// out\n        /* \"@openzeppelin/contracts/access/Ownable.sol\":1638:1723  function owner() public view virtual returns (address) {... */\n    tag_78:\n        /* \"@openzeppelin/contracts/access/Ownable.sol\":1684:1691  address */\n      0x00\n        /* \"@openzeppelin/contracts/access/Ownable.sol\":1710:1716  _owner */\n      dup1\n      0x00\n      swap1\n      sload\n      swap1\n      0x0100\n      exp\n      swap1\n      div\n      0xffffffffffffffffffffffffffffffffffffffff\n      and\n        /* \"@openzeppelin/contracts/access/Ownable.sol\":1703:1716  return _owner */\n      swap1\n      pop\n        /* \"@openzeppelin/contracts/access/Ownable.sol\":1638:1723  function owner() public view virtual returns (address) {... */\n      swap1\n      jump\t// out\n        /* \"03_kipu-bank-v2/contracts/errKipuBankV2.sol\":9750:10862  function depositarToken(address _token, uint256 _amount) ... */\n    tag_83:\n        /* \"@openzeppelin/contracts/utils/ReentrancyGuard.sol\":2500:2521  _nonReentrantBefore() */\n      tag_204\n        /* \"@openzeppelin/contracts/utils/ReentrancyGuard.sol\":2500:2519  _nonReentrantBefore */\n      tag_133\n        /* \"@openzeppelin/contracts/utils/ReentrancyGuard.sol\":2500:2521  _nonReentrantBefore() */\n      jump\t// in\n    tag_204:\n        /* \"03_kipu-bank-v2/contracts/errKipuBankV2.sol\":9871:9877  _token */\n      dup2\n        /* \"03_kipu-bank-v2/contracts/errKipuBankV2.sol\":1617:1618  0 */\n      0x00\n        /* \"03_kipu-bank-v2/contracts/errKipuBankV2.sol\":7957:7979  _token != NATIVE_TOKEN */\n      0xffffffffffffffffffffffffffffffffffffffff\n      and\n        /* \"03_kipu-bank-v2/contracts/errKipuBankV2.sol\":7957:7963  _token */\n      dup2\n        /* \"03_kipu-bank-v2/contracts/errKipuBankV2.sol\":7957:7979  _token != NATIVE_TOKEN */\n      0xffffffffffffffffffffffffffffffffffffffff\n      and\n      eq\n      iszero\n        /* \"03_kipu-bank-v2/contracts/errKipuBankV2.sol\":7957:8008  _token != NATIVE_TOKEN && _token != address(i_usdc) */\n      dup1\n      iszero\n      tag_206\n      jumpi\n      pop\n        /* \"03_kipu-bank-v2/contracts/errKipuBankV2.sol\":8001:8007  i_usdc */\n      immutable(\"0x6304e47846f882085b0f4b1a184252ae95ffe5e2a02daf39c014f492dcb1441c\")\n        /* \"03_kipu-bank-v2/contracts/errKipuBankV2.sol\":7983:8008  _token != address(i_usdc) */\n      0xffffffffffffffffffffffffffffffffffffffff\n      and\n        /* \"03_kipu-bank-v2/contracts/errKipuBankV2.sol\":7983:7989  _token */\n      dup2\n        /* \"03_kipu-bank-v2/contracts/errKipuBankV2.sol\":7983:8008  _token != address(i_usdc) */\n      0xffffffffffffffffffffffffffffffffffffffff\n      and\n      eq\n      iszero\n        /* \"03_kipu-bank-v2/contracts/errKipuBankV2.sol\":7957:8008  _token != NATIVE_TOKEN && _token != address(i_usdc) */\n    tag_206:\n        /* \"03_kipu-bank-v2/contracts/errKipuBankV2.sol\":7953:8077  if (_token != NATIVE_TOKEN && _token != address(i_usdc)) {... */\n      iszero\n      tag_207\n      jumpi\n        /* \"03_kipu-bank-v2/contracts/errKipuBankV2.sol\":8059:8065  _token */\n      dup1\n        /* \"03_kipu-bank-v2/contracts/errKipuBankV2.sol\":8031:8066  KipuBankV2_TokenNoSoportado(_token) */\n      mload(0x40)\n      0x2d5c07b900000000000000000000000000000000000000000000000000000000\n      dup2\n      mstore\n      0x04\n      add\n      tag_208\n      swap2\n      swap1\n      tag_53\n      jump\t// in\n    tag_208:\n      mload(0x40)\n      dup1\n      swap2\n      sub\n      swap1\n      revert\n        /* \"03_kipu-bank-v2/contracts/errKipuBankV2.sol\":7953:8077  if (_token != NATIVE_TOKEN && _token != address(i_usdc)) {... */\n    tag_207:\n        /* \"03_kipu-bank-v2/contracts/errKipuBankV2.sol\":9904:9911  _amount */\n      dup2\n        /* \"03_kipu-bank-v2/contracts/errKipuBankV2.sol\":7642:7643  0 */\n      0x00\n        /* \"03_kipu-bank-v2/contracts/errKipuBankV2.sol\":7632:7638  _monto */\n      dup2\n        /* \"03_kipu-bank-v2/contracts/errKipuBankV2.sol\":7632:7643  _monto == 0 */\n      sub\n        /* \"03_kipu-bank-v2/contracts/errKipuBankV2.sol\":7628:7687  if (_monto == 0) revert KipuBankV2_MontoDebeSerMayorACero() */\n      tag_210\n      jumpi\n        /* \"03_kipu-bank-v2/contracts/errKipuBankV2.sol\":7652:7687  KipuBankV2_MontoDebeSerMayorACero() */\n      mload(0x40)\n      0xe729dc6400000000000000000000000000000000000000000000000000000000\n      dup2\n      mstore\n      0x04\n      add\n      mload(0x40)\n      dup1\n      swap2\n      sub\n      swap1\n      revert\n        /* \"03_kipu-bank-v2/contracts/errKipuBankV2.sol\":7628:7687  if (_monto == 0) revert KipuBankV2_MontoDebeSerMayorACero() */\n    tag_210:\n        /* \"03_kipu-bank-v2/contracts/errKipuBankV2.sol\":10000:10016  uint256 valorUSD */\n      0x00\n        /* \"03_kipu-bank-v2/contracts/errKipuBankV2.sol\":10019:10056  _normalizarDecimales(_token, _amount) */\n      tag_212\n        /* \"03_kipu-bank-v2/contracts/errKipuBankV2.sol\":10040:10046  _token */\n      dup6\n        /* \"03_kipu-bank-v2/contracts/errKipuBankV2.sol\":10048:10055  _amount */\n      dup6\n        /* \"03_kipu-bank-v2/contracts/errKipuBankV2.sol\":10019:10039  _normalizarDecimales */\n      tag_164\n        /* \"03_kipu-bank-v2/contracts/errKipuBankV2.sol\":10019:10056  _normalizarDecimales(_token, _amount) */\n      jump\t// in\n    tag_212:\n        /* \"03_kipu-bank-v2/contracts/errKipuBankV2.sol\":10000:10056  uint256 valorUSD = _normalizarDecimales(_token, _amount) */\n      swap1\n      pop\n        /* \"03_kipu-bank-v2/contracts/errKipuBankV2.sol\":10147:10159  i_bankCapUSD */\n      immutable(\"0x6bcaf047ba4c8ac400fca43393035242dd1aabda2d6068a0c51242b97224de8d\")\n        /* \"03_kipu-bank-v2/contracts/errKipuBankV2.sol\":10136:10144  valorUSD */\n      dup2\n        /* \"03_kipu-bank-v2/contracts/errKipuBankV2.sol\":10113:10133  s_totalDepositadoUSD */\n      sload(0x05)\n        /* \"03_kipu-bank-v2/contracts/errKipuBankV2.sol\":10113:10144  s_totalDepositadoUSD + valorUSD */\n      tag_213\n      swap2\n      swap1\n      tag_139\n      jump\t// in\n    tag_213:\n        /* \"03_kipu-bank-v2/contracts/errKipuBankV2.sol\":10113:10159  s_totalDepositadoUSD + valorUSD > i_bankCapUSD */\n      gt\n        /* \"03_kipu-bank-v2/contracts/errKipuBankV2.sol\":10109:10335  if (s_totalDepositadoUSD + valorUSD > i_bankCapUSD) {... */\n      iszero\n      tag_214\n      jumpi\n        /* \"03_kipu-bank-v2/contracts/errKipuBankV2.sol\":10234:10254  s_totalDepositadoUSD */\n      sload(0x05)\n        /* \"03_kipu-bank-v2/contracts/errKipuBankV2.sol\":10272:10280  valorUSD */\n      dup2\n        /* \"03_kipu-bank-v2/contracts/errKipuBankV2.sol\":10298:10310  i_bankCapUSD */\n      immutable(\"0x6bcaf047ba4c8ac400fca43393035242dd1aabda2d6068a0c51242b97224de8d\")\n        /* \"03_kipu-bank-v2/contracts/errKipuBankV2.sol\":10182:10324  KipuBankV2_LimiteGlobalExcedidoUSD(... */\n      mload(0x40)\n      0xc9fe79b800000000000000000000000000000000000000000000000000000000\n      dup2\n      mstore\n      0x04\n      add\n      tag_215\n      swap4\n      swap3\n      swap2\n      swap1\n      tag_142\n      jump\t// in\n    tag_215:\n      mload(0x40)\n      dup1\n      swap2\n      sub\n      swap1\n      revert\n        /* \"03_kipu-bank-v2/contracts/errKipuBankV2.sol\":10109:10335  if (s_totalDepositadoUSD + valorUSD > i_bankCapUSD) {... */\n    tag_214:\n        /* \"03_kipu-bank-v2/contracts/errKipuBankV2.sol\":10425:10433  valorUSD */\n      dup1\n        /* \"03_kipu-bank-v2/contracts/errKipuBankV2.sol\":10391:10401  s_balances */\n      0x03\n        /* \"03_kipu-bank-v2/contracts/errKipuBankV2.sol\":10391:10413  s_balances[msg.sender] */\n      0x00\n        /* \"03_kipu-bank-v2/contracts/errKipuBankV2.sol\":10402:10412  msg.sender */\n      caller\n        /* \"03_kipu-bank-v2/contracts/errKipuBankV2.sol\":10391:10413  s_balances[msg.sender] */\n      0xffffffffffffffffffffffffffffffffffffffff\n      and\n      0xffffffffffffffffffffffffffffffffffffffff\n      and\n      dup2\n      mstore\n      0x20\n      add\n      swap1\n      dup2\n      mstore\n      0x20\n      add\n      0x00\n      keccak256\n        /* \"03_kipu-bank-v2/contracts/errKipuBankV2.sol\":10391:10421  s_balances[msg.sender][_token] */\n      0x00\n        /* \"03_kipu-bank-v2/contracts/errKipuBankV2.sol\":10414:10420  _token */\n      dup8\n        /* \"03_kipu-bank-v2/contracts/errKipuBankV2.sol\":10391:10421  s_balances[msg.sender][_token] */\n      0xffffffffffffffffffffffffffffffffffffffff\n      and\n      0xffffffffffffffffffffffffffffffffffffffff\n      and\n      dup2\n      mstore\n      0x20\n      add\n      swap1\n      dup2\n      mstore\n      0x20\n      add\n      0x00\n      keccak256\n      0x00\n        /* \"03_kipu-bank-v2/contracts/errKipuBankV2.sol\":10391:10433  s_balances[msg.sender][_token] += valorUSD */\n      dup3\n      dup3\n      sload\n      tag_216\n      swap2\n      swap1\n      tag_139\n      jump\t// in\n    tag_216:\n      swap3\n      pop\n      pop\n      dup2\n      swap1\n      sstore\n      pop\n        /* \"03_kipu-bank-v2/contracts/errKipuBankV2.sol\":10480:10488  valorUSD */\n      dup1\n        /* \"03_kipu-bank-v2/contracts/errKipuBankV2.sol\":10443:10468  s_totalDepositadoPorToken */\n      0x04\n        /* \"03_kipu-bank-v2/contracts/errKipuBankV2.sol\":10443:10476  s_totalDepositadoPorToken[_token] */\n      0x00\n        /* \"03_kipu-bank-v2/contracts/errKipuBankV2.sol\":10469:10475  _token */\n      dup8\n        /* \"03_kipu-bank-v2/contracts/errKipuBankV2.sol\":10443:10476  s_totalDepositadoPorToken[_token] */\n      0xffffffffffffffffffffffffffffffffffffffff\n      and\n      0xffffffffffffffffffffffffffffffffffffffff\n      and\n      dup2\n      mstore\n      0x20\n      add\n      swap1\n      dup2\n      mstore\n      0x20\n      add\n      0x00\n      keccak256\n      0x00\n        /* \"03_kipu-bank-v2/contracts/errKipuBankV2.sol\":10443:10488  s_totalDepositadoPorToken[_token] += valorUSD */\n      dup3\n      dup3\n      sload\n      tag_217\n      swap2\n      swap1\n      tag_139\n      jump\t// in\n    tag_217:\n      swap3\n      pop\n      pop\n      dup2\n      swap1\n      sstore\n      pop\n        /* \"03_kipu-bank-v2/contracts/errKipuBankV2.sol\":10522:10530  valorUSD */\n      dup1\n        /* \"03_kipu-bank-v2/contracts/errKipuBankV2.sol\":10498:10518  s_totalDepositadoUSD */\n      0x05\n      0x00\n        /* \"03_kipu-bank-v2/contracts/errKipuBankV2.sol\":10498:10530  s_totalDepositadoUSD += valorUSD */\n      dup3\n      dup3\n      sload\n      tag_218\n      swap2\n      swap1\n      tag_139\n      jump\t// in\n    tag_218:\n      swap3\n      pop\n      pop\n      dup2\n      swap1\n      sstore\n      pop\n        /* \"03_kipu-bank-v2/contracts/errKipuBankV2.sol\":10540:10559  s_contadorDepositos */\n      0x06\n      0x00\n        /* \"03_kipu-bank-v2/contracts/errKipuBankV2.sol\":10540:10561  s_contadorDepositos++ */\n      dup2\n      sload\n      dup1\n      swap3\n      swap2\n      swap1\n      tag_219\n      swap1\n      tag_147\n      jump\t// in\n    tag_219:\n      swap2\n      swap1\n      pop\n      sstore\n      pop\n        /* \"03_kipu-bank-v2/contracts/errKipuBankV2.sol\":10710:10716  _token */\n      dup5\n        /* \"03_kipu-bank-v2/contracts/errKipuBankV2.sol\":10644:10769  KipuBankV2_DepositoRealizado(... */\n      0xffffffffffffffffffffffffffffffffffffffff\n      and\n        /* \"03_kipu-bank-v2/contracts/errKipuBankV2.sol\":10686:10696  msg.sender */\n      caller\n        /* \"03_kipu-bank-v2/contracts/errKipuBankV2.sol\":10644:10769  KipuBankV2_DepositoRealizado(... */\n      0xffffffffffffffffffffffffffffffffffffffff\n      and\n      0x751f8b54c0e32ef5b9fafdbdac0c93c1994cc8848fa17ed7798bd90aae8bfe9b\n        /* \"03_kipu-bank-v2/contracts/errKipuBankV2.sol\":10730:10737  _amount */\n      dup7\n        /* \"03_kipu-bank-v2/contracts/errKipuBankV2.sol\":10751:10759  valorUSD */\n      dup5\n        /* \"03_kipu-bank-v2/contracts/errKipuBankV2.sol\":10644:10769  KipuBankV2_DepositoRealizado(... */\n      mload(0x40)\n      tag_220\n      swap3\n      swap2\n      swap1\n      tag_108\n      jump\t// in\n    tag_220:\n      mload(0x40)\n      dup1\n      swap2\n      sub\n      swap1\n      log3\n        /* \"03_kipu-bank-v2/contracts/errKipuBankV2.sol\":10788:10855  IERC20(_token).safeTransferFrom(msg.sender, address(this), _amount) */\n      tag_221\n        /* \"03_kipu-bank-v2/contracts/errKipuBankV2.sol\":10820:10830  msg.sender */\n      caller\n        /* \"03_kipu-bank-v2/contracts/errKipuBankV2.sol\":10840:10844  this */\n      address\n        /* \"03_kipu-bank-v2/contracts/errKipuBankV2.sol\":10847:10854  _amount */\n      dup7\n        /* \"03_kipu-bank-v2/contracts/errKipuBankV2.sol\":10795:10801  _token */\n      dup9\n        /* \"03_kipu-bank-v2/contracts/errKipuBankV2.sol\":10788:10819  IERC20(_token).safeTransferFrom */\n      0xffffffffffffffffffffffffffffffffffffffff\n      and\n      tag_222\n      swap1\n        /* \"03_kipu-bank-v2/contracts/errKipuBankV2.sol\":10788:10855  IERC20(_token).safeTransferFrom(msg.sender, address(this), _amount) */\n      swap4\n      swap3\n      swap2\n      swap1\n      0xffffffff\n      and\n      jump\t// in\n    tag_221:\n        /* \"03_kipu-bank-v2/contracts/errKipuBankV2.sol\":9918:10862  {... */\n      pop\n        /* \"03_kipu-bank-v2/contracts/errKipuBankV2.sol\":8086:8087  _ */\n      pop\n        /* \"@openzeppelin/contracts/utils/ReentrancyGuard.sol\":2531:2532  _ */\n      pop\n        /* \"@openzeppelin/contracts/utils/ReentrancyGuard.sol\":2542:2562  _nonReentrantAfter() */\n      tag_223\n        /* \"@openzeppelin/contracts/utils/ReentrancyGuard.sol\":2542:2560  _nonReentrantAfter */\n      tag_150\n        /* \"@openzeppelin/contracts/utils/ReentrancyGuard.sol\":2542:2562  _nonReentrantAfter() */\n      jump\t// in\n    tag_223:\n        /* \"03_kipu-bank-v2/contracts/errKipuBankV2.sol\":9750:10862  function depositarToken(address _token, uint256 _amount) ... */\n      pop\n      pop\n      jump\t// out\n        /* \"03_kipu-bank-v2/contracts/errKipuBankV2.sol\":18992:19705  function consultarEstadoBanco() ... */\n    tag_86:\n        /* \"03_kipu-bank-v2/contracts/errKipuBankV2.sol\":19087:19114  uint256 totalDepositadoUSD_ */\n      0x00\n        /* \"03_kipu-bank-v2/contracts/errKipuBankV2.sol\":19128:19145  uint256 totalETH_ */\n      dup1\n        /* \"03_kipu-bank-v2/contracts/errKipuBankV2.sol\":19159:19177  uint256 totalUSDC_ */\n      0x00\n        /* \"03_kipu-bank-v2/contracts/errKipuBankV2.sol\":19191:19217  uint256 contadorDepositos_ */\n      dup1\n        /* \"03_kipu-bank-v2/contracts/errKipuBankV2.sol\":19231:19255  uint256 contadorRetiros_ */\n      0x00\n        /* \"03_kipu-bank-v2/contracts/errKipuBankV2.sol\":19269:19288  uint256 bankCapUSD_ */\n      dup1\n        /* \"03_kipu-bank-v2/contracts/errKipuBankV2.sol\":19302:19326  uint256 umbralRetiroUSD_ */\n      0x00\n        /* \"03_kipu-bank-v2/contracts/errKipuBankV2.sol\":19374:19394  s_totalDepositadoUSD */\n      sload(0x05)\n        /* \"03_kipu-bank-v2/contracts/errKipuBankV2.sol\":19352:19394  totalDepositadoUSD_ = s_totalDepositadoUSD */\n      swap7\n      pop\n        /* \"03_kipu-bank-v2/contracts/errKipuBankV2.sol\":19416:19441  s_totalDepositadoPorToken */\n      0x04\n        /* \"03_kipu-bank-v2/contracts/errKipuBankV2.sol\":19416:19455  s_totalDepositadoPorToken[NATIVE_TOKEN] */\n      0x00\n        /* \"03_kipu-bank-v2/contracts/errKipuBankV2.sol\":1617:1618  0 */\n      dup1\n        /* \"03_kipu-bank-v2/contracts/errKipuBankV2.sol\":19416:19455  s_totalDepositadoPorToken[NATIVE_TOKEN] */\n      0xffffffffffffffffffffffffffffffffffffffff\n      and\n      0xffffffffffffffffffffffffffffffffffffffff\n      and\n      dup2\n      mstore\n      0x20\n      add\n      swap1\n      dup2\n      mstore\n      0x20\n      add\n      0x00\n      keccak256\n      sload\n        /* \"03_kipu-bank-v2/contracts/errKipuBankV2.sol\":19404:19455  totalETH_ = s_totalDepositadoPorToken[NATIVE_TOKEN] */\n      swap6\n      pop\n        /* \"03_kipu-bank-v2/contracts/errKipuBankV2.sol\":19478:19503  s_totalDepositadoPorToken */\n      0x04\n        /* \"03_kipu-bank-v2/contracts/errKipuBankV2.sol\":19478:19520  s_totalDepositadoPorToken[address(i_usdc)] */\n      0x00\n        /* \"03_kipu-bank-v2/contracts/errKipuBankV2.sol\":19512:19518  i_usdc */\n      immutable(\"0x6304e47846f882085b0f4b1a184252ae95ffe5e2a02daf39c014f492dcb1441c\")\n        /* \"03_kipu-bank-v2/contracts/errKipuBankV2.sol\":19478:19520  s_totalDepositadoPorToken[address(i_usdc)] */\n      0xffffffffffffffffffffffffffffffffffffffff\n      and\n      0xffffffffffffffffffffffffffffffffffffffff\n      and\n      dup2\n      mstore\n      0x20\n      add\n      swap1\n      dup2\n      mstore\n      0x20\n      add\n      0x00\n      keccak256\n      sload\n        /* \"03_kipu-bank-v2/contracts/errKipuBankV2.sol\":19465:19520  totalUSDC_ = s_totalDepositadoPorToken[address(i_usdc)] */\n      swap5\n      pop\n        /* \"03_kipu-bank-v2/contracts/errKipuBankV2.sol\":19551:19570  s_contadorDepositos */\n      sload(0x06)\n        /* \"03_kipu-bank-v2/contracts/errKipuBankV2.sol\":19530:19570  contadorDepositos_ = s_contadorDepositos */\n      swap4\n      pop\n        /* \"03_kipu-bank-v2/contracts/errKipuBankV2.sol\":19599:19616  s_contadorRetiros */\n      sload(0x07)\n        /* \"03_kipu-bank-v2/contracts/errKipuBankV2.sol\":19580:19616  contadorRetiros_ = s_contadorRetiros */\n      swap3\n      pop\n        /* \"03_kipu-bank-v2/contracts/errKipuBankV2.sol\":19640:19652  i_bankCapUSD */\n      immutable(\"0x6bcaf047ba4c8ac400fca43393035242dd1aabda2d6068a0c51242b97224de8d\")\n        /* \"03_kipu-bank-v2/contracts/errKipuBankV2.sol\":19626:19652  bankCapUSD_ = i_bankCapUSD */\n      swap2\n      pop\n        /* \"03_kipu-bank-v2/contracts/errKipuBankV2.sol\":19681:19698  i_umbralRetiroUSD */\n      immutable(\"0x2e9b7c94e032d8b3b8b30bd825717a5ac74958b53e7c37a892a4fd7dc56e4975\")\n        /* \"03_kipu-bank-v2/contracts/errKipuBankV2.sol\":19662:19698  umbralRetiroUSD_ = i_umbralRetiroUSD */\n      swap1\n      pop\n        /* \"03_kipu-bank-v2/contracts/errKipuBankV2.sol\":18992:19705  function consultarEstadoBanco() ... */\n      swap1\n      swap2\n      swap3\n      swap4\n      swap5\n      swap6\n      swap7\n      jump\t// out\n        /* \"03_kipu-bank-v2/contracts/errKipuBankV2.sol\":2438:2479  AggregatorV3Interface public s_ethUsdFeed */\n    tag_91:\n      0x02\n      0x00\n      swap1\n      sload\n      swap1\n      0x0100\n      exp\n      swap1\n      div\n      0xffffffffffffffffffffffffffffffffffffffff\n      and\n      dup2\n      jump\t// out\n        /* \"03_kipu-bank-v2/contracts/errKipuBankV2.sol\":17752:17941  function consultarBalance(address _usuario, address _token) ... */\n    tag_98:\n        /* \"03_kipu-bank-v2/contracts/errKipuBankV2.sol\":17862:17878  uint256 balance_ */\n      0x00\n        /* \"03_kipu-bank-v2/contracts/errKipuBankV2.sol\":17906:17916  s_balances */\n      0x03\n        /* \"03_kipu-bank-v2/contracts/errKipuBankV2.sol\":17906:17926  s_balances[_usuario] */\n      0x00\n        /* \"03_kipu-bank-v2/contracts/errKipuBankV2.sol\":17917:17925  _usuario */\n      dup5\n        /* \"03_kipu-bank-v2/contracts/errKipuBankV2.sol\":17906:17926  s_balances[_usuario] */\n      0xffffffffffffffffffffffffffffffffffffffff\n      and\n      0xffffffffffffffffffffffffffffffffffffffff\n      and\n      dup2\n      mstore\n      0x20\n      add\n      swap1\n      dup2\n      mstore\n      0x20\n      add\n      0x00\n      keccak256\n        /* \"03_kipu-bank-v2/contracts/errKipuBankV2.sol\":17906:17934  s_balances[_usuario][_token] */\n      0x00\n        /* \"03_kipu-bank-v2/contracts/errKipuBankV2.sol\":17927:17933  _token */\n      dup4\n        /* \"03_kipu-bank-v2/contracts/errKipuBankV2.sol\":17906:17934  s_balances[_usuario][_token] */\n      0xffffffffffffffffffffffffffffffffffffffff\n      and\n      0xffffffffffffffffffffffffffffffffffffffff\n      and\n      dup2\n      mstore\n      0x20\n      add\n      swap1\n      dup2\n      mstore\n      0x20\n      add\n      0x00\n      keccak256\n      sload\n        /* \"03_kipu-bank-v2/contracts/errKipuBankV2.sol\":17895:17934  balance_ = s_balances[_usuario][_token] */\n      swap1\n      pop\n        /* \"03_kipu-bank-v2/contracts/errKipuBankV2.sol\":17752:17941  function consultarBalance(address _usuario, address _token) ... */\n      swap3\n      swap2\n      pop\n      pop\n      jump\t// out\n        /* \"03_kipu-bank-v2/contracts/errKipuBankV2.sol\":14110:14285  function actualizarFeed(address _newFeed) external onlyOwner {... */\n    tag_103:\n        /* \"@openzeppelin/contracts/access/Ownable.sol\":1531:1544  _checkOwner() */\n      tag_227\n        /* \"@openzeppelin/contracts/access/Ownable.sol\":1531:1542  _checkOwner */\n      tag_180\n        /* \"@openzeppelin/contracts/access/Ownable.sol\":1531:1544  _checkOwner() */\n      jump\t// in\n    tag_227:\n        /* \"03_kipu-bank-v2/contracts/errKipuBankV2.sol\":14218:14226  _newFeed */\n      dup1\n        /* \"03_kipu-bank-v2/contracts/errKipuBankV2.sol\":14181:14193  s_ethUsdFeed */\n      0x02\n      0x00\n        /* \"03_kipu-bank-v2/contracts/errKipuBankV2.sol\":14181:14227  s_ethUsdFeed = AggregatorV3Interface(_newFeed) */\n      0x0100\n      exp\n      dup2\n      sload\n      dup2\n      0xffffffffffffffffffffffffffffffffffffffff\n      mul\n      not\n      and\n      swap1\n      dup4\n      0xffffffffffffffffffffffffffffffffffffffff\n      and\n      mul\n      or\n      swap1\n      sstore\n      pop\n        /* \"03_kipu-bank-v2/contracts/errKipuBankV2.sol\":14269:14277  _newFeed */\n      dup1\n        /* \"03_kipu-bank-v2/contracts/errKipuBankV2.sol\":14242:14278  KipuBankV2_FeedActualizado(_newFeed) */\n      0xffffffffffffffffffffffffffffffffffffffff\n      and\n      0x2b87a7a05493a7865dadc5afbb6cedfda3c32f20196d8f45314afa7b32b94012\n      mload(0x40)\n      mload(0x40)\n      dup1\n      swap2\n      sub\n      swap1\n      log2\n        /* \"03_kipu-bank-v2/contracts/errKipuBankV2.sol\":14110:14285  function actualizarFeed(address _newFeed) external onlyOwner {... */\n      pop\n      jump\t// out\n        /* \"03_kipu-bank-v2/contracts/errKipuBankV2.sol\":20092:20547  function consultarPrecioETH() ... */\n    tag_106:\n        /* \"03_kipu-bank-v2/contracts/errKipuBankV2.sol\":20172:20190  uint256 precioETH_ */\n      0x00\n        /* \"03_kipu-bank-v2/contracts/errKipuBankV2.sol\":20192:20220  uint256 ultimaActualizacion_ */\n      dup1\n        /* \"03_kipu-bank-v2/contracts/errKipuBankV2.sol\":20285:20298  int256 answer */\n      0x00\n        /* \"03_kipu-bank-v2/contracts/errKipuBankV2.sol\":20349:20366  uint256 updatedAt */\n      dup1\n        /* \"03_kipu-bank-v2/contracts/errKipuBankV2.sol\":20421:20433  s_ethUsdFeed */\n      0x02\n      0x00\n      swap1\n      sload\n      swap1\n      0x0100\n      exp\n      swap1\n      div\n      0xffffffffffffffffffffffffffffffffffffffff\n      and\n        /* \"03_kipu-bank-v2/contracts/errKipuBankV2.sol\":20421:20449  s_ethUsdFeed.latestRoundData */\n      0xffffffffffffffffffffffffffffffffffffffff\n      and\n      0xfeaf968c\n        /* \"03_kipu-bank-v2/contracts/errKipuBankV2.sol\":20421:20451  s_ethUsdFeed.latestRoundData() */\n      mload(0x40)\n      dup2\n      0xffffffff\n      and\n      0xe0\n      shl\n      dup2\n      mstore\n      0x04\n      add\n      0xa0\n      mload(0x40)\n      dup1\n      dup4\n      sub\n      dup2\n      dup7\n      gas\n      staticcall\n      iszero\n      dup1\n      iszero\n      tag_231\n      jumpi\n      returndatasize\n      0x00\n      dup1\n      returndatacopy\n      revert(0x00, returndatasize)\n    tag_231:\n      pop\n      pop\n      pop\n      pop\n      mload(0x40)\n      returndatasize\n      not(0x1f)\n      0x1f\n      dup3\n      add\n      and\n      dup3\n      add\n      dup1\n      0x40\n      mstore\n      pop\n      dup2\n      add\n      swap1\n      tag_232\n      swap2\n      swap1\n      tag_233\n      jump\t// in\n    tag_232:\n        /* \"03_kipu-bank-v2/contracts/errKipuBankV2.sol\":20237:20451  (... */\n      pop\n      swap4\n      pop\n      pop\n      swap3\n      pop\n      pop\n        /* \"03_kipu-bank-v2/contracts/errKipuBankV2.sol\":20491:20497  answer */\n      dup2\n        /* \"03_kipu-bank-v2/contracts/errKipuBankV2.sol\":20470:20498  precioETH_ = uint256(answer) */\n      swap4\n      pop\n        /* \"03_kipu-bank-v2/contracts/errKipuBankV2.sol\":20531:20540  updatedAt */\n      dup1\n        /* \"03_kipu-bank-v2/contracts/errKipuBankV2.sol\":20508:20540  ultimaActualizacion_ = updatedAt */\n      swap3\n      pop\n        /* \"03_kipu-bank-v2/contracts/errKipuBankV2.sol\":20227:20547  {... */\n      pop\n      pop\n        /* \"03_kipu-bank-v2/contracts/errKipuBankV2.sol\":20092:20547  function consultarPrecioETH() ... */\n      swap1\n      swap2\n      jump\t// out\n        /* \"03_kipu-bank-v2/contracts/errKipuBankV2.sol\":3068:3100  uint256 public s_contadorRetiros */\n    tag_111:\n      sload(0x07)\n      dup2\n      jump\t// out\n        /* \"03_kipu-bank-v2/contracts/errKipuBankV2.sol\":2558:2645  mapping(address user => mapping(address token => uint256 balanceUSD)) public s_balances */\n    tag_116:\n      mstore(0x20, 0x03)\n      dup2\n      0x00\n      mstore\n      mstore(0x20, keccak256(0x00, 0x40))\n      dup1\n      0x00\n      mstore\n      keccak256(0x00, 0x40)\n      0x00\n      swap2\n      pop\n      swap2\n      pop\n      pop\n      sload\n      dup2\n      jump\t// out\n        /* \"03_kipu-bank-v2/contracts/errKipuBankV2.sol\":2866:2901  uint256 public s_totalDepositadoUSD */\n    tag_120:\n      sload(0x05)\n      dup2\n      jump\t// out\n        /* \"@openzeppelin/contracts/access/Ownable.sol\":2543:2758  function transferOwnership(address newOwner) public virtual onlyOwner {... */\n    tag_125:\n        /* \"@openzeppelin/contracts/access/Ownable.sol\":1531:1544  _checkOwner() */\n      tag_235\n        /* \"@openzeppelin/contracts/access/Ownable.sol\":1531:1542  _checkOwner */\n      tag_180\n        /* \"@openzeppelin/contracts/access/Ownable.sol\":1531:1544  _checkOwner() */\n      jump\t// in\n    tag_235:\n        /* \"@openzeppelin/contracts/access/Ownable.sol\":2647:2648  0 */\n      0x00\n        /* \"@openzeppelin/contracts/access/Ownable.sol\":2627:2649  newOwner == address(0) */\n      0xffffffffffffffffffffffffffffffffffffffff\n      and\n        /* \"@openzeppelin/contracts/access/Ownable.sol\":2627:2635  newOwner */\n      dup2\n        /* \"@openzeppelin/contracts/access/Ownable.sol\":2627:2649  newOwner == address(0) */\n      0xffffffffffffffffffffffffffffffffffffffff\n      and\n      sub\n        /* \"@openzeppelin/contracts/access/Ownable.sol\":2623:2714  if (newOwner == address(0)) {... */\n      tag_237\n      jumpi\n        /* \"@openzeppelin/contracts/access/Ownable.sol\":2700:2701  0 */\n      0x00\n        /* \"@openzeppelin/contracts/access/Ownable.sol\":2672:2703  OwnableInvalidOwner(address(0)) */\n      mload(0x40)\n      0x1e4fbdf700000000000000000000000000000000000000000000000000000000\n      dup2\n      mstore\n      0x04\n      add\n      tag_238\n      swap2\n      swap1\n      tag_53\n      jump\t// in\n    tag_238:\n      mload(0x40)\n      dup1\n      swap2\n      sub\n      swap1\n      revert\n        /* \"@openzeppelin/contracts/access/Ownable.sol\":2623:2714  if (newOwner == address(0)) {... */\n    tag_237:\n        /* \"@openzeppelin/contracts/access/Ownable.sol\":2723:2751  _transferOwnership(newOwner) */\n      tag_239\n        /* \"@openzeppelin/contracts/access/Ownable.sol\":2742:2750  newOwner */\n      dup2\n        /* \"@openzeppelin/contracts/access/Ownable.sol\":2723:2741  _transferOwnership */\n      tag_183\n        /* \"@openzeppelin/contracts/access/Ownable.sol\":2723:2751  _transferOwnership(newOwner) */\n      jump\t// in\n    tag_239:\n        /* \"@openzeppelin/contracts/access/Ownable.sol\":2543:2758  function transferOwnership(address newOwner) public virtual onlyOwner {... */\n      pop\n      jump\t// out\n        /* \"03_kipu-bank-v2/contracts/errKipuBankV2.sol\":2238:2268  IERC20 public immutable i_usdc */\n    tag_128:\n      immutable(\"0x6304e47846f882085b0f4b1a184252ae95ffe5e2a02daf39c014f492dcb1441c\")\n      dup2\n      jump\t// out\n        /* \"@openzeppelin/contracts/utils/ReentrancyGuard.sol\":2575:2882  function _nonReentrantBefore() private {... */\n    tag_133:\n        /* \"@openzeppelin/contracts/utils/ReentrancyGuard.sol\":1899:1900  2 */\n      0x02\n        /* \"@openzeppelin/contracts/utils/ReentrancyGuard.sol\":2702:2709  _status */\n      sload(0x01)\n        /* \"@openzeppelin/contracts/utils/ReentrancyGuard.sol\":2702:2720  _status == ENTERED */\n      sub\n        /* \"@openzeppelin/contracts/utils/ReentrancyGuard.sol\":2698:2784  if (_status == ENTERED) {... */\n      tag_241\n      jumpi\n        /* \"@openzeppelin/contracts/utils/ReentrancyGuard.sol\":2743:2773  ReentrancyGuardReentrantCall() */\n      mload(0x40)\n      0x3ee5aeb500000000000000000000000000000000000000000000000000000000\n      dup2\n      mstore\n      0x04\n      add\n      mload(0x40)\n      dup1\n      swap2\n      sub\n      swap1\n      revert\n        /* \"@openzeppelin/contracts/utils/ReentrancyGuard.sol\":2698:2784  if (_status == ENTERED) {... */\n    tag_241:\n        /* \"@openzeppelin/contracts/utils/ReentrancyGuard.sol\":1899:1900  2 */\n      0x02\n        /* \"@openzeppelin/contracts/utils/ReentrancyGuard.sol\":2858:2865  _status */\n      0x01\n        /* \"@openzeppelin/contracts/utils/ReentrancyGuard.sol\":2858:2875  _status = ENTERED */\n      dup2\n      swap1\n      sstore\n      pop\n        /* \"@openzeppelin/contracts/utils/ReentrancyGuard.sol\":2575:2882  function _nonReentrantBefore() private {... */\n      jump\t// out\n        /* \"03_kipu-bank-v2/contracts/errKipuBankV2.sol\":14632:14875  function _convertirEthAUsd(uint256 _ethAmount) internal view returns (uint256 valorUSD_) {... */\n    tag_137:\n        /* \"03_kipu-bank-v2/contracts/errKipuBankV2.sol\":14702:14719  uint256 valorUSD_ */\n      0x00\n        /* \"03_kipu-bank-v2/contracts/errKipuBankV2.sol\":14731:14748  uint256 precioEth */\n      dup1\n        /* \"03_kipu-bank-v2/contracts/errKipuBankV2.sol\":14751:14770  _obtenerPrecioEth() */\n      tag_243\n        /* \"03_kipu-bank-v2/contracts/errKipuBankV2.sol\":14751:14768  _obtenerPrecioEth */\n      tag_244\n        /* \"03_kipu-bank-v2/contracts/errKipuBankV2.sol\":14751:14770  _obtenerPrecioEth() */\n      jump\t// in\n    tag_243:\n        /* \"03_kipu-bank-v2/contracts/errKipuBankV2.sol\":14731:14770  uint256 precioEth = _obtenerPrecioEth() */\n      swap1\n      pop\n        /* \"03_kipu-bank-v2/contracts/errKipuBankV2.sol\":14864:14868  1e20 */\n      0x056bc75e2d63100000\n        /* \"03_kipu-bank-v2/contracts/errKipuBankV2.sol\":14851:14860  precioEth */\n      dup2\n        /* \"03_kipu-bank-v2/contracts/errKipuBankV2.sol\":14838:14848  _ethAmount */\n      dup5\n        /* \"03_kipu-bank-v2/contracts/errKipuBankV2.sol\":14838:14860  _ethAmount * precioEth */\n      tag_245\n      swap2\n      swap1\n      tag_246\n      jump\t// in\n    tag_245:\n        /* \"03_kipu-bank-v2/contracts/errKipuBankV2.sol\":14837:14868  (_ethAmount * precioEth) / 1e20 */\n      tag_247\n      swap2\n      swap1\n      tag_248\n      jump\t// in\n    tag_247:\n        /* \"03_kipu-bank-v2/contracts/errKipuBankV2.sol\":14825:14868  valorUSD_ = (_ethAmount * precioEth) / 1e20 */\n      swap2\n      pop\n        /* \"03_kipu-bank-v2/contracts/errKipuBankV2.sol\":14721:14875  {... */\n      pop\n        /* \"03_kipu-bank-v2/contracts/errKipuBankV2.sol\":14632:14875  function _convertirEthAUsd(uint256 _ethAmount) internal view returns (uint256 valorUSD_) {... */\n      swap2\n      swap1\n      pop\n      jump\t// out\n        /* \"@openzeppelin/contracts/utils/ReentrancyGuard.sol\":2888:3096  function _nonReentrantAfter() private {... */\n    tag_150:\n        /* \"@openzeppelin/contracts/utils/ReentrancyGuard.sol\":1857:1858  1 */\n      0x01\n        /* \"@openzeppelin/contracts/utils/ReentrancyGuard.sol\":3068:3075  _status */\n      dup1\n        /* \"@openzeppelin/contracts/utils/ReentrancyGuard.sol\":3068:3089  _status = NOT_ENTERED */\n      dup2\n      swap1\n      sstore\n      pop\n        /* \"@openzeppelin/contracts/utils/ReentrancyGuard.sol\":2888:3096  function _nonReentrantAfter() private {... */\n      jump\t// out\n        /* \"03_kipu-bank-v2/contracts/errKipuBankV2.sol\":15179:15704  function _normalizarDecimales(address _token, uint256 _amount) ... */\n    tag_164:\n        /* \"03_kipu-bank-v2/contracts/errKipuBankV2.sol\":15292:15317  uint256 valorNormalizado_ */\n      0x00\n        /* \"03_kipu-bank-v2/contracts/errKipuBankV2.sol\":15399:15405  i_usdc */\n      immutable(\"0x6304e47846f882085b0f4b1a184252ae95ffe5e2a02daf39c014f492dcb1441c\")\n        /* \"03_kipu-bank-v2/contracts/errKipuBankV2.sol\":15381:15406  _token == address(i_usdc) */\n      0xffffffffffffffffffffffffffffffffffffffff\n      and\n        /* \"03_kipu-bank-v2/contracts/errKipuBankV2.sol\":15381:15387  _token */\n      dup4\n        /* \"03_kipu-bank-v2/contracts/errKipuBankV2.sol\":15381:15406  _token == address(i_usdc) */\n      0xffffffffffffffffffffffffffffffffffffffff\n      and\n      sub\n        /* \"03_kipu-bank-v2/contracts/errKipuBankV2.sol\":15377:15698  if (_token == address(i_usdc)) {... */\n      tag_251\n      jumpi\n        /* \"03_kipu-bank-v2/contracts/errKipuBankV2.sol\":15442:15449  _amount */\n      dup2\n        /* \"03_kipu-bank-v2/contracts/errKipuBankV2.sol\":15422:15449  valorNormalizado_ = _amount */\n      swap1\n      pop\n        /* \"03_kipu-bank-v2/contracts/errKipuBankV2.sol\":15377:15698  if (_token == address(i_usdc)) {... */\n      jump(tag_252)\n    tag_251:\n        /* \"03_kipu-bank-v2/contracts/errKipuBankV2.sol\":15680:15686  _token */\n      dup3\n        /* \"03_kipu-bank-v2/contracts/errKipuBankV2.sol\":15652:15687  KipuBankV2_TokenNoSoportado(_token) */\n      mload(0x40)\n      0x2d5c07b900000000000000000000000000000000000000000000000000000000\n      dup2\n      mstore\n      0x04\n      add\n      tag_253\n      swap2\n      swap1\n      tag_53\n      jump\t// in\n    tag_253:\n      mload(0x40)\n      dup1\n      swap2\n      sub\n      swap1\n      revert\n        /* \"03_kipu-bank-v2/contracts/errKipuBankV2.sol\":15377:15698  if (_token == address(i_usdc)) {... */\n    tag_252:\n        /* \"03_kipu-bank-v2/contracts/errKipuBankV2.sol\":15179:15704  function _normalizarDecimales(address _token, uint256 _amount) ... */\n      swap3\n      swap2\n      pop\n      pop\n      jump\t// out\n        /* \"@openzeppelin/contracts/token/ERC20/utils/SafeERC20.sol\":1219:1379  function safeTransfer(IERC20 token, address to, uint256 value) internal {... */\n    tag_176:\n        /* \"@openzeppelin/contracts/token/ERC20/utils/SafeERC20.sol\":1301:1372  _callOptionalReturn(token, abi.encodeCall(token.transfer, (to, value))) */\n      tag_255\n        /* \"@openzeppelin/contracts/token/ERC20/utils/SafeERC20.sol\":1321:1326  token */\n      dup4\n        /* \"@openzeppelin/contracts/token/ERC20/utils/SafeERC20.sol\":1343:1348  token */\n      dup5\n        /* \"@openzeppelin/contracts/token/ERC20/utils/SafeERC20.sol\":1343:1357  token.transfer */\n      0xffffffffffffffffffffffffffffffffffffffff\n      and\n      0xa9059cbb\n        /* \"@openzeppelin/contracts/token/ERC20/utils/SafeERC20.sol\":1360:1362  to */\n      dup6\n        /* \"@openzeppelin/contracts/token/ERC20/utils/SafeERC20.sol\":1364:1369  value */\n      dup6\n        /* \"@openzeppelin/contracts/token/ERC20/utils/SafeERC20.sol\":1328:1371  abi.encodeCall(token.transfer, (to, value)) */\n      add(0x24, mload(0x40))\n      tag_256\n      swap3\n      swap2\n      swap1\n      tag_257\n      jump\t// in\n    tag_256:\n      mload(0x40)\n      0x20\n      dup2\n      dup4\n      sub\n      sub\n      dup2\n      mstore\n      swap1\n      0x40\n      mstore\n      swap2\n      pop\n      0xe0\n      shl\n      0x20\n      dup3\n      add\n      dup1\n      mload\n      0xffffffffffffffffffffffffffffffffffffffffffffffffffffffff\n      dup4\n      dup2\n      dup4\n      and\n      or\n      dup4\n      mstore\n      pop\n      pop\n      pop\n      pop\n        /* \"@openzeppelin/contracts/token/ERC20/utils/SafeERC20.sol\":1301:1320  _callOptionalReturn */\n      tag_258\n        /* \"@openzeppelin/contracts/token/ERC20/utils/SafeERC20.sol\":1301:1372  _callOptionalReturn(token, abi.encodeCall(token.transfer, (to, value))) */\n      jump\t// in\n    tag_255:\n        /* \"@openzeppelin/contracts/token/ERC20/utils/SafeERC20.sol\":1219:1379  function safeTransfer(IERC20 token, address to, uint256 value) internal {... */\n      pop\n      pop\n      pop\n      jump\t// out\n        /* \"@openzeppelin/contracts/access/Ownable.sol\":1796:1958  function _checkOwner() internal view virtual {... */\n    tag_180:\n        /* \"@openzeppelin/contracts/access/Ownable.sol\":1866:1878  _msgSender() */\n      tag_260\n        /* \"@openzeppelin/contracts/access/Ownable.sol\":1866:1876  _msgSender */\n      tag_261\n        /* \"@openzeppelin/contracts/access/Ownable.sol\":1866:1878  _msgSender() */\n      jump\t// in\n    tag_260:\n        /* \"@openzeppelin/contracts/access/Ownable.sol\":1855:1878  owner() != _msgSender() */\n      0xffffffffffffffffffffffffffffffffffffffff\n      and\n        /* \"@openzeppelin/contracts/access/Ownable.sol\":1855:1862  owner() */\n      tag_262\n        /* \"@openzeppelin/contracts/access/Ownable.sol\":1855:1860  owner */\n      tag_78\n        /* \"@openzeppelin/contracts/access/Ownable.sol\":1855:1862  owner() */\n      jump\t// in\n    tag_262:\n        /* \"@openzeppelin/contracts/access/Ownable.sol\":1855:1878  owner() != _msgSender() */\n      0xffffffffffffffffffffffffffffffffffffffff\n      and\n      eq\n        /* \"@openzeppelin/contracts/access/Ownable.sol\":1851:1952  if (owner() != _msgSender()) {... */\n      tag_263\n      jumpi\n        /* \"@openzeppelin/contracts/access/Ownable.sol\":1928:1940  _msgSender() */\n      tag_264\n        /* \"@openzeppelin/contracts/access/Ownable.sol\":1928:1938  _msgSender */\n      tag_261\n        /* \"@openzeppelin/contracts/access/Ownable.sol\":1928:1940  _msgSender() */\n      jump\t// in\n    tag_264:\n        /* \"@openzeppelin/contracts/access/Ownable.sol\":1901:1941  OwnableUnauthorizedAccount(_msgSender()) */\n      mload(0x40)\n      0x118cdaa700000000000000000000000000000000000000000000000000000000\n      dup2\n      mstore\n      0x04\n      add\n      tag_265\n      swap2\n      swap1\n      tag_53\n      jump\t// in\n    tag_265:\n      mload(0x40)\n      dup1\n      swap2\n      sub\n      swap1\n      revert\n        /* \"@openzeppelin/contracts/access/Ownable.sol\":1851:1952  if (owner() != _msgSender()) {... */\n    tag_263:\n        /* \"@openzeppelin/contracts/access/Ownable.sol\":1796:1958  function _checkOwner() internal view virtual {... */\n      jump\t// out\n        /* \"@openzeppelin/contracts/access/Ownable.sol\":2912:3099  function _transferOwnership(address newOwner) internal virtual {... */\n    tag_183:\n        /* \"@openzeppelin/contracts/access/Ownable.sol\":2985:3001  address oldOwner */\n      0x00\n        /* \"@openzeppelin/contracts/access/Ownable.sol\":3004:3010  _owner */\n      dup1\n      0x00\n      swap1\n      sload\n      swap1\n      0x0100\n      exp\n      swap1\n      div\n      0xffffffffffffffffffffffffffffffffffffffff\n      and\n        /* \"@openzeppelin/contracts/access/Ownable.sol\":2985:3010  address oldOwner = _owner */\n      swap1\n      pop\n        /* \"@openzeppelin/contracts/access/Ownable.sol\":3029:3037  newOwner */\n      dup2\n        /* \"@openzeppelin/contracts/access/Ownable.sol\":3020:3026  _owner */\n      0x00\n      dup1\n        /* \"@openzeppelin/contracts/access/Ownable.sol\":3020:3037  _owner = newOwner */\n      0x0100\n      exp\n      dup2\n      sload\n      dup2\n      0xffffffffffffffffffffffffffffffffffffffff\n      mul\n      not\n      and\n      swap1\n      dup4\n      0xffffffffffffffffffffffffffffffffffffffff\n      and\n      mul\n      or\n      swap1\n      sstore\n      pop\n        /* \"@openzeppelin/contracts/access/Ownable.sol\":3083:3091  newOwner */\n      dup2\n        /* \"@openzeppelin/contracts/access/Ownable.sol\":3052:3092  OwnershipTransferred(oldOwner, newOwner) */\n      0xffffffffffffffffffffffffffffffffffffffff\n      and\n        /* \"@openzeppelin/contracts/access/Ownable.sol\":3073:3081  oldOwner */\n      dup2\n        /* \"@openzeppelin/contracts/access/Ownable.sol\":3052:3092  OwnershipTransferred(oldOwner, newOwner) */\n      0xffffffffffffffffffffffffffffffffffffffff\n      and\n      0x8be0079c531659141344cd1fd0a4f28419497f9722a3daafe3b4186f6b6457e0\n      mload(0x40)\n      mload(0x40)\n      dup1\n      swap2\n      sub\n      swap1\n      log3\n        /* \"@openzeppelin/contracts/access/Ownable.sol\":2975:3099  {... */\n      pop\n        /* \"@openzeppelin/contracts/access/Ownable.sol\":2912:3099  function _transferOwnership(address newOwner) internal virtual {... */\n      pop\n      jump\t// out\n        /* \"03_kipu-bank-v2/contracts/errKipuBankV2.sol\":17159:17380  function _transferirEth(address _destinatario, uint256 _monto) private {... */\n    tag_200:\n        /* \"03_kipu-bank-v2/contracts/errKipuBankV2.sol\":17241:17253  bool success */\n      0x00\n        /* \"03_kipu-bank-v2/contracts/errKipuBankV2.sol\":17259:17272  _destinatario */\n      dup3\n        /* \"03_kipu-bank-v2/contracts/errKipuBankV2.sol\":17259:17277  _destinatario.call */\n      0xffffffffffffffffffffffffffffffffffffffff\n      and\n        /* \"03_kipu-bank-v2/contracts/errKipuBankV2.sol\":17285:17291  _monto */\n      dup3\n        /* \"03_kipu-bank-v2/contracts/errKipuBankV2.sol\":17259:17296  _destinatario.call{value: _monto}(\"\") */\n      mload(0x40)\n      tag_268\n      swap1\n      tag_269\n      jump\t// in\n    tag_268:\n      0x00\n      mload(0x40)\n      dup1\n      dup4\n      sub\n      dup2\n      dup6\n      dup8\n      gas\n      call\n      swap3\n      pop\n      pop\n      pop\n      returndatasize\n      dup1\n      0x00\n      dup2\n      eq\n      tag_272\n      jumpi\n      mload(0x40)\n      swap2\n      pop\n      and(add(returndatasize, 0x3f), not(0x1f))\n      dup3\n      add\n      0x40\n      mstore\n      returndatasize\n      dup3\n      mstore\n      returndatasize\n      0x00\n      0x20\n      dup5\n      add\n      returndatacopy\n      jump(tag_271)\n    tag_272:\n      0x60\n      swap2\n      pop\n    tag_271:\n      pop\n        /* \"03_kipu-bank-v2/contracts/errKipuBankV2.sol\":17240:17296  (bool success, ) = _destinatario.call{value: _monto}(\"\") */\n      pop\n      swap1\n      pop\n        /* \"03_kipu-bank-v2/contracts/errKipuBankV2.sol\":17311:17318  success */\n      dup1\n        /* \"03_kipu-bank-v2/contracts/errKipuBankV2.sol\":17306:17373  if (!success) revert KipuBankV2_TransferenciaFallida(_destinatario) */\n      tag_273\n      jumpi\n        /* \"03_kipu-bank-v2/contracts/errKipuBankV2.sol\":17359:17372  _destinatario */\n      dup3\n        /* \"03_kipu-bank-v2/contracts/errKipuBankV2.sol\":17327:17373  KipuBankV2_TransferenciaFallida(_destinatario) */\n      mload(0x40)\n      0x71404a4200000000000000000000000000000000000000000000000000000000\n      dup2\n      mstore\n      0x04\n      add\n      tag_274\n      swap2\n      swap1\n      tag_53\n      jump\t// in\n    tag_274:\n      mload(0x40)\n      dup1\n      swap2\n      sub\n      swap1\n      revert\n        /* \"03_kipu-bank-v2/contracts/errKipuBankV2.sol\":17306:17373  if (!success) revert KipuBankV2_TransferenciaFallida(_destinatario) */\n    tag_273:\n        /* \"03_kipu-bank-v2/contracts/errKipuBankV2.sol\":17230:17380  {... */\n      pop\n        /* \"03_kipu-bank-v2/contracts/errKipuBankV2.sol\":17159:17380  function _transferirEth(address _destinatario, uint256 _monto) private {... */\n      pop\n      pop\n      jump\t// out\n        /* \"@openzeppelin/contracts/token/ERC20/utils/SafeERC20.sol\":1618:1806  function safeTransferFrom(IERC20 token, address from, address to, uint256 value) internal {... */\n    tag_222:\n        /* \"@openzeppelin/contracts/token/ERC20/utils/SafeERC20.sol\":1718:1799  _callOptionalReturn(token, abi.encodeCall(token.transferFrom, (from, to, value))) */\n      tag_276\n        /* \"@openzeppelin/contracts/token/ERC20/utils/SafeERC20.sol\":1738:1743  token */\n      dup5\n        /* \"@openzeppelin/contracts/token/ERC20/utils/SafeERC20.sol\":1760:1765  token */\n      dup6\n        /* \"@openzeppelin/contracts/token/ERC20/utils/SafeERC20.sol\":1760:1778  token.transferFrom */\n      0xffffffffffffffffffffffffffffffffffffffff\n      and\n      0x23b872dd\n        /* \"@openzeppelin/contracts/token/ERC20/utils/SafeERC20.sol\":1781:1785  from */\n      dup7\n        /* \"@openzeppelin/contracts/token/ERC20/utils/SafeERC20.sol\":1787:1789  to */\n      dup7\n        /* \"@openzeppelin/contracts/token/ERC20/utils/SafeERC20.sol\":1791:1796  value */\n      dup7\n        /* \"@openzeppelin/contracts/token/ERC20/utils/SafeERC20.sol\":1745:1798  abi.encodeCall(token.transferFrom, (from, to, value)) */\n      add(0x24, mload(0x40))\n      tag_277\n      swap4\n      swap3\n      swap2\n      swap1\n      tag_278\n      jump\t// in\n    tag_277:\n      mload(0x40)\n      0x20\n      dup2\n      dup4\n      sub\n      sub\n      dup2\n      mstore\n      swap1\n      0x40\n      mstore\n      swap2\n      pop\n      0xe0\n      shl\n      0x20\n      dup3\n      add\n      dup1\n      mload\n      0xffffffffffffffffffffffffffffffffffffffffffffffffffffffff\n      dup4\n      dup2\n      dup4\n      and\n      or\n      dup4\n      mstore\n      pop\n      pop\n      pop\n      pop\n        /* \"@openzeppelin/contracts/token/ERC20/utils/SafeERC20.sol\":1718:1737  _callOptionalReturn */\n      tag_258\n        /* \"@openzeppelin/contracts/token/ERC20/utils/SafeERC20.sol\":1718:1799  _callOptionalReturn(token, abi.encodeCall(token.transferFrom, (from, to, value))) */\n      jump\t// in\n    tag_276:\n        /* \"@openzeppelin/contracts/token/ERC20/utils/SafeERC20.sol\":1618:1806  function safeTransferFrom(IERC20 token, address from, address to, uint256 value) internal {... */\n      pop\n      pop\n      pop\n      pop\n      jump\t// out\n        /* \"03_kipu-bank-v2/contracts/errKipuBankV2.sol\":15910:16709  function _obtenerPrecioEth() internal view returns (uint256 precioEth_) {... */\n    tag_244:\n        /* \"03_kipu-bank-v2/contracts/errKipuBankV2.sol\":15962:15980  uint256 precioEth_ */\n      0x00\n        /* \"03_kipu-bank-v2/contracts/errKipuBankV2.sol\":16040:16053  int256 answer */\n      dup1\n        /* \"03_kipu-bank-v2/contracts/errKipuBankV2.sol\":16104:16121  uint256 updatedAt */\n      0x00\n        /* \"03_kipu-bank-v2/contracts/errKipuBankV2.sol\":16176:16188  s_ethUsdFeed */\n      0x02\n      0x00\n      swap1\n      sload\n      swap1\n      0x0100\n      exp\n      swap1\n      div\n      0xffffffffffffffffffffffffffffffffffffffff\n      and\n        /* \"03_kipu-bank-v2/contracts/errKipuBankV2.sol\":16176:16204  s_ethUsdFeed.latestRoundData */\n      0xffffffffffffffffffffffffffffffffffffffff\n      and\n      0xfeaf968c\n        /* \"03_kipu-bank-v2/contracts/errKipuBankV2.sol\":16176:16206  s_ethUsdFeed.latestRoundData() */\n      mload(0x40)\n      dup2\n      0xffffffff\n      and\n      0xe0\n      shl\n      dup2\n      mstore\n      0x04\n      add\n      0xa0\n      mload(0x40)\n      dup1\n      dup4\n      sub\n      dup2\n      dup7\n      gas\n      staticcall\n      iszero\n      dup1\n      iszero\n      tag_281\n      jumpi\n      returndatasize\n      0x00\n      dup1\n      returndatacopy\n      revert(0x00, returndatasize)\n    tag_281:\n      pop\n      pop\n      pop\n      pop\n      mload(0x40)\n      returndatasize\n      not(0x1f)\n      0x1f\n      dup3\n      add\n      and\n      dup3\n      add\n      dup1\n      0x40\n      mstore\n      pop\n      dup2\n      add\n      swap1\n      tag_282\n      swap2\n      swap1\n      tag_233\n      jump\t// in\n    tag_282:\n        /* \"03_kipu-bank-v2/contracts/errKipuBankV2.sol\":15992:16206  (... */\n      pop\n      swap4\n      pop\n      pop\n      swap3\n      pop\n      pop\n        /* \"03_kipu-bank-v2/contracts/errKipuBankV2.sol\":16294:16295  0 */\n      0x00\n        /* \"03_kipu-bank-v2/contracts/errKipuBankV2.sol\":16284:16290  answer */\n      dup3\n        /* \"03_kipu-bank-v2/contracts/errKipuBankV2.sol\":16284:16295  answer <= 0 */\n      sgt\n        /* \"03_kipu-bank-v2/contracts/errKipuBankV2.sol\":16280:16334  if (answer <= 0) revert KipuBankV2_OracleCompromised() */\n      tag_283\n      jumpi\n        /* \"03_kipu-bank-v2/contracts/errKipuBankV2.sol\":16304:16334  KipuBankV2_OracleCompromised() */\n      mload(0x40)\n      0x63f585c200000000000000000000000000000000000000000000000000000000\n      dup2\n      mstore\n      0x04\n      add\n      mload(0x40)\n      dup1\n      swap2\n      sub\n      swap1\n      revert\n        /* \"03_kipu-bank-v2/contracts/errKipuBankV2.sol\":16280:16334  if (answer <= 0) revert KipuBankV2_OracleCompromised() */\n    tag_283:\n        /* \"03_kipu-bank-v2/contracts/errKipuBankV2.sol\":16418:16444  uint256 tiempoTranscurrido */\n      0x00\n        /* \"03_kipu-bank-v2/contracts/errKipuBankV2.sol\":16465:16474  updatedAt */\n      dup2\n        /* \"03_kipu-bank-v2/contracts/errKipuBankV2.sol\":16447:16462  block.timestamp */\n      timestamp\n        /* \"03_kipu-bank-v2/contracts/errKipuBankV2.sol\":16447:16474  block.timestamp - updatedAt */\n      tag_284\n      swap2\n      swap1\n      tag_170\n      jump\t// in\n    tag_284:\n        /* \"03_kipu-bank-v2/contracts/errKipuBankV2.sol\":16418:16474  uint256 tiempoTranscurrido = block.timestamp - updatedAt */\n      swap1\n      pop\n        /* \"03_kipu-bank-v2/contracts/errKipuBankV2.sol\":1874:1878  3600 */\n      0x0e10\n        /* \"03_kipu-bank-v2/contracts/errKipuBankV2.sol\":16488:16506  tiempoTranscurrido */\n      dup2\n        /* \"03_kipu-bank-v2/contracts/errKipuBankV2.sol\":16488:16525  tiempoTranscurrido > ORACLE_HEARTBEAT */\n      gt\n        /* \"03_kipu-bank-v2/contracts/errKipuBankV2.sol\":16484:16618  if (tiempoTranscurrido > ORACLE_HEARTBEAT) {... */\n      iszero\n      tag_285\n      jumpi\n        /* \"03_kipu-bank-v2/contracts/errKipuBankV2.sol\":16570:16588  tiempoTranscurrido */\n      dup1\n        /* \"03_kipu-bank-v2/contracts/errKipuBankV2.sol\":1874:1878  3600 */\n      0x0e10\n        /* \"03_kipu-bank-v2/contracts/errKipuBankV2.sol\":16548:16607  KipuBankV2_StalePrice(tiempoTranscurrido, ORACLE_HEARTBEAT) */\n      mload(0x40)\n      0x74937df300000000000000000000000000000000000000000000000000000000\n      dup2\n      mstore\n      0x04\n      add\n      tag_286\n      swap3\n      swap2\n      swap1\n      tag_108\n      jump\t// in\n    tag_286:\n      mload(0x40)\n      dup1\n      swap2\n      sub\n      swap1\n      revert\n        /* \"03_kipu-bank-v2/contracts/errKipuBankV2.sol\":16484:16618  if (tiempoTranscurrido > ORACLE_HEARTBEAT) {... */\n    tag_285:\n        /* \"03_kipu-bank-v2/contracts/errKipuBankV2.sol\":16695:16701  answer */\n      dup3\n        /* \"03_kipu-bank-v2/contracts/errKipuBankV2.sol\":16674:16702  precioEth_ = uint256(answer) */\n      swap4\n      pop\n        /* \"03_kipu-bank-v2/contracts/errKipuBankV2.sol\":15982:16709  {... */\n      pop\n      pop\n      pop\n        /* \"03_kipu-bank-v2/contracts/errKipuBankV2.sol\":15910:16709  function _obtenerPrecioEth() internal view returns (uint256 precioEth_) {... */\n      swap1\n      jump\t// out\n        /* \"@openzeppelin/contracts/token/ERC20/utils/SafeERC20.sol\":8370:9090  function _callOptionalReturn(IERC20 token, bytes memory data) private {... */\n    tag_258:\n        /* \"@openzeppelin/contracts/token/ERC20/utils/SafeERC20.sol\":8450:8468  uint256 returnSize */\n      0x00\n        /* \"@openzeppelin/contracts/token/ERC20/utils/SafeERC20.sol\":8478:8497  uint256 returnValue */\n      dup1\n        /* \"@openzeppelin/contracts/token/ERC20/utils/SafeERC20.sol\":8616:8620  0x20 */\n      0x20\n        /* \"@openzeppelin/contracts/token/ERC20/utils/SafeERC20.sol\":8613:8614  0 */\n      0x00\n        /* \"@openzeppelin/contracts/token/ERC20/utils/SafeERC20.sol\":8606:8610  data */\n      dup5\n        /* \"@openzeppelin/contracts/token/ERC20/utils/SafeERC20.sol\":8600:8611  mload(data) */\n      mload\n        /* \"@openzeppelin/contracts/token/ERC20/utils/SafeERC20.sol\":8593:8597  0x20 */\n      0x20\n        /* \"@openzeppelin/contracts/token/ERC20/utils/SafeERC20.sol\":8587:8591  data */\n      dup7\n        /* \"@openzeppelin/contracts/token/ERC20/utils/SafeERC20.sol\":8583:8598  add(data, 0x20) */\n      add\n        /* \"@openzeppelin/contracts/token/ERC20/utils/SafeERC20.sol\":8580:8581  0 */\n      0x00\n        /* \"@openzeppelin/contracts/token/ERC20/utils/SafeERC20.sol\":8573:8578  token */\n      dup9\n        /* \"@openzeppelin/contracts/token/ERC20/utils/SafeERC20.sol\":8566:8571  gas() */\n      gas\n        /* \"@openzeppelin/contracts/token/ERC20/utils/SafeERC20.sol\":8561:8621  call(gas(), token, 0, add(data, 0x20), mload(data), 0, 0x20) */\n      call\n        /* \"@openzeppelin/contracts/token/ERC20/utils/SafeERC20.sol\":8673:8680  success */\n      dup1\n        /* \"@openzeppelin/contracts/token/ERC20/utils/SafeERC20.sol\":8663:8839  if iszero(success) {... */\n      tag_288\n      jumpi\n        /* \"@openzeppelin/contracts/token/ERC20/utils/SafeERC20.sol\":8717:8721  0x40 */\n      0x40\n        /* \"@openzeppelin/contracts/token/ERC20/utils/SafeERC20.sol\":8711:8722  mload(0x40) */\n      mload\n        /* \"@openzeppelin/contracts/token/ERC20/utils/SafeERC20.sol\":8762:8778  returndatasize() */\n      returndatasize\n        /* \"@openzeppelin/contracts/token/ERC20/utils/SafeERC20.sol\":8759:8760  0 */\n      0x00\n        /* \"@openzeppelin/contracts/token/ERC20/utils/SafeERC20.sol\":8754:8757  ptr */\n      dup3\n        /* \"@openzeppelin/contracts/token/ERC20/utils/SafeERC20.sol\":8739:8779  returndatacopy(ptr, 0, returndatasize()) */\n      returndatacopy\n        /* \"@openzeppelin/contracts/token/ERC20/utils/SafeERC20.sol\":8808:8824  returndatasize() */\n      returndatasize\n        /* \"@openzeppelin/contracts/token/ERC20/utils/SafeERC20.sol\":8803:8806  ptr */\n      dup2\n        /* \"@openzeppelin/contracts/token/ERC20/utils/SafeERC20.sol\":8796:8825  revert(ptr, returndatasize()) */\n      revert\n        /* \"@openzeppelin/contracts/token/ERC20/utils/SafeERC20.sol\":8663:8839  if iszero(success) {... */\n    tag_288:\n        /* \"@openzeppelin/contracts/token/ERC20/utils/SafeERC20.sol\":8866:8882  returndatasize() */\n      returndatasize\n        /* \"@openzeppelin/contracts/token/ERC20/utils/SafeERC20.sol\":8852:8882  returnSize := returndatasize() */\n      swap3\n      pop\n        /* \"@openzeppelin/contracts/token/ERC20/utils/SafeERC20.sol\":8916:8917  0 */\n      0x00\n        /* \"@openzeppelin/contracts/token/ERC20/utils/SafeERC20.sol\":8910:8918  mload(0) */\n      mload\n        /* \"@openzeppelin/contracts/token/ERC20/utils/SafeERC20.sol\":8895:8918  returnValue := mload(0) */\n      swap2\n      pop\n        /* \"@openzeppelin/contracts/token/ERC20/utils/SafeERC20.sol\":8532:8928  {... */\n      pop\n        /* \"@openzeppelin/contracts/token/ERC20/utils/SafeERC20.sol\":8956:8957  0 */\n      0x00\n        /* \"@openzeppelin/contracts/token/ERC20/utils/SafeERC20.sol\":8942:8952  returnSize */\n      dup3\n        /* \"@openzeppelin/contracts/token/ERC20/utils/SafeERC20.sol\":8942:8957  returnSize == 0 */\n      eq\n        /* \"@openzeppelin/contracts/token/ERC20/utils/SafeERC20.sol\":8942:9010  returnSize == 0 ? address(token).code.length == 0 : returnValue != 1 */\n      tag_289\n      jumpi\n        /* \"@openzeppelin/contracts/token/ERC20/utils/SafeERC20.sol\":9009:9010  1 */\n      0x01\n        /* \"@openzeppelin/contracts/token/ERC20/utils/SafeERC20.sol\":8994:9005  returnValue */\n      dup2\n        /* \"@openzeppelin/contracts/token/ERC20/utils/SafeERC20.sol\":8994:9010  returnValue != 1 */\n      eq\n      iszero\n        /* \"@openzeppelin/contracts/token/ERC20/utils/SafeERC20.sol\":8942:9010  returnSize == 0 ? address(token).code.length == 0 : returnValue != 1 */\n      jump(tag_290)\n    tag_289:\n        /* \"@openzeppelin/contracts/token/ERC20/utils/SafeERC20.sol\":8990:8991  0 */\n      0x00\n        /* \"@openzeppelin/contracts/token/ERC20/utils/SafeERC20.sol\":8968:8973  token */\n      dup5\n        /* \"@openzeppelin/contracts/token/ERC20/utils/SafeERC20.sol\":8960:8986  address(token).code.length */\n      0xffffffffffffffffffffffffffffffffffffffff\n      and\n      extcodesize\n        /* \"@openzeppelin/contracts/token/ERC20/utils/SafeERC20.sol\":8960:8991  address(token).code.length == 0 */\n      eq\n        /* \"@openzeppelin/contracts/token/ERC20/utils/SafeERC20.sol\":8942:9010  returnSize == 0 ? address(token).code.length == 0 : returnValue != 1 */\n    tag_290:\n        /* \"@openzeppelin/contracts/token/ERC20/utils/SafeERC20.sol\":8938:9084  if (returnSize == 0 ? address(token).code.length == 0 : returnValue != 1) {... */\n      iszero\n      tag_291\n      jumpi\n        /* \"@openzeppelin/contracts/token/ERC20/utils/SafeERC20.sol\":9066:9071  token */\n      dup4\n        /* \"@openzeppelin/contracts/token/ERC20/utils/SafeERC20.sol\":9033:9073  SafeERC20FailedOperation(address(token)) */\n      mload(0x40)\n      0x5274afe700000000000000000000000000000000000000000000000000000000\n      dup2\n      mstore\n      0x04\n      add\n      tag_292\n      swap2\n      swap1\n      tag_53\n      jump\t// in\n    tag_292:\n      mload(0x40)\n      dup1\n      swap2\n      sub\n      swap1\n      revert\n        /* \"@openzeppelin/contracts/token/ERC20/utils/SafeERC20.sol\":8938:9084  if (returnSize == 0 ? address(token).code.length == 0 : returnValue != 1) {... */\n    tag_291:\n        /* \"@openzeppelin/contracts/token/ERC20/utils/SafeERC20.sol\":8440:9090  {... */\n      pop\n      pop\n        /* \"@openzeppelin/contracts/token/ERC20/utils/SafeERC20.sol\":8370:9090  function _callOptionalReturn(IERC20 token, bytes memory data) private {... */\n      pop\n      pop\n      jump\t// out\n        /* \"@openzeppelin/contracts/utils/Context.sol\":656:752  function _msgSender() internal view virtual returns (address) {... */\n    tag_261:\n        /* \"@openzeppelin/contracts/utils/Context.sol\":709:716  address */\n      0x00\n        /* \"@openzeppelin/contracts/utils/Context.sol\":735:745  msg.sender */\n      caller\n        /* \"@openzeppelin/contracts/utils/Context.sol\":728:745  return msg.sender */\n      swap1\n      pop\n        /* \"@openzeppelin/contracts/utils/Context.sol\":656:752  function _msgSender() internal view virtual returns (address) {... */\n      swap1\n      jump\t// out\n        /* \"#utility.yul\":7:84   */\n    tag_294:\n        /* \"#utility.yul\":44:51   */\n      0x00\n        /* \"#utility.yul\":73:78   */\n      dup2\n        /* \"#utility.yul\":62:78   */\n      swap1\n      pop\n        /* \"#utility.yul\":7:84   */\n      swap2\n      swap1\n      pop\n      jump\t// out\n        /* \"#utility.yul\":90:208   */\n    tag_295:\n        /* \"#utility.yul\":177:201   */\n      tag_328\n        /* \"#utility.yul\":195:200   */\n      dup2\n        /* \"#utility.yul\":177:201   */\n      tag_294\n      jump\t// in\n    tag_328:\n        /* \"#utility.yul\":172:175   */\n      dup3\n        /* \"#utility.yul\":165:202   */\n      mstore\n        /* \"#utility.yul\":90:208   */\n      pop\n      pop\n      jump\t// out\n        /* \"#utility.yul\":214:436   */\n    tag_32:\n        /* \"#utility.yul\":307:311   */\n      0x00\n        /* \"#utility.yul\":345:347   */\n      0x20\n        /* \"#utility.yul\":334:343   */\n      dup3\n        /* \"#utility.yul\":330:348   */\n      add\n        /* \"#utility.yul\":322:348   */\n      swap1\n      pop\n        /* \"#utility.yul\":358:429   */\n      tag_330\n        /* \"#utility.yul\":426:427   */\n      0x00\n        /* \"#utility.yul\":415:424   */\n      dup4\n        /* \"#utility.yul\":411:428   */\n      add\n        /* \"#utility.yul\":402:408   */\n      dup5\n        /* \"#utility.yul\":358:429   */\n      tag_295\n      jump\t// in\n    tag_330:\n        /* \"#utility.yul\":214:436   */\n      swap3\n      swap2\n      pop\n      pop\n      jump\t// out\n        /* \"#utility.yul\":523:640   */\n    tag_297:\n        /* \"#utility.yul\":632:633   */\n      0x00\n        /* \"#utility.yul\":629:630   */\n      dup1\n        /* \"#utility.yul\":622:634   */\n      revert\n        /* \"#utility.yul\":769:895   */\n    tag_299:\n        /* \"#utility.yul\":806:813   */\n      0x00\n        /* \"#utility.yul\":846:888   */\n      0xffffffffffffffffffffffffffffffffffffffff\n        /* \"#utility.yul\":839:844   */\n      dup3\n        /* \"#utility.yul\":835:889   */\n      and\n        /* \"#utility.yul\":824:889   */\n      swap1\n      pop\n        /* \"#utility.yul\":769:895   */\n      swap2\n      swap1\n      pop\n      jump\t// out\n        /* \"#utility.yul\":901:997   */\n    tag_300:\n        /* \"#utility.yul\":938:945   */\n      0x00\n        /* \"#utility.yul\":967:991   */\n      tag_336\n        /* \"#utility.yul\":985:990   */\n      dup3\n        /* \"#utility.yul\":967:991   */\n      tag_299\n      jump\t// in\n    tag_336:\n        /* \"#utility.yul\":956:991   */\n      swap1\n      pop\n        /* \"#utility.yul\":901:997   */\n      swap2\n      swap1\n      pop\n      jump\t// out\n        /* \"#utility.yul\":1003:1125   */\n    tag_301:\n        /* \"#utility.yul\":1076:1100   */\n      tag_338\n        /* \"#utility.yul\":1094:1099   */\n      dup2\n        /* \"#utility.yul\":1076:1100   */\n      tag_300\n      jump\t// in\n    tag_338:\n        /* \"#utility.yul\":1069:1074   */\n      dup2\n        /* \"#utility.yul\":1066:1101   */\n      eq\n        /* \"#utility.yul\":1056:1119   */\n      tag_339\n      jumpi\n        /* \"#utility.yul\":1115:1116   */\n      0x00\n        /* \"#utility.yul\":1112:1113   */\n      dup1\n        /* \"#utility.yul\":1105:1117   */\n      revert\n        /* \"#utility.yul\":1056:1119   */\n    tag_339:\n        /* \"#utility.yul\":1003:1125   */\n      pop\n      jump\t// out\n        /* \"#utility.yul\":1131:1270   */\n    tag_302:\n        /* \"#utility.yul\":1177:1182   */\n      0x00\n        /* \"#utility.yul\":1215:1221   */\n      dup2\n        /* \"#utility.yul\":1202:1222   */\n      calldataload\n        /* \"#utility.yul\":1193:1222   */\n      swap1\n      pop\n        /* \"#utility.yul\":1231:1264   */\n      tag_341\n        /* \"#utility.yul\":1258:1263   */\n      dup2\n        /* \"#utility.yul\":1231:1264   */\n      tag_301\n      jump\t// in\n    tag_341:\n        /* \"#utility.yul\":1131:1270   */\n      swap3\n      swap2\n      pop\n      pop\n      jump\t// out\n        /* \"#utility.yul\":1276:1605   */\n    tag_46:\n        /* \"#utility.yul\":1335:1341   */\n      0x00\n        /* \"#utility.yul\":1384:1386   */\n      0x20\n        /* \"#utility.yul\":1372:1381   */\n      dup3\n        /* \"#utility.yul\":1363:1370   */\n      dup5\n        /* \"#utility.yul\":1359:1382   */\n      sub\n        /* \"#utility.yul\":1355:1387   */\n      slt\n        /* \"#utility.yul\":1352:1471   */\n      iszero\n      tag_343\n      jumpi\n        /* \"#utility.yul\":1390:1469   */\n      tag_344\n      tag_297\n      jump\t// in\n    tag_344:\n        /* \"#utility.yul\":1352:1471   */\n    tag_343:\n        /* \"#utility.yul\":1510:1511   */\n      0x00\n        /* \"#utility.yul\":1535:1588   */\n      tag_345\n        /* \"#utility.yul\":1580:1587   */\n      dup5\n        /* \"#utility.yul\":1571:1577   */\n      dup3\n        /* \"#utility.yul\":1560:1569   */\n      dup6\n        /* \"#utility.yul\":1556:1578   */\n      add\n        /* \"#utility.yul\":1535:1588   */\n      tag_302\n      jump\t// in\n    tag_345:\n        /* \"#utility.yul\":1525:1588   */\n      swap2\n      pop\n        /* \"#utility.yul\":1481:1598   */\n      pop\n        /* \"#utility.yul\":1276:1605   */\n      swap3\n      swap2\n      pop\n      pop\n      jump\t// out\n        /* \"#utility.yul\":1611:1729   */\n    tag_303:\n        /* \"#utility.yul\":1698:1722   */\n      tag_347\n        /* \"#utility.yul\":1716:1721   */\n      dup2\n        /* \"#utility.yul\":1698:1722   */\n      tag_300\n      jump\t// in\n    tag_347:\n        /* \"#utility.yul\":1693:1696   */\n      dup3\n        /* \"#utility.yul\":1686:1723   */\n      mstore\n        /* \"#utility.yul\":1611:1729   */\n      pop\n      pop\n      jump\t// out\n        /* \"#utility.yul\":1735:1957   */\n    tag_53:\n        /* \"#utility.yul\":1828:1832   */\n      0x00\n        /* \"#utility.yul\":1866:1868   */\n      0x20\n        /* \"#utility.yul\":1855:1864   */\n      dup3\n        /* \"#utility.yul\":1851:1869   */\n      add\n        /* \"#utility.yul\":1843:1869   */\n      swap1\n      pop\n        /* \"#utility.yul\":1879:1950   */\n      tag_349\n        /* \"#utility.yul\":1947:1948   */\n      0x00\n        /* \"#utility.yul\":1936:1945   */\n      dup4\n        /* \"#utility.yul\":1932:1949   */\n      add\n        /* \"#utility.yul\":1923:1929   */\n      dup5\n        /* \"#utility.yul\":1879:1950   */\n      tag_303\n      jump\t// in\n    tag_349:\n        /* \"#utility.yul\":1735:1957   */\n      swap3\n      swap2\n      pop\n      pop\n      jump\t// out\n        /* \"#utility.yul\":1963:2085   */\n    tag_304:\n        /* \"#utility.yul\":2036:2060   */\n      tag_351\n        /* \"#utility.yul\":2054:2059   */\n      dup2\n        /* \"#utility.yul\":2036:2060   */\n      tag_294\n      jump\t// in\n    tag_351:\n        /* \"#utility.yul\":2029:2034   */\n      dup2\n        /* \"#utility.yul\":2026:2061   */\n      eq\n        /* \"#utility.yul\":2016:2079   */\n      tag_352\n      jumpi\n        /* \"#utility.yul\":2075:2076   */\n      0x00\n        /* \"#utility.yul\":2072:2073   */\n      dup1\n        /* \"#utility.yul\":2065:2077   */\n      revert\n        /* \"#utility.yul\":2016:2079   */\n    tag_352:\n        /* \"#utility.yul\":1963:2085   */\n      pop\n      jump\t// out\n        /* \"#utility.yul\":2091:2230   */\n    tag_305:\n        /* \"#utility.yul\":2137:2142   */\n      0x00\n        /* \"#utility.yul\":2175:2181   */\n      dup2\n        /* \"#utility.yul\":2162:2182   */\n      calldataload\n        /* \"#utility.yul\":2153:2182   */\n      swap1\n      pop\n        /* \"#utility.yul\":2191:2224   */\n      tag_354\n        /* \"#utility.yul\":2218:2223   */\n      dup2\n        /* \"#utility.yul\":2191:2224   */\n      tag_304\n      jump\t// in\n    tag_354:\n        /* \"#utility.yul\":2091:2230   */\n      swap3\n      swap2\n      pop\n      pop\n      jump\t// out\n        /* \"#utility.yul\":2236:2710   */\n    tag_66:\n        /* \"#utility.yul\":2304:2310   */\n      0x00\n        /* \"#utility.yul\":2312:2318   */\n      dup1\n        /* \"#utility.yul\":2361:2363   */\n      0x40\n        /* \"#utility.yul\":2349:2358   */\n      dup4\n        /* \"#utility.yul\":2340:2347   */\n      dup6\n        /* \"#utility.yul\":2336:2359   */\n      sub\n        /* \"#utility.yul\":2332:2364   */\n      slt\n        /* \"#utility.yul\":2329:2448   */\n      iszero\n      tag_356\n      jumpi\n        /* \"#utility.yul\":2367:2446   */\n      tag_357\n      tag_297\n      jump\t// in\n    tag_357:\n        /* \"#utility.yul\":2329:2448   */\n    tag_356:\n        /* \"#utility.yul\":2487:2488   */\n      0x00\n        /* \"#utility.yul\":2512:2565   */\n      tag_358\n        /* \"#utility.yul\":2557:2564   */\n      dup6\n        /* \"#utility.yul\":2548:2554   */\n      dup3\n        /* \"#utility.yul\":2537:2546   */\n      dup7\n        /* \"#utility.yul\":2533:2555   */\n      add\n        /* \"#utility.yul\":2512:2565   */\n      tag_302\n      jump\t// in\n    tag_358:\n        /* \"#utility.yul\":2502:2565   */\n      swap3\n      pop\n        /* \"#utility.yul\":2458:2575   */\n      pop\n        /* \"#utility.yul\":2614:2616   */\n      0x20\n        /* \"#utility.yul\":2640:2693   */\n      tag_359\n        /* \"#utility.yul\":2685:2692   */\n      dup6\n        /* \"#utility.yul\":2676:2682   */\n      dup3\n        /* \"#utility.yul\":2665:2674   */\n      dup7\n        /* \"#utility.yul\":2661:2683   */\n      add\n        /* \"#utility.yul\":2640:2693   */\n      tag_305\n      jump\t// in\n    tag_359:\n        /* \"#utility.yul\":2630:2693   */\n      swap2\n      pop\n        /* \"#utility.yul\":2585:2703   */\n      pop\n        /* \"#utility.yul\":2236:2710   */\n      swap3\n      pop\n      swap3\n      swap1\n      pop\n      jump\t// out\n        /* \"#utility.yul\":2716:3045   */\n    tag_74:\n        /* \"#utility.yul\":2775:2781   */\n      0x00\n        /* \"#utility.yul\":2824:2826   */\n      0x20\n        /* \"#utility.yul\":2812:2821   */\n      dup3\n        /* \"#utility.yul\":2803:2810   */\n      dup5\n        /* \"#utility.yul\":2799:2822   */\n      sub\n        /* \"#utility.yul\":2795:2827   */\n      slt\n        /* \"#utility.yul\":2792:2911   */\n      iszero\n      tag_361\n      jumpi\n        /* \"#utility.yul\":2830:2909   */\n      tag_362\n      tag_297\n      jump\t// in\n    tag_362:\n        /* \"#utility.yul\":2792:2911   */\n    tag_361:\n        /* \"#utility.yul\":2950:2951   */\n      0x00\n        /* \"#utility.yul\":2975:3028   */\n      tag_363\n        /* \"#utility.yul\":3020:3027   */\n      dup5\n        /* \"#utility.yul\":3011:3017   */\n      dup3\n        /* \"#utility.yul\":3000:3009   */\n      dup6\n        /* \"#utility.yul\":2996:3018   */\n      add\n        /* \"#utility.yul\":2975:3028   */\n      tag_305\n      jump\t// in\n    tag_363:\n        /* \"#utility.yul\":2965:3028   */\n      swap2\n      pop\n        /* \"#utility.yul\":2921:3038   */\n      pop\n        /* \"#utility.yul\":2716:3045   */\n      swap3\n      swap2\n      pop\n      pop\n      jump\t// out\n        /* \"#utility.yul\":3051:3937   */\n    tag_88:\n        /* \"#utility.yul\":3312:3316   */\n      0x00\n        /* \"#utility.yul\":3350:3353   */\n      0xe0\n        /* \"#utility.yul\":3339:3348   */\n      dup3\n        /* \"#utility.yul\":3335:3354   */\n      add\n        /* \"#utility.yul\":3327:3354   */\n      swap1\n      pop\n        /* \"#utility.yul\":3364:3435   */\n      tag_365\n        /* \"#utility.yul\":3432:3433   */\n      0x00\n        /* \"#utility.yul\":3421:3430   */\n      dup4\n        /* \"#utility.yul\":3417:3434   */\n      add\n        /* \"#utility.yul\":3408:3414   */\n      dup11\n        /* \"#utility.yul\":3364:3435   */\n      tag_295\n      jump\t// in\n    tag_365:\n        /* \"#utility.yul\":3445:3517   */\n      tag_366\n        /* \"#utility.yul\":3513:3515   */\n      0x20\n        /* \"#utility.yul\":3502:3511   */\n      dup4\n        /* \"#utility.yul\":3498:3516   */\n      add\n        /* \"#utility.yul\":3489:3495   */\n      dup10\n        /* \"#utility.yul\":3445:3517   */\n      tag_295\n      jump\t// in\n    tag_366:\n        /* \"#utility.yul\":3527:3599   */\n      tag_367\n        /* \"#utility.yul\":3595:3597   */\n      0x40\n        /* \"#utility.yul\":3584:3593   */\n      dup4\n        /* \"#utility.yul\":3580:3598   */\n      add\n        /* \"#utility.yul\":3571:3577   */\n      dup9\n        /* \"#utility.yul\":3527:3599   */\n      tag_295\n      jump\t// in\n    tag_367:\n        /* \"#utility.yul\":3609:3681   */\n      tag_368\n        /* \"#utility.yul\":3677:3679   */\n      0x60\n        /* \"#utility.yul\":3666:3675   */\n      dup4\n        /* \"#utility.yul\":3662:3680   */\n      add\n        /* \"#utility.yul\":3653:3659   */\n      dup8\n        /* \"#utility.yul\":3609:3681   */\n      tag_295\n      jump\t// in\n    tag_368:\n        /* \"#utility.yul\":3691:3764   */\n      tag_369\n        /* \"#utility.yul\":3759:3762   */\n      0x80\n        /* \"#utility.yul\":3748:3757   */\n      dup4\n        /* \"#utility.yul\":3744:3763   */\n      add\n        /* \"#utility.yul\":3735:3741   */\n      dup7\n        /* \"#utility.yul\":3691:3764   */\n      tag_295\n      jump\t// in\n    tag_369:\n        /* \"#utility.yul\":3774:3847   */\n      tag_370\n        /* \"#utility.yul\":3842:3845   */\n      0xa0\n        /* \"#utility.yul\":3831:3840   */\n      dup4\n        /* \"#utility.yul\":3827:3846   */\n      add\n        /* \"#utility.yul\":3818:3824   */\n      dup6\n        /* \"#utility.yul\":3774:3847   */\n      tag_295\n      jump\t// in\n    tag_370:\n        /* \"#utility.yul\":3857:3930   */\n      tag_371\n        /* \"#utility.yul\":3925:3928   */\n      0xc0\n        /* \"#utility.yul\":3914:3923   */\n      dup4\n        /* \"#utility.yul\":3910:3929   */\n      add\n        /* \"#utility.yul\":3901:3907   */\n      dup5\n        /* \"#utility.yul\":3857:3930   */\n      tag_295\n      jump\t// in\n    tag_371:\n        /* \"#utility.yul\":3051:3937   */\n      swap9\n      swap8\n      pop\n      pop\n      pop\n      pop\n      pop\n      pop\n      pop\n      pop\n      jump\t// out\n        /* \"#utility.yul\":3943:4003   */\n    tag_306:\n        /* \"#utility.yul\":3971:3974   */\n      0x00\n        /* \"#utility.yul\":3992:3997   */\n      dup2\n        /* \"#utility.yul\":3985:3997   */\n      swap1\n      pop\n        /* \"#utility.yul\":3943:4003   */\n      swap2\n      swap1\n      pop\n      jump\t// out\n        /* \"#utility.yul\":4009:4151   */\n    tag_307:\n        /* \"#utility.yul\":4059:4068   */\n      0x00\n        /* \"#utility.yul\":4092:4145   */\n      tag_374\n        /* \"#utility.yul\":4110:4144   */\n      tag_375\n        /* \"#utility.yul\":4119:4143   */\n      tag_376\n        /* \"#utility.yul\":4137:4142   */\n      dup5\n        /* \"#utility.yul\":4119:4143   */\n      tag_299\n      jump\t// in\n    tag_376:\n        /* \"#utility.yul\":4110:4144   */\n      tag_306\n      jump\t// in\n    tag_375:\n        /* \"#utility.yul\":4092:4145   */\n      tag_299\n      jump\t// in\n    tag_374:\n        /* \"#utility.yul\":4079:4145   */\n      swap1\n      pop\n        /* \"#utility.yul\":4009:4151   */\n      swap2\n      swap1\n      pop\n      jump\t// out\n        /* \"#utility.yul\":4157:4283   */\n    tag_308:\n        /* \"#utility.yul\":4207:4216   */\n      0x00\n        /* \"#utility.yul\":4240:4277   */\n      tag_378\n        /* \"#utility.yul\":4271:4276   */\n      dup3\n        /* \"#utility.yul\":4240:4277   */\n      tag_307\n      jump\t// in\n    tag_378:\n        /* \"#utility.yul\":4227:4277   */\n      swap1\n      pop\n        /* \"#utility.yul\":4157:4283   */\n      swap2\n      swap1\n      pop\n      jump\t// out\n        /* \"#utility.yul\":4289:4444   */\n    tag_309:\n        /* \"#utility.yul\":4368:4377   */\n      0x00\n        /* \"#utility.yul\":4401:4438   */\n      tag_380\n        /* \"#utility.yul\":4432:4437   */\n      dup3\n        /* \"#utility.yul\":4401:4438   */\n      tag_308\n      jump\t// in\n    tag_380:\n        /* \"#utility.yul\":4388:4438   */\n      swap1\n      pop\n        /* \"#utility.yul\":4289:4444   */\n      swap2\n      swap1\n      pop\n      jump\t// out\n        /* \"#utility.yul\":4450:4639   */\n    tag_310:\n        /* \"#utility.yul\":4566:4632   */\n      tag_382\n        /* \"#utility.yul\":4626:4631   */\n      dup2\n        /* \"#utility.yul\":4566:4632   */\n      tag_309\n      jump\t// in\n    tag_382:\n        /* \"#utility.yul\":4561:4564   */\n      dup3\n        /* \"#utility.yul\":4554:4633   */\n      mstore\n        /* \"#utility.yul\":4450:4639   */\n      pop\n      pop\n      jump\t// out\n        /* \"#utility.yul\":4645:4925   */\n    tag_93:\n        /* \"#utility.yul\":4767:4771   */\n      0x00\n        /* \"#utility.yul\":4805:4807   */\n      0x20\n        /* \"#utility.yul\":4794:4803   */\n      dup3\n        /* \"#utility.yul\":4790:4808   */\n      add\n        /* \"#utility.yul\":4782:4808   */\n      swap1\n      pop\n        /* \"#utility.yul\":4818:4918   */\n      tag_384\n        /* \"#utility.yul\":4915:4916   */\n      0x00\n        /* \"#utility.yul\":4904:4913   */\n      dup4\n        /* \"#utility.yul\":4900:4917   */\n      add\n        /* \"#utility.yul\":4891:4897   */\n      dup5\n        /* \"#utility.yul\":4818:4918   */\n      tag_310\n      jump\t// in\n    tag_384:\n        /* \"#utility.yul\":4645:4925   */\n      swap3\n      swap2\n      pop\n      pop\n      jump\t// out\n        /* \"#utility.yul\":4931:5405   */\n    tag_97:\n        /* \"#utility.yul\":4999:5005   */\n      0x00\n        /* \"#utility.yul\":5007:5013   */\n      dup1\n        /* \"#utility.yul\":5056:5058   */\n      0x40\n        /* \"#utility.yul\":5044:5053   */\n      dup4\n        /* \"#utility.yul\":5035:5042   */\n      dup6\n        /* \"#utility.yul\":5031:5054   */\n      sub\n        /* \"#utility.yul\":5027:5059   */\n      slt\n        /* \"#utility.yul\":5024:5143   */\n      iszero\n      tag_386\n      jumpi\n        /* \"#utility.yul\":5062:5141   */\n      tag_387\n      tag_297\n      jump\t// in\n    tag_387:\n        /* \"#utility.yul\":5024:5143   */\n    tag_386:\n        /* \"#utility.yul\":5182:5183   */\n      0x00\n        /* \"#utility.yul\":5207:5260   */\n      tag_388\n        /* \"#utility.yul\":5252:5259   */\n      dup6\n        /* \"#utility.yul\":5243:5249   */\n      dup3\n        /* \"#utility.yul\":5232:5241   */\n      dup7\n        /* \"#utility.yul\":5228:5250   */\n      add\n        /* \"#utility.yul\":5207:5260   */\n      tag_302\n      jump\t// in\n    tag_388:\n        /* \"#utility.yul\":5197:5260   */\n      swap3\n      pop\n        /* \"#utility.yul\":5153:5270   */\n      pop\n        /* \"#utility.yul\":5309:5311   */\n      0x20\n        /* \"#utility.yul\":5335:5388   */\n      tag_389\n        /* \"#utility.yul\":5380:5387   */\n      dup6\n        /* \"#utility.yul\":5371:5377   */\n      dup3\n        /* \"#utility.yul\":5360:5369   */\n      dup7\n        /* \"#utility.yul\":5356:5378   */\n      add\n        /* \"#utility.yul\":5335:5388   */\n      tag_302\n      jump\t// in\n    tag_389:\n        /* \"#utility.yul\":5325:5388   */\n      swap2\n      pop\n        /* \"#utility.yul\":5280:5398   */\n      pop\n        /* \"#utility.yul\":4931:5405   */\n      swap3\n      pop\n      swap3\n      swap1\n      pop\n      jump\t// out\n        /* \"#utility.yul\":5411:5743   */\n    tag_108:\n        /* \"#utility.yul\":5532:5536   */\n      0x00\n        /* \"#utility.yul\":5570:5572   */\n      0x40\n        /* \"#utility.yul\":5559:5568   */\n      dup3\n        /* \"#utility.yul\":5555:5573   */\n      add\n        /* \"#utility.yul\":5547:5573   */\n      swap1\n      pop\n        /* \"#utility.yul\":5583:5654   */\n      tag_391\n        /* \"#utility.yul\":5651:5652   */\n      0x00\n        /* \"#utility.yul\":5640:5649   */\n      dup4\n        /* \"#utility.yul\":5636:5653   */\n      add\n        /* \"#utility.yul\":5627:5633   */\n      dup6\n        /* \"#utility.yul\":5583:5654   */\n      tag_295\n      jump\t// in\n    tag_391:\n        /* \"#utility.yul\":5664:5736   */\n      tag_392\n        /* \"#utility.yul\":5732:5734   */\n      0x20\n        /* \"#utility.yul\":5721:5730   */\n      dup4\n        /* \"#utility.yul\":5717:5735   */\n      add\n        /* \"#utility.yul\":5708:5714   */\n      dup5\n        /* \"#utility.yul\":5664:5736   */\n      tag_295\n      jump\t// in\n    tag_392:\n        /* \"#utility.yul\":5411:5743   */\n      swap4\n      swap3\n      pop\n      pop\n      pop\n      jump\t// out\n        /* \"#utility.yul\":5749:5890   */\n    tag_311:\n        /* \"#utility.yul\":5814:5823   */\n      0x00\n        /* \"#utility.yul\":5847:5884   */\n      tag_394\n        /* \"#utility.yul\":5878:5883   */\n      dup3\n        /* \"#utility.yul\":5847:5884   */\n      tag_308\n      jump\t// in\n    tag_394:\n        /* \"#utility.yul\":5834:5884   */\n      swap1\n      pop\n        /* \"#utility.yul\":5749:5890   */\n      swap2\n      swap1\n      pop\n      jump\t// out\n        /* \"#utility.yul\":5896:6057   */\n    tag_312:\n        /* \"#utility.yul\":5998:6050   */\n      tag_396\n        /* \"#utility.yul\":6044:6049   */\n      dup2\n        /* \"#utility.yul\":5998:6050   */\n      tag_311\n      jump\t// in\n    tag_396:\n        /* \"#utility.yul\":5993:5996   */\n      dup3\n        /* \"#utility.yul\":5986:6051   */\n      mstore\n        /* \"#utility.yul\":5896:6057   */\n      pop\n      pop\n      jump\t// out\n        /* \"#utility.yul\":6063:6315   */\n    tag_130:\n        /* \"#utility.yul\":6171:6175   */\n      0x00\n        /* \"#utility.yul\":6209:6211   */\n      0x20\n        /* \"#utility.yul\":6198:6207   */\n      dup3\n        /* \"#utility.yul\":6194:6212   */\n      add\n        /* \"#utility.yul\":6186:6212   */\n      swap1\n      pop\n        /* \"#utility.yul\":6222:6308   */\n      tag_398\n        /* \"#utility.yul\":6305:6306   */\n      0x00\n        /* \"#utility.yul\":6294:6303   */\n      dup4\n        /* \"#utility.yul\":6290:6307   */\n      add\n        /* \"#utility.yul\":6281:6287   */\n      dup5\n        /* \"#utility.yul\":6222:6308   */\n      tag_312\n      jump\t// in\n    tag_398:\n        /* \"#utility.yul\":6063:6315   */\n      swap3\n      swap2\n      pop\n      pop\n      jump\t// out\n        /* \"#utility.yul\":6321:6501   */\n    tag_313:\n        /* \"#utility.yul\":6369:6446   */\n      0x4e487b7100000000000000000000000000000000000000000000000000000000\n        /* \"#utility.yul\":6366:6367   */\n      0x00\n        /* \"#utility.yul\":6359:6447   */\n      mstore\n        /* \"#utility.yul\":6466:6470   */\n      0x11\n        /* \"#utility.yul\":6463:6464   */\n      0x04\n        /* \"#utility.yul\":6456:6471   */\n      mstore\n        /* \"#utility.yul\":6490:6494   */\n      0x24\n        /* \"#utility.yul\":6487:6488   */\n      0x00\n        /* \"#utility.yul\":6480:6495   */\n      revert\n        /* \"#utility.yul\":6507:6698   */\n    tag_139:\n        /* \"#utility.yul\":6547:6550   */\n      0x00\n        /* \"#utility.yul\":6566:6586   */\n      tag_401\n        /* \"#utility.yul\":6584:6585   */\n      dup3\n        /* \"#utility.yul\":6566:6586   */\n      tag_294\n      jump\t// in\n    tag_401:\n        /* \"#utility.yul\":6561:6586   */\n      swap2\n      pop\n        /* \"#utility.yul\":6600:6620   */\n      tag_402\n        /* \"#utility.yul\":6618:6619   */\n      dup4\n        /* \"#utility.yul\":6600:6620   */\n      tag_294\n      jump\t// in\n    tag_402:\n        /* \"#utility.yul\":6595:6620   */\n      swap3\n      pop\n        /* \"#utility.yul\":6643:6644   */\n      dup3\n        /* \"#utility.yul\":6640:6641   */\n      dup3\n        /* \"#utility.yul\":6636:6645   */\n      add\n        /* \"#utility.yul\":6629:6645   */\n      swap1\n      pop\n        /* \"#utility.yul\":6664:6667   */\n      dup1\n        /* \"#utility.yul\":6661:6662   */\n      dup3\n        /* \"#utility.yul\":6658:6668   */\n      gt\n        /* \"#utility.yul\":6655:6691   */\n      iszero\n      tag_403\n      jumpi\n        /* \"#utility.yul\":6671:6689   */\n      tag_404\n      tag_313\n      jump\t// in\n    tag_404:\n        /* \"#utility.yul\":6655:6691   */\n    tag_403:\n        /* \"#utility.yul\":6507:6698   */\n      swap3\n      swap2\n      pop\n      pop\n      jump\t// out\n        /* \"#utility.yul\":6704:7146   */\n    tag_142:\n        /* \"#utility.yul\":6853:6857   */\n      0x00\n        /* \"#utility.yul\":6891:6893   */\n      0x60\n        /* \"#utility.yul\":6880:6889   */\n      dup3\n        /* \"#utility.yul\":6876:6894   */\n      add\n        /* \"#utility.yul\":6868:6894   */\n      swap1\n      pop\n        /* \"#utility.yul\":6904:6975   */\n      tag_406\n        /* \"#utility.yul\":6972:6973   */\n      0x00\n        /* \"#utility.yul\":6961:6970   */\n      dup4\n        /* \"#utility.yul\":6957:6974   */\n      add\n        /* \"#utility.yul\":6948:6954   */\n      dup7\n        /* \"#utility.yul\":6904:6975   */\n      tag_295\n      jump\t// in\n    tag_406:\n        /* \"#utility.yul\":6985:7057   */\n      tag_407\n        /* \"#utility.yul\":7053:7055   */\n      0x20\n        /* \"#utility.yul\":7042:7051   */\n      dup4\n        /* \"#utility.yul\":7038:7056   */\n      add\n        /* \"#utility.yul\":7029:7035   */\n      dup6\n        /* \"#utility.yul\":6985:7057   */\n      tag_295\n      jump\t// in\n    tag_407:\n        /* \"#utility.yul\":7067:7139   */\n      tag_408\n        /* \"#utility.yul\":7135:7137   */\n      0x40\n        /* \"#utility.yul\":7124:7133   */\n      dup4\n        /* \"#utility.yul\":7120:7138   */\n      add\n        /* \"#utility.yul\":7111:7117   */\n      dup5\n        /* \"#utility.yul\":7067:7139   */\n      tag_295\n      jump\t// in\n    tag_408:\n        /* \"#utility.yul\":6704:7146   */\n      swap5\n      swap4\n      pop\n      pop\n      pop\n      pop\n      jump\t// out\n        /* \"#utility.yul\":7152:7385   */\n    tag_147:\n        /* \"#utility.yul\":7191:7194   */\n      0x00\n        /* \"#utility.yul\":7214:7238   */\n      tag_410\n        /* \"#utility.yul\":7232:7237   */\n      dup3\n        /* \"#utility.yul\":7214:7238   */\n      tag_294\n      jump\t// in\n    tag_410:\n        /* \"#utility.yul\":7205:7238   */\n      swap2\n      pop\n        /* \"#utility.yul\":7260:7326   */\n      0xffffffffffffffffffffffffffffffffffffffffffffffffffffffffffffffff\n        /* \"#utility.yul\":7253:7258   */\n      dup3\n        /* \"#utility.yul\":7250:7327   */\n      sub\n        /* \"#utility.yul\":7247:7350   */\n      tag_411\n      jumpi\n        /* \"#utility.yul\":7330:7348   */\n      tag_412\n      tag_313\n      jump\t// in\n    tag_412:\n        /* \"#utility.yul\":7247:7350   */\n    tag_411:\n        /* \"#utility.yul\":7377:7378   */\n      0x01\n        /* \"#utility.yul\":7370:7375   */\n      dup3\n        /* \"#utility.yul\":7366:7379   */\n      add\n        /* \"#utility.yul\":7359:7379   */\n      swap1\n      pop\n        /* \"#utility.yul\":7152:7385   */\n      swap2\n      swap1\n      pop\n      jump\t// out\n        /* \"#utility.yul\":7391:7585   */\n    tag_170:\n        /* \"#utility.yul\":7431:7435   */\n      0x00\n        /* \"#utility.yul\":7451:7471   */\n      tag_414\n        /* \"#utility.yul\":7469:7470   */\n      dup3\n        /* \"#utility.yul\":7451:7471   */\n      tag_294\n      jump\t// in\n    tag_414:\n        /* \"#utility.yul\":7446:7471   */\n      swap2\n      pop\n        /* \"#utility.yul\":7485:7505   */\n      tag_415\n        /* \"#utility.yul\":7503:7504   */\n      dup4\n        /* \"#utility.yul\":7485:7505   */\n      tag_294\n      jump\t// in\n    tag_415:\n        /* \"#utility.yul\":7480:7505   */\n      swap3\n      pop\n        /* \"#utility.yul\":7529:7530   */\n      dup3\n        /* \"#utility.yul\":7526:7527   */\n      dup3\n        /* \"#utility.yul\":7522:7531   */\n      sub\n        /* \"#utility.yul\":7514:7531   */\n      swap1\n      pop\n        /* \"#utility.yul\":7553:7554   */\n      dup2\n        /* \"#utility.yul\":7547:7551   */\n      dup2\n        /* \"#utility.yul\":7544:7555   */\n      gt\n        /* \"#utility.yul\":7541:7578   */\n      iszero\n      tag_416\n      jumpi\n        /* \"#utility.yul\":7558:7576   */\n      tag_417\n      tag_313\n      jump\t// in\n    tag_417:\n        /* \"#utility.yul\":7541:7578   */\n    tag_416:\n        /* \"#utility.yul\":7391:7585   */\n      swap3\n      swap2\n      pop\n      pop\n      jump\t// out\n        /* \"#utility.yul\":7591:7696   */\n    tag_314:\n        /* \"#utility.yul\":7627:7634   */\n      0x00\n        /* \"#utility.yul\":7667:7689   */\n      0xffffffffffffffffffff\n        /* \"#utility.yul\":7660:7665   */\n      dup3\n        /* \"#utility.yul\":7656:7690   */\n      and\n        /* \"#utility.yul\":7645:7690   */\n      swap1\n      pop\n        /* \"#utility.yul\":7591:7696   */\n      swap2\n      swap1\n      pop\n      jump\t// out\n        /* \"#utility.yul\":7702:7822   */\n    tag_315:\n        /* \"#utility.yul\":7774:7797   */\n      tag_420\n        /* \"#utility.yul\":7791:7796   */\n      dup2\n        /* \"#utility.yul\":7774:7797   */\n      tag_314\n      jump\t// in\n    tag_420:\n        /* \"#utility.yul\":7767:7772   */\n      dup2\n        /* \"#utility.yul\":7764:7798   */\n      eq\n        /* \"#utility.yul\":7754:7816   */\n      tag_421\n      jumpi\n        /* \"#utility.yul\":7812:7813   */\n      0x00\n        /* \"#utility.yul\":7809:7810   */\n      dup1\n        /* \"#utility.yul\":7802:7814   */\n      revert\n        /* \"#utility.yul\":7754:7816   */\n    tag_421:\n        /* \"#utility.yul\":7702:7822   */\n      pop\n      jump\t// out\n        /* \"#utility.yul\":7828:7969   */\n    tag_316:\n        /* \"#utility.yul\":7884:7889   */\n      0x00\n        /* \"#utility.yul\":7915:7921   */\n      dup2\n        /* \"#utility.yul\":7909:7922   */\n      mload\n        /* \"#utility.yul\":7900:7922   */\n      swap1\n      pop\n        /* \"#utility.yul\":7931:7963   */\n      tag_423\n        /* \"#utility.yul\":7957:7962   */\n      dup2\n        /* \"#utility.yul\":7931:7963   */\n      tag_315\n      jump\t// in\n    tag_423:\n        /* \"#utility.yul\":7828:7969   */\n      swap3\n      swap2\n      pop\n      pop\n      jump\t// out\n        /* \"#utility.yul\":7975:8051   */\n    tag_317:\n        /* \"#utility.yul\":8011:8018   */\n      0x00\n        /* \"#utility.yul\":8040:8045   */\n      dup2\n        /* \"#utility.yul\":8029:8045   */\n      swap1\n      pop\n        /* \"#utility.yul\":7975:8051   */\n      swap2\n      swap1\n      pop\n      jump\t// out\n        /* \"#utility.yul\":8057:8177   */\n    tag_318:\n        /* \"#utility.yul\":8129:8152   */\n      tag_426\n        /* \"#utility.yul\":8146:8151   */\n      dup2\n        /* \"#utility.yul\":8129:8152   */\n      tag_317\n      jump\t// in\n    tag_426:\n        /* \"#utility.yul\":8122:8127   */\n      dup2\n        /* \"#utility.yul\":8119:8153   */\n      eq\n        /* \"#utility.yul\":8109:8171   */\n      tag_427\n      jumpi\n        /* \"#utility.yul\":8167:8168   */\n      0x00\n        /* \"#utility.yul\":8164:8165   */\n      dup1\n        /* \"#utility.yul\":8157:8169   */\n      revert\n        /* \"#utility.yul\":8109:8171   */\n    tag_427:\n        /* \"#utility.yul\":8057:8177   */\n      pop\n      jump\t// out\n        /* \"#utility.yul\":8183:8324   */\n    tag_319:\n        /* \"#utility.yul\":8239:8244   */\n      0x00\n        /* \"#utility.yul\":8270:8276   */\n      dup2\n        /* \"#utility.yul\":8264:8277   */\n      mload\n        /* \"#utility.yul\":8255:8277   */\n      swap1\n      pop\n        /* \"#utility.yul\":8286:8318   */\n      tag_429\n        /* \"#utility.yul\":8312:8317   */\n      dup2\n        /* \"#utility.yul\":8286:8318   */\n      tag_318\n      jump\t// in\n    tag_429:\n        /* \"#utility.yul\":8183:8324   */\n      swap3\n      swap2\n      pop\n      pop\n      jump\t// out\n        /* \"#utility.yul\":8330:8473   */\n    tag_320:\n        /* \"#utility.yul\":8387:8392   */\n      0x00\n        /* \"#utility.yul\":8418:8424   */\n      dup2\n        /* \"#utility.yul\":8412:8425   */\n      mload\n        /* \"#utility.yul\":8403:8425   */\n      swap1\n      pop\n        /* \"#utility.yul\":8434:8467   */\n      tag_431\n        /* \"#utility.yul\":8461:8466   */\n      dup2\n        /* \"#utility.yul\":8434:8467   */\n      tag_304\n      jump\t// in\n    tag_431:\n        /* \"#utility.yul\":8330:8473   */\n      swap3\n      swap2\n      pop\n      pop\n      jump\t// out\n        /* \"#utility.yul\":8479:9450   */\n    tag_233:\n        /* \"#utility.yul\":8582:8588   */\n      0x00\n        /* \"#utility.yul\":8590:8596   */\n      dup1\n        /* \"#utility.yul\":8598:8604   */\n      0x00\n        /* \"#utility.yul\":8606:8612   */\n      dup1\n        /* \"#utility.yul\":8614:8620   */\n      0x00\n        /* \"#utility.yul\":8663:8666   */\n      0xa0\n        /* \"#utility.yul\":8651:8660   */\n      dup7\n        /* \"#utility.yul\":8642:8649   */\n      dup9\n        /* \"#utility.yul\":8638:8661   */\n      sub\n        /* \"#utility.yul\":8634:8667   */\n      slt\n        /* \"#utility.yul\":8631:8751   */\n      iszero\n      tag_433\n      jumpi\n        /* \"#utility.yul\":8670:8749   */\n      tag_434\n      tag_297\n      jump\t// in\n    tag_434:\n        /* \"#utility.yul\":8631:8751   */\n    tag_433:\n        /* \"#utility.yul\":8790:8791   */\n      0x00\n        /* \"#utility.yul\":8815:8878   */\n      tag_435\n        /* \"#utility.yul\":8870:8877   */\n      dup9\n        /* \"#utility.yul\":8861:8867   */\n      dup3\n        /* \"#utility.yul\":8850:8859   */\n      dup10\n        /* \"#utility.yul\":8846:8868   */\n      add\n        /* \"#utility.yul\":8815:8878   */\n      tag_316\n      jump\t// in\n    tag_435:\n        /* \"#utility.yul\":8805:8878   */\n      swap6\n      pop\n        /* \"#utility.yul\":8761:8888   */\n      pop\n        /* \"#utility.yul\":8927:8929   */\n      0x20\n        /* \"#utility.yul\":8953:9016   */\n      tag_436\n        /* \"#utility.yul\":9008:9015   */\n      dup9\n        /* \"#utility.yul\":8999:9005   */\n      dup3\n        /* \"#utility.yul\":8988:8997   */\n      dup10\n        /* \"#utility.yul\":8984:9006   */\n      add\n        /* \"#utility.yul\":8953:9016   */\n      tag_319\n      jump\t// in\n    tag_436:\n        /* \"#utility.yul\":8943:9016   */\n      swap5\n      pop\n        /* \"#utility.yul\":8898:9026   */\n      pop\n        /* \"#utility.yul\":9065:9067   */\n      0x40\n        /* \"#utility.yul\":9091:9155   */\n      tag_437\n        /* \"#utility.yul\":9147:9154   */\n      dup9\n        /* \"#utility.yul\":9138:9144   */\n      dup3\n        /* \"#utility.yul\":9127:9136   */\n      dup10\n        /* \"#utility.yul\":9123:9145   */\n      add\n        /* \"#utility.yul\":9091:9155   */\n      tag_320\n      jump\t// in\n    tag_437:\n        /* \"#utility.yul\":9081:9155   */\n      swap4\n      pop\n        /* \"#utility.yul\":9036:9165   */\n      pop\n        /* \"#utility.yul\":9204:9206   */\n      0x60\n        /* \"#utility.yul\":9230:9294   */\n      tag_438\n        /* \"#utility.yul\":9286:9293   */\n      dup9\n        /* \"#utility.yul\":9277:9283   */\n      dup3\n        /* \"#utility.yul\":9266:9275   */\n      dup10\n        /* \"#utility.yul\":9262:9284   */\n      add\n        /* \"#utility.yul\":9230:9294   */\n      tag_320\n      jump\t// in\n    tag_438:\n        /* \"#utility.yul\":9220:9294   */\n      swap3\n      pop\n        /* \"#utility.yul\":9175:9304   */\n      pop\n        /* \"#utility.yul\":9343:9346   */\n      0x80\n        /* \"#utility.yul\":9370:9433   */\n      tag_439\n        /* \"#utility.yul\":9425:9432   */\n      dup9\n        /* \"#utility.yul\":9416:9422   */\n      dup3\n        /* \"#utility.yul\":9405:9414   */\n      dup10\n        /* \"#utility.yul\":9401:9423   */\n      add\n        /* \"#utility.yul\":9370:9433   */\n      tag_316\n      jump\t// in\n    tag_439:\n        /* \"#utility.yul\":9360:9433   */\n      swap2\n      pop\n        /* \"#utility.yul\":9314:9443   */\n      pop\n        /* \"#utility.yul\":8479:9450   */\n      swap3\n      swap6\n      pop\n      swap3\n      swap6\n      swap1\n      swap4\n      pop\n      jump\t// out\n        /* \"#utility.yul\":9456:9866   */\n    tag_246:\n        /* \"#utility.yul\":9496:9503   */\n      0x00\n        /* \"#utility.yul\":9519:9539   */\n      tag_441\n        /* \"#utility.yul\":9537:9538   */\n      dup3\n        /* \"#utility.yul\":9519:9539   */\n      tag_294\n      jump\t// in\n    tag_441:\n        /* \"#utility.yul\":9514:9539   */\n      swap2\n      pop\n        /* \"#utility.yul\":9553:9573   */\n      tag_442\n        /* \"#utility.yul\":9571:9572   */\n      dup4\n        /* \"#utility.yul\":9553:9573   */\n      tag_294\n      jump\t// in\n    tag_442:\n        /* \"#utility.yul\":9548:9573   */\n      swap3\n      pop\n        /* \"#utility.yul\":9608:9609   */\n      dup3\n        /* \"#utility.yul\":9605:9606   */\n      dup3\n        /* \"#utility.yul\":9601:9610   */\n      mul\n        /* \"#utility.yul\":9630:9660   */\n      tag_443\n        /* \"#utility.yul\":9648:9659   */\n      dup2\n        /* \"#utility.yul\":9630:9660   */\n      tag_294\n      jump\t// in\n    tag_443:\n        /* \"#utility.yul\":9619:9660   */\n      swap2\n      pop\n        /* \"#utility.yul\":9809:9810   */\n      dup3\n        /* \"#utility.yul\":9800:9807   */\n      dup3\n        /* \"#utility.yul\":9796:9811   */\n      div\n        /* \"#utility.yul\":9793:9794   */\n      dup5\n        /* \"#utility.yul\":9790:9812   */\n      eq\n        /* \"#utility.yul\":9770:9771   */\n      dup4\n        /* \"#utility.yul\":9763:9772   */\n      iszero\n        /* \"#utility.yul\":9743:9826   */\n      or\n        /* \"#utility.yul\":9720:9859   */\n      tag_444\n      jumpi\n        /* \"#utility.yul\":9839:9857   */\n      tag_445\n      tag_313\n      jump\t// in\n    tag_445:\n        /* \"#utility.yul\":9720:9859   */\n    tag_444:\n        /* \"#utility.yul\":9504:9866   */\n      pop\n        /* \"#utility.yul\":9456:9866   */\n      swap3\n      swap2\n      pop\n      pop\n      jump\t// out\n        /* \"#utility.yul\":9872:10052   */\n    tag_321:\n        /* \"#utility.yul\":9920:9997   */\n      0x4e487b7100000000000000000000000000000000000000000000000000000000\n        /* \"#utility.yul\":9917:9918   */\n      0x00\n        /* \"#utility.yul\":9910:9998   */\n      mstore\n        /* \"#utility.yul\":10017:10021   */\n      0x12\n        /* \"#utility.yul\":10014:10015   */\n      0x04\n        /* \"#utility.yul\":10007:10022   */\n      mstore\n        /* \"#utility.yul\":10041:10045   */\n      0x24\n        /* \"#utility.yul\":10038:10039   */\n      0x00\n        /* \"#utility.yul\":10031:10046   */\n      revert\n        /* \"#utility.yul\":10058:10243   */\n    tag_248:\n        /* \"#utility.yul\":10098:10099   */\n      0x00\n        /* \"#utility.yul\":10115:10135   */\n      tag_448\n        /* \"#utility.yul\":10133:10134   */\n      dup3\n        /* \"#utility.yul\":10115:10135   */\n      tag_294\n      jump\t// in\n    tag_448:\n        /* \"#utility.yul\":10110:10135   */\n      swap2\n      pop\n        /* \"#utility.yul\":10149:10169   */\n      tag_449\n        /* \"#utility.yul\":10167:10168   */\n      dup4\n        /* \"#utility.yul\":10149:10169   */\n      tag_294\n      jump\t// in\n    tag_449:\n        /* \"#utility.yul\":10144:10169   */\n      swap3\n      pop\n        /* \"#utility.yul\":10188:10189   */\n      dup3\n        /* \"#utility.yul\":10178:10213   */\n      tag_450\n      jumpi\n        /* \"#utility.yul\":10193:10211   */\n      tag_451\n      tag_321\n      jump\t// in\n    tag_451:\n        /* \"#utility.yul\":10178:10213   */\n    tag_450:\n        /* \"#utility.yul\":10235:10236   */\n      dup3\n        /* \"#utility.yul\":10232:10233   */\n      dup3\n        /* \"#utility.yul\":10228:10237   */\n      div\n        /* \"#utility.yul\":10223:10237   */\n      swap1\n      pop\n        /* \"#utility.yul\":10058:10243   */\n      swap3\n      swap2\n      pop\n      pop\n      jump\t// out\n        /* \"#utility.yul\":10249:10581   */\n    tag_257:\n        /* \"#utility.yul\":10370:10374   */\n      0x00\n        /* \"#utility.yul\":10408:10410   */\n      0x40\n        /* \"#utility.yul\":10397:10406   */\n      dup3\n        /* \"#utility.yul\":10393:10411   */\n      add\n        /* \"#utility.yul\":10385:10411   */\n      swap1\n      pop\n        /* \"#utility.yul\":10421:10492   */\n      tag_453\n        /* \"#utility.yul\":10489:10490   */\n      0x00\n        /* \"#utility.yul\":10478:10487   */\n      dup4\n        /* \"#utility.yul\":10474:10491   */\n      add\n        /* \"#utility.yul\":10465:10471   */\n      dup6\n        /* \"#utility.yul\":10421:10492   */\n      tag_303\n      jump\t// in\n    tag_453:\n        /* \"#utility.yul\":10502:10574   */\n      tag_454\n        /* \"#utility.yul\":10570:10572   */\n      0x20\n        /* \"#utility.yul\":10559:10568   */\n      dup4\n        /* \"#utility.yul\":10555:10573   */\n      add\n        /* \"#utility.yul\":10546:10552   */\n      dup5\n        /* \"#utility.yul\":10502:10574   */\n      tag_295\n      jump\t// in\n    tag_454:\n        /* \"#utility.yul\":10249:10581   */\n      swap4\n      swap3\n      pop\n      pop\n      pop\n      jump\t// out\n        /* \"#utility.yul\":10587:10734   */\n    tag_322:\n        /* \"#utility.yul\":10688:10699   */\n      0x00\n        /* \"#utility.yul\":10725:10728   */\n      dup2\n        /* \"#utility.yul\":10710:10728   */\n      swap1\n      pop\n        /* \"#utility.yul\":10587:10734   */\n      swap3\n      swap2\n      pop\n      pop\n      jump\t// out\n        /* \"#utility.yul\":10740:10854   */\n    tag_323:\n      pop\n      jump\t// out\n        /* \"#utility.yul\":10860:11258   */\n    tag_324:\n        /* \"#utility.yul\":11019:11022   */\n      0x00\n        /* \"#utility.yul\":11040:11123   */\n      tag_458\n        /* \"#utility.yul\":11121:11122   */\n      0x00\n        /* \"#utility.yul\":11116:11119   */\n      dup4\n        /* \"#utility.yul\":11040:11123   */\n      tag_322\n      jump\t// in\n    tag_458:\n        /* \"#utility.yul\":11033:11123   */\n      swap2\n      pop\n        /* \"#utility.yul\":11132:11225   */\n      tag_459\n        /* \"#utility.yul\":11221:11224   */\n      dup3\n        /* \"#utility.yul\":11132:11225   */\n      tag_323\n      jump\t// in\n    tag_459:\n        /* \"#utility.yul\":11250:11251   */\n      0x00\n        /* \"#utility.yul\":11245:11248   */\n      dup3\n        /* \"#utility.yul\":11241:11252   */\n      add\n        /* \"#utility.yul\":11234:11252   */\n      swap1\n      pop\n        /* \"#utility.yul\":10860:11258   */\n      swap2\n      swap1\n      pop\n      jump\t// out\n        /* \"#utility.yul\":11264:11643   */\n    tag_269:\n        /* \"#utility.yul\":11448:11451   */\n      0x00\n        /* \"#utility.yul\":11470:11617   */\n      tag_461\n        /* \"#utility.yul\":11613:11616   */\n      dup3\n        /* \"#utility.yul\":11470:11617   */\n      tag_324\n      jump\t// in\n    tag_461:\n        /* \"#utility.yul\":11463:11617   */\n      swap2\n      pop\n        /* \"#utility.yul\":11634:11637   */\n      dup2\n        /* \"#utility.yul\":11627:11637   */\n      swap1\n      pop\n        /* \"#utility.yul\":11264:11643   */\n      swap2\n      swap1\n      pop\n      jump\t// out\n        /* \"#utility.yul\":11649:12091   */\n    tag_278:\n        /* \"#utility.yul\":11798:11802   */\n      0x00\n        /* \"#utility.yul\":11836:11838   */\n      0x60\n        /* \"#utility.yul\":11825:11834   */\n      dup3\n        /* \"#utility.yul\":11821:11839   */\n      add\n        /* \"#utility.yul\":11813:11839   */\n      swap1\n      pop\n        /* \"#utility.yul\":11849:11920   */\n      tag_463\n        /* \"#utility.yul\":11917:11918   */\n      0x00\n        /* \"#utility.yul\":11906:11915   */\n      dup4\n        /* \"#utility.yul\":11902:11919   */\n      add\n        /* \"#utility.yul\":11893:11899   */\n      dup7\n        /* \"#utility.yul\":11849:11920   */\n      tag_303\n      jump\t// in\n    tag_463:\n        /* \"#utility.yul\":11930:12002   */\n      tag_464\n        /* \"#utility.yul\":11998:12000   */\n      0x20\n        /* \"#utility.yul\":11987:11996   */\n      dup4\n        /* \"#utility.yul\":11983:12001   */\n      add\n        /* \"#utility.yul\":11974:11980   */\n      dup6\n        /* \"#utility.yul\":11930:12002   */\n      tag_303\n      jump\t// in\n    tag_464:\n        /* \"#utility.yul\":12012:12084   */\n      tag_465\n        /* \"#utility.yul\":12080:12082   */\n      0x40\n        /* \"#utility.yul\":12069:12078   */\n      dup4\n        /* \"#utility.yul\":12065:12083   */\n      add\n        /* \"#utility.yul\":12056:12062   */\n      dup5\n        /* \"#utility.yul\":12012:12084   */\n      tag_295\n      jump\t// in\n    tag_465:\n        /* \"#utility.yul\":11649:12091   */\n      swap5\n      swap4\n      pop\n      pop\n      pop\n      pop\n      jump\t// out\n\n    auxdata: 0xa2646970667358221220c84c9d786750627c3e0c10bbee081cb45fc0cbbbd6dee3c64065b109b698982464736f6c634300081a0033\n}\n",
				"bytecode": {
					"linkReferences": {},
					"object": "60e060405234801561000f575f80fd5b506040516128db3803806128db83398181016040528101906100319190610299565b805f73ffffffffffffffffffffffffffffffffffffffff168173ffffffffffffffffffffffffffffffffffffffff16036100a2575f6040517f1e4fbdf7000000000000000000000000000000000000000000000000000000008152600401610099919061031f565b60405180910390fd5b6100b18161014760201b60201c565b506001808190555084608081815250508360a081815250508260025f6101000a81548173ffffffffffffffffffffffffffffffffffffffff021916908373ffffffffffffffffffffffffffffffffffffffff1602179055508173ffffffffffffffffffffffffffffffffffffffff1660c08173ffffffffffffffffffffffffffffffffffffffff16815250505050505050610338565b5f805f9054906101000a900473ffffffffffffffffffffffffffffffffffffffff169050815f806101000a81548173ffffffffffffffffffffffffffffffffffffffff021916908373ffffffffffffffffffffffffffffffffffffffff1602179055508173ffffffffffffffffffffffffffffffffffffffff168173ffffffffffffffffffffffffffffffffffffffff167f8be0079c531659141344cd1fd0a4f28419497f9722a3daafe3b4186f6b6457e060405160405180910390a35050565b5f80fd5b5f819050919050565b61021e8161020c565b8114610228575f80fd5b50565b5f8151905061023981610215565b92915050565b5f73ffffffffffffffffffffffffffffffffffffffff82169050919050565b5f6102688261023f565b9050919050565b6102788161025e565b8114610282575f80fd5b50565b5f815190506102938161026f565b92915050565b5f805f805f60a086880312156102b2576102b1610208565b5b5f6102bf8882890161022b565b95505060206102d08882890161022b565b94505060406102e188828901610285565b93505060606102f288828901610285565b925050608061030388828901610285565b9150509295509295909350565b6103198161025e565b82525050565b5f6020820190506103325f830184610310565b92915050565b60805160a05160c0516125096103d25f395f818161085001528181610975015281816111d20152818161154601528181611886015261192e01525f81816107ae015281816107ed01528181610b8601528181610baf01528181610f5601528181610f7f01526115d001525f818161051c0152818161058d015281816105c6015281816112ac015281816112e501526115ad01526125095ff3fe60806040526004361061013f575f3560e01c80638da5cb5b116100b5578063d4289d891161006e578063d4289d891461040d578063d4b0d3ce14610438578063dccd58e314610462578063e98c66011461049e578063f2fde38b146104c8578063ff40e1d0146104f05761013f565b80638da5cb5b146102fd578063a86b0bf614610327578063abc9cd6d1461034f578063b9eb1c9a1461037f578063c3b5bc22146103a9578063d30451e7146103e55761013f565b806331f7d9641161010757806331f7d964146102075780633eaa00fb14610231578063501cb72d1461025b5780636a5f240714610297578063715018a6146102bf57806382fe54b5146102d55761013f565b80630ccee4331461014357806316a1930f1461016d5780632230c272146101775780632b513163146101a15780632fda583e146101cb575b5f80fd5b34801561014e575f80fd5b5061015761051a565b6040516101649190611eb0565b60405180910390f35b61017561053e565b005b348015610182575f80fd5b5061018b6107a5565b6040516101989190611eb0565b60405180910390f35b3480156101ac575f80fd5b506101b56107ab565b6040516101c29190611eb0565b60405180910390f35b3480156101d6575f80fd5b506101f160048036038101906101ec9190611f27565b6107d2565b6040516101fe9190611eb0565b60405180910390f35b348015610212575f80fd5b5061021b6107e7565b6040516102289190611f61565b60405180910390f35b34801561023c575f80fd5b506102456107eb565b6040516102529190611eb0565b60405180910390f35b348015610266575f80fd5b50610281600480360381019061027c9190611f27565b61080f565b60405161028e9190611eb0565b60405180910390f35b3480156102a2575f80fd5b506102bd60048036038101906102b89190611fa4565b610933565b005b3480156102ca575f80fd5b506102d3610dbc565b005b3480156102e0575f80fd5b506102fb60048036038101906102f69190611fe2565b610dcf565b005b348015610308575f80fd5b50610311611169565b60405161031e9190611f61565b60405180910390f35b348015610332575f80fd5b5061034d60048036038101906103489190611fa4565b611190565b005b34801561035a575f80fd5b506103636114f5565b604051610376979695949392919061200d565b60405180910390f35b34801561038a575f80fd5b506103936115fa565b6040516103a091906120d5565b60405180910390f35b3480156103b4575f80fd5b506103cf60048036038101906103ca91906120ee565b61161f565b6040516103dc9190611eb0565b60405180910390f35b3480156103f0575f80fd5b5061040b60048036038101906104069190611f27565b6116a1565b005b348015610418575f80fd5b5061042161172f565b60405161042f92919061212c565b60405180910390f35b348015610443575f80fd5b5061044c6117d4565b6040516104599190611eb0565b60405180910390f35b34801561046d575f80fd5b50610488600480360381019061048391906120ee565b6117da565b6040516104959190611eb0565b60405180910390f35b3480156104a9575f80fd5b506104b26117fa565b6040516104bf9190611eb0565b60405180910390f35b3480156104d3575f80fd5b506104ee60048036038101906104e99190611f27565b611800565b005b3480156104fb575f80fd5b50610504611884565b6040516105119190612173565b60405180910390f35b7f000000000000000000000000000000000000000000000000000000000000000081565b6105466118a8565b5f340361057f576040517fe729dc6400000000000000000000000000000000000000000000000000000000815260040160405180910390fd5b5f610589346118ee565b90507f0000000000000000000000000000000000000000000000000000000000000000816005546105ba91906121b9565b111561062357600554817f00000000000000000000000000000000000000000000000000000000000000006040517fc9fe79b800000000000000000000000000000000000000000000000000000000815260040161061a939291906121ec565b60405180910390fd5b8060035f3373ffffffffffffffffffffffffffffffffffffffff1673ffffffffffffffffffffffffffffffffffffffff1681526020019081526020015f205f8073ffffffffffffffffffffffffffffffffffffffff1673ffffffffffffffffffffffffffffffffffffffff1681526020019081526020015f205f8282546106aa91906121b9565b925050819055508060045f8073ffffffffffffffffffffffffffffffffffffffff1673ffffffffffffffffffffffffffffffffffffffff1681526020019081526020015f205f8282546106fd91906121b9565b925050819055508060055f82825461071591906121b9565b9250508190555060065f81548092919061072e90612221565b91905055505f73ffffffffffffffffffffffffffffffffffffffff163373ffffffffffffffffffffffffffffffffffffffff167f751f8b54c0e32ef5b9fafdbdac0c93c1994cc8848fa17ed7798bd90aae8bfe9b348460405161079292919061212c565b60405180910390a3506107a3611922565b565b60065481565b5f7f0000000000000000000000000000000000000000000000000000000000000000905090565b6004602052805f5260405f205f915090505481565b5f81565b7f000000000000000000000000000000000000000000000000000000000000000081565b5f60035f8373ffffffffffffffffffffffffffffffffffffffff1673ffffffffffffffffffffffffffffffffffffffff1681526020019081526020015f205f7f000000000000000000000000000000000000000000000000000000000000000073ffffffffffffffffffffffffffffffffffffffff1673ffffffffffffffffffffffffffffffffffffffff1681526020019081526020015f205460035f8473ffffffffffffffffffffffffffffffffffffffff1673ffffffffffffffffffffffffffffffffffffffff1681526020019081526020015f205f8073ffffffffffffffffffffffffffffffffffffffff1673ffffffffffffffffffffffffffffffffffffffff1681526020019081526020015f205461092c91906121b9565b9050919050565b61093b6118a8565b815f73ffffffffffffffffffffffffffffffffffffffff168173ffffffffffffffffffffffffffffffffffffffff16141580156109c457507f000000000000000000000000000000000000000000000000000000000000000073ffffffffffffffffffffffffffffffffffffffff168173ffffffffffffffffffffffffffffffffffffffff1614155b15610a0657806040517f2d5c07b90000000000000000000000000000000000000000000000000000000081526004016109fd9190611f61565b60405180910390fd5b815f8103610a40576040517fe729dc6400000000000000000000000000000000000000000000000000000000815260040160405180910390fd5b5f610a4b858561192b565b90508060035f3373ffffffffffffffffffffffffffffffffffffffff1673ffffffffffffffffffffffffffffffffffffffff1681526020019081526020015f205f8773ffffffffffffffffffffffffffffffffffffffff1673ffffffffffffffffffffffffffffffffffffffff1681526020019081526020015f20541015610b845760035f3373ffffffffffffffffffffffffffffffffffffffff1673ffffffffffffffffffffffffffffffffffffffff1681526020019081526020015f205f8673ffffffffffffffffffffffffffffffffffffffff1673ffffffffffffffffffffffffffffffffffffffff1681526020019081526020015f2054816040517f3b286365000000000000000000000000000000000000000000000000000000008152600401610b7b92919061212c565b60405180910390fd5b7f0000000000000000000000000000000000000000000000000000000000000000811115610c0b57807f00000000000000000000000000000000000000000000000000000000000000006040517fd1ecfb73000000000000000000000000000000000000000000000000000000008152600401610c0292919061212c565b60405180910390fd5b8060035f3373ffffffffffffffffffffffffffffffffffffffff1673ffffffffffffffffffffffffffffffffffffffff1681526020019081526020015f205f8773ffffffffffffffffffffffffffffffffffffffff1673ffffffffffffffffffffffffffffffffffffffff1681526020019081526020015f205f828254610c929190612268565b925050819055508060045f8773ffffffffffffffffffffffffffffffffffffffff1673ffffffffffffffffffffffffffffffffffffffff1681526020019081526020015f205f828254610ce59190612268565b925050819055508060055f828254610cfd9190612268565b9250508190555060075f815480929190610d1690612221565b91905055508473ffffffffffffffffffffffffffffffffffffffff163373ffffffffffffffffffffffffffffffffffffffff167fc6acb54bdd58af37c8d1b8bf2f1a561163c5191551bbd6e74cce66ff7b670c778684604051610d7a92919061212c565b60405180910390a3610dad33858773ffffffffffffffffffffffffffffffffffffffff166119ca9092919063ffffffff16565b505050610db8611922565b5050565b610dc4611a49565b610dcd5f611ad0565b565b610dd76118a8565b805f8103610e11576040517fe729dc6400000000000000000000000000000000000000000000000000000000815260040160405180910390fd5b5f610e1b836118ee565b90508060035f3373ffffffffffffffffffffffffffffffffffffffff1673ffffffffffffffffffffffffffffffffffffffff1681526020019081526020015f205f8073ffffffffffffffffffffffffffffffffffffffff1673ffffffffffffffffffffffffffffffffffffffff1681526020019081526020015f20541015610f545760035f3373ffffffffffffffffffffffffffffffffffffffff1673ffffffffffffffffffffffffffffffffffffffff1681526020019081526020015f205f8073ffffffffffffffffffffffffffffffffffffffff1673ffffffffffffffffffffffffffffffffffffffff1681526020019081526020015f2054816040517f3b286365000000000000000000000000000000000000000000000000000000008152600401610f4b92919061212c565b60405180910390fd5b7f0000000000000000000000000000000000000000000000000000000000000000811115610fdb57807f00000000000000000000000000000000000000000000000000000000000000006040517fd1ecfb73000000000000000000000000000000000000000000000000000000008152600401610fd292919061212c565b60405180910390fd5b8060035f3373ffffffffffffffffffffffffffffffffffffffff1673ffffffffffffffffffffffffffffffffffffffff1681526020019081526020015f205f8073ffffffffffffffffffffffffffffffffffffffff1673ffffffffffffffffffffffffffffffffffffffff1681526020019081526020015f205f8282546110629190612268565b925050819055508060045f8073ffffffffffffffffffffffffffffffffffffffff1673ffffffffffffffffffffffffffffffffffffffff1681526020019081526020015f205f8282546110b59190612268565b925050819055508060055f8282546110cd9190612268565b9250508190555060075f8154809291906110e690612221565b91905055505f73ffffffffffffffffffffffffffffffffffffffff163373ffffffffffffffffffffffffffffffffffffffff167fc6acb54bdd58af37c8d1b8bf2f1a561163c5191551bbd6e74cce66ff7b670c77858460405161114a92919061212c565b60405180910390a361115c3384611b91565b5050611166611922565b50565b5f805f9054906101000a900473ffffffffffffffffffffffffffffffffffffffff16905090565b6111986118a8565b815f73ffffffffffffffffffffffffffffffffffffffff168173ffffffffffffffffffffffffffffffffffffffff161415801561122157507f000000000000000000000000000000000000000000000000000000000000000073ffffffffffffffffffffffffffffffffffffffff168173ffffffffffffffffffffffffffffffffffffffff1614155b1561126357806040517f2d5c07b900000000000000000000000000000000000000000000000000000000815260040161125a9190611f61565b60405180910390fd5b815f810361129d576040517fe729dc6400000000000000000000000000000000000000000000000000000000815260040160405180910390fd5b5f6112a8858561192b565b90507f0000000000000000000000000000000000000000000000000000000000000000816005546112d991906121b9565b111561134257600554817f00000000000000000000000000000000000000000000000000000000000000006040517fc9fe79b8000000000000000000000000000000000000000000000000000000008152600401611339939291906121ec565b60405180910390fd5b8060035f3373ffffffffffffffffffffffffffffffffffffffff1673ffffffffffffffffffffffffffffffffffffffff1681526020019081526020015f205f8773ffffffffffffffffffffffffffffffffffffffff1673ffffffffffffffffffffffffffffffffffffffff1681526020019081526020015f205f8282546113c991906121b9565b925050819055508060045f8773ffffffffffffffffffffffffffffffffffffffff1673ffffffffffffffffffffffffffffffffffffffff1681526020019081526020015f205f82825461141c91906121b9565b925050819055508060055f82825461143491906121b9565b9250508190555060065f81548092919061144d90612221565b91905055508473ffffffffffffffffffffffffffffffffffffffff163373ffffffffffffffffffffffffffffffffffffffff167f751f8b54c0e32ef5b9fafdbdac0c93c1994cc8848fa17ed7798bd90aae8bfe9b86846040516114b192919061212c565b60405180910390a36114e63330868873ffffffffffffffffffffffffffffffffffffffff16611c40909392919063ffffffff16565b5050506114f1611922565b5050565b5f805f805f805f600554965060045f8073ffffffffffffffffffffffffffffffffffffffff1673ffffffffffffffffffffffffffffffffffffffff1681526020019081526020015f2054955060045f7f000000000000000000000000000000000000000000000000000000000000000073ffffffffffffffffffffffffffffffffffffffff1673ffffffffffffffffffffffffffffffffffffffff1681526020019081526020015f20549450600654935060075492507f000000000000000000000000000000000000000000000000000000000000000091507f0000000000000000000000000000000000000000000000000000000000000000905090919293949596565b60025f9054906101000a900473ffffffffffffffffffffffffffffffffffffffff1681565b5f60035f8473ffffffffffffffffffffffffffffffffffffffff1673ffffffffffffffffffffffffffffffffffffffff1681526020019081526020015f205f8373ffffffffffffffffffffffffffffffffffffffff1673ffffffffffffffffffffffffffffffffffffffff1681526020019081526020015f2054905092915050565b6116a9611a49565b8060025f6101000a81548173ffffffffffffffffffffffffffffffffffffffff021916908373ffffffffffffffffffffffffffffffffffffffff1602179055508073ffffffffffffffffffffffffffffffffffffffff167f2b87a7a05493a7865dadc5afbb6cedfda3c32f20196d8f45314afa7b32b9401260405160405180910390a250565b5f805f8060025f9054906101000a900473ffffffffffffffffffffffffffffffffffffffff1673ffffffffffffffffffffffffffffffffffffffff1663feaf968c6040518163ffffffff1660e01b815260040160a060405180830381865afa15801561179d573d5f803e3d5ffd5b505050506040513d601f19601f820116820180604052508101906117c19190612321565b5093505092505081935080925050509091565b60075481565b6003602052815f5260405f20602052805f5260405f205f91509150505481565b60055481565b611808611a49565b5f73ffffffffffffffffffffffffffffffffffffffff168173ffffffffffffffffffffffffffffffffffffffff1603611878575f6040517f1e4fbdf700000000000000000000000000000000000000000000000000000000815260040161186f9190611f61565b60405180910390fd5b61188181611ad0565b50565b7f000000000000000000000000000000000000000000000000000000000000000081565b6002600154036118e4576040517f3ee5aeb500000000000000000000000000000000000000000000000000000000815260040160405180910390fd5b6002600181905550565b5f806118f8611cc2565b905068056bc75e2d6310000081846119109190612398565b61191a9190612406565b915050919050565b60018081905550565b5f7f000000000000000000000000000000000000000000000000000000000000000073ffffffffffffffffffffffffffffffffffffffff168373ffffffffffffffffffffffffffffffffffffffff1603611987578190506119c4565b826040517f2d5c07b90000000000000000000000000000000000000000000000000000000081526004016119bb9190611f61565b60405180910390fd5b92915050565b611a44838473ffffffffffffffffffffffffffffffffffffffff1663a9059cbb85856040516024016119fd929190612436565b604051602081830303815290604052915060e01b6020820180517bffffffffffffffffffffffffffffffffffffffffffffffffffffffff8381831617835250505050611df6565b505050565b611a51611e91565b73ffffffffffffffffffffffffffffffffffffffff16611a6f611169565b73ffffffffffffffffffffffffffffffffffffffff1614611ace57611a92611e91565b6040517f118cdaa7000000000000000000000000000000000000000000000000000000008152600401611ac59190611f61565b60405180910390fd5b565b5f805f9054906101000a900473ffffffffffffffffffffffffffffffffffffffff169050815f806101000a81548173ffffffffffffffffffffffffffffffffffffffff021916908373ffffffffffffffffffffffffffffffffffffffff1602179055508173ffffffffffffffffffffffffffffffffffffffff168173ffffffffffffffffffffffffffffffffffffffff167f8be0079c531659141344cd1fd0a4f28419497f9722a3daafe3b4186f6b6457e060405160405180910390a35050565b5f8273ffffffffffffffffffffffffffffffffffffffff1682604051611bb69061248a565b5f6040518083038185875af1925050503d805f8114611bf0576040519150601f19603f3d011682016040523d82523d5f602084013e611bf5565b606091505b5050905080611c3b57826040517f71404a42000000000000000000000000000000000000000000000000000000008152600401611c329190611f61565b60405180910390fd5b505050565b611cbc848573ffffffffffffffffffffffffffffffffffffffff166323b872dd868686604051602401611c759392919061249e565b604051602081830303815290604052915060e01b6020820180517bffffffffffffffffffffffffffffffffffffffffffffffffffffffff8381831617835250505050611df6565b50505050565b5f805f60025f9054906101000a900473ffffffffffffffffffffffffffffffffffffffff1673ffffffffffffffffffffffffffffffffffffffff1663feaf968c6040518163ffffffff1660e01b815260040160a060405180830381865afa158015611d2f573d5f803e3d5ffd5b505050506040513d601f19601f82011682018060405250810190611d539190612321565b509350509250505f8213611d93576040517f63f585c200000000000000000000000000000000000000000000000000000000815260040160405180910390fd5b5f8142611da09190612268565b9050610e10811115611ded5780610e106040517f74937df3000000000000000000000000000000000000000000000000000000008152600401611de492919061212c565b60405180910390fd5b82935050505090565b5f8060205f8451602086015f885af180611e15576040513d5f823e3d81fd5b3d92505f519150505f8214611e2e576001811415611e49565b5f8473ffffffffffffffffffffffffffffffffffffffff163b145b15611e8b57836040517f5274afe7000000000000000000000000000000000000000000000000000000008152600401611e829190611f61565b60405180910390fd5b50505050565b5f33905090565b5f819050919050565b611eaa81611e98565b82525050565b5f602082019050611ec35f830184611ea1565b92915050565b5f80fd5b5f73ffffffffffffffffffffffffffffffffffffffff82169050919050565b5f611ef682611ecd565b9050919050565b611f0681611eec565b8114611f10575f80fd5b50565b5f81359050611f2181611efd565b92915050565b5f60208284031215611f3c57611f3b611ec9565b5b5f611f4984828501611f13565b91505092915050565b611f5b81611eec565b82525050565b5f602082019050611f745f830184611f52565b92915050565b611f8381611e98565b8114611f8d575f80fd5b50565b5f81359050611f9e81611f7a565b92915050565b5f8060408385031215611fba57611fb9611ec9565b5b5f611fc785828601611f13565b9250506020611fd885828601611f90565b9150509250929050565b5f60208284031215611ff757611ff6611ec9565b5b5f61200484828501611f90565b91505092915050565b5f60e0820190506120205f83018a611ea1565b61202d6020830189611ea1565b61203a6040830188611ea1565b6120476060830187611ea1565b6120546080830186611ea1565b61206160a0830185611ea1565b61206e60c0830184611ea1565b98975050505050505050565b5f819050919050565b5f61209d61209861209384611ecd565b61207a565b611ecd565b9050919050565b5f6120ae82612083565b9050919050565b5f6120bf826120a4565b9050919050565b6120cf816120b5565b82525050565b5f6020820190506120e85f8301846120c6565b92915050565b5f806040838503121561210457612103611ec9565b5b5f61211185828601611f13565b925050602061212285828601611f13565b9150509250929050565b5f60408201905061213f5f830185611ea1565b61214c6020830184611ea1565b9392505050565b5f61215d826120a4565b9050919050565b61216d81612153565b82525050565b5f6020820190506121865f830184612164565b92915050565b7f4e487b71000000000000000000000000000000000000000000000000000000005f52601160045260245ffd5b5f6121c382611e98565b91506121ce83611e98565b92508282019050808211156121e6576121e561218c565b5b92915050565b5f6060820190506121ff5f830186611ea1565b61220c6020830185611ea1565b6122196040830184611ea1565b949350505050565b5f61222b82611e98565b91507fffffffffffffffffffffffffffffffffffffffffffffffffffffffffffffffff820361225d5761225c61218c565b5b600182019050919050565b5f61227282611e98565b915061227d83611e98565b92508282039050818111156122955761229461218c565b5b92915050565b5f69ffffffffffffffffffff82169050919050565b6122b98161229b565b81146122c3575f80fd5b50565b5f815190506122d4816122b0565b92915050565b5f819050919050565b6122ec816122da565b81146122f6575f80fd5b50565b5f81519050612307816122e3565b92915050565b5f8151905061231b81611f7a565b92915050565b5f805f805f60a0868803121561233a57612339611ec9565b5b5f612347888289016122c6565b9550506020612358888289016122f9565b94505060406123698882890161230d565b935050606061237a8882890161230d565b925050608061238b888289016122c6565b9150509295509295909350565b5f6123a282611e98565b91506123ad83611e98565b92508282026123bb81611e98565b915082820484148315176123d2576123d161218c565b5b5092915050565b7f4e487b71000000000000000000000000000000000000000000000000000000005f52601260045260245ffd5b5f61241082611e98565b915061241b83611e98565b92508261242b5761242a6123d9565b5b828204905092915050565b5f6040820190506124495f830185611f52565b6124566020830184611ea1565b9392505050565b5f81905092915050565b50565b5f6124755f8361245d565b915061248082612467565b5f82019050919050565b5f6124948261246a565b9150819050919050565b5f6060820190506124b15f830186611f52565b6124be6020830185611f52565b6124cb6040830184611ea1565b94935050505056fea2646970667358221220c84c9d786750627c3e0c10bbee081cb45fc0cbbbd6dee3c64065b109b698982464736f6c634300081a0033",
					"opcodes": "PUSH1 0xE0 PUSH1 0x40 MSTORE CALLVALUE DUP1 ISZERO PUSH2 0xF JUMPI PUSH0 DUP1 REVERT JUMPDEST POP PUSH1 0x40 MLOAD PUSH2 0x28DB CODESIZE SUB DUP1 PUSH2 0x28DB DUP4 CODECOPY DUP2 DUP2 ADD PUSH1 0x40 MSTORE DUP2 ADD SWAP1 PUSH2 0x31 SWAP2 SWAP1 PUSH2 0x299 JUMP JUMPDEST DUP1 PUSH0 PUSH20 0xFFFFFFFFFFFFFFFFFFFFFFFFFFFFFFFFFFFFFFFF AND DUP2 PUSH20 0xFFFFFFFFFFFFFFFFFFFFFFFFFFFFFFFFFFFFFFFF AND SUB PUSH2 0xA2 JUMPI PUSH0 PUSH1 0x40 MLOAD PUSH32 0x1E4FBDF700000000000000000000000000000000000000000000000000000000 DUP2 MSTORE PUSH1 0x4 ADD PUSH2 0x99 SWAP2 SWAP1 PUSH2 0x31F JUMP JUMPDEST PUSH1 0x40 MLOAD DUP1 SWAP2 SUB SWAP1 REVERT JUMPDEST PUSH2 0xB1 DUP2 PUSH2 0x147 PUSH1 0x20 SHL PUSH1 0x20 SHR JUMP JUMPDEST POP PUSH1 0x1 DUP1 DUP2 SWAP1 SSTORE POP DUP5 PUSH1 0x80 DUP2 DUP2 MSTORE POP POP DUP4 PUSH1 0xA0 DUP2 DUP2 MSTORE POP POP DUP3 PUSH1 0x2 PUSH0 PUSH2 0x100 EXP DUP2 SLOAD DUP2 PUSH20 0xFFFFFFFFFFFFFFFFFFFFFFFFFFFFFFFFFFFFFFFF MUL NOT AND SWAP1 DUP4 PUSH20 0xFFFFFFFFFFFFFFFFFFFFFFFFFFFFFFFFFFFFFFFF AND MUL OR SWAP1 SSTORE POP DUP2 PUSH20 0xFFFFFFFFFFFFFFFFFFFFFFFFFFFFFFFFFFFFFFFF AND PUSH1 0xC0 DUP2 PUSH20 0xFFFFFFFFFFFFFFFFFFFFFFFFFFFFFFFFFFFFFFFF AND DUP2 MSTORE POP POP POP POP POP POP POP PUSH2 0x338 JUMP JUMPDEST PUSH0 DUP1 PUSH0 SWAP1 SLOAD SWAP1 PUSH2 0x100 EXP SWAP1 DIV PUSH20 0xFFFFFFFFFFFFFFFFFFFFFFFFFFFFFFFFFFFFFFFF AND SWAP1 POP DUP2 PUSH0 DUP1 PUSH2 0x100 EXP DUP2 SLOAD DUP2 PUSH20 0xFFFFFFFFFFFFFFFFFFFFFFFFFFFFFFFFFFFFFFFF MUL NOT AND SWAP1 DUP4 PUSH20 0xFFFFFFFFFFFFFFFFFFFFFFFFFFFFFFFFFFFFFFFF AND MUL OR SWAP1 SSTORE POP DUP2 PUSH20 0xFFFFFFFFFFFFFFFFFFFFFFFFFFFFFFFFFFFFFFFF AND DUP2 PUSH20 0xFFFFFFFFFFFFFFFFFFFFFFFFFFFFFFFFFFFFFFFF AND PUSH32 0x8BE0079C531659141344CD1FD0A4F28419497F9722A3DAAFE3B4186F6B6457E0 PUSH1 0x40 MLOAD PUSH1 0x40 MLOAD DUP1 SWAP2 SUB SWAP1 LOG3 POP POP JUMP JUMPDEST PUSH0 DUP1 REVERT JUMPDEST PUSH0 DUP2 SWAP1 POP SWAP2 SWAP1 POP JUMP JUMPDEST PUSH2 0x21E DUP2 PUSH2 0x20C JUMP JUMPDEST DUP2 EQ PUSH2 0x228 JUMPI PUSH0 DUP1 REVERT JUMPDEST POP JUMP JUMPDEST PUSH0 DUP2 MLOAD SWAP1 POP PUSH2 0x239 DUP2 PUSH2 0x215 JUMP JUMPDEST SWAP3 SWAP2 POP POP JUMP JUMPDEST PUSH0 PUSH20 0xFFFFFFFFFFFFFFFFFFFFFFFFFFFFFFFFFFFFFFFF DUP3 AND SWAP1 POP SWAP2 SWAP1 POP JUMP JUMPDEST PUSH0 PUSH2 0x268 DUP3 PUSH2 0x23F JUMP JUMPDEST SWAP1 POP SWAP2 SWAP1 POP JUMP JUMPDEST PUSH2 0x278 DUP2 PUSH2 0x25E JUMP JUMPDEST DUP2 EQ PUSH2 0x282 JUMPI PUSH0 DUP1 REVERT JUMPDEST POP JUMP JUMPDEST PUSH0 DUP2 MLOAD SWAP1 POP PUSH2 0x293 DUP2 PUSH2 0x26F JUMP JUMPDEST SWAP3 SWAP2 POP POP JUMP JUMPDEST PUSH0 DUP1 PUSH0 DUP1 PUSH0 PUSH1 0xA0 DUP7 DUP9 SUB SLT ISZERO PUSH2 0x2B2 JUMPI PUSH2 0x2B1 PUSH2 0x208 JUMP JUMPDEST JUMPDEST PUSH0 PUSH2 0x2BF DUP9 DUP3 DUP10 ADD PUSH2 0x22B JUMP JUMPDEST SWAP6 POP POP PUSH1 0x20 PUSH2 0x2D0 DUP9 DUP3 DUP10 ADD PUSH2 0x22B JUMP JUMPDEST SWAP5 POP POP PUSH1 0x40 PUSH2 0x2E1 DUP9 DUP3 DUP10 ADD PUSH2 0x285 JUMP JUMPDEST SWAP4 POP POP PUSH1 0x60 PUSH2 0x2F2 DUP9 DUP3 DUP10 ADD PUSH2 0x285 JUMP JUMPDEST SWAP3 POP POP PUSH1 0x80 PUSH2 0x303 DUP9 DUP3 DUP10 ADD PUSH2 0x285 JUMP JUMPDEST SWAP2 POP POP SWAP3 SWAP6 POP SWAP3 SWAP6 SWAP1 SWAP4 POP JUMP JUMPDEST PUSH2 0x319 DUP2 PUSH2 0x25E JUMP JUMPDEST DUP3 MSTORE POP POP JUMP JUMPDEST PUSH0 PUSH1 0x20 DUP3 ADD SWAP1 POP PUSH2 0x332 PUSH0 DUP4 ADD DUP5 PUSH2 0x310 JUMP JUMPDEST SWAP3 SWAP2 POP POP JUMP JUMPDEST PUSH1 0x80 MLOAD PUSH1 0xA0 MLOAD PUSH1 0xC0 MLOAD PUSH2 0x2509 PUSH2 0x3D2 PUSH0 CODECOPY PUSH0 DUP2 DUP2 PUSH2 0x850 ADD MSTORE DUP2 DUP2 PUSH2 0x975 ADD MSTORE DUP2 DUP2 PUSH2 0x11D2 ADD MSTORE DUP2 DUP2 PUSH2 0x1546 ADD MSTORE DUP2 DUP2 PUSH2 0x1886 ADD MSTORE PUSH2 0x192E ADD MSTORE PUSH0 DUP2 DUP2 PUSH2 0x7AE ADD MSTORE DUP2 DUP2 PUSH2 0x7ED ADD MSTORE DUP2 DUP2 PUSH2 0xB86 ADD MSTORE DUP2 DUP2 PUSH2 0xBAF ADD MSTORE DUP2 DUP2 PUSH2 0xF56 ADD MSTORE DUP2 DUP2 PUSH2 0xF7F ADD MSTORE PUSH2 0x15D0 ADD MSTORE PUSH0 DUP2 DUP2 PUSH2 0x51C ADD MSTORE DUP2 DUP2 PUSH2 0x58D ADD MSTORE DUP2 DUP2 PUSH2 0x5C6 ADD MSTORE DUP2 DUP2 PUSH2 0x12AC ADD MSTORE DUP2 DUP2 PUSH2 0x12E5 ADD MSTORE PUSH2 0x15AD ADD MSTORE PUSH2 0x2509 PUSH0 RETURN INVALID PUSH1 0x80 PUSH1 0x40 MSTORE PUSH1 0x4 CALLDATASIZE LT PUSH2 0x13F JUMPI PUSH0 CALLDATALOAD PUSH1 0xE0 SHR DUP1 PUSH4 0x8DA5CB5B GT PUSH2 0xB5 JUMPI DUP1 PUSH4 0xD4289D89 GT PUSH2 0x6E JUMPI DUP1 PUSH4 0xD4289D89 EQ PUSH2 0x40D JUMPI DUP1 PUSH4 0xD4B0D3CE EQ PUSH2 0x438 JUMPI DUP1 PUSH4 0xDCCD58E3 EQ PUSH2 0x462 JUMPI DUP1 PUSH4 0xE98C6601 EQ PUSH2 0x49E JUMPI DUP1 PUSH4 0xF2FDE38B EQ PUSH2 0x4C8 JUMPI DUP1 PUSH4 0xFF40E1D0 EQ PUSH2 0x4F0 JUMPI PUSH2 0x13F JUMP JUMPDEST DUP1 PUSH4 0x8DA5CB5B EQ PUSH2 0x2FD JUMPI DUP1 PUSH4 0xA86B0BF6 EQ PUSH2 0x327 JUMPI DUP1 PUSH4 0xABC9CD6D EQ PUSH2 0x34F JUMPI DUP1 PUSH4 0xB9EB1C9A EQ PUSH2 0x37F JUMPI DUP1 PUSH4 0xC3B5BC22 EQ PUSH2 0x3A9 JUMPI DUP1 PUSH4 0xD30451E7 EQ PUSH2 0x3E5 JUMPI PUSH2 0x13F JUMP JUMPDEST DUP1 PUSH4 0x31F7D964 GT PUSH2 0x107 JUMPI DUP1 PUSH4 0x31F7D964 EQ PUSH2 0x207 JUMPI DUP1 PUSH4 0x3EAA00FB EQ PUSH2 0x231 JUMPI DUP1 PUSH4 0x501CB72D EQ PUSH2 0x25B JUMPI DUP1 PUSH4 0x6A5F2407 EQ PUSH2 0x297 JUMPI DUP1 PUSH4 0x715018A6 EQ PUSH2 0x2BF JUMPI DUP1 PUSH4 0x82FE54B5 EQ PUSH2 0x2D5 JUMPI PUSH2 0x13F JUMP JUMPDEST DUP1 PUSH4 0xCCEE433 EQ PUSH2 0x143 JUMPI DUP1 PUSH4 0x16A1930F EQ PUSH2 0x16D JUMPI DUP1 PUSH4 0x2230C272 EQ PUSH2 0x177 JUMPI DUP1 PUSH4 0x2B513163 EQ PUSH2 0x1A1 JUMPI DUP1 PUSH4 0x2FDA583E EQ PUSH2 0x1CB JUMPI JUMPDEST PUSH0 DUP1 REVERT JUMPDEST CALLVALUE DUP1 ISZERO PUSH2 0x14E JUMPI PUSH0 DUP1 REVERT JUMPDEST POP PUSH2 0x157 PUSH2 0x51A JUMP JUMPDEST PUSH1 0x40 MLOAD PUSH2 0x164 SWAP2 SWAP1 PUSH2 0x1EB0 JUMP JUMPDEST PUSH1 0x40 MLOAD DUP1 SWAP2 SUB SWAP1 RETURN JUMPDEST PUSH2 0x175 PUSH2 0x53E JUMP JUMPDEST STOP JUMPDEST CALLVALUE DUP1 ISZERO PUSH2 0x182 JUMPI PUSH0 DUP1 REVERT JUMPDEST POP PUSH2 0x18B PUSH2 0x7A5 JUMP JUMPDEST PUSH1 0x40 MLOAD PUSH2 0x198 SWAP2 SWAP1 PUSH2 0x1EB0 JUMP JUMPDEST PUSH1 0x40 MLOAD DUP1 SWAP2 SUB SWAP1 RETURN JUMPDEST CALLVALUE DUP1 ISZERO PUSH2 0x1AC JUMPI PUSH0 DUP1 REVERT JUMPDEST POP PUSH2 0x1B5 PUSH2 0x7AB JUMP JUMPDEST PUSH1 0x40 MLOAD PUSH2 0x1C2 SWAP2 SWAP1 PUSH2 0x1EB0 JUMP JUMPDEST PUSH1 0x40 MLOAD DUP1 SWAP2 SUB SWAP1 RETURN JUMPDEST CALLVALUE DUP1 ISZERO PUSH2 0x1D6 JUMPI PUSH0 DUP1 REVERT JUMPDEST POP PUSH2 0x1F1 PUSH1 0x4 DUP1 CALLDATASIZE SUB DUP2 ADD SWAP1 PUSH2 0x1EC SWAP2 SWAP1 PUSH2 0x1F27 JUMP JUMPDEST PUSH2 0x7D2 JUMP JUMPDEST PUSH1 0x40 MLOAD PUSH2 0x1FE SWAP2 SWAP1 PUSH2 0x1EB0 JUMP JUMPDEST PUSH1 0x40 MLOAD DUP1 SWAP2 SUB SWAP1 RETURN JUMPDEST CALLVALUE DUP1 ISZERO PUSH2 0x212 JUMPI PUSH0 DUP1 REVERT JUMPDEST POP PUSH2 0x21B PUSH2 0x7E7 JUMP JUMPDEST PUSH1 0x40 MLOAD PUSH2 0x228 SWAP2 SWAP1 PUSH2 0x1F61 JUMP JUMPDEST PUSH1 0x40 MLOAD DUP1 SWAP2 SUB SWAP1 RETURN JUMPDEST CALLVALUE DUP1 ISZERO PUSH2 0x23C JUMPI PUSH0 DUP1 REVERT JUMPDEST POP PUSH2 0x245 PUSH2 0x7EB JUMP JUMPDEST PUSH1 0x40 MLOAD PUSH2 0x252 SWAP2 SWAP1 PUSH2 0x1EB0 JUMP JUMPDEST PUSH1 0x40 MLOAD DUP1 SWAP2 SUB SWAP1 RETURN JUMPDEST CALLVALUE DUP1 ISZERO PUSH2 0x266 JUMPI PUSH0 DUP1 REVERT JUMPDEST POP PUSH2 0x281 PUSH1 0x4 DUP1 CALLDATASIZE SUB DUP2 ADD SWAP1 PUSH2 0x27C SWAP2 SWAP1 PUSH2 0x1F27 JUMP JUMPDEST PUSH2 0x80F JUMP JUMPDEST PUSH1 0x40 MLOAD PUSH2 0x28E SWAP2 SWAP1 PUSH2 0x1EB0 JUMP JUMPDEST PUSH1 0x40 MLOAD DUP1 SWAP2 SUB SWAP1 RETURN JUMPDEST CALLVALUE DUP1 ISZERO PUSH2 0x2A2 JUMPI PUSH0 DUP1 REVERT JUMPDEST POP PUSH2 0x2BD PUSH1 0x4 DUP1 CALLDATASIZE SUB DUP2 ADD SWAP1 PUSH2 0x2B8 SWAP2 SWAP1 PUSH2 0x1FA4 JUMP JUMPDEST PUSH2 0x933 JUMP JUMPDEST STOP JUMPDEST CALLVALUE DUP1 ISZERO PUSH2 0x2CA JUMPI PUSH0 DUP1 REVERT JUMPDEST POP PUSH2 0x2D3 PUSH2 0xDBC JUMP JUMPDEST STOP JUMPDEST CALLVALUE DUP1 ISZERO PUSH2 0x2E0 JUMPI PUSH0 DUP1 REVERT JUMPDEST POP PUSH2 0x2FB PUSH1 0x4 DUP1 CALLDATASIZE SUB DUP2 ADD SWAP1 PUSH2 0x2F6 SWAP2 SWAP1 PUSH2 0x1FE2 JUMP JUMPDEST PUSH2 0xDCF JUMP JUMPDEST STOP JUMPDEST CALLVALUE DUP1 ISZERO PUSH2 0x308 JUMPI PUSH0 DUP1 REVERT JUMPDEST POP PUSH2 0x311 PUSH2 0x1169 JUMP JUMPDEST PUSH1 0x40 MLOAD PUSH2 0x31E SWAP2 SWAP1 PUSH2 0x1F61 JUMP JUMPDEST PUSH1 0x40 MLOAD DUP1 SWAP2 SUB SWAP1 RETURN JUMPDEST CALLVALUE DUP1 ISZERO PUSH2 0x332 JUMPI PUSH0 DUP1 REVERT JUMPDEST POP PUSH2 0x34D PUSH1 0x4 DUP1 CALLDATASIZE SUB DUP2 ADD SWAP1 PUSH2 0x348 SWAP2 SWAP1 PUSH2 0x1FA4 JUMP JUMPDEST PUSH2 0x1190 JUMP JUMPDEST STOP JUMPDEST CALLVALUE DUP1 ISZERO PUSH2 0x35A JUMPI PUSH0 DUP1 REVERT JUMPDEST POP PUSH2 0x363 PUSH2 0x14F5 JUMP JUMPDEST PUSH1 0x40 MLOAD PUSH2 0x376 SWAP8 SWAP7 SWAP6 SWAP5 SWAP4 SWAP3 SWAP2 SWAP1 PUSH2 0x200D JUMP JUMPDEST PUSH1 0x40 MLOAD DUP1 SWAP2 SUB SWAP1 RETURN JUMPDEST CALLVALUE DUP1 ISZERO PUSH2 0x38A JUMPI PUSH0 DUP1 REVERT JUMPDEST POP PUSH2 0x393 PUSH2 0x15FA JUMP JUMPDEST PUSH1 0x40 MLOAD PUSH2 0x3A0 SWAP2 SWAP1 PUSH2 0x20D5 JUMP JUMPDEST PUSH1 0x40 MLOAD DUP1 SWAP2 SUB SWAP1 RETURN JUMPDEST CALLVALUE DUP1 ISZERO PUSH2 0x3B4 JUMPI PUSH0 DUP1 REVERT JUMPDEST POP PUSH2 0x3CF PUSH1 0x4 DUP1 CALLDATASIZE SUB DUP2 ADD SWAP1 PUSH2 0x3CA SWAP2 SWAP1 PUSH2 0x20EE JUMP JUMPDEST PUSH2 0x161F JUMP JUMPDEST PUSH1 0x40 MLOAD PUSH2 0x3DC SWAP2 SWAP1 PUSH2 0x1EB0 JUMP JUMPDEST PUSH1 0x40 MLOAD DUP1 SWAP2 SUB SWAP1 RETURN JUMPDEST CALLVALUE DUP1 ISZERO PUSH2 0x3F0 JUMPI PUSH0 DUP1 REVERT JUMPDEST POP PUSH2 0x40B PUSH1 0x4 DUP1 CALLDATASIZE SUB DUP2 ADD SWAP1 PUSH2 0x406 SWAP2 SWAP1 PUSH2 0x1F27 JUMP JUMPDEST PUSH2 0x16A1 JUMP JUMPDEST STOP JUMPDEST CALLVALUE DUP1 ISZERO PUSH2 0x418 JUMPI PUSH0 DUP1 REVERT JUMPDEST POP PUSH2 0x421 PUSH2 0x172F JUMP JUMPDEST PUSH1 0x40 MLOAD PUSH2 0x42F SWAP3 SWAP2 SWAP1 PUSH2 0x212C JUMP JUMPDEST PUSH1 0x40 MLOAD DUP1 SWAP2 SUB SWAP1 RETURN JUMPDEST CALLVALUE DUP1 ISZERO PUSH2 0x443 JUMPI PUSH0 DUP1 REVERT JUMPDEST POP PUSH2 0x44C PUSH2 0x17D4 JUMP JUMPDEST PUSH1 0x40 MLOAD PUSH2 0x459 SWAP2 SWAP1 PUSH2 0x1EB0 JUMP JUMPDEST PUSH1 0x40 MLOAD DUP1 SWAP2 SUB SWAP1 RETURN JUMPDEST CALLVALUE DUP1 ISZERO PUSH2 0x46D JUMPI PUSH0 DUP1 REVERT JUMPDEST POP PUSH2 0x488 PUSH1 0x4 DUP1 CALLDATASIZE SUB DUP2 ADD SWAP1 PUSH2 0x483 SWAP2 SWAP1 PUSH2 0x20EE JUMP JUMPDEST PUSH2 0x17DA JUMP JUMPDEST PUSH1 0x40 MLOAD PUSH2 0x495 SWAP2 SWAP1 PUSH2 0x1EB0 JUMP JUMPDEST PUSH1 0x40 MLOAD DUP1 SWAP2 SUB SWAP1 RETURN JUMPDEST CALLVALUE DUP1 ISZERO PUSH2 0x4A9 JUMPI PUSH0 DUP1 REVERT JUMPDEST POP PUSH2 0x4B2 PUSH2 0x17FA JUMP JUMPDEST PUSH1 0x40 MLOAD PUSH2 0x4BF SWAP2 SWAP1 PUSH2 0x1EB0 JUMP JUMPDEST PUSH1 0x40 MLOAD DUP1 SWAP2 SUB SWAP1 RETURN JUMPDEST CALLVALUE DUP1 ISZERO PUSH2 0x4D3 JUMPI PUSH0 DUP1 REVERT JUMPDEST POP PUSH2 0x4EE PUSH1 0x4 DUP1 CALLDATASIZE SUB DUP2 ADD SWAP1 PUSH2 0x4E9 SWAP2 SWAP1 PUSH2 0x1F27 JUMP JUMPDEST PUSH2 0x1800 JUMP JUMPDEST STOP JUMPDEST CALLVALUE DUP1 ISZERO PUSH2 0x4FB JUMPI PUSH0 DUP1 REVERT JUMPDEST POP PUSH2 0x504 PUSH2 0x1884 JUMP JUMPDEST PUSH1 0x40 MLOAD PUSH2 0x511 SWAP2 SWAP1 PUSH2 0x2173 JUMP JUMPDEST PUSH1 0x40 MLOAD DUP1 SWAP2 SUB SWAP1 RETURN JUMPDEST PUSH32 0x0 DUP2 JUMP JUMPDEST PUSH2 0x546 PUSH2 0x18A8 JUMP JUMPDEST PUSH0 CALLVALUE SUB PUSH2 0x57F JUMPI PUSH1 0x40 MLOAD PUSH32 0xE729DC6400000000000000000000000000000000000000000000000000000000 DUP2 MSTORE PUSH1 0x4 ADD PUSH1 0x40 MLOAD DUP1 SWAP2 SUB SWAP1 REVERT JUMPDEST PUSH0 PUSH2 0x589 CALLVALUE PUSH2 0x18EE JUMP JUMPDEST SWAP1 POP PUSH32 0x0 DUP2 PUSH1 0x5 SLOAD PUSH2 0x5BA SWAP2 SWAP1 PUSH2 0x21B9 JUMP JUMPDEST GT ISZERO PUSH2 0x623 JUMPI PUSH1 0x5 SLOAD DUP2 PUSH32 0x0 PUSH1 0x40 MLOAD PUSH32 0xC9FE79B800000000000000000000000000000000000000000000000000000000 DUP2 MSTORE PUSH1 0x4 ADD PUSH2 0x61A SWAP4 SWAP3 SWAP2 SWAP1 PUSH2 0x21EC JUMP JUMPDEST PUSH1 0x40 MLOAD DUP1 SWAP2 SUB SWAP1 REVERT JUMPDEST DUP1 PUSH1 0x3 PUSH0 CALLER PUSH20 0xFFFFFFFFFFFFFFFFFFFFFFFFFFFFFFFFFFFFFFFF AND PUSH20 0xFFFFFFFFFFFFFFFFFFFFFFFFFFFFFFFFFFFFFFFF AND DUP2 MSTORE PUSH1 0x20 ADD SWAP1 DUP2 MSTORE PUSH1 0x20 ADD PUSH0 KECCAK256 PUSH0 DUP1 PUSH20 0xFFFFFFFFFFFFFFFFFFFFFFFFFFFFFFFFFFFFFFFF AND PUSH20 0xFFFFFFFFFFFFFFFFFFFFFFFFFFFFFFFFFFFFFFFF AND DUP2 MSTORE PUSH1 0x20 ADD SWAP1 DUP2 MSTORE PUSH1 0x20 ADD PUSH0 KECCAK256 PUSH0 DUP3 DUP3 SLOAD PUSH2 0x6AA SWAP2 SWAP1 PUSH2 0x21B9 JUMP JUMPDEST SWAP3 POP POP DUP2 SWAP1 SSTORE POP DUP1 PUSH1 0x4 PUSH0 DUP1 PUSH20 0xFFFFFFFFFFFFFFFFFFFFFFFFFFFFFFFFFFFFFFFF AND PUSH20 0xFFFFFFFFFFFFFFFFFFFFFFFFFFFFFFFFFFFFFFFF AND DUP2 MSTORE PUSH1 0x20 ADD SWAP1 DUP2 MSTORE PUSH1 0x20 ADD PUSH0 KECCAK256 PUSH0 DUP3 DUP3 SLOAD PUSH2 0x6FD SWAP2 SWAP1 PUSH2 0x21B9 JUMP JUMPDEST SWAP3 POP POP DUP2 SWAP1 SSTORE POP DUP1 PUSH1 0x5 PUSH0 DUP3 DUP3 SLOAD PUSH2 0x715 SWAP2 SWAP1 PUSH2 0x21B9 JUMP JUMPDEST SWAP3 POP POP DUP2 SWAP1 SSTORE POP PUSH1 0x6 PUSH0 DUP2 SLOAD DUP1 SWAP3 SWAP2 SWAP1 PUSH2 0x72E SWAP1 PUSH2 0x2221 JUMP JUMPDEST SWAP2 SWAP1 POP SSTORE POP PUSH0 PUSH20 0xFFFFFFFFFFFFFFFFFFFFFFFFFFFFFFFFFFFFFFFF AND CALLER PUSH20 0xFFFFFFFFFFFFFFFFFFFFFFFFFFFFFFFFFFFFFFFF AND PUSH32 0x751F8B54C0E32EF5B9FAFDBDAC0C93C1994CC8848FA17ED7798BD90AAE8BFE9B CALLVALUE DUP5 PUSH1 0x40 MLOAD PUSH2 0x792 SWAP3 SWAP2 SWAP1 PUSH2 0x212C JUMP JUMPDEST PUSH1 0x40 MLOAD DUP1 SWAP2 SUB SWAP1 LOG3 POP PUSH2 0x7A3 PUSH2 0x1922 JUMP JUMPDEST JUMP JUMPDEST PUSH1 0x6 SLOAD DUP2 JUMP JUMPDEST PUSH0 PUSH32 0x0 SWAP1 POP SWAP1 JUMP JUMPDEST PUSH1 0x4 PUSH1 0x20 MSTORE DUP1 PUSH0 MSTORE PUSH1 0x40 PUSH0 KECCAK256 PUSH0 SWAP2 POP SWAP1 POP SLOAD DUP2 JUMP JUMPDEST PUSH0 DUP2 JUMP JUMPDEST PUSH32 0x0 DUP2 JUMP JUMPDEST PUSH0 PUSH1 0x3 PUSH0 DUP4 PUSH20 0xFFFFFFFFFFFFFFFFFFFFFFFFFFFFFFFFFFFFFFFF AND PUSH20 0xFFFFFFFFFFFFFFFFFFFFFFFFFFFFFFFFFFFFFFFF AND DUP2 MSTORE PUSH1 0x20 ADD SWAP1 DUP2 MSTORE PUSH1 0x20 ADD PUSH0 KECCAK256 PUSH0 PUSH32 0x0 PUSH20 0xFFFFFFFFFFFFFFFFFFFFFFFFFFFFFFFFFFFFFFFF AND PUSH20 0xFFFFFFFFFFFFFFFFFFFFFFFFFFFFFFFFFFFFFFFF AND DUP2 MSTORE PUSH1 0x20 ADD SWAP1 DUP2 MSTORE PUSH1 0x20 ADD PUSH0 KECCAK256 SLOAD PUSH1 0x3 PUSH0 DUP5 PUSH20 0xFFFFFFFFFFFFFFFFFFFFFFFFFFFFFFFFFFFFFFFF AND PUSH20 0xFFFFFFFFFFFFFFFFFFFFFFFFFFFFFFFFFFFFFFFF AND DUP2 MSTORE PUSH1 0x20 ADD SWAP1 DUP2 MSTORE PUSH1 0x20 ADD PUSH0 KECCAK256 PUSH0 DUP1 PUSH20 0xFFFFFFFFFFFFFFFFFFFFFFFFFFFFFFFFFFFFFFFF AND PUSH20 0xFFFFFFFFFFFFFFFFFFFFFFFFFFFFFFFFFFFFFFFF AND DUP2 MSTORE PUSH1 0x20 ADD SWAP1 DUP2 MSTORE PUSH1 0x20 ADD PUSH0 KECCAK256 SLOAD PUSH2 0x92C SWAP2 SWAP1 PUSH2 0x21B9 JUMP JUMPDEST SWAP1 POP SWAP2 SWAP1 POP JUMP JUMPDEST PUSH2 0x93B PUSH2 0x18A8 JUMP JUMPDEST DUP2 PUSH0 PUSH20 0xFFFFFFFFFFFFFFFFFFFFFFFFFFFFFFFFFFFFFFFF AND DUP2 PUSH20 0xFFFFFFFFFFFFFFFFFFFFFFFFFFFFFFFFFFFFFFFF AND EQ ISZERO DUP1 ISZERO PUSH2 0x9C4 JUMPI POP PUSH32 0x0 PUSH20 0xFFFFFFFFFFFFFFFFFFFFFFFFFFFFFFFFFFFFFFFF AND DUP2 PUSH20 0xFFFFFFFFFFFFFFFFFFFFFFFFFFFFFFFFFFFFFFFF AND EQ ISZERO JUMPDEST ISZERO PUSH2 0xA06 JUMPI DUP1 PUSH1 0x40 MLOAD PUSH32 0x2D5C07B900000000000000000000000000000000000000000000000000000000 DUP2 MSTORE PUSH1 0x4 ADD PUSH2 0x9FD SWAP2 SWAP1 PUSH2 0x1F61 JUMP JUMPDEST PUSH1 0x40 MLOAD DUP1 SWAP2 SUB SWAP1 REVERT JUMPDEST DUP2 PUSH0 DUP2 SUB PUSH2 0xA40 JUMPI PUSH1 0x40 MLOAD PUSH32 0xE729DC6400000000000000000000000000000000000000000000000000000000 DUP2 MSTORE PUSH1 0x4 ADD PUSH1 0x40 MLOAD DUP1 SWAP2 SUB SWAP1 REVERT JUMPDEST PUSH0 PUSH2 0xA4B DUP6 DUP6 PUSH2 0x192B JUMP JUMPDEST SWAP1 POP DUP1 PUSH1 0x3 PUSH0 CALLER PUSH20 0xFFFFFFFFFFFFFFFFFFFFFFFFFFFFFFFFFFFFFFFF AND PUSH20 0xFFFFFFFFFFFFFFFFFFFFFFFFFFFFFFFFFFFFFFFF AND DUP2 MSTORE PUSH1 0x20 ADD SWAP1 DUP2 MSTORE PUSH1 0x20 ADD PUSH0 KECCAK256 PUSH0 DUP8 PUSH20 0xFFFFFFFFFFFFFFFFFFFFFFFFFFFFFFFFFFFFFFFF AND PUSH20 0xFFFFFFFFFFFFFFFFFFFFFFFFFFFFFFFFFFFFFFFF AND DUP2 MSTORE PUSH1 0x20 ADD SWAP1 DUP2 MSTORE PUSH1 0x20 ADD PUSH0 KECCAK256 SLOAD LT ISZERO PUSH2 0xB84 JUMPI PUSH1 0x3 PUSH0 CALLER PUSH20 0xFFFFFFFFFFFFFFFFFFFFFFFFFFFFFFFFFFFFFFFF AND PUSH20 0xFFFFFFFFFFFFFFFFFFFFFFFFFFFFFFFFFFFFFFFF AND DUP2 MSTORE PUSH1 0x20 ADD SWAP1 DUP2 MSTORE PUSH1 0x20 ADD PUSH0 KECCAK256 PUSH0 DUP7 PUSH20 0xFFFFFFFFFFFFFFFFFFFFFFFFFFFFFFFFFFFFFFFF AND PUSH20 0xFFFFFFFFFFFFFFFFFFFFFFFFFFFFFFFFFFFFFFFF AND DUP2 MSTORE PUSH1 0x20 ADD SWAP1 DUP2 MSTORE PUSH1 0x20 ADD PUSH0 KECCAK256 SLOAD DUP2 PUSH1 0x40 MLOAD PUSH32 0x3B28636500000000000000000000000000000000000000000000000000000000 DUP2 MSTORE PUSH1 0x4 ADD PUSH2 0xB7B SWAP3 SWAP2 SWAP1 PUSH2 0x212C JUMP JUMPDEST PUSH1 0x40 MLOAD DUP1 SWAP2 SUB SWAP1 REVERT JUMPDEST PUSH32 0x0 DUP2 GT ISZERO PUSH2 0xC0B JUMPI DUP1 PUSH32 0x0 PUSH1 0x40 MLOAD PUSH32 0xD1ECFB7300000000000000000000000000000000000000000000000000000000 DUP2 MSTORE PUSH1 0x4 ADD PUSH2 0xC02 SWAP3 SWAP2 SWAP1 PUSH2 0x212C JUMP JUMPDEST PUSH1 0x40 MLOAD DUP1 SWAP2 SUB SWAP1 REVERT JUMPDEST DUP1 PUSH1 0x3 PUSH0 CALLER PUSH20 0xFFFFFFFFFFFFFFFFFFFFFFFFFFFFFFFFFFFFFFFF AND PUSH20 0xFFFFFFFFFFFFFFFFFFFFFFFFFFFFFFFFFFFFFFFF AND DUP2 MSTORE PUSH1 0x20 ADD SWAP1 DUP2 MSTORE PUSH1 0x20 ADD PUSH0 KECCAK256 PUSH0 DUP8 PUSH20 0xFFFFFFFFFFFFFFFFFFFFFFFFFFFFFFFFFFFFFFFF AND PUSH20 0xFFFFFFFFFFFFFFFFFFFFFFFFFFFFFFFFFFFFFFFF AND DUP2 MSTORE PUSH1 0x20 ADD SWAP1 DUP2 MSTORE PUSH1 0x20 ADD PUSH0 KECCAK256 PUSH0 DUP3 DUP3 SLOAD PUSH2 0xC92 SWAP2 SWAP1 PUSH2 0x2268 JUMP JUMPDEST SWAP3 POP POP DUP2 SWAP1 SSTORE POP DUP1 PUSH1 0x4 PUSH0 DUP8 PUSH20 0xFFFFFFFFFFFFFFFFFFFFFFFFFFFFFFFFFFFFFFFF AND PUSH20 0xFFFFFFFFFFFFFFFFFFFFFFFFFFFFFFFFFFFFFFFF AND DUP2 MSTORE PUSH1 0x20 ADD SWAP1 DUP2 MSTORE PUSH1 0x20 ADD PUSH0 KECCAK256 PUSH0 DUP3 DUP3 SLOAD PUSH2 0xCE5 SWAP2 SWAP1 PUSH2 0x2268 JUMP JUMPDEST SWAP3 POP POP DUP2 SWAP1 SSTORE POP DUP1 PUSH1 0x5 PUSH0 DUP3 DUP3 SLOAD PUSH2 0xCFD SWAP2 SWAP1 PUSH2 0x2268 JUMP JUMPDEST SWAP3 POP POP DUP2 SWAP1 SSTORE POP PUSH1 0x7 PUSH0 DUP2 SLOAD DUP1 SWAP3 SWAP2 SWAP1 PUSH2 0xD16 SWAP1 PUSH2 0x2221 JUMP JUMPDEST SWAP2 SWAP1 POP SSTORE POP DUP5 PUSH20 0xFFFFFFFFFFFFFFFFFFFFFFFFFFFFFFFFFFFFFFFF AND CALLER PUSH20 0xFFFFFFFFFFFFFFFFFFFFFFFFFFFFFFFFFFFFFFFF AND PUSH32 0xC6ACB54BDD58AF37C8D1B8BF2F1A561163C5191551BBD6E74CCE66FF7B670C77 DUP7 DUP5 PUSH1 0x40 MLOAD PUSH2 0xD7A SWAP3 SWAP2 SWAP1 PUSH2 0x212C JUMP JUMPDEST PUSH1 0x40 MLOAD DUP1 SWAP2 SUB SWAP1 LOG3 PUSH2 0xDAD CALLER DUP6 DUP8 PUSH20 0xFFFFFFFFFFFFFFFFFFFFFFFFFFFFFFFFFFFFFFFF AND PUSH2 0x19CA SWAP1 SWAP3 SWAP2 SWAP1 PUSH4 0xFFFFFFFF AND JUMP JUMPDEST POP POP POP PUSH2 0xDB8 PUSH2 0x1922 JUMP JUMPDEST POP POP JUMP JUMPDEST PUSH2 0xDC4 PUSH2 0x1A49 JUMP JUMPDEST PUSH2 0xDCD PUSH0 PUSH2 0x1AD0 JUMP JUMPDEST JUMP JUMPDEST PUSH2 0xDD7 PUSH2 0x18A8 JUMP JUMPDEST DUP1 PUSH0 DUP2 SUB PUSH2 0xE11 JUMPI PUSH1 0x40 MLOAD PUSH32 0xE729DC6400000000000000000000000000000000000000000000000000000000 DUP2 MSTORE PUSH1 0x4 ADD PUSH1 0x40 MLOAD DUP1 SWAP2 SUB SWAP1 REVERT JUMPDEST PUSH0 PUSH2 0xE1B DUP4 PUSH2 0x18EE JUMP JUMPDEST SWAP1 POP DUP1 PUSH1 0x3 PUSH0 CALLER PUSH20 0xFFFFFFFFFFFFFFFFFFFFFFFFFFFFFFFFFFFFFFFF AND PUSH20 0xFFFFFFFFFFFFFFFFFFFFFFFFFFFFFFFFFFFFFFFF AND DUP2 MSTORE PUSH1 0x20 ADD SWAP1 DUP2 MSTORE PUSH1 0x20 ADD PUSH0 KECCAK256 PUSH0 DUP1 PUSH20 0xFFFFFFFFFFFFFFFFFFFFFFFFFFFFFFFFFFFFFFFF AND PUSH20 0xFFFFFFFFFFFFFFFFFFFFFFFFFFFFFFFFFFFFFFFF AND DUP2 MSTORE PUSH1 0x20 ADD SWAP1 DUP2 MSTORE PUSH1 0x20 ADD PUSH0 KECCAK256 SLOAD LT ISZERO PUSH2 0xF54 JUMPI PUSH1 0x3 PUSH0 CALLER PUSH20 0xFFFFFFFFFFFFFFFFFFFFFFFFFFFFFFFFFFFFFFFF AND PUSH20 0xFFFFFFFFFFFFFFFFFFFFFFFFFFFFFFFFFFFFFFFF AND DUP2 MSTORE PUSH1 0x20 ADD SWAP1 DUP2 MSTORE PUSH1 0x20 ADD PUSH0 KECCAK256 PUSH0 DUP1 PUSH20 0xFFFFFFFFFFFFFFFFFFFFFFFFFFFFFFFFFFFFFFFF AND PUSH20 0xFFFFFFFFFFFFFFFFFFFFFFFFFFFFFFFFFFFFFFFF AND DUP2 MSTORE PUSH1 0x20 ADD SWAP1 DUP2 MSTORE PUSH1 0x20 ADD PUSH0 KECCAK256 SLOAD DUP2 PUSH1 0x40 MLOAD PUSH32 0x3B28636500000000000000000000000000000000000000000000000000000000 DUP2 MSTORE PUSH1 0x4 ADD PUSH2 0xF4B SWAP3 SWAP2 SWAP1 PUSH2 0x212C JUMP JUMPDEST PUSH1 0x40 MLOAD DUP1 SWAP2 SUB SWAP1 REVERT JUMPDEST PUSH32 0x0 DUP2 GT ISZERO PUSH2 0xFDB JUMPI DUP1 PUSH32 0x0 PUSH1 0x40 MLOAD PUSH32 0xD1ECFB7300000000000000000000000000000000000000000000000000000000 DUP2 MSTORE PUSH1 0x4 ADD PUSH2 0xFD2 SWAP3 SWAP2 SWAP1 PUSH2 0x212C JUMP JUMPDEST PUSH1 0x40 MLOAD DUP1 SWAP2 SUB SWAP1 REVERT JUMPDEST DUP1 PUSH1 0x3 PUSH0 CALLER PUSH20 0xFFFFFFFFFFFFFFFFFFFFFFFFFFFFFFFFFFFFFFFF AND PUSH20 0xFFFFFFFFFFFFFFFFFFFFFFFFFFFFFFFFFFFFFFFF AND DUP2 MSTORE PUSH1 0x20 ADD SWAP1 DUP2 MSTORE PUSH1 0x20 ADD PUSH0 KECCAK256 PUSH0 DUP1 PUSH20 0xFFFFFFFFFFFFFFFFFFFFFFFFFFFFFFFFFFFFFFFF AND PUSH20 0xFFFFFFFFFFFFFFFFFFFFFFFFFFFFFFFFFFFFFFFF AND DUP2 MSTORE PUSH1 0x20 ADD SWAP1 DUP2 MSTORE PUSH1 0x20 ADD PUSH0 KECCAK256 PUSH0 DUP3 DUP3 SLOAD PUSH2 0x1062 SWAP2 SWAP1 PUSH2 0x2268 JUMP JUMPDEST SWAP3 POP POP DUP2 SWAP1 SSTORE POP DUP1 PUSH1 0x4 PUSH0 DUP1 PUSH20 0xFFFFFFFFFFFFFFFFFFFFFFFFFFFFFFFFFFFFFFFF AND PUSH20 0xFFFFFFFFFFFFFFFFFFFFFFFFFFFFFFFFFFFFFFFF AND DUP2 MSTORE PUSH1 0x20 ADD SWAP1 DUP2 MSTORE PUSH1 0x20 ADD PUSH0 KECCAK256 PUSH0 DUP3 DUP3 SLOAD PUSH2 0x10B5 SWAP2 SWAP1 PUSH2 0x2268 JUMP JUMPDEST SWAP3 POP POP DUP2 SWAP1 SSTORE POP DUP1 PUSH1 0x5 PUSH0 DUP3 DUP3 SLOAD PUSH2 0x10CD SWAP2 SWAP1 PUSH2 0x2268 JUMP JUMPDEST SWAP3 POP POP DUP2 SWAP1 SSTORE POP PUSH1 0x7 PUSH0 DUP2 SLOAD DUP1 SWAP3 SWAP2 SWAP1 PUSH2 0x10E6 SWAP1 PUSH2 0x2221 JUMP JUMPDEST SWAP2 SWAP1 POP SSTORE POP PUSH0 PUSH20 0xFFFFFFFFFFFFFFFFFFFFFFFFFFFFFFFFFFFFFFFF AND CALLER PUSH20 0xFFFFFFFFFFFFFFFFFFFFFFFFFFFFFFFFFFFFFFFF AND PUSH32 0xC6ACB54BDD58AF37C8D1B8BF2F1A561163C5191551BBD6E74CCE66FF7B670C77 DUP6 DUP5 PUSH1 0x40 MLOAD PUSH2 0x114A SWAP3 SWAP2 SWAP1 PUSH2 0x212C JUMP JUMPDEST PUSH1 0x40 MLOAD DUP1 SWAP2 SUB SWAP1 LOG3 PUSH2 0x115C CALLER DUP5 PUSH2 0x1B91 JUMP JUMPDEST POP POP PUSH2 0x1166 PUSH2 0x1922 JUMP JUMPDEST POP JUMP JUMPDEST PUSH0 DUP1 PUSH0 SWAP1 SLOAD SWAP1 PUSH2 0x100 EXP SWAP1 DIV PUSH20 0xFFFFFFFFFFFFFFFFFFFFFFFFFFFFFFFFFFFFFFFF AND SWAP1 POP SWAP1 JUMP JUMPDEST PUSH2 0x1198 PUSH2 0x18A8 JUMP JUMPDEST DUP2 PUSH0 PUSH20 0xFFFFFFFFFFFFFFFFFFFFFFFFFFFFFFFFFFFFFFFF AND DUP2 PUSH20 0xFFFFFFFFFFFFFFFFFFFFFFFFFFFFFFFFFFFFFFFF AND EQ ISZERO DUP1 ISZERO PUSH2 0x1221 JUMPI POP PUSH32 0x0 PUSH20 0xFFFFFFFFFFFFFFFFFFFFFFFFFFFFFFFFFFFFFFFF AND DUP2 PUSH20 0xFFFFFFFFFFFFFFFFFFFFFFFFFFFFFFFFFFFFFFFF AND EQ ISZERO JUMPDEST ISZERO PUSH2 0x1263 JUMPI DUP1 PUSH1 0x40 MLOAD PUSH32 0x2D5C07B900000000000000000000000000000000000000000000000000000000 DUP2 MSTORE PUSH1 0x4 ADD PUSH2 0x125A SWAP2 SWAP1 PUSH2 0x1F61 JUMP JUMPDEST PUSH1 0x40 MLOAD DUP1 SWAP2 SUB SWAP1 REVERT JUMPDEST DUP2 PUSH0 DUP2 SUB PUSH2 0x129D JUMPI PUSH1 0x40 MLOAD PUSH32 0xE729DC6400000000000000000000000000000000000000000000000000000000 DUP2 MSTORE PUSH1 0x4 ADD PUSH1 0x40 MLOAD DUP1 SWAP2 SUB SWAP1 REVERT JUMPDEST PUSH0 PUSH2 0x12A8 DUP6 DUP6 PUSH2 0x192B JUMP JUMPDEST SWAP1 POP PUSH32 0x0 DUP2 PUSH1 0x5 SLOAD PUSH2 0x12D9 SWAP2 SWAP1 PUSH2 0x21B9 JUMP JUMPDEST GT ISZERO PUSH2 0x1342 JUMPI PUSH1 0x5 SLOAD DUP2 PUSH32 0x0 PUSH1 0x40 MLOAD PUSH32 0xC9FE79B800000000000000000000000000000000000000000000000000000000 DUP2 MSTORE PUSH1 0x4 ADD PUSH2 0x1339 SWAP4 SWAP3 SWAP2 SWAP1 PUSH2 0x21EC JUMP JUMPDEST PUSH1 0x40 MLOAD DUP1 SWAP2 SUB SWAP1 REVERT JUMPDEST DUP1 PUSH1 0x3 PUSH0 CALLER PUSH20 0xFFFFFFFFFFFFFFFFFFFFFFFFFFFFFFFFFFFFFFFF AND PUSH20 0xFFFFFFFFFFFFFFFFFFFFFFFFFFFFFFFFFFFFFFFF AND DUP2 MSTORE PUSH1 0x20 ADD SWAP1 DUP2 MSTORE PUSH1 0x20 ADD PUSH0 KECCAK256 PUSH0 DUP8 PUSH20 0xFFFFFFFFFFFFFFFFFFFFFFFFFFFFFFFFFFFFFFFF AND PUSH20 0xFFFFFFFFFFFFFFFFFFFFFFFFFFFFFFFFFFFFFFFF AND DUP2 MSTORE PUSH1 0x20 ADD SWAP1 DUP2 MSTORE PUSH1 0x20 ADD PUSH0 KECCAK256 PUSH0 DUP3 DUP3 SLOAD PUSH2 0x13C9 SWAP2 SWAP1 PUSH2 0x21B9 JUMP JUMPDEST SWAP3 POP POP DUP2 SWAP1 SSTORE POP DUP1 PUSH1 0x4 PUSH0 DUP8 PUSH20 0xFFFFFFFFFFFFFFFFFFFFFFFFFFFFFFFFFFFFFFFF AND PUSH20 0xFFFFFFFFFFFFFFFFFFFFFFFFFFFFFFFFFFFFFFFF AND DUP2 MSTORE PUSH1 0x20 ADD SWAP1 DUP2 MSTORE PUSH1 0x20 ADD PUSH0 KECCAK256 PUSH0 DUP3 DUP3 SLOAD PUSH2 0x141C SWAP2 SWAP1 PUSH2 0x21B9 JUMP JUMPDEST SWAP3 POP POP DUP2 SWAP1 SSTORE POP DUP1 PUSH1 0x5 PUSH0 DUP3 DUP3 SLOAD PUSH2 0x1434 SWAP2 SWAP1 PUSH2 0x21B9 JUMP JUMPDEST SWAP3 POP POP DUP2 SWAP1 SSTORE POP PUSH1 0x6 PUSH0 DUP2 SLOAD DUP1 SWAP3 SWAP2 SWAP1 PUSH2 0x144D SWAP1 PUSH2 0x2221 JUMP JUMPDEST SWAP2 SWAP1 POP SSTORE POP DUP5 PUSH20 0xFFFFFFFFFFFFFFFFFFFFFFFFFFFFFFFFFFFFFFFF AND CALLER PUSH20 0xFFFFFFFFFFFFFFFFFFFFFFFFFFFFFFFFFFFFFFFF AND PUSH32 0x751F8B54C0E32EF5B9FAFDBDAC0C93C1994CC8848FA17ED7798BD90AAE8BFE9B DUP7 DUP5 PUSH1 0x40 MLOAD PUSH2 0x14B1 SWAP3 SWAP2 SWAP1 PUSH2 0x212C JUMP JUMPDEST PUSH1 0x40 MLOAD DUP1 SWAP2 SUB SWAP1 LOG3 PUSH2 0x14E6 CALLER ADDRESS DUP7 DUP9 PUSH20 0xFFFFFFFFFFFFFFFFFFFFFFFFFFFFFFFFFFFFFFFF AND PUSH2 0x1C40 SWAP1 SWAP4 SWAP3 SWAP2 SWAP1 PUSH4 0xFFFFFFFF AND JUMP JUMPDEST POP POP POP PUSH2 0x14F1 PUSH2 0x1922 JUMP JUMPDEST POP POP JUMP JUMPDEST PUSH0 DUP1 PUSH0 DUP1 PUSH0 DUP1 PUSH0 PUSH1 0x5 SLOAD SWAP7 POP PUSH1 0x4 PUSH0 DUP1 PUSH20 0xFFFFFFFFFFFFFFFFFFFFFFFFFFFFFFFFFFFFFFFF AND PUSH20 0xFFFFFFFFFFFFFFFFFFFFFFFFFFFFFFFFFFFFFFFF AND DUP2 MSTORE PUSH1 0x20 ADD SWAP1 DUP2 MSTORE PUSH1 0x20 ADD PUSH0 KECCAK256 SLOAD SWAP6 POP PUSH1 0x4 PUSH0 PUSH32 0x0 PUSH20 0xFFFFFFFFFFFFFFFFFFFFFFFFFFFFFFFFFFFFFFFF AND PUSH20 0xFFFFFFFFFFFFFFFFFFFFFFFFFFFFFFFFFFFFFFFF AND DUP2 MSTORE PUSH1 0x20 ADD SWAP1 DUP2 MSTORE PUSH1 0x20 ADD PUSH0 KECCAK256 SLOAD SWAP5 POP PUSH1 0x6 SLOAD SWAP4 POP PUSH1 0x7 SLOAD SWAP3 POP PUSH32 0x0 SWAP2 POP PUSH32 0x0 SWAP1 POP SWAP1 SWAP2 SWAP3 SWAP4 SWAP5 SWAP6 SWAP7 JUMP JUMPDEST PUSH1 0x2 PUSH0 SWAP1 SLOAD SWAP1 PUSH2 0x100 EXP SWAP1 DIV PUSH20 0xFFFFFFFFFFFFFFFFFFFFFFFFFFFFFFFFFFFFFFFF AND DUP2 JUMP JUMPDEST PUSH0 PUSH1 0x3 PUSH0 DUP5 PUSH20 0xFFFFFFFFFFFFFFFFFFFFFFFFFFFFFFFFFFFFFFFF AND PUSH20 0xFFFFFFFFFFFFFFFFFFFFFFFFFFFFFFFFFFFFFFFF AND DUP2 MSTORE PUSH1 0x20 ADD SWAP1 DUP2 MSTORE PUSH1 0x20 ADD PUSH0 KECCAK256 PUSH0 DUP4 PUSH20 0xFFFFFFFFFFFFFFFFFFFFFFFFFFFFFFFFFFFFFFFF AND PUSH20 0xFFFFFFFFFFFFFFFFFFFFFFFFFFFFFFFFFFFFFFFF AND DUP2 MSTORE PUSH1 0x20 ADD SWAP1 DUP2 MSTORE PUSH1 0x20 ADD PUSH0 KECCAK256 SLOAD SWAP1 POP SWAP3 SWAP2 POP POP JUMP JUMPDEST PUSH2 0x16A9 PUSH2 0x1A49 JUMP JUMPDEST DUP1 PUSH1 0x2 PUSH0 PUSH2 0x100 EXP DUP2 SLOAD DUP2 PUSH20 0xFFFFFFFFFFFFFFFFFFFFFFFFFFFFFFFFFFFFFFFF MUL NOT AND SWAP1 DUP4 PUSH20 0xFFFFFFFFFFFFFFFFFFFFFFFFFFFFFFFFFFFFFFFF AND MUL OR SWAP1 SSTORE POP DUP1 PUSH20 0xFFFFFFFFFFFFFFFFFFFFFFFFFFFFFFFFFFFFFFFF AND PUSH32 0x2B87A7A05493A7865DADC5AFBB6CEDFDA3C32F20196D8F45314AFA7B32B94012 PUSH1 0x40 MLOAD PUSH1 0x40 MLOAD DUP1 SWAP2 SUB SWAP1 LOG2 POP JUMP JUMPDEST PUSH0 DUP1 PUSH0 DUP1 PUSH1 0x2 PUSH0 SWAP1 SLOAD SWAP1 PUSH2 0x100 EXP SWAP1 DIV PUSH20 0xFFFFFFFFFFFFFFFFFFFFFFFFFFFFFFFFFFFFFFFF AND PUSH20 0xFFFFFFFFFFFFFFFFFFFFFFFFFFFFFFFFFFFFFFFF AND PUSH4 0xFEAF968C PUSH1 0x40 MLOAD DUP2 PUSH4 0xFFFFFFFF AND PUSH1 0xE0 SHL DUP2 MSTORE PUSH1 0x4 ADD PUSH1 0xA0 PUSH1 0x40 MLOAD DUP1 DUP4 SUB DUP2 DUP7 GAS STATICCALL ISZERO DUP1 ISZERO PUSH2 0x179D JUMPI RETURNDATASIZE PUSH0 DUP1 RETURNDATACOPY RETURNDATASIZE PUSH0 REVERT JUMPDEST POP POP POP POP PUSH1 0x40 MLOAD RETURNDATASIZE PUSH1 0x1F NOT PUSH1 0x1F DUP3 ADD AND DUP3 ADD DUP1 PUSH1 0x40 MSTORE POP DUP2 ADD SWAP1 PUSH2 0x17C1 SWAP2 SWAP1 PUSH2 0x2321 JUMP JUMPDEST POP SWAP4 POP POP SWAP3 POP POP DUP2 SWAP4 POP DUP1 SWAP3 POP POP POP SWAP1 SWAP2 JUMP JUMPDEST PUSH1 0x7 SLOAD DUP2 JUMP JUMPDEST PUSH1 0x3 PUSH1 0x20 MSTORE DUP2 PUSH0 MSTORE PUSH1 0x40 PUSH0 KECCAK256 PUSH1 0x20 MSTORE DUP1 PUSH0 MSTORE PUSH1 0x40 PUSH0 KECCAK256 PUSH0 SWAP2 POP SWAP2 POP POP SLOAD DUP2 JUMP JUMPDEST PUSH1 0x5 SLOAD DUP2 JUMP JUMPDEST PUSH2 0x1808 PUSH2 0x1A49 JUMP JUMPDEST PUSH0 PUSH20 0xFFFFFFFFFFFFFFFFFFFFFFFFFFFFFFFFFFFFFFFF AND DUP2 PUSH20 0xFFFFFFFFFFFFFFFFFFFFFFFFFFFFFFFFFFFFFFFF AND SUB PUSH2 0x1878 JUMPI PUSH0 PUSH1 0x40 MLOAD PUSH32 0x1E4FBDF700000000000000000000000000000000000000000000000000000000 DUP2 MSTORE PUSH1 0x4 ADD PUSH2 0x186F SWAP2 SWAP1 PUSH2 0x1F61 JUMP JUMPDEST PUSH1 0x40 MLOAD DUP1 SWAP2 SUB SWAP1 REVERT JUMPDEST PUSH2 0x1881 DUP2 PUSH2 0x1AD0 JUMP JUMPDEST POP JUMP JUMPDEST PUSH32 0x0 DUP2 JUMP JUMPDEST PUSH1 0x2 PUSH1 0x1 SLOAD SUB PUSH2 0x18E4 JUMPI PUSH1 0x40 MLOAD PUSH32 0x3EE5AEB500000000000000000000000000000000000000000000000000000000 DUP2 MSTORE PUSH1 0x4 ADD PUSH1 0x40 MLOAD DUP1 SWAP2 SUB SWAP1 REVERT JUMPDEST PUSH1 0x2 PUSH1 0x1 DUP2 SWAP1 SSTORE POP JUMP JUMPDEST PUSH0 DUP1 PUSH2 0x18F8 PUSH2 0x1CC2 JUMP JUMPDEST SWAP1 POP PUSH9 0x56BC75E2D63100000 DUP2 DUP5 PUSH2 0x1910 SWAP2 SWAP1 PUSH2 0x2398 JUMP JUMPDEST PUSH2 0x191A SWAP2 SWAP1 PUSH2 0x2406 JUMP JUMPDEST SWAP2 POP POP SWAP2 SWAP1 POP JUMP JUMPDEST PUSH1 0x1 DUP1 DUP2 SWAP1 SSTORE POP JUMP JUMPDEST PUSH0 PUSH32 0x0 PUSH20 0xFFFFFFFFFFFFFFFFFFFFFFFFFFFFFFFFFFFFFFFF AND DUP4 PUSH20 0xFFFFFFFFFFFFFFFFFFFFFFFFFFFFFFFFFFFFFFFF AND SUB PUSH2 0x1987 JUMPI DUP2 SWAP1 POP PUSH2 0x19C4 JUMP JUMPDEST DUP3 PUSH1 0x40 MLOAD PUSH32 0x2D5C07B900000000000000000000000000000000000000000000000000000000 DUP2 MSTORE PUSH1 0x4 ADD PUSH2 0x19BB SWAP2 SWAP1 PUSH2 0x1F61 JUMP JUMPDEST PUSH1 0x40 MLOAD DUP1 SWAP2 SUB SWAP1 REVERT JUMPDEST SWAP3 SWAP2 POP POP JUMP JUMPDEST PUSH2 0x1A44 DUP4 DUP5 PUSH20 0xFFFFFFFFFFFFFFFFFFFFFFFFFFFFFFFFFFFFFFFF AND PUSH4 0xA9059CBB DUP6 DUP6 PUSH1 0x40 MLOAD PUSH1 0x24 ADD PUSH2 0x19FD SWAP3 SWAP2 SWAP1 PUSH2 0x2436 JUMP JUMPDEST PUSH1 0x40 MLOAD PUSH1 0x20 DUP2 DUP4 SUB SUB DUP2 MSTORE SWAP1 PUSH1 0x40 MSTORE SWAP2 POP PUSH1 0xE0 SHL PUSH1 0x20 DUP3 ADD DUP1 MLOAD PUSH28 0xFFFFFFFFFFFFFFFFFFFFFFFFFFFFFFFFFFFFFFFFFFFFFFFFFFFFFFFF DUP4 DUP2 DUP4 AND OR DUP4 MSTORE POP POP POP POP PUSH2 0x1DF6 JUMP JUMPDEST POP POP POP JUMP JUMPDEST PUSH2 0x1A51 PUSH2 0x1E91 JUMP JUMPDEST PUSH20 0xFFFFFFFFFFFFFFFFFFFFFFFFFFFFFFFFFFFFFFFF AND PUSH2 0x1A6F PUSH2 0x1169 JUMP JUMPDEST PUSH20 0xFFFFFFFFFFFFFFFFFFFFFFFFFFFFFFFFFFFFFFFF AND EQ PUSH2 0x1ACE JUMPI PUSH2 0x1A92 PUSH2 0x1E91 JUMP JUMPDEST PUSH1 0x40 MLOAD PUSH32 0x118CDAA700000000000000000000000000000000000000000000000000000000 DUP2 MSTORE PUSH1 0x4 ADD PUSH2 0x1AC5 SWAP2 SWAP1 PUSH2 0x1F61 JUMP JUMPDEST PUSH1 0x40 MLOAD DUP1 SWAP2 SUB SWAP1 REVERT JUMPDEST JUMP JUMPDEST PUSH0 DUP1 PUSH0 SWAP1 SLOAD SWAP1 PUSH2 0x100 EXP SWAP1 DIV PUSH20 0xFFFFFFFFFFFFFFFFFFFFFFFFFFFFFFFFFFFFFFFF AND SWAP1 POP DUP2 PUSH0 DUP1 PUSH2 0x100 EXP DUP2 SLOAD DUP2 PUSH20 0xFFFFFFFFFFFFFFFFFFFFFFFFFFFFFFFFFFFFFFFF MUL NOT AND SWAP1 DUP4 PUSH20 0xFFFFFFFFFFFFFFFFFFFFFFFFFFFFFFFFFFFFFFFF AND MUL OR SWAP1 SSTORE POP DUP2 PUSH20 0xFFFFFFFFFFFFFFFFFFFFFFFFFFFFFFFFFFFFFFFF AND DUP2 PUSH20 0xFFFFFFFFFFFFFFFFFFFFFFFFFFFFFFFFFFFFFFFF AND PUSH32 0x8BE0079C531659141344CD1FD0A4F28419497F9722A3DAAFE3B4186F6B6457E0 PUSH1 0x40 MLOAD PUSH1 0x40 MLOAD DUP1 SWAP2 SUB SWAP1 LOG3 POP POP JUMP JUMPDEST PUSH0 DUP3 PUSH20 0xFFFFFFFFFFFFFFFFFFFFFFFFFFFFFFFFFFFFFFFF AND DUP3 PUSH1 0x40 MLOAD PUSH2 0x1BB6 SWAP1 PUSH2 0x248A JUMP JUMPDEST PUSH0 PUSH1 0x40 MLOAD DUP1 DUP4 SUB DUP2 DUP6 DUP8 GAS CALL SWAP3 POP POP POP RETURNDATASIZE DUP1 PUSH0 DUP2 EQ PUSH2 0x1BF0 JUMPI PUSH1 0x40 MLOAD SWAP2 POP PUSH1 0x1F NOT PUSH1 0x3F RETURNDATASIZE ADD AND DUP3 ADD PUSH1 0x40 MSTORE RETURNDATASIZE DUP3 MSTORE RETURNDATASIZE PUSH0 PUSH1 0x20 DUP5 ADD RETURNDATACOPY PUSH2 0x1BF5 JUMP JUMPDEST PUSH1 0x60 SWAP2 POP JUMPDEST POP POP SWAP1 POP DUP1 PUSH2 0x1C3B JUMPI DUP3 PUSH1 0x40 MLOAD PUSH32 0x71404A4200000000000000000000000000000000000000000000000000000000 DUP2 MSTORE PUSH1 0x4 ADD PUSH2 0x1C32 SWAP2 SWAP1 PUSH2 0x1F61 JUMP JUMPDEST PUSH1 0x40 MLOAD DUP1 SWAP2 SUB SWAP1 REVERT JUMPDEST POP POP POP JUMP JUMPDEST PUSH2 0x1CBC DUP5 DUP6 PUSH20 0xFFFFFFFFFFFFFFFFFFFFFFFFFFFFFFFFFFFFFFFF AND PUSH4 0x23B872DD DUP7 DUP7 DUP7 PUSH1 0x40 MLOAD PUSH1 0x24 ADD PUSH2 0x1C75 SWAP4 SWAP3 SWAP2 SWAP1 PUSH2 0x249E JUMP JUMPDEST PUSH1 0x40 MLOAD PUSH1 0x20 DUP2 DUP4 SUB SUB DUP2 MSTORE SWAP1 PUSH1 0x40 MSTORE SWAP2 POP PUSH1 0xE0 SHL PUSH1 0x20 DUP3 ADD DUP1 MLOAD PUSH28 0xFFFFFFFFFFFFFFFFFFFFFFFFFFFFFFFFFFFFFFFFFFFFFFFFFFFFFFFF DUP4 DUP2 DUP4 AND OR DUP4 MSTORE POP POP POP POP PUSH2 0x1DF6 JUMP JUMPDEST POP POP POP POP JUMP JUMPDEST PUSH0 DUP1 PUSH0 PUSH1 0x2 PUSH0 SWAP1 SLOAD SWAP1 PUSH2 0x100 EXP SWAP1 DIV PUSH20 0xFFFFFFFFFFFFFFFFFFFFFFFFFFFFFFFFFFFFFFFF AND PUSH20 0xFFFFFFFFFFFFFFFFFFFFFFFFFFFFFFFFFFFFFFFF AND PUSH4 0xFEAF968C PUSH1 0x40 MLOAD DUP2 PUSH4 0xFFFFFFFF AND PUSH1 0xE0 SHL DUP2 MSTORE PUSH1 0x4 ADD PUSH1 0xA0 PUSH1 0x40 MLOAD DUP1 DUP4 SUB DUP2 DUP7 GAS STATICCALL ISZERO DUP1 ISZERO PUSH2 0x1D2F JUMPI RETURNDATASIZE PUSH0 DUP1 RETURNDATACOPY RETURNDATASIZE PUSH0 REVERT JUMPDEST POP POP POP POP PUSH1 0x40 MLOAD RETURNDATASIZE PUSH1 0x1F NOT PUSH1 0x1F DUP3 ADD AND DUP3 ADD DUP1 PUSH1 0x40 MSTORE POP DUP2 ADD SWAP1 PUSH2 0x1D53 SWAP2 SWAP1 PUSH2 0x2321 JUMP JUMPDEST POP SWAP4 POP POP SWAP3 POP POP PUSH0 DUP3 SGT PUSH2 0x1D93 JUMPI PUSH1 0x40 MLOAD PUSH32 0x63F585C200000000000000000000000000000000000000000000000000000000 DUP2 MSTORE PUSH1 0x4 ADD PUSH1 0x40 MLOAD DUP1 SWAP2 SUB SWAP1 REVERT JUMPDEST PUSH0 DUP2 TIMESTAMP PUSH2 0x1DA0 SWAP2 SWAP1 PUSH2 0x2268 JUMP JUMPDEST SWAP1 POP PUSH2 0xE10 DUP2 GT ISZERO PUSH2 0x1DED JUMPI DUP1 PUSH2 0xE10 PUSH1 0x40 MLOAD PUSH32 0x74937DF300000000000000000000000000000000000000000000000000000000 DUP2 MSTORE PUSH1 0x4 ADD PUSH2 0x1DE4 SWAP3 SWAP2 SWAP1 PUSH2 0x212C JUMP JUMPDEST PUSH1 0x40 MLOAD DUP1 SWAP2 SUB SWAP1 REVERT JUMPDEST DUP3 SWAP4 POP POP POP POP SWAP1 JUMP JUMPDEST PUSH0 DUP1 PUSH1 0x20 PUSH0 DUP5 MLOAD PUSH1 0x20 DUP7 ADD PUSH0 DUP9 GAS CALL DUP1 PUSH2 0x1E15 JUMPI PUSH1 0x40 MLOAD RETURNDATASIZE PUSH0 DUP3 RETURNDATACOPY RETURNDATASIZE DUP2 REVERT JUMPDEST RETURNDATASIZE SWAP3 POP PUSH0 MLOAD SWAP2 POP POP PUSH0 DUP3 EQ PUSH2 0x1E2E JUMPI PUSH1 0x1 DUP2 EQ ISZERO PUSH2 0x1E49 JUMP JUMPDEST PUSH0 DUP5 PUSH20 0xFFFFFFFFFFFFFFFFFFFFFFFFFFFFFFFFFFFFFFFF AND EXTCODESIZE EQ JUMPDEST ISZERO PUSH2 0x1E8B JUMPI DUP4 PUSH1 0x40 MLOAD PUSH32 0x5274AFE700000000000000000000000000000000000000000000000000000000 DUP2 MSTORE PUSH1 0x4 ADD PUSH2 0x1E82 SWAP2 SWAP1 PUSH2 0x1F61 JUMP JUMPDEST PUSH1 0x40 MLOAD DUP1 SWAP2 SUB SWAP1 REVERT JUMPDEST POP POP POP POP JUMP JUMPDEST PUSH0 CALLER SWAP1 POP SWAP1 JUMP JUMPDEST PUSH0 DUP2 SWAP1 POP SWAP2 SWAP1 POP JUMP JUMPDEST PUSH2 0x1EAA DUP2 PUSH2 0x1E98 JUMP JUMPDEST DUP3 MSTORE POP POP JUMP JUMPDEST PUSH0 PUSH1 0x20 DUP3 ADD SWAP1 POP PUSH2 0x1EC3 PUSH0 DUP4 ADD DUP5 PUSH2 0x1EA1 JUMP JUMPDEST SWAP3 SWAP2 POP POP JUMP JUMPDEST PUSH0 DUP1 REVERT JUMPDEST PUSH0 PUSH20 0xFFFFFFFFFFFFFFFFFFFFFFFFFFFFFFFFFFFFFFFF DUP3 AND SWAP1 POP SWAP2 SWAP1 POP JUMP JUMPDEST PUSH0 PUSH2 0x1EF6 DUP3 PUSH2 0x1ECD JUMP JUMPDEST SWAP1 POP SWAP2 SWAP1 POP JUMP JUMPDEST PUSH2 0x1F06 DUP2 PUSH2 0x1EEC JUMP JUMPDEST DUP2 EQ PUSH2 0x1F10 JUMPI PUSH0 DUP1 REVERT JUMPDEST POP JUMP JUMPDEST PUSH0 DUP2 CALLDATALOAD SWAP1 POP PUSH2 0x1F21 DUP2 PUSH2 0x1EFD JUMP JUMPDEST SWAP3 SWAP2 POP POP JUMP JUMPDEST PUSH0 PUSH1 0x20 DUP3 DUP5 SUB SLT ISZERO PUSH2 0x1F3C JUMPI PUSH2 0x1F3B PUSH2 0x1EC9 JUMP JUMPDEST JUMPDEST PUSH0 PUSH2 0x1F49 DUP5 DUP3 DUP6 ADD PUSH2 0x1F13 JUMP JUMPDEST SWAP2 POP POP SWAP3 SWAP2 POP POP JUMP JUMPDEST PUSH2 0x1F5B DUP2 PUSH2 0x1EEC JUMP JUMPDEST DUP3 MSTORE POP POP JUMP JUMPDEST PUSH0 PUSH1 0x20 DUP3 ADD SWAP1 POP PUSH2 0x1F74 PUSH0 DUP4 ADD DUP5 PUSH2 0x1F52 JUMP JUMPDEST SWAP3 SWAP2 POP POP JUMP JUMPDEST PUSH2 0x1F83 DUP2 PUSH2 0x1E98 JUMP JUMPDEST DUP2 EQ PUSH2 0x1F8D JUMPI PUSH0 DUP1 REVERT JUMPDEST POP JUMP JUMPDEST PUSH0 DUP2 CALLDATALOAD SWAP1 POP PUSH2 0x1F9E DUP2 PUSH2 0x1F7A JUMP JUMPDEST SWAP3 SWAP2 POP POP JUMP JUMPDEST PUSH0 DUP1 PUSH1 0x40 DUP4 DUP6 SUB SLT ISZERO PUSH2 0x1FBA JUMPI PUSH2 0x1FB9 PUSH2 0x1EC9 JUMP JUMPDEST JUMPDEST PUSH0 PUSH2 0x1FC7 DUP6 DUP3 DUP7 ADD PUSH2 0x1F13 JUMP JUMPDEST SWAP3 POP POP PUSH1 0x20 PUSH2 0x1FD8 DUP6 DUP3 DUP7 ADD PUSH2 0x1F90 JUMP JUMPDEST SWAP2 POP POP SWAP3 POP SWAP3 SWAP1 POP JUMP JUMPDEST PUSH0 PUSH1 0x20 DUP3 DUP5 SUB SLT ISZERO PUSH2 0x1FF7 JUMPI PUSH2 0x1FF6 PUSH2 0x1EC9 JUMP JUMPDEST JUMPDEST PUSH0 PUSH2 0x2004 DUP5 DUP3 DUP6 ADD PUSH2 0x1F90 JUMP JUMPDEST SWAP2 POP POP SWAP3 SWAP2 POP POP JUMP JUMPDEST PUSH0 PUSH1 0xE0 DUP3 ADD SWAP1 POP PUSH2 0x2020 PUSH0 DUP4 ADD DUP11 PUSH2 0x1EA1 JUMP JUMPDEST PUSH2 0x202D PUSH1 0x20 DUP4 ADD DUP10 PUSH2 0x1EA1 JUMP JUMPDEST PUSH2 0x203A PUSH1 0x40 DUP4 ADD DUP9 PUSH2 0x1EA1 JUMP JUMPDEST PUSH2 0x2047 PUSH1 0x60 DUP4 ADD DUP8 PUSH2 0x1EA1 JUMP JUMPDEST PUSH2 0x2054 PUSH1 0x80 DUP4 ADD DUP7 PUSH2 0x1EA1 JUMP JUMPDEST PUSH2 0x2061 PUSH1 0xA0 DUP4 ADD DUP6 PUSH2 0x1EA1 JUMP JUMPDEST PUSH2 0x206E PUSH1 0xC0 DUP4 ADD DUP5 PUSH2 0x1EA1 JUMP JUMPDEST SWAP9 SWAP8 POP POP POP POP POP POP POP POP JUMP JUMPDEST PUSH0 DUP2 SWAP1 POP SWAP2 SWAP1 POP JUMP JUMPDEST PUSH0 PUSH2 0x209D PUSH2 0x2098 PUSH2 0x2093 DUP5 PUSH2 0x1ECD JUMP JUMPDEST PUSH2 0x207A JUMP JUMPDEST PUSH2 0x1ECD JUMP JUMPDEST SWAP1 POP SWAP2 SWAP1 POP JUMP JUMPDEST PUSH0 PUSH2 0x20AE DUP3 PUSH2 0x2083 JUMP JUMPDEST SWAP1 POP SWAP2 SWAP1 POP JUMP JUMPDEST PUSH0 PUSH2 0x20BF DUP3 PUSH2 0x20A4 JUMP JUMPDEST SWAP1 POP SWAP2 SWAP1 POP JUMP JUMPDEST PUSH2 0x20CF DUP2 PUSH2 0x20B5 JUMP JUMPDEST DUP3 MSTORE POP POP JUMP JUMPDEST PUSH0 PUSH1 0x20 DUP3 ADD SWAP1 POP PUSH2 0x20E8 PUSH0 DUP4 ADD DUP5 PUSH2 0x20C6 JUMP JUMPDEST SWAP3 SWAP2 POP POP JUMP JUMPDEST PUSH0 DUP1 PUSH1 0x40 DUP4 DUP6 SUB SLT ISZERO PUSH2 0x2104 JUMPI PUSH2 0x2103 PUSH2 0x1EC9 JUMP JUMPDEST JUMPDEST PUSH0 PUSH2 0x2111 DUP6 DUP3 DUP7 ADD PUSH2 0x1F13 JUMP JUMPDEST SWAP3 POP POP PUSH1 0x20 PUSH2 0x2122 DUP6 DUP3 DUP7 ADD PUSH2 0x1F13 JUMP JUMPDEST SWAP2 POP POP SWAP3 POP SWAP3 SWAP1 POP JUMP JUMPDEST PUSH0 PUSH1 0x40 DUP3 ADD SWAP1 POP PUSH2 0x213F PUSH0 DUP4 ADD DUP6 PUSH2 0x1EA1 JUMP JUMPDEST PUSH2 0x214C PUSH1 0x20 DUP4 ADD DUP5 PUSH2 0x1EA1 JUMP JUMPDEST SWAP4 SWAP3 POP POP POP JUMP JUMPDEST PUSH0 PUSH2 0x215D DUP3 PUSH2 0x20A4 JUMP JUMPDEST SWAP1 POP SWAP2 SWAP1 POP JUMP JUMPDEST PUSH2 0x216D DUP2 PUSH2 0x2153 JUMP JUMPDEST DUP3 MSTORE POP POP JUMP JUMPDEST PUSH0 PUSH1 0x20 DUP3 ADD SWAP1 POP PUSH2 0x2186 PUSH0 DUP4 ADD DUP5 PUSH2 0x2164 JUMP JUMPDEST SWAP3 SWAP2 POP POP JUMP JUMPDEST PUSH32 0x4E487B7100000000000000000000000000000000000000000000000000000000 PUSH0 MSTORE PUSH1 0x11 PUSH1 0x4 MSTORE PUSH1 0x24 PUSH0 REVERT JUMPDEST PUSH0 PUSH2 0x21C3 DUP3 PUSH2 0x1E98 JUMP JUMPDEST SWAP2 POP PUSH2 0x21CE DUP4 PUSH2 0x1E98 JUMP JUMPDEST SWAP3 POP DUP3 DUP3 ADD SWAP1 POP DUP1 DUP3 GT ISZERO PUSH2 0x21E6 JUMPI PUSH2 0x21E5 PUSH2 0x218C JUMP JUMPDEST JUMPDEST SWAP3 SWAP2 POP POP JUMP JUMPDEST PUSH0 PUSH1 0x60 DUP3 ADD SWAP1 POP PUSH2 0x21FF PUSH0 DUP4 ADD DUP7 PUSH2 0x1EA1 JUMP JUMPDEST PUSH2 0x220C PUSH1 0x20 DUP4 ADD DUP6 PUSH2 0x1EA1 JUMP JUMPDEST PUSH2 0x2219 PUSH1 0x40 DUP4 ADD DUP5 PUSH2 0x1EA1 JUMP JUMPDEST SWAP5 SWAP4 POP POP POP POP JUMP JUMPDEST PUSH0 PUSH2 0x222B DUP3 PUSH2 0x1E98 JUMP JUMPDEST SWAP2 POP PUSH32 0xFFFFFFFFFFFFFFFFFFFFFFFFFFFFFFFFFFFFFFFFFFFFFFFFFFFFFFFFFFFFFFFF DUP3 SUB PUSH2 0x225D JUMPI PUSH2 0x225C PUSH2 0x218C JUMP JUMPDEST JUMPDEST PUSH1 0x1 DUP3 ADD SWAP1 POP SWAP2 SWAP1 POP JUMP JUMPDEST PUSH0 PUSH2 0x2272 DUP3 PUSH2 0x1E98 JUMP JUMPDEST SWAP2 POP PUSH2 0x227D DUP4 PUSH2 0x1E98 JUMP JUMPDEST SWAP3 POP DUP3 DUP3 SUB SWAP1 POP DUP2 DUP2 GT ISZERO PUSH2 0x2295 JUMPI PUSH2 0x2294 PUSH2 0x218C JUMP JUMPDEST JUMPDEST SWAP3 SWAP2 POP POP JUMP JUMPDEST PUSH0 PUSH10 0xFFFFFFFFFFFFFFFFFFFF DUP3 AND SWAP1 POP SWAP2 SWAP1 POP JUMP JUMPDEST PUSH2 0x22B9 DUP2 PUSH2 0x229B JUMP JUMPDEST DUP2 EQ PUSH2 0x22C3 JUMPI PUSH0 DUP1 REVERT JUMPDEST POP JUMP JUMPDEST PUSH0 DUP2 MLOAD SWAP1 POP PUSH2 0x22D4 DUP2 PUSH2 0x22B0 JUMP JUMPDEST SWAP3 SWAP2 POP POP JUMP JUMPDEST PUSH0 DUP2 SWAP1 POP SWAP2 SWAP1 POP JUMP JUMPDEST PUSH2 0x22EC DUP2 PUSH2 0x22DA JUMP JUMPDEST DUP2 EQ PUSH2 0x22F6 JUMPI PUSH0 DUP1 REVERT JUMPDEST POP JUMP JUMPDEST PUSH0 DUP2 MLOAD SWAP1 POP PUSH2 0x2307 DUP2 PUSH2 0x22E3 JUMP JUMPDEST SWAP3 SWAP2 POP POP JUMP JUMPDEST PUSH0 DUP2 MLOAD SWAP1 POP PUSH2 0x231B DUP2 PUSH2 0x1F7A JUMP JUMPDEST SWAP3 SWAP2 POP POP JUMP JUMPDEST PUSH0 DUP1 PUSH0 DUP1 PUSH0 PUSH1 0xA0 DUP7 DUP9 SUB SLT ISZERO PUSH2 0x233A JUMPI PUSH2 0x2339 PUSH2 0x1EC9 JUMP JUMPDEST JUMPDEST PUSH0 PUSH2 0x2347 DUP9 DUP3 DUP10 ADD PUSH2 0x22C6 JUMP JUMPDEST SWAP6 POP POP PUSH1 0x20 PUSH2 0x2358 DUP9 DUP3 DUP10 ADD PUSH2 0x22F9 JUMP JUMPDEST SWAP5 POP POP PUSH1 0x40 PUSH2 0x2369 DUP9 DUP3 DUP10 ADD PUSH2 0x230D JUMP JUMPDEST SWAP4 POP POP PUSH1 0x60 PUSH2 0x237A DUP9 DUP3 DUP10 ADD PUSH2 0x230D JUMP JUMPDEST SWAP3 POP POP PUSH1 0x80 PUSH2 0x238B DUP9 DUP3 DUP10 ADD PUSH2 0x22C6 JUMP JUMPDEST SWAP2 POP POP SWAP3 SWAP6 POP SWAP3 SWAP6 SWAP1 SWAP4 POP JUMP JUMPDEST PUSH0 PUSH2 0x23A2 DUP3 PUSH2 0x1E98 JUMP JUMPDEST SWAP2 POP PUSH2 0x23AD DUP4 PUSH2 0x1E98 JUMP JUMPDEST SWAP3 POP DUP3 DUP3 MUL PUSH2 0x23BB DUP2 PUSH2 0x1E98 JUMP JUMPDEST SWAP2 POP DUP3 DUP3 DIV DUP5 EQ DUP4 ISZERO OR PUSH2 0x23D2 JUMPI PUSH2 0x23D1 PUSH2 0x218C JUMP JUMPDEST JUMPDEST POP SWAP3 SWAP2 POP POP JUMP JUMPDEST PUSH32 0x4E487B7100000000000000000000000000000000000000000000000000000000 PUSH0 MSTORE PUSH1 0x12 PUSH1 0x4 MSTORE PUSH1 0x24 PUSH0 REVERT JUMPDEST PUSH0 PUSH2 0x2410 DUP3 PUSH2 0x1E98 JUMP JUMPDEST SWAP2 POP PUSH2 0x241B DUP4 PUSH2 0x1E98 JUMP JUMPDEST SWAP3 POP DUP3 PUSH2 0x242B JUMPI PUSH2 0x242A PUSH2 0x23D9 JUMP JUMPDEST JUMPDEST DUP3 DUP3 DIV SWAP1 POP SWAP3 SWAP2 POP POP JUMP JUMPDEST PUSH0 PUSH1 0x40 DUP3 ADD SWAP1 POP PUSH2 0x2449 PUSH0 DUP4 ADD DUP6 PUSH2 0x1F52 JUMP JUMPDEST PUSH2 0x2456 PUSH1 0x20 DUP4 ADD DUP5 PUSH2 0x1EA1 JUMP JUMPDEST SWAP4 SWAP3 POP POP POP JUMP JUMPDEST PUSH0 DUP2 SWAP1 POP SWAP3 SWAP2 POP POP JUMP JUMPDEST POP JUMP JUMPDEST PUSH0 PUSH2 0x2475 PUSH0 DUP4 PUSH2 0x245D JUMP JUMPDEST SWAP2 POP PUSH2 0x2480 DUP3 PUSH2 0x2467 JUMP JUMPDEST PUSH0 DUP3 ADD SWAP1 POP SWAP2 SWAP1 POP JUMP JUMPDEST PUSH0 PUSH2 0x2494 DUP3 PUSH2 0x246A JUMP JUMPDEST SWAP2 POP DUP2 SWAP1 POP SWAP2 SWAP1 POP JUMP JUMPDEST PUSH0 PUSH1 0x60 DUP3 ADD SWAP1 POP PUSH2 0x24B1 PUSH0 DUP4 ADD DUP7 PUSH2 0x1F52 JUMP JUMPDEST PUSH2 0x24BE PUSH1 0x20 DUP4 ADD DUP6 PUSH2 0x1F52 JUMP JUMPDEST PUSH2 0x24CB PUSH1 0x40 DUP4 ADD DUP5 PUSH2 0x1EA1 JUMP JUMPDEST SWAP5 SWAP4 POP POP POP POP JUMP INVALID LOG2 PUSH5 0x6970667358 0x22 SLT KECCAK256 0xC8 0x4C SWAP14 PUSH25 0x6750627C3E0C10BBEE081CB45FC0CBBBD6DEE3C64065B109B6 SWAP9 SWAP9 0x24 PUSH5 0x736F6C6343 STOP ADDMOD BYTE STOP CALLER "
				},
				"gasEstimates": {
					"creation": {
						"codeDepositCost": "1896200",
						"executionCost": "infinite",
						"totalCost": "infinite"
					},
					"external": {
						"NATIVE_TOKEN()": "395",
						"actualizarFeed(address)": "infinite",
						"consultarBalance(address,address)": "infinite",
						"consultarBalanceTotalUSD(address)": "infinite",
						"consultarEstadoBanco()": "infinite",
						"consultarPrecioETH()": "infinite",
						"depositarETH()": "infinite",
						"depositarToken(address,uint256)": "infinite",
						"getUmbralRetiro()": "infinite",
						"i_bankCapUSD()": "infinite",
						"i_umbralRetiroUSD()": "infinite",
						"i_usdc()": "infinite",
						"owner()": "2538",
						"renounceOwnership()": "infinite",
						"retirarETH(uint256)": "infinite",
						"retirarToken(address,uint256)": "infinite",
						"s_balances(address,address)": "infinite",
						"s_contadorDepositos()": "2493",
						"s_contadorRetiros()": "2469",
						"s_ethUsdFeed()": "infinite",
						"s_totalDepositadoPorToken(address)": "2914",
						"s_totalDepositadoUSD()": "2513",
						"transferOwnership(address)": "infinite"
					},
					"internal": {
						"_convertirEthAUsd(uint256)": "infinite",
						"_normalizarDecimales(address,uint256)": "infinite",
						"_obtenerPrecioEth()": "infinite",
						"_transferirEth(address,uint256)": "infinite"
					}
				},
				"methodIdentifiers": {
					"NATIVE_TOKEN()": "31f7d964",
					"actualizarFeed(address)": "d30451e7",
					"consultarBalance(address,address)": "c3b5bc22",
					"consultarBalanceTotalUSD(address)": "501cb72d",
					"consultarEstadoBanco()": "abc9cd6d",
					"consultarPrecioETH()": "d4289d89",
					"depositarETH()": "16a1930f",
					"depositarToken(address,uint256)": "a86b0bf6",
					"getUmbralRetiro()": "2b513163",
					"i_bankCapUSD()": "0ccee433",
					"i_umbralRetiroUSD()": "3eaa00fb",
					"i_usdc()": "ff40e1d0",
					"owner()": "8da5cb5b",
					"renounceOwnership()": "715018a6",
					"retirarETH(uint256)": "82fe54b5",
					"retirarToken(address,uint256)": "6a5f2407",
					"s_balances(address,address)": "dccd58e3",
					"s_contadorDepositos()": "2230c272",
					"s_contadorRetiros()": "d4b0d3ce",
					"s_ethUsdFeed()": "b9eb1c9a",
					"s_totalDepositadoPorToken(address)": "2fda583e",
					"s_totalDepositadoUSD()": "e98c6601",
					"transferOwnership(address)": "f2fde38b"
				}
			},
			"storageLayout": {
				"storage": [
					{
						"astId": 876,
						"contract": "03_kipu-bank-v2/contracts/errKipuBankV2.sol:KipuBankV2",
						"label": "_owner",
						"offset": 0,
						"slot": "0",
						"type": "t_address"
					},
					{
						"astId": 1688,
						"contract": "03_kipu-bank-v2/contracts/errKipuBankV2.sol:KipuBankV2",
						"label": "_status",
						"offset": 0,
						"slot": "1",
						"type": "t_uint256"
					},
					{
						"astId": 52,
						"contract": "03_kipu-bank-v2/contracts/errKipuBankV2.sol:KipuBankV2",
						"label": "s_ethUsdFeed",
						"offset": 0,
						"slot": "2",
						"type": "t_contract(AggregatorV3Interface)867"
					},
					{
						"astId": 59,
						"contract": "03_kipu-bank-v2/contracts/errKipuBankV2.sol:KipuBankV2",
						"label": "s_balances",
						"offset": 0,
						"slot": "3",
						"type": "t_mapping(t_address,t_mapping(t_address,t_uint256))"
					},
					{
						"astId": 64,
						"contract": "03_kipu-bank-v2/contracts/errKipuBankV2.sol:KipuBankV2",
						"label": "s_totalDepositadoPorToken",
						"offset": 0,
						"slot": "4",
						"type": "t_mapping(t_address,t_uint256)"
					},
					{
						"astId": 67,
						"contract": "03_kipu-bank-v2/contracts/errKipuBankV2.sol:KipuBankV2",
						"label": "s_totalDepositadoUSD",
						"offset": 0,
						"slot": "5",
						"type": "t_uint256"
					},
					{
						"astId": 70,
						"contract": "03_kipu-bank-v2/contracts/errKipuBankV2.sol:KipuBankV2",
						"label": "s_contadorDepositos",
						"offset": 0,
						"slot": "6",
						"type": "t_uint256"
					},
					{
						"astId": 73,
						"contract": "03_kipu-bank-v2/contracts/errKipuBankV2.sol:KipuBankV2",
						"label": "s_contadorRetiros",
						"offset": 0,
						"slot": "7",
						"type": "t_uint256"
					}
				],
				"types": {
					"t_address": {
						"encoding": "inplace",
						"label": "address",
						"numberOfBytes": "20"
					},
					"t_contract(AggregatorV3Interface)867": {
						"encoding": "inplace",
						"label": "contract AggregatorV3Interface",
						"numberOfBytes": "20"
					},
					"t_mapping(t_address,t_mapping(t_address,t_uint256))": {
						"encoding": "mapping",
						"key": "t_address",
						"label": "mapping(address => mapping(address => uint256))",
						"numberOfBytes": "32",
						"value": "t_mapping(t_address,t_uint256)"
					},
					"t_mapping(t_address,t_uint256)": {
						"encoding": "mapping",
						"key": "t_address",
						"label": "mapping(address => uint256)",
						"numberOfBytes": "32",
						"value": "t_uint256"
					},
					"t_uint256": {
						"encoding": "inplace",
						"label": "uint256",
						"numberOfBytes": "32"
					}
				}
			},
			"userdoc": {
				"errors": {
					"KipuBankV2_LimiteGlobalExcedidoUSD(uint256,uint256,uint256)": [
						{
							"notice": "Error emitido cuando el depósito excede el límite global en USD"
						}
					],
					"KipuBankV2_MontoDebeSerMayorACero()": [
						{
							"notice": "Error emitido cuando el monto es cero"
						}
					],
					"KipuBankV2_OracleCompromised()": [
						{
							"notice": "Error emitido cuando el oráculo retorna un precio inválido"
						}
					],
					"KipuBankV2_RetiroExcedeUmbral(uint256,uint256)": [
						{
							"notice": "Error emitido cuando el retiro excede el umbral permitido por transacción"
						}
					],
					"KipuBankV2_SaldoInsuficiente(uint256,uint256)": [
						{
							"notice": "Error emitido cuando el usuario intenta retirar más de lo que tiene"
						}
					],
					"KipuBankV2_StalePrice(uint256,uint256)": [
						{
							"notice": "Error emitido cuando el precio del oráculo está desactualizado"
						}
					],
					"KipuBankV2_TokenNoSoportado(address)": [
						{
							"notice": "Error emitido cuando el token no es soportado"
						}
					],
					"KipuBankV2_TransferenciaFallida(address)": [
						{
							"notice": "Error emitido cuando falla la transferencia de ETH"
						}
					]
				},
				"events": {
					"KipuBankV2_DepositoRealizado(address,address,uint256,uint256)": {
						"notice": "Evento emitido cuando un usuario realiza un depósito exitoso"
					},
					"KipuBankV2_FeedActualizado(address)": {
						"notice": "Evento emitido cuando el owner actualiza el feed de Chainlink"
					},
					"KipuBankV2_RetiroRealizado(address,address,uint256,uint256)": {
						"notice": "Evento emitido cuando un usuario realiza un retiro exitoso"
					}
				},
				"kind": "user",
				"methods": {
					"NATIVE_TOKEN()": {
						"notice": "declaro eth nativo"
					},
					"actualizarFeed(address)": {
						"notice": "Permite al dueno del contrato actualizar la dirección del Chainlink Price Feed"
					},
					"consultarBalance(address,address)": {
						"notice": "Consulta el balance de un usuario para un token específico"
					},
					"consultarBalanceTotalUSD(address)": {
						"notice": "Consulta el balance total de un usuario en USD (todos los tokens)"
					},
					"consultarEstadoBanco()": {
						"notice": "Consulta información general del estado del banco"
					},
					"consultarPrecioETH()": {
						"notice": "Consulta el precio actual de ETH en USD desde Chainlink"
					},
					"depositarETH()": {
						"notice": "Permite depositar ETH nativo en la bóveda del usuario"
					},
					"depositarToken(address,uint256)": {
						"notice": "Permite depositar tokens ERC20 en la bóveda del usuario"
					},
					"i_bankCapUSD()": {
						"notice": "Límite global del banco en USD"
					},
					"i_umbralRetiroUSD()": {
						"notice": "Umbral máximo de retiro por transacción en USD"
					},
					"i_usdc()": {
						"notice": "Dirección del token USDC"
					},
					"retirarETH(uint256)": {
						"notice": "Permite retirar ETH nativo de la bóveda del usuario"
					},
					"retirarToken(address,uint256)": {
						"notice": "Permite retirar tokens ERC20 de la bóveda del usuario"
					},
					"s_balances(address,address)": {
						"notice": "Mapping anidado: usuario => token => balance en USD"
					},
					"s_contadorDepositos()": {
						"notice": "Contador global de depósitos realizados"
					},
					"s_contadorRetiros()": {
						"notice": "Contador global de retiros realizados"
					},
					"s_ethUsdFeed()": {
						"notice": "Oracle de Chainlink para obtener precio ETH/USD"
					},
					"s_totalDepositadoPorToken(address)": {
						"notice": "Total depositado por token en USD"
					},
					"s_totalDepositadoUSD()": {
						"notice": "Total depositado global en USD (suma de todos los tokens)"
					}
				},
				"version": 1
			}
		}
	}
}