{
	"03_kipu-bank-v2/contracts/errKipuBankV2 copy.sol": {
		"KipuBankV2": {
			"abi": [
				{
					"inputs": [
						{
							"internalType": "address",
							"name": "_owner",
							"type": "address"
						}
					],
					"stateMutability": "nonpayable",
					"type": "constructor"
				},
				{
					"inputs": [
						{
							"internalType": "uint256",
							"name": "totalActualUSD",
							"type": "uint256"
						},
						{
							"internalType": "uint256",
							"name": "intentoDepositoUSD",
							"type": "uint256"
						},
						{
							"internalType": "uint256",
							"name": "limiteUSD",
							"type": "uint256"
						}
					],
					"name": "KipuBankV2_LimiteGlobalExcedidoUSD",
					"type": "error"
				},
				{
					"inputs": [],
					"name": "KipuBankV2_MontoDebeSerMayorACero",
					"type": "error"
				},
				{
					"inputs": [],
					"name": "KipuBankV2_OracleCompromised",
					"type": "error"
				},
				{
					"inputs": [
						{
							"internalType": "uint256",
							"name": "montoSolicitadoUSD",
							"type": "uint256"
						},
						{
							"internalType": "uint256",
							"name": "umbralMaximoUSD",
							"type": "uint256"
						}
					],
					"name": "KipuBankV2_RetiroExcedeUmbral",
					"type": "error"
				},
				{
					"inputs": [
						{
							"internalType": "uint256",
							"name": "balanceDisponible",
							"type": "uint256"
						},
						{
							"internalType": "uint256",
							"name": "montoSolicitado",
							"type": "uint256"
						}
					],
					"name": "KipuBankV2_SaldoInsuficiente",
					"type": "error"
				},
				{
					"inputs": [
						{
							"internalType": "uint256",
							"name": "tiempoTranscurrido",
							"type": "uint256"
						},
						{
							"internalType": "uint256",
							"name": "heartbeat",
							"type": "uint256"
						}
					],
					"name": "KipuBankV2_StalePrice",
					"type": "error"
				},
				{
					"inputs": [
						{
							"internalType": "address",
							"name": "token",
							"type": "address"
						}
					],
					"name": "KipuBankV2_TokenNoSoportado",
					"type": "error"
				},
				{
					"inputs": [
						{
							"internalType": "address",
							"name": "destinatario",
							"type": "address"
						}
					],
					"name": "KipuBankV2_TransferenciaFallida",
					"type": "error"
				},
				{
					"inputs": [
						{
							"internalType": "address",
							"name": "owner",
							"type": "address"
						}
					],
					"name": "OwnableInvalidOwner",
					"type": "error"
				},
				{
					"inputs": [
						{
							"internalType": "address",
							"name": "account",
							"type": "address"
						}
					],
					"name": "OwnableUnauthorizedAccount",
					"type": "error"
				},
				{
					"inputs": [],
					"name": "ReentrancyGuardReentrantCall",
					"type": "error"
				},
				{
					"inputs": [
						{
							"internalType": "address",
							"name": "token",
							"type": "address"
						}
					],
					"name": "SafeERC20FailedOperation",
					"type": "error"
				},
				{
					"anonymous": false,
					"inputs": [
						{
							"indexed": true,
							"internalType": "address",
							"name": "usuario",
							"type": "address"
						},
						{
							"indexed": true,
							"internalType": "address",
							"name": "token",
							"type": "address"
						},
						{
							"indexed": false,
							"internalType": "uint256",
							"name": "amount",
							"type": "uint256"
						},
						{
							"indexed": false,
							"internalType": "uint256",
							"name": "amountUSD",
							"type": "uint256"
						}
					],
					"name": "KipuBankV2_DepositoRealizado",
					"type": "event"
				},
				{
					"anonymous": false,
					"inputs": [
						{
							"indexed": true,
							"internalType": "address",
							"name": "newFeed",
							"type": "address"
						}
					],
					"name": "KipuBankV2_FeedActualizado",
					"type": "event"
				},
				{
					"anonymous": false,
					"inputs": [
						{
							"indexed": true,
							"internalType": "address",
							"name": "usuario",
							"type": "address"
						},
						{
							"indexed": true,
							"internalType": "address",
							"name": "token",
							"type": "address"
						},
						{
							"indexed": false,
							"internalType": "uint256",
							"name": "amount",
							"type": "uint256"
						},
						{
							"indexed": false,
							"internalType": "uint256",
							"name": "amountUSD",
							"type": "uint256"
						}
					],
					"name": "KipuBankV2_RetiroRealizado",
					"type": "event"
				},
				{
					"anonymous": false,
					"inputs": [
						{
							"indexed": true,
							"internalType": "address",
							"name": "previousOwner",
							"type": "address"
						},
						{
							"indexed": true,
							"internalType": "address",
							"name": "newOwner",
							"type": "address"
						}
					],
					"name": "OwnershipTransferred",
					"type": "event"
				},
				{
					"inputs": [],
					"name": "NATIVE_TOKEN",
					"outputs": [
						{
							"internalType": "address",
							"name": "",
							"type": "address"
						}
					],
					"stateMutability": "view",
					"type": "function"
				},
				{
					"inputs": [
						{
							"internalType": "address",
							"name": "_newFeed",
							"type": "address"
						}
					],
					"name": "actualizarFeed",
					"outputs": [],
					"stateMutability": "nonpayable",
					"type": "function"
				},
				{
					"inputs": [
						{
							"internalType": "address",
							"name": "_usuario",
							"type": "address"
						},
						{
							"internalType": "address",
							"name": "_token",
							"type": "address"
						}
					],
					"name": "consultarBalance",
					"outputs": [
						{
							"internalType": "uint256",
							"name": "balance_",
							"type": "uint256"
						}
					],
					"stateMutability": "view",
					"type": "function"
				},
				{
					"inputs": [
						{
							"internalType": "address",
							"name": "_usuario",
							"type": "address"
						}
					],
					"name": "consultarBalanceTotalUSD",
					"outputs": [
						{
							"internalType": "uint256",
							"name": "balanceTotalUSD_",
							"type": "uint256"
						}
					],
					"stateMutability": "view",
					"type": "function"
				},
				{
					"inputs": [],
					"name": "consultarEstadoBanco",
					"outputs": [
						{
							"internalType": "uint256",
							"name": "totalDepositadoUSD_",
							"type": "uint256"
						},
						{
							"internalType": "uint256",
							"name": "totalETH_",
							"type": "uint256"
						},
						{
							"internalType": "uint256",
							"name": "totalUSDC_",
							"type": "uint256"
						},
						{
							"internalType": "uint256",
							"name": "contadorDepositos_",
							"type": "uint256"
						},
						{
							"internalType": "uint256",
							"name": "contadorRetiros_",
							"type": "uint256"
						},
						{
							"internalType": "uint256",
							"name": "bankCapUSD_",
							"type": "uint256"
						},
						{
							"internalType": "uint256",
							"name": "umbralRetiroUSD_",
							"type": "uint256"
						}
					],
					"stateMutability": "view",
					"type": "function"
				},
				{
					"inputs": [],
					"name": "consultarPrecioETH",
					"outputs": [
						{
							"internalType": "uint256",
							"name": "precioETH_",
							"type": "uint256"
						},
						{
							"internalType": "uint256",
							"name": "ultimaActualizacion_",
							"type": "uint256"
						}
					],
					"stateMutability": "view",
					"type": "function"
				},
				{
					"inputs": [],
					"name": "depositarETH",
					"outputs": [],
					"stateMutability": "payable",
					"type": "function"
				},
				{
					"inputs": [
						{
							"internalType": "address",
							"name": "_token",
							"type": "address"
						},
						{
							"internalType": "uint256",
							"name": "_amount",
							"type": "uint256"
						}
					],
					"name": "depositarToken",
					"outputs": [],
					"stateMutability": "nonpayable",
					"type": "function"
				},
				{
					"inputs": [
						{
							"internalType": "uint256",
							"name": "_amount",
							"type": "uint256"
						}
					],
					"name": "depositarUSDC",
					"outputs": [],
					"stateMutability": "nonpayable",
					"type": "function"
				},
				{
					"inputs": [],
					"name": "getUmbralRetiro",
					"outputs": [
						{
							"internalType": "uint256",
							"name": "",
							"type": "uint256"
						}
					],
					"stateMutability": "view",
					"type": "function"
				},
				{
					"inputs": [],
					"name": "i_bankCapUSD",
					"outputs": [
						{
							"internalType": "uint256",
							"name": "",
							"type": "uint256"
						}
					],
					"stateMutability": "view",
					"type": "function"
				},
				{
					"inputs": [],
					"name": "i_umbralRetiroUSD",
					"outputs": [
						{
							"internalType": "uint256",
							"name": "",
							"type": "uint256"
						}
					],
					"stateMutability": "view",
					"type": "function"
				},
				{
					"inputs": [],
					"name": "i_usdc",
					"outputs": [
						{
							"internalType": "contract IERC20",
							"name": "",
							"type": "address"
						}
					],
					"stateMutability": "view",
					"type": "function"
				},
				{
					"inputs": [],
					"name": "owner",
					"outputs": [
						{
							"internalType": "address",
							"name": "",
							"type": "address"
						}
					],
					"stateMutability": "view",
					"type": "function"
				},
				{
					"inputs": [],
					"name": "renounceOwnership",
					"outputs": [],
					"stateMutability": "nonpayable",
					"type": "function"
				},
				{
					"inputs": [
						{
							"internalType": "uint256",
							"name": "_amountETH",
							"type": "uint256"
						}
					],
					"name": "retirarETH",
					"outputs": [],
					"stateMutability": "nonpayable",
					"type": "function"
				},
				{
					"inputs": [
						{
							"internalType": "address",
							"name": "_token",
							"type": "address"
						},
						{
							"internalType": "uint256",
							"name": "_amount",
							"type": "uint256"
						}
					],
					"name": "retirarToken",
					"outputs": [],
					"stateMutability": "nonpayable",
					"type": "function"
				},
				{
					"inputs": [
						{
							"internalType": "uint256",
							"name": "_amount",
							"type": "uint256"
						}
					],
					"name": "retirarUSDC",
					"outputs": [],
					"stateMutability": "nonpayable",
					"type": "function"
				},
				{
					"inputs": [
						{
							"internalType": "address",
							"name": "user",
							"type": "address"
						},
						{
							"internalType": "address",
							"name": "token",
							"type": "address"
						}
					],
					"name": "s_balances",
					"outputs": [
						{
							"internalType": "uint256",
							"name": "balanceUSD",
							"type": "uint256"
						}
					],
					"stateMutability": "view",
					"type": "function"
				},
				{
					"inputs": [],
					"name": "s_contadorDepositos",
					"outputs": [
						{
							"internalType": "uint256",
							"name": "",
							"type": "uint256"
						}
					],
					"stateMutability": "view",
					"type": "function"
				},
				{
					"inputs": [],
					"name": "s_contadorRetiros",
					"outputs": [
						{
							"internalType": "uint256",
							"name": "",
							"type": "uint256"
						}
					],
					"stateMutability": "view",
					"type": "function"
				},
				{
					"inputs": [],
					"name": "s_ethUsdFeed",
					"outputs": [
						{
							"internalType": "contract AggregatorV3Interface",
							"name": "",
							"type": "address"
						}
					],
					"stateMutability": "view",
					"type": "function"
				},
				{
					"inputs": [
						{
							"internalType": "address",
							"name": "token",
							"type": "address"
						}
					],
					"name": "s_totalDepositadoPorToken",
					"outputs": [
						{
							"internalType": "uint256",
							"name": "totalUSD",
							"type": "uint256"
						}
					],
					"stateMutability": "view",
					"type": "function"
				},
				{
					"inputs": [],
					"name": "s_totalDepositadoUSD",
					"outputs": [
						{
							"internalType": "uint256",
							"name": "",
							"type": "uint256"
						}
					],
					"stateMutability": "view",
					"type": "function"
				},
				{
					"inputs": [
						{
							"internalType": "address",
							"name": "newOwner",
							"type": "address"
						}
					],
					"name": "transferOwnership",
					"outputs": [],
					"stateMutability": "nonpayable",
					"type": "function"
				}
			],
			"devdoc": {
				"author": "guidobursz Memoria: bankCap USD: 1000 (1000000000) umbralRetiro USD: 100 (100000000) oraculo: 0x694AA1769357215DE4FAC081bf1f309aDC325306 usdc: 0x1c7D4B196Cb0C7B01d743Fbc6116a902379C7238 owner: 0x652405FdecC7fCcA771752b83D5F6DB8be46a296 CONTRATO: 0x12b3DAadBFb0d0d6EdaC704bCeD03a9AefA71F83*",
				"errors": {
					"KipuBankV2_LimiteGlobalExcedidoUSD(uint256,uint256,uint256)": [
						{
							"params": {
								"intentoDepositoUSD": "Monto que se intenta depositar",
								"limiteUSD": "Límite máximo permitido (bankCap)",
								"totalActualUSD": "Total actualmente depositado en el banco"
							}
						}
					],
					"KipuBankV2_RetiroExcedeUmbral(uint256,uint256)": [
						{
							"params": {
								"montoSolicitadoUSD": "Monto que intenta retirar en USD",
								"umbralMaximoUSD": "Límite máximo por retiro en USD"
							}
						}
					],
					"KipuBankV2_SaldoInsuficiente(uint256,uint256)": [
						{
							"params": {
								"balanceDisponible": "Balance actual del usuario en USD",
								"montoSolicitado": "Monto que intenta retirar en USD"
							}
						}
					],
					"KipuBankV2_StalePrice(uint256,uint256)": [
						{
							"params": {
								"heartbeat": "Tiempo máximo permitido",
								"tiempoTranscurrido": "Tiempo desde la última actualización"
							}
						}
					],
					"KipuBankV2_TokenNoSoportado(address)": [
						{
							"params": {
								"token": "Dirección del token no soportado"
							}
						}
					],
					"KipuBankV2_TransferenciaFallida(address)": [
						{
							"params": {
								"destinatario": "Dirección a la que se intentó enviar"
							}
						}
					],
					"OwnableInvalidOwner(address)": [
						{
							"details": "The owner is not a valid owner account. (eg. `address(0)`)"
						}
					],
					"OwnableUnauthorizedAccount(address)": [
						{
							"details": "The caller account is not authorized to perform an operation."
						}
					],
					"ReentrancyGuardReentrantCall()": [
						{
							"details": "Unauthorized reentrant call."
						}
					],
					"SafeERC20FailedOperation(address)": [
						{
							"details": "An operation with an ERC-20 token failed."
						}
					]
				},
				"events": {
					"KipuBankV2_DepositoRealizado(address,address,uint256,uint256)": {
						"params": {
							"amount": "Cantidad depositada en unidades del token",
							"amountUSD": "Valor del depósito en USD",
							"token": "Dirección del token depositado (address(0) para ETH)",
							"usuario": "Dirección del usuario que depositó"
						}
					},
					"KipuBankV2_FeedActualizado(address)": {
						"params": {
							"newFeed": "Nueva dirección del feed ETH/USD"
						}
					},
					"KipuBankV2_RetiroRealizado(address,address,uint256,uint256)": {
						"params": {
							"amount": "Cantidad retirada en unidades del token",
							"amountUSD": "Valor del retiro en USD (6 decimales)",
							"token": "Dirección del token retirado (address(0) para ETH)",
							"usuario": "Dirección del usuario que retiró"
						}
					}
				},
				"kind": "dev",
				"methods": {
					"actualizarFeed(address)": {
						"details": "Solo el propietario puede llamar esta función",
						"params": {
							"_newFeed": "Nueva dirección del feed ETH/USD"
						}
					},
					"consultarBalance(address,address)": {
						"params": {
							"_token": "Dirección del token (address(0) para ETH)",
							"_usuario": "Dirección del usuario a consultar"
						},
						"returns": {
							"balance_": "Balance del usuario en USD (6 decimales)"
						}
					},
					"consultarBalanceTotalUSD(address)": {
						"params": {
							"_usuario": "Dirección del usuario a consultar"
						},
						"returns": {
							"balanceTotalUSD_": "Balance total en USD (6 decimales)"
						}
					},
					"consultarEstadoBanco()": {
						"returns": {
							"bankCapUSD_": "Límite máximo del banco en USD",
							"contadorDepositos_": "Número total de depósitos realizados",
							"contadorRetiros_": "Número total de retiros realizados",
							"totalDepositadoUSD_": "Total depositado en el banco en USD",
							"totalETH_": "Total de ETH depositado en USD",
							"totalUSDC_": "Total de USDC depositado en USD",
							"umbralRetiroUSD_": "Límite máximo por retiro en USD"
						}
					},
					"consultarPrecioETH()": {
						"returns": {
							"precioETH_": "Precio actual de ETH en USD (8 decimales)",
							"ultimaActualizacion_": "Timestamp de la última actualización"
						}
					},
					"depositarETH()": {
						"details": "Convierte el ETH a USD usando Chainlink y valida el límite globalEl balance se almacena en USD"
					},
					"depositarToken(address,uint256)": {
						"details": "El usuario debe aprobar previamente el token al contratoSolo soporta USDC actualmente",
						"params": {
							"_amount": "Cantidad a depositar en unidades del token",
							"_token": "Dirección del token a depositar"
						}
					},
					"depositarUSDC(uint256)": {
						"details": "Valida el límite globalIncrementa el balance del usuario y el total depositadoEmite el evento KipuBankV2_DepositoRealizado"
					},
					"owner()": {
						"details": "Returns the address of the current owner."
					},
					"renounceOwnership()": {
						"details": "Leaves the contract without owner. It will not be possible to call `onlyOwner` functions. Can only be called by the current owner. NOTE: Renouncing ownership will leave the contract without an owner, thereby disabling any functionality that is only available to the owner."
					},
					"retirarETH(uint256)": {
						"details": "Valida saldo suficiente y umbral de retiro en USD",
						"params": {
							"_amountETH": "Cantidad de ETH a retirar en wei"
						}
					},
					"retirarToken(address,uint256)": {
						"details": "Valida saldo suficiente y umbral de retiro en USD",
						"params": {
							"_amount": "Cantidad a retirar en unidades del token",
							"_token": "Dirección del token a retirar"
						}
					},
					"retirarUSDC(uint256)": {
						"details": "Valida saldo suficiente y umbral de retiro en USD",
						"params": {
							"_amount": "Cantidad de USDC a retirar"
						}
					},
					"transferOwnership(address)": {
						"details": "Transfers ownership of the contract to a new account (`newOwner`). Can only be called by the current owner."
					}
				},
				"title": "KipuBankV2",
				"version": 1
			},
			"evm": {
				"assembly": "    /* \"03_kipu-bank-v2/contracts/errKipuBankV2 copy.sol\":1253:22516  contract KipuBankV2 is Ownable, ReentrancyGuard {... */\n  mstore(0x40, 0xe0)\n    /* \"03_kipu-bank-v2/contracts/errKipuBankV2 copy.sol\":6513:6878  constructor(address _owner) Ownable(_owner){... */\n  callvalue\n  dup1\n  iszero\n  tag_1\n  jumpi\n  0x00\n  dup1\n  revert\ntag_1:\n  pop\n  mload(0x40)\n  sub(codesize, bytecodeSize)\n  dup1\n  bytecodeSize\n  dup4\n  codecopy\n  dup2\n  dup2\n  add\n  0x40\n  mstore\n  dup2\n  add\n  swap1\n  tag_2\n  swap2\n  swap1\n  tag_3\n  jump\t// in\ntag_2:\n    /* \"03_kipu-bank-v2/contracts/errKipuBankV2 copy.sol\":6549:6555  _owner */\n  dup1\n    /* \"@openzeppelin/contracts/access/Ownable.sol\":1297:1298  0 */\n  0x00\n    /* \"@openzeppelin/contracts/access/Ownable.sol\":1273:1299  initialOwner == address(0) */\n  0xffffffffffffffffffffffffffffffffffffffff\n  and\n    /* \"@openzeppelin/contracts/access/Ownable.sol\":1273:1285  initialOwner */\n  dup2\n    /* \"@openzeppelin/contracts/access/Ownable.sol\":1273:1299  initialOwner == address(0) */\n  0xffffffffffffffffffffffffffffffffffffffff\n  and\n  sub\n    /* \"@openzeppelin/contracts/access/Ownable.sol\":1269:1364  if (initialOwner == address(0)) {... */\n  tag_8\n  jumpi\n    /* \"@openzeppelin/contracts/access/Ownable.sol\":1350:1351  0 */\n  0x00\n    /* \"@openzeppelin/contracts/access/Ownable.sol\":1322:1353  OwnableInvalidOwner(address(0)) */\n  mload(0x40)\n  0x1e4fbdf700000000000000000000000000000000000000000000000000000000\n  dup2\n  mstore\n  0x04\n  add\n  tag_9\n  swap2\n  swap1\n  tag_10\n  jump\t// in\ntag_9:\n  mload(0x40)\n  dup1\n  swap2\n  sub\n  swap1\n  revert\n    /* \"@openzeppelin/contracts/access/Ownable.sol\":1269:1364  if (initialOwner == address(0)) {... */\ntag_8:\n    /* \"@openzeppelin/contracts/access/Ownable.sol\":1373:1405  _transferOwnership(initialOwner) */\n  tag_11\n    /* \"@openzeppelin/contracts/access/Ownable.sol\":1392:1404  initialOwner */\n  dup2\n    /* \"@openzeppelin/contracts/access/Ownable.sol\":1373:1391  _transferOwnership */\n  shl(0x20, tag_12)\n    /* \"@openzeppelin/contracts/access/Ownable.sol\":1373:1405  _transferOwnership(initialOwner) */\n  0x20\n  shr\n  jump\t// in\ntag_11:\n    /* \"@openzeppelin/contracts/access/Ownable.sol\":1225:1412  constructor(address initialOwner) {... */\n  pop\n    /* \"@openzeppelin/contracts/utils/ReentrancyGuard.sol\":1857:1858  1 */\n  0x01\n    /* \"@openzeppelin/contracts/utils/ReentrancyGuard.sol\":2061:2068  _status */\n  dup1\n    /* \"@openzeppelin/contracts/utils/ReentrancyGuard.sol\":2061:2082  _status = NOT_ENTERED */\n  dup2\n  swap1\n  sstore\n  pop\n    /* \"03_kipu-bank-v2/contracts/errKipuBankV2 copy.sol\":6581:6591  1000000000 */\n  0x3b9aca00\n    /* \"03_kipu-bank-v2/contracts/errKipuBankV2 copy.sol\":6566:6591  i_bankCapUSD = 1000000000 */\n  0x80\n  dup2\n  dup2\n  mstore\n  pop\n  pop\n    /* \"03_kipu-bank-v2/contracts/errKipuBankV2 copy.sol\":6628:6637  100000000 */\n  0x05f5e100\n    /* \"03_kipu-bank-v2/contracts/errKipuBankV2 copy.sol\":6608:6637  i_umbralRetiroUSD = 100000000 */\n  0xa0\n  dup2\n  dup2\n  mstore\n  pop\n  pop\n    /* \"03_kipu-bank-v2/contracts/errKipuBankV2 copy.sol\":6690:6732  0x694AA1769357215DE4FAC081bf1f309aDC325306 */\n  0x694aa1769357215de4fac081bf1f309adc325306\n    /* \"03_kipu-bank-v2/contracts/errKipuBankV2 copy.sol\":6653:6665  s_ethUsdFeed */\n  0x02\n  0x00\n    /* \"03_kipu-bank-v2/contracts/errKipuBankV2 copy.sol\":6653:6733  s_ethUsdFeed = AggregatorV3Interface(0x694AA1769357215DE4FAC081bf1f309aDC325306) */\n  0x0100\n  exp\n  dup2\n  sload\n  dup2\n  0xffffffffffffffffffffffffffffffffffffffff\n  mul\n  not\n  and\n  swap1\n  dup4\n  0xffffffffffffffffffffffffffffffffffffffff\n  and\n  mul\n  or\n  swap1\n  sstore\n  pop\n    /* \"03_kipu-bank-v2/contracts/errKipuBankV2 copy.sol\":6759:6801  0x1c7D4B196Cb0C7B01d743Fbc6116a902379C7238 */\n  0x1c7d4b196cb0c7b01d743fbc6116a902379c7238\n    /* \"03_kipu-bank-v2/contracts/errKipuBankV2 copy.sol\":6743:6802  i_usdc = IERC20(0x1c7D4B196Cb0C7B01d743Fbc6116a902379C7238) */\n  0xffffffffffffffffffffffffffffffffffffffff\n  and\n  0xc0\n  dup2\n  0xffffffffffffffffffffffffffffffffffffffff\n  and\n  dup2\n  mstore\n  pop\n  pop\n    /* \"03_kipu-bank-v2/contracts/errKipuBankV2 copy.sol\":6513:6878  constructor(address _owner) Ownable(_owner){... */\n  pop\n    /* \"03_kipu-bank-v2/contracts/errKipuBankV2 copy.sol\":1253:22516  contract KipuBankV2 is Ownable, ReentrancyGuard {... */\n  jump(tag_15)\n    /* \"@openzeppelin/contracts/access/Ownable.sol\":2912:3099  function _transferOwnership(address newOwner) internal virtual {... */\ntag_12:\n    /* \"@openzeppelin/contracts/access/Ownable.sol\":2985:3001  address oldOwner */\n  0x00\n    /* \"@openzeppelin/contracts/access/Ownable.sol\":3004:3010  _owner */\n  dup1\n  0x00\n  swap1\n  sload\n  swap1\n  0x0100\n  exp\n  swap1\n  div\n  0xffffffffffffffffffffffffffffffffffffffff\n  and\n    /* \"@openzeppelin/contracts/access/Ownable.sol\":2985:3010  address oldOwner = _owner */\n  swap1\n  pop\n    /* \"@openzeppelin/contracts/access/Ownable.sol\":3029:3037  newOwner */\n  dup2\n    /* \"@openzeppelin/contracts/access/Ownable.sol\":3020:3026  _owner */\n  0x00\n  dup1\n    /* \"@openzeppelin/contracts/access/Ownable.sol\":3020:3037  _owner = newOwner */\n  0x0100\n  exp\n  dup2\n  sload\n  dup2\n  0xffffffffffffffffffffffffffffffffffffffff\n  mul\n  not\n  and\n  swap1\n  dup4\n  0xffffffffffffffffffffffffffffffffffffffff\n  and\n  mul\n  or\n  swap1\n  sstore\n  pop\n    /* \"@openzeppelin/contracts/access/Ownable.sol\":3083:3091  newOwner */\n  dup2\n    /* \"@openzeppelin/contracts/access/Ownable.sol\":3052:3092  OwnershipTransferred(oldOwner, newOwner) */\n  0xffffffffffffffffffffffffffffffffffffffff\n  and\n    /* \"@openzeppelin/contracts/access/Ownable.sol\":3073:3081  oldOwner */\n  dup2\n    /* \"@openzeppelin/contracts/access/Ownable.sol\":3052:3092  OwnershipTransferred(oldOwner, newOwner) */\n  0xffffffffffffffffffffffffffffffffffffffff\n  and\n  0x8be0079c531659141344cd1fd0a4f28419497f9722a3daafe3b4186f6b6457e0\n  mload(0x40)\n  mload(0x40)\n  dup1\n  swap2\n  sub\n  swap1\n  log3\n    /* \"@openzeppelin/contracts/access/Ownable.sol\":2975:3099  {... */\n  pop\n    /* \"@openzeppelin/contracts/access/Ownable.sol\":2912:3099  function _transferOwnership(address newOwner) internal virtual {... */\n  pop\n  jump\t// out\n    /* \"#utility.yul\":88:205   */\ntag_18:\n    /* \"#utility.yul\":197:198   */\n  0x00\n    /* \"#utility.yul\":194:195   */\n  dup1\n    /* \"#utility.yul\":187:199   */\n  revert\n    /* \"#utility.yul\":334:460   */\ntag_20:\n    /* \"#utility.yul\":371:378   */\n  0x00\n    /* \"#utility.yul\":411:453   */\n  0xffffffffffffffffffffffffffffffffffffffff\n    /* \"#utility.yul\":404:409   */\n  dup3\n    /* \"#utility.yul\":400:454   */\n  and\n    /* \"#utility.yul\":389:454   */\n  swap1\n  pop\n    /* \"#utility.yul\":334:460   */\n  swap2\n  swap1\n  pop\n  jump\t// out\n    /* \"#utility.yul\":466:562   */\ntag_21:\n    /* \"#utility.yul\":503:510   */\n  0x00\n    /* \"#utility.yul\":532:556   */\n  tag_31\n    /* \"#utility.yul\":550:555   */\n  dup3\n    /* \"#utility.yul\":532:556   */\n  tag_20\n  jump\t// in\ntag_31:\n    /* \"#utility.yul\":521:556   */\n  swap1\n  pop\n    /* \"#utility.yul\":466:562   */\n  swap2\n  swap1\n  pop\n  jump\t// out\n    /* \"#utility.yul\":568:690   */\ntag_22:\n    /* \"#utility.yul\":641:665   */\n  tag_33\n    /* \"#utility.yul\":659:664   */\n  dup2\n    /* \"#utility.yul\":641:665   */\n  tag_21\n  jump\t// in\ntag_33:\n    /* \"#utility.yul\":634:639   */\n  dup2\n    /* \"#utility.yul\":631:666   */\n  eq\n    /* \"#utility.yul\":621:684   */\n  tag_34\n  jumpi\n    /* \"#utility.yul\":680:681   */\n  0x00\n    /* \"#utility.yul\":677:678   */\n  dup1\n    /* \"#utility.yul\":670:682   */\n  revert\n    /* \"#utility.yul\":621:684   */\ntag_34:\n    /* \"#utility.yul\":568:690   */\n  pop\n  jump\t// out\n    /* \"#utility.yul\":696:839   */\ntag_23:\n    /* \"#utility.yul\":753:758   */\n  0x00\n    /* \"#utility.yul\":784:790   */\n  dup2\n    /* \"#utility.yul\":778:791   */\n  mload\n    /* \"#utility.yul\":769:791   */\n  swap1\n  pop\n    /* \"#utility.yul\":800:833   */\n  tag_36\n    /* \"#utility.yul\":827:832   */\n  dup2\n    /* \"#utility.yul\":800:833   */\n  tag_22\n  jump\t// in\ntag_36:\n    /* \"#utility.yul\":696:839   */\n  swap3\n  swap2\n  pop\n  pop\n  jump\t// out\n    /* \"#utility.yul\":845:1196   */\ntag_3:\n    /* \"#utility.yul\":915:921   */\n  0x00\n    /* \"#utility.yul\":964:966   */\n  0x20\n    /* \"#utility.yul\":952:961   */\n  dup3\n    /* \"#utility.yul\":943:950   */\n  dup5\n    /* \"#utility.yul\":939:962   */\n  sub\n    /* \"#utility.yul\":935:967   */\n  slt\n    /* \"#utility.yul\":932:1051   */\n  iszero\n  tag_38\n  jumpi\n    /* \"#utility.yul\":970:1049   */\n  tag_39\n  tag_18\n  jump\t// in\ntag_39:\n    /* \"#utility.yul\":932:1051   */\ntag_38:\n    /* \"#utility.yul\":1090:1091   */\n  0x00\n    /* \"#utility.yul\":1115:1179   */\n  tag_40\n    /* \"#utility.yul\":1171:1178   */\n  dup5\n    /* \"#utility.yul\":1162:1168   */\n  dup3\n    /* \"#utility.yul\":1151:1160   */\n  dup6\n    /* \"#utility.yul\":1147:1169   */\n  add\n    /* \"#utility.yul\":1115:1179   */\n  tag_23\n  jump\t// in\ntag_40:\n    /* \"#utility.yul\":1105:1179   */\n  swap2\n  pop\n    /* \"#utility.yul\":1061:1189   */\n  pop\n    /* \"#utility.yul\":845:1196   */\n  swap3\n  swap2\n  pop\n  pop\n  jump\t// out\n    /* \"#utility.yul\":1202:1320   */\ntag_24:\n    /* \"#utility.yul\":1289:1313   */\n  tag_42\n    /* \"#utility.yul\":1307:1312   */\n  dup2\n    /* \"#utility.yul\":1289:1313   */\n  tag_21\n  jump\t// in\ntag_42:\n    /* \"#utility.yul\":1284:1287   */\n  dup3\n    /* \"#utility.yul\":1277:1314   */\n  mstore\n    /* \"#utility.yul\":1202:1320   */\n  pop\n  pop\n  jump\t// out\n    /* \"#utility.yul\":1326:1548   */\ntag_10:\n    /* \"#utility.yul\":1419:1423   */\n  0x00\n    /* \"#utility.yul\":1457:1459   */\n  0x20\n    /* \"#utility.yul\":1446:1455   */\n  dup3\n    /* \"#utility.yul\":1442:1460   */\n  add\n    /* \"#utility.yul\":1434:1460   */\n  swap1\n  pop\n    /* \"#utility.yul\":1470:1541   */\n  tag_44\n    /* \"#utility.yul\":1538:1539   */\n  0x00\n    /* \"#utility.yul\":1527:1536   */\n  dup4\n    /* \"#utility.yul\":1523:1540   */\n  add\n    /* \"#utility.yul\":1514:1520   */\n  dup5\n    /* \"#utility.yul\":1470:1541   */\n  tag_24\n  jump\t// in\ntag_44:\n    /* \"#utility.yul\":1326:1548   */\n  swap3\n  swap2\n  pop\n  pop\n  jump\t// out\n    /* \"03_kipu-bank-v2/contracts/errKipuBankV2 copy.sol\":1253:22516  contract KipuBankV2 is Ownable, ReentrancyGuard {... */\ntag_15:\n  mload(0x80)\n  mload(0xa0)\n  mload(0xc0)\n  codecopy(0x00, dataOffset(sub_0), dataSize(sub_0))\n  0x00\n  assignImmutable(\"0x6304e47846f882085b0f4b1a184252ae95ffe5e2a02daf39c014f492dcb1441c\")\n  0x00\n  assignImmutable(\"0x2e9b7c94e032d8b3b8b30bd825717a5ac74958b53e7c37a892a4fd7dc56e4975\")\n  0x00\n  assignImmutable(\"0x6bcaf047ba4c8ac400fca43393035242dd1aabda2d6068a0c51242b97224de8d\")\n  return(0x00, dataSize(sub_0))\nstop\n\nsub_0: assembly {\n        /* \"03_kipu-bank-v2/contracts/errKipuBankV2 copy.sol\":1253:22516  contract KipuBankV2 is Ownable, ReentrancyGuard {... */\n      mstore(0x40, 0x80)\n      jumpi(tag_1, lt(calldatasize, 0x04))\n      shr(0xe0, calldataload(0x00))\n      dup1\n      0x8da5cb5b\n      gt\n      tag_27\n      jumpi\n      dup1\n      0xd30451e7\n      gt\n      tag_28\n      jumpi\n      dup1\n      0xdccd58e3\n      gt\n      tag_29\n      jumpi\n      dup1\n      0xdccd58e3\n      eq\n      tag_23\n      jumpi\n      dup1\n      0xe98c6601\n      eq\n      tag_24\n      jumpi\n      dup1\n      0xf2fde38b\n      eq\n      tag_25\n      jumpi\n      dup1\n      0xff40e1d0\n      eq\n      tag_26\n      jumpi\n      jump(tag_1)\n    tag_29:\n      dup1\n      0xd30451e7\n      eq\n      tag_20\n      jumpi\n      dup1\n      0xd4289d89\n      eq\n      tag_21\n      jumpi\n      dup1\n      0xd4b0d3ce\n      eq\n      tag_22\n      jumpi\n      jump(tag_1)\n    tag_28:\n      dup1\n      0x8da5cb5b\n      eq\n      tag_14\n      jumpi\n      dup1\n      0x931fb90e\n      eq\n      tag_15\n      jumpi\n      dup1\n      0xa86b0bf6\n      eq\n      tag_16\n      jumpi\n      dup1\n      0xabc9cd6d\n      eq\n      tag_17\n      jumpi\n      dup1\n      0xb9eb1c9a\n      eq\n      tag_18\n      jumpi\n      dup1\n      0xc3b5bc22\n      eq\n      tag_19\n      jumpi\n      jump(tag_1)\n    tag_27:\n      dup1\n      0x3eaa00fb\n      gt\n      tag_30\n      jumpi\n      dup1\n      0x3eaa00fb\n      eq\n      tag_8\n      jumpi\n      dup1\n      0x501cb72d\n      eq\n      tag_9\n      jumpi\n      dup1\n      0x698b7241\n      eq\n      tag_10\n      jumpi\n      dup1\n      0x6a5f2407\n      eq\n      tag_11\n      jumpi\n      dup1\n      0x715018a6\n      eq\n      tag_12\n      jumpi\n      dup1\n      0x82fe54b5\n      eq\n      tag_13\n      jumpi\n      jump(tag_1)\n    tag_30:\n      dup1\n      0x0ccee433\n      eq\n      tag_2\n      jumpi\n      dup1\n      0x16a1930f\n      eq\n      tag_3\n      jumpi\n      dup1\n      0x2230c272\n      eq\n      tag_4\n      jumpi\n      dup1\n      0x2b513163\n      eq\n      tag_5\n      jumpi\n      dup1\n      0x2fda583e\n      eq\n      tag_6\n      jumpi\n      dup1\n      0x31f7d964\n      eq\n      tag_7\n      jumpi\n    tag_1:\n      0x00\n      dup1\n      revert\n        /* \"03_kipu-bank-v2/contracts/errKipuBankV2 copy.sol\":2025:2062  uint256 public immutable i_bankCapUSD */\n    tag_2:\n      callvalue\n      dup1\n      iszero\n      tag_31\n      jumpi\n      0x00\n      dup1\n      revert\n    tag_31:\n      pop\n      tag_32\n      tag_33\n      jump\t// in\n    tag_32:\n      mload(0x40)\n      tag_34\n      swap2\n      swap1\n      tag_35\n      jump\t// in\n    tag_34:\n      mload(0x40)\n      dup1\n      swap2\n      sub\n      swap1\n      return\n        /* \"03_kipu-bank-v2/contracts/errKipuBankV2 copy.sol\":7919:8951  function depositarETH() external payable nonReentrant {... */\n    tag_3:\n      tag_36\n      tag_37\n      jump\t// in\n    tag_36:\n      stop\n        /* \"03_kipu-bank-v2/contracts/errKipuBankV2 copy.sol\":2964:2998  uint256 public s_contadorDepositos */\n    tag_4:\n      callvalue\n      dup1\n      iszero\n      tag_38\n      jumpi\n      0x00\n      dup1\n      revert\n    tag_38:\n      pop\n      tag_39\n      tag_40\n      jump\t// in\n    tag_39:\n      mload(0x40)\n      tag_41\n      swap2\n      swap1\n      tag_35\n      jump\t// in\n    tag_41:\n      mload(0x40)\n      dup1\n      swap2\n      sub\n      swap1\n      return\n        /* \"03_kipu-bank-v2/contracts/errKipuBankV2 copy.sol\":21727:21827  function getUmbralRetiro() external view returns (uint256) {... */\n    tag_5:\n      callvalue\n      dup1\n      iszero\n      tag_42\n      jumpi\n      0x00\n      dup1\n      revert\n    tag_42:\n      pop\n      tag_43\n      tag_44\n      jump\t// in\n    tag_43:\n      mload(0x40)\n      tag_45\n      swap2\n      swap1\n      tag_35\n      jump\t// in\n    tag_45:\n      mload(0x40)\n      dup1\n      swap2\n      sub\n      swap1\n      return\n        /* \"03_kipu-bank-v2/contracts/errKipuBankV2 copy.sol\":2701:2776  mapping(address token => uint256 totalUSD) public s_totalDepositadoPorToken */\n    tag_6:\n      callvalue\n      dup1\n      iszero\n      tag_46\n      jumpi\n      0x00\n      dup1\n      revert\n    tag_46:\n      pop\n      tag_47\n      0x04\n      dup1\n      calldatasize\n      sub\n      dup2\n      add\n      swap1\n      tag_48\n      swap2\n      swap1\n      tag_49\n      jump\t// in\n    tag_48:\n      tag_50\n      jump\t// in\n    tag_47:\n      mload(0x40)\n      tag_51\n      swap2\n      swap1\n      tag_35\n      jump\t// in\n    tag_51:\n      mload(0x40)\n      dup1\n      swap2\n      sub\n      swap1\n      return\n        /* \"03_kipu-bank-v2/contracts/errKipuBankV2 copy.sol\":1565:1614  address public constant NATIVE_TOKEN = address(0) */\n    tag_7:\n      callvalue\n      dup1\n      iszero\n      tag_52\n      jumpi\n      0x00\n      dup1\n      revert\n    tag_52:\n      pop\n      tag_53\n      tag_54\n      jump\t// in\n    tag_53:\n      mload(0x40)\n      tag_55\n      swap2\n      swap1\n      tag_56\n      jump\t// in\n    tag_55:\n      mload(0x40)\n      dup1\n      swap2\n      sub\n      swap1\n      return\n        /* \"03_kipu-bank-v2/contracts/errKipuBankV2 copy.sol\":2138:2180  uint256 public immutable i_umbralRetiroUSD */\n    tag_8:\n      callvalue\n      dup1\n      iszero\n      tag_57\n      jumpi\n      0x00\n      dup1\n      revert\n    tag_57:\n      pop\n      tag_58\n      tag_59\n      jump\t// in\n    tag_58:\n      mload(0x40)\n      tag_60\n      swap2\n      swap1\n      tag_35\n      jump\t// in\n    tag_60:\n      mload(0x40)\n      dup1\n      swap2\n      sub\n      swap1\n      return\n        /* \"03_kipu-bank-v2/contracts/errKipuBankV2 copy.sol\":20132:20428  function consultarBalanceTotalUSD(address _usuario) ... */\n    tag_9:\n      callvalue\n      dup1\n      iszero\n      tag_61\n      jumpi\n      0x00\n      dup1\n      revert\n    tag_61:\n      pop\n      tag_62\n      0x04\n      dup1\n      calldatasize\n      sub\n      dup2\n      add\n      swap1\n      tag_63\n      swap2\n      swap1\n      tag_49\n      jump\t// in\n    tag_63:\n      tag_64\n      jump\t// in\n    tag_62:\n      mload(0x40)\n      tag_65\n      swap2\n      swap1\n      tag_35\n      jump\t// in\n    tag_65:\n      mload(0x40)\n      dup1\n      swap2\n      sub\n      swap1\n      return\n        /* \"03_kipu-bank-v2/contracts/errKipuBankV2 copy.sol\":9174:10124  function depositarUSDC(uint256 _amount) ... */\n    tag_10:\n      callvalue\n      dup1\n      iszero\n      tag_66\n      jumpi\n      0x00\n      dup1\n      revert\n    tag_66:\n      pop\n      tag_67\n      0x04\n      dup1\n      calldatasize\n      sub\n      dup2\n      add\n      swap1\n      tag_68\n      swap2\n      swap1\n      tag_69\n      jump\t// in\n    tag_68:\n      tag_70\n      jump\t// in\n    tag_67:\n      stop\n        /* \"03_kipu-bank-v2/contracts/errKipuBankV2 copy.sol\":14492:15736  function retirarToken(address _token, uint256 _amount) ... */\n    tag_11:\n      callvalue\n      dup1\n      iszero\n      tag_71\n      jumpi\n      0x00\n      dup1\n      revert\n    tag_71:\n      pop\n      tag_72\n      0x04\n      dup1\n      calldatasize\n      sub\n      dup2\n      add\n      swap1\n      tag_73\n      swap2\n      swap1\n      tag_74\n      jump\t// in\n    tag_73:\n      tag_75\n      jump\t// in\n    tag_72:\n      stop\n        /* \"@openzeppelin/contracts/access/Ownable.sol\":2293:2394  function renounceOwnership() public virtual onlyOwner {... */\n    tag_12:\n      callvalue\n      dup1\n      iszero\n      tag_76\n      jumpi\n      0x00\n      dup1\n      revert\n    tag_76:\n      pop\n      tag_77\n      tag_78\n      jump\t// in\n    tag_77:\n      stop\n        /* \"03_kipu-bank-v2/contracts/errKipuBankV2 copy.sol\":11761:12952  function retirarETH(uint256 _amountETH) ... */\n    tag_13:\n      callvalue\n      dup1\n      iszero\n      tag_79\n      jumpi\n      0x00\n      dup1\n      revert\n    tag_79:\n      pop\n      tag_80\n      0x04\n      dup1\n      calldatasize\n      sub\n      dup2\n      add\n      swap1\n      tag_81\n      swap2\n      swap1\n      tag_69\n      jump\t// in\n    tag_81:\n      tag_82\n      jump\t// in\n    tag_80:\n      stop\n        /* \"@openzeppelin/contracts/access/Ownable.sol\":1638:1723  function owner() public view virtual returns (address) {... */\n    tag_14:\n      callvalue\n      dup1\n      iszero\n      tag_83\n      jumpi\n      0x00\n      dup1\n      revert\n    tag_83:\n      pop\n      tag_84\n      tag_85\n      jump\t// in\n    tag_84:\n      mload(0x40)\n      tag_86\n      swap2\n      swap1\n      tag_56\n      jump\t// in\n    tag_86:\n      mload(0x40)\n      dup1\n      swap2\n      sub\n      swap1\n      return\n        /* \"03_kipu-bank-v2/contracts/errKipuBankV2 copy.sol\":13144:14227  function retirarUSDC(uint256 _amount) ... */\n    tag_15:\n      callvalue\n      dup1\n      iszero\n      tag_87\n      jumpi\n      0x00\n      dup1\n      revert\n    tag_87:\n      pop\n      tag_88\n      0x04\n      dup1\n      calldatasize\n      sub\n      dup2\n      add\n      swap1\n      tag_89\n      swap2\n      swap1\n      tag_69\n      jump\t// in\n    tag_89:\n      tag_90\n      jump\t// in\n    tag_88:\n      stop\n        /* \"03_kipu-bank-v2/contracts/errKipuBankV2 copy.sol\":10442:11554  function depositarToken(address _token, uint256 _amount) ... */\n    tag_16:\n      callvalue\n      dup1\n      iszero\n      tag_91\n      jumpi\n      0x00\n      dup1\n      revert\n    tag_91:\n      pop\n      tag_92\n      0x04\n      dup1\n      calldatasize\n      sub\n      dup2\n      add\n      swap1\n      tag_93\n      swap2\n      swap1\n      tag_74\n      jump\t// in\n    tag_93:\n      tag_94\n      jump\t// in\n    tag_92:\n      stop\n        /* \"03_kipu-bank-v2/contracts/errKipuBankV2 copy.sol\":20959:21672  function consultarEstadoBanco() ... */\n    tag_17:\n      callvalue\n      dup1\n      iszero\n      tag_95\n      jumpi\n      0x00\n      dup1\n      revert\n    tag_95:\n      pop\n      tag_96\n      tag_97\n      jump\t// in\n    tag_96:\n      mload(0x40)\n      tag_98\n      swap8\n      swap7\n      swap6\n      swap5\n      swap4\n      swap3\n      swap2\n      swap1\n      tag_99\n      jump\t// in\n    tag_98:\n      mload(0x40)\n      dup1\n      swap2\n      sub\n      swap1\n      return\n        /* \"03_kipu-bank-v2/contracts/errKipuBankV2 copy.sol\":2433:2474  AggregatorV3Interface public s_ethUsdFeed */\n    tag_18:\n      callvalue\n      dup1\n      iszero\n      tag_100\n      jumpi\n      0x00\n      dup1\n      revert\n    tag_100:\n      pop\n      tag_101\n      tag_102\n      jump\t// in\n    tag_101:\n      mload(0x40)\n      tag_103\n      swap2\n      swap1\n      tag_104\n      jump\t// in\n    tag_103:\n      mload(0x40)\n      dup1\n      swap2\n      sub\n      swap1\n      return\n        /* \"03_kipu-bank-v2/contracts/errKipuBankV2 copy.sol\":19719:19908  function consultarBalance(address _usuario, address _token) ... */\n    tag_19:\n      callvalue\n      dup1\n      iszero\n      tag_105\n      jumpi\n      0x00\n      dup1\n      revert\n    tag_105:\n      pop\n      tag_106\n      0x04\n      dup1\n      calldatasize\n      sub\n      dup2\n      add\n      swap1\n      tag_107\n      swap2\n      swap1\n      tag_108\n      jump\t// in\n    tag_107:\n      tag_109\n      jump\t// in\n    tag_106:\n      mload(0x40)\n      tag_110\n      swap2\n      swap1\n      tag_35\n      jump\t// in\n    tag_110:\n      mload(0x40)\n      dup1\n      swap2\n      sub\n      swap1\n      return\n        /* \"03_kipu-bank-v2/contracts/errKipuBankV2 copy.sol\":16077:16252  function actualizarFeed(address _newFeed) external onlyOwner {... */\n    tag_20:\n      callvalue\n      dup1\n      iszero\n      tag_111\n      jumpi\n      0x00\n      dup1\n      revert\n    tag_111:\n      pop\n      tag_112\n      0x04\n      dup1\n      calldatasize\n      sub\n      dup2\n      add\n      swap1\n      tag_113\n      swap2\n      swap1\n      tag_49\n      jump\t// in\n    tag_113:\n      tag_114\n      jump\t// in\n    tag_112:\n      stop\n        /* \"03_kipu-bank-v2/contracts/errKipuBankV2 copy.sol\":22059:22514  function consultarPrecioETH() ... */\n    tag_21:\n      callvalue\n      dup1\n      iszero\n      tag_115\n      jumpi\n      0x00\n      dup1\n      revert\n    tag_115:\n      pop\n      tag_116\n      tag_117\n      jump\t// in\n    tag_116:\n      mload(0x40)\n      tag_118\n      swap3\n      swap2\n      swap1\n      tag_119\n      jump\t// in\n    tag_118:\n      mload(0x40)\n      dup1\n      swap2\n      sub\n      swap1\n      return\n        /* \"03_kipu-bank-v2/contracts/errKipuBankV2 copy.sol\":3063:3095  uint256 public s_contadorRetiros */\n    tag_22:\n      callvalue\n      dup1\n      iszero\n      tag_120\n      jumpi\n      0x00\n      dup1\n      revert\n    tag_120:\n      pop\n      tag_121\n      tag_122\n      jump\t// in\n    tag_121:\n      mload(0x40)\n      tag_123\n      swap2\n      swap1\n      tag_35\n      jump\t// in\n    tag_123:\n      mload(0x40)\n      dup1\n      swap2\n      sub\n      swap1\n      return\n        /* \"03_kipu-bank-v2/contracts/errKipuBankV2 copy.sol\":2553:2640  mapping(address user => mapping(address token => uint256 balanceUSD)) public s_balances */\n    tag_23:\n      callvalue\n      dup1\n      iszero\n      tag_124\n      jumpi\n      0x00\n      dup1\n      revert\n    tag_124:\n      pop\n      tag_125\n      0x04\n      dup1\n      calldatasize\n      sub\n      dup2\n      add\n      swap1\n      tag_126\n      swap2\n      swap1\n      tag_108\n      jump\t// in\n    tag_126:\n      tag_127\n      jump\t// in\n    tag_125:\n      mload(0x40)\n      tag_128\n      swap2\n      swap1\n      tag_35\n      jump\t// in\n    tag_128:\n      mload(0x40)\n      dup1\n      swap2\n      sub\n      swap1\n      return\n        /* \"03_kipu-bank-v2/contracts/errKipuBankV2 copy.sol\":2861:2896  uint256 public s_totalDepositadoUSD */\n    tag_24:\n      callvalue\n      dup1\n      iszero\n      tag_129\n      jumpi\n      0x00\n      dup1\n      revert\n    tag_129:\n      pop\n      tag_130\n      tag_131\n      jump\t// in\n    tag_130:\n      mload(0x40)\n      tag_132\n      swap2\n      swap1\n      tag_35\n      jump\t// in\n    tag_132:\n      mload(0x40)\n      dup1\n      swap2\n      sub\n      swap1\n      return\n        /* \"@openzeppelin/contracts/access/Ownable.sol\":2543:2758  function transferOwnership(address newOwner) public virtual onlyOwner {... */\n    tag_25:\n      callvalue\n      dup1\n      iszero\n      tag_133\n      jumpi\n      0x00\n      dup1\n      revert\n    tag_133:\n      pop\n      tag_134\n      0x04\n      dup1\n      calldatasize\n      sub\n      dup2\n      add\n      swap1\n      tag_135\n      swap2\n      swap1\n      tag_49\n      jump\t// in\n    tag_135:\n      tag_136\n      jump\t// in\n    tag_134:\n      stop\n        /* \"03_kipu-bank-v2/contracts/errKipuBankV2 copy.sol\":2233:2263  IERC20 public immutable i_usdc */\n    tag_26:\n      callvalue\n      dup1\n      iszero\n      tag_137\n      jumpi\n      0x00\n      dup1\n      revert\n    tag_137:\n      pop\n      tag_138\n      tag_139\n      jump\t// in\n    tag_138:\n      mload(0x40)\n      tag_140\n      swap2\n      swap1\n      tag_141\n      jump\t// in\n    tag_140:\n      mload(0x40)\n      dup1\n      swap2\n      sub\n      swap1\n      return\n        /* \"03_kipu-bank-v2/contracts/errKipuBankV2 copy.sol\":2025:2062  uint256 public immutable i_bankCapUSD */\n    tag_33:\n      immutable(\"0x6bcaf047ba4c8ac400fca43393035242dd1aabda2d6068a0c51242b97224de8d\")\n      dup2\n      jump\t// out\n        /* \"03_kipu-bank-v2/contracts/errKipuBankV2 copy.sol\":7919:8951  function depositarETH() external payable nonReentrant {... */\n    tag_37:\n        /* \"@openzeppelin/contracts/utils/ReentrancyGuard.sol\":2500:2521  _nonReentrantBefore() */\n      tag_143\n        /* \"@openzeppelin/contracts/utils/ReentrancyGuard.sol\":2500:2519  _nonReentrantBefore */\n      tag_144\n        /* \"@openzeppelin/contracts/utils/ReentrancyGuard.sol\":2500:2521  _nonReentrantBefore() */\n      jump\t// in\n    tag_143:\n        /* \"03_kipu-bank-v2/contracts/errKipuBankV2 copy.sol\":8045:8046  0 */\n      0x00\n        /* \"03_kipu-bank-v2/contracts/errKipuBankV2 copy.sol\":8032:8041  msg.value */\n      callvalue\n        /* \"03_kipu-bank-v2/contracts/errKipuBankV2 copy.sol\":8032:8046  msg.value == 0 */\n      sub\n        /* \"03_kipu-bank-v2/contracts/errKipuBankV2 copy.sol\":8028:8090  if (msg.value == 0) revert KipuBankV2_MontoDebeSerMayorACero() */\n      tag_146\n      jumpi\n        /* \"03_kipu-bank-v2/contracts/errKipuBankV2 copy.sol\":8055:8090  KipuBankV2_MontoDebeSerMayorACero() */\n      mload(0x40)\n      0xe729dc6400000000000000000000000000000000000000000000000000000000\n      dup2\n      mstore\n      0x04\n      add\n      mload(0x40)\n      dup1\n      swap2\n      sub\n      swap1\n      revert\n        /* \"03_kipu-bank-v2/contracts/errKipuBankV2 copy.sol\":8028:8090  if (msg.value == 0) revert KipuBankV2_MontoDebeSerMayorACero() */\n    tag_146:\n        /* \"03_kipu-bank-v2/contracts/errKipuBankV2 copy.sol\":8145:8161  uint256 valorUSD */\n      0x00\n        /* \"03_kipu-bank-v2/contracts/errKipuBankV2 copy.sol\":8164:8192  _convertirEthAUsd(msg.value) */\n      tag_147\n        /* \"03_kipu-bank-v2/contracts/errKipuBankV2 copy.sol\":8182:8191  msg.value */\n      callvalue\n        /* \"03_kipu-bank-v2/contracts/errKipuBankV2 copy.sol\":8164:8181  _convertirEthAUsd */\n      tag_148\n        /* \"03_kipu-bank-v2/contracts/errKipuBankV2 copy.sol\":8164:8192  _convertirEthAUsd(msg.value) */\n      jump\t// in\n    tag_147:\n        /* \"03_kipu-bank-v2/contracts/errKipuBankV2 copy.sol\":8145:8192  uint256 valorUSD = _convertirEthAUsd(msg.value) */\n      swap1\n      pop\n        /* \"03_kipu-bank-v2/contracts/errKipuBankV2 copy.sol\":8282:8294  i_bankCapUSD */\n      immutable(\"0x6bcaf047ba4c8ac400fca43393035242dd1aabda2d6068a0c51242b97224de8d\")\n        /* \"03_kipu-bank-v2/contracts/errKipuBankV2 copy.sol\":8271:8279  valorUSD */\n      dup2\n        /* \"03_kipu-bank-v2/contracts/errKipuBankV2 copy.sol\":8248:8268  s_totalDepositadoUSD */\n      sload(0x05)\n        /* \"03_kipu-bank-v2/contracts/errKipuBankV2 copy.sol\":8248:8279  s_totalDepositadoUSD + valorUSD */\n      tag_149\n      swap2\n      swap1\n      tag_150\n      jump\t// in\n    tag_149:\n        /* \"03_kipu-bank-v2/contracts/errKipuBankV2 copy.sol\":8248:8294  s_totalDepositadoUSD + valorUSD > i_bankCapUSD */\n      gt\n        /* \"03_kipu-bank-v2/contracts/errKipuBankV2 copy.sol\":8244:8470  if (s_totalDepositadoUSD + valorUSD > i_bankCapUSD) {... */\n      iszero\n      tag_151\n      jumpi\n        /* \"03_kipu-bank-v2/contracts/errKipuBankV2 copy.sol\":8369:8389  s_totalDepositadoUSD */\n      sload(0x05)\n        /* \"03_kipu-bank-v2/contracts/errKipuBankV2 copy.sol\":8407:8415  valorUSD */\n      dup2\n        /* \"03_kipu-bank-v2/contracts/errKipuBankV2 copy.sol\":8433:8445  i_bankCapUSD */\n      immutable(\"0x6bcaf047ba4c8ac400fca43393035242dd1aabda2d6068a0c51242b97224de8d\")\n        /* \"03_kipu-bank-v2/contracts/errKipuBankV2 copy.sol\":8317:8459  KipuBankV2_LimiteGlobalExcedidoUSD(... */\n      mload(0x40)\n      0xc9fe79b800000000000000000000000000000000000000000000000000000000\n      dup2\n      mstore\n      0x04\n      add\n      tag_152\n      swap4\n      swap3\n      swap2\n      swap1\n      tag_153\n      jump\t// in\n    tag_152:\n      mload(0x40)\n      dup1\n      swap2\n      sub\n      swap1\n      revert\n        /* \"03_kipu-bank-v2/contracts/errKipuBankV2 copy.sol\":8244:8470  if (s_totalDepositadoUSD + valorUSD > i_bankCapUSD) {... */\n    tag_151:\n        /* \"03_kipu-bank-v2/contracts/errKipuBankV2 copy.sol\":8566:8574  valorUSD */\n      dup1\n        /* \"03_kipu-bank-v2/contracts/errKipuBankV2 copy.sol\":8526:8536  s_balances */\n      0x03\n        /* \"03_kipu-bank-v2/contracts/errKipuBankV2 copy.sol\":8526:8548  s_balances[msg.sender] */\n      0x00\n        /* \"03_kipu-bank-v2/contracts/errKipuBankV2 copy.sol\":8537:8547  msg.sender */\n      caller\n        /* \"03_kipu-bank-v2/contracts/errKipuBankV2 copy.sol\":8526:8548  s_balances[msg.sender] */\n      0xffffffffffffffffffffffffffffffffffffffff\n      and\n      0xffffffffffffffffffffffffffffffffffffffff\n      and\n      dup2\n      mstore\n      0x20\n      add\n      swap1\n      dup2\n      mstore\n      0x20\n      add\n      0x00\n      keccak256\n        /* \"03_kipu-bank-v2/contracts/errKipuBankV2 copy.sol\":8526:8562  s_balances[msg.sender][NATIVE_TOKEN] */\n      0x00\n        /* \"03_kipu-bank-v2/contracts/errKipuBankV2 copy.sol\":1612:1613  0 */\n      dup1\n        /* \"03_kipu-bank-v2/contracts/errKipuBankV2 copy.sol\":8526:8562  s_balances[msg.sender][NATIVE_TOKEN] */\n      0xffffffffffffffffffffffffffffffffffffffff\n      and\n      0xffffffffffffffffffffffffffffffffffffffff\n      and\n      dup2\n      mstore\n      0x20\n      add\n      swap1\n      dup2\n      mstore\n      0x20\n      add\n      0x00\n      keccak256\n      0x00\n        /* \"03_kipu-bank-v2/contracts/errKipuBankV2 copy.sol\":8526:8574  s_balances[msg.sender][NATIVE_TOKEN] += valorUSD */\n      dup3\n      dup3\n      sload\n      tag_154\n      swap2\n      swap1\n      tag_150\n      jump\t// in\n    tag_154:\n      swap3\n      pop\n      pop\n      dup2\n      swap1\n      sstore\n      pop\n        /* \"03_kipu-bank-v2/contracts/errKipuBankV2 copy.sol\":8627:8635  valorUSD */\n      dup1\n        /* \"03_kipu-bank-v2/contracts/errKipuBankV2 copy.sol\":8584:8609  s_totalDepositadoPorToken */\n      0x04\n        /* \"03_kipu-bank-v2/contracts/errKipuBankV2 copy.sol\":8584:8623  s_totalDepositadoPorToken[NATIVE_TOKEN] */\n      0x00\n        /* \"03_kipu-bank-v2/contracts/errKipuBankV2 copy.sol\":1612:1613  0 */\n      dup1\n        /* \"03_kipu-bank-v2/contracts/errKipuBankV2 copy.sol\":8584:8623  s_totalDepositadoPorToken[NATIVE_TOKEN] */\n      0xffffffffffffffffffffffffffffffffffffffff\n      and\n      0xffffffffffffffffffffffffffffffffffffffff\n      and\n      dup2\n      mstore\n      0x20\n      add\n      swap1\n      dup2\n      mstore\n      0x20\n      add\n      0x00\n      keccak256\n      0x00\n        /* \"03_kipu-bank-v2/contracts/errKipuBankV2 copy.sol\":8584:8635  s_totalDepositadoPorToken[NATIVE_TOKEN] += valorUSD */\n      dup3\n      dup3\n      sload\n      tag_155\n      swap2\n      swap1\n      tag_150\n      jump\t// in\n    tag_155:\n      swap3\n      pop\n      pop\n      dup2\n      swap1\n      sstore\n      pop\n        /* \"03_kipu-bank-v2/contracts/errKipuBankV2 copy.sol\":8669:8677  valorUSD */\n      dup1\n        /* \"03_kipu-bank-v2/contracts/errKipuBankV2 copy.sol\":8645:8665  s_totalDepositadoUSD */\n      0x05\n      0x00\n        /* \"03_kipu-bank-v2/contracts/errKipuBankV2 copy.sol\":8645:8677  s_totalDepositadoUSD += valorUSD */\n      dup3\n      dup3\n      sload\n      tag_156\n      swap2\n      swap1\n      tag_150\n      jump\t// in\n    tag_156:\n      swap3\n      pop\n      pop\n      dup2\n      swap1\n      sstore\n      pop\n        /* \"03_kipu-bank-v2/contracts/errKipuBankV2 copy.sol\":8687:8706  s_contadorDepositos */\n      0x06\n      0x00\n        /* \"03_kipu-bank-v2/contracts/errKipuBankV2 copy.sol\":8687:8708  s_contadorDepositos++ */\n      dup2\n      sload\n      dup1\n      swap3\n      swap2\n      swap1\n      tag_157\n      swap1\n      tag_158\n      jump\t// in\n    tag_157:\n      swap2\n      swap1\n      pop\n      sstore\n      pop\n        /* \"03_kipu-bank-v2/contracts/errKipuBankV2 copy.sol\":1612:1613  0 */\n      0x00\n        /* \"03_kipu-bank-v2/contracts/errKipuBankV2 copy.sol\":8771:8944  KipuBankV2_DepositoRealizado(... */\n      0xffffffffffffffffffffffffffffffffffffffff\n      and\n        /* \"03_kipu-bank-v2/contracts/errKipuBankV2 copy.sol\":8813:8823  msg.sender */\n      caller\n        /* \"03_kipu-bank-v2/contracts/errKipuBankV2 copy.sol\":8771:8944  KipuBankV2_DepositoRealizado(... */\n      0xffffffffffffffffffffffffffffffffffffffff\n      and\n      0x751f8b54c0e32ef5b9fafdbdac0c93c1994cc8848fa17ed7798bd90aae8bfe9b\n        /* \"03_kipu-bank-v2/contracts/errKipuBankV2 copy.sol\":8863:8872  msg.value */\n      callvalue\n        /* \"03_kipu-bank-v2/contracts/errKipuBankV2 copy.sol\":8905:8913  valorUSD */\n      dup5\n        /* \"03_kipu-bank-v2/contracts/errKipuBankV2 copy.sol\":8771:8944  KipuBankV2_DepositoRealizado(... */\n      mload(0x40)\n      tag_159\n      swap3\n      swap2\n      swap1\n      tag_119\n      jump\t// in\n    tag_159:\n      mload(0x40)\n      dup1\n      swap2\n      sub\n      swap1\n      log3\n        /* \"03_kipu-bank-v2/contracts/errKipuBankV2 copy.sol\":7973:8951  {... */\n      pop\n        /* \"@openzeppelin/contracts/utils/ReentrancyGuard.sol\":2542:2562  _nonReentrantAfter() */\n      tag_160\n        /* \"@openzeppelin/contracts/utils/ReentrancyGuard.sol\":2542:2560  _nonReentrantAfter */\n      tag_161\n        /* \"@openzeppelin/contracts/utils/ReentrancyGuard.sol\":2542:2562  _nonReentrantAfter() */\n      jump\t// in\n    tag_160:\n        /* \"03_kipu-bank-v2/contracts/errKipuBankV2 copy.sol\":7919:8951  function depositarETH() external payable nonReentrant {... */\n      jump\t// out\n        /* \"03_kipu-bank-v2/contracts/errKipuBankV2 copy.sol\":2964:2998  uint256 public s_contadorDepositos */\n    tag_40:\n      sload(0x06)\n      dup2\n      jump\t// out\n        /* \"03_kipu-bank-v2/contracts/errKipuBankV2 copy.sol\":21727:21827  function getUmbralRetiro() external view returns (uint256) {... */\n    tag_44:\n        /* \"03_kipu-bank-v2/contracts/errKipuBankV2 copy.sol\":21777:21784  uint256 */\n      0x00\n        /* \"03_kipu-bank-v2/contracts/errKipuBankV2 copy.sol\":21803:21820  i_umbralRetiroUSD */\n      immutable(\"0x2e9b7c94e032d8b3b8b30bd825717a5ac74958b53e7c37a892a4fd7dc56e4975\")\n        /* \"03_kipu-bank-v2/contracts/errKipuBankV2 copy.sol\":21796:21820  return i_umbralRetiroUSD */\n      swap1\n      pop\n        /* \"03_kipu-bank-v2/contracts/errKipuBankV2 copy.sol\":21727:21827  function getUmbralRetiro() external view returns (uint256) {... */\n      swap1\n      jump\t// out\n        /* \"03_kipu-bank-v2/contracts/errKipuBankV2 copy.sol\":2701:2776  mapping(address token => uint256 totalUSD) public s_totalDepositadoPorToken */\n    tag_50:\n      mstore(0x20, 0x04)\n      dup1\n      0x00\n      mstore\n      keccak256(0x00, 0x40)\n      0x00\n      swap2\n      pop\n      swap1\n      pop\n      sload\n      dup2\n      jump\t// out\n        /* \"03_kipu-bank-v2/contracts/errKipuBankV2 copy.sol\":1565:1614  address public constant NATIVE_TOKEN = address(0) */\n    tag_54:\n        /* \"03_kipu-bank-v2/contracts/errKipuBankV2 copy.sol\":1612:1613  0 */\n      0x00\n        /* \"03_kipu-bank-v2/contracts/errKipuBankV2 copy.sol\":1565:1614  address public constant NATIVE_TOKEN = address(0) */\n      dup2\n      jump\t// out\n        /* \"03_kipu-bank-v2/contracts/errKipuBankV2 copy.sol\":2138:2180  uint256 public immutable i_umbralRetiroUSD */\n    tag_59:\n      immutable(\"0x2e9b7c94e032d8b3b8b30bd825717a5ac74958b53e7c37a892a4fd7dc56e4975\")\n      dup2\n      jump\t// out\n        /* \"03_kipu-bank-v2/contracts/errKipuBankV2 copy.sol\":20132:20428  function consultarBalanceTotalUSD(address _usuario) ... */\n    tag_64:\n        /* \"03_kipu-bank-v2/contracts/errKipuBankV2 copy.sol\":20234:20258  uint256 balanceTotalUSD_ */\n      0x00\n        /* \"03_kipu-bank-v2/contracts/errKipuBankV2 copy.sol\":20384:20394  s_balances */\n      0x03\n        /* \"03_kipu-bank-v2/contracts/errKipuBankV2 copy.sol\":20384:20404  s_balances[_usuario] */\n      0x00\n        /* \"03_kipu-bank-v2/contracts/errKipuBankV2 copy.sol\":20395:20403  _usuario */\n      dup4\n        /* \"03_kipu-bank-v2/contracts/errKipuBankV2 copy.sol\":20384:20404  s_balances[_usuario] */\n      0xffffffffffffffffffffffffffffffffffffffff\n      and\n      0xffffffffffffffffffffffffffffffffffffffff\n      and\n      dup2\n      mstore\n      0x20\n      add\n      swap1\n      dup2\n      mstore\n      0x20\n      add\n      0x00\n      keccak256\n        /* \"03_kipu-bank-v2/contracts/errKipuBankV2 copy.sol\":20384:20421  s_balances[_usuario][address(i_usdc)] */\n      0x00\n        /* \"03_kipu-bank-v2/contracts/errKipuBankV2 copy.sol\":20413:20419  i_usdc */\n      immutable(\"0x6304e47846f882085b0f4b1a184252ae95ffe5e2a02daf39c014f492dcb1441c\")\n        /* \"03_kipu-bank-v2/contracts/errKipuBankV2 copy.sol\":20384:20421  s_balances[_usuario][address(i_usdc)] */\n      0xffffffffffffffffffffffffffffffffffffffff\n      and\n      0xffffffffffffffffffffffffffffffffffffffff\n      and\n      dup2\n      mstore\n      0x20\n      add\n      swap1\n      dup2\n      mstore\n      0x20\n      add\n      0x00\n      keccak256\n      sload\n        /* \"03_kipu-bank-v2/contracts/errKipuBankV2 copy.sol\":20322:20332  s_balances */\n      0x03\n        /* \"03_kipu-bank-v2/contracts/errKipuBankV2 copy.sol\":20322:20342  s_balances[_usuario] */\n      0x00\n        /* \"03_kipu-bank-v2/contracts/errKipuBankV2 copy.sol\":20333:20341  _usuario */\n      dup5\n        /* \"03_kipu-bank-v2/contracts/errKipuBankV2 copy.sol\":20322:20342  s_balances[_usuario] */\n      0xffffffffffffffffffffffffffffffffffffffff\n      and\n      0xffffffffffffffffffffffffffffffffffffffff\n      and\n      dup2\n      mstore\n      0x20\n      add\n      swap1\n      dup2\n      mstore\n      0x20\n      add\n      0x00\n      keccak256\n        /* \"03_kipu-bank-v2/contracts/errKipuBankV2 copy.sol\":20322:20356  s_balances[_usuario][NATIVE_TOKEN] */\n      0x00\n        /* \"03_kipu-bank-v2/contracts/errKipuBankV2 copy.sol\":1612:1613  0 */\n      dup1\n        /* \"03_kipu-bank-v2/contracts/errKipuBankV2 copy.sol\":20322:20356  s_balances[_usuario][NATIVE_TOKEN] */\n      0xffffffffffffffffffffffffffffffffffffffff\n      and\n      0xffffffffffffffffffffffffffffffffffffffff\n      and\n      dup2\n      mstore\n      0x20\n      add\n      swap1\n      dup2\n      mstore\n      0x20\n      add\n      0x00\n      keccak256\n      sload\n        /* \"03_kipu-bank-v2/contracts/errKipuBankV2 copy.sol\":20322:20421  s_balances[_usuario][NATIVE_TOKEN] + ... */\n      tag_164\n      swap2\n      swap1\n      tag_150\n      jump\t// in\n    tag_164:\n        /* \"03_kipu-bank-v2/contracts/errKipuBankV2 copy.sol\":20303:20421  balanceTotalUSD_ = s_balances[_usuario][NATIVE_TOKEN] + ... */\n      swap1\n      pop\n        /* \"03_kipu-bank-v2/contracts/errKipuBankV2 copy.sol\":20132:20428  function consultarBalanceTotalUSD(address _usuario) ... */\n      swap2\n      swap1\n      pop\n      jump\t// out\n        /* \"03_kipu-bank-v2/contracts/errKipuBankV2 copy.sol\":9174:10124  function depositarUSDC(uint256 _amount) ... */\n    tag_70:\n        /* \"@openzeppelin/contracts/utils/ReentrancyGuard.sol\":2500:2521  _nonReentrantBefore() */\n      tag_166\n        /* \"@openzeppelin/contracts/utils/ReentrancyGuard.sol\":2500:2519  _nonReentrantBefore */\n      tag_144\n        /* \"@openzeppelin/contracts/utils/ReentrancyGuard.sol\":2500:2521  _nonReentrantBefore() */\n      jump\t// in\n    tag_166:\n        /* \"03_kipu-bank-v2/contracts/errKipuBankV2 copy.sol\":9277:9284  _amount */\n      dup1\n        /* \"03_kipu-bank-v2/contracts/errKipuBankV2 copy.sol\":7162:7163  0 */\n      0x00\n        /* \"03_kipu-bank-v2/contracts/errKipuBankV2 copy.sol\":7152:7158  _monto */\n      dup2\n        /* \"03_kipu-bank-v2/contracts/errKipuBankV2 copy.sol\":7152:7163  _monto == 0 */\n      sub\n        /* \"03_kipu-bank-v2/contracts/errKipuBankV2 copy.sol\":7148:7207  if (_monto == 0) revert KipuBankV2_MontoDebeSerMayorACero() */\n      tag_168\n      jumpi\n        /* \"03_kipu-bank-v2/contracts/errKipuBankV2 copy.sol\":7172:7207  KipuBankV2_MontoDebeSerMayorACero() */\n      mload(0x40)\n      0xe729dc6400000000000000000000000000000000000000000000000000000000\n      dup2\n      mstore\n      0x04\n      add\n      mload(0x40)\n      dup1\n      swap2\n      sub\n      swap1\n      revert\n        /* \"03_kipu-bank-v2/contracts/errKipuBankV2 copy.sol\":7148:7207  if (_monto == 0) revert KipuBankV2_MontoDebeSerMayorACero() */\n    tag_168:\n        /* \"03_kipu-bank-v2/contracts/errKipuBankV2 copy.sol\":9379:9391  i_bankCapUSD */\n      immutable(\"0x6bcaf047ba4c8ac400fca43393035242dd1aabda2d6068a0c51242b97224de8d\")\n        /* \"03_kipu-bank-v2/contracts/errKipuBankV2 copy.sol\":9369:9376  _amount */\n      dup3\n        /* \"03_kipu-bank-v2/contracts/errKipuBankV2 copy.sol\":9346:9366  s_totalDepositadoUSD */\n      sload(0x05)\n        /* \"03_kipu-bank-v2/contracts/errKipuBankV2 copy.sol\":9346:9376  s_totalDepositadoUSD + _amount */\n      tag_170\n      swap2\n      swap1\n      tag_150\n      jump\t// in\n    tag_170:\n        /* \"03_kipu-bank-v2/contracts/errKipuBankV2 copy.sol\":9346:9391  s_totalDepositadoUSD + _amount > i_bankCapUSD */\n      gt\n        /* \"03_kipu-bank-v2/contracts/errKipuBankV2 copy.sol\":9342:9566  if (s_totalDepositadoUSD + _amount > i_bankCapUSD) {... */\n      iszero\n      tag_171\n      jumpi\n        /* \"03_kipu-bank-v2/contracts/errKipuBankV2 copy.sol\":9466:9486  s_totalDepositadoUSD */\n      sload(0x05)\n        /* \"03_kipu-bank-v2/contracts/errKipuBankV2 copy.sol\":9504:9511  _amount */\n      dup3\n        /* \"03_kipu-bank-v2/contracts/errKipuBankV2 copy.sol\":9529:9541  i_bankCapUSD */\n      immutable(\"0x6bcaf047ba4c8ac400fca43393035242dd1aabda2d6068a0c51242b97224de8d\")\n        /* \"03_kipu-bank-v2/contracts/errKipuBankV2 copy.sol\":9414:9555  KipuBankV2_LimiteGlobalExcedidoUSD(... */\n      mload(0x40)\n      0xc9fe79b800000000000000000000000000000000000000000000000000000000\n      dup2\n      mstore\n      0x04\n      add\n      tag_172\n      swap4\n      swap3\n      swap2\n      swap1\n      tag_153\n      jump\t// in\n    tag_172:\n      mload(0x40)\n      dup1\n      swap2\n      sub\n      swap1\n      revert\n        /* \"03_kipu-bank-v2/contracts/errKipuBankV2 copy.sol\":9342:9566  if (s_totalDepositadoUSD + _amount > i_bankCapUSD) {... */\n    tag_171:\n        /* \"03_kipu-bank-v2/contracts/errKipuBankV2 copy.sol\":9665:9672  _amount */\n      dup2\n        /* \"03_kipu-bank-v2/contracts/errKipuBankV2 copy.sol\":9622:9632  s_balances */\n      0x03\n        /* \"03_kipu-bank-v2/contracts/errKipuBankV2 copy.sol\":9622:9644  s_balances[msg.sender] */\n      0x00\n        /* \"03_kipu-bank-v2/contracts/errKipuBankV2 copy.sol\":9633:9643  msg.sender */\n      caller\n        /* \"03_kipu-bank-v2/contracts/errKipuBankV2 copy.sol\":9622:9644  s_balances[msg.sender] */\n      0xffffffffffffffffffffffffffffffffffffffff\n      and\n      0xffffffffffffffffffffffffffffffffffffffff\n      and\n      dup2\n      mstore\n      0x20\n      add\n      swap1\n      dup2\n      mstore\n      0x20\n      add\n      0x00\n      keccak256\n        /* \"03_kipu-bank-v2/contracts/errKipuBankV2 copy.sol\":9622:9661  s_balances[msg.sender][address(i_usdc)] */\n      0x00\n        /* \"03_kipu-bank-v2/contracts/errKipuBankV2 copy.sol\":9653:9659  i_usdc */\n      immutable(\"0x6304e47846f882085b0f4b1a184252ae95ffe5e2a02daf39c014f492dcb1441c\")\n        /* \"03_kipu-bank-v2/contracts/errKipuBankV2 copy.sol\":9622:9661  s_balances[msg.sender][address(i_usdc)] */\n      0xffffffffffffffffffffffffffffffffffffffff\n      and\n      0xffffffffffffffffffffffffffffffffffffffff\n      and\n      dup2\n      mstore\n      0x20\n      add\n      swap1\n      dup2\n      mstore\n      0x20\n      add\n      0x00\n      keccak256\n      0x00\n        /* \"03_kipu-bank-v2/contracts/errKipuBankV2 copy.sol\":9622:9672  s_balances[msg.sender][address(i_usdc)] += _amount */\n      dup3\n      dup3\n      sload\n      tag_173\n      swap2\n      swap1\n      tag_150\n      jump\t// in\n    tag_173:\n      swap3\n      pop\n      pop\n      dup2\n      swap1\n      sstore\n      pop\n        /* \"03_kipu-bank-v2/contracts/errKipuBankV2 copy.sol\":9728:9735  _amount */\n      dup2\n        /* \"03_kipu-bank-v2/contracts/errKipuBankV2 copy.sol\":9682:9707  s_totalDepositadoPorToken */\n      0x04\n        /* \"03_kipu-bank-v2/contracts/errKipuBankV2 copy.sol\":9682:9724  s_totalDepositadoPorToken[address(i_usdc)] */\n      0x00\n        /* \"03_kipu-bank-v2/contracts/errKipuBankV2 copy.sol\":9716:9722  i_usdc */\n      immutable(\"0x6304e47846f882085b0f4b1a184252ae95ffe5e2a02daf39c014f492dcb1441c\")\n        /* \"03_kipu-bank-v2/contracts/errKipuBankV2 copy.sol\":9682:9724  s_totalDepositadoPorToken[address(i_usdc)] */\n      0xffffffffffffffffffffffffffffffffffffffff\n      and\n      0xffffffffffffffffffffffffffffffffffffffff\n      and\n      dup2\n      mstore\n      0x20\n      add\n      swap1\n      dup2\n      mstore\n      0x20\n      add\n      0x00\n      keccak256\n      0x00\n        /* \"03_kipu-bank-v2/contracts/errKipuBankV2 copy.sol\":9682:9735  s_totalDepositadoPorToken[address(i_usdc)] += _amount */\n      dup3\n      dup3\n      sload\n      tag_174\n      swap2\n      swap1\n      tag_150\n      jump\t// in\n    tag_174:\n      swap3\n      pop\n      pop\n      dup2\n      swap1\n      sstore\n      pop\n        /* \"03_kipu-bank-v2/contracts/errKipuBankV2 copy.sol\":9769:9776  _amount */\n      dup2\n        /* \"03_kipu-bank-v2/contracts/errKipuBankV2 copy.sol\":9745:9765  s_totalDepositadoUSD */\n      0x05\n      0x00\n        /* \"03_kipu-bank-v2/contracts/errKipuBankV2 copy.sol\":9745:9776  s_totalDepositadoUSD += _amount */\n      dup3\n      dup3\n      sload\n      tag_175\n      swap2\n      swap1\n      tag_150\n      jump\t// in\n    tag_175:\n      swap3\n      pop\n      pop\n      dup2\n      swap1\n      sstore\n      pop\n        /* \"03_kipu-bank-v2/contracts/errKipuBankV2 copy.sol\":9786:9805  s_contadorDepositos */\n      0x06\n      0x00\n        /* \"03_kipu-bank-v2/contracts/errKipuBankV2 copy.sol\":9786:9807  s_contadorDepositos++ */\n      dup2\n      sload\n      dup1\n      swap3\n      swap2\n      swap1\n      tag_176\n      swap1\n      tag_158\n      jump\t// in\n    tag_176:\n      swap2\n      swap1\n      pop\n      sstore\n      pop\n        /* \"03_kipu-bank-v2/contracts/errKipuBankV2 copy.sol\":9963:9969  i_usdc */\n      immutable(\"0x6304e47846f882085b0f4b1a184252ae95ffe5e2a02daf39c014f492dcb1441c\")\n        /* \"03_kipu-bank-v2/contracts/errKipuBankV2 copy.sol\":9889:10022  KipuBankV2_DepositoRealizado(... */\n      0xffffffffffffffffffffffffffffffffffffffff\n      and\n        /* \"03_kipu-bank-v2/contracts/errKipuBankV2 copy.sol\":9931:9941  msg.sender */\n      caller\n        /* \"03_kipu-bank-v2/contracts/errKipuBankV2 copy.sol\":9889:10022  KipuBankV2_DepositoRealizado(... */\n      0xffffffffffffffffffffffffffffffffffffffff\n      and\n      0x751f8b54c0e32ef5b9fafdbdac0c93c1994cc8848fa17ed7798bd90aae8bfe9b\n        /* \"03_kipu-bank-v2/contracts/errKipuBankV2 copy.sol\":9984:9991  _amount */\n      dup5\n        /* \"03_kipu-bank-v2/contracts/errKipuBankV2 copy.sol\":10005:10012  _amount */\n      dup6\n        /* \"03_kipu-bank-v2/contracts/errKipuBankV2 copy.sol\":9889:10022  KipuBankV2_DepositoRealizado(... */\n      mload(0x40)\n      tag_177\n      swap3\n      swap2\n      swap1\n      tag_119\n      jump\t// in\n    tag_177:\n      mload(0x40)\n      dup1\n      swap2\n      sub\n      swap1\n      log3\n        /* \"03_kipu-bank-v2/contracts/errKipuBankV2 copy.sol\":10041:10117  IERC20(address(i_usdc)).safeTransferFrom(msg.sender, address(this), _amount) */\n      tag_178\n        /* \"03_kipu-bank-v2/contracts/errKipuBankV2 copy.sol\":10082:10092  msg.sender */\n      caller\n        /* \"03_kipu-bank-v2/contracts/errKipuBankV2 copy.sol\":10102:10106  this */\n      address\n        /* \"03_kipu-bank-v2/contracts/errKipuBankV2 copy.sol\":10109:10116  _amount */\n      dup5\n        /* \"03_kipu-bank-v2/contracts/errKipuBankV2 copy.sol\":10056:10062  i_usdc */\n      immutable(\"0x6304e47846f882085b0f4b1a184252ae95ffe5e2a02daf39c014f492dcb1441c\")\n        /* \"03_kipu-bank-v2/contracts/errKipuBankV2 copy.sol\":10041:10081  IERC20(address(i_usdc)).safeTransferFrom */\n      0xffffffffffffffffffffffffffffffffffffffff\n      and\n      tag_179\n      swap1\n        /* \"03_kipu-bank-v2/contracts/errKipuBankV2 copy.sol\":10041:10117  IERC20(address(i_usdc)).safeTransferFrom(msg.sender, address(this), _amount) */\n      swap4\n      swap3\n      swap2\n      swap1\n      0xffffffff\n      and\n      jump\t// in\n    tag_178:\n        /* \"@openzeppelin/contracts/utils/ReentrancyGuard.sol\":2531:2532  _ */\n      pop\n        /* \"@openzeppelin/contracts/utils/ReentrancyGuard.sol\":2542:2562  _nonReentrantAfter() */\n      tag_180\n        /* \"@openzeppelin/contracts/utils/ReentrancyGuard.sol\":2542:2560  _nonReentrantAfter */\n      tag_161\n        /* \"@openzeppelin/contracts/utils/ReentrancyGuard.sol\":2542:2562  _nonReentrantAfter() */\n      jump\t// in\n    tag_180:\n        /* \"03_kipu-bank-v2/contracts/errKipuBankV2 copy.sol\":9174:10124  function depositarUSDC(uint256 _amount) ... */\n      pop\n      jump\t// out\n        /* \"03_kipu-bank-v2/contracts/errKipuBankV2 copy.sol\":14492:15736  function retirarToken(address _token, uint256 _amount) ... */\n    tag_75:\n        /* \"@openzeppelin/contracts/utils/ReentrancyGuard.sol\":2500:2521  _nonReentrantBefore() */\n      tag_182\n        /* \"@openzeppelin/contracts/utils/ReentrancyGuard.sol\":2500:2519  _nonReentrantBefore */\n      tag_144\n        /* \"@openzeppelin/contracts/utils/ReentrancyGuard.sol\":2500:2521  _nonReentrantBefore() */\n      jump\t// in\n    tag_182:\n        /* \"03_kipu-bank-v2/contracts/errKipuBankV2 copy.sol\":14611:14617  _token */\n      dup2\n        /* \"03_kipu-bank-v2/contracts/errKipuBankV2 copy.sol\":1612:1613  0 */\n      0x00\n        /* \"03_kipu-bank-v2/contracts/errKipuBankV2 copy.sol\":7477:7499  _token != NATIVE_TOKEN */\n      0xffffffffffffffffffffffffffffffffffffffff\n      and\n        /* \"03_kipu-bank-v2/contracts/errKipuBankV2 copy.sol\":7477:7483  _token */\n      dup2\n        /* \"03_kipu-bank-v2/contracts/errKipuBankV2 copy.sol\":7477:7499  _token != NATIVE_TOKEN */\n      0xffffffffffffffffffffffffffffffffffffffff\n      and\n      eq\n      iszero\n        /* \"03_kipu-bank-v2/contracts/errKipuBankV2 copy.sol\":7477:7528  _token != NATIVE_TOKEN && _token != address(i_usdc) */\n      dup1\n      iszero\n      tag_184\n      jumpi\n      pop\n        /* \"03_kipu-bank-v2/contracts/errKipuBankV2 copy.sol\":7521:7527  i_usdc */\n      immutable(\"0x6304e47846f882085b0f4b1a184252ae95ffe5e2a02daf39c014f492dcb1441c\")\n        /* \"03_kipu-bank-v2/contracts/errKipuBankV2 copy.sol\":7503:7528  _token != address(i_usdc) */\n      0xffffffffffffffffffffffffffffffffffffffff\n      and\n        /* \"03_kipu-bank-v2/contracts/errKipuBankV2 copy.sol\":7503:7509  _token */\n      dup2\n        /* \"03_kipu-bank-v2/contracts/errKipuBankV2 copy.sol\":7503:7528  _token != address(i_usdc) */\n      0xffffffffffffffffffffffffffffffffffffffff\n      and\n      eq\n      iszero\n        /* \"03_kipu-bank-v2/contracts/errKipuBankV2 copy.sol\":7477:7528  _token != NATIVE_TOKEN && _token != address(i_usdc) */\n    tag_184:\n        /* \"03_kipu-bank-v2/contracts/errKipuBankV2 copy.sol\":7473:7597  if (_token != NATIVE_TOKEN && _token != address(i_usdc)) {... */\n      iszero\n      tag_185\n      jumpi\n        /* \"03_kipu-bank-v2/contracts/errKipuBankV2 copy.sol\":7579:7585  _token */\n      dup1\n        /* \"03_kipu-bank-v2/contracts/errKipuBankV2 copy.sol\":7551:7586  KipuBankV2_TokenNoSoportado(_token) */\n      mload(0x40)\n      0x2d5c07b900000000000000000000000000000000000000000000000000000000\n      dup2\n      mstore\n      0x04\n      add\n      tag_186\n      swap2\n      swap1\n      tag_56\n      jump\t// in\n    tag_186:\n      mload(0x40)\n      dup1\n      swap2\n      sub\n      swap1\n      revert\n        /* \"03_kipu-bank-v2/contracts/errKipuBankV2 copy.sol\":7473:7597  if (_token != NATIVE_TOKEN && _token != address(i_usdc)) {... */\n    tag_185:\n        /* \"03_kipu-bank-v2/contracts/errKipuBankV2 copy.sol\":14644:14651  _amount */\n      dup2\n        /* \"03_kipu-bank-v2/contracts/errKipuBankV2 copy.sol\":7162:7163  0 */\n      0x00\n        /* \"03_kipu-bank-v2/contracts/errKipuBankV2 copy.sol\":7152:7158  _monto */\n      dup2\n        /* \"03_kipu-bank-v2/contracts/errKipuBankV2 copy.sol\":7152:7163  _monto == 0 */\n      sub\n        /* \"03_kipu-bank-v2/contracts/errKipuBankV2 copy.sol\":7148:7207  if (_monto == 0) revert KipuBankV2_MontoDebeSerMayorACero() */\n      tag_188\n      jumpi\n        /* \"03_kipu-bank-v2/contracts/errKipuBankV2 copy.sol\":7172:7207  KipuBankV2_MontoDebeSerMayorACero() */\n      mload(0x40)\n      0xe729dc6400000000000000000000000000000000000000000000000000000000\n      dup2\n      mstore\n      0x04\n      add\n      mload(0x40)\n      dup1\n      swap2\n      sub\n      swap1\n      revert\n        /* \"03_kipu-bank-v2/contracts/errKipuBankV2 copy.sol\":7148:7207  if (_monto == 0) revert KipuBankV2_MontoDebeSerMayorACero() */\n    tag_188:\n        /* \"03_kipu-bank-v2/contracts/errKipuBankV2 copy.sol\":14695:14711  uint256 valorUSD */\n      0x00\n        /* \"03_kipu-bank-v2/contracts/errKipuBankV2 copy.sol\":14714:14751  _normalizarDecimales(_token, _amount) */\n      tag_190\n        /* \"03_kipu-bank-v2/contracts/errKipuBankV2 copy.sol\":14735:14741  _token */\n      dup6\n        /* \"03_kipu-bank-v2/contracts/errKipuBankV2 copy.sol\":14743:14750  _amount */\n      dup6\n        /* \"03_kipu-bank-v2/contracts/errKipuBankV2 copy.sol\":14714:14734  _normalizarDecimales */\n      tag_191\n        /* \"03_kipu-bank-v2/contracts/errKipuBankV2 copy.sol\":14714:14751  _normalizarDecimales(_token, _amount) */\n      jump\t// in\n    tag_190:\n        /* \"03_kipu-bank-v2/contracts/errKipuBankV2 copy.sol\":14695:14751  uint256 valorUSD = _normalizarDecimales(_token, _amount) */\n      swap1\n      pop\n        /* \"03_kipu-bank-v2/contracts/errKipuBankV2 copy.sol\":14851:14859  valorUSD */\n      dup1\n        /* \"03_kipu-bank-v2/contracts/errKipuBankV2 copy.sol\":14818:14828  s_balances */\n      0x03\n        /* \"03_kipu-bank-v2/contracts/errKipuBankV2 copy.sol\":14818:14840  s_balances[msg.sender] */\n      0x00\n        /* \"03_kipu-bank-v2/contracts/errKipuBankV2 copy.sol\":14829:14839  msg.sender */\n      caller\n        /* \"03_kipu-bank-v2/contracts/errKipuBankV2 copy.sol\":14818:14840  s_balances[msg.sender] */\n      0xffffffffffffffffffffffffffffffffffffffff\n      and\n      0xffffffffffffffffffffffffffffffffffffffff\n      and\n      dup2\n      mstore\n      0x20\n      add\n      swap1\n      dup2\n      mstore\n      0x20\n      add\n      0x00\n      keccak256\n        /* \"03_kipu-bank-v2/contracts/errKipuBankV2 copy.sol\":14818:14848  s_balances[msg.sender][_token] */\n      0x00\n        /* \"03_kipu-bank-v2/contracts/errKipuBankV2 copy.sol\":14841:14847  _token */\n      dup8\n        /* \"03_kipu-bank-v2/contracts/errKipuBankV2 copy.sol\":14818:14848  s_balances[msg.sender][_token] */\n      0xffffffffffffffffffffffffffffffffffffffff\n      and\n      0xffffffffffffffffffffffffffffffffffffffff\n      and\n      dup2\n      mstore\n      0x20\n      add\n      swap1\n      dup2\n      mstore\n      0x20\n      add\n      0x00\n      keccak256\n      sload\n        /* \"03_kipu-bank-v2/contracts/errKipuBankV2 copy.sol\":14818:14859  s_balances[msg.sender][_token] < valorUSD */\n      lt\n        /* \"03_kipu-bank-v2/contracts/errKipuBankV2 copy.sol\":14814:15009  if (s_balances[msg.sender][_token] < valorUSD) {... */\n      iszero\n      tag_192\n      jumpi\n        /* \"03_kipu-bank-v2/contracts/errKipuBankV2 copy.sol\":14928:14938  s_balances */\n      0x03\n        /* \"03_kipu-bank-v2/contracts/errKipuBankV2 copy.sol\":14928:14950  s_balances[msg.sender] */\n      0x00\n        /* \"03_kipu-bank-v2/contracts/errKipuBankV2 copy.sol\":14939:14949  msg.sender */\n      caller\n        /* \"03_kipu-bank-v2/contracts/errKipuBankV2 copy.sol\":14928:14950  s_balances[msg.sender] */\n      0xffffffffffffffffffffffffffffffffffffffff\n      and\n      0xffffffffffffffffffffffffffffffffffffffff\n      and\n      dup2\n      mstore\n      0x20\n      add\n      swap1\n      dup2\n      mstore\n      0x20\n      add\n      0x00\n      keccak256\n        /* \"03_kipu-bank-v2/contracts/errKipuBankV2 copy.sol\":14928:14958  s_balances[msg.sender][_token] */\n      0x00\n        /* \"03_kipu-bank-v2/contracts/errKipuBankV2 copy.sol\":14951:14957  _token */\n      dup7\n        /* \"03_kipu-bank-v2/contracts/errKipuBankV2 copy.sol\":14928:14958  s_balances[msg.sender][_token] */\n      0xffffffffffffffffffffffffffffffffffffffff\n      and\n      0xffffffffffffffffffffffffffffffffffffffff\n      and\n      dup2\n      mstore\n      0x20\n      add\n      swap1\n      dup2\n      mstore\n      0x20\n      add\n      0x00\n      keccak256\n      sload\n        /* \"03_kipu-bank-v2/contracts/errKipuBankV2 copy.sol\":14976:14984  valorUSD */\n      dup2\n        /* \"03_kipu-bank-v2/contracts/errKipuBankV2 copy.sol\":14882:14998  KipuBankV2_SaldoInsuficiente(... */\n      mload(0x40)\n      0x3b28636500000000000000000000000000000000000000000000000000000000\n      dup2\n      mstore\n      0x04\n      add\n      tag_193\n      swap3\n      swap2\n      swap1\n      tag_119\n      jump\t// in\n    tag_193:\n      mload(0x40)\n      dup1\n      swap2\n      sub\n      swap1\n      revert\n        /* \"03_kipu-bank-v2/contracts/errKipuBankV2 copy.sol\":14814:15009  if (s_balances[msg.sender][_token] < valorUSD) {... */\n    tag_192:\n        /* \"03_kipu-bank-v2/contracts/errKipuBankV2 copy.sol\":15086:15103  i_umbralRetiroUSD */\n      immutable(\"0x2e9b7c94e032d8b3b8b30bd825717a5ac74958b53e7c37a892a4fd7dc56e4975\")\n        /* \"03_kipu-bank-v2/contracts/errKipuBankV2 copy.sol\":15075:15083  valorUSD */\n      dup2\n        /* \"03_kipu-bank-v2/contracts/errKipuBankV2 copy.sol\":15075:15103  valorUSD > i_umbralRetiroUSD */\n      gt\n        /* \"03_kipu-bank-v2/contracts/errKipuBankV2 copy.sol\":15071:15195  if (valorUSD > i_umbralRetiroUSD) {... */\n      iszero\n      tag_194\n      jumpi\n        /* \"03_kipu-bank-v2/contracts/errKipuBankV2 copy.sol\":15156:15164  valorUSD */\n      dup1\n        /* \"03_kipu-bank-v2/contracts/errKipuBankV2 copy.sol\":15166:15183  i_umbralRetiroUSD */\n      immutable(\"0x2e9b7c94e032d8b3b8b30bd825717a5ac74958b53e7c37a892a4fd7dc56e4975\")\n        /* \"03_kipu-bank-v2/contracts/errKipuBankV2 copy.sol\":15126:15184  KipuBankV2_RetiroExcedeUmbral(valorUSD, i_umbralRetiroUSD) */\n      mload(0x40)\n      0xd1ecfb7300000000000000000000000000000000000000000000000000000000\n      dup2\n      mstore\n      0x04\n      add\n      tag_195\n      swap3\n      swap2\n      swap1\n      tag_119\n      jump\t// in\n    tag_195:\n      mload(0x40)\n      dup1\n      swap2\n      sub\n      swap1\n      revert\n        /* \"03_kipu-bank-v2/contracts/errKipuBankV2 copy.sol\":15071:15195  if (valorUSD > i_umbralRetiroUSD) {... */\n    tag_194:\n        /* \"03_kipu-bank-v2/contracts/errKipuBankV2 copy.sol\":15285:15293  valorUSD */\n      dup1\n        /* \"03_kipu-bank-v2/contracts/errKipuBankV2 copy.sol\":15251:15261  s_balances */\n      0x03\n        /* \"03_kipu-bank-v2/contracts/errKipuBankV2 copy.sol\":15251:15273  s_balances[msg.sender] */\n      0x00\n        /* \"03_kipu-bank-v2/contracts/errKipuBankV2 copy.sol\":15262:15272  msg.sender */\n      caller\n        /* \"03_kipu-bank-v2/contracts/errKipuBankV2 copy.sol\":15251:15273  s_balances[msg.sender] */\n      0xffffffffffffffffffffffffffffffffffffffff\n      and\n      0xffffffffffffffffffffffffffffffffffffffff\n      and\n      dup2\n      mstore\n      0x20\n      add\n      swap1\n      dup2\n      mstore\n      0x20\n      add\n      0x00\n      keccak256\n        /* \"03_kipu-bank-v2/contracts/errKipuBankV2 copy.sol\":15251:15281  s_balances[msg.sender][_token] */\n      0x00\n        /* \"03_kipu-bank-v2/contracts/errKipuBankV2 copy.sol\":15274:15280  _token */\n      dup8\n        /* \"03_kipu-bank-v2/contracts/errKipuBankV2 copy.sol\":15251:15281  s_balances[msg.sender][_token] */\n      0xffffffffffffffffffffffffffffffffffffffff\n      and\n      0xffffffffffffffffffffffffffffffffffffffff\n      and\n      dup2\n      mstore\n      0x20\n      add\n      swap1\n      dup2\n      mstore\n      0x20\n      add\n      0x00\n      keccak256\n      0x00\n        /* \"03_kipu-bank-v2/contracts/errKipuBankV2 copy.sol\":15251:15293  s_balances[msg.sender][_token] -= valorUSD */\n      dup3\n      dup3\n      sload\n      tag_196\n      swap2\n      swap1\n      tag_197\n      jump\t// in\n    tag_196:\n      swap3\n      pop\n      pop\n      dup2\n      swap1\n      sstore\n      pop\n        /* \"03_kipu-bank-v2/contracts/errKipuBankV2 copy.sol\":15340:15348  valorUSD */\n      dup1\n        /* \"03_kipu-bank-v2/contracts/errKipuBankV2 copy.sol\":15303:15328  s_totalDepositadoPorToken */\n      0x04\n        /* \"03_kipu-bank-v2/contracts/errKipuBankV2 copy.sol\":15303:15336  s_totalDepositadoPorToken[_token] */\n      0x00\n        /* \"03_kipu-bank-v2/contracts/errKipuBankV2 copy.sol\":15329:15335  _token */\n      dup8\n        /* \"03_kipu-bank-v2/contracts/errKipuBankV2 copy.sol\":15303:15336  s_totalDepositadoPorToken[_token] */\n      0xffffffffffffffffffffffffffffffffffffffff\n      and\n      0xffffffffffffffffffffffffffffffffffffffff\n      and\n      dup2\n      mstore\n      0x20\n      add\n      swap1\n      dup2\n      mstore\n      0x20\n      add\n      0x00\n      keccak256\n      0x00\n        /* \"03_kipu-bank-v2/contracts/errKipuBankV2 copy.sol\":15303:15348  s_totalDepositadoPorToken[_token] -= valorUSD */\n      dup3\n      dup3\n      sload\n      tag_198\n      swap2\n      swap1\n      tag_197\n      jump\t// in\n    tag_198:\n      swap3\n      pop\n      pop\n      dup2\n      swap1\n      sstore\n      pop\n        /* \"03_kipu-bank-v2/contracts/errKipuBankV2 copy.sol\":15382:15390  valorUSD */\n      dup1\n        /* \"03_kipu-bank-v2/contracts/errKipuBankV2 copy.sol\":15358:15378  s_totalDepositadoUSD */\n      0x05\n      0x00\n        /* \"03_kipu-bank-v2/contracts/errKipuBankV2 copy.sol\":15358:15390  s_totalDepositadoUSD -= valorUSD */\n      dup3\n      dup3\n      sload\n      tag_199\n      swap2\n      swap1\n      tag_197\n      jump\t// in\n    tag_199:\n      swap3\n      pop\n      pop\n      dup2\n      swap1\n      sstore\n      pop\n        /* \"03_kipu-bank-v2/contracts/errKipuBankV2 copy.sol\":15400:15417  s_contadorRetiros */\n      0x07\n      0x00\n        /* \"03_kipu-bank-v2/contracts/errKipuBankV2 copy.sol\":15400:15419  s_contadorRetiros++ */\n      dup2\n      sload\n      dup1\n      swap3\n      swap2\n      swap1\n      tag_200\n      swap1\n      tag_158\n      jump\t// in\n    tag_200:\n      swap2\n      swap1\n      pop\n      sstore\n      pop\n        /* \"03_kipu-bank-v2/contracts/errKipuBankV2 copy.sol\":15566:15572  _token */\n      dup5\n        /* \"03_kipu-bank-v2/contracts/errKipuBankV2 copy.sol\":15502:15625  KipuBankV2_RetiroRealizado(... */\n      0xffffffffffffffffffffffffffffffffffffffff\n      and\n        /* \"03_kipu-bank-v2/contracts/errKipuBankV2 copy.sol\":15542:15552  msg.sender */\n      caller\n        /* \"03_kipu-bank-v2/contracts/errKipuBankV2 copy.sol\":15502:15625  KipuBankV2_RetiroRealizado(... */\n      0xffffffffffffffffffffffffffffffffffffffff\n      and\n      0xc6acb54bdd58af37c8d1b8bf2f1a561163c5191551bbd6e74cce66ff7b670c77\n        /* \"03_kipu-bank-v2/contracts/errKipuBankV2 copy.sol\":15586:15593  _amount */\n      dup7\n        /* \"03_kipu-bank-v2/contracts/errKipuBankV2 copy.sol\":15607:15615  valorUSD */\n      dup5\n        /* \"03_kipu-bank-v2/contracts/errKipuBankV2 copy.sol\":15502:15625  KipuBankV2_RetiroRealizado(... */\n      mload(0x40)\n      tag_201\n      swap3\n      swap2\n      swap1\n      tag_119\n      jump\t// in\n    tag_201:\n      mload(0x40)\n      dup1\n      swap2\n      sub\n      swap1\n      log3\n        /* \"03_kipu-bank-v2/contracts/errKipuBankV2 copy.sol\":15681:15729  IERC20(_token).safeTransfer(msg.sender, _amount) */\n      tag_202\n        /* \"03_kipu-bank-v2/contracts/errKipuBankV2 copy.sol\":15709:15719  msg.sender */\n      caller\n        /* \"03_kipu-bank-v2/contracts/errKipuBankV2 copy.sol\":15721:15728  _amount */\n      dup6\n        /* \"03_kipu-bank-v2/contracts/errKipuBankV2 copy.sol\":15688:15694  _token */\n      dup8\n        /* \"03_kipu-bank-v2/contracts/errKipuBankV2 copy.sol\":15681:15708  IERC20(_token).safeTransfer */\n      0xffffffffffffffffffffffffffffffffffffffff\n      and\n      tag_203\n      swap1\n        /* \"03_kipu-bank-v2/contracts/errKipuBankV2 copy.sol\":15681:15729  IERC20(_token).safeTransfer(msg.sender, _amount) */\n      swap3\n      swap2\n      swap1\n      0xffffffff\n      and\n      jump\t// in\n    tag_202:\n        /* \"03_kipu-bank-v2/contracts/errKipuBankV2 copy.sol\":14658:15736  {... */\n      pop\n        /* \"03_kipu-bank-v2/contracts/errKipuBankV2 copy.sol\":7606:7607  _ */\n      pop\n        /* \"@openzeppelin/contracts/utils/ReentrancyGuard.sol\":2531:2532  _ */\n      pop\n        /* \"@openzeppelin/contracts/utils/ReentrancyGuard.sol\":2542:2562  _nonReentrantAfter() */\n      tag_204\n        /* \"@openzeppelin/contracts/utils/ReentrancyGuard.sol\":2542:2560  _nonReentrantAfter */\n      tag_161\n        /* \"@openzeppelin/contracts/utils/ReentrancyGuard.sol\":2542:2562  _nonReentrantAfter() */\n      jump\t// in\n    tag_204:\n        /* \"03_kipu-bank-v2/contracts/errKipuBankV2 copy.sol\":14492:15736  function retirarToken(address _token, uint256 _amount) ... */\n      pop\n      pop\n      jump\t// out\n        /* \"@openzeppelin/contracts/access/Ownable.sol\":2293:2394  function renounceOwnership() public virtual onlyOwner {... */\n    tag_78:\n        /* \"@openzeppelin/contracts/access/Ownable.sol\":1531:1544  _checkOwner() */\n      tag_206\n        /* \"@openzeppelin/contracts/access/Ownable.sol\":1531:1542  _checkOwner */\n      tag_207\n        /* \"@openzeppelin/contracts/access/Ownable.sol\":1531:1544  _checkOwner() */\n      jump\t// in\n    tag_206:\n        /* \"@openzeppelin/contracts/access/Ownable.sol\":2357:2387  _transferOwnership(address(0)) */\n      tag_209\n        /* \"@openzeppelin/contracts/access/Ownable.sol\":2384:2385  0 */\n      0x00\n        /* \"@openzeppelin/contracts/access/Ownable.sol\":2357:2375  _transferOwnership */\n      tag_210\n        /* \"@openzeppelin/contracts/access/Ownable.sol\":2357:2387  _transferOwnership(address(0)) */\n      jump\t// in\n    tag_209:\n        /* \"@openzeppelin/contracts/access/Ownable.sol\":2293:2394  function renounceOwnership() public virtual onlyOwner {... */\n      jump\t// out\n        /* \"03_kipu-bank-v2/contracts/errKipuBankV2 copy.sol\":11761:12952  function retirarETH(uint256 _amountETH) ... */\n    tag_82:\n        /* \"@openzeppelin/contracts/utils/ReentrancyGuard.sol\":2500:2521  _nonReentrantBefore() */\n      tag_212\n        /* \"@openzeppelin/contracts/utils/ReentrancyGuard.sol\":2500:2519  _nonReentrantBefore */\n      tag_144\n        /* \"@openzeppelin/contracts/utils/ReentrancyGuard.sol\":2500:2521  _nonReentrantBefore() */\n      jump\t// in\n    tag_212:\n        /* \"03_kipu-bank-v2/contracts/errKipuBankV2 copy.sol\":11866:11876  _amountETH */\n      dup1\n        /* \"03_kipu-bank-v2/contracts/errKipuBankV2 copy.sol\":7162:7163  0 */\n      0x00\n        /* \"03_kipu-bank-v2/contracts/errKipuBankV2 copy.sol\":7152:7158  _monto */\n      dup2\n        /* \"03_kipu-bank-v2/contracts/errKipuBankV2 copy.sol\":7152:7163  _monto == 0 */\n      sub\n        /* \"03_kipu-bank-v2/contracts/errKipuBankV2 copy.sol\":7148:7207  if (_monto == 0) revert KipuBankV2_MontoDebeSerMayorACero() */\n      tag_214\n      jumpi\n        /* \"03_kipu-bank-v2/contracts/errKipuBankV2 copy.sol\":7172:7207  KipuBankV2_MontoDebeSerMayorACero() */\n      mload(0x40)\n      0xe729dc6400000000000000000000000000000000000000000000000000000000\n      dup2\n      mstore\n      0x04\n      add\n      mload(0x40)\n      dup1\n      swap2\n      sub\n      swap1\n      revert\n        /* \"03_kipu-bank-v2/contracts/errKipuBankV2 copy.sol\":7148:7207  if (_monto == 0) revert KipuBankV2_MontoDebeSerMayorACero() */\n    tag_214:\n        /* \"03_kipu-bank-v2/contracts/errKipuBankV2 copy.sol\":11936:11952  uint256 valorUSD */\n      0x00\n        /* \"03_kipu-bank-v2/contracts/errKipuBankV2 copy.sol\":11955:11984  _convertirEthAUsd(_amountETH) */\n      tag_216\n        /* \"03_kipu-bank-v2/contracts/errKipuBankV2 copy.sol\":11973:11983  _amountETH */\n      dup4\n        /* \"03_kipu-bank-v2/contracts/errKipuBankV2 copy.sol\":11955:11972  _convertirEthAUsd */\n      tag_148\n        /* \"03_kipu-bank-v2/contracts/errKipuBankV2 copy.sol\":11955:11984  _convertirEthAUsd(_amountETH) */\n      jump\t// in\n    tag_216:\n        /* \"03_kipu-bank-v2/contracts/errKipuBankV2 copy.sol\":11936:11984  uint256 valorUSD = _convertirEthAUsd(_amountETH) */\n      swap1\n      pop\n        /* \"03_kipu-bank-v2/contracts/errKipuBankV2 copy.sol\":12090:12098  valorUSD */\n      dup1\n        /* \"03_kipu-bank-v2/contracts/errKipuBankV2 copy.sol\":12051:12061  s_balances */\n      0x03\n        /* \"03_kipu-bank-v2/contracts/errKipuBankV2 copy.sol\":12051:12073  s_balances[msg.sender] */\n      0x00\n        /* \"03_kipu-bank-v2/contracts/errKipuBankV2 copy.sol\":12062:12072  msg.sender */\n      caller\n        /* \"03_kipu-bank-v2/contracts/errKipuBankV2 copy.sol\":12051:12073  s_balances[msg.sender] */\n      0xffffffffffffffffffffffffffffffffffffffff\n      and\n      0xffffffffffffffffffffffffffffffffffffffff\n      and\n      dup2\n      mstore\n      0x20\n      add\n      swap1\n      dup2\n      mstore\n      0x20\n      add\n      0x00\n      keccak256\n        /* \"03_kipu-bank-v2/contracts/errKipuBankV2 copy.sol\":12051:12087  s_balances[msg.sender][NATIVE_TOKEN] */\n      0x00\n        /* \"03_kipu-bank-v2/contracts/errKipuBankV2 copy.sol\":1612:1613  0 */\n      dup1\n        /* \"03_kipu-bank-v2/contracts/errKipuBankV2 copy.sol\":12051:12087  s_balances[msg.sender][NATIVE_TOKEN] */\n      0xffffffffffffffffffffffffffffffffffffffff\n      and\n      0xffffffffffffffffffffffffffffffffffffffff\n      and\n      dup2\n      mstore\n      0x20\n      add\n      swap1\n      dup2\n      mstore\n      0x20\n      add\n      0x00\n      keccak256\n      sload\n        /* \"03_kipu-bank-v2/contracts/errKipuBankV2 copy.sol\":12051:12098  s_balances[msg.sender][NATIVE_TOKEN] < valorUSD */\n      lt\n        /* \"03_kipu-bank-v2/contracts/errKipuBankV2 copy.sol\":12047:12254  if (s_balances[msg.sender][NATIVE_TOKEN] < valorUSD) {... */\n      iszero\n      tag_217\n      jumpi\n        /* \"03_kipu-bank-v2/contracts/errKipuBankV2 copy.sol\":12167:12177  s_balances */\n      0x03\n        /* \"03_kipu-bank-v2/contracts/errKipuBankV2 copy.sol\":12167:12189  s_balances[msg.sender] */\n      0x00\n        /* \"03_kipu-bank-v2/contracts/errKipuBankV2 copy.sol\":12178:12188  msg.sender */\n      caller\n        /* \"03_kipu-bank-v2/contracts/errKipuBankV2 copy.sol\":12167:12189  s_balances[msg.sender] */\n      0xffffffffffffffffffffffffffffffffffffffff\n      and\n      0xffffffffffffffffffffffffffffffffffffffff\n      and\n      dup2\n      mstore\n      0x20\n      add\n      swap1\n      dup2\n      mstore\n      0x20\n      add\n      0x00\n      keccak256\n        /* \"03_kipu-bank-v2/contracts/errKipuBankV2 copy.sol\":12167:12203  s_balances[msg.sender][NATIVE_TOKEN] */\n      0x00\n        /* \"03_kipu-bank-v2/contracts/errKipuBankV2 copy.sol\":1612:1613  0 */\n      dup1\n        /* \"03_kipu-bank-v2/contracts/errKipuBankV2 copy.sol\":12167:12203  s_balances[msg.sender][NATIVE_TOKEN] */\n      0xffffffffffffffffffffffffffffffffffffffff\n      and\n      0xffffffffffffffffffffffffffffffffffffffff\n      and\n      dup2\n      mstore\n      0x20\n      add\n      swap1\n      dup2\n      mstore\n      0x20\n      add\n      0x00\n      keccak256\n      sload\n        /* \"03_kipu-bank-v2/contracts/errKipuBankV2 copy.sol\":12221:12229  valorUSD */\n      dup2\n        /* \"03_kipu-bank-v2/contracts/errKipuBankV2 copy.sol\":12121:12243  KipuBankV2_SaldoInsuficiente(... */\n      mload(0x40)\n      0x3b28636500000000000000000000000000000000000000000000000000000000\n      dup2\n      mstore\n      0x04\n      add\n      tag_218\n      swap3\n      swap2\n      swap1\n      tag_119\n      jump\t// in\n    tag_218:\n      mload(0x40)\n      dup1\n      swap2\n      sub\n      swap1\n      revert\n        /* \"03_kipu-bank-v2/contracts/errKipuBankV2 copy.sol\":12047:12254  if (s_balances[msg.sender][NATIVE_TOKEN] < valorUSD) {... */\n    tag_217:\n        /* \"03_kipu-bank-v2/contracts/errKipuBankV2 copy.sol\":12331:12348  i_umbralRetiroUSD */\n      immutable(\"0x2e9b7c94e032d8b3b8b30bd825717a5ac74958b53e7c37a892a4fd7dc56e4975\")\n        /* \"03_kipu-bank-v2/contracts/errKipuBankV2 copy.sol\":12320:12328  valorUSD */\n      dup2\n        /* \"03_kipu-bank-v2/contracts/errKipuBankV2 copy.sol\":12320:12348  valorUSD > i_umbralRetiroUSD */\n      gt\n        /* \"03_kipu-bank-v2/contracts/errKipuBankV2 copy.sol\":12316:12440  if (valorUSD > i_umbralRetiroUSD) {... */\n      iszero\n      tag_219\n      jumpi\n        /* \"03_kipu-bank-v2/contracts/errKipuBankV2 copy.sol\":12401:12409  valorUSD */\n      dup1\n        /* \"03_kipu-bank-v2/contracts/errKipuBankV2 copy.sol\":12411:12428  i_umbralRetiroUSD */\n      immutable(\"0x2e9b7c94e032d8b3b8b30bd825717a5ac74958b53e7c37a892a4fd7dc56e4975\")\n        /* \"03_kipu-bank-v2/contracts/errKipuBankV2 copy.sol\":12371:12429  KipuBankV2_RetiroExcedeUmbral(valorUSD, i_umbralRetiroUSD) */\n      mload(0x40)\n      0xd1ecfb7300000000000000000000000000000000000000000000000000000000\n      dup2\n      mstore\n      0x04\n      add\n      tag_220\n      swap3\n      swap2\n      swap1\n      tag_119\n      jump\t// in\n    tag_220:\n      mload(0x40)\n      dup1\n      swap2\n      sub\n      swap1\n      revert\n        /* \"03_kipu-bank-v2/contracts/errKipuBankV2 copy.sol\":12316:12440  if (valorUSD > i_umbralRetiroUSD) {... */\n    tag_219:\n        /* \"03_kipu-bank-v2/contracts/errKipuBankV2 copy.sol\":12536:12544  valorUSD */\n      dup1\n        /* \"03_kipu-bank-v2/contracts/errKipuBankV2 copy.sol\":12496:12506  s_balances */\n      0x03\n        /* \"03_kipu-bank-v2/contracts/errKipuBankV2 copy.sol\":12496:12518  s_balances[msg.sender] */\n      0x00\n        /* \"03_kipu-bank-v2/contracts/errKipuBankV2 copy.sol\":12507:12517  msg.sender */\n      caller\n        /* \"03_kipu-bank-v2/contracts/errKipuBankV2 copy.sol\":12496:12518  s_balances[msg.sender] */\n      0xffffffffffffffffffffffffffffffffffffffff\n      and\n      0xffffffffffffffffffffffffffffffffffffffff\n      and\n      dup2\n      mstore\n      0x20\n      add\n      swap1\n      dup2\n      mstore\n      0x20\n      add\n      0x00\n      keccak256\n        /* \"03_kipu-bank-v2/contracts/errKipuBankV2 copy.sol\":12496:12532  s_balances[msg.sender][NATIVE_TOKEN] */\n      0x00\n        /* \"03_kipu-bank-v2/contracts/errKipuBankV2 copy.sol\":1612:1613  0 */\n      dup1\n        /* \"03_kipu-bank-v2/contracts/errKipuBankV2 copy.sol\":12496:12532  s_balances[msg.sender][NATIVE_TOKEN] */\n      0xffffffffffffffffffffffffffffffffffffffff\n      and\n      0xffffffffffffffffffffffffffffffffffffffff\n      and\n      dup2\n      mstore\n      0x20\n      add\n      swap1\n      dup2\n      mstore\n      0x20\n      add\n      0x00\n      keccak256\n      0x00\n        /* \"03_kipu-bank-v2/contracts/errKipuBankV2 copy.sol\":12496:12544  s_balances[msg.sender][NATIVE_TOKEN] -= valorUSD */\n      dup3\n      dup3\n      sload\n      tag_221\n      swap2\n      swap1\n      tag_197\n      jump\t// in\n    tag_221:\n      swap3\n      pop\n      pop\n      dup2\n      swap1\n      sstore\n      pop\n        /* \"03_kipu-bank-v2/contracts/errKipuBankV2 copy.sol\":12597:12605  valorUSD */\n      dup1\n        /* \"03_kipu-bank-v2/contracts/errKipuBankV2 copy.sol\":12554:12579  s_totalDepositadoPorToken */\n      0x04\n        /* \"03_kipu-bank-v2/contracts/errKipuBankV2 copy.sol\":12554:12593  s_totalDepositadoPorToken[NATIVE_TOKEN] */\n      0x00\n        /* \"03_kipu-bank-v2/contracts/errKipuBankV2 copy.sol\":1612:1613  0 */\n      dup1\n        /* \"03_kipu-bank-v2/contracts/errKipuBankV2 copy.sol\":12554:12593  s_totalDepositadoPorToken[NATIVE_TOKEN] */\n      0xffffffffffffffffffffffffffffffffffffffff\n      and\n      0xffffffffffffffffffffffffffffffffffffffff\n      and\n      dup2\n      mstore\n      0x20\n      add\n      swap1\n      dup2\n      mstore\n      0x20\n      add\n      0x00\n      keccak256\n      0x00\n        /* \"03_kipu-bank-v2/contracts/errKipuBankV2 copy.sol\":12554:12605  s_totalDepositadoPorToken[NATIVE_TOKEN] -= valorUSD */\n      dup3\n      dup3\n      sload\n      tag_222\n      swap2\n      swap1\n      tag_197\n      jump\t// in\n    tag_222:\n      swap3\n      pop\n      pop\n      dup2\n      swap1\n      sstore\n      pop\n        /* \"03_kipu-bank-v2/contracts/errKipuBankV2 copy.sol\":12639:12647  valorUSD */\n      dup1\n        /* \"03_kipu-bank-v2/contracts/errKipuBankV2 copy.sol\":12615:12635  s_totalDepositadoUSD */\n      0x05\n      0x00\n        /* \"03_kipu-bank-v2/contracts/errKipuBankV2 copy.sol\":12615:12647  s_totalDepositadoUSD -= valorUSD */\n      dup3\n      dup3\n      sload\n      tag_223\n      swap2\n      swap1\n      tag_197\n      jump\t// in\n    tag_223:\n      swap3\n      pop\n      pop\n      dup2\n      swap1\n      sstore\n      pop\n        /* \"03_kipu-bank-v2/contracts/errKipuBankV2 copy.sol\":12657:12674  s_contadorRetiros */\n      0x07\n      0x00\n        /* \"03_kipu-bank-v2/contracts/errKipuBankV2 copy.sol\":12657:12676  s_contadorRetiros++ */\n      dup2\n      sload\n      dup1\n      swap3\n      swap2\n      swap1\n      tag_224\n      swap1\n      tag_158\n      jump\t// in\n    tag_224:\n      swap2\n      swap1\n      pop\n      sstore\n      pop\n        /* \"03_kipu-bank-v2/contracts/errKipuBankV2 copy.sol\":1612:1613  0 */\n      0x00\n        /* \"03_kipu-bank-v2/contracts/errKipuBankV2 copy.sol\":12756:12888  KipuBankV2_RetiroRealizado(... */\n      0xffffffffffffffffffffffffffffffffffffffff\n      and\n        /* \"03_kipu-bank-v2/contracts/errKipuBankV2 copy.sol\":12796:12806  msg.sender */\n      caller\n        /* \"03_kipu-bank-v2/contracts/errKipuBankV2 copy.sol\":12756:12888  KipuBankV2_RetiroRealizado(... */\n      0xffffffffffffffffffffffffffffffffffffffff\n      and\n      0xc6acb54bdd58af37c8d1b8bf2f1a561163c5191551bbd6e74cce66ff7b670c77\n        /* \"03_kipu-bank-v2/contracts/errKipuBankV2 copy.sol\":12846:12856  _amountETH */\n      dup6\n        /* \"03_kipu-bank-v2/contracts/errKipuBankV2 copy.sol\":12870:12878  valorUSD */\n      dup5\n        /* \"03_kipu-bank-v2/contracts/errKipuBankV2 copy.sol\":12756:12888  KipuBankV2_RetiroRealizado(... */\n      mload(0x40)\n      tag_225\n      swap3\n      swap2\n      swap1\n      tag_119\n      jump\t// in\n    tag_225:\n      mload(0x40)\n      dup1\n      swap2\n      sub\n      swap1\n      log3\n        /* \"03_kipu-bank-v2/contracts/errKipuBankV2 copy.sol\":12907:12945  _transferirEth(msg.sender, _amountETH) */\n      tag_226\n        /* \"03_kipu-bank-v2/contracts/errKipuBankV2 copy.sol\":12922:12932  msg.sender */\n      caller\n        /* \"03_kipu-bank-v2/contracts/errKipuBankV2 copy.sol\":12934:12944  _amountETH */\n      dup5\n        /* \"03_kipu-bank-v2/contracts/errKipuBankV2 copy.sol\":12907:12921  _transferirEth */\n      tag_227\n        /* \"03_kipu-bank-v2/contracts/errKipuBankV2 copy.sol\":12907:12945  _transferirEth(msg.sender, _amountETH) */\n      jump\t// in\n    tag_226:\n        /* \"03_kipu-bank-v2/contracts/errKipuBankV2 copy.sol\":11883:12952  {... */\n      pop\n        /* \"@openzeppelin/contracts/utils/ReentrancyGuard.sol\":2531:2532  _ */\n      pop\n        /* \"@openzeppelin/contracts/utils/ReentrancyGuard.sol\":2542:2562  _nonReentrantAfter() */\n      tag_228\n        /* \"@openzeppelin/contracts/utils/ReentrancyGuard.sol\":2542:2560  _nonReentrantAfter */\n      tag_161\n        /* \"@openzeppelin/contracts/utils/ReentrancyGuard.sol\":2542:2562  _nonReentrantAfter() */\n      jump\t// in\n    tag_228:\n        /* \"03_kipu-bank-v2/contracts/errKipuBankV2 copy.sol\":11761:12952  function retirarETH(uint256 _amountETH) ... */\n      pop\n      jump\t// out\n        /* \"@openzeppelin/contracts/access/Ownable.sol\":1638:1723  function owner() public view virtual returns (address) {... */\n    tag_85:\n        /* \"@openzeppelin/contracts/access/Ownable.sol\":1684:1691  address */\n      0x00\n        /* \"@openzeppelin/contracts/access/Ownable.sol\":1710:1716  _owner */\n      dup1\n      0x00\n      swap1\n      sload\n      swap1\n      0x0100\n      exp\n      swap1\n      div\n      0xffffffffffffffffffffffffffffffffffffffff\n      and\n        /* \"@openzeppelin/contracts/access/Ownable.sol\":1703:1716  return _owner */\n      swap1\n      pop\n        /* \"@openzeppelin/contracts/access/Ownable.sol\":1638:1723  function owner() public view virtual returns (address) {... */\n      swap1\n      jump\t// out\n        /* \"03_kipu-bank-v2/contracts/errKipuBankV2 copy.sol\":13144:14227  function retirarUSDC(uint256 _amount) ... */\n    tag_90:\n        /* \"@openzeppelin/contracts/utils/ReentrancyGuard.sol\":2500:2521  _nonReentrantBefore() */\n      tag_231\n        /* \"@openzeppelin/contracts/utils/ReentrancyGuard.sol\":2500:2519  _nonReentrantBefore */\n      tag_144\n        /* \"@openzeppelin/contracts/utils/ReentrancyGuard.sol\":2500:2521  _nonReentrantBefore() */\n      jump\t// in\n    tag_231:\n        /* \"03_kipu-bank-v2/contracts/errKipuBankV2 copy.sol\":13247:13254  _amount */\n      dup1\n        /* \"03_kipu-bank-v2/contracts/errKipuBankV2 copy.sol\":7162:7163  0 */\n      0x00\n        /* \"03_kipu-bank-v2/contracts/errKipuBankV2 copy.sol\":7152:7158  _monto */\n      dup2\n        /* \"03_kipu-bank-v2/contracts/errKipuBankV2 copy.sol\":7152:7163  _monto == 0 */\n      sub\n        /* \"03_kipu-bank-v2/contracts/errKipuBankV2 copy.sol\":7148:7207  if (_monto == 0) revert KipuBankV2_MontoDebeSerMayorACero() */\n      tag_233\n      jumpi\n        /* \"03_kipu-bank-v2/contracts/errKipuBankV2 copy.sol\":7172:7207  KipuBankV2_MontoDebeSerMayorACero() */\n      mload(0x40)\n      0xe729dc6400000000000000000000000000000000000000000000000000000000\n      dup2\n      mstore\n      0x04\n      add\n      mload(0x40)\n      dup1\n      swap2\n      sub\n      swap1\n      revert\n        /* \"03_kipu-bank-v2/contracts/errKipuBankV2 copy.sol\":7148:7207  if (_monto == 0) revert KipuBankV2_MontoDebeSerMayorACero() */\n    tag_233:\n        /* \"03_kipu-bank-v2/contracts/errKipuBankV2 copy.sol\":13328:13345  i_umbralRetiroUSD */\n      immutable(\"0x2e9b7c94e032d8b3b8b30bd825717a5ac74958b53e7c37a892a4fd7dc56e4975\")\n        /* \"03_kipu-bank-v2/contracts/errKipuBankV2 copy.sol\":13318:13325  _amount */\n      dup3\n        /* \"03_kipu-bank-v2/contracts/errKipuBankV2 copy.sol\":13318:13345  _amount > i_umbralRetiroUSD */\n      gt\n        /* \"03_kipu-bank-v2/contracts/errKipuBankV2 copy.sol\":13314:13436  if (_amount > i_umbralRetiroUSD) {... */\n      iszero\n      tag_235\n      jumpi\n        /* \"03_kipu-bank-v2/contracts/errKipuBankV2 copy.sol\":13398:13405  _amount */\n      dup2\n        /* \"03_kipu-bank-v2/contracts/errKipuBankV2 copy.sol\":13407:13424  i_umbralRetiroUSD */\n      immutable(\"0x2e9b7c94e032d8b3b8b30bd825717a5ac74958b53e7c37a892a4fd7dc56e4975\")\n        /* \"03_kipu-bank-v2/contracts/errKipuBankV2 copy.sol\":13368:13425  KipuBankV2_RetiroExcedeUmbral(_amount, i_umbralRetiroUSD) */\n      mload(0x40)\n      0xd1ecfb7300000000000000000000000000000000000000000000000000000000\n      dup2\n      mstore\n      0x04\n      add\n      tag_236\n      swap3\n      swap2\n      swap1\n      tag_119\n      jump\t// in\n    tag_236:\n      mload(0x40)\n      dup1\n      swap2\n      sub\n      swap1\n      revert\n        /* \"03_kipu-bank-v2/contracts/errKipuBankV2 copy.sol\":13314:13436  if (_amount > i_umbralRetiroUSD) {... */\n    tag_235:\n        /* \"03_kipu-bank-v2/contracts/errKipuBankV2 copy.sol\":13536:13543  _amount */\n      dup2\n        /* \"03_kipu-bank-v2/contracts/errKipuBankV2 copy.sol\":13494:13504  s_balances */\n      0x03\n        /* \"03_kipu-bank-v2/contracts/errKipuBankV2 copy.sol\":13494:13516  s_balances[msg.sender] */\n      0x00\n        /* \"03_kipu-bank-v2/contracts/errKipuBankV2 copy.sol\":13505:13515  msg.sender */\n      caller\n        /* \"03_kipu-bank-v2/contracts/errKipuBankV2 copy.sol\":13494:13516  s_balances[msg.sender] */\n      0xffffffffffffffffffffffffffffffffffffffff\n      and\n      0xffffffffffffffffffffffffffffffffffffffff\n      and\n      dup2\n      mstore\n      0x20\n      add\n      swap1\n      dup2\n      mstore\n      0x20\n      add\n      0x00\n      keccak256\n        /* \"03_kipu-bank-v2/contracts/errKipuBankV2 copy.sol\":13494:13533  s_balances[msg.sender][address(i_usdc)] */\n      0x00\n        /* \"03_kipu-bank-v2/contracts/errKipuBankV2 copy.sol\":13525:13531  i_usdc */\n      immutable(\"0x6304e47846f882085b0f4b1a184252ae95ffe5e2a02daf39c014f492dcb1441c\")\n        /* \"03_kipu-bank-v2/contracts/errKipuBankV2 copy.sol\":13494:13533  s_balances[msg.sender][address(i_usdc)] */\n      0xffffffffffffffffffffffffffffffffffffffff\n      and\n      0xffffffffffffffffffffffffffffffffffffffff\n      and\n      dup2\n      mstore\n      0x20\n      add\n      swap1\n      dup2\n      mstore\n      0x20\n      add\n      0x00\n      keccak256\n      sload\n        /* \"03_kipu-bank-v2/contracts/errKipuBankV2 copy.sol\":13494:13543  s_balances[msg.sender][address(i_usdc)] < _amount */\n      lt\n        /* \"03_kipu-bank-v2/contracts/errKipuBankV2 copy.sol\":13490:13701  if (s_balances[msg.sender][address(i_usdc)] < _amount) {... */\n      iszero\n      tag_237\n      jumpi\n        /* \"03_kipu-bank-v2/contracts/errKipuBankV2 copy.sol\":13612:13622  s_balances */\n      0x03\n        /* \"03_kipu-bank-v2/contracts/errKipuBankV2 copy.sol\":13612:13634  s_balances[msg.sender] */\n      0x00\n        /* \"03_kipu-bank-v2/contracts/errKipuBankV2 copy.sol\":13623:13633  msg.sender */\n      caller\n        /* \"03_kipu-bank-v2/contracts/errKipuBankV2 copy.sol\":13612:13634  s_balances[msg.sender] */\n      0xffffffffffffffffffffffffffffffffffffffff\n      and\n      0xffffffffffffffffffffffffffffffffffffffff\n      and\n      dup2\n      mstore\n      0x20\n      add\n      swap1\n      dup2\n      mstore\n      0x20\n      add\n      0x00\n      keccak256\n        /* \"03_kipu-bank-v2/contracts/errKipuBankV2 copy.sol\":13612:13651  s_balances[msg.sender][address(i_usdc)] */\n      0x00\n        /* \"03_kipu-bank-v2/contracts/errKipuBankV2 copy.sol\":13643:13649  i_usdc */\n      immutable(\"0x6304e47846f882085b0f4b1a184252ae95ffe5e2a02daf39c014f492dcb1441c\")\n        /* \"03_kipu-bank-v2/contracts/errKipuBankV2 copy.sol\":13612:13651  s_balances[msg.sender][address(i_usdc)] */\n      0xffffffffffffffffffffffffffffffffffffffff\n      and\n      0xffffffffffffffffffffffffffffffffffffffff\n      and\n      dup2\n      mstore\n      0x20\n      add\n      swap1\n      dup2\n      mstore\n      0x20\n      add\n      0x00\n      keccak256\n      sload\n        /* \"03_kipu-bank-v2/contracts/errKipuBankV2 copy.sol\":13669:13676  _amount */\n      dup3\n        /* \"03_kipu-bank-v2/contracts/errKipuBankV2 copy.sol\":13566:13690  KipuBankV2_SaldoInsuficiente(... */\n      mload(0x40)\n      0x3b28636500000000000000000000000000000000000000000000000000000000\n      dup2\n      mstore\n      0x04\n      add\n      tag_238\n      swap3\n      swap2\n      swap1\n      tag_119\n      jump\t// in\n    tag_238:\n      mload(0x40)\n      dup1\n      swap2\n      sub\n      swap1\n      revert\n        /* \"03_kipu-bank-v2/contracts/errKipuBankV2 copy.sol\":13490:13701  if (s_balances[msg.sender][address(i_usdc)] < _amount) {... */\n    tag_237:\n        /* \"03_kipu-bank-v2/contracts/errKipuBankV2 copy.sol\":13800:13807  _amount */\n      dup2\n        /* \"03_kipu-bank-v2/contracts/errKipuBankV2 copy.sol\":13757:13767  s_balances */\n      0x03\n        /* \"03_kipu-bank-v2/contracts/errKipuBankV2 copy.sol\":13757:13779  s_balances[msg.sender] */\n      0x00\n        /* \"03_kipu-bank-v2/contracts/errKipuBankV2 copy.sol\":13768:13778  msg.sender */\n      caller\n        /* \"03_kipu-bank-v2/contracts/errKipuBankV2 copy.sol\":13757:13779  s_balances[msg.sender] */\n      0xffffffffffffffffffffffffffffffffffffffff\n      and\n      0xffffffffffffffffffffffffffffffffffffffff\n      and\n      dup2\n      mstore\n      0x20\n      add\n      swap1\n      dup2\n      mstore\n      0x20\n      add\n      0x00\n      keccak256\n        /* \"03_kipu-bank-v2/contracts/errKipuBankV2 copy.sol\":13757:13796  s_balances[msg.sender][address(i_usdc)] */\n      0x00\n        /* \"03_kipu-bank-v2/contracts/errKipuBankV2 copy.sol\":13788:13794  i_usdc */\n      immutable(\"0x6304e47846f882085b0f4b1a184252ae95ffe5e2a02daf39c014f492dcb1441c\")\n        /* \"03_kipu-bank-v2/contracts/errKipuBankV2 copy.sol\":13757:13796  s_balances[msg.sender][address(i_usdc)] */\n      0xffffffffffffffffffffffffffffffffffffffff\n      and\n      0xffffffffffffffffffffffffffffffffffffffff\n      and\n      dup2\n      mstore\n      0x20\n      add\n      swap1\n      dup2\n      mstore\n      0x20\n      add\n      0x00\n      keccak256\n      0x00\n        /* \"03_kipu-bank-v2/contracts/errKipuBankV2 copy.sol\":13757:13807  s_balances[msg.sender][address(i_usdc)] -= _amount */\n      dup3\n      dup3\n      sload\n      tag_239\n      swap2\n      swap1\n      tag_197\n      jump\t// in\n    tag_239:\n      swap3\n      pop\n      pop\n      dup2\n      swap1\n      sstore\n      pop\n        /* \"03_kipu-bank-v2/contracts/errKipuBankV2 copy.sol\":13863:13870  _amount */\n      dup2\n        /* \"03_kipu-bank-v2/contracts/errKipuBankV2 copy.sol\":13817:13842  s_totalDepositadoPorToken */\n      0x04\n        /* \"03_kipu-bank-v2/contracts/errKipuBankV2 copy.sol\":13817:13859  s_totalDepositadoPorToken[address(i_usdc)] */\n      0x00\n        /* \"03_kipu-bank-v2/contracts/errKipuBankV2 copy.sol\":13851:13857  i_usdc */\n      immutable(\"0x6304e47846f882085b0f4b1a184252ae95ffe5e2a02daf39c014f492dcb1441c\")\n        /* \"03_kipu-bank-v2/contracts/errKipuBankV2 copy.sol\":13817:13859  s_totalDepositadoPorToken[address(i_usdc)] */\n      0xffffffffffffffffffffffffffffffffffffffff\n      and\n      0xffffffffffffffffffffffffffffffffffffffff\n      and\n      dup2\n      mstore\n      0x20\n      add\n      swap1\n      dup2\n      mstore\n      0x20\n      add\n      0x00\n      keccak256\n      0x00\n        /* \"03_kipu-bank-v2/contracts/errKipuBankV2 copy.sol\":13817:13870  s_totalDepositadoPorToken[address(i_usdc)] -= _amount */\n      dup3\n      dup3\n      sload\n      tag_240\n      swap2\n      swap1\n      tag_197\n      jump\t// in\n    tag_240:\n      swap3\n      pop\n      pop\n      dup2\n      swap1\n      sstore\n      pop\n        /* \"03_kipu-bank-v2/contracts/errKipuBankV2 copy.sol\":13904:13911  _amount */\n      dup2\n        /* \"03_kipu-bank-v2/contracts/errKipuBankV2 copy.sol\":13880:13900  s_totalDepositadoUSD */\n      0x05\n      0x00\n        /* \"03_kipu-bank-v2/contracts/errKipuBankV2 copy.sol\":13880:13911  s_totalDepositadoUSD -= _amount */\n      dup3\n      dup3\n      sload\n      tag_241\n      swap2\n      swap1\n      tag_197\n      jump\t// in\n    tag_241:\n      swap3\n      pop\n      pop\n      dup2\n      swap1\n      sstore\n      pop\n        /* \"03_kipu-bank-v2/contracts/errKipuBankV2 copy.sol\":13921:13938  s_contadorRetiros */\n      0x07\n      0x00\n        /* \"03_kipu-bank-v2/contracts/errKipuBankV2 copy.sol\":13921:13940  s_contadorRetiros++ */\n      dup2\n      sload\n      dup1\n      swap3\n      swap2\n      swap1\n      tag_242\n      swap1\n      tag_158\n      jump\t// in\n    tag_242:\n      swap2\n      swap1\n      pop\n      sstore\n      pop\n        /* \"03_kipu-bank-v2/contracts/errKipuBankV2 copy.sol\":14093:14099  i_usdc */\n      immutable(\"0x6304e47846f882085b0f4b1a184252ae95ffe5e2a02daf39c014f492dcb1441c\")\n        /* \"03_kipu-bank-v2/contracts/errKipuBankV2 copy.sol\":14021:14152  KipuBankV2_RetiroRealizado(... */\n      0xffffffffffffffffffffffffffffffffffffffff\n      and\n        /* \"03_kipu-bank-v2/contracts/errKipuBankV2 copy.sol\":14061:14071  msg.sender */\n      caller\n        /* \"03_kipu-bank-v2/contracts/errKipuBankV2 copy.sol\":14021:14152  KipuBankV2_RetiroRealizado(... */\n      0xffffffffffffffffffffffffffffffffffffffff\n      and\n      0xc6acb54bdd58af37c8d1b8bf2f1a561163c5191551bbd6e74cce66ff7b670c77\n        /* \"03_kipu-bank-v2/contracts/errKipuBankV2 copy.sol\":14114:14121  _amount */\n      dup5\n        /* \"03_kipu-bank-v2/contracts/errKipuBankV2 copy.sol\":14135:14142  _amount */\n      dup6\n        /* \"03_kipu-bank-v2/contracts/errKipuBankV2 copy.sol\":14021:14152  KipuBankV2_RetiroRealizado(... */\n      mload(0x40)\n      tag_243\n      swap3\n      swap2\n      swap1\n      tag_119\n      jump\t// in\n    tag_243:\n      mload(0x40)\n      dup1\n      swap2\n      sub\n      swap1\n      log3\n        /* \"03_kipu-bank-v2/contracts/errKipuBankV2 copy.sol\":14163:14220  IERC20(address(i_usdc)).safeTransfer(msg.sender, _amount) */\n      tag_244\n        /* \"03_kipu-bank-v2/contracts/errKipuBankV2 copy.sol\":14200:14210  msg.sender */\n      caller\n        /* \"03_kipu-bank-v2/contracts/errKipuBankV2 copy.sol\":14212:14219  _amount */\n      dup4\n        /* \"03_kipu-bank-v2/contracts/errKipuBankV2 copy.sol\":14178:14184  i_usdc */\n      immutable(\"0x6304e47846f882085b0f4b1a184252ae95ffe5e2a02daf39c014f492dcb1441c\")\n        /* \"03_kipu-bank-v2/contracts/errKipuBankV2 copy.sol\":14163:14199  IERC20(address(i_usdc)).safeTransfer */\n      0xffffffffffffffffffffffffffffffffffffffff\n      and\n      tag_203\n      swap1\n        /* \"03_kipu-bank-v2/contracts/errKipuBankV2 copy.sol\":14163:14220  IERC20(address(i_usdc)).safeTransfer(msg.sender, _amount) */\n      swap3\n      swap2\n      swap1\n      0xffffffff\n      and\n      jump\t// in\n    tag_244:\n        /* \"@openzeppelin/contracts/utils/ReentrancyGuard.sol\":2531:2532  _ */\n      pop\n        /* \"@openzeppelin/contracts/utils/ReentrancyGuard.sol\":2542:2562  _nonReentrantAfter() */\n      tag_245\n        /* \"@openzeppelin/contracts/utils/ReentrancyGuard.sol\":2542:2560  _nonReentrantAfter */\n      tag_161\n        /* \"@openzeppelin/contracts/utils/ReentrancyGuard.sol\":2542:2562  _nonReentrantAfter() */\n      jump\t// in\n    tag_245:\n        /* \"03_kipu-bank-v2/contracts/errKipuBankV2 copy.sol\":13144:14227  function retirarUSDC(uint256 _amount) ... */\n      pop\n      jump\t// out\n        /* \"03_kipu-bank-v2/contracts/errKipuBankV2 copy.sol\":10442:11554  function depositarToken(address _token, uint256 _amount) ... */\n    tag_94:\n        /* \"@openzeppelin/contracts/utils/ReentrancyGuard.sol\":2500:2521  _nonReentrantBefore() */\n      tag_247\n        /* \"@openzeppelin/contracts/utils/ReentrancyGuard.sol\":2500:2519  _nonReentrantBefore */\n      tag_144\n        /* \"@openzeppelin/contracts/utils/ReentrancyGuard.sol\":2500:2521  _nonReentrantBefore() */\n      jump\t// in\n    tag_247:\n        /* \"03_kipu-bank-v2/contracts/errKipuBankV2 copy.sol\":10563:10569  _token */\n      dup2\n        /* \"03_kipu-bank-v2/contracts/errKipuBankV2 copy.sol\":1612:1613  0 */\n      0x00\n        /* \"03_kipu-bank-v2/contracts/errKipuBankV2 copy.sol\":7477:7499  _token != NATIVE_TOKEN */\n      0xffffffffffffffffffffffffffffffffffffffff\n      and\n        /* \"03_kipu-bank-v2/contracts/errKipuBankV2 copy.sol\":7477:7483  _token */\n      dup2\n        /* \"03_kipu-bank-v2/contracts/errKipuBankV2 copy.sol\":7477:7499  _token != NATIVE_TOKEN */\n      0xffffffffffffffffffffffffffffffffffffffff\n      and\n      eq\n      iszero\n        /* \"03_kipu-bank-v2/contracts/errKipuBankV2 copy.sol\":7477:7528  _token != NATIVE_TOKEN && _token != address(i_usdc) */\n      dup1\n      iszero\n      tag_249\n      jumpi\n      pop\n        /* \"03_kipu-bank-v2/contracts/errKipuBankV2 copy.sol\":7521:7527  i_usdc */\n      immutable(\"0x6304e47846f882085b0f4b1a184252ae95ffe5e2a02daf39c014f492dcb1441c\")\n        /* \"03_kipu-bank-v2/contracts/errKipuBankV2 copy.sol\":7503:7528  _token != address(i_usdc) */\n      0xffffffffffffffffffffffffffffffffffffffff\n      and\n        /* \"03_kipu-bank-v2/contracts/errKipuBankV2 copy.sol\":7503:7509  _token */\n      dup2\n        /* \"03_kipu-bank-v2/contracts/errKipuBankV2 copy.sol\":7503:7528  _token != address(i_usdc) */\n      0xffffffffffffffffffffffffffffffffffffffff\n      and\n      eq\n      iszero\n        /* \"03_kipu-bank-v2/contracts/errKipuBankV2 copy.sol\":7477:7528  _token != NATIVE_TOKEN && _token != address(i_usdc) */\n    tag_249:\n        /* \"03_kipu-bank-v2/contracts/errKipuBankV2 copy.sol\":7473:7597  if (_token != NATIVE_TOKEN && _token != address(i_usdc)) {... */\n      iszero\n      tag_250\n      jumpi\n        /* \"03_kipu-bank-v2/contracts/errKipuBankV2 copy.sol\":7579:7585  _token */\n      dup1\n        /* \"03_kipu-bank-v2/contracts/errKipuBankV2 copy.sol\":7551:7586  KipuBankV2_TokenNoSoportado(_token) */\n      mload(0x40)\n      0x2d5c07b900000000000000000000000000000000000000000000000000000000\n      dup2\n      mstore\n      0x04\n      add\n      tag_251\n      swap2\n      swap1\n      tag_56\n      jump\t// in\n    tag_251:\n      mload(0x40)\n      dup1\n      swap2\n      sub\n      swap1\n      revert\n        /* \"03_kipu-bank-v2/contracts/errKipuBankV2 copy.sol\":7473:7597  if (_token != NATIVE_TOKEN && _token != address(i_usdc)) {... */\n    tag_250:\n        /* \"03_kipu-bank-v2/contracts/errKipuBankV2 copy.sol\":10596:10603  _amount */\n      dup2\n        /* \"03_kipu-bank-v2/contracts/errKipuBankV2 copy.sol\":7162:7163  0 */\n      0x00\n        /* \"03_kipu-bank-v2/contracts/errKipuBankV2 copy.sol\":7152:7158  _monto */\n      dup2\n        /* \"03_kipu-bank-v2/contracts/errKipuBankV2 copy.sol\":7152:7163  _monto == 0 */\n      sub\n        /* \"03_kipu-bank-v2/contracts/errKipuBankV2 copy.sol\":7148:7207  if (_monto == 0) revert KipuBankV2_MontoDebeSerMayorACero() */\n      tag_253\n      jumpi\n        /* \"03_kipu-bank-v2/contracts/errKipuBankV2 copy.sol\":7172:7207  KipuBankV2_MontoDebeSerMayorACero() */\n      mload(0x40)\n      0xe729dc6400000000000000000000000000000000000000000000000000000000\n      dup2\n      mstore\n      0x04\n      add\n      mload(0x40)\n      dup1\n      swap2\n      sub\n      swap1\n      revert\n        /* \"03_kipu-bank-v2/contracts/errKipuBankV2 copy.sol\":7148:7207  if (_monto == 0) revert KipuBankV2_MontoDebeSerMayorACero() */\n    tag_253:\n        /* \"03_kipu-bank-v2/contracts/errKipuBankV2 copy.sol\":10692:10708  uint256 valorUSD */\n      0x00\n        /* \"03_kipu-bank-v2/contracts/errKipuBankV2 copy.sol\":10711:10748  _normalizarDecimales(_token, _amount) */\n      tag_255\n        /* \"03_kipu-bank-v2/contracts/errKipuBankV2 copy.sol\":10732:10738  _token */\n      dup6\n        /* \"03_kipu-bank-v2/contracts/errKipuBankV2 copy.sol\":10740:10747  _amount */\n      dup6\n        /* \"03_kipu-bank-v2/contracts/errKipuBankV2 copy.sol\":10711:10731  _normalizarDecimales */\n      tag_191\n        /* \"03_kipu-bank-v2/contracts/errKipuBankV2 copy.sol\":10711:10748  _normalizarDecimales(_token, _amount) */\n      jump\t// in\n    tag_255:\n        /* \"03_kipu-bank-v2/contracts/errKipuBankV2 copy.sol\":10692:10748  uint256 valorUSD = _normalizarDecimales(_token, _amount) */\n      swap1\n      pop\n        /* \"03_kipu-bank-v2/contracts/errKipuBankV2 copy.sol\":10839:10851  i_bankCapUSD */\n      immutable(\"0x6bcaf047ba4c8ac400fca43393035242dd1aabda2d6068a0c51242b97224de8d\")\n        /* \"03_kipu-bank-v2/contracts/errKipuBankV2 copy.sol\":10828:10836  valorUSD */\n      dup2\n        /* \"03_kipu-bank-v2/contracts/errKipuBankV2 copy.sol\":10805:10825  s_totalDepositadoUSD */\n      sload(0x05)\n        /* \"03_kipu-bank-v2/contracts/errKipuBankV2 copy.sol\":10805:10836  s_totalDepositadoUSD + valorUSD */\n      tag_256\n      swap2\n      swap1\n      tag_150\n      jump\t// in\n    tag_256:\n        /* \"03_kipu-bank-v2/contracts/errKipuBankV2 copy.sol\":10805:10851  s_totalDepositadoUSD + valorUSD > i_bankCapUSD */\n      gt\n        /* \"03_kipu-bank-v2/contracts/errKipuBankV2 copy.sol\":10801:11027  if (s_totalDepositadoUSD + valorUSD > i_bankCapUSD) {... */\n      iszero\n      tag_257\n      jumpi\n        /* \"03_kipu-bank-v2/contracts/errKipuBankV2 copy.sol\":10926:10946  s_totalDepositadoUSD */\n      sload(0x05)\n        /* \"03_kipu-bank-v2/contracts/errKipuBankV2 copy.sol\":10964:10972  valorUSD */\n      dup2\n        /* \"03_kipu-bank-v2/contracts/errKipuBankV2 copy.sol\":10990:11002  i_bankCapUSD */\n      immutable(\"0x6bcaf047ba4c8ac400fca43393035242dd1aabda2d6068a0c51242b97224de8d\")\n        /* \"03_kipu-bank-v2/contracts/errKipuBankV2 copy.sol\":10874:11016  KipuBankV2_LimiteGlobalExcedidoUSD(... */\n      mload(0x40)\n      0xc9fe79b800000000000000000000000000000000000000000000000000000000\n      dup2\n      mstore\n      0x04\n      add\n      tag_258\n      swap4\n      swap3\n      swap2\n      swap1\n      tag_153\n      jump\t// in\n    tag_258:\n      mload(0x40)\n      dup1\n      swap2\n      sub\n      swap1\n      revert\n        /* \"03_kipu-bank-v2/contracts/errKipuBankV2 copy.sol\":10801:11027  if (s_totalDepositadoUSD + valorUSD > i_bankCapUSD) {... */\n    tag_257:\n        /* \"03_kipu-bank-v2/contracts/errKipuBankV2 copy.sol\":11117:11125  valorUSD */\n      dup1\n        /* \"03_kipu-bank-v2/contracts/errKipuBankV2 copy.sol\":11083:11093  s_balances */\n      0x03\n        /* \"03_kipu-bank-v2/contracts/errKipuBankV2 copy.sol\":11083:11105  s_balances[msg.sender] */\n      0x00\n        /* \"03_kipu-bank-v2/contracts/errKipuBankV2 copy.sol\":11094:11104  msg.sender */\n      caller\n        /* \"03_kipu-bank-v2/contracts/errKipuBankV2 copy.sol\":11083:11105  s_balances[msg.sender] */\n      0xffffffffffffffffffffffffffffffffffffffff\n      and\n      0xffffffffffffffffffffffffffffffffffffffff\n      and\n      dup2\n      mstore\n      0x20\n      add\n      swap1\n      dup2\n      mstore\n      0x20\n      add\n      0x00\n      keccak256\n        /* \"03_kipu-bank-v2/contracts/errKipuBankV2 copy.sol\":11083:11113  s_balances[msg.sender][_token] */\n      0x00\n        /* \"03_kipu-bank-v2/contracts/errKipuBankV2 copy.sol\":11106:11112  _token */\n      dup8\n        /* \"03_kipu-bank-v2/contracts/errKipuBankV2 copy.sol\":11083:11113  s_balances[msg.sender][_token] */\n      0xffffffffffffffffffffffffffffffffffffffff\n      and\n      0xffffffffffffffffffffffffffffffffffffffff\n      and\n      dup2\n      mstore\n      0x20\n      add\n      swap1\n      dup2\n      mstore\n      0x20\n      add\n      0x00\n      keccak256\n      0x00\n        /* \"03_kipu-bank-v2/contracts/errKipuBankV2 copy.sol\":11083:11125  s_balances[msg.sender][_token] += valorUSD */\n      dup3\n      dup3\n      sload\n      tag_259\n      swap2\n      swap1\n      tag_150\n      jump\t// in\n    tag_259:\n      swap3\n      pop\n      pop\n      dup2\n      swap1\n      sstore\n      pop\n        /* \"03_kipu-bank-v2/contracts/errKipuBankV2 copy.sol\":11172:11180  valorUSD */\n      dup1\n        /* \"03_kipu-bank-v2/contracts/errKipuBankV2 copy.sol\":11135:11160  s_totalDepositadoPorToken */\n      0x04\n        /* \"03_kipu-bank-v2/contracts/errKipuBankV2 copy.sol\":11135:11168  s_totalDepositadoPorToken[_token] */\n      0x00\n        /* \"03_kipu-bank-v2/contracts/errKipuBankV2 copy.sol\":11161:11167  _token */\n      dup8\n        /* \"03_kipu-bank-v2/contracts/errKipuBankV2 copy.sol\":11135:11168  s_totalDepositadoPorToken[_token] */\n      0xffffffffffffffffffffffffffffffffffffffff\n      and\n      0xffffffffffffffffffffffffffffffffffffffff\n      and\n      dup2\n      mstore\n      0x20\n      add\n      swap1\n      dup2\n      mstore\n      0x20\n      add\n      0x00\n      keccak256\n      0x00\n        /* \"03_kipu-bank-v2/contracts/errKipuBankV2 copy.sol\":11135:11180  s_totalDepositadoPorToken[_token] += valorUSD */\n      dup3\n      dup3\n      sload\n      tag_260\n      swap2\n      swap1\n      tag_150\n      jump\t// in\n    tag_260:\n      swap3\n      pop\n      pop\n      dup2\n      swap1\n      sstore\n      pop\n        /* \"03_kipu-bank-v2/contracts/errKipuBankV2 copy.sol\":11214:11222  valorUSD */\n      dup1\n        /* \"03_kipu-bank-v2/contracts/errKipuBankV2 copy.sol\":11190:11210  s_totalDepositadoUSD */\n      0x05\n      0x00\n        /* \"03_kipu-bank-v2/contracts/errKipuBankV2 copy.sol\":11190:11222  s_totalDepositadoUSD += valorUSD */\n      dup3\n      dup3\n      sload\n      tag_261\n      swap2\n      swap1\n      tag_150\n      jump\t// in\n    tag_261:\n      swap3\n      pop\n      pop\n      dup2\n      swap1\n      sstore\n      pop\n        /* \"03_kipu-bank-v2/contracts/errKipuBankV2 copy.sol\":11232:11251  s_contadorDepositos */\n      0x06\n      0x00\n        /* \"03_kipu-bank-v2/contracts/errKipuBankV2 copy.sol\":11232:11253  s_contadorDepositos++ */\n      dup2\n      sload\n      dup1\n      swap3\n      swap2\n      swap1\n      tag_262\n      swap1\n      tag_158\n      jump\t// in\n    tag_262:\n      swap2\n      swap1\n      pop\n      sstore\n      pop\n        /* \"03_kipu-bank-v2/contracts/errKipuBankV2 copy.sol\":11402:11408  _token */\n      dup5\n        /* \"03_kipu-bank-v2/contracts/errKipuBankV2 copy.sol\":11336:11461  KipuBankV2_DepositoRealizado(... */\n      0xffffffffffffffffffffffffffffffffffffffff\n      and\n        /* \"03_kipu-bank-v2/contracts/errKipuBankV2 copy.sol\":11378:11388  msg.sender */\n      caller\n        /* \"03_kipu-bank-v2/contracts/errKipuBankV2 copy.sol\":11336:11461  KipuBankV2_DepositoRealizado(... */\n      0xffffffffffffffffffffffffffffffffffffffff\n      and\n      0x751f8b54c0e32ef5b9fafdbdac0c93c1994cc8848fa17ed7798bd90aae8bfe9b\n        /* \"03_kipu-bank-v2/contracts/errKipuBankV2 copy.sol\":11422:11429  _amount */\n      dup7\n        /* \"03_kipu-bank-v2/contracts/errKipuBankV2 copy.sol\":11443:11451  valorUSD */\n      dup5\n        /* \"03_kipu-bank-v2/contracts/errKipuBankV2 copy.sol\":11336:11461  KipuBankV2_DepositoRealizado(... */\n      mload(0x40)\n      tag_263\n      swap3\n      swap2\n      swap1\n      tag_119\n      jump\t// in\n    tag_263:\n      mload(0x40)\n      dup1\n      swap2\n      sub\n      swap1\n      log3\n        /* \"03_kipu-bank-v2/contracts/errKipuBankV2 copy.sol\":11480:11547  IERC20(_token).safeTransferFrom(msg.sender, address(this), _amount) */\n      tag_264\n        /* \"03_kipu-bank-v2/contracts/errKipuBankV2 copy.sol\":11512:11522  msg.sender */\n      caller\n        /* \"03_kipu-bank-v2/contracts/errKipuBankV2 copy.sol\":11532:11536  this */\n      address\n        /* \"03_kipu-bank-v2/contracts/errKipuBankV2 copy.sol\":11539:11546  _amount */\n      dup7\n        /* \"03_kipu-bank-v2/contracts/errKipuBankV2 copy.sol\":11487:11493  _token */\n      dup9\n        /* \"03_kipu-bank-v2/contracts/errKipuBankV2 copy.sol\":11480:11511  IERC20(_token).safeTransferFrom */\n      0xffffffffffffffffffffffffffffffffffffffff\n      and\n      tag_179\n      swap1\n        /* \"03_kipu-bank-v2/contracts/errKipuBankV2 copy.sol\":11480:11547  IERC20(_token).safeTransferFrom(msg.sender, address(this), _amount) */\n      swap4\n      swap3\n      swap2\n      swap1\n      0xffffffff\n      and\n      jump\t// in\n    tag_264:\n        /* \"03_kipu-bank-v2/contracts/errKipuBankV2 copy.sol\":10610:11554  {... */\n      pop\n        /* \"03_kipu-bank-v2/contracts/errKipuBankV2 copy.sol\":7606:7607  _ */\n      pop\n        /* \"@openzeppelin/contracts/utils/ReentrancyGuard.sol\":2531:2532  _ */\n      pop\n        /* \"@openzeppelin/contracts/utils/ReentrancyGuard.sol\":2542:2562  _nonReentrantAfter() */\n      tag_265\n        /* \"@openzeppelin/contracts/utils/ReentrancyGuard.sol\":2542:2560  _nonReentrantAfter */\n      tag_161\n        /* \"@openzeppelin/contracts/utils/ReentrancyGuard.sol\":2542:2562  _nonReentrantAfter() */\n      jump\t// in\n    tag_265:\n        /* \"03_kipu-bank-v2/contracts/errKipuBankV2 copy.sol\":10442:11554  function depositarToken(address _token, uint256 _amount) ... */\n      pop\n      pop\n      jump\t// out\n        /* \"03_kipu-bank-v2/contracts/errKipuBankV2 copy.sol\":20959:21672  function consultarEstadoBanco() ... */\n    tag_97:\n        /* \"03_kipu-bank-v2/contracts/errKipuBankV2 copy.sol\":21054:21081  uint256 totalDepositadoUSD_ */\n      0x00\n        /* \"03_kipu-bank-v2/contracts/errKipuBankV2 copy.sol\":21095:21112  uint256 totalETH_ */\n      dup1\n        /* \"03_kipu-bank-v2/contracts/errKipuBankV2 copy.sol\":21126:21144  uint256 totalUSDC_ */\n      0x00\n        /* \"03_kipu-bank-v2/contracts/errKipuBankV2 copy.sol\":21158:21184  uint256 contadorDepositos_ */\n      dup1\n        /* \"03_kipu-bank-v2/contracts/errKipuBankV2 copy.sol\":21198:21222  uint256 contadorRetiros_ */\n      0x00\n        /* \"03_kipu-bank-v2/contracts/errKipuBankV2 copy.sol\":21236:21255  uint256 bankCapUSD_ */\n      dup1\n        /* \"03_kipu-bank-v2/contracts/errKipuBankV2 copy.sol\":21269:21293  uint256 umbralRetiroUSD_ */\n      0x00\n        /* \"03_kipu-bank-v2/contracts/errKipuBankV2 copy.sol\":21341:21361  s_totalDepositadoUSD */\n      sload(0x05)\n        /* \"03_kipu-bank-v2/contracts/errKipuBankV2 copy.sol\":21319:21361  totalDepositadoUSD_ = s_totalDepositadoUSD */\n      swap7\n      pop\n        /* \"03_kipu-bank-v2/contracts/errKipuBankV2 copy.sol\":21383:21408  s_totalDepositadoPorToken */\n      0x04\n        /* \"03_kipu-bank-v2/contracts/errKipuBankV2 copy.sol\":21383:21422  s_totalDepositadoPorToken[NATIVE_TOKEN] */\n      0x00\n        /* \"03_kipu-bank-v2/contracts/errKipuBankV2 copy.sol\":1612:1613  0 */\n      dup1\n        /* \"03_kipu-bank-v2/contracts/errKipuBankV2 copy.sol\":21383:21422  s_totalDepositadoPorToken[NATIVE_TOKEN] */\n      0xffffffffffffffffffffffffffffffffffffffff\n      and\n      0xffffffffffffffffffffffffffffffffffffffff\n      and\n      dup2\n      mstore\n      0x20\n      add\n      swap1\n      dup2\n      mstore\n      0x20\n      add\n      0x00\n      keccak256\n      sload\n        /* \"03_kipu-bank-v2/contracts/errKipuBankV2 copy.sol\":21371:21422  totalETH_ = s_totalDepositadoPorToken[NATIVE_TOKEN] */\n      swap6\n      pop\n        /* \"03_kipu-bank-v2/contracts/errKipuBankV2 copy.sol\":21445:21470  s_totalDepositadoPorToken */\n      0x04\n        /* \"03_kipu-bank-v2/contracts/errKipuBankV2 copy.sol\":21445:21487  s_totalDepositadoPorToken[address(i_usdc)] */\n      0x00\n        /* \"03_kipu-bank-v2/contracts/errKipuBankV2 copy.sol\":21479:21485  i_usdc */\n      immutable(\"0x6304e47846f882085b0f4b1a184252ae95ffe5e2a02daf39c014f492dcb1441c\")\n        /* \"03_kipu-bank-v2/contracts/errKipuBankV2 copy.sol\":21445:21487  s_totalDepositadoPorToken[address(i_usdc)] */\n      0xffffffffffffffffffffffffffffffffffffffff\n      and\n      0xffffffffffffffffffffffffffffffffffffffff\n      and\n      dup2\n      mstore\n      0x20\n      add\n      swap1\n      dup2\n      mstore\n      0x20\n      add\n      0x00\n      keccak256\n      sload\n        /* \"03_kipu-bank-v2/contracts/errKipuBankV2 copy.sol\":21432:21487  totalUSDC_ = s_totalDepositadoPorToken[address(i_usdc)] */\n      swap5\n      pop\n        /* \"03_kipu-bank-v2/contracts/errKipuBankV2 copy.sol\":21518:21537  s_contadorDepositos */\n      sload(0x06)\n        /* \"03_kipu-bank-v2/contracts/errKipuBankV2 copy.sol\":21497:21537  contadorDepositos_ = s_contadorDepositos */\n      swap4\n      pop\n        /* \"03_kipu-bank-v2/contracts/errKipuBankV2 copy.sol\":21566:21583  s_contadorRetiros */\n      sload(0x07)\n        /* \"03_kipu-bank-v2/contracts/errKipuBankV2 copy.sol\":21547:21583  contadorRetiros_ = s_contadorRetiros */\n      swap3\n      pop\n        /* \"03_kipu-bank-v2/contracts/errKipuBankV2 copy.sol\":21607:21619  i_bankCapUSD */\n      immutable(\"0x6bcaf047ba4c8ac400fca43393035242dd1aabda2d6068a0c51242b97224de8d\")\n        /* \"03_kipu-bank-v2/contracts/errKipuBankV2 copy.sol\":21593:21619  bankCapUSD_ = i_bankCapUSD */\n      swap2\n      pop\n        /* \"03_kipu-bank-v2/contracts/errKipuBankV2 copy.sol\":21648:21665  i_umbralRetiroUSD */\n      immutable(\"0x2e9b7c94e032d8b3b8b30bd825717a5ac74958b53e7c37a892a4fd7dc56e4975\")\n        /* \"03_kipu-bank-v2/contracts/errKipuBankV2 copy.sol\":21629:21665  umbralRetiroUSD_ = i_umbralRetiroUSD */\n      swap1\n      pop\n        /* \"03_kipu-bank-v2/contracts/errKipuBankV2 copy.sol\":20959:21672  function consultarEstadoBanco() ... */\n      swap1\n      swap2\n      swap3\n      swap4\n      swap5\n      swap6\n      swap7\n      jump\t// out\n        /* \"03_kipu-bank-v2/contracts/errKipuBankV2 copy.sol\":2433:2474  AggregatorV3Interface public s_ethUsdFeed */\n    tag_102:\n      0x02\n      0x00\n      swap1\n      sload\n      swap1\n      0x0100\n      exp\n      swap1\n      div\n      0xffffffffffffffffffffffffffffffffffffffff\n      and\n      dup2\n      jump\t// out\n        /* \"03_kipu-bank-v2/contracts/errKipuBankV2 copy.sol\":19719:19908  function consultarBalance(address _usuario, address _token) ... */\n    tag_109:\n        /* \"03_kipu-bank-v2/contracts/errKipuBankV2 copy.sol\":19829:19845  uint256 balance_ */\n      0x00\n        /* \"03_kipu-bank-v2/contracts/errKipuBankV2 copy.sol\":19873:19883  s_balances */\n      0x03\n        /* \"03_kipu-bank-v2/contracts/errKipuBankV2 copy.sol\":19873:19893  s_balances[_usuario] */\n      0x00\n        /* \"03_kipu-bank-v2/contracts/errKipuBankV2 copy.sol\":19884:19892  _usuario */\n      dup5\n        /* \"03_kipu-bank-v2/contracts/errKipuBankV2 copy.sol\":19873:19893  s_balances[_usuario] */\n      0xffffffffffffffffffffffffffffffffffffffff\n      and\n      0xffffffffffffffffffffffffffffffffffffffff\n      and\n      dup2\n      mstore\n      0x20\n      add\n      swap1\n      dup2\n      mstore\n      0x20\n      add\n      0x00\n      keccak256\n        /* \"03_kipu-bank-v2/contracts/errKipuBankV2 copy.sol\":19873:19901  s_balances[_usuario][_token] */\n      0x00\n        /* \"03_kipu-bank-v2/contracts/errKipuBankV2 copy.sol\":19894:19900  _token */\n      dup4\n        /* \"03_kipu-bank-v2/contracts/errKipuBankV2 copy.sol\":19873:19901  s_balances[_usuario][_token] */\n      0xffffffffffffffffffffffffffffffffffffffff\n      and\n      0xffffffffffffffffffffffffffffffffffffffff\n      and\n      dup2\n      mstore\n      0x20\n      add\n      swap1\n      dup2\n      mstore\n      0x20\n      add\n      0x00\n      keccak256\n      sload\n        /* \"03_kipu-bank-v2/contracts/errKipuBankV2 copy.sol\":19862:19901  balance_ = s_balances[_usuario][_token] */\n      swap1\n      pop\n        /* \"03_kipu-bank-v2/contracts/errKipuBankV2 copy.sol\":19719:19908  function consultarBalance(address _usuario, address _token) ... */\n      swap3\n      swap2\n      pop\n      pop\n      jump\t// out\n        /* \"03_kipu-bank-v2/contracts/errKipuBankV2 copy.sol\":16077:16252  function actualizarFeed(address _newFeed) external onlyOwner {... */\n    tag_114:\n        /* \"@openzeppelin/contracts/access/Ownable.sol\":1531:1544  _checkOwner() */\n      tag_269\n        /* \"@openzeppelin/contracts/access/Ownable.sol\":1531:1542  _checkOwner */\n      tag_207\n        /* \"@openzeppelin/contracts/access/Ownable.sol\":1531:1544  _checkOwner() */\n      jump\t// in\n    tag_269:\n        /* \"03_kipu-bank-v2/contracts/errKipuBankV2 copy.sol\":16185:16193  _newFeed */\n      dup1\n        /* \"03_kipu-bank-v2/contracts/errKipuBankV2 copy.sol\":16148:16160  s_ethUsdFeed */\n      0x02\n      0x00\n        /* \"03_kipu-bank-v2/contracts/errKipuBankV2 copy.sol\":16148:16194  s_ethUsdFeed = AggregatorV3Interface(_newFeed) */\n      0x0100\n      exp\n      dup2\n      sload\n      dup2\n      0xffffffffffffffffffffffffffffffffffffffff\n      mul\n      not\n      and\n      swap1\n      dup4\n      0xffffffffffffffffffffffffffffffffffffffff\n      and\n      mul\n      or\n      swap1\n      sstore\n      pop\n        /* \"03_kipu-bank-v2/contracts/errKipuBankV2 copy.sol\":16236:16244  _newFeed */\n      dup1\n        /* \"03_kipu-bank-v2/contracts/errKipuBankV2 copy.sol\":16209:16245  KipuBankV2_FeedActualizado(_newFeed) */\n      0xffffffffffffffffffffffffffffffffffffffff\n      and\n      0x2b87a7a05493a7865dadc5afbb6cedfda3c32f20196d8f45314afa7b32b94012\n      mload(0x40)\n      mload(0x40)\n      dup1\n      swap2\n      sub\n      swap1\n      log2\n        /* \"03_kipu-bank-v2/contracts/errKipuBankV2 copy.sol\":16077:16252  function actualizarFeed(address _newFeed) external onlyOwner {... */\n      pop\n      jump\t// out\n        /* \"03_kipu-bank-v2/contracts/errKipuBankV2 copy.sol\":22059:22514  function consultarPrecioETH() ... */\n    tag_117:\n        /* \"03_kipu-bank-v2/contracts/errKipuBankV2 copy.sol\":22139:22157  uint256 precioETH_ */\n      0x00\n        /* \"03_kipu-bank-v2/contracts/errKipuBankV2 copy.sol\":22159:22187  uint256 ultimaActualizacion_ */\n      dup1\n        /* \"03_kipu-bank-v2/contracts/errKipuBankV2 copy.sol\":22252:22265  int256 answer */\n      0x00\n        /* \"03_kipu-bank-v2/contracts/errKipuBankV2 copy.sol\":22316:22333  uint256 updatedAt */\n      dup1\n        /* \"03_kipu-bank-v2/contracts/errKipuBankV2 copy.sol\":22388:22400  s_ethUsdFeed */\n      0x02\n      0x00\n      swap1\n      sload\n      swap1\n      0x0100\n      exp\n      swap1\n      div\n      0xffffffffffffffffffffffffffffffffffffffff\n      and\n        /* \"03_kipu-bank-v2/contracts/errKipuBankV2 copy.sol\":22388:22416  s_ethUsdFeed.latestRoundData */\n      0xffffffffffffffffffffffffffffffffffffffff\n      and\n      0xfeaf968c\n        /* \"03_kipu-bank-v2/contracts/errKipuBankV2 copy.sol\":22388:22418  s_ethUsdFeed.latestRoundData() */\n      mload(0x40)\n      dup2\n      0xffffffff\n      and\n      0xe0\n      shl\n      dup2\n      mstore\n      0x04\n      add\n      0xa0\n      mload(0x40)\n      dup1\n      dup4\n      sub\n      dup2\n      dup7\n      gas\n      staticcall\n      iszero\n      dup1\n      iszero\n      tag_273\n      jumpi\n      returndatasize\n      0x00\n      dup1\n      returndatacopy\n      revert(0x00, returndatasize)\n    tag_273:\n      pop\n      pop\n      pop\n      pop\n      mload(0x40)\n      returndatasize\n      not(0x1f)\n      0x1f\n      dup3\n      add\n      and\n      dup3\n      add\n      dup1\n      0x40\n      mstore\n      pop\n      dup2\n      add\n      swap1\n      tag_274\n      swap2\n      swap1\n      tag_275\n      jump\t// in\n    tag_274:\n        /* \"03_kipu-bank-v2/contracts/errKipuBankV2 copy.sol\":22204:22418  (... */\n      pop\n      swap4\n      pop\n      pop\n      swap3\n      pop\n      pop\n        /* \"03_kipu-bank-v2/contracts/errKipuBankV2 copy.sol\":22458:22464  answer */\n      dup2\n        /* \"03_kipu-bank-v2/contracts/errKipuBankV2 copy.sol\":22437:22465  precioETH_ = uint256(answer) */\n      swap4\n      pop\n        /* \"03_kipu-bank-v2/contracts/errKipuBankV2 copy.sol\":22498:22507  updatedAt */\n      dup1\n        /* \"03_kipu-bank-v2/contracts/errKipuBankV2 copy.sol\":22475:22507  ultimaActualizacion_ = updatedAt */\n      swap3\n      pop\n        /* \"03_kipu-bank-v2/contracts/errKipuBankV2 copy.sol\":22194:22514  {... */\n      pop\n      pop\n        /* \"03_kipu-bank-v2/contracts/errKipuBankV2 copy.sol\":22059:22514  function consultarPrecioETH() ... */\n      swap1\n      swap2\n      jump\t// out\n        /* \"03_kipu-bank-v2/contracts/errKipuBankV2 copy.sol\":3063:3095  uint256 public s_contadorRetiros */\n    tag_122:\n      sload(0x07)\n      dup2\n      jump\t// out\n        /* \"03_kipu-bank-v2/contracts/errKipuBankV2 copy.sol\":2553:2640  mapping(address user => mapping(address token => uint256 balanceUSD)) public s_balances */\n    tag_127:\n      mstore(0x20, 0x03)\n      dup2\n      0x00\n      mstore\n      mstore(0x20, keccak256(0x00, 0x40))\n      dup1\n      0x00\n      mstore\n      keccak256(0x00, 0x40)\n      0x00\n      swap2\n      pop\n      swap2\n      pop\n      pop\n      sload\n      dup2\n      jump\t// out\n        /* \"03_kipu-bank-v2/contracts/errKipuBankV2 copy.sol\":2861:2896  uint256 public s_totalDepositadoUSD */\n    tag_131:\n      sload(0x05)\n      dup2\n      jump\t// out\n        /* \"@openzeppelin/contracts/access/Ownable.sol\":2543:2758  function transferOwnership(address newOwner) public virtual onlyOwner {... */\n    tag_136:\n        /* \"@openzeppelin/contracts/access/Ownable.sol\":1531:1544  _checkOwner() */\n      tag_277\n        /* \"@openzeppelin/contracts/access/Ownable.sol\":1531:1542  _checkOwner */\n      tag_207\n        /* \"@openzeppelin/contracts/access/Ownable.sol\":1531:1544  _checkOwner() */\n      jump\t// in\n    tag_277:\n        /* \"@openzeppelin/contracts/access/Ownable.sol\":2647:2648  0 */\n      0x00\n        /* \"@openzeppelin/contracts/access/Ownable.sol\":2627:2649  newOwner == address(0) */\n      0xffffffffffffffffffffffffffffffffffffffff\n      and\n        /* \"@openzeppelin/contracts/access/Ownable.sol\":2627:2635  newOwner */\n      dup2\n        /* \"@openzeppelin/contracts/access/Ownable.sol\":2627:2649  newOwner == address(0) */\n      0xffffffffffffffffffffffffffffffffffffffff\n      and\n      sub\n        /* \"@openzeppelin/contracts/access/Ownable.sol\":2623:2714  if (newOwner == address(0)) {... */\n      tag_279\n      jumpi\n        /* \"@openzeppelin/contracts/access/Ownable.sol\":2700:2701  0 */\n      0x00\n        /* \"@openzeppelin/contracts/access/Ownable.sol\":2672:2703  OwnableInvalidOwner(address(0)) */\n      mload(0x40)\n      0x1e4fbdf700000000000000000000000000000000000000000000000000000000\n      dup2\n      mstore\n      0x04\n      add\n      tag_280\n      swap2\n      swap1\n      tag_56\n      jump\t// in\n    tag_280:\n      mload(0x40)\n      dup1\n      swap2\n      sub\n      swap1\n      revert\n        /* \"@openzeppelin/contracts/access/Ownable.sol\":2623:2714  if (newOwner == address(0)) {... */\n    tag_279:\n        /* \"@openzeppelin/contracts/access/Ownable.sol\":2723:2751  _transferOwnership(newOwner) */\n      tag_281\n        /* \"@openzeppelin/contracts/access/Ownable.sol\":2742:2750  newOwner */\n      dup2\n        /* \"@openzeppelin/contracts/access/Ownable.sol\":2723:2741  _transferOwnership */\n      tag_210\n        /* \"@openzeppelin/contracts/access/Ownable.sol\":2723:2751  _transferOwnership(newOwner) */\n      jump\t// in\n    tag_281:\n        /* \"@openzeppelin/contracts/access/Ownable.sol\":2543:2758  function transferOwnership(address newOwner) public virtual onlyOwner {... */\n      pop\n      jump\t// out\n        /* \"03_kipu-bank-v2/contracts/errKipuBankV2 copy.sol\":2233:2263  IERC20 public immutable i_usdc */\n    tag_139:\n      immutable(\"0x6304e47846f882085b0f4b1a184252ae95ffe5e2a02daf39c014f492dcb1441c\")\n      dup2\n      jump\t// out\n        /* \"@openzeppelin/contracts/utils/ReentrancyGuard.sol\":2575:2882  function _nonReentrantBefore() private {... */\n    tag_144:\n        /* \"@openzeppelin/contracts/utils/ReentrancyGuard.sol\":1899:1900  2 */\n      0x02\n        /* \"@openzeppelin/contracts/utils/ReentrancyGuard.sol\":2702:2709  _status */\n      sload(0x01)\n        /* \"@openzeppelin/contracts/utils/ReentrancyGuard.sol\":2702:2720  _status == ENTERED */\n      sub\n        /* \"@openzeppelin/contracts/utils/ReentrancyGuard.sol\":2698:2784  if (_status == ENTERED) {... */\n      tag_283\n      jumpi\n        /* \"@openzeppelin/contracts/utils/ReentrancyGuard.sol\":2743:2773  ReentrancyGuardReentrantCall() */\n      mload(0x40)\n      0x3ee5aeb500000000000000000000000000000000000000000000000000000000\n      dup2\n      mstore\n      0x04\n      add\n      mload(0x40)\n      dup1\n      swap2\n      sub\n      swap1\n      revert\n        /* \"@openzeppelin/contracts/utils/ReentrancyGuard.sol\":2698:2784  if (_status == ENTERED) {... */\n    tag_283:\n        /* \"@openzeppelin/contracts/utils/ReentrancyGuard.sol\":1899:1900  2 */\n      0x02\n        /* \"@openzeppelin/contracts/utils/ReentrancyGuard.sol\":2858:2865  _status */\n      0x01\n        /* \"@openzeppelin/contracts/utils/ReentrancyGuard.sol\":2858:2875  _status = ENTERED */\n      dup2\n      swap1\n      sstore\n      pop\n        /* \"@openzeppelin/contracts/utils/ReentrancyGuard.sol\":2575:2882  function _nonReentrantBefore() private {... */\n      jump\t// out\n        /* \"03_kipu-bank-v2/contracts/errKipuBankV2 copy.sol\":16599:16842  function _convertirEthAUsd(uint256 _ethAmount) internal view returns (uint256 valorUSD_) {... */\n    tag_148:\n        /* \"03_kipu-bank-v2/contracts/errKipuBankV2 copy.sol\":16669:16686  uint256 valorUSD_ */\n      0x00\n        /* \"03_kipu-bank-v2/contracts/errKipuBankV2 copy.sol\":16698:16715  uint256 precioEth */\n      dup1\n        /* \"03_kipu-bank-v2/contracts/errKipuBankV2 copy.sol\":16718:16737  _obtenerPrecioEth() */\n      tag_285\n        /* \"03_kipu-bank-v2/contracts/errKipuBankV2 copy.sol\":16718:16735  _obtenerPrecioEth */\n      tag_286\n        /* \"03_kipu-bank-v2/contracts/errKipuBankV2 copy.sol\":16718:16737  _obtenerPrecioEth() */\n      jump\t// in\n    tag_285:\n        /* \"03_kipu-bank-v2/contracts/errKipuBankV2 copy.sol\":16698:16737  uint256 precioEth = _obtenerPrecioEth() */\n      swap1\n      pop\n        /* \"03_kipu-bank-v2/contracts/errKipuBankV2 copy.sol\":16831:16835  1e20 */\n      0x056bc75e2d63100000\n        /* \"03_kipu-bank-v2/contracts/errKipuBankV2 copy.sol\":16818:16827  precioEth */\n      dup2\n        /* \"03_kipu-bank-v2/contracts/errKipuBankV2 copy.sol\":16805:16815  _ethAmount */\n      dup5\n        /* \"03_kipu-bank-v2/contracts/errKipuBankV2 copy.sol\":16805:16827  _ethAmount * precioEth */\n      tag_287\n      swap2\n      swap1\n      tag_288\n      jump\t// in\n    tag_287:\n        /* \"03_kipu-bank-v2/contracts/errKipuBankV2 copy.sol\":16804:16835  (_ethAmount * precioEth) / 1e20 */\n      tag_289\n      swap2\n      swap1\n      tag_290\n      jump\t// in\n    tag_289:\n        /* \"03_kipu-bank-v2/contracts/errKipuBankV2 copy.sol\":16792:16835  valorUSD_ = (_ethAmount * precioEth) / 1e20 */\n      swap2\n      pop\n        /* \"03_kipu-bank-v2/contracts/errKipuBankV2 copy.sol\":16688:16842  {... */\n      pop\n        /* \"03_kipu-bank-v2/contracts/errKipuBankV2 copy.sol\":16599:16842  function _convertirEthAUsd(uint256 _ethAmount) internal view returns (uint256 valorUSD_) {... */\n      swap2\n      swap1\n      pop\n      jump\t// out\n        /* \"@openzeppelin/contracts/utils/ReentrancyGuard.sol\":2888:3096  function _nonReentrantAfter() private {... */\n    tag_161:\n        /* \"@openzeppelin/contracts/utils/ReentrancyGuard.sol\":1857:1858  1 */\n      0x01\n        /* \"@openzeppelin/contracts/utils/ReentrancyGuard.sol\":3068:3075  _status */\n      dup1\n        /* \"@openzeppelin/contracts/utils/ReentrancyGuard.sol\":3068:3089  _status = NOT_ENTERED */\n      dup2\n      swap1\n      sstore\n      pop\n        /* \"@openzeppelin/contracts/utils/ReentrancyGuard.sol\":2888:3096  function _nonReentrantAfter() private {... */\n      jump\t// out\n        /* \"@openzeppelin/contracts/token/ERC20/utils/SafeERC20.sol\":1618:1806  function safeTransferFrom(IERC20 token, address from, address to, uint256 value) internal {... */\n    tag_179:\n        /* \"@openzeppelin/contracts/token/ERC20/utils/SafeERC20.sol\":1718:1799  _callOptionalReturn(token, abi.encodeCall(token.transferFrom, (from, to, value))) */\n      tag_293\n        /* \"@openzeppelin/contracts/token/ERC20/utils/SafeERC20.sol\":1738:1743  token */\n      dup5\n        /* \"@openzeppelin/contracts/token/ERC20/utils/SafeERC20.sol\":1760:1765  token */\n      dup6\n        /* \"@openzeppelin/contracts/token/ERC20/utils/SafeERC20.sol\":1760:1778  token.transferFrom */\n      0xffffffffffffffffffffffffffffffffffffffff\n      and\n      0x23b872dd\n        /* \"@openzeppelin/contracts/token/ERC20/utils/SafeERC20.sol\":1781:1785  from */\n      dup7\n        /* \"@openzeppelin/contracts/token/ERC20/utils/SafeERC20.sol\":1787:1789  to */\n      dup7\n        /* \"@openzeppelin/contracts/token/ERC20/utils/SafeERC20.sol\":1791:1796  value */\n      dup7\n        /* \"@openzeppelin/contracts/token/ERC20/utils/SafeERC20.sol\":1745:1798  abi.encodeCall(token.transferFrom, (from, to, value)) */\n      add(0x24, mload(0x40))\n      tag_294\n      swap4\n      swap3\n      swap2\n      swap1\n      tag_295\n      jump\t// in\n    tag_294:\n      mload(0x40)\n      0x20\n      dup2\n      dup4\n      sub\n      sub\n      dup2\n      mstore\n      swap1\n      0x40\n      mstore\n      swap2\n      pop\n      0xe0\n      shl\n      0x20\n      dup3\n      add\n      dup1\n      mload\n      0xffffffffffffffffffffffffffffffffffffffffffffffffffffffff\n      dup4\n      dup2\n      dup4\n      and\n      or\n      dup4\n      mstore\n      pop\n      pop\n      pop\n      pop\n        /* \"@openzeppelin/contracts/token/ERC20/utils/SafeERC20.sol\":1718:1737  _callOptionalReturn */\n      tag_296\n        /* \"@openzeppelin/contracts/token/ERC20/utils/SafeERC20.sol\":1718:1799  _callOptionalReturn(token, abi.encodeCall(token.transferFrom, (from, to, value))) */\n      jump\t// in\n    tag_293:\n        /* \"@openzeppelin/contracts/token/ERC20/utils/SafeERC20.sol\":1618:1806  function safeTransferFrom(IERC20 token, address from, address to, uint256 value) internal {... */\n      pop\n      pop\n      pop\n      pop\n      jump\t// out\n        /* \"03_kipu-bank-v2/contracts/errKipuBankV2 copy.sol\":17146:17671  function _normalizarDecimales(address _token, uint256 _amount) ... */\n    tag_191:\n        /* \"03_kipu-bank-v2/contracts/errKipuBankV2 copy.sol\":17259:17284  uint256 valorNormalizado_ */\n      0x00\n        /* \"03_kipu-bank-v2/contracts/errKipuBankV2 copy.sol\":17366:17372  i_usdc */\n      immutable(\"0x6304e47846f882085b0f4b1a184252ae95ffe5e2a02daf39c014f492dcb1441c\")\n        /* \"03_kipu-bank-v2/contracts/errKipuBankV2 copy.sol\":17348:17373  _token == address(i_usdc) */\n      0xffffffffffffffffffffffffffffffffffffffff\n      and\n        /* \"03_kipu-bank-v2/contracts/errKipuBankV2 copy.sol\":17348:17354  _token */\n      dup4\n        /* \"03_kipu-bank-v2/contracts/errKipuBankV2 copy.sol\":17348:17373  _token == address(i_usdc) */\n      0xffffffffffffffffffffffffffffffffffffffff\n      and\n      sub\n        /* \"03_kipu-bank-v2/contracts/errKipuBankV2 copy.sol\":17344:17665  if (_token == address(i_usdc)) {... */\n      tag_298\n      jumpi\n        /* \"03_kipu-bank-v2/contracts/errKipuBankV2 copy.sol\":17409:17416  _amount */\n      dup2\n        /* \"03_kipu-bank-v2/contracts/errKipuBankV2 copy.sol\":17389:17416  valorNormalizado_ = _amount */\n      swap1\n      pop\n        /* \"03_kipu-bank-v2/contracts/errKipuBankV2 copy.sol\":17344:17665  if (_token == address(i_usdc)) {... */\n      jump(tag_299)\n    tag_298:\n        /* \"03_kipu-bank-v2/contracts/errKipuBankV2 copy.sol\":17647:17653  _token */\n      dup3\n        /* \"03_kipu-bank-v2/contracts/errKipuBankV2 copy.sol\":17619:17654  KipuBankV2_TokenNoSoportado(_token) */\n      mload(0x40)\n      0x2d5c07b900000000000000000000000000000000000000000000000000000000\n      dup2\n      mstore\n      0x04\n      add\n      tag_300\n      swap2\n      swap1\n      tag_56\n      jump\t// in\n    tag_300:\n      mload(0x40)\n      dup1\n      swap2\n      sub\n      swap1\n      revert\n        /* \"03_kipu-bank-v2/contracts/errKipuBankV2 copy.sol\":17344:17665  if (_token == address(i_usdc)) {... */\n    tag_299:\n        /* \"03_kipu-bank-v2/contracts/errKipuBankV2 copy.sol\":17146:17671  function _normalizarDecimales(address _token, uint256 _amount) ... */\n      swap3\n      swap2\n      pop\n      pop\n      jump\t// out\n        /* \"@openzeppelin/contracts/token/ERC20/utils/SafeERC20.sol\":1219:1379  function safeTransfer(IERC20 token, address to, uint256 value) internal {... */\n    tag_203:\n        /* \"@openzeppelin/contracts/token/ERC20/utils/SafeERC20.sol\":1301:1372  _callOptionalReturn(token, abi.encodeCall(token.transfer, (to, value))) */\n      tag_302\n        /* \"@openzeppelin/contracts/token/ERC20/utils/SafeERC20.sol\":1321:1326  token */\n      dup4\n        /* \"@openzeppelin/contracts/token/ERC20/utils/SafeERC20.sol\":1343:1348  token */\n      dup5\n        /* \"@openzeppelin/contracts/token/ERC20/utils/SafeERC20.sol\":1343:1357  token.transfer */\n      0xffffffffffffffffffffffffffffffffffffffff\n      and\n      0xa9059cbb\n        /* \"@openzeppelin/contracts/token/ERC20/utils/SafeERC20.sol\":1360:1362  to */\n      dup6\n        /* \"@openzeppelin/contracts/token/ERC20/utils/SafeERC20.sol\":1364:1369  value */\n      dup6\n        /* \"@openzeppelin/contracts/token/ERC20/utils/SafeERC20.sol\":1328:1371  abi.encodeCall(token.transfer, (to, value)) */\n      add(0x24, mload(0x40))\n      tag_303\n      swap3\n      swap2\n      swap1\n      tag_304\n      jump\t// in\n    tag_303:\n      mload(0x40)\n      0x20\n      dup2\n      dup4\n      sub\n      sub\n      dup2\n      mstore\n      swap1\n      0x40\n      mstore\n      swap2\n      pop\n      0xe0\n      shl\n      0x20\n      dup3\n      add\n      dup1\n      mload\n      0xffffffffffffffffffffffffffffffffffffffffffffffffffffffff\n      dup4\n      dup2\n      dup4\n      and\n      or\n      dup4\n      mstore\n      pop\n      pop\n      pop\n      pop\n        /* \"@openzeppelin/contracts/token/ERC20/utils/SafeERC20.sol\":1301:1320  _callOptionalReturn */\n      tag_296\n        /* \"@openzeppelin/contracts/token/ERC20/utils/SafeERC20.sol\":1301:1372  _callOptionalReturn(token, abi.encodeCall(token.transfer, (to, value))) */\n      jump\t// in\n    tag_302:\n        /* \"@openzeppelin/contracts/token/ERC20/utils/SafeERC20.sol\":1219:1379  function safeTransfer(IERC20 token, address to, uint256 value) internal {... */\n      pop\n      pop\n      pop\n      jump\t// out\n        /* \"@openzeppelin/contracts/access/Ownable.sol\":1796:1958  function _checkOwner() internal view virtual {... */\n    tag_207:\n        /* \"@openzeppelin/contracts/access/Ownable.sol\":1866:1878  _msgSender() */\n      tag_306\n        /* \"@openzeppelin/contracts/access/Ownable.sol\":1866:1876  _msgSender */\n      tag_307\n        /* \"@openzeppelin/contracts/access/Ownable.sol\":1866:1878  _msgSender() */\n      jump\t// in\n    tag_306:\n        /* \"@openzeppelin/contracts/access/Ownable.sol\":1855:1878  owner() != _msgSender() */\n      0xffffffffffffffffffffffffffffffffffffffff\n      and\n        /* \"@openzeppelin/contracts/access/Ownable.sol\":1855:1862  owner() */\n      tag_308\n        /* \"@openzeppelin/contracts/access/Ownable.sol\":1855:1860  owner */\n      tag_85\n        /* \"@openzeppelin/contracts/access/Ownable.sol\":1855:1862  owner() */\n      jump\t// in\n    tag_308:\n        /* \"@openzeppelin/contracts/access/Ownable.sol\":1855:1878  owner() != _msgSender() */\n      0xffffffffffffffffffffffffffffffffffffffff\n      and\n      eq\n        /* \"@openzeppelin/contracts/access/Ownable.sol\":1851:1952  if (owner() != _msgSender()) {... */\n      tag_309\n      jumpi\n        /* \"@openzeppelin/contracts/access/Ownable.sol\":1928:1940  _msgSender() */\n      tag_310\n        /* \"@openzeppelin/contracts/access/Ownable.sol\":1928:1938  _msgSender */\n      tag_307\n        /* \"@openzeppelin/contracts/access/Ownable.sol\":1928:1940  _msgSender() */\n      jump\t// in\n    tag_310:\n        /* \"@openzeppelin/contracts/access/Ownable.sol\":1901:1941  OwnableUnauthorizedAccount(_msgSender()) */\n      mload(0x40)\n      0x118cdaa700000000000000000000000000000000000000000000000000000000\n      dup2\n      mstore\n      0x04\n      add\n      tag_311\n      swap2\n      swap1\n      tag_56\n      jump\t// in\n    tag_311:\n      mload(0x40)\n      dup1\n      swap2\n      sub\n      swap1\n      revert\n        /* \"@openzeppelin/contracts/access/Ownable.sol\":1851:1952  if (owner() != _msgSender()) {... */\n    tag_309:\n        /* \"@openzeppelin/contracts/access/Ownable.sol\":1796:1958  function _checkOwner() internal view virtual {... */\n      jump\t// out\n        /* \"@openzeppelin/contracts/access/Ownable.sol\":2912:3099  function _transferOwnership(address newOwner) internal virtual {... */\n    tag_210:\n        /* \"@openzeppelin/contracts/access/Ownable.sol\":2985:3001  address oldOwner */\n      0x00\n        /* \"@openzeppelin/contracts/access/Ownable.sol\":3004:3010  _owner */\n      dup1\n      0x00\n      swap1\n      sload\n      swap1\n      0x0100\n      exp\n      swap1\n      div\n      0xffffffffffffffffffffffffffffffffffffffff\n      and\n        /* \"@openzeppelin/contracts/access/Ownable.sol\":2985:3010  address oldOwner = _owner */\n      swap1\n      pop\n        /* \"@openzeppelin/contracts/access/Ownable.sol\":3029:3037  newOwner */\n      dup2\n        /* \"@openzeppelin/contracts/access/Ownable.sol\":3020:3026  _owner */\n      0x00\n      dup1\n        /* \"@openzeppelin/contracts/access/Ownable.sol\":3020:3037  _owner = newOwner */\n      0x0100\n      exp\n      dup2\n      sload\n      dup2\n      0xffffffffffffffffffffffffffffffffffffffff\n      mul\n      not\n      and\n      swap1\n      dup4\n      0xffffffffffffffffffffffffffffffffffffffff\n      and\n      mul\n      or\n      swap1\n      sstore\n      pop\n        /* \"@openzeppelin/contracts/access/Ownable.sol\":3083:3091  newOwner */\n      dup2\n        /* \"@openzeppelin/contracts/access/Ownable.sol\":3052:3092  OwnershipTransferred(oldOwner, newOwner) */\n      0xffffffffffffffffffffffffffffffffffffffff\n      and\n        /* \"@openzeppelin/contracts/access/Ownable.sol\":3073:3081  oldOwner */\n      dup2\n        /* \"@openzeppelin/contracts/access/Ownable.sol\":3052:3092  OwnershipTransferred(oldOwner, newOwner) */\n      0xffffffffffffffffffffffffffffffffffffffff\n      and\n      0x8be0079c531659141344cd1fd0a4f28419497f9722a3daafe3b4186f6b6457e0\n      mload(0x40)\n      mload(0x40)\n      dup1\n      swap2\n      sub\n      swap1\n      log3\n        /* \"@openzeppelin/contracts/access/Ownable.sol\":2975:3099  {... */\n      pop\n        /* \"@openzeppelin/contracts/access/Ownable.sol\":2912:3099  function _transferOwnership(address newOwner) internal virtual {... */\n      pop\n      jump\t// out\n        /* \"03_kipu-bank-v2/contracts/errKipuBankV2 copy.sol\":19126:19347  function _transferirEth(address _destinatario, uint256 _monto) private {... */\n    tag_227:\n        /* \"03_kipu-bank-v2/contracts/errKipuBankV2 copy.sol\":19208:19220  bool success */\n      0x00\n        /* \"03_kipu-bank-v2/contracts/errKipuBankV2 copy.sol\":19226:19239  _destinatario */\n      dup3\n        /* \"03_kipu-bank-v2/contracts/errKipuBankV2 copy.sol\":19226:19244  _destinatario.call */\n      0xffffffffffffffffffffffffffffffffffffffff\n      and\n        /* \"03_kipu-bank-v2/contracts/errKipuBankV2 copy.sol\":19252:19258  _monto */\n      dup3\n        /* \"03_kipu-bank-v2/contracts/errKipuBankV2 copy.sol\":19226:19263  _destinatario.call{value: _monto}(\"\") */\n      mload(0x40)\n      tag_314\n      swap1\n      tag_315\n      jump\t// in\n    tag_314:\n      0x00\n      mload(0x40)\n      dup1\n      dup4\n      sub\n      dup2\n      dup6\n      dup8\n      gas\n      call\n      swap3\n      pop\n      pop\n      pop\n      returndatasize\n      dup1\n      0x00\n      dup2\n      eq\n      tag_318\n      jumpi\n      mload(0x40)\n      swap2\n      pop\n      and(add(returndatasize, 0x3f), not(0x1f))\n      dup3\n      add\n      0x40\n      mstore\n      returndatasize\n      dup3\n      mstore\n      returndatasize\n      0x00\n      0x20\n      dup5\n      add\n      returndatacopy\n      jump(tag_317)\n    tag_318:\n      0x60\n      swap2\n      pop\n    tag_317:\n      pop\n        /* \"03_kipu-bank-v2/contracts/errKipuBankV2 copy.sol\":19207:19263  (bool success, ) = _destinatario.call{value: _monto}(\"\") */\n      pop\n      swap1\n      pop\n        /* \"03_kipu-bank-v2/contracts/errKipuBankV2 copy.sol\":19278:19285  success */\n      dup1\n        /* \"03_kipu-bank-v2/contracts/errKipuBankV2 copy.sol\":19273:19340  if (!success) revert KipuBankV2_TransferenciaFallida(_destinatario) */\n      tag_319\n      jumpi\n        /* \"03_kipu-bank-v2/contracts/errKipuBankV2 copy.sol\":19326:19339  _destinatario */\n      dup3\n        /* \"03_kipu-bank-v2/contracts/errKipuBankV2 copy.sol\":19294:19340  KipuBankV2_TransferenciaFallida(_destinatario) */\n      mload(0x40)\n      0x71404a4200000000000000000000000000000000000000000000000000000000\n      dup2\n      mstore\n      0x04\n      add\n      tag_320\n      swap2\n      swap1\n      tag_56\n      jump\t// in\n    tag_320:\n      mload(0x40)\n      dup1\n      swap2\n      sub\n      swap1\n      revert\n        /* \"03_kipu-bank-v2/contracts/errKipuBankV2 copy.sol\":19273:19340  if (!success) revert KipuBankV2_TransferenciaFallida(_destinatario) */\n    tag_319:\n        /* \"03_kipu-bank-v2/contracts/errKipuBankV2 copy.sol\":19197:19347  {... */\n      pop\n        /* \"03_kipu-bank-v2/contracts/errKipuBankV2 copy.sol\":19126:19347  function _transferirEth(address _destinatario, uint256 _monto) private {... */\n      pop\n      pop\n      jump\t// out\n        /* \"03_kipu-bank-v2/contracts/errKipuBankV2 copy.sol\":17877:18676  function _obtenerPrecioEth() internal view returns (uint256 precioEth_) {... */\n    tag_286:\n        /* \"03_kipu-bank-v2/contracts/errKipuBankV2 copy.sol\":17929:17947  uint256 precioEth_ */\n      0x00\n        /* \"03_kipu-bank-v2/contracts/errKipuBankV2 copy.sol\":18007:18020  int256 answer */\n      dup1\n        /* \"03_kipu-bank-v2/contracts/errKipuBankV2 copy.sol\":18071:18088  uint256 updatedAt */\n      0x00\n        /* \"03_kipu-bank-v2/contracts/errKipuBankV2 copy.sol\":18143:18155  s_ethUsdFeed */\n      0x02\n      0x00\n      swap1\n      sload\n      swap1\n      0x0100\n      exp\n      swap1\n      div\n      0xffffffffffffffffffffffffffffffffffffffff\n      and\n        /* \"03_kipu-bank-v2/contracts/errKipuBankV2 copy.sol\":18143:18171  s_ethUsdFeed.latestRoundData */\n      0xffffffffffffffffffffffffffffffffffffffff\n      and\n      0xfeaf968c\n        /* \"03_kipu-bank-v2/contracts/errKipuBankV2 copy.sol\":18143:18173  s_ethUsdFeed.latestRoundData() */\n      mload(0x40)\n      dup2\n      0xffffffff\n      and\n      0xe0\n      shl\n      dup2\n      mstore\n      0x04\n      add\n      0xa0\n      mload(0x40)\n      dup1\n      dup4\n      sub\n      dup2\n      dup7\n      gas\n      staticcall\n      iszero\n      dup1\n      iszero\n      tag_323\n      jumpi\n      returndatasize\n      0x00\n      dup1\n      returndatacopy\n      revert(0x00, returndatasize)\n    tag_323:\n      pop\n      pop\n      pop\n      pop\n      mload(0x40)\n      returndatasize\n      not(0x1f)\n      0x1f\n      dup3\n      add\n      and\n      dup3\n      add\n      dup1\n      0x40\n      mstore\n      pop\n      dup2\n      add\n      swap1\n      tag_324\n      swap2\n      swap1\n      tag_275\n      jump\t// in\n    tag_324:\n        /* \"03_kipu-bank-v2/contracts/errKipuBankV2 copy.sol\":17959:18173  (... */\n      pop\n      swap4\n      pop\n      pop\n      swap3\n      pop\n      pop\n        /* \"03_kipu-bank-v2/contracts/errKipuBankV2 copy.sol\":18261:18262  0 */\n      0x00\n        /* \"03_kipu-bank-v2/contracts/errKipuBankV2 copy.sol\":18251:18257  answer */\n      dup3\n        /* \"03_kipu-bank-v2/contracts/errKipuBankV2 copy.sol\":18251:18262  answer <= 0 */\n      sgt\n        /* \"03_kipu-bank-v2/contracts/errKipuBankV2 copy.sol\":18247:18301  if (answer <= 0) revert KipuBankV2_OracleCompromised() */\n      tag_325\n      jumpi\n        /* \"03_kipu-bank-v2/contracts/errKipuBankV2 copy.sol\":18271:18301  KipuBankV2_OracleCompromised() */\n      mload(0x40)\n      0x63f585c200000000000000000000000000000000000000000000000000000000\n      dup2\n      mstore\n      0x04\n      add\n      mload(0x40)\n      dup1\n      swap2\n      sub\n      swap1\n      revert\n        /* \"03_kipu-bank-v2/contracts/errKipuBankV2 copy.sol\":18247:18301  if (answer <= 0) revert KipuBankV2_OracleCompromised() */\n    tag_325:\n        /* \"03_kipu-bank-v2/contracts/errKipuBankV2 copy.sol\":18385:18411  uint256 tiempoTranscurrido */\n      0x00\n        /* \"03_kipu-bank-v2/contracts/errKipuBankV2 copy.sol\":18432:18441  updatedAt */\n      dup2\n        /* \"03_kipu-bank-v2/contracts/errKipuBankV2 copy.sol\":18414:18429  block.timestamp */\n      timestamp\n        /* \"03_kipu-bank-v2/contracts/errKipuBankV2 copy.sol\":18414:18441  block.timestamp - updatedAt */\n      tag_326\n      swap2\n      swap1\n      tag_197\n      jump\t// in\n    tag_326:\n        /* \"03_kipu-bank-v2/contracts/errKipuBankV2 copy.sol\":18385:18441  uint256 tiempoTranscurrido = block.timestamp - updatedAt */\n      swap1\n      pop\n        /* \"03_kipu-bank-v2/contracts/errKipuBankV2 copy.sol\":1869:1873  3600 */\n      0x0e10\n        /* \"03_kipu-bank-v2/contracts/errKipuBankV2 copy.sol\":18455:18473  tiempoTranscurrido */\n      dup2\n        /* \"03_kipu-bank-v2/contracts/errKipuBankV2 copy.sol\":18455:18492  tiempoTranscurrido > ORACLE_HEARTBEAT */\n      gt\n        /* \"03_kipu-bank-v2/contracts/errKipuBankV2 copy.sol\":18451:18585  if (tiempoTranscurrido > ORACLE_HEARTBEAT) {... */\n      iszero\n      tag_327\n      jumpi\n        /* \"03_kipu-bank-v2/contracts/errKipuBankV2 copy.sol\":18537:18555  tiempoTranscurrido */\n      dup1\n        /* \"03_kipu-bank-v2/contracts/errKipuBankV2 copy.sol\":1869:1873  3600 */\n      0x0e10\n        /* \"03_kipu-bank-v2/contracts/errKipuBankV2 copy.sol\":18515:18574  KipuBankV2_StalePrice(tiempoTranscurrido, ORACLE_HEARTBEAT) */\n      mload(0x40)\n      0x74937df300000000000000000000000000000000000000000000000000000000\n      dup2\n      mstore\n      0x04\n      add\n      tag_328\n      swap3\n      swap2\n      swap1\n      tag_119\n      jump\t// in\n    tag_328:\n      mload(0x40)\n      dup1\n      swap2\n      sub\n      swap1\n      revert\n        /* \"03_kipu-bank-v2/contracts/errKipuBankV2 copy.sol\":18451:18585  if (tiempoTranscurrido > ORACLE_HEARTBEAT) {... */\n    tag_327:\n        /* \"03_kipu-bank-v2/contracts/errKipuBankV2 copy.sol\":18662:18668  answer */\n      dup3\n        /* \"03_kipu-bank-v2/contracts/errKipuBankV2 copy.sol\":18641:18669  precioEth_ = uint256(answer) */\n      swap4\n      pop\n        /* \"03_kipu-bank-v2/contracts/errKipuBankV2 copy.sol\":17949:18676  {... */\n      pop\n      pop\n      pop\n        /* \"03_kipu-bank-v2/contracts/errKipuBankV2 copy.sol\":17877:18676  function _obtenerPrecioEth() internal view returns (uint256 precioEth_) {... */\n      swap1\n      jump\t// out\n        /* \"@openzeppelin/contracts/token/ERC20/utils/SafeERC20.sol\":8370:9090  function _callOptionalReturn(IERC20 token, bytes memory data) private {... */\n    tag_296:\n        /* \"@openzeppelin/contracts/token/ERC20/utils/SafeERC20.sol\":8450:8468  uint256 returnSize */\n      0x00\n        /* \"@openzeppelin/contracts/token/ERC20/utils/SafeERC20.sol\":8478:8497  uint256 returnValue */\n      dup1\n        /* \"@openzeppelin/contracts/token/ERC20/utils/SafeERC20.sol\":8616:8620  0x20 */\n      0x20\n        /* \"@openzeppelin/contracts/token/ERC20/utils/SafeERC20.sol\":8613:8614  0 */\n      0x00\n        /* \"@openzeppelin/contracts/token/ERC20/utils/SafeERC20.sol\":8606:8610  data */\n      dup5\n        /* \"@openzeppelin/contracts/token/ERC20/utils/SafeERC20.sol\":8600:8611  mload(data) */\n      mload\n        /* \"@openzeppelin/contracts/token/ERC20/utils/SafeERC20.sol\":8593:8597  0x20 */\n      0x20\n        /* \"@openzeppelin/contracts/token/ERC20/utils/SafeERC20.sol\":8587:8591  data */\n      dup7\n        /* \"@openzeppelin/contracts/token/ERC20/utils/SafeERC20.sol\":8583:8598  add(data, 0x20) */\n      add\n        /* \"@openzeppelin/contracts/token/ERC20/utils/SafeERC20.sol\":8580:8581  0 */\n      0x00\n        /* \"@openzeppelin/contracts/token/ERC20/utils/SafeERC20.sol\":8573:8578  token */\n      dup9\n        /* \"@openzeppelin/contracts/token/ERC20/utils/SafeERC20.sol\":8566:8571  gas() */\n      gas\n        /* \"@openzeppelin/contracts/token/ERC20/utils/SafeERC20.sol\":8561:8621  call(gas(), token, 0, add(data, 0x20), mload(data), 0, 0x20) */\n      call\n        /* \"@openzeppelin/contracts/token/ERC20/utils/SafeERC20.sol\":8673:8680  success */\n      dup1\n        /* \"@openzeppelin/contracts/token/ERC20/utils/SafeERC20.sol\":8663:8839  if iszero(success) {... */\n      tag_330\n      jumpi\n        /* \"@openzeppelin/contracts/token/ERC20/utils/SafeERC20.sol\":8717:8721  0x40 */\n      0x40\n        /* \"@openzeppelin/contracts/token/ERC20/utils/SafeERC20.sol\":8711:8722  mload(0x40) */\n      mload\n        /* \"@openzeppelin/contracts/token/ERC20/utils/SafeERC20.sol\":8762:8778  returndatasize() */\n      returndatasize\n        /* \"@openzeppelin/contracts/token/ERC20/utils/SafeERC20.sol\":8759:8760  0 */\n      0x00\n        /* \"@openzeppelin/contracts/token/ERC20/utils/SafeERC20.sol\":8754:8757  ptr */\n      dup3\n        /* \"@openzeppelin/contracts/token/ERC20/utils/SafeERC20.sol\":8739:8779  returndatacopy(ptr, 0, returndatasize()) */\n      returndatacopy\n        /* \"@openzeppelin/contracts/token/ERC20/utils/SafeERC20.sol\":8808:8824  returndatasize() */\n      returndatasize\n        /* \"@openzeppelin/contracts/token/ERC20/utils/SafeERC20.sol\":8803:8806  ptr */\n      dup2\n        /* \"@openzeppelin/contracts/token/ERC20/utils/SafeERC20.sol\":8796:8825  revert(ptr, returndatasize()) */\n      revert\n        /* \"@openzeppelin/contracts/token/ERC20/utils/SafeERC20.sol\":8663:8839  if iszero(success) {... */\n    tag_330:\n        /* \"@openzeppelin/contracts/token/ERC20/utils/SafeERC20.sol\":8866:8882  returndatasize() */\n      returndatasize\n        /* \"@openzeppelin/contracts/token/ERC20/utils/SafeERC20.sol\":8852:8882  returnSize := returndatasize() */\n      swap3\n      pop\n        /* \"@openzeppelin/contracts/token/ERC20/utils/SafeERC20.sol\":8916:8917  0 */\n      0x00\n        /* \"@openzeppelin/contracts/token/ERC20/utils/SafeERC20.sol\":8910:8918  mload(0) */\n      mload\n        /* \"@openzeppelin/contracts/token/ERC20/utils/SafeERC20.sol\":8895:8918  returnValue := mload(0) */\n      swap2\n      pop\n        /* \"@openzeppelin/contracts/token/ERC20/utils/SafeERC20.sol\":8532:8928  {... */\n      pop\n        /* \"@openzeppelin/contracts/token/ERC20/utils/SafeERC20.sol\":8956:8957  0 */\n      0x00\n        /* \"@openzeppelin/contracts/token/ERC20/utils/SafeERC20.sol\":8942:8952  returnSize */\n      dup3\n        /* \"@openzeppelin/contracts/token/ERC20/utils/SafeERC20.sol\":8942:8957  returnSize == 0 */\n      eq\n        /* \"@openzeppelin/contracts/token/ERC20/utils/SafeERC20.sol\":8942:9010  returnSize == 0 ? address(token).code.length == 0 : returnValue != 1 */\n      tag_331\n      jumpi\n        /* \"@openzeppelin/contracts/token/ERC20/utils/SafeERC20.sol\":9009:9010  1 */\n      0x01\n        /* \"@openzeppelin/contracts/token/ERC20/utils/SafeERC20.sol\":8994:9005  returnValue */\n      dup2\n        /* \"@openzeppelin/contracts/token/ERC20/utils/SafeERC20.sol\":8994:9010  returnValue != 1 */\n      eq\n      iszero\n        /* \"@openzeppelin/contracts/token/ERC20/utils/SafeERC20.sol\":8942:9010  returnSize == 0 ? address(token).code.length == 0 : returnValue != 1 */\n      jump(tag_332)\n    tag_331:\n        /* \"@openzeppelin/contracts/token/ERC20/utils/SafeERC20.sol\":8990:8991  0 */\n      0x00\n        /* \"@openzeppelin/contracts/token/ERC20/utils/SafeERC20.sol\":8968:8973  token */\n      dup5\n        /* \"@openzeppelin/contracts/token/ERC20/utils/SafeERC20.sol\":8960:8986  address(token).code.length */\n      0xffffffffffffffffffffffffffffffffffffffff\n      and\n      extcodesize\n        /* \"@openzeppelin/contracts/token/ERC20/utils/SafeERC20.sol\":8960:8991  address(token).code.length == 0 */\n      eq\n        /* \"@openzeppelin/contracts/token/ERC20/utils/SafeERC20.sol\":8942:9010  returnSize == 0 ? address(token).code.length == 0 : returnValue != 1 */\n    tag_332:\n        /* \"@openzeppelin/contracts/token/ERC20/utils/SafeERC20.sol\":8938:9084  if (returnSize == 0 ? address(token).code.length == 0 : returnValue != 1) {... */\n      iszero\n      tag_333\n      jumpi\n        /* \"@openzeppelin/contracts/token/ERC20/utils/SafeERC20.sol\":9066:9071  token */\n      dup4\n        /* \"@openzeppelin/contracts/token/ERC20/utils/SafeERC20.sol\":9033:9073  SafeERC20FailedOperation(address(token)) */\n      mload(0x40)\n      0x5274afe700000000000000000000000000000000000000000000000000000000\n      dup2\n      mstore\n      0x04\n      add\n      tag_334\n      swap2\n      swap1\n      tag_56\n      jump\t// in\n    tag_334:\n      mload(0x40)\n      dup1\n      swap2\n      sub\n      swap1\n      revert\n        /* \"@openzeppelin/contracts/token/ERC20/utils/SafeERC20.sol\":8938:9084  if (returnSize == 0 ? address(token).code.length == 0 : returnValue != 1) {... */\n    tag_333:\n        /* \"@openzeppelin/contracts/token/ERC20/utils/SafeERC20.sol\":8440:9090  {... */\n      pop\n      pop\n        /* \"@openzeppelin/contracts/token/ERC20/utils/SafeERC20.sol\":8370:9090  function _callOptionalReturn(IERC20 token, bytes memory data) private {... */\n      pop\n      pop\n      jump\t// out\n        /* \"@openzeppelin/contracts/utils/Context.sol\":656:752  function _msgSender() internal view virtual returns (address) {... */\n    tag_307:\n        /* \"@openzeppelin/contracts/utils/Context.sol\":709:716  address */\n      0x00\n        /* \"@openzeppelin/contracts/utils/Context.sol\":735:745  msg.sender */\n      caller\n        /* \"@openzeppelin/contracts/utils/Context.sol\":728:745  return msg.sender */\n      swap1\n      pop\n        /* \"@openzeppelin/contracts/utils/Context.sol\":656:752  function _msgSender() internal view virtual returns (address) {... */\n      swap1\n      jump\t// out\n        /* \"#utility.yul\":7:84   */\n    tag_336:\n        /* \"#utility.yul\":44:51   */\n      0x00\n        /* \"#utility.yul\":73:78   */\n      dup2\n        /* \"#utility.yul\":62:78   */\n      swap1\n      pop\n        /* \"#utility.yul\":7:84   */\n      swap2\n      swap1\n      pop\n      jump\t// out\n        /* \"#utility.yul\":90:208   */\n    tag_337:\n        /* \"#utility.yul\":177:201   */\n      tag_370\n        /* \"#utility.yul\":195:200   */\n      dup2\n        /* \"#utility.yul\":177:201   */\n      tag_336\n      jump\t// in\n    tag_370:\n        /* \"#utility.yul\":172:175   */\n      dup3\n        /* \"#utility.yul\":165:202   */\n      mstore\n        /* \"#utility.yul\":90:208   */\n      pop\n      pop\n      jump\t// out\n        /* \"#utility.yul\":214:436   */\n    tag_35:\n        /* \"#utility.yul\":307:311   */\n      0x00\n        /* \"#utility.yul\":345:347   */\n      0x20\n        /* \"#utility.yul\":334:343   */\n      dup3\n        /* \"#utility.yul\":330:348   */\n      add\n        /* \"#utility.yul\":322:348   */\n      swap1\n      pop\n        /* \"#utility.yul\":358:429   */\n      tag_372\n        /* \"#utility.yul\":426:427   */\n      0x00\n        /* \"#utility.yul\":415:424   */\n      dup4\n        /* \"#utility.yul\":411:428   */\n      add\n        /* \"#utility.yul\":402:408   */\n      dup5\n        /* \"#utility.yul\":358:429   */\n      tag_337\n      jump\t// in\n    tag_372:\n        /* \"#utility.yul\":214:436   */\n      swap3\n      swap2\n      pop\n      pop\n      jump\t// out\n        /* \"#utility.yul\":523:640   */\n    tag_339:\n        /* \"#utility.yul\":632:633   */\n      0x00\n        /* \"#utility.yul\":629:630   */\n      dup1\n        /* \"#utility.yul\":622:634   */\n      revert\n        /* \"#utility.yul\":769:895   */\n    tag_341:\n        /* \"#utility.yul\":806:813   */\n      0x00\n        /* \"#utility.yul\":846:888   */\n      0xffffffffffffffffffffffffffffffffffffffff\n        /* \"#utility.yul\":839:844   */\n      dup3\n        /* \"#utility.yul\":835:889   */\n      and\n        /* \"#utility.yul\":824:889   */\n      swap1\n      pop\n        /* \"#utility.yul\":769:895   */\n      swap2\n      swap1\n      pop\n      jump\t// out\n        /* \"#utility.yul\":901:997   */\n    tag_342:\n        /* \"#utility.yul\":938:945   */\n      0x00\n        /* \"#utility.yul\":967:991   */\n      tag_378\n        /* \"#utility.yul\":985:990   */\n      dup3\n        /* \"#utility.yul\":967:991   */\n      tag_341\n      jump\t// in\n    tag_378:\n        /* \"#utility.yul\":956:991   */\n      swap1\n      pop\n        /* \"#utility.yul\":901:997   */\n      swap2\n      swap1\n      pop\n      jump\t// out\n        /* \"#utility.yul\":1003:1125   */\n    tag_343:\n        /* \"#utility.yul\":1076:1100   */\n      tag_380\n        /* \"#utility.yul\":1094:1099   */\n      dup2\n        /* \"#utility.yul\":1076:1100   */\n      tag_342\n      jump\t// in\n    tag_380:\n        /* \"#utility.yul\":1069:1074   */\n      dup2\n        /* \"#utility.yul\":1066:1101   */\n      eq\n        /* \"#utility.yul\":1056:1119   */\n      tag_381\n      jumpi\n        /* \"#utility.yul\":1115:1116   */\n      0x00\n        /* \"#utility.yul\":1112:1113   */\n      dup1\n        /* \"#utility.yul\":1105:1117   */\n      revert\n        /* \"#utility.yul\":1056:1119   */\n    tag_381:\n        /* \"#utility.yul\":1003:1125   */\n      pop\n      jump\t// out\n        /* \"#utility.yul\":1131:1270   */\n    tag_344:\n        /* \"#utility.yul\":1177:1182   */\n      0x00\n        /* \"#utility.yul\":1215:1221   */\n      dup2\n        /* \"#utility.yul\":1202:1222   */\n      calldataload\n        /* \"#utility.yul\":1193:1222   */\n      swap1\n      pop\n        /* \"#utility.yul\":1231:1264   */\n      tag_383\n        /* \"#utility.yul\":1258:1263   */\n      dup2\n        /* \"#utility.yul\":1231:1264   */\n      tag_343\n      jump\t// in\n    tag_383:\n        /* \"#utility.yul\":1131:1270   */\n      swap3\n      swap2\n      pop\n      pop\n      jump\t// out\n        /* \"#utility.yul\":1276:1605   */\n    tag_49:\n        /* \"#utility.yul\":1335:1341   */\n      0x00\n        /* \"#utility.yul\":1384:1386   */\n      0x20\n        /* \"#utility.yul\":1372:1381   */\n      dup3\n        /* \"#utility.yul\":1363:1370   */\n      dup5\n        /* \"#utility.yul\":1359:1382   */\n      sub\n        /* \"#utility.yul\":1355:1387   */\n      slt\n        /* \"#utility.yul\":1352:1471   */\n      iszero\n      tag_385\n      jumpi\n        /* \"#utility.yul\":1390:1469   */\n      tag_386\n      tag_339\n      jump\t// in\n    tag_386:\n        /* \"#utility.yul\":1352:1471   */\n    tag_385:\n        /* \"#utility.yul\":1510:1511   */\n      0x00\n        /* \"#utility.yul\":1535:1588   */\n      tag_387\n        /* \"#utility.yul\":1580:1587   */\n      dup5\n        /* \"#utility.yul\":1571:1577   */\n      dup3\n        /* \"#utility.yul\":1560:1569   */\n      dup6\n        /* \"#utility.yul\":1556:1578   */\n      add\n        /* \"#utility.yul\":1535:1588   */\n      tag_344\n      jump\t// in\n    tag_387:\n        /* \"#utility.yul\":1525:1588   */\n      swap2\n      pop\n        /* \"#utility.yul\":1481:1598   */\n      pop\n        /* \"#utility.yul\":1276:1605   */\n      swap3\n      swap2\n      pop\n      pop\n      jump\t// out\n        /* \"#utility.yul\":1611:1729   */\n    tag_345:\n        /* \"#utility.yul\":1698:1722   */\n      tag_389\n        /* \"#utility.yul\":1716:1721   */\n      dup2\n        /* \"#utility.yul\":1698:1722   */\n      tag_342\n      jump\t// in\n    tag_389:\n        /* \"#utility.yul\":1693:1696   */\n      dup3\n        /* \"#utility.yul\":1686:1723   */\n      mstore\n        /* \"#utility.yul\":1611:1729   */\n      pop\n      pop\n      jump\t// out\n        /* \"#utility.yul\":1735:1957   */\n    tag_56:\n        /* \"#utility.yul\":1828:1832   */\n      0x00\n        /* \"#utility.yul\":1866:1868   */\n      0x20\n        /* \"#utility.yul\":1855:1864   */\n      dup3\n        /* \"#utility.yul\":1851:1869   */\n      add\n        /* \"#utility.yul\":1843:1869   */\n      swap1\n      pop\n        /* \"#utility.yul\":1879:1950   */\n      tag_391\n        /* \"#utility.yul\":1947:1948   */\n      0x00\n        /* \"#utility.yul\":1936:1945   */\n      dup4\n        /* \"#utility.yul\":1932:1949   */\n      add\n        /* \"#utility.yul\":1923:1929   */\n      dup5\n        /* \"#utility.yul\":1879:1950   */\n      tag_345\n      jump\t// in\n    tag_391:\n        /* \"#utility.yul\":1735:1957   */\n      swap3\n      swap2\n      pop\n      pop\n      jump\t// out\n        /* \"#utility.yul\":1963:2085   */\n    tag_346:\n        /* \"#utility.yul\":2036:2060   */\n      tag_393\n        /* \"#utility.yul\":2054:2059   */\n      dup2\n        /* \"#utility.yul\":2036:2060   */\n      tag_336\n      jump\t// in\n    tag_393:\n        /* \"#utility.yul\":2029:2034   */\n      dup2\n        /* \"#utility.yul\":2026:2061   */\n      eq\n        /* \"#utility.yul\":2016:2079   */\n      tag_394\n      jumpi\n        /* \"#utility.yul\":2075:2076   */\n      0x00\n        /* \"#utility.yul\":2072:2073   */\n      dup1\n        /* \"#utility.yul\":2065:2077   */\n      revert\n        /* \"#utility.yul\":2016:2079   */\n    tag_394:\n        /* \"#utility.yul\":1963:2085   */\n      pop\n      jump\t// out\n        /* \"#utility.yul\":2091:2230   */\n    tag_347:\n        /* \"#utility.yul\":2137:2142   */\n      0x00\n        /* \"#utility.yul\":2175:2181   */\n      dup2\n        /* \"#utility.yul\":2162:2182   */\n      calldataload\n        /* \"#utility.yul\":2153:2182   */\n      swap1\n      pop\n        /* \"#utility.yul\":2191:2224   */\n      tag_396\n        /* \"#utility.yul\":2218:2223   */\n      dup2\n        /* \"#utility.yul\":2191:2224   */\n      tag_346\n      jump\t// in\n    tag_396:\n        /* \"#utility.yul\":2091:2230   */\n      swap3\n      swap2\n      pop\n      pop\n      jump\t// out\n        /* \"#utility.yul\":2236:2565   */\n    tag_69:\n        /* \"#utility.yul\":2295:2301   */\n      0x00\n        /* \"#utility.yul\":2344:2346   */\n      0x20\n        /* \"#utility.yul\":2332:2341   */\n      dup3\n        /* \"#utility.yul\":2323:2330   */\n      dup5\n        /* \"#utility.yul\":2319:2342   */\n      sub\n        /* \"#utility.yul\":2315:2347   */\n      slt\n        /* \"#utility.yul\":2312:2431   */\n      iszero\n      tag_398\n      jumpi\n        /* \"#utility.yul\":2350:2429   */\n      tag_399\n      tag_339\n      jump\t// in\n    tag_399:\n        /* \"#utility.yul\":2312:2431   */\n    tag_398:\n        /* \"#utility.yul\":2470:2471   */\n      0x00\n        /* \"#utility.yul\":2495:2548   */\n      tag_400\n        /* \"#utility.yul\":2540:2547   */\n      dup5\n        /* \"#utility.yul\":2531:2537   */\n      dup3\n        /* \"#utility.yul\":2520:2529   */\n      dup6\n        /* \"#utility.yul\":2516:2538   */\n      add\n        /* \"#utility.yul\":2495:2548   */\n      tag_347\n      jump\t// in\n    tag_400:\n        /* \"#utility.yul\":2485:2548   */\n      swap2\n      pop\n        /* \"#utility.yul\":2441:2558   */\n      pop\n        /* \"#utility.yul\":2236:2565   */\n      swap3\n      swap2\n      pop\n      pop\n      jump\t// out\n        /* \"#utility.yul\":2571:3045   */\n    tag_74:\n        /* \"#utility.yul\":2639:2645   */\n      0x00\n        /* \"#utility.yul\":2647:2653   */\n      dup1\n        /* \"#utility.yul\":2696:2698   */\n      0x40\n        /* \"#utility.yul\":2684:2693   */\n      dup4\n        /* \"#utility.yul\":2675:2682   */\n      dup6\n        /* \"#utility.yul\":2671:2694   */\n      sub\n        /* \"#utility.yul\":2667:2699   */\n      slt\n        /* \"#utility.yul\":2664:2783   */\n      iszero\n      tag_402\n      jumpi\n        /* \"#utility.yul\":2702:2781   */\n      tag_403\n      tag_339\n      jump\t// in\n    tag_403:\n        /* \"#utility.yul\":2664:2783   */\n    tag_402:\n        /* \"#utility.yul\":2822:2823   */\n      0x00\n        /* \"#utility.yul\":2847:2900   */\n      tag_404\n        /* \"#utility.yul\":2892:2899   */\n      dup6\n        /* \"#utility.yul\":2883:2889   */\n      dup3\n        /* \"#utility.yul\":2872:2881   */\n      dup7\n        /* \"#utility.yul\":2868:2890   */\n      add\n        /* \"#utility.yul\":2847:2900   */\n      tag_344\n      jump\t// in\n    tag_404:\n        /* \"#utility.yul\":2837:2900   */\n      swap3\n      pop\n        /* \"#utility.yul\":2793:2910   */\n      pop\n        /* \"#utility.yul\":2949:2951   */\n      0x20\n        /* \"#utility.yul\":2975:3028   */\n      tag_405\n        /* \"#utility.yul\":3020:3027   */\n      dup6\n        /* \"#utility.yul\":3011:3017   */\n      dup3\n        /* \"#utility.yul\":3000:3009   */\n      dup7\n        /* \"#utility.yul\":2996:3018   */\n      add\n        /* \"#utility.yul\":2975:3028   */\n      tag_347\n      jump\t// in\n    tag_405:\n        /* \"#utility.yul\":2965:3028   */\n      swap2\n      pop\n        /* \"#utility.yul\":2920:3038   */\n      pop\n        /* \"#utility.yul\":2571:3045   */\n      swap3\n      pop\n      swap3\n      swap1\n      pop\n      jump\t// out\n        /* \"#utility.yul\":3051:3937   */\n    tag_99:\n        /* \"#utility.yul\":3312:3316   */\n      0x00\n        /* \"#utility.yul\":3350:3353   */\n      0xe0\n        /* \"#utility.yul\":3339:3348   */\n      dup3\n        /* \"#utility.yul\":3335:3354   */\n      add\n        /* \"#utility.yul\":3327:3354   */\n      swap1\n      pop\n        /* \"#utility.yul\":3364:3435   */\n      tag_407\n        /* \"#utility.yul\":3432:3433   */\n      0x00\n        /* \"#utility.yul\":3421:3430   */\n      dup4\n        /* \"#utility.yul\":3417:3434   */\n      add\n        /* \"#utility.yul\":3408:3414   */\n      dup11\n        /* \"#utility.yul\":3364:3435   */\n      tag_337\n      jump\t// in\n    tag_407:\n        /* \"#utility.yul\":3445:3517   */\n      tag_408\n        /* \"#utility.yul\":3513:3515   */\n      0x20\n        /* \"#utility.yul\":3502:3511   */\n      dup4\n        /* \"#utility.yul\":3498:3516   */\n      add\n        /* \"#utility.yul\":3489:3495   */\n      dup10\n        /* \"#utility.yul\":3445:3517   */\n      tag_337\n      jump\t// in\n    tag_408:\n        /* \"#utility.yul\":3527:3599   */\n      tag_409\n        /* \"#utility.yul\":3595:3597   */\n      0x40\n        /* \"#utility.yul\":3584:3593   */\n      dup4\n        /* \"#utility.yul\":3580:3598   */\n      add\n        /* \"#utility.yul\":3571:3577   */\n      dup9\n        /* \"#utility.yul\":3527:3599   */\n      tag_337\n      jump\t// in\n    tag_409:\n        /* \"#utility.yul\":3609:3681   */\n      tag_410\n        /* \"#utility.yul\":3677:3679   */\n      0x60\n        /* \"#utility.yul\":3666:3675   */\n      dup4\n        /* \"#utility.yul\":3662:3680   */\n      add\n        /* \"#utility.yul\":3653:3659   */\n      dup8\n        /* \"#utility.yul\":3609:3681   */\n      tag_337\n      jump\t// in\n    tag_410:\n        /* \"#utility.yul\":3691:3764   */\n      tag_411\n        /* \"#utility.yul\":3759:3762   */\n      0x80\n        /* \"#utility.yul\":3748:3757   */\n      dup4\n        /* \"#utility.yul\":3744:3763   */\n      add\n        /* \"#utility.yul\":3735:3741   */\n      dup7\n        /* \"#utility.yul\":3691:3764   */\n      tag_337\n      jump\t// in\n    tag_411:\n        /* \"#utility.yul\":3774:3847   */\n      tag_412\n        /* \"#utility.yul\":3842:3845   */\n      0xa0\n        /* \"#utility.yul\":3831:3840   */\n      dup4\n        /* \"#utility.yul\":3827:3846   */\n      add\n        /* \"#utility.yul\":3818:3824   */\n      dup6\n        /* \"#utility.yul\":3774:3847   */\n      tag_337\n      jump\t// in\n    tag_412:\n        /* \"#utility.yul\":3857:3930   */\n      tag_413\n        /* \"#utility.yul\":3925:3928   */\n      0xc0\n        /* \"#utility.yul\":3914:3923   */\n      dup4\n        /* \"#utility.yul\":3910:3929   */\n      add\n        /* \"#utility.yul\":3901:3907   */\n      dup5\n        /* \"#utility.yul\":3857:3930   */\n      tag_337\n      jump\t// in\n    tag_413:\n        /* \"#utility.yul\":3051:3937   */\n      swap9\n      swap8\n      pop\n      pop\n      pop\n      pop\n      pop\n      pop\n      pop\n      pop\n      jump\t// out\n        /* \"#utility.yul\":3943:4003   */\n    tag_348:\n        /* \"#utility.yul\":3971:3974   */\n      0x00\n        /* \"#utility.yul\":3992:3997   */\n      dup2\n        /* \"#utility.yul\":3985:3997   */\n      swap1\n      pop\n        /* \"#utility.yul\":3943:4003   */\n      swap2\n      swap1\n      pop\n      jump\t// out\n        /* \"#utility.yul\":4009:4151   */\n    tag_349:\n        /* \"#utility.yul\":4059:4068   */\n      0x00\n        /* \"#utility.yul\":4092:4145   */\n      tag_416\n        /* \"#utility.yul\":4110:4144   */\n      tag_417\n        /* \"#utility.yul\":4119:4143   */\n      tag_418\n        /* \"#utility.yul\":4137:4142   */\n      dup5\n        /* \"#utility.yul\":4119:4143   */\n      tag_341\n      jump\t// in\n    tag_418:\n        /* \"#utility.yul\":4110:4144   */\n      tag_348\n      jump\t// in\n    tag_417:\n        /* \"#utility.yul\":4092:4145   */\n      tag_341\n      jump\t// in\n    tag_416:\n        /* \"#utility.yul\":4079:4145   */\n      swap1\n      pop\n        /* \"#utility.yul\":4009:4151   */\n      swap2\n      swap1\n      pop\n      jump\t// out\n        /* \"#utility.yul\":4157:4283   */\n    tag_350:\n        /* \"#utility.yul\":4207:4216   */\n      0x00\n        /* \"#utility.yul\":4240:4277   */\n      tag_420\n        /* \"#utility.yul\":4271:4276   */\n      dup3\n        /* \"#utility.yul\":4240:4277   */\n      tag_349\n      jump\t// in\n    tag_420:\n        /* \"#utility.yul\":4227:4277   */\n      swap1\n      pop\n        /* \"#utility.yul\":4157:4283   */\n      swap2\n      swap1\n      pop\n      jump\t// out\n        /* \"#utility.yul\":4289:4445   */\n    tag_351:\n        /* \"#utility.yul\":4369:4378   */\n      0x00\n        /* \"#utility.yul\":4402:4439   */\n      tag_422\n        /* \"#utility.yul\":4433:4438   */\n      dup3\n        /* \"#utility.yul\":4402:4439   */\n      tag_350\n      jump\t// in\n    tag_422:\n        /* \"#utility.yul\":4389:4439   */\n      swap1\n      pop\n        /* \"#utility.yul\":4289:4445   */\n      swap2\n      swap1\n      pop\n      jump\t// out\n        /* \"#utility.yul\":4451:4642   */\n    tag_352:\n        /* \"#utility.yul\":4568:4635   */\n      tag_424\n        /* \"#utility.yul\":4629:4634   */\n      dup2\n        /* \"#utility.yul\":4568:4635   */\n      tag_351\n      jump\t// in\n    tag_424:\n        /* \"#utility.yul\":4563:4566   */\n      dup3\n        /* \"#utility.yul\":4556:4636   */\n      mstore\n        /* \"#utility.yul\":4451:4642   */\n      pop\n      pop\n      jump\t// out\n        /* \"#utility.yul\":4648:4930   */\n    tag_104:\n        /* \"#utility.yul\":4771:4775   */\n      0x00\n        /* \"#utility.yul\":4809:4811   */\n      0x20\n        /* \"#utility.yul\":4798:4807   */\n      dup3\n        /* \"#utility.yul\":4794:4812   */\n      add\n        /* \"#utility.yul\":4786:4812   */\n      swap1\n      pop\n        /* \"#utility.yul\":4822:4923   */\n      tag_426\n        /* \"#utility.yul\":4920:4921   */\n      0x00\n        /* \"#utility.yul\":4909:4918   */\n      dup4\n        /* \"#utility.yul\":4905:4922   */\n      add\n        /* \"#utility.yul\":4896:4902   */\n      dup5\n        /* \"#utility.yul\":4822:4923   */\n      tag_352\n      jump\t// in\n    tag_426:\n        /* \"#utility.yul\":4648:4930   */\n      swap3\n      swap2\n      pop\n      pop\n      jump\t// out\n        /* \"#utility.yul\":4936:5410   */\n    tag_108:\n        /* \"#utility.yul\":5004:5010   */\n      0x00\n        /* \"#utility.yul\":5012:5018   */\n      dup1\n        /* \"#utility.yul\":5061:5063   */\n      0x40\n        /* \"#utility.yul\":5049:5058   */\n      dup4\n        /* \"#utility.yul\":5040:5047   */\n      dup6\n        /* \"#utility.yul\":5036:5059   */\n      sub\n        /* \"#utility.yul\":5032:5064   */\n      slt\n        /* \"#utility.yul\":5029:5148   */\n      iszero\n      tag_428\n      jumpi\n        /* \"#utility.yul\":5067:5146   */\n      tag_429\n      tag_339\n      jump\t// in\n    tag_429:\n        /* \"#utility.yul\":5029:5148   */\n    tag_428:\n        /* \"#utility.yul\":5187:5188   */\n      0x00\n        /* \"#utility.yul\":5212:5265   */\n      tag_430\n        /* \"#utility.yul\":5257:5264   */\n      dup6\n        /* \"#utility.yul\":5248:5254   */\n      dup3\n        /* \"#utility.yul\":5237:5246   */\n      dup7\n        /* \"#utility.yul\":5233:5255   */\n      add\n        /* \"#utility.yul\":5212:5265   */\n      tag_344\n      jump\t// in\n    tag_430:\n        /* \"#utility.yul\":5202:5265   */\n      swap3\n      pop\n        /* \"#utility.yul\":5158:5275   */\n      pop\n        /* \"#utility.yul\":5314:5316   */\n      0x20\n        /* \"#utility.yul\":5340:5393   */\n      tag_431\n        /* \"#utility.yul\":5385:5392   */\n      dup6\n        /* \"#utility.yul\":5376:5382   */\n      dup3\n        /* \"#utility.yul\":5365:5374   */\n      dup7\n        /* \"#utility.yul\":5361:5383   */\n      add\n        /* \"#utility.yul\":5340:5393   */\n      tag_344\n      jump\t// in\n    tag_431:\n        /* \"#utility.yul\":5330:5393   */\n      swap2\n      pop\n        /* \"#utility.yul\":5285:5403   */\n      pop\n        /* \"#utility.yul\":4936:5410   */\n      swap3\n      pop\n      swap3\n      swap1\n      pop\n      jump\t// out\n        /* \"#utility.yul\":5416:5748   */\n    tag_119:\n        /* \"#utility.yul\":5537:5541   */\n      0x00\n        /* \"#utility.yul\":5575:5577   */\n      0x40\n        /* \"#utility.yul\":5564:5573   */\n      dup3\n        /* \"#utility.yul\":5560:5578   */\n      add\n        /* \"#utility.yul\":5552:5578   */\n      swap1\n      pop\n        /* \"#utility.yul\":5588:5659   */\n      tag_433\n        /* \"#utility.yul\":5656:5657   */\n      0x00\n        /* \"#utility.yul\":5645:5654   */\n      dup4\n        /* \"#utility.yul\":5641:5658   */\n      add\n        /* \"#utility.yul\":5632:5638   */\n      dup6\n        /* \"#utility.yul\":5588:5659   */\n      tag_337\n      jump\t// in\n    tag_433:\n        /* \"#utility.yul\":5669:5741   */\n      tag_434\n        /* \"#utility.yul\":5737:5739   */\n      0x20\n        /* \"#utility.yul\":5726:5735   */\n      dup4\n        /* \"#utility.yul\":5722:5740   */\n      add\n        /* \"#utility.yul\":5713:5719   */\n      dup5\n        /* \"#utility.yul\":5669:5741   */\n      tag_337\n      jump\t// in\n    tag_434:\n        /* \"#utility.yul\":5416:5748   */\n      swap4\n      swap3\n      pop\n      pop\n      pop\n      jump\t// out\n        /* \"#utility.yul\":5754:5895   */\n    tag_353:\n        /* \"#utility.yul\":5819:5828   */\n      0x00\n        /* \"#utility.yul\":5852:5889   */\n      tag_436\n        /* \"#utility.yul\":5883:5888   */\n      dup3\n        /* \"#utility.yul\":5852:5889   */\n      tag_350\n      jump\t// in\n    tag_436:\n        /* \"#utility.yul\":5839:5889   */\n      swap1\n      pop\n        /* \"#utility.yul\":5754:5895   */\n      swap2\n      swap1\n      pop\n      jump\t// out\n        /* \"#utility.yul\":5901:6062   */\n    tag_354:\n        /* \"#utility.yul\":6003:6055   */\n      tag_438\n        /* \"#utility.yul\":6049:6054   */\n      dup2\n        /* \"#utility.yul\":6003:6055   */\n      tag_353\n      jump\t// in\n    tag_438:\n        /* \"#utility.yul\":5998:6001   */\n      dup3\n        /* \"#utility.yul\":5991:6056   */\n      mstore\n        /* \"#utility.yul\":5901:6062   */\n      pop\n      pop\n      jump\t// out\n        /* \"#utility.yul\":6068:6320   */\n    tag_141:\n        /* \"#utility.yul\":6176:6180   */\n      0x00\n        /* \"#utility.yul\":6214:6216   */\n      0x20\n        /* \"#utility.yul\":6203:6212   */\n      dup3\n        /* \"#utility.yul\":6199:6217   */\n      add\n        /* \"#utility.yul\":6191:6217   */\n      swap1\n      pop\n        /* \"#utility.yul\":6227:6313   */\n      tag_440\n        /* \"#utility.yul\":6310:6311   */\n      0x00\n        /* \"#utility.yul\":6299:6308   */\n      dup4\n        /* \"#utility.yul\":6295:6312   */\n      add\n        /* \"#utility.yul\":6286:6292   */\n      dup5\n        /* \"#utility.yul\":6227:6313   */\n      tag_354\n      jump\t// in\n    tag_440:\n        /* \"#utility.yul\":6068:6320   */\n      swap3\n      swap2\n      pop\n      pop\n      jump\t// out\n        /* \"#utility.yul\":6326:6506   */\n    tag_355:\n        /* \"#utility.yul\":6374:6451   */\n      0x4e487b7100000000000000000000000000000000000000000000000000000000\n        /* \"#utility.yul\":6371:6372   */\n      0x00\n        /* \"#utility.yul\":6364:6452   */\n      mstore\n        /* \"#utility.yul\":6471:6475   */\n      0x11\n        /* \"#utility.yul\":6468:6469   */\n      0x04\n        /* \"#utility.yul\":6461:6476   */\n      mstore\n        /* \"#utility.yul\":6495:6499   */\n      0x24\n        /* \"#utility.yul\":6492:6493   */\n      0x00\n        /* \"#utility.yul\":6485:6500   */\n      revert\n        /* \"#utility.yul\":6512:6703   */\n    tag_150:\n        /* \"#utility.yul\":6552:6555   */\n      0x00\n        /* \"#utility.yul\":6571:6591   */\n      tag_443\n        /* \"#utility.yul\":6589:6590   */\n      dup3\n        /* \"#utility.yul\":6571:6591   */\n      tag_336\n      jump\t// in\n    tag_443:\n        /* \"#utility.yul\":6566:6591   */\n      swap2\n      pop\n        /* \"#utility.yul\":6605:6625   */\n      tag_444\n        /* \"#utility.yul\":6623:6624   */\n      dup4\n        /* \"#utility.yul\":6605:6625   */\n      tag_336\n      jump\t// in\n    tag_444:\n        /* \"#utility.yul\":6600:6625   */\n      swap3\n      pop\n        /* \"#utility.yul\":6648:6649   */\n      dup3\n        /* \"#utility.yul\":6645:6646   */\n      dup3\n        /* \"#utility.yul\":6641:6650   */\n      add\n        /* \"#utility.yul\":6634:6650   */\n      swap1\n      pop\n        /* \"#utility.yul\":6669:6672   */\n      dup1\n        /* \"#utility.yul\":6666:6667   */\n      dup3\n        /* \"#utility.yul\":6663:6673   */\n      gt\n        /* \"#utility.yul\":6660:6696   */\n      iszero\n      tag_445\n      jumpi\n        /* \"#utility.yul\":6676:6694   */\n      tag_446\n      tag_355\n      jump\t// in\n    tag_446:\n        /* \"#utility.yul\":6660:6696   */\n    tag_445:\n        /* \"#utility.yul\":6512:6703   */\n      swap3\n      swap2\n      pop\n      pop\n      jump\t// out\n        /* \"#utility.yul\":6709:7151   */\n    tag_153:\n        /* \"#utility.yul\":6858:6862   */\n      0x00\n        /* \"#utility.yul\":6896:6898   */\n      0x60\n        /* \"#utility.yul\":6885:6894   */\n      dup3\n        /* \"#utility.yul\":6881:6899   */\n      add\n        /* \"#utility.yul\":6873:6899   */\n      swap1\n      pop\n        /* \"#utility.yul\":6909:6980   */\n      tag_448\n        /* \"#utility.yul\":6977:6978   */\n      0x00\n        /* \"#utility.yul\":6966:6975   */\n      dup4\n        /* \"#utility.yul\":6962:6979   */\n      add\n        /* \"#utility.yul\":6953:6959   */\n      dup7\n        /* \"#utility.yul\":6909:6980   */\n      tag_337\n      jump\t// in\n    tag_448:\n        /* \"#utility.yul\":6990:7062   */\n      tag_449\n        /* \"#utility.yul\":7058:7060   */\n      0x20\n        /* \"#utility.yul\":7047:7056   */\n      dup4\n        /* \"#utility.yul\":7043:7061   */\n      add\n        /* \"#utility.yul\":7034:7040   */\n      dup6\n        /* \"#utility.yul\":6990:7062   */\n      tag_337\n      jump\t// in\n    tag_449:\n        /* \"#utility.yul\":7072:7144   */\n      tag_450\n        /* \"#utility.yul\":7140:7142   */\n      0x40\n        /* \"#utility.yul\":7129:7138   */\n      dup4\n        /* \"#utility.yul\":7125:7143   */\n      add\n        /* \"#utility.yul\":7116:7122   */\n      dup5\n        /* \"#utility.yul\":7072:7144   */\n      tag_337\n      jump\t// in\n    tag_450:\n        /* \"#utility.yul\":6709:7151   */\n      swap5\n      swap4\n      pop\n      pop\n      pop\n      pop\n      jump\t// out\n        /* \"#utility.yul\":7157:7390   */\n    tag_158:\n        /* \"#utility.yul\":7196:7199   */\n      0x00\n        /* \"#utility.yul\":7219:7243   */\n      tag_452\n        /* \"#utility.yul\":7237:7242   */\n      dup3\n        /* \"#utility.yul\":7219:7243   */\n      tag_336\n      jump\t// in\n    tag_452:\n        /* \"#utility.yul\":7210:7243   */\n      swap2\n      pop\n        /* \"#utility.yul\":7265:7331   */\n      0xffffffffffffffffffffffffffffffffffffffffffffffffffffffffffffffff\n        /* \"#utility.yul\":7258:7263   */\n      dup3\n        /* \"#utility.yul\":7255:7332   */\n      sub\n        /* \"#utility.yul\":7252:7355   */\n      tag_453\n      jumpi\n        /* \"#utility.yul\":7335:7353   */\n      tag_454\n      tag_355\n      jump\t// in\n    tag_454:\n        /* \"#utility.yul\":7252:7355   */\n    tag_453:\n        /* \"#utility.yul\":7382:7383   */\n      0x01\n        /* \"#utility.yul\":7375:7380   */\n      dup3\n        /* \"#utility.yul\":7371:7384   */\n      add\n        /* \"#utility.yul\":7364:7384   */\n      swap1\n      pop\n        /* \"#utility.yul\":7157:7390   */\n      swap2\n      swap1\n      pop\n      jump\t// out\n        /* \"#utility.yul\":7396:7590   */\n    tag_197:\n        /* \"#utility.yul\":7436:7440   */\n      0x00\n        /* \"#utility.yul\":7456:7476   */\n      tag_456\n        /* \"#utility.yul\":7474:7475   */\n      dup3\n        /* \"#utility.yul\":7456:7476   */\n      tag_336\n      jump\t// in\n    tag_456:\n        /* \"#utility.yul\":7451:7476   */\n      swap2\n      pop\n        /* \"#utility.yul\":7490:7510   */\n      tag_457\n        /* \"#utility.yul\":7508:7509   */\n      dup4\n        /* \"#utility.yul\":7490:7510   */\n      tag_336\n      jump\t// in\n    tag_457:\n        /* \"#utility.yul\":7485:7510   */\n      swap3\n      pop\n        /* \"#utility.yul\":7534:7535   */\n      dup3\n        /* \"#utility.yul\":7531:7532   */\n      dup3\n        /* \"#utility.yul\":7527:7536   */\n      sub\n        /* \"#utility.yul\":7519:7536   */\n      swap1\n      pop\n        /* \"#utility.yul\":7558:7559   */\n      dup2\n        /* \"#utility.yul\":7552:7556   */\n      dup2\n        /* \"#utility.yul\":7549:7560   */\n      gt\n        /* \"#utility.yul\":7546:7583   */\n      iszero\n      tag_458\n      jumpi\n        /* \"#utility.yul\":7563:7581   */\n      tag_459\n      tag_355\n      jump\t// in\n    tag_459:\n        /* \"#utility.yul\":7546:7583   */\n    tag_458:\n        /* \"#utility.yul\":7396:7590   */\n      swap3\n      swap2\n      pop\n      pop\n      jump\t// out\n        /* \"#utility.yul\":7596:7701   */\n    tag_356:\n        /* \"#utility.yul\":7632:7639   */\n      0x00\n        /* \"#utility.yul\":7672:7694   */\n      0xffffffffffffffffffff\n        /* \"#utility.yul\":7665:7670   */\n      dup3\n        /* \"#utility.yul\":7661:7695   */\n      and\n        /* \"#utility.yul\":7650:7695   */\n      swap1\n      pop\n        /* \"#utility.yul\":7596:7701   */\n      swap2\n      swap1\n      pop\n      jump\t// out\n        /* \"#utility.yul\":7707:7827   */\n    tag_357:\n        /* \"#utility.yul\":7779:7802   */\n      tag_462\n        /* \"#utility.yul\":7796:7801   */\n      dup2\n        /* \"#utility.yul\":7779:7802   */\n      tag_356\n      jump\t// in\n    tag_462:\n        /* \"#utility.yul\":7772:7777   */\n      dup2\n        /* \"#utility.yul\":7769:7803   */\n      eq\n        /* \"#utility.yul\":7759:7821   */\n      tag_463\n      jumpi\n        /* \"#utility.yul\":7817:7818   */\n      0x00\n        /* \"#utility.yul\":7814:7815   */\n      dup1\n        /* \"#utility.yul\":7807:7819   */\n      revert\n        /* \"#utility.yul\":7759:7821   */\n    tag_463:\n        /* \"#utility.yul\":7707:7827   */\n      pop\n      jump\t// out\n        /* \"#utility.yul\":7833:7974   */\n    tag_358:\n        /* \"#utility.yul\":7889:7894   */\n      0x00\n        /* \"#utility.yul\":7920:7926   */\n      dup2\n        /* \"#utility.yul\":7914:7927   */\n      mload\n        /* \"#utility.yul\":7905:7927   */\n      swap1\n      pop\n        /* \"#utility.yul\":7936:7968   */\n      tag_465\n        /* \"#utility.yul\":7962:7967   */\n      dup2\n        /* \"#utility.yul\":7936:7968   */\n      tag_357\n      jump\t// in\n    tag_465:\n        /* \"#utility.yul\":7833:7974   */\n      swap3\n      swap2\n      pop\n      pop\n      jump\t// out\n        /* \"#utility.yul\":7980:8056   */\n    tag_359:\n        /* \"#utility.yul\":8016:8023   */\n      0x00\n        /* \"#utility.yul\":8045:8050   */\n      dup2\n        /* \"#utility.yul\":8034:8050   */\n      swap1\n      pop\n        /* \"#utility.yul\":7980:8056   */\n      swap2\n      swap1\n      pop\n      jump\t// out\n        /* \"#utility.yul\":8062:8182   */\n    tag_360:\n        /* \"#utility.yul\":8134:8157   */\n      tag_468\n        /* \"#utility.yul\":8151:8156   */\n      dup2\n        /* \"#utility.yul\":8134:8157   */\n      tag_359\n      jump\t// in\n    tag_468:\n        /* \"#utility.yul\":8127:8132   */\n      dup2\n        /* \"#utility.yul\":8124:8158   */\n      eq\n        /* \"#utility.yul\":8114:8176   */\n      tag_469\n      jumpi\n        /* \"#utility.yul\":8172:8173   */\n      0x00\n        /* \"#utility.yul\":8169:8170   */\n      dup1\n        /* \"#utility.yul\":8162:8174   */\n      revert\n        /* \"#utility.yul\":8114:8176   */\n    tag_469:\n        /* \"#utility.yul\":8062:8182   */\n      pop\n      jump\t// out\n        /* \"#utility.yul\":8188:8329   */\n    tag_361:\n        /* \"#utility.yul\":8244:8249   */\n      0x00\n        /* \"#utility.yul\":8275:8281   */\n      dup2\n        /* \"#utility.yul\":8269:8282   */\n      mload\n        /* \"#utility.yul\":8260:8282   */\n      swap1\n      pop\n        /* \"#utility.yul\":8291:8323   */\n      tag_471\n        /* \"#utility.yul\":8317:8322   */\n      dup2\n        /* \"#utility.yul\":8291:8323   */\n      tag_360\n      jump\t// in\n    tag_471:\n        /* \"#utility.yul\":8188:8329   */\n      swap3\n      swap2\n      pop\n      pop\n      jump\t// out\n        /* \"#utility.yul\":8335:8478   */\n    tag_362:\n        /* \"#utility.yul\":8392:8397   */\n      0x00\n        /* \"#utility.yul\":8423:8429   */\n      dup2\n        /* \"#utility.yul\":8417:8430   */\n      mload\n        /* \"#utility.yul\":8408:8430   */\n      swap1\n      pop\n        /* \"#utility.yul\":8439:8472   */\n      tag_473\n        /* \"#utility.yul\":8466:8471   */\n      dup2\n        /* \"#utility.yul\":8439:8472   */\n      tag_346\n      jump\t// in\n    tag_473:\n        /* \"#utility.yul\":8335:8478   */\n      swap3\n      swap2\n      pop\n      pop\n      jump\t// out\n        /* \"#utility.yul\":8484:9455   */\n    tag_275:\n        /* \"#utility.yul\":8587:8593   */\n      0x00\n        /* \"#utility.yul\":8595:8601   */\n      dup1\n        /* \"#utility.yul\":8603:8609   */\n      0x00\n        /* \"#utility.yul\":8611:8617   */\n      dup1\n        /* \"#utility.yul\":8619:8625   */\n      0x00\n        /* \"#utility.yul\":8668:8671   */\n      0xa0\n        /* \"#utility.yul\":8656:8665   */\n      dup7\n        /* \"#utility.yul\":8647:8654   */\n      dup9\n        /* \"#utility.yul\":8643:8666   */\n      sub\n        /* \"#utility.yul\":8639:8672   */\n      slt\n        /* \"#utility.yul\":8636:8756   */\n      iszero\n      tag_475\n      jumpi\n        /* \"#utility.yul\":8675:8754   */\n      tag_476\n      tag_339\n      jump\t// in\n    tag_476:\n        /* \"#utility.yul\":8636:8756   */\n    tag_475:\n        /* \"#utility.yul\":8795:8796   */\n      0x00\n        /* \"#utility.yul\":8820:8883   */\n      tag_477\n        /* \"#utility.yul\":8875:8882   */\n      dup9\n        /* \"#utility.yul\":8866:8872   */\n      dup3\n        /* \"#utility.yul\":8855:8864   */\n      dup10\n        /* \"#utility.yul\":8851:8873   */\n      add\n        /* \"#utility.yul\":8820:8883   */\n      tag_358\n      jump\t// in\n    tag_477:\n        /* \"#utility.yul\":8810:8883   */\n      swap6\n      pop\n        /* \"#utility.yul\":8766:8893   */\n      pop\n        /* \"#utility.yul\":8932:8934   */\n      0x20\n        /* \"#utility.yul\":8958:9021   */\n      tag_478\n        /* \"#utility.yul\":9013:9020   */\n      dup9\n        /* \"#utility.yul\":9004:9010   */\n      dup3\n        /* \"#utility.yul\":8993:9002   */\n      dup10\n        /* \"#utility.yul\":8989:9011   */\n      add\n        /* \"#utility.yul\":8958:9021   */\n      tag_361\n      jump\t// in\n    tag_478:\n        /* \"#utility.yul\":8948:9021   */\n      swap5\n      pop\n        /* \"#utility.yul\":8903:9031   */\n      pop\n        /* \"#utility.yul\":9070:9072   */\n      0x40\n        /* \"#utility.yul\":9096:9160   */\n      tag_479\n        /* \"#utility.yul\":9152:9159   */\n      dup9\n        /* \"#utility.yul\":9143:9149   */\n      dup3\n        /* \"#utility.yul\":9132:9141   */\n      dup10\n        /* \"#utility.yul\":9128:9150   */\n      add\n        /* \"#utility.yul\":9096:9160   */\n      tag_362\n      jump\t// in\n    tag_479:\n        /* \"#utility.yul\":9086:9160   */\n      swap4\n      pop\n        /* \"#utility.yul\":9041:9170   */\n      pop\n        /* \"#utility.yul\":9209:9211   */\n      0x60\n        /* \"#utility.yul\":9235:9299   */\n      tag_480\n        /* \"#utility.yul\":9291:9298   */\n      dup9\n        /* \"#utility.yul\":9282:9288   */\n      dup3\n        /* \"#utility.yul\":9271:9280   */\n      dup10\n        /* \"#utility.yul\":9267:9289   */\n      add\n        /* \"#utility.yul\":9235:9299   */\n      tag_362\n      jump\t// in\n    tag_480:\n        /* \"#utility.yul\":9225:9299   */\n      swap3\n      pop\n        /* \"#utility.yul\":9180:9309   */\n      pop\n        /* \"#utility.yul\":9348:9351   */\n      0x80\n        /* \"#utility.yul\":9375:9438   */\n      tag_481\n        /* \"#utility.yul\":9430:9437   */\n      dup9\n        /* \"#utility.yul\":9421:9427   */\n      dup3\n        /* \"#utility.yul\":9410:9419   */\n      dup10\n        /* \"#utility.yul\":9406:9428   */\n      add\n        /* \"#utility.yul\":9375:9438   */\n      tag_358\n      jump\t// in\n    tag_481:\n        /* \"#utility.yul\":9365:9438   */\n      swap2\n      pop\n        /* \"#utility.yul\":9319:9448   */\n      pop\n        /* \"#utility.yul\":8484:9455   */\n      swap3\n      swap6\n      pop\n      swap3\n      swap6\n      swap1\n      swap4\n      pop\n      jump\t// out\n        /* \"#utility.yul\":9461:9871   */\n    tag_288:\n        /* \"#utility.yul\":9501:9508   */\n      0x00\n        /* \"#utility.yul\":9524:9544   */\n      tag_483\n        /* \"#utility.yul\":9542:9543   */\n      dup3\n        /* \"#utility.yul\":9524:9544   */\n      tag_336\n      jump\t// in\n    tag_483:\n        /* \"#utility.yul\":9519:9544   */\n      swap2\n      pop\n        /* \"#utility.yul\":9558:9578   */\n      tag_484\n        /* \"#utility.yul\":9576:9577   */\n      dup4\n        /* \"#utility.yul\":9558:9578   */\n      tag_336\n      jump\t// in\n    tag_484:\n        /* \"#utility.yul\":9553:9578   */\n      swap3\n      pop\n        /* \"#utility.yul\":9613:9614   */\n      dup3\n        /* \"#utility.yul\":9610:9611   */\n      dup3\n        /* \"#utility.yul\":9606:9615   */\n      mul\n        /* \"#utility.yul\":9635:9665   */\n      tag_485\n        /* \"#utility.yul\":9653:9664   */\n      dup2\n        /* \"#utility.yul\":9635:9665   */\n      tag_336\n      jump\t// in\n    tag_485:\n        /* \"#utility.yul\":9624:9665   */\n      swap2\n      pop\n        /* \"#utility.yul\":9814:9815   */\n      dup3\n        /* \"#utility.yul\":9805:9812   */\n      dup3\n        /* \"#utility.yul\":9801:9816   */\n      div\n        /* \"#utility.yul\":9798:9799   */\n      dup5\n        /* \"#utility.yul\":9795:9817   */\n      eq\n        /* \"#utility.yul\":9775:9776   */\n      dup4\n        /* \"#utility.yul\":9768:9777   */\n      iszero\n        /* \"#utility.yul\":9748:9831   */\n      or\n        /* \"#utility.yul\":9725:9864   */\n      tag_486\n      jumpi\n        /* \"#utility.yul\":9844:9862   */\n      tag_487\n      tag_355\n      jump\t// in\n    tag_487:\n        /* \"#utility.yul\":9725:9864   */\n    tag_486:\n        /* \"#utility.yul\":9509:9871   */\n      pop\n        /* \"#utility.yul\":9461:9871   */\n      swap3\n      swap2\n      pop\n      pop\n      jump\t// out\n        /* \"#utility.yul\":9877:10057   */\n    tag_363:\n        /* \"#utility.yul\":9925:10002   */\n      0x4e487b7100000000000000000000000000000000000000000000000000000000\n        /* \"#utility.yul\":9922:9923   */\n      0x00\n        /* \"#utility.yul\":9915:10003   */\n      mstore\n        /* \"#utility.yul\":10022:10026   */\n      0x12\n        /* \"#utility.yul\":10019:10020   */\n      0x04\n        /* \"#utility.yul\":10012:10027   */\n      mstore\n        /* \"#utility.yul\":10046:10050   */\n      0x24\n        /* \"#utility.yul\":10043:10044   */\n      0x00\n        /* \"#utility.yul\":10036:10051   */\n      revert\n        /* \"#utility.yul\":10063:10248   */\n    tag_290:\n        /* \"#utility.yul\":10103:10104   */\n      0x00\n        /* \"#utility.yul\":10120:10140   */\n      tag_490\n        /* \"#utility.yul\":10138:10139   */\n      dup3\n        /* \"#utility.yul\":10120:10140   */\n      tag_336\n      jump\t// in\n    tag_490:\n        /* \"#utility.yul\":10115:10140   */\n      swap2\n      pop\n        /* \"#utility.yul\":10154:10174   */\n      tag_491\n        /* \"#utility.yul\":10172:10173   */\n      dup4\n        /* \"#utility.yul\":10154:10174   */\n      tag_336\n      jump\t// in\n    tag_491:\n        /* \"#utility.yul\":10149:10174   */\n      swap3\n      pop\n        /* \"#utility.yul\":10193:10194   */\n      dup3\n        /* \"#utility.yul\":10183:10218   */\n      tag_492\n      jumpi\n        /* \"#utility.yul\":10198:10216   */\n      tag_493\n      tag_363\n      jump\t// in\n    tag_493:\n        /* \"#utility.yul\":10183:10218   */\n    tag_492:\n        /* \"#utility.yul\":10240:10241   */\n      dup3\n        /* \"#utility.yul\":10237:10238   */\n      dup3\n        /* \"#utility.yul\":10233:10242   */\n      div\n        /* \"#utility.yul\":10228:10242   */\n      swap1\n      pop\n        /* \"#utility.yul\":10063:10248   */\n      swap3\n      swap2\n      pop\n      pop\n      jump\t// out\n        /* \"#utility.yul\":10254:10696   */\n    tag_295:\n        /* \"#utility.yul\":10403:10407   */\n      0x00\n        /* \"#utility.yul\":10441:10443   */\n      0x60\n        /* \"#utility.yul\":10430:10439   */\n      dup3\n        /* \"#utility.yul\":10426:10444   */\n      add\n        /* \"#utility.yul\":10418:10444   */\n      swap1\n      pop\n        /* \"#utility.yul\":10454:10525   */\n      tag_495\n        /* \"#utility.yul\":10522:10523   */\n      0x00\n        /* \"#utility.yul\":10511:10520   */\n      dup4\n        /* \"#utility.yul\":10507:10524   */\n      add\n        /* \"#utility.yul\":10498:10504   */\n      dup7\n        /* \"#utility.yul\":10454:10525   */\n      tag_345\n      jump\t// in\n    tag_495:\n        /* \"#utility.yul\":10535:10607   */\n      tag_496\n        /* \"#utility.yul\":10603:10605   */\n      0x20\n        /* \"#utility.yul\":10592:10601   */\n      dup4\n        /* \"#utility.yul\":10588:10606   */\n      add\n        /* \"#utility.yul\":10579:10585   */\n      dup6\n        /* \"#utility.yul\":10535:10607   */\n      tag_345\n      jump\t// in\n    tag_496:\n        /* \"#utility.yul\":10617:10689   */\n      tag_497\n        /* \"#utility.yul\":10685:10687   */\n      0x40\n        /* \"#utility.yul\":10674:10683   */\n      dup4\n        /* \"#utility.yul\":10670:10688   */\n      add\n        /* \"#utility.yul\":10661:10667   */\n      dup5\n        /* \"#utility.yul\":10617:10689   */\n      tag_337\n      jump\t// in\n    tag_497:\n        /* \"#utility.yul\":10254:10696   */\n      swap5\n      swap4\n      pop\n      pop\n      pop\n      pop\n      jump\t// out\n        /* \"#utility.yul\":10702:11034   */\n    tag_304:\n        /* \"#utility.yul\":10823:10827   */\n      0x00\n        /* \"#utility.yul\":10861:10863   */\n      0x40\n        /* \"#utility.yul\":10850:10859   */\n      dup3\n        /* \"#utility.yul\":10846:10864   */\n      add\n        /* \"#utility.yul\":10838:10864   */\n      swap1\n      pop\n        /* \"#utility.yul\":10874:10945   */\n      tag_499\n        /* \"#utility.yul\":10942:10943   */\n      0x00\n        /* \"#utility.yul\":10931:10940   */\n      dup4\n        /* \"#utility.yul\":10927:10944   */\n      add\n        /* \"#utility.yul\":10918:10924   */\n      dup6\n        /* \"#utility.yul\":10874:10945   */\n      tag_345\n      jump\t// in\n    tag_499:\n        /* \"#utility.yul\":10955:11027   */\n      tag_500\n        /* \"#utility.yul\":11023:11025   */\n      0x20\n        /* \"#utility.yul\":11012:11021   */\n      dup4\n        /* \"#utility.yul\":11008:11026   */\n      add\n        /* \"#utility.yul\":10999:11005   */\n      dup5\n        /* \"#utility.yul\":10955:11027   */\n      tag_337\n      jump\t// in\n    tag_500:\n        /* \"#utility.yul\":10702:11034   */\n      swap4\n      swap3\n      pop\n      pop\n      pop\n      jump\t// out\n        /* \"#utility.yul\":11040:11187   */\n    tag_364:\n        /* \"#utility.yul\":11141:11152   */\n      0x00\n        /* \"#utility.yul\":11178:11181   */\n      dup2\n        /* \"#utility.yul\":11163:11181   */\n      swap1\n      pop\n        /* \"#utility.yul\":11040:11187   */\n      swap3\n      swap2\n      pop\n      pop\n      jump\t// out\n        /* \"#utility.yul\":11193:11307   */\n    tag_365:\n      pop\n      jump\t// out\n        /* \"#utility.yul\":11313:11711   */\n    tag_366:\n        /* \"#utility.yul\":11472:11475   */\n      0x00\n        /* \"#utility.yul\":11493:11576   */\n      tag_504\n        /* \"#utility.yul\":11574:11575   */\n      0x00\n        /* \"#utility.yul\":11569:11572   */\n      dup4\n        /* \"#utility.yul\":11493:11576   */\n      tag_364\n      jump\t// in\n    tag_504:\n        /* \"#utility.yul\":11486:11576   */\n      swap2\n      pop\n        /* \"#utility.yul\":11585:11678   */\n      tag_505\n        /* \"#utility.yul\":11674:11677   */\n      dup3\n        /* \"#utility.yul\":11585:11678   */\n      tag_365\n      jump\t// in\n    tag_505:\n        /* \"#utility.yul\":11703:11704   */\n      0x00\n        /* \"#utility.yul\":11698:11701   */\n      dup3\n        /* \"#utility.yul\":11694:11705   */\n      add\n        /* \"#utility.yul\":11687:11705   */\n      swap1\n      pop\n        /* \"#utility.yul\":11313:11711   */\n      swap2\n      swap1\n      pop\n      jump\t// out\n        /* \"#utility.yul\":11717:12096   */\n    tag_315:\n        /* \"#utility.yul\":11901:11904   */\n      0x00\n        /* \"#utility.yul\":11923:12070   */\n      tag_507\n        /* \"#utility.yul\":12066:12069   */\n      dup3\n        /* \"#utility.yul\":11923:12070   */\n      tag_366\n      jump\t// in\n    tag_507:\n        /* \"#utility.yul\":11916:12070   */\n      swap2\n      pop\n        /* \"#utility.yul\":12087:12090   */\n      dup2\n        /* \"#utility.yul\":12080:12090   */\n      swap1\n      pop\n        /* \"#utility.yul\":11717:12096   */\n      swap2\n      swap1\n      pop\n      jump\t// out\n\n    auxdata: 0xa26469706673582212207aa77aaa5386ae58c8f25ae37ebb006a3934a329638c8fe9a1b91d25c6af04dc64736f6c634300081a0033\n}\n",
				"bytecode": {
					"linkReferences": {},
					"object": "60e060405234801561000f575f80fd5b506040516130d83803806130d883398181016040528101906100319190610292565b805f73ffffffffffffffffffffffffffffffffffffffff168173ffffffffffffffffffffffffffffffffffffffff16036100a2575f6040517f1e4fbdf700000000000000000000000000000000000000000000000000000000815260040161009991906102cc565b60405180910390fd5b6100b18161017360201b60201c565b5060018081905550633b9aca00608081815250506305f5e10060a0818152505073694aa1769357215de4fac081bf1f309adc32530660025f6101000a81548173ffffffffffffffffffffffffffffffffffffffff021916908373ffffffffffffffffffffffffffffffffffffffff160217905550731c7d4b196cb0c7b01d743fbc6116a902379c723873ffffffffffffffffffffffffffffffffffffffff1660c08173ffffffffffffffffffffffffffffffffffffffff1681525050506102e5565b5f805f9054906101000a900473ffffffffffffffffffffffffffffffffffffffff169050815f806101000a81548173ffffffffffffffffffffffffffffffffffffffff021916908373ffffffffffffffffffffffffffffffffffffffff1602179055508173ffffffffffffffffffffffffffffffffffffffff168173ffffffffffffffffffffffffffffffffffffffff167f8be0079c531659141344cd1fd0a4f28419497f9722a3daafe3b4186f6b6457e060405160405180910390a35050565b5f80fd5b5f73ffffffffffffffffffffffffffffffffffffffff82169050919050565b5f61026182610238565b9050919050565b61027181610257565b811461027b575f80fd5b50565b5f8151905061028c81610268565b92915050565b5f602082840312156102a7576102a6610234565b5b5f6102b48482850161027e565b91505092915050565b6102c681610257565b82525050565b5f6020820190506102df5f8301846102bd565b92915050565b60805160a05160c051612cf76103e15f395f81816108c601528181610ac401528181610b3701528181610bd501528181610c6201528181610cf50152818161161a015281816116b90152818161179101528181611804015281816118a20152818161192e015281816119c001528181611d3401528181612074015261219e01525f81816108240152818161086301528181610f0601528181610f2f015281816112d6015281816112ff015281816115540152818161157d0152611dbe01525f8181610592015281816106030152818161063c015281816109ed01528181610a2601528181611a9a01528181611ad30152611d9b0152612cf75ff3fe608060405260043610610165575f3560e01c80638da5cb5b116100d0578063d30451e711610089578063dccd58e311610063578063dccd58e3146104d8578063e98c660114610514578063f2fde38b1461053e578063ff40e1d01461056657610165565b8063d30451e71461045b578063d4289d8914610483578063d4b0d3ce146104ae57610165565b80638da5cb5b1461034b578063931fb90e14610375578063a86b0bf61461039d578063abc9cd6d146103c5578063b9eb1c9a146103f5578063c3b5bc221461041f57610165565b80633eaa00fb116101225780633eaa00fb14610257578063501cb72d14610281578063698b7241146102bd5780636a5f2407146102e5578063715018a61461030d57806382fe54b51461032357610165565b80630ccee4331461016957806316a1930f146101935780632230c2721461019d5780632b513163146101c75780632fda583e146101f157806331f7d9641461022d575b5f80fd5b348015610174575f80fd5b5061017d610590565b60405161018a919061269e565b60405180910390f35b61019b6105b4565b005b3480156101a8575f80fd5b506101b161081b565b6040516101be919061269e565b60405180910390f35b3480156101d2575f80fd5b506101db610821565b6040516101e8919061269e565b60405180910390f35b3480156101fc575f80fd5b5061021760048036038101906102129190612715565b610848565b604051610224919061269e565b60405180910390f35b348015610238575f80fd5b5061024161085d565b60405161024e919061274f565b60405180910390f35b348015610262575f80fd5b5061026b610861565b604051610278919061269e565b60405180910390f35b34801561028c575f80fd5b506102a760048036038101906102a29190612715565b610885565b6040516102b4919061269e565b60405180910390f35b3480156102c8575f80fd5b506102e360048036038101906102de9190612792565b6109a9565b005b3480156102f0575f80fd5b5061030b600480360381019061030691906127bd565b610cb3565b005b348015610318575f80fd5b5061032161113c565b005b34801561032e575f80fd5b5061034960048036038101906103449190612792565b61114f565b005b348015610356575f80fd5b5061035f6114e9565b60405161036c919061274f565b60405180910390f35b348015610380575f80fd5b5061039b60048036038101906103969190612792565b611510565b005b3480156103a8575f80fd5b506103c360048036038101906103be91906127bd565b61197e565b005b3480156103d0575f80fd5b506103d9611ce3565b6040516103ec97969594939291906127fb565b60405180910390f35b348015610400575f80fd5b50610409611de8565b60405161041691906128c3565b60405180910390f35b34801561042a575f80fd5b50610445600480360381019061044091906128dc565b611e0d565b604051610452919061269e565b60405180910390f35b348015610466575f80fd5b50610481600480360381019061047c9190612715565b611e8f565b005b34801561048e575f80fd5b50610497611f1d565b6040516104a592919061291a565b60405180910390f35b3480156104b9575f80fd5b506104c2611fc2565b6040516104cf919061269e565b60405180910390f35b3480156104e3575f80fd5b506104fe60048036038101906104f991906128dc565b611fc8565b60405161050b919061269e565b60405180910390f35b34801561051f575f80fd5b50610528611fe8565b604051610535919061269e565b60405180910390f35b348015610549575f80fd5b50610564600480360381019061055f9190612715565b611fee565b005b348015610571575f80fd5b5061057a612072565b6040516105879190612961565b60405180910390f35b7f000000000000000000000000000000000000000000000000000000000000000081565b6105bc612096565b5f34036105f5576040517fe729dc6400000000000000000000000000000000000000000000000000000000815260040160405180910390fd5b5f6105ff346120dc565b90507f00000000000000000000000000000000000000000000000000000000000000008160055461063091906129a7565b111561069957600554817f00000000000000000000000000000000000000000000000000000000000000006040517fc9fe79b8000000000000000000000000000000000000000000000000000000008152600401610690939291906129da565b60405180910390fd5b8060035f3373ffffffffffffffffffffffffffffffffffffffff1673ffffffffffffffffffffffffffffffffffffffff1681526020019081526020015f205f8073ffffffffffffffffffffffffffffffffffffffff1673ffffffffffffffffffffffffffffffffffffffff1681526020019081526020015f205f82825461072091906129a7565b925050819055508060045f8073ffffffffffffffffffffffffffffffffffffffff1673ffffffffffffffffffffffffffffffffffffffff1681526020019081526020015f205f82825461077391906129a7565b925050819055508060055f82825461078b91906129a7565b9250508190555060065f8154809291906107a490612a0f565b91905055505f73ffffffffffffffffffffffffffffffffffffffff163373ffffffffffffffffffffffffffffffffffffffff167f751f8b54c0e32ef5b9fafdbdac0c93c1994cc8848fa17ed7798bd90aae8bfe9b348460405161080892919061291a565b60405180910390a350610819612110565b565b60065481565b5f7f0000000000000000000000000000000000000000000000000000000000000000905090565b6004602052805f5260405f205f915090505481565b5f81565b7f000000000000000000000000000000000000000000000000000000000000000081565b5f60035f8373ffffffffffffffffffffffffffffffffffffffff1673ffffffffffffffffffffffffffffffffffffffff1681526020019081526020015f205f7f000000000000000000000000000000000000000000000000000000000000000073ffffffffffffffffffffffffffffffffffffffff1673ffffffffffffffffffffffffffffffffffffffff1681526020019081526020015f205460035f8473ffffffffffffffffffffffffffffffffffffffff1673ffffffffffffffffffffffffffffffffffffffff1681526020019081526020015f205f8073ffffffffffffffffffffffffffffffffffffffff1673ffffffffffffffffffffffffffffffffffffffff1681526020019081526020015f20546109a291906129a7565b9050919050565b6109b1612096565b805f81036109eb576040517fe729dc6400000000000000000000000000000000000000000000000000000000815260040160405180910390fd5b7f000000000000000000000000000000000000000000000000000000000000000082600554610a1a91906129a7565b1115610a8357600554827f00000000000000000000000000000000000000000000000000000000000000006040517fc9fe79b8000000000000000000000000000000000000000000000000000000008152600401610a7a939291906129da565b60405180910390fd5b8160035f3373ffffffffffffffffffffffffffffffffffffffff1673ffffffffffffffffffffffffffffffffffffffff1681526020019081526020015f205f7f000000000000000000000000000000000000000000000000000000000000000073ffffffffffffffffffffffffffffffffffffffff1673ffffffffffffffffffffffffffffffffffffffff1681526020019081526020015f205f828254610b2a91906129a7565b925050819055508160045f7f000000000000000000000000000000000000000000000000000000000000000073ffffffffffffffffffffffffffffffffffffffff1673ffffffffffffffffffffffffffffffffffffffff1681526020019081526020015f205f828254610b9d91906129a7565b925050819055508160055f828254610bb591906129a7565b9250508190555060065f815480929190610bce90612a0f565b91905055507f000000000000000000000000000000000000000000000000000000000000000073ffffffffffffffffffffffffffffffffffffffff163373ffffffffffffffffffffffffffffffffffffffff167f751f8b54c0e32ef5b9fafdbdac0c93c1994cc8848fa17ed7798bd90aae8bfe9b8485604051610c5292919061291a565b60405180910390a3610ca73330847f000000000000000000000000000000000000000000000000000000000000000073ffffffffffffffffffffffffffffffffffffffff16612119909392919063ffffffff16565b50610cb0612110565b50565b610cbb612096565b815f73ffffffffffffffffffffffffffffffffffffffff168173ffffffffffffffffffffffffffffffffffffffff1614158015610d4457507f000000000000000000000000000000000000000000000000000000000000000073ffffffffffffffffffffffffffffffffffffffff168173ffffffffffffffffffffffffffffffffffffffff1614155b15610d8657806040517f2d5c07b9000000000000000000000000000000000000000000000000000000008152600401610d7d919061274f565b60405180910390fd5b815f8103610dc0576040517fe729dc6400000000000000000000000000000000000000000000000000000000815260040160405180910390fd5b5f610dcb858561219b565b90508060035f3373ffffffffffffffffffffffffffffffffffffffff1673ffffffffffffffffffffffffffffffffffffffff1681526020019081526020015f205f8773ffffffffffffffffffffffffffffffffffffffff1673ffffffffffffffffffffffffffffffffffffffff1681526020019081526020015f20541015610f045760035f3373ffffffffffffffffffffffffffffffffffffffff1673ffffffffffffffffffffffffffffffffffffffff1681526020019081526020015f205f8673ffffffffffffffffffffffffffffffffffffffff1673ffffffffffffffffffffffffffffffffffffffff1681526020019081526020015f2054816040517f3b286365000000000000000000000000000000000000000000000000000000008152600401610efb92919061291a565b60405180910390fd5b7f0000000000000000000000000000000000000000000000000000000000000000811115610f8b57807f00000000000000000000000000000000000000000000000000000000000000006040517fd1ecfb73000000000000000000000000000000000000000000000000000000008152600401610f8292919061291a565b60405180910390fd5b8060035f3373ffffffffffffffffffffffffffffffffffffffff1673ffffffffffffffffffffffffffffffffffffffff1681526020019081526020015f205f8773ffffffffffffffffffffffffffffffffffffffff1673ffffffffffffffffffffffffffffffffffffffff1681526020019081526020015f205f8282546110129190612a56565b925050819055508060045f8773ffffffffffffffffffffffffffffffffffffffff1673ffffffffffffffffffffffffffffffffffffffff1681526020019081526020015f205f8282546110659190612a56565b925050819055508060055f82825461107d9190612a56565b9250508190555060075f81548092919061109690612a0f565b91905055508473ffffffffffffffffffffffffffffffffffffffff163373ffffffffffffffffffffffffffffffffffffffff167fc6acb54bdd58af37c8d1b8bf2f1a561163c5191551bbd6e74cce66ff7b670c7786846040516110fa92919061291a565b60405180910390a361112d33858773ffffffffffffffffffffffffffffffffffffffff1661223a9092919063ffffffff16565b505050611138612110565b5050565b6111446122b9565b61114d5f612340565b565b611157612096565b805f8103611191576040517fe729dc6400000000000000000000000000000000000000000000000000000000815260040160405180910390fd5b5f61119b836120dc565b90508060035f3373ffffffffffffffffffffffffffffffffffffffff1673ffffffffffffffffffffffffffffffffffffffff1681526020019081526020015f205f8073ffffffffffffffffffffffffffffffffffffffff1673ffffffffffffffffffffffffffffffffffffffff1681526020019081526020015f205410156112d45760035f3373ffffffffffffffffffffffffffffffffffffffff1673ffffffffffffffffffffffffffffffffffffffff1681526020019081526020015f205f8073ffffffffffffffffffffffffffffffffffffffff1673ffffffffffffffffffffffffffffffffffffffff1681526020019081526020015f2054816040517f3b2863650000000000000000000000000000000000000000000000000000000081526004016112cb92919061291a565b60405180910390fd5b7f000000000000000000000000000000000000000000000000000000000000000081111561135b57807f00000000000000000000000000000000000000000000000000000000000000006040517fd1ecfb7300000000000000000000000000000000000000000000000000000000815260040161135292919061291a565b60405180910390fd5b8060035f3373ffffffffffffffffffffffffffffffffffffffff1673ffffffffffffffffffffffffffffffffffffffff1681526020019081526020015f205f8073ffffffffffffffffffffffffffffffffffffffff1673ffffffffffffffffffffffffffffffffffffffff1681526020019081526020015f205f8282546113e29190612a56565b925050819055508060045f8073ffffffffffffffffffffffffffffffffffffffff1673ffffffffffffffffffffffffffffffffffffffff1681526020019081526020015f205f8282546114359190612a56565b925050819055508060055f82825461144d9190612a56565b9250508190555060075f81548092919061146690612a0f565b91905055505f73ffffffffffffffffffffffffffffffffffffffff163373ffffffffffffffffffffffffffffffffffffffff167fc6acb54bdd58af37c8d1b8bf2f1a561163c5191551bbd6e74cce66ff7b670c7785846040516114ca92919061291a565b60405180910390a36114dc3384612401565b50506114e6612110565b50565b5f805f9054906101000a900473ffffffffffffffffffffffffffffffffffffffff16905090565b611518612096565b805f8103611552576040517fe729dc6400000000000000000000000000000000000000000000000000000000815260040160405180910390fd5b7f00000000000000000000000000000000000000000000000000000000000000008211156115d957817f00000000000000000000000000000000000000000000000000000000000000006040517fd1ecfb730000000000000000000000000000000000000000000000000000000081526004016115d092919061291a565b60405180910390fd5b8160035f3373ffffffffffffffffffffffffffffffffffffffff1673ffffffffffffffffffffffffffffffffffffffff1681526020019081526020015f205f7f000000000000000000000000000000000000000000000000000000000000000073ffffffffffffffffffffffffffffffffffffffff1673ffffffffffffffffffffffffffffffffffffffff1681526020019081526020015f205410156117505760035f3373ffffffffffffffffffffffffffffffffffffffff1673ffffffffffffffffffffffffffffffffffffffff1681526020019081526020015f205f7f000000000000000000000000000000000000000000000000000000000000000073ffffffffffffffffffffffffffffffffffffffff1673ffffffffffffffffffffffffffffffffffffffff1681526020019081526020015f2054826040517f3b28636500000000000000000000000000000000000000000000000000000000815260040161174792919061291a565b60405180910390fd5b8160035f3373ffffffffffffffffffffffffffffffffffffffff1673ffffffffffffffffffffffffffffffffffffffff1681526020019081526020015f205f7f000000000000000000000000000000000000000000000000000000000000000073ffffffffffffffffffffffffffffffffffffffff1673ffffffffffffffffffffffffffffffffffffffff1681526020019081526020015f205f8282546117f79190612a56565b925050819055508160045f7f000000000000000000000000000000000000000000000000000000000000000073ffffffffffffffffffffffffffffffffffffffff1673ffffffffffffffffffffffffffffffffffffffff1681526020019081526020015f205f82825461186a9190612a56565b925050819055508160055f8282546118829190612a56565b9250508190555060075f81548092919061189b90612a0f565b91905055507f000000000000000000000000000000000000000000000000000000000000000073ffffffffffffffffffffffffffffffffffffffff163373ffffffffffffffffffffffffffffffffffffffff167fc6acb54bdd58af37c8d1b8bf2f1a561163c5191551bbd6e74cce66ff7b670c77848560405161191f92919061291a565b60405180910390a361197233837f000000000000000000000000000000000000000000000000000000000000000073ffffffffffffffffffffffffffffffffffffffff1661223a9092919063ffffffff16565b5061197b612110565b50565b611986612096565b815f73ffffffffffffffffffffffffffffffffffffffff168173ffffffffffffffffffffffffffffffffffffffff1614158015611a0f57507f000000000000000000000000000000000000000000000000000000000000000073ffffffffffffffffffffffffffffffffffffffff168173ffffffffffffffffffffffffffffffffffffffff1614155b15611a5157806040517f2d5c07b9000000000000000000000000000000000000000000000000000000008152600401611a48919061274f565b60405180910390fd5b815f8103611a8b576040517fe729dc6400000000000000000000000000000000000000000000000000000000815260040160405180910390fd5b5f611a96858561219b565b90507f000000000000000000000000000000000000000000000000000000000000000081600554611ac791906129a7565b1115611b3057600554817f00000000000000000000000000000000000000000000000000000000000000006040517fc9fe79b8000000000000000000000000000000000000000000000000000000008152600401611b27939291906129da565b60405180910390fd5b8060035f3373ffffffffffffffffffffffffffffffffffffffff1673ffffffffffffffffffffffffffffffffffffffff1681526020019081526020015f205f8773ffffffffffffffffffffffffffffffffffffffff1673ffffffffffffffffffffffffffffffffffffffff1681526020019081526020015f205f828254611bb791906129a7565b925050819055508060045f8773ffffffffffffffffffffffffffffffffffffffff1673ffffffffffffffffffffffffffffffffffffffff1681526020019081526020015f205f828254611c0a91906129a7565b925050819055508060055f828254611c2291906129a7565b9250508190555060065f815480929190611c3b90612a0f565b91905055508473ffffffffffffffffffffffffffffffffffffffff163373ffffffffffffffffffffffffffffffffffffffff167f751f8b54c0e32ef5b9fafdbdac0c93c1994cc8848fa17ed7798bd90aae8bfe9b8684604051611c9f92919061291a565b60405180910390a3611cd43330868873ffffffffffffffffffffffffffffffffffffffff16612119909392919063ffffffff16565b505050611cdf612110565b5050565b5f805f805f805f600554965060045f8073ffffffffffffffffffffffffffffffffffffffff1673ffffffffffffffffffffffffffffffffffffffff1681526020019081526020015f2054955060045f7f000000000000000000000000000000000000000000000000000000000000000073ffffffffffffffffffffffffffffffffffffffff1673ffffffffffffffffffffffffffffffffffffffff1681526020019081526020015f20549450600654935060075492507f000000000000000000000000000000000000000000000000000000000000000091507f0000000000000000000000000000000000000000000000000000000000000000905090919293949596565b60025f9054906101000a900473ffffffffffffffffffffffffffffffffffffffff1681565b5f60035f8473ffffffffffffffffffffffffffffffffffffffff1673ffffffffffffffffffffffffffffffffffffffff1681526020019081526020015f205f8373ffffffffffffffffffffffffffffffffffffffff1673ffffffffffffffffffffffffffffffffffffffff1681526020019081526020015f2054905092915050565b611e976122b9565b8060025f6101000a81548173ffffffffffffffffffffffffffffffffffffffff021916908373ffffffffffffffffffffffffffffffffffffffff1602179055508073ffffffffffffffffffffffffffffffffffffffff167f2b87a7a05493a7865dadc5afbb6cedfda3c32f20196d8f45314afa7b32b9401260405160405180910390a250565b5f805f8060025f9054906101000a900473ffffffffffffffffffffffffffffffffffffffff1673ffffffffffffffffffffffffffffffffffffffff1663feaf968c6040518163ffffffff1660e01b815260040160a060405180830381865afa158015611f8b573d5f803e3d5ffd5b505050506040513d601f19601f82011682018060405250810190611faf9190612b0f565b5093505092505081935080925050509091565b60075481565b6003602052815f5260405f20602052805f5260405f205f91509150505481565b60055481565b611ff66122b9565b5f73ffffffffffffffffffffffffffffffffffffffff168173ffffffffffffffffffffffffffffffffffffffff1603612066575f6040517f1e4fbdf700000000000000000000000000000000000000000000000000000000815260040161205d919061274f565b60405180910390fd5b61206f81612340565b50565b7f000000000000000000000000000000000000000000000000000000000000000081565b6002600154036120d2576040517f3ee5aeb500000000000000000000000000000000000000000000000000000000815260040160405180910390fd5b6002600181905550565b5f806120e66124b0565b905068056bc75e2d6310000081846120fe9190612b86565b6121089190612bf4565b915050919050565b60018081905550565b612195848573ffffffffffffffffffffffffffffffffffffffff166323b872dd86868660405160240161214e93929190612c24565b604051602081830303815290604052915060e01b6020820180517bffffffffffffffffffffffffffffffffffffffffffffffffffffffff83818316178352505050506125e4565b50505050565b5f7f000000000000000000000000000000000000000000000000000000000000000073ffffffffffffffffffffffffffffffffffffffff168373ffffffffffffffffffffffffffffffffffffffff16036121f757819050612234565b826040517f2d5c07b900000000000000000000000000000000000000000000000000000000815260040161222b919061274f565b60405180910390fd5b92915050565b6122b4838473ffffffffffffffffffffffffffffffffffffffff1663a9059cbb858560405160240161226d929190612c59565b604051602081830303815290604052915060e01b6020820180517bffffffffffffffffffffffffffffffffffffffffffffffffffffffff83818316178352505050506125e4565b505050565b6122c161267f565b73ffffffffffffffffffffffffffffffffffffffff166122df6114e9565b73ffffffffffffffffffffffffffffffffffffffff161461233e5761230261267f565b6040517f118cdaa7000000000000000000000000000000000000000000000000000000008152600401612335919061274f565b60405180910390fd5b565b5f805f9054906101000a900473ffffffffffffffffffffffffffffffffffffffff169050815f806101000a81548173ffffffffffffffffffffffffffffffffffffffff021916908373ffffffffffffffffffffffffffffffffffffffff1602179055508173ffffffffffffffffffffffffffffffffffffffff168173ffffffffffffffffffffffffffffffffffffffff167f8be0079c531659141344cd1fd0a4f28419497f9722a3daafe3b4186f6b6457e060405160405180910390a35050565b5f8273ffffffffffffffffffffffffffffffffffffffff168260405161242690612cad565b5f6040518083038185875af1925050503d805f8114612460576040519150601f19603f3d011682016040523d82523d5f602084013e612465565b606091505b50509050806124ab57826040517f71404a420000000000000000000000000000000000000000000000000000000081526004016124a2919061274f565b60405180910390fd5b505050565b5f805f60025f9054906101000a900473ffffffffffffffffffffffffffffffffffffffff1673ffffffffffffffffffffffffffffffffffffffff1663feaf968c6040518163ffffffff1660e01b815260040160a060405180830381865afa15801561251d573d5f803e3d5ffd5b505050506040513d601f19601f820116820180604052508101906125419190612b0f565b509350509250505f8213612581576040517f63f585c200000000000000000000000000000000000000000000000000000000815260040160405180910390fd5b5f814261258e9190612a56565b9050610e108111156125db5780610e106040517f74937df30000000000000000000000000000000000000000000000000000000081526004016125d292919061291a565b60405180910390fd5b82935050505090565b5f8060205f8451602086015f885af180612603576040513d5f823e3d81fd5b3d92505f519150505f821461261c576001811415612637565b5f8473ffffffffffffffffffffffffffffffffffffffff163b145b1561267957836040517f5274afe7000000000000000000000000000000000000000000000000000000008152600401612670919061274f565b60405180910390fd5b50505050565b5f33905090565b5f819050919050565b61269881612686565b82525050565b5f6020820190506126b15f83018461268f565b92915050565b5f80fd5b5f73ffffffffffffffffffffffffffffffffffffffff82169050919050565b5f6126e4826126bb565b9050919050565b6126f4816126da565b81146126fe575f80fd5b50565b5f8135905061270f816126eb565b92915050565b5f6020828403121561272a576127296126b7565b5b5f61273784828501612701565b91505092915050565b612749816126da565b82525050565b5f6020820190506127625f830184612740565b92915050565b61277181612686565b811461277b575f80fd5b50565b5f8135905061278c81612768565b92915050565b5f602082840312156127a7576127a66126b7565b5b5f6127b48482850161277e565b91505092915050565b5f80604083850312156127d3576127d26126b7565b5b5f6127e085828601612701565b92505060206127f18582860161277e565b9150509250929050565b5f60e08201905061280e5f83018a61268f565b61281b602083018961268f565b612828604083018861268f565b612835606083018761268f565b612842608083018661268f565b61284f60a083018561268f565b61285c60c083018461268f565b98975050505050505050565b5f819050919050565b5f61288b612886612881846126bb565b612868565b6126bb565b9050919050565b5f61289c82612871565b9050919050565b5f6128ad82612892565b9050919050565b6128bd816128a3565b82525050565b5f6020820190506128d65f8301846128b4565b92915050565b5f80604083850312156128f2576128f16126b7565b5b5f6128ff85828601612701565b925050602061291085828601612701565b9150509250929050565b5f60408201905061292d5f83018561268f565b61293a602083018461268f565b9392505050565b5f61294b82612892565b9050919050565b61295b81612941565b82525050565b5f6020820190506129745f830184612952565b92915050565b7f4e487b71000000000000000000000000000000000000000000000000000000005f52601160045260245ffd5b5f6129b182612686565b91506129bc83612686565b92508282019050808211156129d4576129d361297a565b5b92915050565b5f6060820190506129ed5f83018661268f565b6129fa602083018561268f565b612a07604083018461268f565b949350505050565b5f612a1982612686565b91507fffffffffffffffffffffffffffffffffffffffffffffffffffffffffffffffff8203612a4b57612a4a61297a565b5b600182019050919050565b5f612a6082612686565b9150612a6b83612686565b9250828203905081811115612a8357612a8261297a565b5b92915050565b5f69ffffffffffffffffffff82169050919050565b612aa781612a89565b8114612ab1575f80fd5b50565b5f81519050612ac281612a9e565b92915050565b5f819050919050565b612ada81612ac8565b8114612ae4575f80fd5b50565b5f81519050612af581612ad1565b92915050565b5f81519050612b0981612768565b92915050565b5f805f805f60a08688031215612b2857612b276126b7565b5b5f612b3588828901612ab4565b9550506020612b4688828901612ae7565b9450506040612b5788828901612afb565b9350506060612b6888828901612afb565b9250506080612b7988828901612ab4565b9150509295509295909350565b5f612b9082612686565b9150612b9b83612686565b9250828202612ba981612686565b91508282048414831517612bc057612bbf61297a565b5b5092915050565b7f4e487b71000000000000000000000000000000000000000000000000000000005f52601260045260245ffd5b5f612bfe82612686565b9150612c0983612686565b925082612c1957612c18612bc7565b5b828204905092915050565b5f606082019050612c375f830186612740565b612c446020830185612740565b612c51604083018461268f565b949350505050565b5f604082019050612c6c5f830185612740565b612c79602083018461268f565b9392505050565b5f81905092915050565b50565b5f612c985f83612c80565b9150612ca382612c8a565b5f82019050919050565b5f612cb782612c8d565b915081905091905056fea26469706673582212207aa77aaa5386ae58c8f25ae37ebb006a3934a329638c8fe9a1b91d25c6af04dc64736f6c634300081a0033",
					"opcodes": "PUSH1 0xE0 PUSH1 0x40 MSTORE CALLVALUE DUP1 ISZERO PUSH2 0xF JUMPI PUSH0 DUP1 REVERT JUMPDEST POP PUSH1 0x40 MLOAD PUSH2 0x30D8 CODESIZE SUB DUP1 PUSH2 0x30D8 DUP4 CODECOPY DUP2 DUP2 ADD PUSH1 0x40 MSTORE DUP2 ADD SWAP1 PUSH2 0x31 SWAP2 SWAP1 PUSH2 0x292 JUMP JUMPDEST DUP1 PUSH0 PUSH20 0xFFFFFFFFFFFFFFFFFFFFFFFFFFFFFFFFFFFFFFFF AND DUP2 PUSH20 0xFFFFFFFFFFFFFFFFFFFFFFFFFFFFFFFFFFFFFFFF AND SUB PUSH2 0xA2 JUMPI PUSH0 PUSH1 0x40 MLOAD PUSH32 0x1E4FBDF700000000000000000000000000000000000000000000000000000000 DUP2 MSTORE PUSH1 0x4 ADD PUSH2 0x99 SWAP2 SWAP1 PUSH2 0x2CC JUMP JUMPDEST PUSH1 0x40 MLOAD DUP1 SWAP2 SUB SWAP1 REVERT JUMPDEST PUSH2 0xB1 DUP2 PUSH2 0x173 PUSH1 0x20 SHL PUSH1 0x20 SHR JUMP JUMPDEST POP PUSH1 0x1 DUP1 DUP2 SWAP1 SSTORE POP PUSH4 0x3B9ACA00 PUSH1 0x80 DUP2 DUP2 MSTORE POP POP PUSH4 0x5F5E100 PUSH1 0xA0 DUP2 DUP2 MSTORE POP POP PUSH20 0x694AA1769357215DE4FAC081BF1F309ADC325306 PUSH1 0x2 PUSH0 PUSH2 0x100 EXP DUP2 SLOAD DUP2 PUSH20 0xFFFFFFFFFFFFFFFFFFFFFFFFFFFFFFFFFFFFFFFF MUL NOT AND SWAP1 DUP4 PUSH20 0xFFFFFFFFFFFFFFFFFFFFFFFFFFFFFFFFFFFFFFFF AND MUL OR SWAP1 SSTORE POP PUSH20 0x1C7D4B196CB0C7B01D743FBC6116A902379C7238 PUSH20 0xFFFFFFFFFFFFFFFFFFFFFFFFFFFFFFFFFFFFFFFF AND PUSH1 0xC0 DUP2 PUSH20 0xFFFFFFFFFFFFFFFFFFFFFFFFFFFFFFFFFFFFFFFF AND DUP2 MSTORE POP POP POP PUSH2 0x2E5 JUMP JUMPDEST PUSH0 DUP1 PUSH0 SWAP1 SLOAD SWAP1 PUSH2 0x100 EXP SWAP1 DIV PUSH20 0xFFFFFFFFFFFFFFFFFFFFFFFFFFFFFFFFFFFFFFFF AND SWAP1 POP DUP2 PUSH0 DUP1 PUSH2 0x100 EXP DUP2 SLOAD DUP2 PUSH20 0xFFFFFFFFFFFFFFFFFFFFFFFFFFFFFFFFFFFFFFFF MUL NOT AND SWAP1 DUP4 PUSH20 0xFFFFFFFFFFFFFFFFFFFFFFFFFFFFFFFFFFFFFFFF AND MUL OR SWAP1 SSTORE POP DUP2 PUSH20 0xFFFFFFFFFFFFFFFFFFFFFFFFFFFFFFFFFFFFFFFF AND DUP2 PUSH20 0xFFFFFFFFFFFFFFFFFFFFFFFFFFFFFFFFFFFFFFFF AND PUSH32 0x8BE0079C531659141344CD1FD0A4F28419497F9722A3DAAFE3B4186F6B6457E0 PUSH1 0x40 MLOAD PUSH1 0x40 MLOAD DUP1 SWAP2 SUB SWAP1 LOG3 POP POP JUMP JUMPDEST PUSH0 DUP1 REVERT JUMPDEST PUSH0 PUSH20 0xFFFFFFFFFFFFFFFFFFFFFFFFFFFFFFFFFFFFFFFF DUP3 AND SWAP1 POP SWAP2 SWAP1 POP JUMP JUMPDEST PUSH0 PUSH2 0x261 DUP3 PUSH2 0x238 JUMP JUMPDEST SWAP1 POP SWAP2 SWAP1 POP JUMP JUMPDEST PUSH2 0x271 DUP2 PUSH2 0x257 JUMP JUMPDEST DUP2 EQ PUSH2 0x27B JUMPI PUSH0 DUP1 REVERT JUMPDEST POP JUMP JUMPDEST PUSH0 DUP2 MLOAD SWAP1 POP PUSH2 0x28C DUP2 PUSH2 0x268 JUMP JUMPDEST SWAP3 SWAP2 POP POP JUMP JUMPDEST PUSH0 PUSH1 0x20 DUP3 DUP5 SUB SLT ISZERO PUSH2 0x2A7 JUMPI PUSH2 0x2A6 PUSH2 0x234 JUMP JUMPDEST JUMPDEST PUSH0 PUSH2 0x2B4 DUP5 DUP3 DUP6 ADD PUSH2 0x27E JUMP JUMPDEST SWAP2 POP POP SWAP3 SWAP2 POP POP JUMP JUMPDEST PUSH2 0x2C6 DUP2 PUSH2 0x257 JUMP JUMPDEST DUP3 MSTORE POP POP JUMP JUMPDEST PUSH0 PUSH1 0x20 DUP3 ADD SWAP1 POP PUSH2 0x2DF PUSH0 DUP4 ADD DUP5 PUSH2 0x2BD JUMP JUMPDEST SWAP3 SWAP2 POP POP JUMP JUMPDEST PUSH1 0x80 MLOAD PUSH1 0xA0 MLOAD PUSH1 0xC0 MLOAD PUSH2 0x2CF7 PUSH2 0x3E1 PUSH0 CODECOPY PUSH0 DUP2 DUP2 PUSH2 0x8C6 ADD MSTORE DUP2 DUP2 PUSH2 0xAC4 ADD MSTORE DUP2 DUP2 PUSH2 0xB37 ADD MSTORE DUP2 DUP2 PUSH2 0xBD5 ADD MSTORE DUP2 DUP2 PUSH2 0xC62 ADD MSTORE DUP2 DUP2 PUSH2 0xCF5 ADD MSTORE DUP2 DUP2 PUSH2 0x161A ADD MSTORE DUP2 DUP2 PUSH2 0x16B9 ADD MSTORE DUP2 DUP2 PUSH2 0x1791 ADD MSTORE DUP2 DUP2 PUSH2 0x1804 ADD MSTORE DUP2 DUP2 PUSH2 0x18A2 ADD MSTORE DUP2 DUP2 PUSH2 0x192E ADD MSTORE DUP2 DUP2 PUSH2 0x19C0 ADD MSTORE DUP2 DUP2 PUSH2 0x1D34 ADD MSTORE DUP2 DUP2 PUSH2 0x2074 ADD MSTORE PUSH2 0x219E ADD MSTORE PUSH0 DUP2 DUP2 PUSH2 0x824 ADD MSTORE DUP2 DUP2 PUSH2 0x863 ADD MSTORE DUP2 DUP2 PUSH2 0xF06 ADD MSTORE DUP2 DUP2 PUSH2 0xF2F ADD MSTORE DUP2 DUP2 PUSH2 0x12D6 ADD MSTORE DUP2 DUP2 PUSH2 0x12FF ADD MSTORE DUP2 DUP2 PUSH2 0x1554 ADD MSTORE DUP2 DUP2 PUSH2 0x157D ADD MSTORE PUSH2 0x1DBE ADD MSTORE PUSH0 DUP2 DUP2 PUSH2 0x592 ADD MSTORE DUP2 DUP2 PUSH2 0x603 ADD MSTORE DUP2 DUP2 PUSH2 0x63C ADD MSTORE DUP2 DUP2 PUSH2 0x9ED ADD MSTORE DUP2 DUP2 PUSH2 0xA26 ADD MSTORE DUP2 DUP2 PUSH2 0x1A9A ADD MSTORE DUP2 DUP2 PUSH2 0x1AD3 ADD MSTORE PUSH2 0x1D9B ADD MSTORE PUSH2 0x2CF7 PUSH0 RETURN INVALID PUSH1 0x80 PUSH1 0x40 MSTORE PUSH1 0x4 CALLDATASIZE LT PUSH2 0x165 JUMPI PUSH0 CALLDATALOAD PUSH1 0xE0 SHR DUP1 PUSH4 0x8DA5CB5B GT PUSH2 0xD0 JUMPI DUP1 PUSH4 0xD30451E7 GT PUSH2 0x89 JUMPI DUP1 PUSH4 0xDCCD58E3 GT PUSH2 0x63 JUMPI DUP1 PUSH4 0xDCCD58E3 EQ PUSH2 0x4D8 JUMPI DUP1 PUSH4 0xE98C6601 EQ PUSH2 0x514 JUMPI DUP1 PUSH4 0xF2FDE38B EQ PUSH2 0x53E JUMPI DUP1 PUSH4 0xFF40E1D0 EQ PUSH2 0x566 JUMPI PUSH2 0x165 JUMP JUMPDEST DUP1 PUSH4 0xD30451E7 EQ PUSH2 0x45B JUMPI DUP1 PUSH4 0xD4289D89 EQ PUSH2 0x483 JUMPI DUP1 PUSH4 0xD4B0D3CE EQ PUSH2 0x4AE JUMPI PUSH2 0x165 JUMP JUMPDEST DUP1 PUSH4 0x8DA5CB5B EQ PUSH2 0x34B JUMPI DUP1 PUSH4 0x931FB90E EQ PUSH2 0x375 JUMPI DUP1 PUSH4 0xA86B0BF6 EQ PUSH2 0x39D JUMPI DUP1 PUSH4 0xABC9CD6D EQ PUSH2 0x3C5 JUMPI DUP1 PUSH4 0xB9EB1C9A EQ PUSH2 0x3F5 JUMPI DUP1 PUSH4 0xC3B5BC22 EQ PUSH2 0x41F JUMPI PUSH2 0x165 JUMP JUMPDEST DUP1 PUSH4 0x3EAA00FB GT PUSH2 0x122 JUMPI DUP1 PUSH4 0x3EAA00FB EQ PUSH2 0x257 JUMPI DUP1 PUSH4 0x501CB72D EQ PUSH2 0x281 JUMPI DUP1 PUSH4 0x698B7241 EQ PUSH2 0x2BD JUMPI DUP1 PUSH4 0x6A5F2407 EQ PUSH2 0x2E5 JUMPI DUP1 PUSH4 0x715018A6 EQ PUSH2 0x30D JUMPI DUP1 PUSH4 0x82FE54B5 EQ PUSH2 0x323 JUMPI PUSH2 0x165 JUMP JUMPDEST DUP1 PUSH4 0xCCEE433 EQ PUSH2 0x169 JUMPI DUP1 PUSH4 0x16A1930F EQ PUSH2 0x193 JUMPI DUP1 PUSH4 0x2230C272 EQ PUSH2 0x19D JUMPI DUP1 PUSH4 0x2B513163 EQ PUSH2 0x1C7 JUMPI DUP1 PUSH4 0x2FDA583E EQ PUSH2 0x1F1 JUMPI DUP1 PUSH4 0x31F7D964 EQ PUSH2 0x22D JUMPI JUMPDEST PUSH0 DUP1 REVERT JUMPDEST CALLVALUE DUP1 ISZERO PUSH2 0x174 JUMPI PUSH0 DUP1 REVERT JUMPDEST POP PUSH2 0x17D PUSH2 0x590 JUMP JUMPDEST PUSH1 0x40 MLOAD PUSH2 0x18A SWAP2 SWAP1 PUSH2 0x269E JUMP JUMPDEST PUSH1 0x40 MLOAD DUP1 SWAP2 SUB SWAP1 RETURN JUMPDEST PUSH2 0x19B PUSH2 0x5B4 JUMP JUMPDEST STOP JUMPDEST CALLVALUE DUP1 ISZERO PUSH2 0x1A8 JUMPI PUSH0 DUP1 REVERT JUMPDEST POP PUSH2 0x1B1 PUSH2 0x81B JUMP JUMPDEST PUSH1 0x40 MLOAD PUSH2 0x1BE SWAP2 SWAP1 PUSH2 0x269E JUMP JUMPDEST PUSH1 0x40 MLOAD DUP1 SWAP2 SUB SWAP1 RETURN JUMPDEST CALLVALUE DUP1 ISZERO PUSH2 0x1D2 JUMPI PUSH0 DUP1 REVERT JUMPDEST POP PUSH2 0x1DB PUSH2 0x821 JUMP JUMPDEST PUSH1 0x40 MLOAD PUSH2 0x1E8 SWAP2 SWAP1 PUSH2 0x269E JUMP JUMPDEST PUSH1 0x40 MLOAD DUP1 SWAP2 SUB SWAP1 RETURN JUMPDEST CALLVALUE DUP1 ISZERO PUSH2 0x1FC JUMPI PUSH0 DUP1 REVERT JUMPDEST POP PUSH2 0x217 PUSH1 0x4 DUP1 CALLDATASIZE SUB DUP2 ADD SWAP1 PUSH2 0x212 SWAP2 SWAP1 PUSH2 0x2715 JUMP JUMPDEST PUSH2 0x848 JUMP JUMPDEST PUSH1 0x40 MLOAD PUSH2 0x224 SWAP2 SWAP1 PUSH2 0x269E JUMP JUMPDEST PUSH1 0x40 MLOAD DUP1 SWAP2 SUB SWAP1 RETURN JUMPDEST CALLVALUE DUP1 ISZERO PUSH2 0x238 JUMPI PUSH0 DUP1 REVERT JUMPDEST POP PUSH2 0x241 PUSH2 0x85D JUMP JUMPDEST PUSH1 0x40 MLOAD PUSH2 0x24E SWAP2 SWAP1 PUSH2 0x274F JUMP JUMPDEST PUSH1 0x40 MLOAD DUP1 SWAP2 SUB SWAP1 RETURN JUMPDEST CALLVALUE DUP1 ISZERO PUSH2 0x262 JUMPI PUSH0 DUP1 REVERT JUMPDEST POP PUSH2 0x26B PUSH2 0x861 JUMP JUMPDEST PUSH1 0x40 MLOAD PUSH2 0x278 SWAP2 SWAP1 PUSH2 0x269E JUMP JUMPDEST PUSH1 0x40 MLOAD DUP1 SWAP2 SUB SWAP1 RETURN JUMPDEST CALLVALUE DUP1 ISZERO PUSH2 0x28C JUMPI PUSH0 DUP1 REVERT JUMPDEST POP PUSH2 0x2A7 PUSH1 0x4 DUP1 CALLDATASIZE SUB DUP2 ADD SWAP1 PUSH2 0x2A2 SWAP2 SWAP1 PUSH2 0x2715 JUMP JUMPDEST PUSH2 0x885 JUMP JUMPDEST PUSH1 0x40 MLOAD PUSH2 0x2B4 SWAP2 SWAP1 PUSH2 0x269E JUMP JUMPDEST PUSH1 0x40 MLOAD DUP1 SWAP2 SUB SWAP1 RETURN JUMPDEST CALLVALUE DUP1 ISZERO PUSH2 0x2C8 JUMPI PUSH0 DUP1 REVERT JUMPDEST POP PUSH2 0x2E3 PUSH1 0x4 DUP1 CALLDATASIZE SUB DUP2 ADD SWAP1 PUSH2 0x2DE SWAP2 SWAP1 PUSH2 0x2792 JUMP JUMPDEST PUSH2 0x9A9 JUMP JUMPDEST STOP JUMPDEST CALLVALUE DUP1 ISZERO PUSH2 0x2F0 JUMPI PUSH0 DUP1 REVERT JUMPDEST POP PUSH2 0x30B PUSH1 0x4 DUP1 CALLDATASIZE SUB DUP2 ADD SWAP1 PUSH2 0x306 SWAP2 SWAP1 PUSH2 0x27BD JUMP JUMPDEST PUSH2 0xCB3 JUMP JUMPDEST STOP JUMPDEST CALLVALUE DUP1 ISZERO PUSH2 0x318 JUMPI PUSH0 DUP1 REVERT JUMPDEST POP PUSH2 0x321 PUSH2 0x113C JUMP JUMPDEST STOP JUMPDEST CALLVALUE DUP1 ISZERO PUSH2 0x32E JUMPI PUSH0 DUP1 REVERT JUMPDEST POP PUSH2 0x349 PUSH1 0x4 DUP1 CALLDATASIZE SUB DUP2 ADD SWAP1 PUSH2 0x344 SWAP2 SWAP1 PUSH2 0x2792 JUMP JUMPDEST PUSH2 0x114F JUMP JUMPDEST STOP JUMPDEST CALLVALUE DUP1 ISZERO PUSH2 0x356 JUMPI PUSH0 DUP1 REVERT JUMPDEST POP PUSH2 0x35F PUSH2 0x14E9 JUMP JUMPDEST PUSH1 0x40 MLOAD PUSH2 0x36C SWAP2 SWAP1 PUSH2 0x274F JUMP JUMPDEST PUSH1 0x40 MLOAD DUP1 SWAP2 SUB SWAP1 RETURN JUMPDEST CALLVALUE DUP1 ISZERO PUSH2 0x380 JUMPI PUSH0 DUP1 REVERT JUMPDEST POP PUSH2 0x39B PUSH1 0x4 DUP1 CALLDATASIZE SUB DUP2 ADD SWAP1 PUSH2 0x396 SWAP2 SWAP1 PUSH2 0x2792 JUMP JUMPDEST PUSH2 0x1510 JUMP JUMPDEST STOP JUMPDEST CALLVALUE DUP1 ISZERO PUSH2 0x3A8 JUMPI PUSH0 DUP1 REVERT JUMPDEST POP PUSH2 0x3C3 PUSH1 0x4 DUP1 CALLDATASIZE SUB DUP2 ADD SWAP1 PUSH2 0x3BE SWAP2 SWAP1 PUSH2 0x27BD JUMP JUMPDEST PUSH2 0x197E JUMP JUMPDEST STOP JUMPDEST CALLVALUE DUP1 ISZERO PUSH2 0x3D0 JUMPI PUSH0 DUP1 REVERT JUMPDEST POP PUSH2 0x3D9 PUSH2 0x1CE3 JUMP JUMPDEST PUSH1 0x40 MLOAD PUSH2 0x3EC SWAP8 SWAP7 SWAP6 SWAP5 SWAP4 SWAP3 SWAP2 SWAP1 PUSH2 0x27FB JUMP JUMPDEST PUSH1 0x40 MLOAD DUP1 SWAP2 SUB SWAP1 RETURN JUMPDEST CALLVALUE DUP1 ISZERO PUSH2 0x400 JUMPI PUSH0 DUP1 REVERT JUMPDEST POP PUSH2 0x409 PUSH2 0x1DE8 JUMP JUMPDEST PUSH1 0x40 MLOAD PUSH2 0x416 SWAP2 SWAP1 PUSH2 0x28C3 JUMP JUMPDEST PUSH1 0x40 MLOAD DUP1 SWAP2 SUB SWAP1 RETURN JUMPDEST CALLVALUE DUP1 ISZERO PUSH2 0x42A JUMPI PUSH0 DUP1 REVERT JUMPDEST POP PUSH2 0x445 PUSH1 0x4 DUP1 CALLDATASIZE SUB DUP2 ADD SWAP1 PUSH2 0x440 SWAP2 SWAP1 PUSH2 0x28DC JUMP JUMPDEST PUSH2 0x1E0D JUMP JUMPDEST PUSH1 0x40 MLOAD PUSH2 0x452 SWAP2 SWAP1 PUSH2 0x269E JUMP JUMPDEST PUSH1 0x40 MLOAD DUP1 SWAP2 SUB SWAP1 RETURN JUMPDEST CALLVALUE DUP1 ISZERO PUSH2 0x466 JUMPI PUSH0 DUP1 REVERT JUMPDEST POP PUSH2 0x481 PUSH1 0x4 DUP1 CALLDATASIZE SUB DUP2 ADD SWAP1 PUSH2 0x47C SWAP2 SWAP1 PUSH2 0x2715 JUMP JUMPDEST PUSH2 0x1E8F JUMP JUMPDEST STOP JUMPDEST CALLVALUE DUP1 ISZERO PUSH2 0x48E JUMPI PUSH0 DUP1 REVERT JUMPDEST POP PUSH2 0x497 PUSH2 0x1F1D JUMP JUMPDEST PUSH1 0x40 MLOAD PUSH2 0x4A5 SWAP3 SWAP2 SWAP1 PUSH2 0x291A JUMP JUMPDEST PUSH1 0x40 MLOAD DUP1 SWAP2 SUB SWAP1 RETURN JUMPDEST CALLVALUE DUP1 ISZERO PUSH2 0x4B9 JUMPI PUSH0 DUP1 REVERT JUMPDEST POP PUSH2 0x4C2 PUSH2 0x1FC2 JUMP JUMPDEST PUSH1 0x40 MLOAD PUSH2 0x4CF SWAP2 SWAP1 PUSH2 0x269E JUMP JUMPDEST PUSH1 0x40 MLOAD DUP1 SWAP2 SUB SWAP1 RETURN JUMPDEST CALLVALUE DUP1 ISZERO PUSH2 0x4E3 JUMPI PUSH0 DUP1 REVERT JUMPDEST POP PUSH2 0x4FE PUSH1 0x4 DUP1 CALLDATASIZE SUB DUP2 ADD SWAP1 PUSH2 0x4F9 SWAP2 SWAP1 PUSH2 0x28DC JUMP JUMPDEST PUSH2 0x1FC8 JUMP JUMPDEST PUSH1 0x40 MLOAD PUSH2 0x50B SWAP2 SWAP1 PUSH2 0x269E JUMP JUMPDEST PUSH1 0x40 MLOAD DUP1 SWAP2 SUB SWAP1 RETURN JUMPDEST CALLVALUE DUP1 ISZERO PUSH2 0x51F JUMPI PUSH0 DUP1 REVERT JUMPDEST POP PUSH2 0x528 PUSH2 0x1FE8 JUMP JUMPDEST PUSH1 0x40 MLOAD PUSH2 0x535 SWAP2 SWAP1 PUSH2 0x269E JUMP JUMPDEST PUSH1 0x40 MLOAD DUP1 SWAP2 SUB SWAP1 RETURN JUMPDEST CALLVALUE DUP1 ISZERO PUSH2 0x549 JUMPI PUSH0 DUP1 REVERT JUMPDEST POP PUSH2 0x564 PUSH1 0x4 DUP1 CALLDATASIZE SUB DUP2 ADD SWAP1 PUSH2 0x55F SWAP2 SWAP1 PUSH2 0x2715 JUMP JUMPDEST PUSH2 0x1FEE JUMP JUMPDEST STOP JUMPDEST CALLVALUE DUP1 ISZERO PUSH2 0x571 JUMPI PUSH0 DUP1 REVERT JUMPDEST POP PUSH2 0x57A PUSH2 0x2072 JUMP JUMPDEST PUSH1 0x40 MLOAD PUSH2 0x587 SWAP2 SWAP1 PUSH2 0x2961 JUMP JUMPDEST PUSH1 0x40 MLOAD DUP1 SWAP2 SUB SWAP1 RETURN JUMPDEST PUSH32 0x0 DUP2 JUMP JUMPDEST PUSH2 0x5BC PUSH2 0x2096 JUMP JUMPDEST PUSH0 CALLVALUE SUB PUSH2 0x5F5 JUMPI PUSH1 0x40 MLOAD PUSH32 0xE729DC6400000000000000000000000000000000000000000000000000000000 DUP2 MSTORE PUSH1 0x4 ADD PUSH1 0x40 MLOAD DUP1 SWAP2 SUB SWAP1 REVERT JUMPDEST PUSH0 PUSH2 0x5FF CALLVALUE PUSH2 0x20DC JUMP JUMPDEST SWAP1 POP PUSH32 0x0 DUP2 PUSH1 0x5 SLOAD PUSH2 0x630 SWAP2 SWAP1 PUSH2 0x29A7 JUMP JUMPDEST GT ISZERO PUSH2 0x699 JUMPI PUSH1 0x5 SLOAD DUP2 PUSH32 0x0 PUSH1 0x40 MLOAD PUSH32 0xC9FE79B800000000000000000000000000000000000000000000000000000000 DUP2 MSTORE PUSH1 0x4 ADD PUSH2 0x690 SWAP4 SWAP3 SWAP2 SWAP1 PUSH2 0x29DA JUMP JUMPDEST PUSH1 0x40 MLOAD DUP1 SWAP2 SUB SWAP1 REVERT JUMPDEST DUP1 PUSH1 0x3 PUSH0 CALLER PUSH20 0xFFFFFFFFFFFFFFFFFFFFFFFFFFFFFFFFFFFFFFFF AND PUSH20 0xFFFFFFFFFFFFFFFFFFFFFFFFFFFFFFFFFFFFFFFF AND DUP2 MSTORE PUSH1 0x20 ADD SWAP1 DUP2 MSTORE PUSH1 0x20 ADD PUSH0 KECCAK256 PUSH0 DUP1 PUSH20 0xFFFFFFFFFFFFFFFFFFFFFFFFFFFFFFFFFFFFFFFF AND PUSH20 0xFFFFFFFFFFFFFFFFFFFFFFFFFFFFFFFFFFFFFFFF AND DUP2 MSTORE PUSH1 0x20 ADD SWAP1 DUP2 MSTORE PUSH1 0x20 ADD PUSH0 KECCAK256 PUSH0 DUP3 DUP3 SLOAD PUSH2 0x720 SWAP2 SWAP1 PUSH2 0x29A7 JUMP JUMPDEST SWAP3 POP POP DUP2 SWAP1 SSTORE POP DUP1 PUSH1 0x4 PUSH0 DUP1 PUSH20 0xFFFFFFFFFFFFFFFFFFFFFFFFFFFFFFFFFFFFFFFF AND PUSH20 0xFFFFFFFFFFFFFFFFFFFFFFFFFFFFFFFFFFFFFFFF AND DUP2 MSTORE PUSH1 0x20 ADD SWAP1 DUP2 MSTORE PUSH1 0x20 ADD PUSH0 KECCAK256 PUSH0 DUP3 DUP3 SLOAD PUSH2 0x773 SWAP2 SWAP1 PUSH2 0x29A7 JUMP JUMPDEST SWAP3 POP POP DUP2 SWAP1 SSTORE POP DUP1 PUSH1 0x5 PUSH0 DUP3 DUP3 SLOAD PUSH2 0x78B SWAP2 SWAP1 PUSH2 0x29A7 JUMP JUMPDEST SWAP3 POP POP DUP2 SWAP1 SSTORE POP PUSH1 0x6 PUSH0 DUP2 SLOAD DUP1 SWAP3 SWAP2 SWAP1 PUSH2 0x7A4 SWAP1 PUSH2 0x2A0F JUMP JUMPDEST SWAP2 SWAP1 POP SSTORE POP PUSH0 PUSH20 0xFFFFFFFFFFFFFFFFFFFFFFFFFFFFFFFFFFFFFFFF AND CALLER PUSH20 0xFFFFFFFFFFFFFFFFFFFFFFFFFFFFFFFFFFFFFFFF AND PUSH32 0x751F8B54C0E32EF5B9FAFDBDAC0C93C1994CC8848FA17ED7798BD90AAE8BFE9B CALLVALUE DUP5 PUSH1 0x40 MLOAD PUSH2 0x808 SWAP3 SWAP2 SWAP1 PUSH2 0x291A JUMP JUMPDEST PUSH1 0x40 MLOAD DUP1 SWAP2 SUB SWAP1 LOG3 POP PUSH2 0x819 PUSH2 0x2110 JUMP JUMPDEST JUMP JUMPDEST PUSH1 0x6 SLOAD DUP2 JUMP JUMPDEST PUSH0 PUSH32 0x0 SWAP1 POP SWAP1 JUMP JUMPDEST PUSH1 0x4 PUSH1 0x20 MSTORE DUP1 PUSH0 MSTORE PUSH1 0x40 PUSH0 KECCAK256 PUSH0 SWAP2 POP SWAP1 POP SLOAD DUP2 JUMP JUMPDEST PUSH0 DUP2 JUMP JUMPDEST PUSH32 0x0 DUP2 JUMP JUMPDEST PUSH0 PUSH1 0x3 PUSH0 DUP4 PUSH20 0xFFFFFFFFFFFFFFFFFFFFFFFFFFFFFFFFFFFFFFFF AND PUSH20 0xFFFFFFFFFFFFFFFFFFFFFFFFFFFFFFFFFFFFFFFF AND DUP2 MSTORE PUSH1 0x20 ADD SWAP1 DUP2 MSTORE PUSH1 0x20 ADD PUSH0 KECCAK256 PUSH0 PUSH32 0x0 PUSH20 0xFFFFFFFFFFFFFFFFFFFFFFFFFFFFFFFFFFFFFFFF AND PUSH20 0xFFFFFFFFFFFFFFFFFFFFFFFFFFFFFFFFFFFFFFFF AND DUP2 MSTORE PUSH1 0x20 ADD SWAP1 DUP2 MSTORE PUSH1 0x20 ADD PUSH0 KECCAK256 SLOAD PUSH1 0x3 PUSH0 DUP5 PUSH20 0xFFFFFFFFFFFFFFFFFFFFFFFFFFFFFFFFFFFFFFFF AND PUSH20 0xFFFFFFFFFFFFFFFFFFFFFFFFFFFFFFFFFFFFFFFF AND DUP2 MSTORE PUSH1 0x20 ADD SWAP1 DUP2 MSTORE PUSH1 0x20 ADD PUSH0 KECCAK256 PUSH0 DUP1 PUSH20 0xFFFFFFFFFFFFFFFFFFFFFFFFFFFFFFFFFFFFFFFF AND PUSH20 0xFFFFFFFFFFFFFFFFFFFFFFFFFFFFFFFFFFFFFFFF AND DUP2 MSTORE PUSH1 0x20 ADD SWAP1 DUP2 MSTORE PUSH1 0x20 ADD PUSH0 KECCAK256 SLOAD PUSH2 0x9A2 SWAP2 SWAP1 PUSH2 0x29A7 JUMP JUMPDEST SWAP1 POP SWAP2 SWAP1 POP JUMP JUMPDEST PUSH2 0x9B1 PUSH2 0x2096 JUMP JUMPDEST DUP1 PUSH0 DUP2 SUB PUSH2 0x9EB JUMPI PUSH1 0x40 MLOAD PUSH32 0xE729DC6400000000000000000000000000000000000000000000000000000000 DUP2 MSTORE PUSH1 0x4 ADD PUSH1 0x40 MLOAD DUP1 SWAP2 SUB SWAP1 REVERT JUMPDEST PUSH32 0x0 DUP3 PUSH1 0x5 SLOAD PUSH2 0xA1A SWAP2 SWAP1 PUSH2 0x29A7 JUMP JUMPDEST GT ISZERO PUSH2 0xA83 JUMPI PUSH1 0x5 SLOAD DUP3 PUSH32 0x0 PUSH1 0x40 MLOAD PUSH32 0xC9FE79B800000000000000000000000000000000000000000000000000000000 DUP2 MSTORE PUSH1 0x4 ADD PUSH2 0xA7A SWAP4 SWAP3 SWAP2 SWAP1 PUSH2 0x29DA JUMP JUMPDEST PUSH1 0x40 MLOAD DUP1 SWAP2 SUB SWAP1 REVERT JUMPDEST DUP2 PUSH1 0x3 PUSH0 CALLER PUSH20 0xFFFFFFFFFFFFFFFFFFFFFFFFFFFFFFFFFFFFFFFF AND PUSH20 0xFFFFFFFFFFFFFFFFFFFFFFFFFFFFFFFFFFFFFFFF AND DUP2 MSTORE PUSH1 0x20 ADD SWAP1 DUP2 MSTORE PUSH1 0x20 ADD PUSH0 KECCAK256 PUSH0 PUSH32 0x0 PUSH20 0xFFFFFFFFFFFFFFFFFFFFFFFFFFFFFFFFFFFFFFFF AND PUSH20 0xFFFFFFFFFFFFFFFFFFFFFFFFFFFFFFFFFFFFFFFF AND DUP2 MSTORE PUSH1 0x20 ADD SWAP1 DUP2 MSTORE PUSH1 0x20 ADD PUSH0 KECCAK256 PUSH0 DUP3 DUP3 SLOAD PUSH2 0xB2A SWAP2 SWAP1 PUSH2 0x29A7 JUMP JUMPDEST SWAP3 POP POP DUP2 SWAP1 SSTORE POP DUP2 PUSH1 0x4 PUSH0 PUSH32 0x0 PUSH20 0xFFFFFFFFFFFFFFFFFFFFFFFFFFFFFFFFFFFFFFFF AND PUSH20 0xFFFFFFFFFFFFFFFFFFFFFFFFFFFFFFFFFFFFFFFF AND DUP2 MSTORE PUSH1 0x20 ADD SWAP1 DUP2 MSTORE PUSH1 0x20 ADD PUSH0 KECCAK256 PUSH0 DUP3 DUP3 SLOAD PUSH2 0xB9D SWAP2 SWAP1 PUSH2 0x29A7 JUMP JUMPDEST SWAP3 POP POP DUP2 SWAP1 SSTORE POP DUP2 PUSH1 0x5 PUSH0 DUP3 DUP3 SLOAD PUSH2 0xBB5 SWAP2 SWAP1 PUSH2 0x29A7 JUMP JUMPDEST SWAP3 POP POP DUP2 SWAP1 SSTORE POP PUSH1 0x6 PUSH0 DUP2 SLOAD DUP1 SWAP3 SWAP2 SWAP1 PUSH2 0xBCE SWAP1 PUSH2 0x2A0F JUMP JUMPDEST SWAP2 SWAP1 POP SSTORE POP PUSH32 0x0 PUSH20 0xFFFFFFFFFFFFFFFFFFFFFFFFFFFFFFFFFFFFFFFF AND CALLER PUSH20 0xFFFFFFFFFFFFFFFFFFFFFFFFFFFFFFFFFFFFFFFF AND PUSH32 0x751F8B54C0E32EF5B9FAFDBDAC0C93C1994CC8848FA17ED7798BD90AAE8BFE9B DUP5 DUP6 PUSH1 0x40 MLOAD PUSH2 0xC52 SWAP3 SWAP2 SWAP1 PUSH2 0x291A JUMP JUMPDEST PUSH1 0x40 MLOAD DUP1 SWAP2 SUB SWAP1 LOG3 PUSH2 0xCA7 CALLER ADDRESS DUP5 PUSH32 0x0 PUSH20 0xFFFFFFFFFFFFFFFFFFFFFFFFFFFFFFFFFFFFFFFF AND PUSH2 0x2119 SWAP1 SWAP4 SWAP3 SWAP2 SWAP1 PUSH4 0xFFFFFFFF AND JUMP JUMPDEST POP PUSH2 0xCB0 PUSH2 0x2110 JUMP JUMPDEST POP JUMP JUMPDEST PUSH2 0xCBB PUSH2 0x2096 JUMP JUMPDEST DUP2 PUSH0 PUSH20 0xFFFFFFFFFFFFFFFFFFFFFFFFFFFFFFFFFFFFFFFF AND DUP2 PUSH20 0xFFFFFFFFFFFFFFFFFFFFFFFFFFFFFFFFFFFFFFFF AND EQ ISZERO DUP1 ISZERO PUSH2 0xD44 JUMPI POP PUSH32 0x0 PUSH20 0xFFFFFFFFFFFFFFFFFFFFFFFFFFFFFFFFFFFFFFFF AND DUP2 PUSH20 0xFFFFFFFFFFFFFFFFFFFFFFFFFFFFFFFFFFFFFFFF AND EQ ISZERO JUMPDEST ISZERO PUSH2 0xD86 JUMPI DUP1 PUSH1 0x40 MLOAD PUSH32 0x2D5C07B900000000000000000000000000000000000000000000000000000000 DUP2 MSTORE PUSH1 0x4 ADD PUSH2 0xD7D SWAP2 SWAP1 PUSH2 0x274F JUMP JUMPDEST PUSH1 0x40 MLOAD DUP1 SWAP2 SUB SWAP1 REVERT JUMPDEST DUP2 PUSH0 DUP2 SUB PUSH2 0xDC0 JUMPI PUSH1 0x40 MLOAD PUSH32 0xE729DC6400000000000000000000000000000000000000000000000000000000 DUP2 MSTORE PUSH1 0x4 ADD PUSH1 0x40 MLOAD DUP1 SWAP2 SUB SWAP1 REVERT JUMPDEST PUSH0 PUSH2 0xDCB DUP6 DUP6 PUSH2 0x219B JUMP JUMPDEST SWAP1 POP DUP1 PUSH1 0x3 PUSH0 CALLER PUSH20 0xFFFFFFFFFFFFFFFFFFFFFFFFFFFFFFFFFFFFFFFF AND PUSH20 0xFFFFFFFFFFFFFFFFFFFFFFFFFFFFFFFFFFFFFFFF AND DUP2 MSTORE PUSH1 0x20 ADD SWAP1 DUP2 MSTORE PUSH1 0x20 ADD PUSH0 KECCAK256 PUSH0 DUP8 PUSH20 0xFFFFFFFFFFFFFFFFFFFFFFFFFFFFFFFFFFFFFFFF AND PUSH20 0xFFFFFFFFFFFFFFFFFFFFFFFFFFFFFFFFFFFFFFFF AND DUP2 MSTORE PUSH1 0x20 ADD SWAP1 DUP2 MSTORE PUSH1 0x20 ADD PUSH0 KECCAK256 SLOAD LT ISZERO PUSH2 0xF04 JUMPI PUSH1 0x3 PUSH0 CALLER PUSH20 0xFFFFFFFFFFFFFFFFFFFFFFFFFFFFFFFFFFFFFFFF AND PUSH20 0xFFFFFFFFFFFFFFFFFFFFFFFFFFFFFFFFFFFFFFFF AND DUP2 MSTORE PUSH1 0x20 ADD SWAP1 DUP2 MSTORE PUSH1 0x20 ADD PUSH0 KECCAK256 PUSH0 DUP7 PUSH20 0xFFFFFFFFFFFFFFFFFFFFFFFFFFFFFFFFFFFFFFFF AND PUSH20 0xFFFFFFFFFFFFFFFFFFFFFFFFFFFFFFFFFFFFFFFF AND DUP2 MSTORE PUSH1 0x20 ADD SWAP1 DUP2 MSTORE PUSH1 0x20 ADD PUSH0 KECCAK256 SLOAD DUP2 PUSH1 0x40 MLOAD PUSH32 0x3B28636500000000000000000000000000000000000000000000000000000000 DUP2 MSTORE PUSH1 0x4 ADD PUSH2 0xEFB SWAP3 SWAP2 SWAP1 PUSH2 0x291A JUMP JUMPDEST PUSH1 0x40 MLOAD DUP1 SWAP2 SUB SWAP1 REVERT JUMPDEST PUSH32 0x0 DUP2 GT ISZERO PUSH2 0xF8B JUMPI DUP1 PUSH32 0x0 PUSH1 0x40 MLOAD PUSH32 0xD1ECFB7300000000000000000000000000000000000000000000000000000000 DUP2 MSTORE PUSH1 0x4 ADD PUSH2 0xF82 SWAP3 SWAP2 SWAP1 PUSH2 0x291A JUMP JUMPDEST PUSH1 0x40 MLOAD DUP1 SWAP2 SUB SWAP1 REVERT JUMPDEST DUP1 PUSH1 0x3 PUSH0 CALLER PUSH20 0xFFFFFFFFFFFFFFFFFFFFFFFFFFFFFFFFFFFFFFFF AND PUSH20 0xFFFFFFFFFFFFFFFFFFFFFFFFFFFFFFFFFFFFFFFF AND DUP2 MSTORE PUSH1 0x20 ADD SWAP1 DUP2 MSTORE PUSH1 0x20 ADD PUSH0 KECCAK256 PUSH0 DUP8 PUSH20 0xFFFFFFFFFFFFFFFFFFFFFFFFFFFFFFFFFFFFFFFF AND PUSH20 0xFFFFFFFFFFFFFFFFFFFFFFFFFFFFFFFFFFFFFFFF AND DUP2 MSTORE PUSH1 0x20 ADD SWAP1 DUP2 MSTORE PUSH1 0x20 ADD PUSH0 KECCAK256 PUSH0 DUP3 DUP3 SLOAD PUSH2 0x1012 SWAP2 SWAP1 PUSH2 0x2A56 JUMP JUMPDEST SWAP3 POP POP DUP2 SWAP1 SSTORE POP DUP1 PUSH1 0x4 PUSH0 DUP8 PUSH20 0xFFFFFFFFFFFFFFFFFFFFFFFFFFFFFFFFFFFFFFFF AND PUSH20 0xFFFFFFFFFFFFFFFFFFFFFFFFFFFFFFFFFFFFFFFF AND DUP2 MSTORE PUSH1 0x20 ADD SWAP1 DUP2 MSTORE PUSH1 0x20 ADD PUSH0 KECCAK256 PUSH0 DUP3 DUP3 SLOAD PUSH2 0x1065 SWAP2 SWAP1 PUSH2 0x2A56 JUMP JUMPDEST SWAP3 POP POP DUP2 SWAP1 SSTORE POP DUP1 PUSH1 0x5 PUSH0 DUP3 DUP3 SLOAD PUSH2 0x107D SWAP2 SWAP1 PUSH2 0x2A56 JUMP JUMPDEST SWAP3 POP POP DUP2 SWAP1 SSTORE POP PUSH1 0x7 PUSH0 DUP2 SLOAD DUP1 SWAP3 SWAP2 SWAP1 PUSH2 0x1096 SWAP1 PUSH2 0x2A0F JUMP JUMPDEST SWAP2 SWAP1 POP SSTORE POP DUP5 PUSH20 0xFFFFFFFFFFFFFFFFFFFFFFFFFFFFFFFFFFFFFFFF AND CALLER PUSH20 0xFFFFFFFFFFFFFFFFFFFFFFFFFFFFFFFFFFFFFFFF AND PUSH32 0xC6ACB54BDD58AF37C8D1B8BF2F1A561163C5191551BBD6E74CCE66FF7B670C77 DUP7 DUP5 PUSH1 0x40 MLOAD PUSH2 0x10FA SWAP3 SWAP2 SWAP1 PUSH2 0x291A JUMP JUMPDEST PUSH1 0x40 MLOAD DUP1 SWAP2 SUB SWAP1 LOG3 PUSH2 0x112D CALLER DUP6 DUP8 PUSH20 0xFFFFFFFFFFFFFFFFFFFFFFFFFFFFFFFFFFFFFFFF AND PUSH2 0x223A SWAP1 SWAP3 SWAP2 SWAP1 PUSH4 0xFFFFFFFF AND JUMP JUMPDEST POP POP POP PUSH2 0x1138 PUSH2 0x2110 JUMP JUMPDEST POP POP JUMP JUMPDEST PUSH2 0x1144 PUSH2 0x22B9 JUMP JUMPDEST PUSH2 0x114D PUSH0 PUSH2 0x2340 JUMP JUMPDEST JUMP JUMPDEST PUSH2 0x1157 PUSH2 0x2096 JUMP JUMPDEST DUP1 PUSH0 DUP2 SUB PUSH2 0x1191 JUMPI PUSH1 0x40 MLOAD PUSH32 0xE729DC6400000000000000000000000000000000000000000000000000000000 DUP2 MSTORE PUSH1 0x4 ADD PUSH1 0x40 MLOAD DUP1 SWAP2 SUB SWAP1 REVERT JUMPDEST PUSH0 PUSH2 0x119B DUP4 PUSH2 0x20DC JUMP JUMPDEST SWAP1 POP DUP1 PUSH1 0x3 PUSH0 CALLER PUSH20 0xFFFFFFFFFFFFFFFFFFFFFFFFFFFFFFFFFFFFFFFF AND PUSH20 0xFFFFFFFFFFFFFFFFFFFFFFFFFFFFFFFFFFFFFFFF AND DUP2 MSTORE PUSH1 0x20 ADD SWAP1 DUP2 MSTORE PUSH1 0x20 ADD PUSH0 KECCAK256 PUSH0 DUP1 PUSH20 0xFFFFFFFFFFFFFFFFFFFFFFFFFFFFFFFFFFFFFFFF AND PUSH20 0xFFFFFFFFFFFFFFFFFFFFFFFFFFFFFFFFFFFFFFFF AND DUP2 MSTORE PUSH1 0x20 ADD SWAP1 DUP2 MSTORE PUSH1 0x20 ADD PUSH0 KECCAK256 SLOAD LT ISZERO PUSH2 0x12D4 JUMPI PUSH1 0x3 PUSH0 CALLER PUSH20 0xFFFFFFFFFFFFFFFFFFFFFFFFFFFFFFFFFFFFFFFF AND PUSH20 0xFFFFFFFFFFFFFFFFFFFFFFFFFFFFFFFFFFFFFFFF AND DUP2 MSTORE PUSH1 0x20 ADD SWAP1 DUP2 MSTORE PUSH1 0x20 ADD PUSH0 KECCAK256 PUSH0 DUP1 PUSH20 0xFFFFFFFFFFFFFFFFFFFFFFFFFFFFFFFFFFFFFFFF AND PUSH20 0xFFFFFFFFFFFFFFFFFFFFFFFFFFFFFFFFFFFFFFFF AND DUP2 MSTORE PUSH1 0x20 ADD SWAP1 DUP2 MSTORE PUSH1 0x20 ADD PUSH0 KECCAK256 SLOAD DUP2 PUSH1 0x40 MLOAD PUSH32 0x3B28636500000000000000000000000000000000000000000000000000000000 DUP2 MSTORE PUSH1 0x4 ADD PUSH2 0x12CB SWAP3 SWAP2 SWAP1 PUSH2 0x291A JUMP JUMPDEST PUSH1 0x40 MLOAD DUP1 SWAP2 SUB SWAP1 REVERT JUMPDEST PUSH32 0x0 DUP2 GT ISZERO PUSH2 0x135B JUMPI DUP1 PUSH32 0x0 PUSH1 0x40 MLOAD PUSH32 0xD1ECFB7300000000000000000000000000000000000000000000000000000000 DUP2 MSTORE PUSH1 0x4 ADD PUSH2 0x1352 SWAP3 SWAP2 SWAP1 PUSH2 0x291A JUMP JUMPDEST PUSH1 0x40 MLOAD DUP1 SWAP2 SUB SWAP1 REVERT JUMPDEST DUP1 PUSH1 0x3 PUSH0 CALLER PUSH20 0xFFFFFFFFFFFFFFFFFFFFFFFFFFFFFFFFFFFFFFFF AND PUSH20 0xFFFFFFFFFFFFFFFFFFFFFFFFFFFFFFFFFFFFFFFF AND DUP2 MSTORE PUSH1 0x20 ADD SWAP1 DUP2 MSTORE PUSH1 0x20 ADD PUSH0 KECCAK256 PUSH0 DUP1 PUSH20 0xFFFFFFFFFFFFFFFFFFFFFFFFFFFFFFFFFFFFFFFF AND PUSH20 0xFFFFFFFFFFFFFFFFFFFFFFFFFFFFFFFFFFFFFFFF AND DUP2 MSTORE PUSH1 0x20 ADD SWAP1 DUP2 MSTORE PUSH1 0x20 ADD PUSH0 KECCAK256 PUSH0 DUP3 DUP3 SLOAD PUSH2 0x13E2 SWAP2 SWAP1 PUSH2 0x2A56 JUMP JUMPDEST SWAP3 POP POP DUP2 SWAP1 SSTORE POP DUP1 PUSH1 0x4 PUSH0 DUP1 PUSH20 0xFFFFFFFFFFFFFFFFFFFFFFFFFFFFFFFFFFFFFFFF AND PUSH20 0xFFFFFFFFFFFFFFFFFFFFFFFFFFFFFFFFFFFFFFFF AND DUP2 MSTORE PUSH1 0x20 ADD SWAP1 DUP2 MSTORE PUSH1 0x20 ADD PUSH0 KECCAK256 PUSH0 DUP3 DUP3 SLOAD PUSH2 0x1435 SWAP2 SWAP1 PUSH2 0x2A56 JUMP JUMPDEST SWAP3 POP POP DUP2 SWAP1 SSTORE POP DUP1 PUSH1 0x5 PUSH0 DUP3 DUP3 SLOAD PUSH2 0x144D SWAP2 SWAP1 PUSH2 0x2A56 JUMP JUMPDEST SWAP3 POP POP DUP2 SWAP1 SSTORE POP PUSH1 0x7 PUSH0 DUP2 SLOAD DUP1 SWAP3 SWAP2 SWAP1 PUSH2 0x1466 SWAP1 PUSH2 0x2A0F JUMP JUMPDEST SWAP2 SWAP1 POP SSTORE POP PUSH0 PUSH20 0xFFFFFFFFFFFFFFFFFFFFFFFFFFFFFFFFFFFFFFFF AND CALLER PUSH20 0xFFFFFFFFFFFFFFFFFFFFFFFFFFFFFFFFFFFFFFFF AND PUSH32 0xC6ACB54BDD58AF37C8D1B8BF2F1A561163C5191551BBD6E74CCE66FF7B670C77 DUP6 DUP5 PUSH1 0x40 MLOAD PUSH2 0x14CA SWAP3 SWAP2 SWAP1 PUSH2 0x291A JUMP JUMPDEST PUSH1 0x40 MLOAD DUP1 SWAP2 SUB SWAP1 LOG3 PUSH2 0x14DC CALLER DUP5 PUSH2 0x2401 JUMP JUMPDEST POP POP PUSH2 0x14E6 PUSH2 0x2110 JUMP JUMPDEST POP JUMP JUMPDEST PUSH0 DUP1 PUSH0 SWAP1 SLOAD SWAP1 PUSH2 0x100 EXP SWAP1 DIV PUSH20 0xFFFFFFFFFFFFFFFFFFFFFFFFFFFFFFFFFFFFFFFF AND SWAP1 POP SWAP1 JUMP JUMPDEST PUSH2 0x1518 PUSH2 0x2096 JUMP JUMPDEST DUP1 PUSH0 DUP2 SUB PUSH2 0x1552 JUMPI PUSH1 0x40 MLOAD PUSH32 0xE729DC6400000000000000000000000000000000000000000000000000000000 DUP2 MSTORE PUSH1 0x4 ADD PUSH1 0x40 MLOAD DUP1 SWAP2 SUB SWAP1 REVERT JUMPDEST PUSH32 0x0 DUP3 GT ISZERO PUSH2 0x15D9 JUMPI DUP2 PUSH32 0x0 PUSH1 0x40 MLOAD PUSH32 0xD1ECFB7300000000000000000000000000000000000000000000000000000000 DUP2 MSTORE PUSH1 0x4 ADD PUSH2 0x15D0 SWAP3 SWAP2 SWAP1 PUSH2 0x291A JUMP JUMPDEST PUSH1 0x40 MLOAD DUP1 SWAP2 SUB SWAP1 REVERT JUMPDEST DUP2 PUSH1 0x3 PUSH0 CALLER PUSH20 0xFFFFFFFFFFFFFFFFFFFFFFFFFFFFFFFFFFFFFFFF AND PUSH20 0xFFFFFFFFFFFFFFFFFFFFFFFFFFFFFFFFFFFFFFFF AND DUP2 MSTORE PUSH1 0x20 ADD SWAP1 DUP2 MSTORE PUSH1 0x20 ADD PUSH0 KECCAK256 PUSH0 PUSH32 0x0 PUSH20 0xFFFFFFFFFFFFFFFFFFFFFFFFFFFFFFFFFFFFFFFF AND PUSH20 0xFFFFFFFFFFFFFFFFFFFFFFFFFFFFFFFFFFFFFFFF AND DUP2 MSTORE PUSH1 0x20 ADD SWAP1 DUP2 MSTORE PUSH1 0x20 ADD PUSH0 KECCAK256 SLOAD LT ISZERO PUSH2 0x1750 JUMPI PUSH1 0x3 PUSH0 CALLER PUSH20 0xFFFFFFFFFFFFFFFFFFFFFFFFFFFFFFFFFFFFFFFF AND PUSH20 0xFFFFFFFFFFFFFFFFFFFFFFFFFFFFFFFFFFFFFFFF AND DUP2 MSTORE PUSH1 0x20 ADD SWAP1 DUP2 MSTORE PUSH1 0x20 ADD PUSH0 KECCAK256 PUSH0 PUSH32 0x0 PUSH20 0xFFFFFFFFFFFFFFFFFFFFFFFFFFFFFFFFFFFFFFFF AND PUSH20 0xFFFFFFFFFFFFFFFFFFFFFFFFFFFFFFFFFFFFFFFF AND DUP2 MSTORE PUSH1 0x20 ADD SWAP1 DUP2 MSTORE PUSH1 0x20 ADD PUSH0 KECCAK256 SLOAD DUP3 PUSH1 0x40 MLOAD PUSH32 0x3B28636500000000000000000000000000000000000000000000000000000000 DUP2 MSTORE PUSH1 0x4 ADD PUSH2 0x1747 SWAP3 SWAP2 SWAP1 PUSH2 0x291A JUMP JUMPDEST PUSH1 0x40 MLOAD DUP1 SWAP2 SUB SWAP1 REVERT JUMPDEST DUP2 PUSH1 0x3 PUSH0 CALLER PUSH20 0xFFFFFFFFFFFFFFFFFFFFFFFFFFFFFFFFFFFFFFFF AND PUSH20 0xFFFFFFFFFFFFFFFFFFFFFFFFFFFFFFFFFFFFFFFF AND DUP2 MSTORE PUSH1 0x20 ADD SWAP1 DUP2 MSTORE PUSH1 0x20 ADD PUSH0 KECCAK256 PUSH0 PUSH32 0x0 PUSH20 0xFFFFFFFFFFFFFFFFFFFFFFFFFFFFFFFFFFFFFFFF AND PUSH20 0xFFFFFFFFFFFFFFFFFFFFFFFFFFFFFFFFFFFFFFFF AND DUP2 MSTORE PUSH1 0x20 ADD SWAP1 DUP2 MSTORE PUSH1 0x20 ADD PUSH0 KECCAK256 PUSH0 DUP3 DUP3 SLOAD PUSH2 0x17F7 SWAP2 SWAP1 PUSH2 0x2A56 JUMP JUMPDEST SWAP3 POP POP DUP2 SWAP1 SSTORE POP DUP2 PUSH1 0x4 PUSH0 PUSH32 0x0 PUSH20 0xFFFFFFFFFFFFFFFFFFFFFFFFFFFFFFFFFFFFFFFF AND PUSH20 0xFFFFFFFFFFFFFFFFFFFFFFFFFFFFFFFFFFFFFFFF AND DUP2 MSTORE PUSH1 0x20 ADD SWAP1 DUP2 MSTORE PUSH1 0x20 ADD PUSH0 KECCAK256 PUSH0 DUP3 DUP3 SLOAD PUSH2 0x186A SWAP2 SWAP1 PUSH2 0x2A56 JUMP JUMPDEST SWAP3 POP POP DUP2 SWAP1 SSTORE POP DUP2 PUSH1 0x5 PUSH0 DUP3 DUP3 SLOAD PUSH2 0x1882 SWAP2 SWAP1 PUSH2 0x2A56 JUMP JUMPDEST SWAP3 POP POP DUP2 SWAP1 SSTORE POP PUSH1 0x7 PUSH0 DUP2 SLOAD DUP1 SWAP3 SWAP2 SWAP1 PUSH2 0x189B SWAP1 PUSH2 0x2A0F JUMP JUMPDEST SWAP2 SWAP1 POP SSTORE POP PUSH32 0x0 PUSH20 0xFFFFFFFFFFFFFFFFFFFFFFFFFFFFFFFFFFFFFFFF AND CALLER PUSH20 0xFFFFFFFFFFFFFFFFFFFFFFFFFFFFFFFFFFFFFFFF AND PUSH32 0xC6ACB54BDD58AF37C8D1B8BF2F1A561163C5191551BBD6E74CCE66FF7B670C77 DUP5 DUP6 PUSH1 0x40 MLOAD PUSH2 0x191F SWAP3 SWAP2 SWAP1 PUSH2 0x291A JUMP JUMPDEST PUSH1 0x40 MLOAD DUP1 SWAP2 SUB SWAP1 LOG3 PUSH2 0x1972 CALLER DUP4 PUSH32 0x0 PUSH20 0xFFFFFFFFFFFFFFFFFFFFFFFFFFFFFFFFFFFFFFFF AND PUSH2 0x223A SWAP1 SWAP3 SWAP2 SWAP1 PUSH4 0xFFFFFFFF AND JUMP JUMPDEST POP PUSH2 0x197B PUSH2 0x2110 JUMP JUMPDEST POP JUMP JUMPDEST PUSH2 0x1986 PUSH2 0x2096 JUMP JUMPDEST DUP2 PUSH0 PUSH20 0xFFFFFFFFFFFFFFFFFFFFFFFFFFFFFFFFFFFFFFFF AND DUP2 PUSH20 0xFFFFFFFFFFFFFFFFFFFFFFFFFFFFFFFFFFFFFFFF AND EQ ISZERO DUP1 ISZERO PUSH2 0x1A0F JUMPI POP PUSH32 0x0 PUSH20 0xFFFFFFFFFFFFFFFFFFFFFFFFFFFFFFFFFFFFFFFF AND DUP2 PUSH20 0xFFFFFFFFFFFFFFFFFFFFFFFFFFFFFFFFFFFFFFFF AND EQ ISZERO JUMPDEST ISZERO PUSH2 0x1A51 JUMPI DUP1 PUSH1 0x40 MLOAD PUSH32 0x2D5C07B900000000000000000000000000000000000000000000000000000000 DUP2 MSTORE PUSH1 0x4 ADD PUSH2 0x1A48 SWAP2 SWAP1 PUSH2 0x274F JUMP JUMPDEST PUSH1 0x40 MLOAD DUP1 SWAP2 SUB SWAP1 REVERT JUMPDEST DUP2 PUSH0 DUP2 SUB PUSH2 0x1A8B JUMPI PUSH1 0x40 MLOAD PUSH32 0xE729DC6400000000000000000000000000000000000000000000000000000000 DUP2 MSTORE PUSH1 0x4 ADD PUSH1 0x40 MLOAD DUP1 SWAP2 SUB SWAP1 REVERT JUMPDEST PUSH0 PUSH2 0x1A96 DUP6 DUP6 PUSH2 0x219B JUMP JUMPDEST SWAP1 POP PUSH32 0x0 DUP2 PUSH1 0x5 SLOAD PUSH2 0x1AC7 SWAP2 SWAP1 PUSH2 0x29A7 JUMP JUMPDEST GT ISZERO PUSH2 0x1B30 JUMPI PUSH1 0x5 SLOAD DUP2 PUSH32 0x0 PUSH1 0x40 MLOAD PUSH32 0xC9FE79B800000000000000000000000000000000000000000000000000000000 DUP2 MSTORE PUSH1 0x4 ADD PUSH2 0x1B27 SWAP4 SWAP3 SWAP2 SWAP1 PUSH2 0x29DA JUMP JUMPDEST PUSH1 0x40 MLOAD DUP1 SWAP2 SUB SWAP1 REVERT JUMPDEST DUP1 PUSH1 0x3 PUSH0 CALLER PUSH20 0xFFFFFFFFFFFFFFFFFFFFFFFFFFFFFFFFFFFFFFFF AND PUSH20 0xFFFFFFFFFFFFFFFFFFFFFFFFFFFFFFFFFFFFFFFF AND DUP2 MSTORE PUSH1 0x20 ADD SWAP1 DUP2 MSTORE PUSH1 0x20 ADD PUSH0 KECCAK256 PUSH0 DUP8 PUSH20 0xFFFFFFFFFFFFFFFFFFFFFFFFFFFFFFFFFFFFFFFF AND PUSH20 0xFFFFFFFFFFFFFFFFFFFFFFFFFFFFFFFFFFFFFFFF AND DUP2 MSTORE PUSH1 0x20 ADD SWAP1 DUP2 MSTORE PUSH1 0x20 ADD PUSH0 KECCAK256 PUSH0 DUP3 DUP3 SLOAD PUSH2 0x1BB7 SWAP2 SWAP1 PUSH2 0x29A7 JUMP JUMPDEST SWAP3 POP POP DUP2 SWAP1 SSTORE POP DUP1 PUSH1 0x4 PUSH0 DUP8 PUSH20 0xFFFFFFFFFFFFFFFFFFFFFFFFFFFFFFFFFFFFFFFF AND PUSH20 0xFFFFFFFFFFFFFFFFFFFFFFFFFFFFFFFFFFFFFFFF AND DUP2 MSTORE PUSH1 0x20 ADD SWAP1 DUP2 MSTORE PUSH1 0x20 ADD PUSH0 KECCAK256 PUSH0 DUP3 DUP3 SLOAD PUSH2 0x1C0A SWAP2 SWAP1 PUSH2 0x29A7 JUMP JUMPDEST SWAP3 POP POP DUP2 SWAP1 SSTORE POP DUP1 PUSH1 0x5 PUSH0 DUP3 DUP3 SLOAD PUSH2 0x1C22 SWAP2 SWAP1 PUSH2 0x29A7 JUMP JUMPDEST SWAP3 POP POP DUP2 SWAP1 SSTORE POP PUSH1 0x6 PUSH0 DUP2 SLOAD DUP1 SWAP3 SWAP2 SWAP1 PUSH2 0x1C3B SWAP1 PUSH2 0x2A0F JUMP JUMPDEST SWAP2 SWAP1 POP SSTORE POP DUP5 PUSH20 0xFFFFFFFFFFFFFFFFFFFFFFFFFFFFFFFFFFFFFFFF AND CALLER PUSH20 0xFFFFFFFFFFFFFFFFFFFFFFFFFFFFFFFFFFFFFFFF AND PUSH32 0x751F8B54C0E32EF5B9FAFDBDAC0C93C1994CC8848FA17ED7798BD90AAE8BFE9B DUP7 DUP5 PUSH1 0x40 MLOAD PUSH2 0x1C9F SWAP3 SWAP2 SWAP1 PUSH2 0x291A JUMP JUMPDEST PUSH1 0x40 MLOAD DUP1 SWAP2 SUB SWAP1 LOG3 PUSH2 0x1CD4 CALLER ADDRESS DUP7 DUP9 PUSH20 0xFFFFFFFFFFFFFFFFFFFFFFFFFFFFFFFFFFFFFFFF AND PUSH2 0x2119 SWAP1 SWAP4 SWAP3 SWAP2 SWAP1 PUSH4 0xFFFFFFFF AND JUMP JUMPDEST POP POP POP PUSH2 0x1CDF PUSH2 0x2110 JUMP JUMPDEST POP POP JUMP JUMPDEST PUSH0 DUP1 PUSH0 DUP1 PUSH0 DUP1 PUSH0 PUSH1 0x5 SLOAD SWAP7 POP PUSH1 0x4 PUSH0 DUP1 PUSH20 0xFFFFFFFFFFFFFFFFFFFFFFFFFFFFFFFFFFFFFFFF AND PUSH20 0xFFFFFFFFFFFFFFFFFFFFFFFFFFFFFFFFFFFFFFFF AND DUP2 MSTORE PUSH1 0x20 ADD SWAP1 DUP2 MSTORE PUSH1 0x20 ADD PUSH0 KECCAK256 SLOAD SWAP6 POP PUSH1 0x4 PUSH0 PUSH32 0x0 PUSH20 0xFFFFFFFFFFFFFFFFFFFFFFFFFFFFFFFFFFFFFFFF AND PUSH20 0xFFFFFFFFFFFFFFFFFFFFFFFFFFFFFFFFFFFFFFFF AND DUP2 MSTORE PUSH1 0x20 ADD SWAP1 DUP2 MSTORE PUSH1 0x20 ADD PUSH0 KECCAK256 SLOAD SWAP5 POP PUSH1 0x6 SLOAD SWAP4 POP PUSH1 0x7 SLOAD SWAP3 POP PUSH32 0x0 SWAP2 POP PUSH32 0x0 SWAP1 POP SWAP1 SWAP2 SWAP3 SWAP4 SWAP5 SWAP6 SWAP7 JUMP JUMPDEST PUSH1 0x2 PUSH0 SWAP1 SLOAD SWAP1 PUSH2 0x100 EXP SWAP1 DIV PUSH20 0xFFFFFFFFFFFFFFFFFFFFFFFFFFFFFFFFFFFFFFFF AND DUP2 JUMP JUMPDEST PUSH0 PUSH1 0x3 PUSH0 DUP5 PUSH20 0xFFFFFFFFFFFFFFFFFFFFFFFFFFFFFFFFFFFFFFFF AND PUSH20 0xFFFFFFFFFFFFFFFFFFFFFFFFFFFFFFFFFFFFFFFF AND DUP2 MSTORE PUSH1 0x20 ADD SWAP1 DUP2 MSTORE PUSH1 0x20 ADD PUSH0 KECCAK256 PUSH0 DUP4 PUSH20 0xFFFFFFFFFFFFFFFFFFFFFFFFFFFFFFFFFFFFFFFF AND PUSH20 0xFFFFFFFFFFFFFFFFFFFFFFFFFFFFFFFFFFFFFFFF AND DUP2 MSTORE PUSH1 0x20 ADD SWAP1 DUP2 MSTORE PUSH1 0x20 ADD PUSH0 KECCAK256 SLOAD SWAP1 POP SWAP3 SWAP2 POP POP JUMP JUMPDEST PUSH2 0x1E97 PUSH2 0x22B9 JUMP JUMPDEST DUP1 PUSH1 0x2 PUSH0 PUSH2 0x100 EXP DUP2 SLOAD DUP2 PUSH20 0xFFFFFFFFFFFFFFFFFFFFFFFFFFFFFFFFFFFFFFFF MUL NOT AND SWAP1 DUP4 PUSH20 0xFFFFFFFFFFFFFFFFFFFFFFFFFFFFFFFFFFFFFFFF AND MUL OR SWAP1 SSTORE POP DUP1 PUSH20 0xFFFFFFFFFFFFFFFFFFFFFFFFFFFFFFFFFFFFFFFF AND PUSH32 0x2B87A7A05493A7865DADC5AFBB6CEDFDA3C32F20196D8F45314AFA7B32B94012 PUSH1 0x40 MLOAD PUSH1 0x40 MLOAD DUP1 SWAP2 SUB SWAP1 LOG2 POP JUMP JUMPDEST PUSH0 DUP1 PUSH0 DUP1 PUSH1 0x2 PUSH0 SWAP1 SLOAD SWAP1 PUSH2 0x100 EXP SWAP1 DIV PUSH20 0xFFFFFFFFFFFFFFFFFFFFFFFFFFFFFFFFFFFFFFFF AND PUSH20 0xFFFFFFFFFFFFFFFFFFFFFFFFFFFFFFFFFFFFFFFF AND PUSH4 0xFEAF968C PUSH1 0x40 MLOAD DUP2 PUSH4 0xFFFFFFFF AND PUSH1 0xE0 SHL DUP2 MSTORE PUSH1 0x4 ADD PUSH1 0xA0 PUSH1 0x40 MLOAD DUP1 DUP4 SUB DUP2 DUP7 GAS STATICCALL ISZERO DUP1 ISZERO PUSH2 0x1F8B JUMPI RETURNDATASIZE PUSH0 DUP1 RETURNDATACOPY RETURNDATASIZE PUSH0 REVERT JUMPDEST POP POP POP POP PUSH1 0x40 MLOAD RETURNDATASIZE PUSH1 0x1F NOT PUSH1 0x1F DUP3 ADD AND DUP3 ADD DUP1 PUSH1 0x40 MSTORE POP DUP2 ADD SWAP1 PUSH2 0x1FAF SWAP2 SWAP1 PUSH2 0x2B0F JUMP JUMPDEST POP SWAP4 POP POP SWAP3 POP POP DUP2 SWAP4 POP DUP1 SWAP3 POP POP POP SWAP1 SWAP2 JUMP JUMPDEST PUSH1 0x7 SLOAD DUP2 JUMP JUMPDEST PUSH1 0x3 PUSH1 0x20 MSTORE DUP2 PUSH0 MSTORE PUSH1 0x40 PUSH0 KECCAK256 PUSH1 0x20 MSTORE DUP1 PUSH0 MSTORE PUSH1 0x40 PUSH0 KECCAK256 PUSH0 SWAP2 POP SWAP2 POP POP SLOAD DUP2 JUMP JUMPDEST PUSH1 0x5 SLOAD DUP2 JUMP JUMPDEST PUSH2 0x1FF6 PUSH2 0x22B9 JUMP JUMPDEST PUSH0 PUSH20 0xFFFFFFFFFFFFFFFFFFFFFFFFFFFFFFFFFFFFFFFF AND DUP2 PUSH20 0xFFFFFFFFFFFFFFFFFFFFFFFFFFFFFFFFFFFFFFFF AND SUB PUSH2 0x2066 JUMPI PUSH0 PUSH1 0x40 MLOAD PUSH32 0x1E4FBDF700000000000000000000000000000000000000000000000000000000 DUP2 MSTORE PUSH1 0x4 ADD PUSH2 0x205D SWAP2 SWAP1 PUSH2 0x274F JUMP JUMPDEST PUSH1 0x40 MLOAD DUP1 SWAP2 SUB SWAP1 REVERT JUMPDEST PUSH2 0x206F DUP2 PUSH2 0x2340 JUMP JUMPDEST POP JUMP JUMPDEST PUSH32 0x0 DUP2 JUMP JUMPDEST PUSH1 0x2 PUSH1 0x1 SLOAD SUB PUSH2 0x20D2 JUMPI PUSH1 0x40 MLOAD PUSH32 0x3EE5AEB500000000000000000000000000000000000000000000000000000000 DUP2 MSTORE PUSH1 0x4 ADD PUSH1 0x40 MLOAD DUP1 SWAP2 SUB SWAP1 REVERT JUMPDEST PUSH1 0x2 PUSH1 0x1 DUP2 SWAP1 SSTORE POP JUMP JUMPDEST PUSH0 DUP1 PUSH2 0x20E6 PUSH2 0x24B0 JUMP JUMPDEST SWAP1 POP PUSH9 0x56BC75E2D63100000 DUP2 DUP5 PUSH2 0x20FE SWAP2 SWAP1 PUSH2 0x2B86 JUMP JUMPDEST PUSH2 0x2108 SWAP2 SWAP1 PUSH2 0x2BF4 JUMP JUMPDEST SWAP2 POP POP SWAP2 SWAP1 POP JUMP JUMPDEST PUSH1 0x1 DUP1 DUP2 SWAP1 SSTORE POP JUMP JUMPDEST PUSH2 0x2195 DUP5 DUP6 PUSH20 0xFFFFFFFFFFFFFFFFFFFFFFFFFFFFFFFFFFFFFFFF AND PUSH4 0x23B872DD DUP7 DUP7 DUP7 PUSH1 0x40 MLOAD PUSH1 0x24 ADD PUSH2 0x214E SWAP4 SWAP3 SWAP2 SWAP1 PUSH2 0x2C24 JUMP JUMPDEST PUSH1 0x40 MLOAD PUSH1 0x20 DUP2 DUP4 SUB SUB DUP2 MSTORE SWAP1 PUSH1 0x40 MSTORE SWAP2 POP PUSH1 0xE0 SHL PUSH1 0x20 DUP3 ADD DUP1 MLOAD PUSH28 0xFFFFFFFFFFFFFFFFFFFFFFFFFFFFFFFFFFFFFFFFFFFFFFFFFFFFFFFF DUP4 DUP2 DUP4 AND OR DUP4 MSTORE POP POP POP POP PUSH2 0x25E4 JUMP JUMPDEST POP POP POP POP JUMP JUMPDEST PUSH0 PUSH32 0x0 PUSH20 0xFFFFFFFFFFFFFFFFFFFFFFFFFFFFFFFFFFFFFFFF AND DUP4 PUSH20 0xFFFFFFFFFFFFFFFFFFFFFFFFFFFFFFFFFFFFFFFF AND SUB PUSH2 0x21F7 JUMPI DUP2 SWAP1 POP PUSH2 0x2234 JUMP JUMPDEST DUP3 PUSH1 0x40 MLOAD PUSH32 0x2D5C07B900000000000000000000000000000000000000000000000000000000 DUP2 MSTORE PUSH1 0x4 ADD PUSH2 0x222B SWAP2 SWAP1 PUSH2 0x274F JUMP JUMPDEST PUSH1 0x40 MLOAD DUP1 SWAP2 SUB SWAP1 REVERT JUMPDEST SWAP3 SWAP2 POP POP JUMP JUMPDEST PUSH2 0x22B4 DUP4 DUP5 PUSH20 0xFFFFFFFFFFFFFFFFFFFFFFFFFFFFFFFFFFFFFFFF AND PUSH4 0xA9059CBB DUP6 DUP6 PUSH1 0x40 MLOAD PUSH1 0x24 ADD PUSH2 0x226D SWAP3 SWAP2 SWAP1 PUSH2 0x2C59 JUMP JUMPDEST PUSH1 0x40 MLOAD PUSH1 0x20 DUP2 DUP4 SUB SUB DUP2 MSTORE SWAP1 PUSH1 0x40 MSTORE SWAP2 POP PUSH1 0xE0 SHL PUSH1 0x20 DUP3 ADD DUP1 MLOAD PUSH28 0xFFFFFFFFFFFFFFFFFFFFFFFFFFFFFFFFFFFFFFFFFFFFFFFFFFFFFFFF DUP4 DUP2 DUP4 AND OR DUP4 MSTORE POP POP POP POP PUSH2 0x25E4 JUMP JUMPDEST POP POP POP JUMP JUMPDEST PUSH2 0x22C1 PUSH2 0x267F JUMP JUMPDEST PUSH20 0xFFFFFFFFFFFFFFFFFFFFFFFFFFFFFFFFFFFFFFFF AND PUSH2 0x22DF PUSH2 0x14E9 JUMP JUMPDEST PUSH20 0xFFFFFFFFFFFFFFFFFFFFFFFFFFFFFFFFFFFFFFFF AND EQ PUSH2 0x233E JUMPI PUSH2 0x2302 PUSH2 0x267F JUMP JUMPDEST PUSH1 0x40 MLOAD PUSH32 0x118CDAA700000000000000000000000000000000000000000000000000000000 DUP2 MSTORE PUSH1 0x4 ADD PUSH2 0x2335 SWAP2 SWAP1 PUSH2 0x274F JUMP JUMPDEST PUSH1 0x40 MLOAD DUP1 SWAP2 SUB SWAP1 REVERT JUMPDEST JUMP JUMPDEST PUSH0 DUP1 PUSH0 SWAP1 SLOAD SWAP1 PUSH2 0x100 EXP SWAP1 DIV PUSH20 0xFFFFFFFFFFFFFFFFFFFFFFFFFFFFFFFFFFFFFFFF AND SWAP1 POP DUP2 PUSH0 DUP1 PUSH2 0x100 EXP DUP2 SLOAD DUP2 PUSH20 0xFFFFFFFFFFFFFFFFFFFFFFFFFFFFFFFFFFFFFFFF MUL NOT AND SWAP1 DUP4 PUSH20 0xFFFFFFFFFFFFFFFFFFFFFFFFFFFFFFFFFFFFFFFF AND MUL OR SWAP1 SSTORE POP DUP2 PUSH20 0xFFFFFFFFFFFFFFFFFFFFFFFFFFFFFFFFFFFFFFFF AND DUP2 PUSH20 0xFFFFFFFFFFFFFFFFFFFFFFFFFFFFFFFFFFFFFFFF AND PUSH32 0x8BE0079C531659141344CD1FD0A4F28419497F9722A3DAAFE3B4186F6B6457E0 PUSH1 0x40 MLOAD PUSH1 0x40 MLOAD DUP1 SWAP2 SUB SWAP1 LOG3 POP POP JUMP JUMPDEST PUSH0 DUP3 PUSH20 0xFFFFFFFFFFFFFFFFFFFFFFFFFFFFFFFFFFFFFFFF AND DUP3 PUSH1 0x40 MLOAD PUSH2 0x2426 SWAP1 PUSH2 0x2CAD JUMP JUMPDEST PUSH0 PUSH1 0x40 MLOAD DUP1 DUP4 SUB DUP2 DUP6 DUP8 GAS CALL SWAP3 POP POP POP RETURNDATASIZE DUP1 PUSH0 DUP2 EQ PUSH2 0x2460 JUMPI PUSH1 0x40 MLOAD SWAP2 POP PUSH1 0x1F NOT PUSH1 0x3F RETURNDATASIZE ADD AND DUP3 ADD PUSH1 0x40 MSTORE RETURNDATASIZE DUP3 MSTORE RETURNDATASIZE PUSH0 PUSH1 0x20 DUP5 ADD RETURNDATACOPY PUSH2 0x2465 JUMP JUMPDEST PUSH1 0x60 SWAP2 POP JUMPDEST POP POP SWAP1 POP DUP1 PUSH2 0x24AB JUMPI DUP3 PUSH1 0x40 MLOAD PUSH32 0x71404A4200000000000000000000000000000000000000000000000000000000 DUP2 MSTORE PUSH1 0x4 ADD PUSH2 0x24A2 SWAP2 SWAP1 PUSH2 0x274F JUMP JUMPDEST PUSH1 0x40 MLOAD DUP1 SWAP2 SUB SWAP1 REVERT JUMPDEST POP POP POP JUMP JUMPDEST PUSH0 DUP1 PUSH0 PUSH1 0x2 PUSH0 SWAP1 SLOAD SWAP1 PUSH2 0x100 EXP SWAP1 DIV PUSH20 0xFFFFFFFFFFFFFFFFFFFFFFFFFFFFFFFFFFFFFFFF AND PUSH20 0xFFFFFFFFFFFFFFFFFFFFFFFFFFFFFFFFFFFFFFFF AND PUSH4 0xFEAF968C PUSH1 0x40 MLOAD DUP2 PUSH4 0xFFFFFFFF AND PUSH1 0xE0 SHL DUP2 MSTORE PUSH1 0x4 ADD PUSH1 0xA0 PUSH1 0x40 MLOAD DUP1 DUP4 SUB DUP2 DUP7 GAS STATICCALL ISZERO DUP1 ISZERO PUSH2 0x251D JUMPI RETURNDATASIZE PUSH0 DUP1 RETURNDATACOPY RETURNDATASIZE PUSH0 REVERT JUMPDEST POP POP POP POP PUSH1 0x40 MLOAD RETURNDATASIZE PUSH1 0x1F NOT PUSH1 0x1F DUP3 ADD AND DUP3 ADD DUP1 PUSH1 0x40 MSTORE POP DUP2 ADD SWAP1 PUSH2 0x2541 SWAP2 SWAP1 PUSH2 0x2B0F JUMP JUMPDEST POP SWAP4 POP POP SWAP3 POP POP PUSH0 DUP3 SGT PUSH2 0x2581 JUMPI PUSH1 0x40 MLOAD PUSH32 0x63F585C200000000000000000000000000000000000000000000000000000000 DUP2 MSTORE PUSH1 0x4 ADD PUSH1 0x40 MLOAD DUP1 SWAP2 SUB SWAP1 REVERT JUMPDEST PUSH0 DUP2 TIMESTAMP PUSH2 0x258E SWAP2 SWAP1 PUSH2 0x2A56 JUMP JUMPDEST SWAP1 POP PUSH2 0xE10 DUP2 GT ISZERO PUSH2 0x25DB JUMPI DUP1 PUSH2 0xE10 PUSH1 0x40 MLOAD PUSH32 0x74937DF300000000000000000000000000000000000000000000000000000000 DUP2 MSTORE PUSH1 0x4 ADD PUSH2 0x25D2 SWAP3 SWAP2 SWAP1 PUSH2 0x291A JUMP JUMPDEST PUSH1 0x40 MLOAD DUP1 SWAP2 SUB SWAP1 REVERT JUMPDEST DUP3 SWAP4 POP POP POP POP SWAP1 JUMP JUMPDEST PUSH0 DUP1 PUSH1 0x20 PUSH0 DUP5 MLOAD PUSH1 0x20 DUP7 ADD PUSH0 DUP9 GAS CALL DUP1 PUSH2 0x2603 JUMPI PUSH1 0x40 MLOAD RETURNDATASIZE PUSH0 DUP3 RETURNDATACOPY RETURNDATASIZE DUP2 REVERT JUMPDEST RETURNDATASIZE SWAP3 POP PUSH0 MLOAD SWAP2 POP POP PUSH0 DUP3 EQ PUSH2 0x261C JUMPI PUSH1 0x1 DUP2 EQ ISZERO PUSH2 0x2637 JUMP JUMPDEST PUSH0 DUP5 PUSH20 0xFFFFFFFFFFFFFFFFFFFFFFFFFFFFFFFFFFFFFFFF AND EXTCODESIZE EQ JUMPDEST ISZERO PUSH2 0x2679 JUMPI DUP4 PUSH1 0x40 MLOAD PUSH32 0x5274AFE700000000000000000000000000000000000000000000000000000000 DUP2 MSTORE PUSH1 0x4 ADD PUSH2 0x2670 SWAP2 SWAP1 PUSH2 0x274F JUMP JUMPDEST PUSH1 0x40 MLOAD DUP1 SWAP2 SUB SWAP1 REVERT JUMPDEST POP POP POP POP JUMP JUMPDEST PUSH0 CALLER SWAP1 POP SWAP1 JUMP JUMPDEST PUSH0 DUP2 SWAP1 POP SWAP2 SWAP1 POP JUMP JUMPDEST PUSH2 0x2698 DUP2 PUSH2 0x2686 JUMP JUMPDEST DUP3 MSTORE POP POP JUMP JUMPDEST PUSH0 PUSH1 0x20 DUP3 ADD SWAP1 POP PUSH2 0x26B1 PUSH0 DUP4 ADD DUP5 PUSH2 0x268F JUMP JUMPDEST SWAP3 SWAP2 POP POP JUMP JUMPDEST PUSH0 DUP1 REVERT JUMPDEST PUSH0 PUSH20 0xFFFFFFFFFFFFFFFFFFFFFFFFFFFFFFFFFFFFFFFF DUP3 AND SWAP1 POP SWAP2 SWAP1 POP JUMP JUMPDEST PUSH0 PUSH2 0x26E4 DUP3 PUSH2 0x26BB JUMP JUMPDEST SWAP1 POP SWAP2 SWAP1 POP JUMP JUMPDEST PUSH2 0x26F4 DUP2 PUSH2 0x26DA JUMP JUMPDEST DUP2 EQ PUSH2 0x26FE JUMPI PUSH0 DUP1 REVERT JUMPDEST POP JUMP JUMPDEST PUSH0 DUP2 CALLDATALOAD SWAP1 POP PUSH2 0x270F DUP2 PUSH2 0x26EB JUMP JUMPDEST SWAP3 SWAP2 POP POP JUMP JUMPDEST PUSH0 PUSH1 0x20 DUP3 DUP5 SUB SLT ISZERO PUSH2 0x272A JUMPI PUSH2 0x2729 PUSH2 0x26B7 JUMP JUMPDEST JUMPDEST PUSH0 PUSH2 0x2737 DUP5 DUP3 DUP6 ADD PUSH2 0x2701 JUMP JUMPDEST SWAP2 POP POP SWAP3 SWAP2 POP POP JUMP JUMPDEST PUSH2 0x2749 DUP2 PUSH2 0x26DA JUMP JUMPDEST DUP3 MSTORE POP POP JUMP JUMPDEST PUSH0 PUSH1 0x20 DUP3 ADD SWAP1 POP PUSH2 0x2762 PUSH0 DUP4 ADD DUP5 PUSH2 0x2740 JUMP JUMPDEST SWAP3 SWAP2 POP POP JUMP JUMPDEST PUSH2 0x2771 DUP2 PUSH2 0x2686 JUMP JUMPDEST DUP2 EQ PUSH2 0x277B JUMPI PUSH0 DUP1 REVERT JUMPDEST POP JUMP JUMPDEST PUSH0 DUP2 CALLDATALOAD SWAP1 POP PUSH2 0x278C DUP2 PUSH2 0x2768 JUMP JUMPDEST SWAP3 SWAP2 POP POP JUMP JUMPDEST PUSH0 PUSH1 0x20 DUP3 DUP5 SUB SLT ISZERO PUSH2 0x27A7 JUMPI PUSH2 0x27A6 PUSH2 0x26B7 JUMP JUMPDEST JUMPDEST PUSH0 PUSH2 0x27B4 DUP5 DUP3 DUP6 ADD PUSH2 0x277E JUMP JUMPDEST SWAP2 POP POP SWAP3 SWAP2 POP POP JUMP JUMPDEST PUSH0 DUP1 PUSH1 0x40 DUP4 DUP6 SUB SLT ISZERO PUSH2 0x27D3 JUMPI PUSH2 0x27D2 PUSH2 0x26B7 JUMP JUMPDEST JUMPDEST PUSH0 PUSH2 0x27E0 DUP6 DUP3 DUP7 ADD PUSH2 0x2701 JUMP JUMPDEST SWAP3 POP POP PUSH1 0x20 PUSH2 0x27F1 DUP6 DUP3 DUP7 ADD PUSH2 0x277E JUMP JUMPDEST SWAP2 POP POP SWAP3 POP SWAP3 SWAP1 POP JUMP JUMPDEST PUSH0 PUSH1 0xE0 DUP3 ADD SWAP1 POP PUSH2 0x280E PUSH0 DUP4 ADD DUP11 PUSH2 0x268F JUMP JUMPDEST PUSH2 0x281B PUSH1 0x20 DUP4 ADD DUP10 PUSH2 0x268F JUMP JUMPDEST PUSH2 0x2828 PUSH1 0x40 DUP4 ADD DUP9 PUSH2 0x268F JUMP JUMPDEST PUSH2 0x2835 PUSH1 0x60 DUP4 ADD DUP8 PUSH2 0x268F JUMP JUMPDEST PUSH2 0x2842 PUSH1 0x80 DUP4 ADD DUP7 PUSH2 0x268F JUMP JUMPDEST PUSH2 0x284F PUSH1 0xA0 DUP4 ADD DUP6 PUSH2 0x268F JUMP JUMPDEST PUSH2 0x285C PUSH1 0xC0 DUP4 ADD DUP5 PUSH2 0x268F JUMP JUMPDEST SWAP9 SWAP8 POP POP POP POP POP POP POP POP JUMP JUMPDEST PUSH0 DUP2 SWAP1 POP SWAP2 SWAP1 POP JUMP JUMPDEST PUSH0 PUSH2 0x288B PUSH2 0x2886 PUSH2 0x2881 DUP5 PUSH2 0x26BB JUMP JUMPDEST PUSH2 0x2868 JUMP JUMPDEST PUSH2 0x26BB JUMP JUMPDEST SWAP1 POP SWAP2 SWAP1 POP JUMP JUMPDEST PUSH0 PUSH2 0x289C DUP3 PUSH2 0x2871 JUMP JUMPDEST SWAP1 POP SWAP2 SWAP1 POP JUMP JUMPDEST PUSH0 PUSH2 0x28AD DUP3 PUSH2 0x2892 JUMP JUMPDEST SWAP1 POP SWAP2 SWAP1 POP JUMP JUMPDEST PUSH2 0x28BD DUP2 PUSH2 0x28A3 JUMP JUMPDEST DUP3 MSTORE POP POP JUMP JUMPDEST PUSH0 PUSH1 0x20 DUP3 ADD SWAP1 POP PUSH2 0x28D6 PUSH0 DUP4 ADD DUP5 PUSH2 0x28B4 JUMP JUMPDEST SWAP3 SWAP2 POP POP JUMP JUMPDEST PUSH0 DUP1 PUSH1 0x40 DUP4 DUP6 SUB SLT ISZERO PUSH2 0x28F2 JUMPI PUSH2 0x28F1 PUSH2 0x26B7 JUMP JUMPDEST JUMPDEST PUSH0 PUSH2 0x28FF DUP6 DUP3 DUP7 ADD PUSH2 0x2701 JUMP JUMPDEST SWAP3 POP POP PUSH1 0x20 PUSH2 0x2910 DUP6 DUP3 DUP7 ADD PUSH2 0x2701 JUMP JUMPDEST SWAP2 POP POP SWAP3 POP SWAP3 SWAP1 POP JUMP JUMPDEST PUSH0 PUSH1 0x40 DUP3 ADD SWAP1 POP PUSH2 0x292D PUSH0 DUP4 ADD DUP6 PUSH2 0x268F JUMP JUMPDEST PUSH2 0x293A PUSH1 0x20 DUP4 ADD DUP5 PUSH2 0x268F JUMP JUMPDEST SWAP4 SWAP3 POP POP POP JUMP JUMPDEST PUSH0 PUSH2 0x294B DUP3 PUSH2 0x2892 JUMP JUMPDEST SWAP1 POP SWAP2 SWAP1 POP JUMP JUMPDEST PUSH2 0x295B DUP2 PUSH2 0x2941 JUMP JUMPDEST DUP3 MSTORE POP POP JUMP JUMPDEST PUSH0 PUSH1 0x20 DUP3 ADD SWAP1 POP PUSH2 0x2974 PUSH0 DUP4 ADD DUP5 PUSH2 0x2952 JUMP JUMPDEST SWAP3 SWAP2 POP POP JUMP JUMPDEST PUSH32 0x4E487B7100000000000000000000000000000000000000000000000000000000 PUSH0 MSTORE PUSH1 0x11 PUSH1 0x4 MSTORE PUSH1 0x24 PUSH0 REVERT JUMPDEST PUSH0 PUSH2 0x29B1 DUP3 PUSH2 0x2686 JUMP JUMPDEST SWAP2 POP PUSH2 0x29BC DUP4 PUSH2 0x2686 JUMP JUMPDEST SWAP3 POP DUP3 DUP3 ADD SWAP1 POP DUP1 DUP3 GT ISZERO PUSH2 0x29D4 JUMPI PUSH2 0x29D3 PUSH2 0x297A JUMP JUMPDEST JUMPDEST SWAP3 SWAP2 POP POP JUMP JUMPDEST PUSH0 PUSH1 0x60 DUP3 ADD SWAP1 POP PUSH2 0x29ED PUSH0 DUP4 ADD DUP7 PUSH2 0x268F JUMP JUMPDEST PUSH2 0x29FA PUSH1 0x20 DUP4 ADD DUP6 PUSH2 0x268F JUMP JUMPDEST PUSH2 0x2A07 PUSH1 0x40 DUP4 ADD DUP5 PUSH2 0x268F JUMP JUMPDEST SWAP5 SWAP4 POP POP POP POP JUMP JUMPDEST PUSH0 PUSH2 0x2A19 DUP3 PUSH2 0x2686 JUMP JUMPDEST SWAP2 POP PUSH32 0xFFFFFFFFFFFFFFFFFFFFFFFFFFFFFFFFFFFFFFFFFFFFFFFFFFFFFFFFFFFFFFFF DUP3 SUB PUSH2 0x2A4B JUMPI PUSH2 0x2A4A PUSH2 0x297A JUMP JUMPDEST JUMPDEST PUSH1 0x1 DUP3 ADD SWAP1 POP SWAP2 SWAP1 POP JUMP JUMPDEST PUSH0 PUSH2 0x2A60 DUP3 PUSH2 0x2686 JUMP JUMPDEST SWAP2 POP PUSH2 0x2A6B DUP4 PUSH2 0x2686 JUMP JUMPDEST SWAP3 POP DUP3 DUP3 SUB SWAP1 POP DUP2 DUP2 GT ISZERO PUSH2 0x2A83 JUMPI PUSH2 0x2A82 PUSH2 0x297A JUMP JUMPDEST JUMPDEST SWAP3 SWAP2 POP POP JUMP JUMPDEST PUSH0 PUSH10 0xFFFFFFFFFFFFFFFFFFFF DUP3 AND SWAP1 POP SWAP2 SWAP1 POP JUMP JUMPDEST PUSH2 0x2AA7 DUP2 PUSH2 0x2A89 JUMP JUMPDEST DUP2 EQ PUSH2 0x2AB1 JUMPI PUSH0 DUP1 REVERT JUMPDEST POP JUMP JUMPDEST PUSH0 DUP2 MLOAD SWAP1 POP PUSH2 0x2AC2 DUP2 PUSH2 0x2A9E JUMP JUMPDEST SWAP3 SWAP2 POP POP JUMP JUMPDEST PUSH0 DUP2 SWAP1 POP SWAP2 SWAP1 POP JUMP JUMPDEST PUSH2 0x2ADA DUP2 PUSH2 0x2AC8 JUMP JUMPDEST DUP2 EQ PUSH2 0x2AE4 JUMPI PUSH0 DUP1 REVERT JUMPDEST POP JUMP JUMPDEST PUSH0 DUP2 MLOAD SWAP1 POP PUSH2 0x2AF5 DUP2 PUSH2 0x2AD1 JUMP JUMPDEST SWAP3 SWAP2 POP POP JUMP JUMPDEST PUSH0 DUP2 MLOAD SWAP1 POP PUSH2 0x2B09 DUP2 PUSH2 0x2768 JUMP JUMPDEST SWAP3 SWAP2 POP POP JUMP JUMPDEST PUSH0 DUP1 PUSH0 DUP1 PUSH0 PUSH1 0xA0 DUP7 DUP9 SUB SLT ISZERO PUSH2 0x2B28 JUMPI PUSH2 0x2B27 PUSH2 0x26B7 JUMP JUMPDEST JUMPDEST PUSH0 PUSH2 0x2B35 DUP9 DUP3 DUP10 ADD PUSH2 0x2AB4 JUMP JUMPDEST SWAP6 POP POP PUSH1 0x20 PUSH2 0x2B46 DUP9 DUP3 DUP10 ADD PUSH2 0x2AE7 JUMP JUMPDEST SWAP5 POP POP PUSH1 0x40 PUSH2 0x2B57 DUP9 DUP3 DUP10 ADD PUSH2 0x2AFB JUMP JUMPDEST SWAP4 POP POP PUSH1 0x60 PUSH2 0x2B68 DUP9 DUP3 DUP10 ADD PUSH2 0x2AFB JUMP JUMPDEST SWAP3 POP POP PUSH1 0x80 PUSH2 0x2B79 DUP9 DUP3 DUP10 ADD PUSH2 0x2AB4 JUMP JUMPDEST SWAP2 POP POP SWAP3 SWAP6 POP SWAP3 SWAP6 SWAP1 SWAP4 POP JUMP JUMPDEST PUSH0 PUSH2 0x2B90 DUP3 PUSH2 0x2686 JUMP JUMPDEST SWAP2 POP PUSH2 0x2B9B DUP4 PUSH2 0x2686 JUMP JUMPDEST SWAP3 POP DUP3 DUP3 MUL PUSH2 0x2BA9 DUP2 PUSH2 0x2686 JUMP JUMPDEST SWAP2 POP DUP3 DUP3 DIV DUP5 EQ DUP4 ISZERO OR PUSH2 0x2BC0 JUMPI PUSH2 0x2BBF PUSH2 0x297A JUMP JUMPDEST JUMPDEST POP SWAP3 SWAP2 POP POP JUMP JUMPDEST PUSH32 0x4E487B7100000000000000000000000000000000000000000000000000000000 PUSH0 MSTORE PUSH1 0x12 PUSH1 0x4 MSTORE PUSH1 0x24 PUSH0 REVERT JUMPDEST PUSH0 PUSH2 0x2BFE DUP3 PUSH2 0x2686 JUMP JUMPDEST SWAP2 POP PUSH2 0x2C09 DUP4 PUSH2 0x2686 JUMP JUMPDEST SWAP3 POP DUP3 PUSH2 0x2C19 JUMPI PUSH2 0x2C18 PUSH2 0x2BC7 JUMP JUMPDEST JUMPDEST DUP3 DUP3 DIV SWAP1 POP SWAP3 SWAP2 POP POP JUMP JUMPDEST PUSH0 PUSH1 0x60 DUP3 ADD SWAP1 POP PUSH2 0x2C37 PUSH0 DUP4 ADD DUP7 PUSH2 0x2740 JUMP JUMPDEST PUSH2 0x2C44 PUSH1 0x20 DUP4 ADD DUP6 PUSH2 0x2740 JUMP JUMPDEST PUSH2 0x2C51 PUSH1 0x40 DUP4 ADD DUP5 PUSH2 0x268F JUMP JUMPDEST SWAP5 SWAP4 POP POP POP POP JUMP JUMPDEST PUSH0 PUSH1 0x40 DUP3 ADD SWAP1 POP PUSH2 0x2C6C PUSH0 DUP4 ADD DUP6 PUSH2 0x2740 JUMP JUMPDEST PUSH2 0x2C79 PUSH1 0x20 DUP4 ADD DUP5 PUSH2 0x268F JUMP JUMPDEST SWAP4 SWAP3 POP POP POP JUMP JUMPDEST PUSH0 DUP2 SWAP1 POP SWAP3 SWAP2 POP POP JUMP JUMPDEST POP JUMP JUMPDEST PUSH0 PUSH2 0x2C98 PUSH0 DUP4 PUSH2 0x2C80 JUMP JUMPDEST SWAP2 POP PUSH2 0x2CA3 DUP3 PUSH2 0x2C8A JUMP JUMPDEST PUSH0 DUP3 ADD SWAP1 POP SWAP2 SWAP1 POP JUMP JUMPDEST PUSH0 PUSH2 0x2CB7 DUP3 PUSH2 0x2C8D JUMP JUMPDEST SWAP2 POP DUP2 SWAP1 POP SWAP2 SWAP1 POP JUMP INVALID LOG2 PUSH5 0x6970667358 0x22 SLT KECCAK256 PUSH27 0xA77AAA5386AE58C8F25AE37EBB006A3934A329638C8FE9A1B91D25 0xC6 0xAF DIV 0xDC PUSH5 0x736F6C6343 STOP ADDMOD BYTE STOP CALLER "
				},
				"gasEstimates": {
					"creation": {
						"codeDepositCost": "2302200",
						"executionCost": "infinite",
						"totalCost": "infinite"
					},
					"external": {
						"NATIVE_TOKEN()": "506",
						"actualizarFeed(address)": "infinite",
						"consultarBalance(address,address)": "infinite",
						"consultarBalanceTotalUSD(address)": "infinite",
						"consultarEstadoBanco()": "infinite",
						"consultarPrecioETH()": "infinite",
						"depositarETH()": "infinite",
						"depositarToken(address,uint256)": "infinite",
						"depositarUSDC(uint256)": "infinite",
						"getUmbralRetiro()": "infinite",
						"i_bankCapUSD()": "infinite",
						"i_umbralRetiroUSD()": "infinite",
						"i_usdc()": "infinite",
						"owner()": "2538",
						"renounceOwnership()": "infinite",
						"retirarETH(uint256)": "infinite",
						"retirarToken(address,uint256)": "infinite",
						"retirarUSDC(uint256)": "infinite",
						"s_balances(address,address)": "infinite",
						"s_contadorDepositos()": "2493",
						"s_contadorRetiros()": "2514",
						"s_ethUsdFeed()": "infinite",
						"s_totalDepositadoPorToken(address)": "2914",
						"s_totalDepositadoUSD()": "2491",
						"transferOwnership(address)": "infinite"
					},
					"internal": {
						"_convertirEthAUsd(uint256)": "infinite",
						"_normalizarDecimales(address,uint256)": "infinite",
						"_obtenerPrecioEth()": "infinite",
						"_transferirEth(address,uint256)": "infinite"
					}
				},
				"methodIdentifiers": {
					"NATIVE_TOKEN()": "31f7d964",
					"actualizarFeed(address)": "d30451e7",
					"consultarBalance(address,address)": "c3b5bc22",
					"consultarBalanceTotalUSD(address)": "501cb72d",
					"consultarEstadoBanco()": "abc9cd6d",
					"consultarPrecioETH()": "d4289d89",
					"depositarETH()": "16a1930f",
					"depositarToken(address,uint256)": "a86b0bf6",
					"depositarUSDC(uint256)": "698b7241",
					"getUmbralRetiro()": "2b513163",
					"i_bankCapUSD()": "0ccee433",
					"i_umbralRetiroUSD()": "3eaa00fb",
					"i_usdc()": "ff40e1d0",
					"owner()": "8da5cb5b",
					"renounceOwnership()": "715018a6",
					"retirarETH(uint256)": "82fe54b5",
					"retirarToken(address,uint256)": "6a5f2407",
					"retirarUSDC(uint256)": "931fb90e",
					"s_balances(address,address)": "dccd58e3",
					"s_contadorDepositos()": "2230c272",
					"s_contadorRetiros()": "d4b0d3ce",
					"s_ethUsdFeed()": "b9eb1c9a",
					"s_totalDepositadoPorToken(address)": "2fda583e",
					"s_totalDepositadoUSD()": "e98c6601",
					"transferOwnership(address)": "f2fde38b"
				}
			},
			"storageLayout": {
				"storage": [
					{
						"astId": 1046,
						"contract": "03_kipu-bank-v2/contracts/errKipuBankV2 copy.sol:KipuBankV2",
						"label": "_owner",
						"offset": 0,
						"slot": "0",
						"type": "t_address"
					},
					{
						"astId": 1858,
						"contract": "03_kipu-bank-v2/contracts/errKipuBankV2 copy.sol:KipuBankV2",
						"label": "_status",
						"offset": 0,
						"slot": "1",
						"type": "t_uint256"
					},
					{
						"astId": 52,
						"contract": "03_kipu-bank-v2/contracts/errKipuBankV2 copy.sol:KipuBankV2",
						"label": "s_ethUsdFeed",
						"offset": 0,
						"slot": "2",
						"type": "t_contract(AggregatorV3Interface)1037"
					},
					{
						"astId": 59,
						"contract": "03_kipu-bank-v2/contracts/errKipuBankV2 copy.sol:KipuBankV2",
						"label": "s_balances",
						"offset": 0,
						"slot": "3",
						"type": "t_mapping(t_address,t_mapping(t_address,t_uint256))"
					},
					{
						"astId": 64,
						"contract": "03_kipu-bank-v2/contracts/errKipuBankV2 copy.sol:KipuBankV2",
						"label": "s_totalDepositadoPorToken",
						"offset": 0,
						"slot": "4",
						"type": "t_mapping(t_address,t_uint256)"
					},
					{
						"astId": 67,
						"contract": "03_kipu-bank-v2/contracts/errKipuBankV2 copy.sol:KipuBankV2",
						"label": "s_totalDepositadoUSD",
						"offset": 0,
						"slot": "5",
						"type": "t_uint256"
					},
					{
						"astId": 70,
						"contract": "03_kipu-bank-v2/contracts/errKipuBankV2 copy.sol:KipuBankV2",
						"label": "s_contadorDepositos",
						"offset": 0,
						"slot": "6",
						"type": "t_uint256"
					},
					{
						"astId": 73,
						"contract": "03_kipu-bank-v2/contracts/errKipuBankV2 copy.sol:KipuBankV2",
						"label": "s_contadorRetiros",
						"offset": 0,
						"slot": "7",
						"type": "t_uint256"
					}
				],
				"types": {
					"t_address": {
						"encoding": "inplace",
						"label": "address",
						"numberOfBytes": "20"
					},
					"t_contract(AggregatorV3Interface)1037": {
						"encoding": "inplace",
						"label": "contract AggregatorV3Interface",
						"numberOfBytes": "20"
					},
					"t_mapping(t_address,t_mapping(t_address,t_uint256))": {
						"encoding": "mapping",
						"key": "t_address",
						"label": "mapping(address => mapping(address => uint256))",
						"numberOfBytes": "32",
						"value": "t_mapping(t_address,t_uint256)"
					},
					"t_mapping(t_address,t_uint256)": {
						"encoding": "mapping",
						"key": "t_address",
						"label": "mapping(address => uint256)",
						"numberOfBytes": "32",
						"value": "t_uint256"
					},
					"t_uint256": {
						"encoding": "inplace",
						"label": "uint256",
						"numberOfBytes": "32"
					}
				}
			},
			"userdoc": {
				"errors": {
					"KipuBankV2_LimiteGlobalExcedidoUSD(uint256,uint256,uint256)": [
						{
							"notice": "Error emitido cuando el depósito excede el límite global en USD"
						}
					],
					"KipuBankV2_MontoDebeSerMayorACero()": [
						{
							"notice": "Error emitido cuando el monto es cero"
						}
					],
					"KipuBankV2_OracleCompromised()": [
						{
							"notice": "Error emitido cuando el oráculo retorna un precio inválido"
						}
					],
					"KipuBankV2_RetiroExcedeUmbral(uint256,uint256)": [
						{
							"notice": "Error emitido cuando el retiro excede el umbral permitido por transacción"
						}
					],
					"KipuBankV2_SaldoInsuficiente(uint256,uint256)": [
						{
							"notice": "Error emitido cuando el usuario intenta retirar más de lo que tiene"
						}
					],
					"KipuBankV2_StalePrice(uint256,uint256)": [
						{
							"notice": "Error emitido cuando el precio del oráculo está desactualizado"
						}
					],
					"KipuBankV2_TokenNoSoportado(address)": [
						{
							"notice": "Error emitido cuando el token no es soportado"
						}
					],
					"KipuBankV2_TransferenciaFallida(address)": [
						{
							"notice": "Error emitido cuando falla la transferencia de ETH"
						}
					]
				},
				"events": {
					"KipuBankV2_DepositoRealizado(address,address,uint256,uint256)": {
						"notice": "Evento emitido cuando un usuario realiza un depósito exitoso"
					},
					"KipuBankV2_FeedActualizado(address)": {
						"notice": "Evento emitido cuando el owner actualiza el feed de Chainlink"
					},
					"KipuBankV2_RetiroRealizado(address,address,uint256,uint256)": {
						"notice": "Evento emitido cuando un usuario realiza un retiro exitoso"
					}
				},
				"kind": "user",
				"methods": {
					"NATIVE_TOKEN()": {
						"notice": "declaro eth nativo"
					},
					"actualizarFeed(address)": {
						"notice": "Permite al dueno del contrato actualizar la dirección del Chainlink Price Feed"
					},
					"consultarBalance(address,address)": {
						"notice": "Consulta el balance de un usuario para un token específico"
					},
					"consultarBalanceTotalUSD(address)": {
						"notice": "Consulta el balance total de un usuario en USD (todos los tokens)"
					},
					"consultarEstadoBanco()": {
						"notice": "Consulta información general del estado del banco"
					},
					"consultarPrecioETH()": {
						"notice": "Consulta el precio actual de ETH en USD desde Chainlink"
					},
					"depositarETH()": {
						"notice": "Permite depositar ETH nativo en la bóveda del usuario"
					},
					"depositarToken(address,uint256)": {
						"notice": "Permite depositar tokens ERC20 en la bóveda del usuario"
					},
					"depositarUSDC(uint256)": {
						"notice": "Depositar directamente USDC"
					},
					"i_bankCapUSD()": {
						"notice": "Límite global del banco en USD"
					},
					"i_umbralRetiroUSD()": {
						"notice": "Umbral máximo de retiro por transacción en USD"
					},
					"i_usdc()": {
						"notice": "Dirección del token USDC"
					},
					"retirarETH(uint256)": {
						"notice": "Permite retirar ETH nativo de la bóveda del usuario"
					},
					"retirarToken(address,uint256)": {
						"notice": "Permite retirar tokens ERC20 de la bóveda del usuario"
					},
					"retirarUSDC(uint256)": {
						"notice": "Permite retirar USDC de la bóveda del usuario"
					},
					"s_balances(address,address)": {
						"notice": "Mapping anidado: usuario => token => balance en USD"
					},
					"s_contadorDepositos()": {
						"notice": "Contador global de depósitos realizados"
					},
					"s_contadorRetiros()": {
						"notice": "Contador global de retiros realizados"
					},
					"s_ethUsdFeed()": {
						"notice": "Oracle de Chainlink para obtener precio ETH/USD"
					},
					"s_totalDepositadoPorToken(address)": {
						"notice": "Total depositado por token en USD"
					},
					"s_totalDepositadoUSD()": {
						"notice": "Total depositado global en USD (suma de todos los tokens)"
					}
				},
				"version": 1
			}
		}
	}
}