{
	"data": {
		"bytecode": {
			"linkReferences": {},
			"object": "60e060405234801561000f575f80fd5b506040516128db3803806128db83398181016040528101906100319190610299565b805f73ffffffffffffffffffffffffffffffffffffffff168173ffffffffffffffffffffffffffffffffffffffff16036100a2575f6040517f1e4fbdf7000000000000000000000000000000000000000000000000000000008152600401610099919061031f565b60405180910390fd5b6100b18161014760201b60201c565b506001808190555084608081815250508360a081815250508260025f6101000a81548173ffffffffffffffffffffffffffffffffffffffff021916908373ffffffffffffffffffffffffffffffffffffffff1602179055508173ffffffffffffffffffffffffffffffffffffffff1660c08173ffffffffffffffffffffffffffffffffffffffff16815250505050505050610338565b5f805f9054906101000a900473ffffffffffffffffffffffffffffffffffffffff169050815f806101000a81548173ffffffffffffffffffffffffffffffffffffffff021916908373ffffffffffffffffffffffffffffffffffffffff1602179055508173ffffffffffffffffffffffffffffffffffffffff168173ffffffffffffffffffffffffffffffffffffffff167f8be0079c531659141344cd1fd0a4f28419497f9722a3daafe3b4186f6b6457e060405160405180910390a35050565b5f80fd5b5f819050919050565b61021e8161020c565b8114610228575f80fd5b50565b5f8151905061023981610215565b92915050565b5f73ffffffffffffffffffffffffffffffffffffffff82169050919050565b5f6102688261023f565b9050919050565b6102788161025e565b8114610282575f80fd5b50565b5f815190506102938161026f565b92915050565b5f805f805f60a086880312156102b2576102b1610208565b5b5f6102bf8882890161022b565b95505060206102d08882890161022b565b94505060406102e188828901610285565b93505060606102f288828901610285565b925050608061030388828901610285565b9150509295509295909350565b6103198161025e565b82525050565b5f6020820190506103325f830184610310565b92915050565b60805160a05160c0516125096103d25f395f818161085001528181610975015281816111d20152818161154601528181611886015261192e01525f81816107ae015281816107ed01528181610b8601528181610baf01528181610f5601528181610f7f01526115d001525f818161051c0152818161058d015281816105c6015281816112ac015281816112e501526115ad01526125095ff3fe60806040526004361061013f575f3560e01c80638da5cb5b116100b5578063d4289d891161006e578063d4289d891461040d578063d4b0d3ce14610438578063dccd58e314610462578063e98c66011461049e578063f2fde38b146104c8578063ff40e1d0146104f05761013f565b80638da5cb5b146102fd578063a86b0bf614610327578063abc9cd6d1461034f578063b9eb1c9a1461037f578063c3b5bc22146103a9578063d30451e7146103e55761013f565b806331f7d9641161010757806331f7d964146102075780633eaa00fb14610231578063501cb72d1461025b5780636a5f240714610297578063715018a6146102bf57806382fe54b5146102d55761013f565b80630ccee4331461014357806316a1930f1461016d5780632230c272146101775780632b513163146101a15780632fda583e146101cb575b5f80fd5b34801561014e575f80fd5b5061015761051a565b6040516101649190611eb0565b60405180910390f35b61017561053e565b005b348015610182575f80fd5b5061018b6107a5565b6040516101989190611eb0565b60405180910390f35b3480156101ac575f80fd5b506101b56107ab565b6040516101c29190611eb0565b60405180910390f35b3480156101d6575f80fd5b506101f160048036038101906101ec9190611f27565b6107d2565b6040516101fe9190611eb0565b60405180910390f35b348015610212575f80fd5b5061021b6107e7565b6040516102289190611f61565b60405180910390f35b34801561023c575f80fd5b506102456107eb565b6040516102529190611eb0565b60405180910390f35b348015610266575f80fd5b50610281600480360381019061027c9190611f27565b61080f565b60405161028e9190611eb0565b60405180910390f35b3480156102a2575f80fd5b506102bd60048036038101906102b89190611fa4565b610933565b005b3480156102ca575f80fd5b506102d3610dbc565b005b3480156102e0575f80fd5b506102fb60048036038101906102f69190611fe2565b610dcf565b005b348015610308575f80fd5b50610311611169565b60405161031e9190611f61565b60405180910390f35b348015610332575f80fd5b5061034d60048036038101906103489190611fa4565b611190565b005b34801561035a575f80fd5b506103636114f5565b604051610376979695949392919061200d565b60405180910390f35b34801561038a575f80fd5b506103936115fa565b6040516103a091906120d5565b60405180910390f35b3480156103b4575f80fd5b506103cf60048036038101906103ca91906120ee565b61161f565b6040516103dc9190611eb0565b60405180910390f35b3480156103f0575f80fd5b5061040b60048036038101906104069190611f27565b6116a1565b005b348015610418575f80fd5b5061042161172f565b60405161042f92919061212c565b60405180910390f35b348015610443575f80fd5b5061044c6117d4565b6040516104599190611eb0565b60405180910390f35b34801561046d575f80fd5b50610488600480360381019061048391906120ee565b6117da565b6040516104959190611eb0565b60405180910390f35b3480156104a9575f80fd5b506104b26117fa565b6040516104bf9190611eb0565b60405180910390f35b3480156104d3575f80fd5b506104ee60048036038101906104e99190611f27565b611800565b005b3480156104fb575f80fd5b50610504611884565b6040516105119190612173565b60405180910390f35b7f000000000000000000000000000000000000000000000000000000000000000081565b6105466118a8565b5f340361057f576040517fe729dc6400000000000000000000000000000000000000000000000000000000815260040160405180910390fd5b5f610589346118ee565b90507f0000000000000000000000000000000000000000000000000000000000000000816005546105ba91906121b9565b111561062357600554817f00000000000000000000000000000000000000000000000000000000000000006040517fc9fe79b800000000000000000000000000000000000000000000000000000000815260040161061a939291906121ec565b60405180910390fd5b8060035f3373ffffffffffffffffffffffffffffffffffffffff1673ffffffffffffffffffffffffffffffffffffffff1681526020019081526020015f205f8073ffffffffffffffffffffffffffffffffffffffff1673ffffffffffffffffffffffffffffffffffffffff1681526020019081526020015f205f8282546106aa91906121b9565b925050819055508060045f8073ffffffffffffffffffffffffffffffffffffffff1673ffffffffffffffffffffffffffffffffffffffff1681526020019081526020015f205f8282546106fd91906121b9565b925050819055508060055f82825461071591906121b9565b9250508190555060065f81548092919061072e90612221565b91905055505f73ffffffffffffffffffffffffffffffffffffffff163373ffffffffffffffffffffffffffffffffffffffff167f751f8b54c0e32ef5b9fafdbdac0c93c1994cc8848fa17ed7798bd90aae8bfe9b348460405161079292919061212c565b60405180910390a3506107a3611922565b565b60065481565b5f7f0000000000000000000000000000000000000000000000000000000000000000905090565b6004602052805f5260405f205f915090505481565b5f81565b7f000000000000000000000000000000000000000000000000000000000000000081565b5f60035f8373ffffffffffffffffffffffffffffffffffffffff1673ffffffffffffffffffffffffffffffffffffffff1681526020019081526020015f205f7f000000000000000000000000000000000000000000000000000000000000000073ffffffffffffffffffffffffffffffffffffffff1673ffffffffffffffffffffffffffffffffffffffff1681526020019081526020015f205460035f8473ffffffffffffffffffffffffffffffffffffffff1673ffffffffffffffffffffffffffffffffffffffff1681526020019081526020015f205f8073ffffffffffffffffffffffffffffffffffffffff1673ffffffffffffffffffffffffffffffffffffffff1681526020019081526020015f205461092c91906121b9565b9050919050565b61093b6118a8565b815f73ffffffffffffffffffffffffffffffffffffffff168173ffffffffffffffffffffffffffffffffffffffff16141580156109c457507f000000000000000000000000000000000000000000000000000000000000000073ffffffffffffffffffffffffffffffffffffffff168173ffffffffffffffffffffffffffffffffffffffff1614155b15610a0657806040517f2d5c07b90000000000000000000000000000000000000000000000000000000081526004016109fd9190611f61565b60405180910390fd5b815f8103610a40576040517fe729dc6400000000000000000000000000000000000000000000000000000000815260040160405180910390fd5b5f610a4b858561192b565b90508060035f3373ffffffffffffffffffffffffffffffffffffffff1673ffffffffffffffffffffffffffffffffffffffff1681526020019081526020015f205f8773ffffffffffffffffffffffffffffffffffffffff1673ffffffffffffffffffffffffffffffffffffffff1681526020019081526020015f20541015610b845760035f3373ffffffffffffffffffffffffffffffffffffffff1673ffffffffffffffffffffffffffffffffffffffff1681526020019081526020015f205f8673ffffffffffffffffffffffffffffffffffffffff1673ffffffffffffffffffffffffffffffffffffffff1681526020019081526020015f2054816040517f3b286365000000000000000000000000000000000000000000000000000000008152600401610b7b92919061212c565b60405180910390fd5b7f0000000000000000000000000000000000000000000000000000000000000000811115610c0b57807f00000000000000000000000000000000000000000000000000000000000000006040517fd1ecfb73000000000000000000000000000000000000000000000000000000008152600401610c0292919061212c565b60405180910390fd5b8060035f3373ffffffffffffffffffffffffffffffffffffffff1673ffffffffffffffffffffffffffffffffffffffff1681526020019081526020015f205f8773ffffffffffffffffffffffffffffffffffffffff1673ffffffffffffffffffffffffffffffffffffffff1681526020019081526020015f205f828254610c929190612268565b925050819055508060045f8773ffffffffffffffffffffffffffffffffffffffff1673ffffffffffffffffffffffffffffffffffffffff1681526020019081526020015f205f828254610ce59190612268565b925050819055508060055f828254610cfd9190612268565b9250508190555060075f815480929190610d1690612221565b91905055508473ffffffffffffffffffffffffffffffffffffffff163373ffffffffffffffffffffffffffffffffffffffff167fc6acb54bdd58af37c8d1b8bf2f1a561163c5191551bbd6e74cce66ff7b670c778684604051610d7a92919061212c565b60405180910390a3610dad33858773ffffffffffffffffffffffffffffffffffffffff166119ca9092919063ffffffff16565b505050610db8611922565b5050565b610dc4611a49565b610dcd5f611ad0565b565b610dd76118a8565b805f8103610e11576040517fe729dc6400000000000000000000000000000000000000000000000000000000815260040160405180910390fd5b5f610e1b836118ee565b90508060035f3373ffffffffffffffffffffffffffffffffffffffff1673ffffffffffffffffffffffffffffffffffffffff1681526020019081526020015f205f8073ffffffffffffffffffffffffffffffffffffffff1673ffffffffffffffffffffffffffffffffffffffff1681526020019081526020015f20541015610f545760035f3373ffffffffffffffffffffffffffffffffffffffff1673ffffffffffffffffffffffffffffffffffffffff1681526020019081526020015f205f8073ffffffffffffffffffffffffffffffffffffffff1673ffffffffffffffffffffffffffffffffffffffff1681526020019081526020015f2054816040517f3b286365000000000000000000000000000000000000000000000000000000008152600401610f4b92919061212c565b60405180910390fd5b7f0000000000000000000000000000000000000000000000000000000000000000811115610fdb57807f00000000000000000000000000000000000000000000000000000000000000006040517fd1ecfb73000000000000000000000000000000000000000000000000000000008152600401610fd292919061212c565b60405180910390fd5b8060035f3373ffffffffffffffffffffffffffffffffffffffff1673ffffffffffffffffffffffffffffffffffffffff1681526020019081526020015f205f8073ffffffffffffffffffffffffffffffffffffffff1673ffffffffffffffffffffffffffffffffffffffff1681526020019081526020015f205f8282546110629190612268565b925050819055508060045f8073ffffffffffffffffffffffffffffffffffffffff1673ffffffffffffffffffffffffffffffffffffffff1681526020019081526020015f205f8282546110b59190612268565b925050819055508060055f8282546110cd9190612268565b9250508190555060075f8154809291906110e690612221565b91905055505f73ffffffffffffffffffffffffffffffffffffffff163373ffffffffffffffffffffffffffffffffffffffff167fc6acb54bdd58af37c8d1b8bf2f1a561163c5191551bbd6e74cce66ff7b670c77858460405161114a92919061212c565b60405180910390a361115c3384611b91565b5050611166611922565b50565b5f805f9054906101000a900473ffffffffffffffffffffffffffffffffffffffff16905090565b6111986118a8565b815f73ffffffffffffffffffffffffffffffffffffffff168173ffffffffffffffffffffffffffffffffffffffff161415801561122157507f000000000000000000000000000000000000000000000000000000000000000073ffffffffffffffffffffffffffffffffffffffff168173ffffffffffffffffffffffffffffffffffffffff1614155b1561126357806040517f2d5c07b900000000000000000000000000000000000000000000000000000000815260040161125a9190611f61565b60405180910390fd5b815f810361129d576040517fe729dc6400000000000000000000000000000000000000000000000000000000815260040160405180910390fd5b5f6112a8858561192b565b90507f0000000000000000000000000000000000000000000000000000000000000000816005546112d991906121b9565b111561134257600554817f00000000000000000000000000000000000000000000000000000000000000006040517fc9fe79b8000000000000000000000000000000000000000000000000000000008152600401611339939291906121ec565b60405180910390fd5b8060035f3373ffffffffffffffffffffffffffffffffffffffff1673ffffffffffffffffffffffffffffffffffffffff1681526020019081526020015f205f8773ffffffffffffffffffffffffffffffffffffffff1673ffffffffffffffffffffffffffffffffffffffff1681526020019081526020015f205f8282546113c991906121b9565b925050819055508060045f8773ffffffffffffffffffffffffffffffffffffffff1673ffffffffffffffffffffffffffffffffffffffff1681526020019081526020015f205f82825461141c91906121b9565b925050819055508060055f82825461143491906121b9565b9250508190555060065f81548092919061144d90612221565b91905055508473ffffffffffffffffffffffffffffffffffffffff163373ffffffffffffffffffffffffffffffffffffffff167f751f8b54c0e32ef5b9fafdbdac0c93c1994cc8848fa17ed7798bd90aae8bfe9b86846040516114b192919061212c565b60405180910390a36114e63330868873ffffffffffffffffffffffffffffffffffffffff16611c40909392919063ffffffff16565b5050506114f1611922565b5050565b5f805f805f805f600554965060045f8073ffffffffffffffffffffffffffffffffffffffff1673ffffffffffffffffffffffffffffffffffffffff1681526020019081526020015f2054955060045f7f000000000000000000000000000000000000000000000000000000000000000073ffffffffffffffffffffffffffffffffffffffff1673ffffffffffffffffffffffffffffffffffffffff1681526020019081526020015f20549450600654935060075492507f000000000000000000000000000000000000000000000000000000000000000091507f0000000000000000000000000000000000000000000000000000000000000000905090919293949596565b60025f9054906101000a900473ffffffffffffffffffffffffffffffffffffffff1681565b5f60035f8473ffffffffffffffffffffffffffffffffffffffff1673ffffffffffffffffffffffffffffffffffffffff1681526020019081526020015f205f8373ffffffffffffffffffffffffffffffffffffffff1673ffffffffffffffffffffffffffffffffffffffff1681526020019081526020015f2054905092915050565b6116a9611a49565b8060025f6101000a81548173ffffffffffffffffffffffffffffffffffffffff021916908373ffffffffffffffffffffffffffffffffffffffff1602179055508073ffffffffffffffffffffffffffffffffffffffff167f2b87a7a05493a7865dadc5afbb6cedfda3c32f20196d8f45314afa7b32b9401260405160405180910390a250565b5f805f8060025f9054906101000a900473ffffffffffffffffffffffffffffffffffffffff1673ffffffffffffffffffffffffffffffffffffffff1663feaf968c6040518163ffffffff1660e01b815260040160a060405180830381865afa15801561179d573d5f803e3d5ffd5b505050506040513d601f19601f820116820180604052508101906117c19190612321565b5093505092505081935080925050509091565b60075481565b6003602052815f5260405f20602052805f5260405f205f91509150505481565b60055481565b611808611a49565b5f73ffffffffffffffffffffffffffffffffffffffff168173ffffffffffffffffffffffffffffffffffffffff1603611878575f6040517f1e4fbdf700000000000000000000000000000000000000000000000000000000815260040161186f9190611f61565b60405180910390fd5b61188181611ad0565b50565b7f000000000000000000000000000000000000000000000000000000000000000081565b6002600154036118e4576040517f3ee5aeb500000000000000000000000000000000000000000000000000000000815260040160405180910390fd5b6002600181905550565b5f806118f8611cc2565b905068056bc75e2d6310000081846119109190612398565b61191a9190612406565b915050919050565b60018081905550565b5f7f000000000000000000000000000000000000000000000000000000000000000073ffffffffffffffffffffffffffffffffffffffff168373ffffffffffffffffffffffffffffffffffffffff1603611987578190506119c4565b826040517f2d5c07b90000000000000000000000000000000000000000000000000000000081526004016119bb9190611f61565b60405180910390fd5b92915050565b611a44838473ffffffffffffffffffffffffffffffffffffffff1663a9059cbb85856040516024016119fd929190612436565b604051602081830303815290604052915060e01b6020820180517bffffffffffffffffffffffffffffffffffffffffffffffffffffffff8381831617835250505050611df6565b505050565b611a51611e91565b73ffffffffffffffffffffffffffffffffffffffff16611a6f611169565b73ffffffffffffffffffffffffffffffffffffffff1614611ace57611a92611e91565b6040517f118cdaa7000000000000000000000000000000000000000000000000000000008152600401611ac59190611f61565b60405180910390fd5b565b5f805f9054906101000a900473ffffffffffffffffffffffffffffffffffffffff169050815f806101000a81548173ffffffffffffffffffffffffffffffffffffffff021916908373ffffffffffffffffffffffffffffffffffffffff1602179055508173ffffffffffffffffffffffffffffffffffffffff168173ffffffffffffffffffffffffffffffffffffffff167f8be0079c531659141344cd1fd0a4f28419497f9722a3daafe3b4186f6b6457e060405160405180910390a35050565b5f8273ffffffffffffffffffffffffffffffffffffffff1682604051611bb69061248a565b5f6040518083038185875af1925050503d805f8114611bf0576040519150601f19603f3d011682016040523d82523d5f602084013e611bf5565b606091505b5050905080611c3b57826040517f71404a42000000000000000000000000000000000000000000000000000000008152600401611c329190611f61565b60405180910390fd5b505050565b611cbc848573ffffffffffffffffffffffffffffffffffffffff166323b872dd868686604051602401611c759392919061249e565b604051602081830303815290604052915060e01b6020820180517bffffffffffffffffffffffffffffffffffffffffffffffffffffffff8381831617835250505050611df6565b50505050565b5f805f60025f9054906101000a900473ffffffffffffffffffffffffffffffffffffffff1673ffffffffffffffffffffffffffffffffffffffff1663feaf968c6040518163ffffffff1660e01b815260040160a060405180830381865afa158015611d2f573d5f803e3d5ffd5b505050506040513d601f19601f82011682018060405250810190611d539190612321565b509350509250505f8213611d93576040517f63f585c200000000000000000000000000000000000000000000000000000000815260040160405180910390fd5b5f8142611da09190612268565b9050610e10811115611ded5780610e106040517f74937df3000000000000000000000000000000000000000000000000000000008152600401611de492919061212c565b60405180910390fd5b82935050505090565b5f8060205f8451602086015f885af180611e15576040513d5f823e3d81fd5b3d92505f519150505f8214611e2e576001811415611e49565b5f8473ffffffffffffffffffffffffffffffffffffffff163b145b15611e8b57836040517f5274afe7000000000000000000000000000000000000000000000000000000008152600401611e829190611f61565b60405180910390fd5b50505050565b5f33905090565b5f819050919050565b611eaa81611e98565b82525050565b5f602082019050611ec35f830184611ea1565b92915050565b5f80fd5b5f73ffffffffffffffffffffffffffffffffffffffff82169050919050565b5f611ef682611ecd565b9050919050565b611f0681611eec565b8114611f10575f80fd5b50565b5f81359050611f2181611efd565b92915050565b5f60208284031215611f3c57611f3b611ec9565b5b5f611f4984828501611f13565b91505092915050565b611f5b81611eec565b82525050565b5f602082019050611f745f830184611f52565b92915050565b611f8381611e98565b8114611f8d575f80fd5b50565b5f81359050611f9e81611f7a565b92915050565b5f8060408385031215611fba57611fb9611ec9565b5b5f611fc785828601611f13565b9250506020611fd885828601611f90565b9150509250929050565b5f60208284031215611ff757611ff6611ec9565b5b5f61200484828501611f90565b91505092915050565b5f60e0820190506120205f83018a611ea1565b61202d6020830189611ea1565b61203a6040830188611ea1565b6120476060830187611ea1565b6120546080830186611ea1565b61206160a0830185611ea1565b61206e60c0830184611ea1565b98975050505050505050565b5f819050919050565b5f61209d61209861209384611ecd565b61207a565b611ecd565b9050919050565b5f6120ae82612083565b9050919050565b5f6120bf826120a4565b9050919050565b6120cf816120b5565b82525050565b5f6020820190506120e85f8301846120c6565b92915050565b5f806040838503121561210457612103611ec9565b5b5f61211185828601611f13565b925050602061212285828601611f13565b9150509250929050565b5f60408201905061213f5f830185611ea1565b61214c6020830184611ea1565b9392505050565b5f61215d826120a4565b9050919050565b61216d81612153565b82525050565b5f6020820190506121865f830184612164565b92915050565b7f4e487b71000000000000000000000000000000000000000000000000000000005f52601160045260245ffd5b5f6121c382611e98565b91506121ce83611e98565b92508282019050808211156121e6576121e561218c565b5b92915050565b5f6060820190506121ff5f830186611ea1565b61220c6020830185611ea1565b6122196040830184611ea1565b949350505050565b5f61222b82611e98565b91507fffffffffffffffffffffffffffffffffffffffffffffffffffffffffffffffff820361225d5761225c61218c565b5b600182019050919050565b5f61227282611e98565b915061227d83611e98565b92508282039050818111156122955761229461218c565b5b92915050565b5f69ffffffffffffffffffff82169050919050565b6122b98161229b565b81146122c3575f80fd5b50565b5f815190506122d4816122b0565b92915050565b5f819050919050565b6122ec816122da565b81146122f6575f80fd5b50565b5f81519050612307816122e3565b92915050565b5f8151905061231b81611f7a565b92915050565b5f805f805f60a0868803121561233a57612339611ec9565b5b5f612347888289016122c6565b9550506020612358888289016122f9565b94505060406123698882890161230d565b935050606061237a8882890161230d565b925050608061238b888289016122c6565b9150509295509295909350565b5f6123a282611e98565b91506123ad83611e98565b92508282026123bb81611e98565b915082820484148315176123d2576123d161218c565b5b5092915050565b7f4e487b71000000000000000000000000000000000000000000000000000000005f52601260045260245ffd5b5f61241082611e98565b915061241b83611e98565b92508261242b5761242a6123d9565b5b828204905092915050565b5f6040820190506124495f830185611f52565b6124566020830184611ea1565b9392505050565b5f81905092915050565b50565b5f6124755f8361245d565b915061248082612467565b5f82019050919050565b5f6124948261246a565b9150819050919050565b5f6060820190506124b15f830186611f52565b6124be6020830185611f52565b6124cb6040830184611ea1565b94935050505056fea2646970667358221220709d4549c53ad5f94367ae6ac696839bacc8c0026e6c8e4dbb48da40951dfce464736f6c634300081a0033",
			"opcodes": "PUSH1 0xE0 PUSH1 0x40 MSTORE CALLVALUE DUP1 ISZERO PUSH2 0xF JUMPI PUSH0 DUP1 REVERT JUMPDEST POP PUSH1 0x40 MLOAD PUSH2 0x28DB CODESIZE SUB DUP1 PUSH2 0x28DB DUP4 CODECOPY DUP2 DUP2 ADD PUSH1 0x40 MSTORE DUP2 ADD SWAP1 PUSH2 0x31 SWAP2 SWAP1 PUSH2 0x299 JUMP JUMPDEST DUP1 PUSH0 PUSH20 0xFFFFFFFFFFFFFFFFFFFFFFFFFFFFFFFFFFFFFFFF AND DUP2 PUSH20 0xFFFFFFFFFFFFFFFFFFFFFFFFFFFFFFFFFFFFFFFF AND SUB PUSH2 0xA2 JUMPI PUSH0 PUSH1 0x40 MLOAD PUSH32 0x1E4FBDF700000000000000000000000000000000000000000000000000000000 DUP2 MSTORE PUSH1 0x4 ADD PUSH2 0x99 SWAP2 SWAP1 PUSH2 0x31F JUMP JUMPDEST PUSH1 0x40 MLOAD DUP1 SWAP2 SUB SWAP1 REVERT JUMPDEST PUSH2 0xB1 DUP2 PUSH2 0x147 PUSH1 0x20 SHL PUSH1 0x20 SHR JUMP JUMPDEST POP PUSH1 0x1 DUP1 DUP2 SWAP1 SSTORE POP DUP5 PUSH1 0x80 DUP2 DUP2 MSTORE POP POP DUP4 PUSH1 0xA0 DUP2 DUP2 MSTORE POP POP DUP3 PUSH1 0x2 PUSH0 PUSH2 0x100 EXP DUP2 SLOAD DUP2 PUSH20 0xFFFFFFFFFFFFFFFFFFFFFFFFFFFFFFFFFFFFFFFF MUL NOT AND SWAP1 DUP4 PUSH20 0xFFFFFFFFFFFFFFFFFFFFFFFFFFFFFFFFFFFFFFFF AND MUL OR SWAP1 SSTORE POP DUP2 PUSH20 0xFFFFFFFFFFFFFFFFFFFFFFFFFFFFFFFFFFFFFFFF AND PUSH1 0xC0 DUP2 PUSH20 0xFFFFFFFFFFFFFFFFFFFFFFFFFFFFFFFFFFFFFFFF AND DUP2 MSTORE POP POP POP POP POP POP POP PUSH2 0x338 JUMP JUMPDEST PUSH0 DUP1 PUSH0 SWAP1 SLOAD SWAP1 PUSH2 0x100 EXP SWAP1 DIV PUSH20 0xFFFFFFFFFFFFFFFFFFFFFFFFFFFFFFFFFFFFFFFF AND SWAP1 POP DUP2 PUSH0 DUP1 PUSH2 0x100 EXP DUP2 SLOAD DUP2 PUSH20 0xFFFFFFFFFFFFFFFFFFFFFFFFFFFFFFFFFFFFFFFF MUL NOT AND SWAP1 DUP4 PUSH20 0xFFFFFFFFFFFFFFFFFFFFFFFFFFFFFFFFFFFFFFFF AND MUL OR SWAP1 SSTORE POP DUP2 PUSH20 0xFFFFFFFFFFFFFFFFFFFFFFFFFFFFFFFFFFFFFFFF AND DUP2 PUSH20 0xFFFFFFFFFFFFFFFFFFFFFFFFFFFFFFFFFFFFFFFF AND PUSH32 0x8BE0079C531659141344CD1FD0A4F28419497F9722A3DAAFE3B4186F6B6457E0 PUSH1 0x40 MLOAD PUSH1 0x40 MLOAD DUP1 SWAP2 SUB SWAP1 LOG3 POP POP JUMP JUMPDEST PUSH0 DUP1 REVERT JUMPDEST PUSH0 DUP2 SWAP1 POP SWAP2 SWAP1 POP JUMP JUMPDEST PUSH2 0x21E DUP2 PUSH2 0x20C JUMP JUMPDEST DUP2 EQ PUSH2 0x228 JUMPI PUSH0 DUP1 REVERT JUMPDEST POP JUMP JUMPDEST PUSH0 DUP2 MLOAD SWAP1 POP PUSH2 0x239 DUP2 PUSH2 0x215 JUMP JUMPDEST SWAP3 SWAP2 POP POP JUMP JUMPDEST PUSH0 PUSH20 0xFFFFFFFFFFFFFFFFFFFFFFFFFFFFFFFFFFFFFFFF DUP3 AND SWAP1 POP SWAP2 SWAP1 POP JUMP JUMPDEST PUSH0 PUSH2 0x268 DUP3 PUSH2 0x23F JUMP JUMPDEST SWAP1 POP SWAP2 SWAP1 POP JUMP JUMPDEST PUSH2 0x278 DUP2 PUSH2 0x25E JUMP JUMPDEST DUP2 EQ PUSH2 0x282 JUMPI PUSH0 DUP1 REVERT JUMPDEST POP JUMP JUMPDEST PUSH0 DUP2 MLOAD SWAP1 POP PUSH2 0x293 DUP2 PUSH2 0x26F JUMP JUMPDEST SWAP3 SWAP2 POP POP JUMP JUMPDEST PUSH0 DUP1 PUSH0 DUP1 PUSH0 PUSH1 0xA0 DUP7 DUP9 SUB SLT ISZERO PUSH2 0x2B2 JUMPI PUSH2 0x2B1 PUSH2 0x208 JUMP JUMPDEST JUMPDEST PUSH0 PUSH2 0x2BF DUP9 DUP3 DUP10 ADD PUSH2 0x22B JUMP JUMPDEST SWAP6 POP POP PUSH1 0x20 PUSH2 0x2D0 DUP9 DUP3 DUP10 ADD PUSH2 0x22B JUMP JUMPDEST SWAP5 POP POP PUSH1 0x40 PUSH2 0x2E1 DUP9 DUP3 DUP10 ADD PUSH2 0x285 JUMP JUMPDEST SWAP4 POP POP PUSH1 0x60 PUSH2 0x2F2 DUP9 DUP3 DUP10 ADD PUSH2 0x285 JUMP JUMPDEST SWAP3 POP POP PUSH1 0x80 PUSH2 0x303 DUP9 DUP3 DUP10 ADD PUSH2 0x285 JUMP JUMPDEST SWAP2 POP POP SWAP3 SWAP6 POP SWAP3 SWAP6 SWAP1 SWAP4 POP JUMP JUMPDEST PUSH2 0x319 DUP2 PUSH2 0x25E JUMP JUMPDEST DUP3 MSTORE POP POP JUMP JUMPDEST PUSH0 PUSH1 0x20 DUP3 ADD SWAP1 POP PUSH2 0x332 PUSH0 DUP4 ADD DUP5 PUSH2 0x310 JUMP JUMPDEST SWAP3 SWAP2 POP POP JUMP JUMPDEST PUSH1 0x80 MLOAD PUSH1 0xA0 MLOAD PUSH1 0xC0 MLOAD PUSH2 0x2509 PUSH2 0x3D2 PUSH0 CODECOPY PUSH0 DUP2 DUP2 PUSH2 0x850 ADD MSTORE DUP2 DUP2 PUSH2 0x975 ADD MSTORE DUP2 DUP2 PUSH2 0x11D2 ADD MSTORE DUP2 DUP2 PUSH2 0x1546 ADD MSTORE DUP2 DUP2 PUSH2 0x1886 ADD MSTORE PUSH2 0x192E ADD MSTORE PUSH0 DUP2 DUP2 PUSH2 0x7AE ADD MSTORE DUP2 DUP2 PUSH2 0x7ED ADD MSTORE DUP2 DUP2 PUSH2 0xB86 ADD MSTORE DUP2 DUP2 PUSH2 0xBAF ADD MSTORE DUP2 DUP2 PUSH2 0xF56 ADD MSTORE DUP2 DUP2 PUSH2 0xF7F ADD MSTORE PUSH2 0x15D0 ADD MSTORE PUSH0 DUP2 DUP2 PUSH2 0x51C ADD MSTORE DUP2 DUP2 PUSH2 0x58D ADD MSTORE DUP2 DUP2 PUSH2 0x5C6 ADD MSTORE DUP2 DUP2 PUSH2 0x12AC ADD MSTORE DUP2 DUP2 PUSH2 0x12E5 ADD MSTORE PUSH2 0x15AD ADD MSTORE PUSH2 0x2509 PUSH0 RETURN INVALID PUSH1 0x80 PUSH1 0x40 MSTORE PUSH1 0x4 CALLDATASIZE LT PUSH2 0x13F JUMPI PUSH0 CALLDATALOAD PUSH1 0xE0 SHR DUP1 PUSH4 0x8DA5CB5B GT PUSH2 0xB5 JUMPI DUP1 PUSH4 0xD4289D89 GT PUSH2 0x6E JUMPI DUP1 PUSH4 0xD4289D89 EQ PUSH2 0x40D JUMPI DUP1 PUSH4 0xD4B0D3CE EQ PUSH2 0x438 JUMPI DUP1 PUSH4 0xDCCD58E3 EQ PUSH2 0x462 JUMPI DUP1 PUSH4 0xE98C6601 EQ PUSH2 0x49E JUMPI DUP1 PUSH4 0xF2FDE38B EQ PUSH2 0x4C8 JUMPI DUP1 PUSH4 0xFF40E1D0 EQ PUSH2 0x4F0 JUMPI PUSH2 0x13F JUMP JUMPDEST DUP1 PUSH4 0x8DA5CB5B EQ PUSH2 0x2FD JUMPI DUP1 PUSH4 0xA86B0BF6 EQ PUSH2 0x327 JUMPI DUP1 PUSH4 0xABC9CD6D EQ PUSH2 0x34F JUMPI DUP1 PUSH4 0xB9EB1C9A EQ PUSH2 0x37F JUMPI DUP1 PUSH4 0xC3B5BC22 EQ PUSH2 0x3A9 JUMPI DUP1 PUSH4 0xD30451E7 EQ PUSH2 0x3E5 JUMPI PUSH2 0x13F JUMP JUMPDEST DUP1 PUSH4 0x31F7D964 GT PUSH2 0x107 JUMPI DUP1 PUSH4 0x31F7D964 EQ PUSH2 0x207 JUMPI DUP1 PUSH4 0x3EAA00FB EQ PUSH2 0x231 JUMPI DUP1 PUSH4 0x501CB72D EQ PUSH2 0x25B JUMPI DUP1 PUSH4 0x6A5F2407 EQ PUSH2 0x297 JUMPI DUP1 PUSH4 0x715018A6 EQ PUSH2 0x2BF JUMPI DUP1 PUSH4 0x82FE54B5 EQ PUSH2 0x2D5 JUMPI PUSH2 0x13F JUMP JUMPDEST DUP1 PUSH4 0xCCEE433 EQ PUSH2 0x143 JUMPI DUP1 PUSH4 0x16A1930F EQ PUSH2 0x16D JUMPI DUP1 PUSH4 0x2230C272 EQ PUSH2 0x177 JUMPI DUP1 PUSH4 0x2B513163 EQ PUSH2 0x1A1 JUMPI DUP1 PUSH4 0x2FDA583E EQ PUSH2 0x1CB JUMPI JUMPDEST PUSH0 DUP1 REVERT JUMPDEST CALLVALUE DUP1 ISZERO PUSH2 0x14E JUMPI PUSH0 DUP1 REVERT JUMPDEST POP PUSH2 0x157 PUSH2 0x51A JUMP JUMPDEST PUSH1 0x40 MLOAD PUSH2 0x164 SWAP2 SWAP1 PUSH2 0x1EB0 JUMP JUMPDEST PUSH1 0x40 MLOAD DUP1 SWAP2 SUB SWAP1 RETURN JUMPDEST PUSH2 0x175 PUSH2 0x53E JUMP JUMPDEST STOP JUMPDEST CALLVALUE DUP1 ISZERO PUSH2 0x182 JUMPI PUSH0 DUP1 REVERT JUMPDEST POP PUSH2 0x18B PUSH2 0x7A5 JUMP JUMPDEST PUSH1 0x40 MLOAD PUSH2 0x198 SWAP2 SWAP1 PUSH2 0x1EB0 JUMP JUMPDEST PUSH1 0x40 MLOAD DUP1 SWAP2 SUB SWAP1 RETURN JUMPDEST CALLVALUE DUP1 ISZERO PUSH2 0x1AC JUMPI PUSH0 DUP1 REVERT JUMPDEST POP PUSH2 0x1B5 PUSH2 0x7AB JUMP JUMPDEST PUSH1 0x40 MLOAD PUSH2 0x1C2 SWAP2 SWAP1 PUSH2 0x1EB0 JUMP JUMPDEST PUSH1 0x40 MLOAD DUP1 SWAP2 SUB SWAP1 RETURN JUMPDEST CALLVALUE DUP1 ISZERO PUSH2 0x1D6 JUMPI PUSH0 DUP1 REVERT JUMPDEST POP PUSH2 0x1F1 PUSH1 0x4 DUP1 CALLDATASIZE SUB DUP2 ADD SWAP1 PUSH2 0x1EC SWAP2 SWAP1 PUSH2 0x1F27 JUMP JUMPDEST PUSH2 0x7D2 JUMP JUMPDEST PUSH1 0x40 MLOAD PUSH2 0x1FE SWAP2 SWAP1 PUSH2 0x1EB0 JUMP JUMPDEST PUSH1 0x40 MLOAD DUP1 SWAP2 SUB SWAP1 RETURN JUMPDEST CALLVALUE DUP1 ISZERO PUSH2 0x212 JUMPI PUSH0 DUP1 REVERT JUMPDEST POP PUSH2 0x21B PUSH2 0x7E7 JUMP JUMPDEST PUSH1 0x40 MLOAD PUSH2 0x228 SWAP2 SWAP1 PUSH2 0x1F61 JUMP JUMPDEST PUSH1 0x40 MLOAD DUP1 SWAP2 SUB SWAP1 RETURN JUMPDEST CALLVALUE DUP1 ISZERO PUSH2 0x23C JUMPI PUSH0 DUP1 REVERT JUMPDEST POP PUSH2 0x245 PUSH2 0x7EB JUMP JUMPDEST PUSH1 0x40 MLOAD PUSH2 0x252 SWAP2 SWAP1 PUSH2 0x1EB0 JUMP JUMPDEST PUSH1 0x40 MLOAD DUP1 SWAP2 SUB SWAP1 RETURN JUMPDEST CALLVALUE DUP1 ISZERO PUSH2 0x266 JUMPI PUSH0 DUP1 REVERT JUMPDEST POP PUSH2 0x281 PUSH1 0x4 DUP1 CALLDATASIZE SUB DUP2 ADD SWAP1 PUSH2 0x27C SWAP2 SWAP1 PUSH2 0x1F27 JUMP JUMPDEST PUSH2 0x80F JUMP JUMPDEST PUSH1 0x40 MLOAD PUSH2 0x28E SWAP2 SWAP1 PUSH2 0x1EB0 JUMP JUMPDEST PUSH1 0x40 MLOAD DUP1 SWAP2 SUB SWAP1 RETURN JUMPDEST CALLVALUE DUP1 ISZERO PUSH2 0x2A2 JUMPI PUSH0 DUP1 REVERT JUMPDEST POP PUSH2 0x2BD PUSH1 0x4 DUP1 CALLDATASIZE SUB DUP2 ADD SWAP1 PUSH2 0x2B8 SWAP2 SWAP1 PUSH2 0x1FA4 JUMP JUMPDEST PUSH2 0x933 JUMP JUMPDEST STOP JUMPDEST CALLVALUE DUP1 ISZERO PUSH2 0x2CA JUMPI PUSH0 DUP1 REVERT JUMPDEST POP PUSH2 0x2D3 PUSH2 0xDBC JUMP JUMPDEST STOP JUMPDEST CALLVALUE DUP1 ISZERO PUSH2 0x2E0 JUMPI PUSH0 DUP1 REVERT JUMPDEST POP PUSH2 0x2FB PUSH1 0x4 DUP1 CALLDATASIZE SUB DUP2 ADD SWAP1 PUSH2 0x2F6 SWAP2 SWAP1 PUSH2 0x1FE2 JUMP JUMPDEST PUSH2 0xDCF JUMP JUMPDEST STOP JUMPDEST CALLVALUE DUP1 ISZERO PUSH2 0x308 JUMPI PUSH0 DUP1 REVERT JUMPDEST POP PUSH2 0x311 PUSH2 0x1169 JUMP JUMPDEST PUSH1 0x40 MLOAD PUSH2 0x31E SWAP2 SWAP1 PUSH2 0x1F61 JUMP JUMPDEST PUSH1 0x40 MLOAD DUP1 SWAP2 SUB SWAP1 RETURN JUMPDEST CALLVALUE DUP1 ISZERO PUSH2 0x332 JUMPI PUSH0 DUP1 REVERT JUMPDEST POP PUSH2 0x34D PUSH1 0x4 DUP1 CALLDATASIZE SUB DUP2 ADD SWAP1 PUSH2 0x348 SWAP2 SWAP1 PUSH2 0x1FA4 JUMP JUMPDEST PUSH2 0x1190 JUMP JUMPDEST STOP JUMPDEST CALLVALUE DUP1 ISZERO PUSH2 0x35A JUMPI PUSH0 DUP1 REVERT JUMPDEST POP PUSH2 0x363 PUSH2 0x14F5 JUMP JUMPDEST PUSH1 0x40 MLOAD PUSH2 0x376 SWAP8 SWAP7 SWAP6 SWAP5 SWAP4 SWAP3 SWAP2 SWAP1 PUSH2 0x200D JUMP JUMPDEST PUSH1 0x40 MLOAD DUP1 SWAP2 SUB SWAP1 RETURN JUMPDEST CALLVALUE DUP1 ISZERO PUSH2 0x38A JUMPI PUSH0 DUP1 REVERT JUMPDEST POP PUSH2 0x393 PUSH2 0x15FA JUMP JUMPDEST PUSH1 0x40 MLOAD PUSH2 0x3A0 SWAP2 SWAP1 PUSH2 0x20D5 JUMP JUMPDEST PUSH1 0x40 MLOAD DUP1 SWAP2 SUB SWAP1 RETURN JUMPDEST CALLVALUE DUP1 ISZERO PUSH2 0x3B4 JUMPI PUSH0 DUP1 REVERT JUMPDEST POP PUSH2 0x3CF PUSH1 0x4 DUP1 CALLDATASIZE SUB DUP2 ADD SWAP1 PUSH2 0x3CA SWAP2 SWAP1 PUSH2 0x20EE JUMP JUMPDEST PUSH2 0x161F JUMP JUMPDEST PUSH1 0x40 MLOAD PUSH2 0x3DC SWAP2 SWAP1 PUSH2 0x1EB0 JUMP JUMPDEST PUSH1 0x40 MLOAD DUP1 SWAP2 SUB SWAP1 RETURN JUMPDEST CALLVALUE DUP1 ISZERO PUSH2 0x3F0 JUMPI PUSH0 DUP1 REVERT JUMPDEST POP PUSH2 0x40B PUSH1 0x4 DUP1 CALLDATASIZE SUB DUP2 ADD SWAP1 PUSH2 0x406 SWAP2 SWAP1 PUSH2 0x1F27 JUMP JUMPDEST PUSH2 0x16A1 JUMP JUMPDEST STOP JUMPDEST CALLVALUE DUP1 ISZERO PUSH2 0x418 JUMPI PUSH0 DUP1 REVERT JUMPDEST POP PUSH2 0x421 PUSH2 0x172F JUMP JUMPDEST PUSH1 0x40 MLOAD PUSH2 0x42F SWAP3 SWAP2 SWAP1 PUSH2 0x212C JUMP JUMPDEST PUSH1 0x40 MLOAD DUP1 SWAP2 SUB SWAP1 RETURN JUMPDEST CALLVALUE DUP1 ISZERO PUSH2 0x443 JUMPI PUSH0 DUP1 REVERT JUMPDEST POP PUSH2 0x44C PUSH2 0x17D4 JUMP JUMPDEST PUSH1 0x40 MLOAD PUSH2 0x459 SWAP2 SWAP1 PUSH2 0x1EB0 JUMP JUMPDEST PUSH1 0x40 MLOAD DUP1 SWAP2 SUB SWAP1 RETURN JUMPDEST CALLVALUE DUP1 ISZERO PUSH2 0x46D JUMPI PUSH0 DUP1 REVERT JUMPDEST POP PUSH2 0x488 PUSH1 0x4 DUP1 CALLDATASIZE SUB DUP2 ADD SWAP1 PUSH2 0x483 SWAP2 SWAP1 PUSH2 0x20EE JUMP JUMPDEST PUSH2 0x17DA JUMP JUMPDEST PUSH1 0x40 MLOAD PUSH2 0x495 SWAP2 SWAP1 PUSH2 0x1EB0 JUMP JUMPDEST PUSH1 0x40 MLOAD DUP1 SWAP2 SUB SWAP1 RETURN JUMPDEST CALLVALUE DUP1 ISZERO PUSH2 0x4A9 JUMPI PUSH0 DUP1 REVERT JUMPDEST POP PUSH2 0x4B2 PUSH2 0x17FA JUMP JUMPDEST PUSH1 0x40 MLOAD PUSH2 0x4BF SWAP2 SWAP1 PUSH2 0x1EB0 JUMP JUMPDEST PUSH1 0x40 MLOAD DUP1 SWAP2 SUB SWAP1 RETURN JUMPDEST CALLVALUE DUP1 ISZERO PUSH2 0x4D3 JUMPI PUSH0 DUP1 REVERT JUMPDEST POP PUSH2 0x4EE PUSH1 0x4 DUP1 CALLDATASIZE SUB DUP2 ADD SWAP1 PUSH2 0x4E9 SWAP2 SWAP1 PUSH2 0x1F27 JUMP JUMPDEST PUSH2 0x1800 JUMP JUMPDEST STOP JUMPDEST CALLVALUE DUP1 ISZERO PUSH2 0x4FB JUMPI PUSH0 DUP1 REVERT JUMPDEST POP PUSH2 0x504 PUSH2 0x1884 JUMP JUMPDEST PUSH1 0x40 MLOAD PUSH2 0x511 SWAP2 SWAP1 PUSH2 0x2173 JUMP JUMPDEST PUSH1 0x40 MLOAD DUP1 SWAP2 SUB SWAP1 RETURN JUMPDEST PUSH32 0x0 DUP2 JUMP JUMPDEST PUSH2 0x546 PUSH2 0x18A8 JUMP JUMPDEST PUSH0 CALLVALUE SUB PUSH2 0x57F JUMPI PUSH1 0x40 MLOAD PUSH32 0xE729DC6400000000000000000000000000000000000000000000000000000000 DUP2 MSTORE PUSH1 0x4 ADD PUSH1 0x40 MLOAD DUP1 SWAP2 SUB SWAP1 REVERT JUMPDEST PUSH0 PUSH2 0x589 CALLVALUE PUSH2 0x18EE JUMP JUMPDEST SWAP1 POP PUSH32 0x0 DUP2 PUSH1 0x5 SLOAD PUSH2 0x5BA SWAP2 SWAP1 PUSH2 0x21B9 JUMP JUMPDEST GT ISZERO PUSH2 0x623 JUMPI PUSH1 0x5 SLOAD DUP2 PUSH32 0x0 PUSH1 0x40 MLOAD PUSH32 0xC9FE79B800000000000000000000000000000000000000000000000000000000 DUP2 MSTORE PUSH1 0x4 ADD PUSH2 0x61A SWAP4 SWAP3 SWAP2 SWAP1 PUSH2 0x21EC JUMP JUMPDEST PUSH1 0x40 MLOAD DUP1 SWAP2 SUB SWAP1 REVERT JUMPDEST DUP1 PUSH1 0x3 PUSH0 CALLER PUSH20 0xFFFFFFFFFFFFFFFFFFFFFFFFFFFFFFFFFFFFFFFF AND PUSH20 0xFFFFFFFFFFFFFFFFFFFFFFFFFFFFFFFFFFFFFFFF AND DUP2 MSTORE PUSH1 0x20 ADD SWAP1 DUP2 MSTORE PUSH1 0x20 ADD PUSH0 KECCAK256 PUSH0 DUP1 PUSH20 0xFFFFFFFFFFFFFFFFFFFFFFFFFFFFFFFFFFFFFFFF AND PUSH20 0xFFFFFFFFFFFFFFFFFFFFFFFFFFFFFFFFFFFFFFFF AND DUP2 MSTORE PUSH1 0x20 ADD SWAP1 DUP2 MSTORE PUSH1 0x20 ADD PUSH0 KECCAK256 PUSH0 DUP3 DUP3 SLOAD PUSH2 0x6AA SWAP2 SWAP1 PUSH2 0x21B9 JUMP JUMPDEST SWAP3 POP POP DUP2 SWAP1 SSTORE POP DUP1 PUSH1 0x4 PUSH0 DUP1 PUSH20 0xFFFFFFFFFFFFFFFFFFFFFFFFFFFFFFFFFFFFFFFF AND PUSH20 0xFFFFFFFFFFFFFFFFFFFFFFFFFFFFFFFFFFFFFFFF AND DUP2 MSTORE PUSH1 0x20 ADD SWAP1 DUP2 MSTORE PUSH1 0x20 ADD PUSH0 KECCAK256 PUSH0 DUP3 DUP3 SLOAD PUSH2 0x6FD SWAP2 SWAP1 PUSH2 0x21B9 JUMP JUMPDEST SWAP3 POP POP DUP2 SWAP1 SSTORE POP DUP1 PUSH1 0x5 PUSH0 DUP3 DUP3 SLOAD PUSH2 0x715 SWAP2 SWAP1 PUSH2 0x21B9 JUMP JUMPDEST SWAP3 POP POP DUP2 SWAP1 SSTORE POP PUSH1 0x6 PUSH0 DUP2 SLOAD DUP1 SWAP3 SWAP2 SWAP1 PUSH2 0x72E SWAP1 PUSH2 0x2221 JUMP JUMPDEST SWAP2 SWAP1 POP SSTORE POP PUSH0 PUSH20 0xFFFFFFFFFFFFFFFFFFFFFFFFFFFFFFFFFFFFFFFF AND CALLER PUSH20 0xFFFFFFFFFFFFFFFFFFFFFFFFFFFFFFFFFFFFFFFF AND PUSH32 0x751F8B54C0E32EF5B9FAFDBDAC0C93C1994CC8848FA17ED7798BD90AAE8BFE9B CALLVALUE DUP5 PUSH1 0x40 MLOAD PUSH2 0x792 SWAP3 SWAP2 SWAP1 PUSH2 0x212C JUMP JUMPDEST PUSH1 0x40 MLOAD DUP1 SWAP2 SUB SWAP1 LOG3 POP PUSH2 0x7A3 PUSH2 0x1922 JUMP JUMPDEST JUMP JUMPDEST PUSH1 0x6 SLOAD DUP2 JUMP JUMPDEST PUSH0 PUSH32 0x0 SWAP1 POP SWAP1 JUMP JUMPDEST PUSH1 0x4 PUSH1 0x20 MSTORE DUP1 PUSH0 MSTORE PUSH1 0x40 PUSH0 KECCAK256 PUSH0 SWAP2 POP SWAP1 POP SLOAD DUP2 JUMP JUMPDEST PUSH0 DUP2 JUMP JUMPDEST PUSH32 0x0 DUP2 JUMP JUMPDEST PUSH0 PUSH1 0x3 PUSH0 DUP4 PUSH20 0xFFFFFFFFFFFFFFFFFFFFFFFFFFFFFFFFFFFFFFFF AND PUSH20 0xFFFFFFFFFFFFFFFFFFFFFFFFFFFFFFFFFFFFFFFF AND DUP2 MSTORE PUSH1 0x20 ADD SWAP1 DUP2 MSTORE PUSH1 0x20 ADD PUSH0 KECCAK256 PUSH0 PUSH32 0x0 PUSH20 0xFFFFFFFFFFFFFFFFFFFFFFFFFFFFFFFFFFFFFFFF AND PUSH20 0xFFFFFFFFFFFFFFFFFFFFFFFFFFFFFFFFFFFFFFFF AND DUP2 MSTORE PUSH1 0x20 ADD SWAP1 DUP2 MSTORE PUSH1 0x20 ADD PUSH0 KECCAK256 SLOAD PUSH1 0x3 PUSH0 DUP5 PUSH20 0xFFFFFFFFFFFFFFFFFFFFFFFFFFFFFFFFFFFFFFFF AND PUSH20 0xFFFFFFFFFFFFFFFFFFFFFFFFFFFFFFFFFFFFFFFF AND DUP2 MSTORE PUSH1 0x20 ADD SWAP1 DUP2 MSTORE PUSH1 0x20 ADD PUSH0 KECCAK256 PUSH0 DUP1 PUSH20 0xFFFFFFFFFFFFFFFFFFFFFFFFFFFFFFFFFFFFFFFF AND PUSH20 0xFFFFFFFFFFFFFFFFFFFFFFFFFFFFFFFFFFFFFFFF AND DUP2 MSTORE PUSH1 0x20 ADD SWAP1 DUP2 MSTORE PUSH1 0x20 ADD PUSH0 KECCAK256 SLOAD PUSH2 0x92C SWAP2 SWAP1 PUSH2 0x21B9 JUMP JUMPDEST SWAP1 POP SWAP2 SWAP1 POP JUMP JUMPDEST PUSH2 0x93B PUSH2 0x18A8 JUMP JUMPDEST DUP2 PUSH0 PUSH20 0xFFFFFFFFFFFFFFFFFFFFFFFFFFFFFFFFFFFFFFFF AND DUP2 PUSH20 0xFFFFFFFFFFFFFFFFFFFFFFFFFFFFFFFFFFFFFFFF AND EQ ISZERO DUP1 ISZERO PUSH2 0x9C4 JUMPI POP PUSH32 0x0 PUSH20 0xFFFFFFFFFFFFFFFFFFFFFFFFFFFFFFFFFFFFFFFF AND DUP2 PUSH20 0xFFFFFFFFFFFFFFFFFFFFFFFFFFFFFFFFFFFFFFFF AND EQ ISZERO JUMPDEST ISZERO PUSH2 0xA06 JUMPI DUP1 PUSH1 0x40 MLOAD PUSH32 0x2D5C07B900000000000000000000000000000000000000000000000000000000 DUP2 MSTORE PUSH1 0x4 ADD PUSH2 0x9FD SWAP2 SWAP1 PUSH2 0x1F61 JUMP JUMPDEST PUSH1 0x40 MLOAD DUP1 SWAP2 SUB SWAP1 REVERT JUMPDEST DUP2 PUSH0 DUP2 SUB PUSH2 0xA40 JUMPI PUSH1 0x40 MLOAD PUSH32 0xE729DC6400000000000000000000000000000000000000000000000000000000 DUP2 MSTORE PUSH1 0x4 ADD PUSH1 0x40 MLOAD DUP1 SWAP2 SUB SWAP1 REVERT JUMPDEST PUSH0 PUSH2 0xA4B DUP6 DUP6 PUSH2 0x192B JUMP JUMPDEST SWAP1 POP DUP1 PUSH1 0x3 PUSH0 CALLER PUSH20 0xFFFFFFFFFFFFFFFFFFFFFFFFFFFFFFFFFFFFFFFF AND PUSH20 0xFFFFFFFFFFFFFFFFFFFFFFFFFFFFFFFFFFFFFFFF AND DUP2 MSTORE PUSH1 0x20 ADD SWAP1 DUP2 MSTORE PUSH1 0x20 ADD PUSH0 KECCAK256 PUSH0 DUP8 PUSH20 0xFFFFFFFFFFFFFFFFFFFFFFFFFFFFFFFFFFFFFFFF AND PUSH20 0xFFFFFFFFFFFFFFFFFFFFFFFFFFFFFFFFFFFFFFFF AND DUP2 MSTORE PUSH1 0x20 ADD SWAP1 DUP2 MSTORE PUSH1 0x20 ADD PUSH0 KECCAK256 SLOAD LT ISZERO PUSH2 0xB84 JUMPI PUSH1 0x3 PUSH0 CALLER PUSH20 0xFFFFFFFFFFFFFFFFFFFFFFFFFFFFFFFFFFFFFFFF AND PUSH20 0xFFFFFFFFFFFFFFFFFFFFFFFFFFFFFFFFFFFFFFFF AND DUP2 MSTORE PUSH1 0x20 ADD SWAP1 DUP2 MSTORE PUSH1 0x20 ADD PUSH0 KECCAK256 PUSH0 DUP7 PUSH20 0xFFFFFFFFFFFFFFFFFFFFFFFFFFFFFFFFFFFFFFFF AND PUSH20 0xFFFFFFFFFFFFFFFFFFFFFFFFFFFFFFFFFFFFFFFF AND DUP2 MSTORE PUSH1 0x20 ADD SWAP1 DUP2 MSTORE PUSH1 0x20 ADD PUSH0 KECCAK256 SLOAD DUP2 PUSH1 0x40 MLOAD PUSH32 0x3B28636500000000000000000000000000000000000000000000000000000000 DUP2 MSTORE PUSH1 0x4 ADD PUSH2 0xB7B SWAP3 SWAP2 SWAP1 PUSH2 0x212C JUMP JUMPDEST PUSH1 0x40 MLOAD DUP1 SWAP2 SUB SWAP1 REVERT JUMPDEST PUSH32 0x0 DUP2 GT ISZERO PUSH2 0xC0B JUMPI DUP1 PUSH32 0x0 PUSH1 0x40 MLOAD PUSH32 0xD1ECFB7300000000000000000000000000000000000000000000000000000000 DUP2 MSTORE PUSH1 0x4 ADD PUSH2 0xC02 SWAP3 SWAP2 SWAP1 PUSH2 0x212C JUMP JUMPDEST PUSH1 0x40 MLOAD DUP1 SWAP2 SUB SWAP1 REVERT JUMPDEST DUP1 PUSH1 0x3 PUSH0 CALLER PUSH20 0xFFFFFFFFFFFFFFFFFFFFFFFFFFFFFFFFFFFFFFFF AND PUSH20 0xFFFFFFFFFFFFFFFFFFFFFFFFFFFFFFFFFFFFFFFF AND DUP2 MSTORE PUSH1 0x20 ADD SWAP1 DUP2 MSTORE PUSH1 0x20 ADD PUSH0 KECCAK256 PUSH0 DUP8 PUSH20 0xFFFFFFFFFFFFFFFFFFFFFFFFFFFFFFFFFFFFFFFF AND PUSH20 0xFFFFFFFFFFFFFFFFFFFFFFFFFFFFFFFFFFFFFFFF AND DUP2 MSTORE PUSH1 0x20 ADD SWAP1 DUP2 MSTORE PUSH1 0x20 ADD PUSH0 KECCAK256 PUSH0 DUP3 DUP3 SLOAD PUSH2 0xC92 SWAP2 SWAP1 PUSH2 0x2268 JUMP JUMPDEST SWAP3 POP POP DUP2 SWAP1 SSTORE POP DUP1 PUSH1 0x4 PUSH0 DUP8 PUSH20 0xFFFFFFFFFFFFFFFFFFFFFFFFFFFFFFFFFFFFFFFF AND PUSH20 0xFFFFFFFFFFFFFFFFFFFFFFFFFFFFFFFFFFFFFFFF AND DUP2 MSTORE PUSH1 0x20 ADD SWAP1 DUP2 MSTORE PUSH1 0x20 ADD PUSH0 KECCAK256 PUSH0 DUP3 DUP3 SLOAD PUSH2 0xCE5 SWAP2 SWAP1 PUSH2 0x2268 JUMP JUMPDEST SWAP3 POP POP DUP2 SWAP1 SSTORE POP DUP1 PUSH1 0x5 PUSH0 DUP3 DUP3 SLOAD PUSH2 0xCFD SWAP2 SWAP1 PUSH2 0x2268 JUMP JUMPDEST SWAP3 POP POP DUP2 SWAP1 SSTORE POP PUSH1 0x7 PUSH0 DUP2 SLOAD DUP1 SWAP3 SWAP2 SWAP1 PUSH2 0xD16 SWAP1 PUSH2 0x2221 JUMP JUMPDEST SWAP2 SWAP1 POP SSTORE POP DUP5 PUSH20 0xFFFFFFFFFFFFFFFFFFFFFFFFFFFFFFFFFFFFFFFF AND CALLER PUSH20 0xFFFFFFFFFFFFFFFFFFFFFFFFFFFFFFFFFFFFFFFF AND PUSH32 0xC6ACB54BDD58AF37C8D1B8BF2F1A561163C5191551BBD6E74CCE66FF7B670C77 DUP7 DUP5 PUSH1 0x40 MLOAD PUSH2 0xD7A SWAP3 SWAP2 SWAP1 PUSH2 0x212C JUMP JUMPDEST PUSH1 0x40 MLOAD DUP1 SWAP2 SUB SWAP1 LOG3 PUSH2 0xDAD CALLER DUP6 DUP8 PUSH20 0xFFFFFFFFFFFFFFFFFFFFFFFFFFFFFFFFFFFFFFFF AND PUSH2 0x19CA SWAP1 SWAP3 SWAP2 SWAP1 PUSH4 0xFFFFFFFF AND JUMP JUMPDEST POP POP POP PUSH2 0xDB8 PUSH2 0x1922 JUMP JUMPDEST POP POP JUMP JUMPDEST PUSH2 0xDC4 PUSH2 0x1A49 JUMP JUMPDEST PUSH2 0xDCD PUSH0 PUSH2 0x1AD0 JUMP JUMPDEST JUMP JUMPDEST PUSH2 0xDD7 PUSH2 0x18A8 JUMP JUMPDEST DUP1 PUSH0 DUP2 SUB PUSH2 0xE11 JUMPI PUSH1 0x40 MLOAD PUSH32 0xE729DC6400000000000000000000000000000000000000000000000000000000 DUP2 MSTORE PUSH1 0x4 ADD PUSH1 0x40 MLOAD DUP1 SWAP2 SUB SWAP1 REVERT JUMPDEST PUSH0 PUSH2 0xE1B DUP4 PUSH2 0x18EE JUMP JUMPDEST SWAP1 POP DUP1 PUSH1 0x3 PUSH0 CALLER PUSH20 0xFFFFFFFFFFFFFFFFFFFFFFFFFFFFFFFFFFFFFFFF AND PUSH20 0xFFFFFFFFFFFFFFFFFFFFFFFFFFFFFFFFFFFFFFFF AND DUP2 MSTORE PUSH1 0x20 ADD SWAP1 DUP2 MSTORE PUSH1 0x20 ADD PUSH0 KECCAK256 PUSH0 DUP1 PUSH20 0xFFFFFFFFFFFFFFFFFFFFFFFFFFFFFFFFFFFFFFFF AND PUSH20 0xFFFFFFFFFFFFFFFFFFFFFFFFFFFFFFFFFFFFFFFF AND DUP2 MSTORE PUSH1 0x20 ADD SWAP1 DUP2 MSTORE PUSH1 0x20 ADD PUSH0 KECCAK256 SLOAD LT ISZERO PUSH2 0xF54 JUMPI PUSH1 0x3 PUSH0 CALLER PUSH20 0xFFFFFFFFFFFFFFFFFFFFFFFFFFFFFFFFFFFFFFFF AND PUSH20 0xFFFFFFFFFFFFFFFFFFFFFFFFFFFFFFFFFFFFFFFF AND DUP2 MSTORE PUSH1 0x20 ADD SWAP1 DUP2 MSTORE PUSH1 0x20 ADD PUSH0 KECCAK256 PUSH0 DUP1 PUSH20 0xFFFFFFFFFFFFFFFFFFFFFFFFFFFFFFFFFFFFFFFF AND PUSH20 0xFFFFFFFFFFFFFFFFFFFFFFFFFFFFFFFFFFFFFFFF AND DUP2 MSTORE PUSH1 0x20 ADD SWAP1 DUP2 MSTORE PUSH1 0x20 ADD PUSH0 KECCAK256 SLOAD DUP2 PUSH1 0x40 MLOAD PUSH32 0x3B28636500000000000000000000000000000000000000000000000000000000 DUP2 MSTORE PUSH1 0x4 ADD PUSH2 0xF4B SWAP3 SWAP2 SWAP1 PUSH2 0x212C JUMP JUMPDEST PUSH1 0x40 MLOAD DUP1 SWAP2 SUB SWAP1 REVERT JUMPDEST PUSH32 0x0 DUP2 GT ISZERO PUSH2 0xFDB JUMPI DUP1 PUSH32 0x0 PUSH1 0x40 MLOAD PUSH32 0xD1ECFB7300000000000000000000000000000000000000000000000000000000 DUP2 MSTORE PUSH1 0x4 ADD PUSH2 0xFD2 SWAP3 SWAP2 SWAP1 PUSH2 0x212C JUMP JUMPDEST PUSH1 0x40 MLOAD DUP1 SWAP2 SUB SWAP1 REVERT JUMPDEST DUP1 PUSH1 0x3 PUSH0 CALLER PUSH20 0xFFFFFFFFFFFFFFFFFFFFFFFFFFFFFFFFFFFFFFFF AND PUSH20 0xFFFFFFFFFFFFFFFFFFFFFFFFFFFFFFFFFFFFFFFF AND DUP2 MSTORE PUSH1 0x20 ADD SWAP1 DUP2 MSTORE PUSH1 0x20 ADD PUSH0 KECCAK256 PUSH0 DUP1 PUSH20 0xFFFFFFFFFFFFFFFFFFFFFFFFFFFFFFFFFFFFFFFF AND PUSH20 0xFFFFFFFFFFFFFFFFFFFFFFFFFFFFFFFFFFFFFFFF AND DUP2 MSTORE PUSH1 0x20 ADD SWAP1 DUP2 MSTORE PUSH1 0x20 ADD PUSH0 KECCAK256 PUSH0 DUP3 DUP3 SLOAD PUSH2 0x1062 SWAP2 SWAP1 PUSH2 0x2268 JUMP JUMPDEST SWAP3 POP POP DUP2 SWAP1 SSTORE POP DUP1 PUSH1 0x4 PUSH0 DUP1 PUSH20 0xFFFFFFFFFFFFFFFFFFFFFFFFFFFFFFFFFFFFFFFF AND PUSH20 0xFFFFFFFFFFFFFFFFFFFFFFFFFFFFFFFFFFFFFFFF AND DUP2 MSTORE PUSH1 0x20 ADD SWAP1 DUP2 MSTORE PUSH1 0x20 ADD PUSH0 KECCAK256 PUSH0 DUP3 DUP3 SLOAD PUSH2 0x10B5 SWAP2 SWAP1 PUSH2 0x2268 JUMP JUMPDEST SWAP3 POP POP DUP2 SWAP1 SSTORE POP DUP1 PUSH1 0x5 PUSH0 DUP3 DUP3 SLOAD PUSH2 0x10CD SWAP2 SWAP1 PUSH2 0x2268 JUMP JUMPDEST SWAP3 POP POP DUP2 SWAP1 SSTORE POP PUSH1 0x7 PUSH0 DUP2 SLOAD DUP1 SWAP3 SWAP2 SWAP1 PUSH2 0x10E6 SWAP1 PUSH2 0x2221 JUMP JUMPDEST SWAP2 SWAP1 POP SSTORE POP PUSH0 PUSH20 0xFFFFFFFFFFFFFFFFFFFFFFFFFFFFFFFFFFFFFFFF AND CALLER PUSH20 0xFFFFFFFFFFFFFFFFFFFFFFFFFFFFFFFFFFFFFFFF AND PUSH32 0xC6ACB54BDD58AF37C8D1B8BF2F1A561163C5191551BBD6E74CCE66FF7B670C77 DUP6 DUP5 PUSH1 0x40 MLOAD PUSH2 0x114A SWAP3 SWAP2 SWAP1 PUSH2 0x212C JUMP JUMPDEST PUSH1 0x40 MLOAD DUP1 SWAP2 SUB SWAP1 LOG3 PUSH2 0x115C CALLER DUP5 PUSH2 0x1B91 JUMP JUMPDEST POP POP PUSH2 0x1166 PUSH2 0x1922 JUMP JUMPDEST POP JUMP JUMPDEST PUSH0 DUP1 PUSH0 SWAP1 SLOAD SWAP1 PUSH2 0x100 EXP SWAP1 DIV PUSH20 0xFFFFFFFFFFFFFFFFFFFFFFFFFFFFFFFFFFFFFFFF AND SWAP1 POP SWAP1 JUMP JUMPDEST PUSH2 0x1198 PUSH2 0x18A8 JUMP JUMPDEST DUP2 PUSH0 PUSH20 0xFFFFFFFFFFFFFFFFFFFFFFFFFFFFFFFFFFFFFFFF AND DUP2 PUSH20 0xFFFFFFFFFFFFFFFFFFFFFFFFFFFFFFFFFFFFFFFF AND EQ ISZERO DUP1 ISZERO PUSH2 0x1221 JUMPI POP PUSH32 0x0 PUSH20 0xFFFFFFFFFFFFFFFFFFFFFFFFFFFFFFFFFFFFFFFF AND DUP2 PUSH20 0xFFFFFFFFFFFFFFFFFFFFFFFFFFFFFFFFFFFFFFFF AND EQ ISZERO JUMPDEST ISZERO PUSH2 0x1263 JUMPI DUP1 PUSH1 0x40 MLOAD PUSH32 0x2D5C07B900000000000000000000000000000000000000000000000000000000 DUP2 MSTORE PUSH1 0x4 ADD PUSH2 0x125A SWAP2 SWAP1 PUSH2 0x1F61 JUMP JUMPDEST PUSH1 0x40 MLOAD DUP1 SWAP2 SUB SWAP1 REVERT JUMPDEST DUP2 PUSH0 DUP2 SUB PUSH2 0x129D JUMPI PUSH1 0x40 MLOAD PUSH32 0xE729DC6400000000000000000000000000000000000000000000000000000000 DUP2 MSTORE PUSH1 0x4 ADD PUSH1 0x40 MLOAD DUP1 SWAP2 SUB SWAP1 REVERT JUMPDEST PUSH0 PUSH2 0x12A8 DUP6 DUP6 PUSH2 0x192B JUMP JUMPDEST SWAP1 POP PUSH32 0x0 DUP2 PUSH1 0x5 SLOAD PUSH2 0x12D9 SWAP2 SWAP1 PUSH2 0x21B9 JUMP JUMPDEST GT ISZERO PUSH2 0x1342 JUMPI PUSH1 0x5 SLOAD DUP2 PUSH32 0x0 PUSH1 0x40 MLOAD PUSH32 0xC9FE79B800000000000000000000000000000000000000000000000000000000 DUP2 MSTORE PUSH1 0x4 ADD PUSH2 0x1339 SWAP4 SWAP3 SWAP2 SWAP1 PUSH2 0x21EC JUMP JUMPDEST PUSH1 0x40 MLOAD DUP1 SWAP2 SUB SWAP1 REVERT JUMPDEST DUP1 PUSH1 0x3 PUSH0 CALLER PUSH20 0xFFFFFFFFFFFFFFFFFFFFFFFFFFFFFFFFFFFFFFFF AND PUSH20 0xFFFFFFFFFFFFFFFFFFFFFFFFFFFFFFFFFFFFFFFF AND DUP2 MSTORE PUSH1 0x20 ADD SWAP1 DUP2 MSTORE PUSH1 0x20 ADD PUSH0 KECCAK256 PUSH0 DUP8 PUSH20 0xFFFFFFFFFFFFFFFFFFFFFFFFFFFFFFFFFFFFFFFF AND PUSH20 0xFFFFFFFFFFFFFFFFFFFFFFFFFFFFFFFFFFFFFFFF AND DUP2 MSTORE PUSH1 0x20 ADD SWAP1 DUP2 MSTORE PUSH1 0x20 ADD PUSH0 KECCAK256 PUSH0 DUP3 DUP3 SLOAD PUSH2 0x13C9 SWAP2 SWAP1 PUSH2 0x21B9 JUMP JUMPDEST SWAP3 POP POP DUP2 SWAP1 SSTORE POP DUP1 PUSH1 0x4 PUSH0 DUP8 PUSH20 0xFFFFFFFFFFFFFFFFFFFFFFFFFFFFFFFFFFFFFFFF AND PUSH20 0xFFFFFFFFFFFFFFFFFFFFFFFFFFFFFFFFFFFFFFFF AND DUP2 MSTORE PUSH1 0x20 ADD SWAP1 DUP2 MSTORE PUSH1 0x20 ADD PUSH0 KECCAK256 PUSH0 DUP3 DUP3 SLOAD PUSH2 0x141C SWAP2 SWAP1 PUSH2 0x21B9 JUMP JUMPDEST SWAP3 POP POP DUP2 SWAP1 SSTORE POP DUP1 PUSH1 0x5 PUSH0 DUP3 DUP3 SLOAD PUSH2 0x1434 SWAP2 SWAP1 PUSH2 0x21B9 JUMP JUMPDEST SWAP3 POP POP DUP2 SWAP1 SSTORE POP PUSH1 0x6 PUSH0 DUP2 SLOAD DUP1 SWAP3 SWAP2 SWAP1 PUSH2 0x144D SWAP1 PUSH2 0x2221 JUMP JUMPDEST SWAP2 SWAP1 POP SSTORE POP DUP5 PUSH20 0xFFFFFFFFFFFFFFFFFFFFFFFFFFFFFFFFFFFFFFFF AND CALLER PUSH20 0xFFFFFFFFFFFFFFFFFFFFFFFFFFFFFFFFFFFFFFFF AND PUSH32 0x751F8B54C0E32EF5B9FAFDBDAC0C93C1994CC8848FA17ED7798BD90AAE8BFE9B DUP7 DUP5 PUSH1 0x40 MLOAD PUSH2 0x14B1 SWAP3 SWAP2 SWAP1 PUSH2 0x212C JUMP JUMPDEST PUSH1 0x40 MLOAD DUP1 SWAP2 SUB SWAP1 LOG3 PUSH2 0x14E6 CALLER ADDRESS DUP7 DUP9 PUSH20 0xFFFFFFFFFFFFFFFFFFFFFFFFFFFFFFFFFFFFFFFF AND PUSH2 0x1C40 SWAP1 SWAP4 SWAP3 SWAP2 SWAP1 PUSH4 0xFFFFFFFF AND JUMP JUMPDEST POP POP POP PUSH2 0x14F1 PUSH2 0x1922 JUMP JUMPDEST POP POP JUMP JUMPDEST PUSH0 DUP1 PUSH0 DUP1 PUSH0 DUP1 PUSH0 PUSH1 0x5 SLOAD SWAP7 POP PUSH1 0x4 PUSH0 DUP1 PUSH20 0xFFFFFFFFFFFFFFFFFFFFFFFFFFFFFFFFFFFFFFFF AND PUSH20 0xFFFFFFFFFFFFFFFFFFFFFFFFFFFFFFFFFFFFFFFF AND DUP2 MSTORE PUSH1 0x20 ADD SWAP1 DUP2 MSTORE PUSH1 0x20 ADD PUSH0 KECCAK256 SLOAD SWAP6 POP PUSH1 0x4 PUSH0 PUSH32 0x0 PUSH20 0xFFFFFFFFFFFFFFFFFFFFFFFFFFFFFFFFFFFFFFFF AND PUSH20 0xFFFFFFFFFFFFFFFFFFFFFFFFFFFFFFFFFFFFFFFF AND DUP2 MSTORE PUSH1 0x20 ADD SWAP1 DUP2 MSTORE PUSH1 0x20 ADD PUSH0 KECCAK256 SLOAD SWAP5 POP PUSH1 0x6 SLOAD SWAP4 POP PUSH1 0x7 SLOAD SWAP3 POP PUSH32 0x0 SWAP2 POP PUSH32 0x0 SWAP1 POP SWAP1 SWAP2 SWAP3 SWAP4 SWAP5 SWAP6 SWAP7 JUMP JUMPDEST PUSH1 0x2 PUSH0 SWAP1 SLOAD SWAP1 PUSH2 0x100 EXP SWAP1 DIV PUSH20 0xFFFFFFFFFFFFFFFFFFFFFFFFFFFFFFFFFFFFFFFF AND DUP2 JUMP JUMPDEST PUSH0 PUSH1 0x3 PUSH0 DUP5 PUSH20 0xFFFFFFFFFFFFFFFFFFFFFFFFFFFFFFFFFFFFFFFF AND PUSH20 0xFFFFFFFFFFFFFFFFFFFFFFFFFFFFFFFFFFFFFFFF AND DUP2 MSTORE PUSH1 0x20 ADD SWAP1 DUP2 MSTORE PUSH1 0x20 ADD PUSH0 KECCAK256 PUSH0 DUP4 PUSH20 0xFFFFFFFFFFFFFFFFFFFFFFFFFFFFFFFFFFFFFFFF AND PUSH20 0xFFFFFFFFFFFFFFFFFFFFFFFFFFFFFFFFFFFFFFFF AND DUP2 MSTORE PUSH1 0x20 ADD SWAP1 DUP2 MSTORE PUSH1 0x20 ADD PUSH0 KECCAK256 SLOAD SWAP1 POP SWAP3 SWAP2 POP POP JUMP JUMPDEST PUSH2 0x16A9 PUSH2 0x1A49 JUMP JUMPDEST DUP1 PUSH1 0x2 PUSH0 PUSH2 0x100 EXP DUP2 SLOAD DUP2 PUSH20 0xFFFFFFFFFFFFFFFFFFFFFFFFFFFFFFFFFFFFFFFF MUL NOT AND SWAP1 DUP4 PUSH20 0xFFFFFFFFFFFFFFFFFFFFFFFFFFFFFFFFFFFFFFFF AND MUL OR SWAP1 SSTORE POP DUP1 PUSH20 0xFFFFFFFFFFFFFFFFFFFFFFFFFFFFFFFFFFFFFFFF AND PUSH32 0x2B87A7A05493A7865DADC5AFBB6CEDFDA3C32F20196D8F45314AFA7B32B94012 PUSH1 0x40 MLOAD PUSH1 0x40 MLOAD DUP1 SWAP2 SUB SWAP1 LOG2 POP JUMP JUMPDEST PUSH0 DUP1 PUSH0 DUP1 PUSH1 0x2 PUSH0 SWAP1 SLOAD SWAP1 PUSH2 0x100 EXP SWAP1 DIV PUSH20 0xFFFFFFFFFFFFFFFFFFFFFFFFFFFFFFFFFFFFFFFF AND PUSH20 0xFFFFFFFFFFFFFFFFFFFFFFFFFFFFFFFFFFFFFFFF AND PUSH4 0xFEAF968C PUSH1 0x40 MLOAD DUP2 PUSH4 0xFFFFFFFF AND PUSH1 0xE0 SHL DUP2 MSTORE PUSH1 0x4 ADD PUSH1 0xA0 PUSH1 0x40 MLOAD DUP1 DUP4 SUB DUP2 DUP7 GAS STATICCALL ISZERO DUP1 ISZERO PUSH2 0x179D JUMPI RETURNDATASIZE PUSH0 DUP1 RETURNDATACOPY RETURNDATASIZE PUSH0 REVERT JUMPDEST POP POP POP POP PUSH1 0x40 MLOAD RETURNDATASIZE PUSH1 0x1F NOT PUSH1 0x1F DUP3 ADD AND DUP3 ADD DUP1 PUSH1 0x40 MSTORE POP DUP2 ADD SWAP1 PUSH2 0x17C1 SWAP2 SWAP1 PUSH2 0x2321 JUMP JUMPDEST POP SWAP4 POP POP SWAP3 POP POP DUP2 SWAP4 POP DUP1 SWAP3 POP POP POP SWAP1 SWAP2 JUMP JUMPDEST PUSH1 0x7 SLOAD DUP2 JUMP JUMPDEST PUSH1 0x3 PUSH1 0x20 MSTORE DUP2 PUSH0 MSTORE PUSH1 0x40 PUSH0 KECCAK256 PUSH1 0x20 MSTORE DUP1 PUSH0 MSTORE PUSH1 0x40 PUSH0 KECCAK256 PUSH0 SWAP2 POP SWAP2 POP POP SLOAD DUP2 JUMP JUMPDEST PUSH1 0x5 SLOAD DUP2 JUMP JUMPDEST PUSH2 0x1808 PUSH2 0x1A49 JUMP JUMPDEST PUSH0 PUSH20 0xFFFFFFFFFFFFFFFFFFFFFFFFFFFFFFFFFFFFFFFF AND DUP2 PUSH20 0xFFFFFFFFFFFFFFFFFFFFFFFFFFFFFFFFFFFFFFFF AND SUB PUSH2 0x1878 JUMPI PUSH0 PUSH1 0x40 MLOAD PUSH32 0x1E4FBDF700000000000000000000000000000000000000000000000000000000 DUP2 MSTORE PUSH1 0x4 ADD PUSH2 0x186F SWAP2 SWAP1 PUSH2 0x1F61 JUMP JUMPDEST PUSH1 0x40 MLOAD DUP1 SWAP2 SUB SWAP1 REVERT JUMPDEST PUSH2 0x1881 DUP2 PUSH2 0x1AD0 JUMP JUMPDEST POP JUMP JUMPDEST PUSH32 0x0 DUP2 JUMP JUMPDEST PUSH1 0x2 PUSH1 0x1 SLOAD SUB PUSH2 0x18E4 JUMPI PUSH1 0x40 MLOAD PUSH32 0x3EE5AEB500000000000000000000000000000000000000000000000000000000 DUP2 MSTORE PUSH1 0x4 ADD PUSH1 0x40 MLOAD DUP1 SWAP2 SUB SWAP1 REVERT JUMPDEST PUSH1 0x2 PUSH1 0x1 DUP2 SWAP1 SSTORE POP JUMP JUMPDEST PUSH0 DUP1 PUSH2 0x18F8 PUSH2 0x1CC2 JUMP JUMPDEST SWAP1 POP PUSH9 0x56BC75E2D63100000 DUP2 DUP5 PUSH2 0x1910 SWAP2 SWAP1 PUSH2 0x2398 JUMP JUMPDEST PUSH2 0x191A SWAP2 SWAP1 PUSH2 0x2406 JUMP JUMPDEST SWAP2 POP POP SWAP2 SWAP1 POP JUMP JUMPDEST PUSH1 0x1 DUP1 DUP2 SWAP1 SSTORE POP JUMP JUMPDEST PUSH0 PUSH32 0x0 PUSH20 0xFFFFFFFFFFFFFFFFFFFFFFFFFFFFFFFFFFFFFFFF AND DUP4 PUSH20 0xFFFFFFFFFFFFFFFFFFFFFFFFFFFFFFFFFFFFFFFF AND SUB PUSH2 0x1987 JUMPI DUP2 SWAP1 POP PUSH2 0x19C4 JUMP JUMPDEST DUP3 PUSH1 0x40 MLOAD PUSH32 0x2D5C07B900000000000000000000000000000000000000000000000000000000 DUP2 MSTORE PUSH1 0x4 ADD PUSH2 0x19BB SWAP2 SWAP1 PUSH2 0x1F61 JUMP JUMPDEST PUSH1 0x40 MLOAD DUP1 SWAP2 SUB SWAP1 REVERT JUMPDEST SWAP3 SWAP2 POP POP JUMP JUMPDEST PUSH2 0x1A44 DUP4 DUP5 PUSH20 0xFFFFFFFFFFFFFFFFFFFFFFFFFFFFFFFFFFFFFFFF AND PUSH4 0xA9059CBB DUP6 DUP6 PUSH1 0x40 MLOAD PUSH1 0x24 ADD PUSH2 0x19FD SWAP3 SWAP2 SWAP1 PUSH2 0x2436 JUMP JUMPDEST PUSH1 0x40 MLOAD PUSH1 0x20 DUP2 DUP4 SUB SUB DUP2 MSTORE SWAP1 PUSH1 0x40 MSTORE SWAP2 POP PUSH1 0xE0 SHL PUSH1 0x20 DUP3 ADD DUP1 MLOAD PUSH28 0xFFFFFFFFFFFFFFFFFFFFFFFFFFFFFFFFFFFFFFFFFFFFFFFFFFFFFFFF DUP4 DUP2 DUP4 AND OR DUP4 MSTORE POP POP POP POP PUSH2 0x1DF6 JUMP JUMPDEST POP POP POP JUMP JUMPDEST PUSH2 0x1A51 PUSH2 0x1E91 JUMP JUMPDEST PUSH20 0xFFFFFFFFFFFFFFFFFFFFFFFFFFFFFFFFFFFFFFFF AND PUSH2 0x1A6F PUSH2 0x1169 JUMP JUMPDEST PUSH20 0xFFFFFFFFFFFFFFFFFFFFFFFFFFFFFFFFFFFFFFFF AND EQ PUSH2 0x1ACE JUMPI PUSH2 0x1A92 PUSH2 0x1E91 JUMP JUMPDEST PUSH1 0x40 MLOAD PUSH32 0x118CDAA700000000000000000000000000000000000000000000000000000000 DUP2 MSTORE PUSH1 0x4 ADD PUSH2 0x1AC5 SWAP2 SWAP1 PUSH2 0x1F61 JUMP JUMPDEST PUSH1 0x40 MLOAD DUP1 SWAP2 SUB SWAP1 REVERT JUMPDEST JUMP JUMPDEST PUSH0 DUP1 PUSH0 SWAP1 SLOAD SWAP1 PUSH2 0x100 EXP SWAP1 DIV PUSH20 0xFFFFFFFFFFFFFFFFFFFFFFFFFFFFFFFFFFFFFFFF AND SWAP1 POP DUP2 PUSH0 DUP1 PUSH2 0x100 EXP DUP2 SLOAD DUP2 PUSH20 0xFFFFFFFFFFFFFFFFFFFFFFFFFFFFFFFFFFFFFFFF MUL NOT AND SWAP1 DUP4 PUSH20 0xFFFFFFFFFFFFFFFFFFFFFFFFFFFFFFFFFFFFFFFF AND MUL OR SWAP1 SSTORE POP DUP2 PUSH20 0xFFFFFFFFFFFFFFFFFFFFFFFFFFFFFFFFFFFFFFFF AND DUP2 PUSH20 0xFFFFFFFFFFFFFFFFFFFFFFFFFFFFFFFFFFFFFFFF AND PUSH32 0x8BE0079C531659141344CD1FD0A4F28419497F9722A3DAAFE3B4186F6B6457E0 PUSH1 0x40 MLOAD PUSH1 0x40 MLOAD DUP1 SWAP2 SUB SWAP1 LOG3 POP POP JUMP JUMPDEST PUSH0 DUP3 PUSH20 0xFFFFFFFFFFFFFFFFFFFFFFFFFFFFFFFFFFFFFFFF AND DUP3 PUSH1 0x40 MLOAD PUSH2 0x1BB6 SWAP1 PUSH2 0x248A JUMP JUMPDEST PUSH0 PUSH1 0x40 MLOAD DUP1 DUP4 SUB DUP2 DUP6 DUP8 GAS CALL SWAP3 POP POP POP RETURNDATASIZE DUP1 PUSH0 DUP2 EQ PUSH2 0x1BF0 JUMPI PUSH1 0x40 MLOAD SWAP2 POP PUSH1 0x1F NOT PUSH1 0x3F RETURNDATASIZE ADD AND DUP3 ADD PUSH1 0x40 MSTORE RETURNDATASIZE DUP3 MSTORE RETURNDATASIZE PUSH0 PUSH1 0x20 DUP5 ADD RETURNDATACOPY PUSH2 0x1BF5 JUMP JUMPDEST PUSH1 0x60 SWAP2 POP JUMPDEST POP POP SWAP1 POP DUP1 PUSH2 0x1C3B JUMPI DUP3 PUSH1 0x40 MLOAD PUSH32 0x71404A4200000000000000000000000000000000000000000000000000000000 DUP2 MSTORE PUSH1 0x4 ADD PUSH2 0x1C32 SWAP2 SWAP1 PUSH2 0x1F61 JUMP JUMPDEST PUSH1 0x40 MLOAD DUP1 SWAP2 SUB SWAP1 REVERT JUMPDEST POP POP POP JUMP JUMPDEST PUSH2 0x1CBC DUP5 DUP6 PUSH20 0xFFFFFFFFFFFFFFFFFFFFFFFFFFFFFFFFFFFFFFFF AND PUSH4 0x23B872DD DUP7 DUP7 DUP7 PUSH1 0x40 MLOAD PUSH1 0x24 ADD PUSH2 0x1C75 SWAP4 SWAP3 SWAP2 SWAP1 PUSH2 0x249E JUMP JUMPDEST PUSH1 0x40 MLOAD PUSH1 0x20 DUP2 DUP4 SUB SUB DUP2 MSTORE SWAP1 PUSH1 0x40 MSTORE SWAP2 POP PUSH1 0xE0 SHL PUSH1 0x20 DUP3 ADD DUP1 MLOAD PUSH28 0xFFFFFFFFFFFFFFFFFFFFFFFFFFFFFFFFFFFFFFFFFFFFFFFFFFFFFFFF DUP4 DUP2 DUP4 AND OR DUP4 MSTORE POP POP POP POP PUSH2 0x1DF6 JUMP JUMPDEST POP POP POP POP JUMP JUMPDEST PUSH0 DUP1 PUSH0 PUSH1 0x2 PUSH0 SWAP1 SLOAD SWAP1 PUSH2 0x100 EXP SWAP1 DIV PUSH20 0xFFFFFFFFFFFFFFFFFFFFFFFFFFFFFFFFFFFFFFFF AND PUSH20 0xFFFFFFFFFFFFFFFFFFFFFFFFFFFFFFFFFFFFFFFF AND PUSH4 0xFEAF968C PUSH1 0x40 MLOAD DUP2 PUSH4 0xFFFFFFFF AND PUSH1 0xE0 SHL DUP2 MSTORE PUSH1 0x4 ADD PUSH1 0xA0 PUSH1 0x40 MLOAD DUP1 DUP4 SUB DUP2 DUP7 GAS STATICCALL ISZERO DUP1 ISZERO PUSH2 0x1D2F JUMPI RETURNDATASIZE PUSH0 DUP1 RETURNDATACOPY RETURNDATASIZE PUSH0 REVERT JUMPDEST POP POP POP POP PUSH1 0x40 MLOAD RETURNDATASIZE PUSH1 0x1F NOT PUSH1 0x1F DUP3 ADD AND DUP3 ADD DUP1 PUSH1 0x40 MSTORE POP DUP2 ADD SWAP1 PUSH2 0x1D53 SWAP2 SWAP1 PUSH2 0x2321 JUMP JUMPDEST POP SWAP4 POP POP SWAP3 POP POP PUSH0 DUP3 SGT PUSH2 0x1D93 JUMPI PUSH1 0x40 MLOAD PUSH32 0x63F585C200000000000000000000000000000000000000000000000000000000 DUP2 MSTORE PUSH1 0x4 ADD PUSH1 0x40 MLOAD DUP1 SWAP2 SUB SWAP1 REVERT JUMPDEST PUSH0 DUP2 TIMESTAMP PUSH2 0x1DA0 SWAP2 SWAP1 PUSH2 0x2268 JUMP JUMPDEST SWAP1 POP PUSH2 0xE10 DUP2 GT ISZERO PUSH2 0x1DED JUMPI DUP1 PUSH2 0xE10 PUSH1 0x40 MLOAD PUSH32 0x74937DF300000000000000000000000000000000000000000000000000000000 DUP2 MSTORE PUSH1 0x4 ADD PUSH2 0x1DE4 SWAP3 SWAP2 SWAP1 PUSH2 0x212C JUMP JUMPDEST PUSH1 0x40 MLOAD DUP1 SWAP2 SUB SWAP1 REVERT JUMPDEST DUP3 SWAP4 POP POP POP POP SWAP1 JUMP JUMPDEST PUSH0 DUP1 PUSH1 0x20 PUSH0 DUP5 MLOAD PUSH1 0x20 DUP7 ADD PUSH0 DUP9 GAS CALL DUP1 PUSH2 0x1E15 JUMPI PUSH1 0x40 MLOAD RETURNDATASIZE PUSH0 DUP3 RETURNDATACOPY RETURNDATASIZE DUP2 REVERT JUMPDEST RETURNDATASIZE SWAP3 POP PUSH0 MLOAD SWAP2 POP POP PUSH0 DUP3 EQ PUSH2 0x1E2E JUMPI PUSH1 0x1 DUP2 EQ ISZERO PUSH2 0x1E49 JUMP JUMPDEST PUSH0 DUP5 PUSH20 0xFFFFFFFFFFFFFFFFFFFFFFFFFFFFFFFFFFFFFFFF AND EXTCODESIZE EQ JUMPDEST ISZERO PUSH2 0x1E8B JUMPI DUP4 PUSH1 0x40 MLOAD PUSH32 0x5274AFE700000000000000000000000000000000000000000000000000000000 DUP2 MSTORE PUSH1 0x4 ADD PUSH2 0x1E82 SWAP2 SWAP1 PUSH2 0x1F61 JUMP JUMPDEST PUSH1 0x40 MLOAD DUP1 SWAP2 SUB SWAP1 REVERT JUMPDEST POP POP POP POP JUMP JUMPDEST PUSH0 CALLER SWAP1 POP SWAP1 JUMP JUMPDEST PUSH0 DUP2 SWAP1 POP SWAP2 SWAP1 POP JUMP JUMPDEST PUSH2 0x1EAA DUP2 PUSH2 0x1E98 JUMP JUMPDEST DUP3 MSTORE POP POP JUMP JUMPDEST PUSH0 PUSH1 0x20 DUP3 ADD SWAP1 POP PUSH2 0x1EC3 PUSH0 DUP4 ADD DUP5 PUSH2 0x1EA1 JUMP JUMPDEST SWAP3 SWAP2 POP POP JUMP JUMPDEST PUSH0 DUP1 REVERT JUMPDEST PUSH0 PUSH20 0xFFFFFFFFFFFFFFFFFFFFFFFFFFFFFFFFFFFFFFFF DUP3 AND SWAP1 POP SWAP2 SWAP1 POP JUMP JUMPDEST PUSH0 PUSH2 0x1EF6 DUP3 PUSH2 0x1ECD JUMP JUMPDEST SWAP1 POP SWAP2 SWAP1 POP JUMP JUMPDEST PUSH2 0x1F06 DUP2 PUSH2 0x1EEC JUMP JUMPDEST DUP2 EQ PUSH2 0x1F10 JUMPI PUSH0 DUP1 REVERT JUMPDEST POP JUMP JUMPDEST PUSH0 DUP2 CALLDATALOAD SWAP1 POP PUSH2 0x1F21 DUP2 PUSH2 0x1EFD JUMP JUMPDEST SWAP3 SWAP2 POP POP JUMP JUMPDEST PUSH0 PUSH1 0x20 DUP3 DUP5 SUB SLT ISZERO PUSH2 0x1F3C JUMPI PUSH2 0x1F3B PUSH2 0x1EC9 JUMP JUMPDEST JUMPDEST PUSH0 PUSH2 0x1F49 DUP5 DUP3 DUP6 ADD PUSH2 0x1F13 JUMP JUMPDEST SWAP2 POP POP SWAP3 SWAP2 POP POP JUMP JUMPDEST PUSH2 0x1F5B DUP2 PUSH2 0x1EEC JUMP JUMPDEST DUP3 MSTORE POP POP JUMP JUMPDEST PUSH0 PUSH1 0x20 DUP3 ADD SWAP1 POP PUSH2 0x1F74 PUSH0 DUP4 ADD DUP5 PUSH2 0x1F52 JUMP JUMPDEST SWAP3 SWAP2 POP POP JUMP JUMPDEST PUSH2 0x1F83 DUP2 PUSH2 0x1E98 JUMP JUMPDEST DUP2 EQ PUSH2 0x1F8D JUMPI PUSH0 DUP1 REVERT JUMPDEST POP JUMP JUMPDEST PUSH0 DUP2 CALLDATALOAD SWAP1 POP PUSH2 0x1F9E DUP2 PUSH2 0x1F7A JUMP JUMPDEST SWAP3 SWAP2 POP POP JUMP JUMPDEST PUSH0 DUP1 PUSH1 0x40 DUP4 DUP6 SUB SLT ISZERO PUSH2 0x1FBA JUMPI PUSH2 0x1FB9 PUSH2 0x1EC9 JUMP JUMPDEST JUMPDEST PUSH0 PUSH2 0x1FC7 DUP6 DUP3 DUP7 ADD PUSH2 0x1F13 JUMP JUMPDEST SWAP3 POP POP PUSH1 0x20 PUSH2 0x1FD8 DUP6 DUP3 DUP7 ADD PUSH2 0x1F90 JUMP JUMPDEST SWAP2 POP POP SWAP3 POP SWAP3 SWAP1 POP JUMP JUMPDEST PUSH0 PUSH1 0x20 DUP3 DUP5 SUB SLT ISZERO PUSH2 0x1FF7 JUMPI PUSH2 0x1FF6 PUSH2 0x1EC9 JUMP JUMPDEST JUMPDEST PUSH0 PUSH2 0x2004 DUP5 DUP3 DUP6 ADD PUSH2 0x1F90 JUMP JUMPDEST SWAP2 POP POP SWAP3 SWAP2 POP POP JUMP JUMPDEST PUSH0 PUSH1 0xE0 DUP3 ADD SWAP1 POP PUSH2 0x2020 PUSH0 DUP4 ADD DUP11 PUSH2 0x1EA1 JUMP JUMPDEST PUSH2 0x202D PUSH1 0x20 DUP4 ADD DUP10 PUSH2 0x1EA1 JUMP JUMPDEST PUSH2 0x203A PUSH1 0x40 DUP4 ADD DUP9 PUSH2 0x1EA1 JUMP JUMPDEST PUSH2 0x2047 PUSH1 0x60 DUP4 ADD DUP8 PUSH2 0x1EA1 JUMP JUMPDEST PUSH2 0x2054 PUSH1 0x80 DUP4 ADD DUP7 PUSH2 0x1EA1 JUMP JUMPDEST PUSH2 0x2061 PUSH1 0xA0 DUP4 ADD DUP6 PUSH2 0x1EA1 JUMP JUMPDEST PUSH2 0x206E PUSH1 0xC0 DUP4 ADD DUP5 PUSH2 0x1EA1 JUMP JUMPDEST SWAP9 SWAP8 POP POP POP POP POP POP POP POP JUMP JUMPDEST PUSH0 DUP2 SWAP1 POP SWAP2 SWAP1 POP JUMP JUMPDEST PUSH0 PUSH2 0x209D PUSH2 0x2098 PUSH2 0x2093 DUP5 PUSH2 0x1ECD JUMP JUMPDEST PUSH2 0x207A JUMP JUMPDEST PUSH2 0x1ECD JUMP JUMPDEST SWAP1 POP SWAP2 SWAP1 POP JUMP JUMPDEST PUSH0 PUSH2 0x20AE DUP3 PUSH2 0x2083 JUMP JUMPDEST SWAP1 POP SWAP2 SWAP1 POP JUMP JUMPDEST PUSH0 PUSH2 0x20BF DUP3 PUSH2 0x20A4 JUMP JUMPDEST SWAP1 POP SWAP2 SWAP1 POP JUMP JUMPDEST PUSH2 0x20CF DUP2 PUSH2 0x20B5 JUMP JUMPDEST DUP3 MSTORE POP POP JUMP JUMPDEST PUSH0 PUSH1 0x20 DUP3 ADD SWAP1 POP PUSH2 0x20E8 PUSH0 DUP4 ADD DUP5 PUSH2 0x20C6 JUMP JUMPDEST SWAP3 SWAP2 POP POP JUMP JUMPDEST PUSH0 DUP1 PUSH1 0x40 DUP4 DUP6 SUB SLT ISZERO PUSH2 0x2104 JUMPI PUSH2 0x2103 PUSH2 0x1EC9 JUMP JUMPDEST JUMPDEST PUSH0 PUSH2 0x2111 DUP6 DUP3 DUP7 ADD PUSH2 0x1F13 JUMP JUMPDEST SWAP3 POP POP PUSH1 0x20 PUSH2 0x2122 DUP6 DUP3 DUP7 ADD PUSH2 0x1F13 JUMP JUMPDEST SWAP2 POP POP SWAP3 POP SWAP3 SWAP1 POP JUMP JUMPDEST PUSH0 PUSH1 0x40 DUP3 ADD SWAP1 POP PUSH2 0x213F PUSH0 DUP4 ADD DUP6 PUSH2 0x1EA1 JUMP JUMPDEST PUSH2 0x214C PUSH1 0x20 DUP4 ADD DUP5 PUSH2 0x1EA1 JUMP JUMPDEST SWAP4 SWAP3 POP POP POP JUMP JUMPDEST PUSH0 PUSH2 0x215D DUP3 PUSH2 0x20A4 JUMP JUMPDEST SWAP1 POP SWAP2 SWAP1 POP JUMP JUMPDEST PUSH2 0x216D DUP2 PUSH2 0x2153 JUMP JUMPDEST DUP3 MSTORE POP POP JUMP JUMPDEST PUSH0 PUSH1 0x20 DUP3 ADD SWAP1 POP PUSH2 0x2186 PUSH0 DUP4 ADD DUP5 PUSH2 0x2164 JUMP JUMPDEST SWAP3 SWAP2 POP POP JUMP JUMPDEST PUSH32 0x4E487B7100000000000000000000000000000000000000000000000000000000 PUSH0 MSTORE PUSH1 0x11 PUSH1 0x4 MSTORE PUSH1 0x24 PUSH0 REVERT JUMPDEST PUSH0 PUSH2 0x21C3 DUP3 PUSH2 0x1E98 JUMP JUMPDEST SWAP2 POP PUSH2 0x21CE DUP4 PUSH2 0x1E98 JUMP JUMPDEST SWAP3 POP DUP3 DUP3 ADD SWAP1 POP DUP1 DUP3 GT ISZERO PUSH2 0x21E6 JUMPI PUSH2 0x21E5 PUSH2 0x218C JUMP JUMPDEST JUMPDEST SWAP3 SWAP2 POP POP JUMP JUMPDEST PUSH0 PUSH1 0x60 DUP3 ADD SWAP1 POP PUSH2 0x21FF PUSH0 DUP4 ADD DUP7 PUSH2 0x1EA1 JUMP JUMPDEST PUSH2 0x220C PUSH1 0x20 DUP4 ADD DUP6 PUSH2 0x1EA1 JUMP JUMPDEST PUSH2 0x2219 PUSH1 0x40 DUP4 ADD DUP5 PUSH2 0x1EA1 JUMP JUMPDEST SWAP5 SWAP4 POP POP POP POP JUMP JUMPDEST PUSH0 PUSH2 0x222B DUP3 PUSH2 0x1E98 JUMP JUMPDEST SWAP2 POP PUSH32 0xFFFFFFFFFFFFFFFFFFFFFFFFFFFFFFFFFFFFFFFFFFFFFFFFFFFFFFFFFFFFFFFF DUP3 SUB PUSH2 0x225D JUMPI PUSH2 0x225C PUSH2 0x218C JUMP JUMPDEST JUMPDEST PUSH1 0x1 DUP3 ADD SWAP1 POP SWAP2 SWAP1 POP JUMP JUMPDEST PUSH0 PUSH2 0x2272 DUP3 PUSH2 0x1E98 JUMP JUMPDEST SWAP2 POP PUSH2 0x227D DUP4 PUSH2 0x1E98 JUMP JUMPDEST SWAP3 POP DUP3 DUP3 SUB SWAP1 POP DUP2 DUP2 GT ISZERO PUSH2 0x2295 JUMPI PUSH2 0x2294 PUSH2 0x218C JUMP JUMPDEST JUMPDEST SWAP3 SWAP2 POP POP JUMP JUMPDEST PUSH0 PUSH10 0xFFFFFFFFFFFFFFFFFFFF DUP3 AND SWAP1 POP SWAP2 SWAP1 POP JUMP JUMPDEST PUSH2 0x22B9 DUP2 PUSH2 0x229B JUMP JUMPDEST DUP2 EQ PUSH2 0x22C3 JUMPI PUSH0 DUP1 REVERT JUMPDEST POP JUMP JUMPDEST PUSH0 DUP2 MLOAD SWAP1 POP PUSH2 0x22D4 DUP2 PUSH2 0x22B0 JUMP JUMPDEST SWAP3 SWAP2 POP POP JUMP JUMPDEST PUSH0 DUP2 SWAP1 POP SWAP2 SWAP1 POP JUMP JUMPDEST PUSH2 0x22EC DUP2 PUSH2 0x22DA JUMP JUMPDEST DUP2 EQ PUSH2 0x22F6 JUMPI PUSH0 DUP1 REVERT JUMPDEST POP JUMP JUMPDEST PUSH0 DUP2 MLOAD SWAP1 POP PUSH2 0x2307 DUP2 PUSH2 0x22E3 JUMP JUMPDEST SWAP3 SWAP2 POP POP JUMP JUMPDEST PUSH0 DUP2 MLOAD SWAP1 POP PUSH2 0x231B DUP2 PUSH2 0x1F7A JUMP JUMPDEST SWAP3 SWAP2 POP POP JUMP JUMPDEST PUSH0 DUP1 PUSH0 DUP1 PUSH0 PUSH1 0xA0 DUP7 DUP9 SUB SLT ISZERO PUSH2 0x233A JUMPI PUSH2 0x2339 PUSH2 0x1EC9 JUMP JUMPDEST JUMPDEST PUSH0 PUSH2 0x2347 DUP9 DUP3 DUP10 ADD PUSH2 0x22C6 JUMP JUMPDEST SWAP6 POP POP PUSH1 0x20 PUSH2 0x2358 DUP9 DUP3 DUP10 ADD PUSH2 0x22F9 JUMP JUMPDEST SWAP5 POP POP PUSH1 0x40 PUSH2 0x2369 DUP9 DUP3 DUP10 ADD PUSH2 0x230D JUMP JUMPDEST SWAP4 POP POP PUSH1 0x60 PUSH2 0x237A DUP9 DUP3 DUP10 ADD PUSH2 0x230D JUMP JUMPDEST SWAP3 POP POP PUSH1 0x80 PUSH2 0x238B DUP9 DUP3 DUP10 ADD PUSH2 0x22C6 JUMP JUMPDEST SWAP2 POP POP SWAP3 SWAP6 POP SWAP3 SWAP6 SWAP1 SWAP4 POP JUMP JUMPDEST PUSH0 PUSH2 0x23A2 DUP3 PUSH2 0x1E98 JUMP JUMPDEST SWAP2 POP PUSH2 0x23AD DUP4 PUSH2 0x1E98 JUMP JUMPDEST SWAP3 POP DUP3 DUP3 MUL PUSH2 0x23BB DUP2 PUSH2 0x1E98 JUMP JUMPDEST SWAP2 POP DUP3 DUP3 DIV DUP5 EQ DUP4 ISZERO OR PUSH2 0x23D2 JUMPI PUSH2 0x23D1 PUSH2 0x218C JUMP JUMPDEST JUMPDEST POP SWAP3 SWAP2 POP POP JUMP JUMPDEST PUSH32 0x4E487B7100000000000000000000000000000000000000000000000000000000 PUSH0 MSTORE PUSH1 0x12 PUSH1 0x4 MSTORE PUSH1 0x24 PUSH0 REVERT JUMPDEST PUSH0 PUSH2 0x2410 DUP3 PUSH2 0x1E98 JUMP JUMPDEST SWAP2 POP PUSH2 0x241B DUP4 PUSH2 0x1E98 JUMP JUMPDEST SWAP3 POP DUP3 PUSH2 0x242B JUMPI PUSH2 0x242A PUSH2 0x23D9 JUMP JUMPDEST JUMPDEST DUP3 DUP3 DIV SWAP1 POP SWAP3 SWAP2 POP POP JUMP JUMPDEST PUSH0 PUSH1 0x40 DUP3 ADD SWAP1 POP PUSH2 0x2449 PUSH0 DUP4 ADD DUP6 PUSH2 0x1F52 JUMP JUMPDEST PUSH2 0x2456 PUSH1 0x20 DUP4 ADD DUP5 PUSH2 0x1EA1 JUMP JUMPDEST SWAP4 SWAP3 POP POP POP JUMP JUMPDEST PUSH0 DUP2 SWAP1 POP SWAP3 SWAP2 POP POP JUMP JUMPDEST POP JUMP JUMPDEST PUSH0 PUSH2 0x2475 PUSH0 DUP4 PUSH2 0x245D JUMP JUMPDEST SWAP2 POP PUSH2 0x2480 DUP3 PUSH2 0x2467 JUMP JUMPDEST PUSH0 DUP3 ADD SWAP1 POP SWAP2 SWAP1 POP JUMP JUMPDEST PUSH0 PUSH2 0x2494 DUP3 PUSH2 0x246A JUMP JUMPDEST SWAP2 POP DUP2 SWAP1 POP SWAP2 SWAP1 POP JUMP JUMPDEST PUSH0 PUSH1 0x60 DUP3 ADD SWAP1 POP PUSH2 0x24B1 PUSH0 DUP4 ADD DUP7 PUSH2 0x1F52 JUMP JUMPDEST PUSH2 0x24BE PUSH1 0x20 DUP4 ADD DUP6 PUSH2 0x1F52 JUMP JUMPDEST PUSH2 0x24CB PUSH1 0x40 DUP4 ADD DUP5 PUSH2 0x1EA1 JUMP JUMPDEST SWAP5 SWAP4 POP POP POP POP JUMP INVALID LOG2 PUSH5 0x6970667358 0x22 SLT KECCAK256 PUSH17 0x9D4549C53AD5F94367AE6AC696839BACC8 0xC0 MUL PUSH15 0x6C8E4DBB48DA40951DFCE464736F6C PUSH4 0x4300081A STOP CALLER "
		},
		"gasEstimates": {
			"creation": {
				"codeDepositCost": "1896200",
				"executionCost": "infinite",
				"totalCost": "infinite"
			},
			"external": {
				"NATIVE_TOKEN()": "395",
				"actualizarFeed(address)": "infinite",
				"consultarBalance(address,address)": "infinite",
				"consultarBalanceTotalUSD(address)": "infinite",
				"consultarEstadoBanco()": "infinite",
				"consultarPrecioETH()": "infinite",
				"depositarETH()": "infinite",
				"depositarToken(address,uint256)": "infinite",
				"getUmbralRetiro()": "infinite",
				"i_bankCapUSD()": "infinite",
				"i_umbralRetiroUSD()": "infinite",
				"i_usdc()": "infinite",
				"owner()": "2538",
				"renounceOwnership()": "infinite",
				"retirarETH(uint256)": "infinite",
				"retirarToken(address,uint256)": "infinite",
				"s_balances(address,address)": "infinite",
				"s_contadorDepositos()": "2493",
				"s_contadorRetiros()": "2469",
				"s_ethUsdFeed()": "infinite",
				"s_totalDepositadoPorToken(address)": "2914",
				"s_totalDepositadoUSD()": "2513",
				"transferOwnership(address)": "infinite"
			},
			"internal": {
				"_convertirEthAUsd(uint256)": "infinite",
				"_normalizarDecimales(address,uint256)": "infinite",
				"_obtenerPrecioEth()": "infinite",
				"_transferirEth(address,uint256)": "infinite"
			}
		},
		"methodIdentifiers": {
			"NATIVE_TOKEN()": "31f7d964",
			"actualizarFeed(address)": "d30451e7",
			"consultarBalance(address,address)": "c3b5bc22",
			"consultarBalanceTotalUSD(address)": "501cb72d",
			"consultarEstadoBanco()": "abc9cd6d",
			"consultarPrecioETH()": "d4289d89",
			"depositarETH()": "16a1930f",
			"depositarToken(address,uint256)": "a86b0bf6",
			"getUmbralRetiro()": "2b513163",
			"i_bankCapUSD()": "0ccee433",
			"i_umbralRetiroUSD()": "3eaa00fb",
			"i_usdc()": "ff40e1d0",
			"owner()": "8da5cb5b",
			"renounceOwnership()": "715018a6",
			"retirarETH(uint256)": "82fe54b5",
			"retirarToken(address,uint256)": "6a5f2407",
			"s_balances(address,address)": "dccd58e3",
			"s_contadorDepositos()": "2230c272",
			"s_contadorRetiros()": "d4b0d3ce",
			"s_ethUsdFeed()": "b9eb1c9a",
			"s_totalDepositadoPorToken(address)": "2fda583e",
			"s_totalDepositadoUSD()": "e98c6601",
			"transferOwnership(address)": "f2fde38b"
		}
	},
	"abi": [
		{
			"inputs": [
				{
					"internalType": "uint256",
					"name": "_bankCapUSD",
					"type": "uint256"
				},
				{
					"internalType": "uint256",
					"name": "_umbralRetiroUSD",
					"type": "uint256"
				},
				{
					"internalType": "address",
					"name": "_ethUsdFeed",
					"type": "address"
				},
				{
					"internalType": "address",
					"name": "_usdc",
					"type": "address"
				},
				{
					"internalType": "address",
					"name": "_owner",
					"type": "address"
				}
			],
			"stateMutability": "nonpayable",
			"type": "constructor"
		},
		{
			"inputs": [
				{
					"internalType": "uint256",
					"name": "totalActualUSD",
					"type": "uint256"
				},
				{
					"internalType": "uint256",
					"name": "intentoDepositoUSD",
					"type": "uint256"
				},
				{
					"internalType": "uint256",
					"name": "limiteUSD",
					"type": "uint256"
				}
			],
			"name": "KipuBankV2_LimiteGlobalExcedidoUSD",
			"type": "error"
		},
		{
			"inputs": [],
			"name": "KipuBankV2_MontoDebeSerMayorACero",
			"type": "error"
		},
		{
			"inputs": [],
			"name": "KipuBankV2_OracleCompromised",
			"type": "error"
		},
		{
			"inputs": [
				{
					"internalType": "uint256",
					"name": "montoSolicitadoUSD",
					"type": "uint256"
				},
				{
					"internalType": "uint256",
					"name": "umbralMaximoUSD",
					"type": "uint256"
				}
			],
			"name": "KipuBankV2_RetiroExcedeUmbral",
			"type": "error"
		},
		{
			"inputs": [
				{
					"internalType": "uint256",
					"name": "balanceDisponible",
					"type": "uint256"
				},
				{
					"internalType": "uint256",
					"name": "montoSolicitado",
					"type": "uint256"
				}
			],
			"name": "KipuBankV2_SaldoInsuficiente",
			"type": "error"
		},
		{
			"inputs": [
				{
					"internalType": "uint256",
					"name": "tiempoTranscurrido",
					"type": "uint256"
				},
				{
					"internalType": "uint256",
					"name": "heartbeat",
					"type": "uint256"
				}
			],
			"name": "KipuBankV2_StalePrice",
			"type": "error"
		},
		{
			"inputs": [
				{
					"internalType": "address",
					"name": "token",
					"type": "address"
				}
			],
			"name": "KipuBankV2_TokenNoSoportado",
			"type": "error"
		},
		{
			"inputs": [
				{
					"internalType": "address",
					"name": "destinatario",
					"type": "address"
				}
			],
			"name": "KipuBankV2_TransferenciaFallida",
			"type": "error"
		},
		{
			"inputs": [
				{
					"internalType": "address",
					"name": "owner",
					"type": "address"
				}
			],
			"name": "OwnableInvalidOwner",
			"type": "error"
		},
		{
			"inputs": [
				{
					"internalType": "address",
					"name": "account",
					"type": "address"
				}
			],
			"name": "OwnableUnauthorizedAccount",
			"type": "error"
		},
		{
			"inputs": [],
			"name": "ReentrancyGuardReentrantCall",
			"type": "error"
		},
		{
			"inputs": [
				{
					"internalType": "address",
					"name": "token",
					"type": "address"
				}
			],
			"name": "SafeERC20FailedOperation",
			"type": "error"
		},
		{
			"anonymous": false,
			"inputs": [
				{
					"indexed": true,
					"internalType": "address",
					"name": "usuario",
					"type": "address"
				},
				{
					"indexed": true,
					"internalType": "address",
					"name": "token",
					"type": "address"
				},
				{
					"indexed": false,
					"internalType": "uint256",
					"name": "amount",
					"type": "uint256"
				},
				{
					"indexed": false,
					"internalType": "uint256",
					"name": "amountUSD",
					"type": "uint256"
				}
			],
			"name": "KipuBankV2_DepositoRealizado",
			"type": "event"
		},
		{
			"anonymous": false,
			"inputs": [
				{
					"indexed": true,
					"internalType": "address",
					"name": "newFeed",
					"type": "address"
				}
			],
			"name": "KipuBankV2_FeedActualizado",
			"type": "event"
		},
		{
			"anonymous": false,
			"inputs": [
				{
					"indexed": true,
					"internalType": "address",
					"name": "usuario",
					"type": "address"
				},
				{
					"indexed": true,
					"internalType": "address",
					"name": "token",
					"type": "address"
				},
				{
					"indexed": false,
					"internalType": "uint256",
					"name": "amount",
					"type": "uint256"
				},
				{
					"indexed": false,
					"internalType": "uint256",
					"name": "amountUSD",
					"type": "uint256"
				}
			],
			"name": "KipuBankV2_RetiroRealizado",
			"type": "event"
		},
		{
			"anonymous": false,
			"inputs": [
				{
					"indexed": true,
					"internalType": "address",
					"name": "previousOwner",
					"type": "address"
				},
				{
					"indexed": true,
					"internalType": "address",
					"name": "newOwner",
					"type": "address"
				}
			],
			"name": "OwnershipTransferred",
			"type": "event"
		},
		{
			"inputs": [],
			"name": "NATIVE_TOKEN",
			"outputs": [
				{
					"internalType": "address",
					"name": "",
					"type": "address"
				}
			],
			"stateMutability": "view",
			"type": "function"
		},
		{
			"inputs": [
				{
					"internalType": "address",
					"name": "_newFeed",
					"type": "address"
				}
			],
			"name": "actualizarFeed",
			"outputs": [],
			"stateMutability": "nonpayable",
			"type": "function"
		},
		{
			"inputs": [
				{
					"internalType": "address",
					"name": "_usuario",
					"type": "address"
				},
				{
					"internalType": "address",
					"name": "_token",
					"type": "address"
				}
			],
			"name": "consultarBalance",
			"outputs": [
				{
					"internalType": "uint256",
					"name": "balance_",
					"type": "uint256"
				}
			],
			"stateMutability": "view",
			"type": "function"
		},
		{
			"inputs": [
				{
					"internalType": "address",
					"name": "_usuario",
					"type": "address"
				}
			],
			"name": "consultarBalanceTotalUSD",
			"outputs": [
				{
					"internalType": "uint256",
					"name": "balanceTotalUSD_",
					"type": "uint256"
				}
			],
			"stateMutability": "view",
			"type": "function"
		},
		{
			"inputs": [],
			"name": "consultarEstadoBanco",
			"outputs": [
				{
					"internalType": "uint256",
					"name": "totalDepositadoUSD_",
					"type": "uint256"
				},
				{
					"internalType": "uint256",
					"name": "totalETH_",
					"type": "uint256"
				},
				{
					"internalType": "uint256",
					"name": "totalUSDC_",
					"type": "uint256"
				},
				{
					"internalType": "uint256",
					"name": "contadorDepositos_",
					"type": "uint256"
				},
				{
					"internalType": "uint256",
					"name": "contadorRetiros_",
					"type": "uint256"
				},
				{
					"internalType": "uint256",
					"name": "bankCapUSD_",
					"type": "uint256"
				},
				{
					"internalType": "uint256",
					"name": "umbralRetiroUSD_",
					"type": "uint256"
				}
			],
			"stateMutability": "view",
			"type": "function"
		},
		{
			"inputs": [],
			"name": "consultarPrecioETH",
			"outputs": [
				{
					"internalType": "uint256",
					"name": "precioETH_",
					"type": "uint256"
				},
				{
					"internalType": "uint256",
					"name": "ultimaActualizacion_",
					"type": "uint256"
				}
			],
			"stateMutability": "view",
			"type": "function"
		},
		{
			"inputs": [],
			"name": "depositarETH",
			"outputs": [],
			"stateMutability": "payable",
			"type": "function"
		},
		{
			"inputs": [
				{
					"internalType": "address",
					"name": "_token",
					"type": "address"
				},
				{
					"internalType": "uint256",
					"name": "_amount",
					"type": "uint256"
				}
			],
			"name": "depositarToken",
			"outputs": [],
			"stateMutability": "nonpayable",
			"type": "function"
		},
		{
			"inputs": [],
			"name": "getUmbralRetiro",
			"outputs": [
				{
					"internalType": "uint256",
					"name": "",
					"type": "uint256"
				}
			],
			"stateMutability": "view",
			"type": "function"
		},
		{
			"inputs": [],
			"name": "i_bankCapUSD",
			"outputs": [
				{
					"internalType": "uint256",
					"name": "",
					"type": "uint256"
				}
			],
			"stateMutability": "view",
			"type": "function"
		},
		{
			"inputs": [],
			"name": "i_umbralRetiroUSD",
			"outputs": [
				{
					"internalType": "uint256",
					"name": "",
					"type": "uint256"
				}
			],
			"stateMutability": "view",
			"type": "function"
		},
		{
			"inputs": [],
			"name": "i_usdc",
			"outputs": [
				{
					"internalType": "contract IERC20",
					"name": "",
					"type": "address"
				}
			],
			"stateMutability": "view",
			"type": "function"
		},
		{
			"inputs": [],
			"name": "owner",
			"outputs": [
				{
					"internalType": "address",
					"name": "",
					"type": "address"
				}
			],
			"stateMutability": "view",
			"type": "function"
		},
		{
			"inputs": [],
			"name": "renounceOwnership",
			"outputs": [],
			"stateMutability": "nonpayable",
			"type": "function"
		},
		{
			"inputs": [
				{
					"internalType": "uint256",
					"name": "_amountETH",
					"type": "uint256"
				}
			],
			"name": "retirarETH",
			"outputs": [],
			"stateMutability": "nonpayable",
			"type": "function"
		},
		{
			"inputs": [
				{
					"internalType": "address",
					"name": "_token",
					"type": "address"
				},
				{
					"internalType": "uint256",
					"name": "_amount",
					"type": "uint256"
				}
			],
			"name": "retirarToken",
			"outputs": [],
			"stateMutability": "nonpayable",
			"type": "function"
		},
		{
			"inputs": [
				{
					"internalType": "address",
					"name": "user",
					"type": "address"
				},
				{
					"internalType": "address",
					"name": "token",
					"type": "address"
				}
			],
			"name": "s_balances",
			"outputs": [
				{
					"internalType": "uint256",
					"name": "balanceUSD",
					"type": "uint256"
				}
			],
			"stateMutability": "view",
			"type": "function"
		},
		{
			"inputs": [],
			"name": "s_contadorDepositos",
			"outputs": [
				{
					"internalType": "uint256",
					"name": "",
					"type": "uint256"
				}
			],
			"stateMutability": "view",
			"type": "function"
		},
		{
			"inputs": [],
			"name": "s_contadorRetiros",
			"outputs": [
				{
					"internalType": "uint256",
					"name": "",
					"type": "uint256"
				}
			],
			"stateMutability": "view",
			"type": "function"
		},
		{
			"inputs": [],
			"name": "s_ethUsdFeed",
			"outputs": [
				{
					"internalType": "contract AggregatorV3Interface",
					"name": "",
					"type": "address"
				}
			],
			"stateMutability": "view",
			"type": "function"
		},
		{
			"inputs": [
				{
					"internalType": "address",
					"name": "token",
					"type": "address"
				}
			],
			"name": "s_totalDepositadoPorToken",
			"outputs": [
				{
					"internalType": "uint256",
					"name": "totalUSD",
					"type": "uint256"
				}
			],
			"stateMutability": "view",
			"type": "function"
		},
		{
			"inputs": [],
			"name": "s_totalDepositadoUSD",
			"outputs": [
				{
					"internalType": "uint256",
					"name": "",
					"type": "uint256"
				}
			],
			"stateMutability": "view",
			"type": "function"
		},
		{
			"inputs": [
				{
					"internalType": "address",
					"name": "newOwner",
					"type": "address"
				}
			],
			"name": "transferOwnership",
			"outputs": [],
			"stateMutability": "nonpayable",
			"type": "function"
		}
	]
}